{
  "_format": "hh-sol-artifact-1",
  "contractName": "ERC721MintAction",
  "sourceName": "contracts/actions/ERC721MintAction.sol",
  "abi": [
    {
      "inputs": [],
      "stateMutability": "nonpayable",
      "type": "constructor"
    },
    {
      "inputs": [],
      "name": "AlreadyInitialized",
      "type": "error"
    },
    {
      "inputs": [],
      "name": "CloneAlreadyInitialized",
      "type": "error"
    },
    {
      "inputs": [],
      "name": "InitializerNotImplemented",
      "type": "error"
    },
    {
      "inputs": [],
      "name": "InvalidInitialization",
      "type": "error"
    },
    {
      "inputs": [],
      "name": "InvalidInitializationData",
      "type": "error"
    },
    {
      "inputs": [],
      "name": "NewOwnerIsZeroAddress",
      "type": "error"
    },
    {
      "inputs": [],
      "name": "NoHandoverRequest",
      "type": "error"
    },
    {
      "inputs": [],
      "name": "NotImplemented",
      "type": "error"
    },
    {
      "inputs": [],
      "name": "NotInitializing",
      "type": "error"
    },
    {
      "inputs": [
        {
          "internalType": "uint256",
          "name": "targetChainId",
          "type": "uint256"
        }
      ],
      "name": "TargetChainUnsupported",
      "type": "error"
    },
    {
      "inputs": [],
      "name": "Unauthorized",
      "type": "error"
    },
    {
      "anonymous": false,
      "inputs": [
        {
          "indexed": true,
          "internalType": "address",
          "name": "executor",
          "type": "address"
        },
        {
          "indexed": false,
          "internalType": "address",
          "name": "caller",
          "type": "address"
        },
        {
          "indexed": false,
          "internalType": "bool",
          "name": "success",
          "type": "bool"
        },
        {
          "indexed": false,
          "internalType": "bytes",
          "name": "data",
          "type": "bytes"
        }
      ],
      "name": "ActionExecuted",
      "type": "event"
    },
    {
      "anonymous": false,
      "inputs": [
        {
          "indexed": true,
          "internalType": "address",
          "name": "user",
          "type": "address"
        },
        {
          "indexed": false,
          "internalType": "bool",
          "name": "isValidated",
          "type": "bool"
        },
        {
          "indexed": false,
          "internalType": "bytes",
          "name": "data",
          "type": "bytes"
        }
      ],
      "name": "ActionValidated",
      "type": "event"
    },
    {
      "anonymous": false,
      "inputs": [
        {
          "indexed": false,
          "internalType": "uint64",
          "name": "version",
          "type": "uint64"
        }
      ],
      "name": "Initialized",
      "type": "event"
    },
    {
      "anonymous": false,
      "inputs": [
        {
          "indexed": true,
          "internalType": "address",
          "name": "pendingOwner",
          "type": "address"
        }
      ],
      "name": "OwnershipHandoverCanceled",
      "type": "event"
    },
    {
      "anonymous": false,
      "inputs": [
        {
          "indexed": true,
          "internalType": "address",
          "name": "pendingOwner",
          "type": "address"
        }
      ],
      "name": "OwnershipHandoverRequested",
      "type": "event"
    },
    {
      "anonymous": false,
      "inputs": [
        {
          "indexed": true,
          "internalType": "address",
          "name": "oldOwner",
          "type": "address"
        },
        {
          "indexed": true,
          "internalType": "address",
          "name": "newOwner",
          "type": "address"
        }
      ],
      "name": "OwnershipTransferred",
      "type": "event"
    },
    {
      "inputs": [],
      "name": "VALIDATOR",
      "outputs": [
        {
          "internalType": "contract Validator",
          "name": "",
          "type": "address"
        }
      ],
      "stateMutability": "view",
      "type": "function"
    },
    {
      "inputs": [],
      "name": "cancelOwnershipHandover",
      "outputs": [],
      "stateMutability": "payable",
      "type": "function"
    },
    {
      "inputs": [],
      "name": "chainId",
      "outputs": [
        {
          "internalType": "uint256",
          "name": "",
          "type": "uint256"
        }
      ],
      "stateMutability": "view",
      "type": "function"
    },
    {
      "inputs": [
        {
          "internalType": "address",
          "name": "pendingOwner",
          "type": "address"
        }
      ],
      "name": "completeOwnershipHandover",
      "outputs": [],
      "stateMutability": "payable",
      "type": "function"
    },
    {
      "inputs": [
        {
          "internalType": "bytes",
          "name": "data_",
          "type": "bytes"
        }
      ],
      "name": "execute",
      "outputs": [
        {
          "internalType": "bool",
          "name": "success",
          "type": "bool"
        },
        {
          "internalType": "bytes",
          "name": "returnData",
          "type": "bytes"
        }
      ],
      "stateMutability": "payable",
      "type": "function"
    },
    {
      "inputs": [],
      "name": "getComponentInterface",
      "outputs": [
        {
          "internalType": "bytes4",
          "name": "",
          "type": "bytes4"
        }
      ],
      "stateMutability": "pure",
      "type": "function"
    },
    {
      "inputs": [
        {
          "internalType": "bytes",
          "name": "data_",
          "type": "bytes"
        }
      ],
      "name": "initialize",
      "outputs": [],
      "stateMutability": "nonpayable",
      "type": "function"
    },
    {
      "inputs": [],
      "name": "owner",
      "outputs": [
        {
          "internalType": "address",
          "name": "result",
          "type": "address"
        }
      ],
      "stateMutability": "view",
      "type": "function"
    },
    {
      "inputs": [
        {
          "internalType": "address",
          "name": "pendingOwner",
          "type": "address"
        }
      ],
      "name": "ownershipHandoverExpiresAt",
      "outputs": [
        {
          "internalType": "uint256",
          "name": "result",
          "type": "uint256"
        }
      ],
      "stateMutability": "view",
      "type": "function"
    },
    {
      "inputs": [
        {
          "internalType": "bytes",
          "name": "data_",
          "type": "bytes"
        }
      ],
      "name": "prepare",
      "outputs": [
        {
          "internalType": "bytes",
          "name": "",
          "type": "bytes"
        }
      ],
      "stateMutability": "view",
      "type": "function"
    },
    {
      "inputs": [],
      "name": "renounceOwnership",
      "outputs": [],
      "stateMutability": "payable",
      "type": "function"
    },
    {
      "inputs": [],
      "name": "requestOwnershipHandover",
      "outputs": [],
      "stateMutability": "payable",
      "type": "function"
    },
    {
      "inputs": [],
      "name": "selector",
      "outputs": [
        {
          "internalType": "bytes4",
          "name": "",
          "type": "bytes4"
        }
      ],
      "stateMutability": "view",
      "type": "function"
    },
    {
      "inputs": [
        {
          "internalType": "bytes4",
          "name": "interfaceId",
          "type": "bytes4"
        }
      ],
      "name": "supportsInterface",
      "outputs": [
        {
          "internalType": "bool",
          "name": "",
          "type": "bool"
        }
      ],
      "stateMutability": "view",
      "type": "function"
    },
    {
      "inputs": [],
      "name": "target",
      "outputs": [
        {
          "internalType": "address",
          "name": "",
          "type": "address"
        }
      ],
      "stateMutability": "view",
      "type": "function"
    },
    {
      "inputs": [
        {
          "internalType": "address",
          "name": "newOwner",
          "type": "address"
        }
      ],
      "name": "transferOwnership",
      "outputs": [],
      "stateMutability": "payable",
      "type": "function"
    },
    {
      "inputs": [
        {
          "internalType": "bytes",
          "name": "data_",
          "type": "bytes"
        }
      ],
      "name": "validate",
      "outputs": [
        {
          "internalType": "bool",
          "name": "success",
          "type": "bool"
        }
      ],
      "stateMutability": "nonpayable",
      "type": "function"
    },
    {
      "inputs": [
        {
          "internalType": "uint256",
          "name": "",
          "type": "uint256"
        }
      ],
      "name": "validated",
      "outputs": [
        {
          "internalType": "bool",
          "name": "",
          "type": "bool"
        }
      ],
      "stateMutability": "view",
      "type": "function"
    },
    {
      "inputs": [],
      "name": "value",
      "outputs": [
        {
          "internalType": "uint256",
          "name": "",
          "type": "uint256"
        }
      ],
      "stateMutability": "view",
      "type": "function"
    }
  ],
  "bytecode": "0x60a060405234801561000f575f80fd5b5061001e61004060201b60201c565b61002d336100ac60201b60201c565b61003b61004060201b60201c565b6101b5565b5f61004f61018860201b60201c565b9050805460018116156100695763f92ee8a95f526004601cfd5b8160c01c808260011c146100a7578060011b8355806020527fc7f505b2f371ae2175ee4913f4499e1f2633a7b5936321eed1cdaeb6115181d2602080a15b505050565b6100ba6101b160201b60201c565b15610132577fffffffffffffffffffffffffffffffffffffffffffffffffffffffff748739278054156100f457630dc149f05f526004601cfd5b8160601b60601c9150811560ff1b82178155815f7f8be0079c531659141344cd1fd0a4f28419497f9722a3daafe3b4186f6b6457e05f80a350610185565b8060601b60601c9050807fffffffffffffffffffffffffffffffffffffffffffffffffffffffff7487392755805f7f8be0079c531659141344cd1fd0a4f28419497f9722a3daafe3b4186f6b6457e05f80a35b50565b5f7fffffffffffffffffffffffffffffffffffffffffffffffffffffffffbf6011325f1b905090565b5f90565b6080516115ae6101cd5f395f6104bf01526115ae5ff3fe608060405260043610610113575f3560e01c80638da5cb5b1161009f578063d7768c4711610063578063d7768c471461033e578063ea3d508a1461037a578063f04e283e146103a4578063f2fde38b146103c0578063fee81cf4146103dc57610113565b80638da5cb5b146102485780639a8a059214610272578063bec952771461029c578063c16e50ef146102d8578063d4b839921461031457610113565b8063393df8cb116100e6578063393df8cb146101b85780633fa4f245146101e2578063439fab911461020c57806354d1f13d14610234578063715018a61461023e57610113565b806301ffc9a71461011757806309c5eabe14610153578063256929621461018457806328d6183b1461018e575b5f80fd5b348015610122575f80fd5b5061013d60048036038101906101389190610ea3565b610418565b60405161014a9190610ee8565b60405180910390f35b61016d60048036038101906101689190610f62565b610429565b60405161017b92919061101d565b60405180910390f35b61018c61045e565b005b348015610199575f80fd5b506101a26104af565b6040516101af919061105a565b60405180910390f35b3480156101c3575f80fd5b506101cc6104bd565b6040516101d991906110ed565b60405180910390f35b3480156101ed575f80fd5b506101f66104e1565b604051610203919061111e565b60405180910390f35b348015610217575f80fd5b50610232600480360381019061022d9190610f62565b6104e7565b005b61023c610574565b005b6102466105ad565b005b348015610253575f80fd5b5061025c6105c0565b6040516102699190611157565b60405180910390f35b34801561027d575f80fd5b506102866105e8565b604051610293919061111e565b60405180910390f35b3480156102a7575f80fd5b506102c260048036038101906102bd919061119a565b6105ed565b6040516102cf9190610ee8565b60405180910390f35b3480156102e3575f80fd5b506102fe60048036038101906102f99190610f62565b61060a565b60405161030b9190610ee8565b60405180910390f35b34801561031f575f80fd5b50610328610764565b6040516103359190611157565b60405180910390f35b348015610349575f80fd5b50610364600480360381019061035f9190610f62565b610789565b60405161037191906111c5565b60405180910390f35b348015610385575f80fd5b5061038e61079d565b60405161039b919061105a565b60405180910390f35b6103be60048036038101906103b9919061120f565b6107b0565b005b6103da60048036038101906103d5919061120f565b6107ee565b005b3480156103e7575f80fd5b5061040260048036038101906103fd919061120f565b610817565b60405161040f919061111e565b60405180910390f35b5f61042282610830565b9050919050565b5f60606040517fd623472500000000000000000000000000000000000000000000000000000000815260040160405180910390fd5b5f6104676108a9565b67ffffffffffffffff164201905063389a75e1600c52335f52806020600c2055337fdbf36a107da19e49527a7176a1babf963b4b0ff8cde35ee35d6cd8f1f9ac7e1d5f80a250565b5f6104b86108b3565b905090565b7f000000000000000000000000000000000000000000000000000000000000000081565b60025481565b5f6104f06108da565b905080546003825580156105225760018160011c14303b106105195763f92ee8a95f526004601cfd5b818160ff1b1b91505b5061053a8383810190610535919061132b565b610903565b801561056f576002815560016020527fc7f505b2f371ae2175ee4913f4499e1f2633a7b5936321eed1cdaeb6115181d2602080a15b505050565b63389a75e1600c52335f525f6020600c2055337ffa7b8eab7da67f412cc9575ed43464468f9bfbae89d1675917346ca6d8fe3c925f80a2565b6105b5610920565b6105be5f610957565b565b5f7fffffffffffffffffffffffffffffffffffffffffffffffffffffffff7487392754905090565b5f5481565b6003602052805f5260405f205f915054906101000a900460ff1681565b5f805f848481019061061c9190611441565b915091505f8161062b906114d3565b5f1c90508273ffffffffffffffffffffffffffffffffffffffff1660015f9054906101000a900473ffffffffffffffffffffffffffffffffffffffff1673ffffffffffffffffffffffffffffffffffffffff16636352211e836040518263ffffffff1660e01b81526004016106a0919061111e565b602060405180830381865afa1580156106bb573d5f803e3d5ffd5b505050506040513d601f19601f820116820180604052508101906106df919061154d565b73ffffffffffffffffffffffffffffffffffffffff1614801561071d575060035f8281526020019081526020015f205f9054906101000a900460ff16155b1561075757600160035f8381526020019081526020015f205f6101000a81548160ff0219169083151502179055506001935050505061075e565b5f93505050505b92915050565b60015f9054906101000a900473ffffffffffffffffffffffffffffffffffffffff1681565b60606107958383610a1d565b905092915050565b600160149054906101000a900460e01b81565b6107b8610920565b63389a75e1600c52805f526020600c2080544211156107de57636f5e88185f526004601cfd5b5f8155506107eb81610957565b50565b6107f6610920565b8060601b61080b57637448fbae5f526004601cfd5b61081481610957565b50565b5f63389a75e1600c52815f526020600c20549050919050565b5f7fe8478173000000000000000000000000000000000000000000000000000000007bffffffffffffffffffffffffffffffffffffffffffffffffffffffff1916827bffffffffffffffffffffffffffffffffffffffffffffffffffffffff191614806108a257506108a182610a41565b5b9050919050565b5f6202a300905090565b5f7fe847817300000000000000000000000000000000000000000000000000000000905090565b5f7fffffffffffffffffffffffffffffffffffffffffffffffffffffffffbf6011325f1b905090565b61090b610aba565b61091481610ade565b61091d33610b63565b50565b7fffffffffffffffffffffffffffffffffffffffffffffffffffffffff74873927543314610955576382b429005f526004601cfd5b565b61095f610c39565b156109c4577fffffffffffffffffffffffffffffffffffffffffffffffffffffffff748739278160601b60601c91508181547f8be0079c531659141344cd1fd0a4f28419497f9722a3daafe3b4186f6b6457e05f80a3811560ff1b8217815550610a1a565b7fffffffffffffffffffffffffffffffffffffffffffffffffffffffff748739278160601b60601c91508181547f8be0079c531659141344cd1fd0a4f28419497f9722a3daafe3b4186f6b6457e05f80a3818155505b50565b6060610a39600160149054906101000a900460e01b8484610c3d565b905092915050565b5f7f2929d19c000000000000000000000000000000000000000000000000000000007bffffffffffffffffffffffffffffffffffffffffffffffffffffffff1916827bffffffffffffffffffffffffffffffffffffffffffffffffffffffff19161480610ab35750610ab282610c69565b5b9050919050565b5f610ac36108da565b90508054600116610adb5763d7e6bcf85f526004601cfd5b50565b610ae6610aba565b805f01515f81905550806020015160015f6101000a81548173ffffffffffffffffffffffffffffffffffffffff021916908373ffffffffffffffffffffffffffffffffffffffff1602179055508060400151600160146101000a81548163ffffffff021916908360e01c0217905550806060015160028190555050565b610b6b610c39565b15610be3577fffffffffffffffffffffffffffffffffffffffffffffffffffffffff74873927805415610ba557630dc149f05f526004601cfd5b8160601b60601c9150811560ff1b82178155815f7f8be0079c531659141344cd1fd0a4f28419497f9722a3daafe3b4186f6b6457e05f80a350610c36565b8060601b60601c9050807fffffffffffffffffffffffffffffffffffffffffffffffffffffffff7487392755805f7f8be0079c531659141344cd1fd0a4f28419497f9722a3daafe3b4186f6b6457e05f80a35b50565b5f90565b606081600401604051915080825260208101820160405284602083015282846024840137509392505050565b5f7f2929d19c000000000000000000000000000000000000000000000000000000007bffffffffffffffffffffffffffffffffffffffffffffffffffffffff1916827bffffffffffffffffffffffffffffffffffffffffffffffffffffffff19161480610cdb5750610cda82610ce2565b5b9050919050565b5f7fcea74fae000000000000000000000000000000000000000000000000000000007bffffffffffffffffffffffffffffffffffffffffffffffffffffffff1916827bffffffffffffffffffffffffffffffffffffffffffffffffffffffff19161480610d545750610d5382610d5b565b5b9050919050565b5f7f6ab67a0d000000000000000000000000000000000000000000000000000000007bffffffffffffffffffffffffffffffffffffffffffffffffffffffff1916827bffffffffffffffffffffffffffffffffffffffffffffffffffffffff19161480610dcd5750610dcc82610dd4565b5b9050919050565b5f7f01ffc9a7000000000000000000000000000000000000000000000000000000007bffffffffffffffffffffffffffffffffffffffffffffffffffffffff1916827bffffffffffffffffffffffffffffffffffffffffffffffffffffffff1916149050919050565b5f604051905090565b5f80fd5b5f80fd5b5f7fffffffff0000000000000000000000000000000000000000000000000000000082169050919050565b610e8281610e4e565b8114610e8c575f80fd5b50565b5f81359050610e9d81610e79565b92915050565b5f60208284031215610eb857610eb7610e46565b5b5f610ec584828501610e8f565b91505092915050565b5f8115159050919050565b610ee281610ece565b82525050565b5f602082019050610efb5f830184610ed9565b92915050565b5f80fd5b5f80fd5b5f80fd5b5f8083601f840112610f2257610f21610f01565b5b8235905067ffffffffffffffff811115610f3f57610f3e610f05565b5b602083019150836001820283011115610f5b57610f5a610f09565b5b9250929050565b5f8060208385031215610f7857610f77610e46565b5b5f83013567ffffffffffffffff811115610f9557610f94610e4a565b5b610fa185828601610f0d565b92509250509250929050565b5f81519050919050565b5f82825260208201905092915050565b8281835e5f83830152505050565b5f601f19601f8301169050919050565b5f610fef82610fad565b610ff98185610fb7565b9350611009818560208601610fc7565b61101281610fd5565b840191505092915050565b5f6040820190506110305f830185610ed9565b81810360208301526110428184610fe5565b90509392505050565b61105481610e4e565b82525050565b5f60208201905061106d5f83018461104b565b92915050565b5f73ffffffffffffffffffffffffffffffffffffffff82169050919050565b5f819050919050565b5f6110b56110b06110ab84611073565b611092565b611073565b9050919050565b5f6110c68261109b565b9050919050565b5f6110d7826110bc565b9050919050565b6110e7816110cd565b82525050565b5f6020820190506111005f8301846110de565b92915050565b5f819050919050565b61111881611106565b82525050565b5f6020820190506111315f83018461110f565b92915050565b5f61114182611073565b9050919050565b61115181611137565b82525050565b5f60208201905061116a5f830184611148565b92915050565b61117981611106565b8114611183575f80fd5b50565b5f8135905061119481611170565b92915050565b5f602082840312156111af576111ae610e46565b5b5f6111bc84828501611186565b91505092915050565b5f6020820190508181035f8301526111dd8184610fe5565b905092915050565b6111ee81611137565b81146111f8575f80fd5b50565b5f81359050611209816111e5565b92915050565b5f6020828403121561122457611223610e46565b5b5f611231848285016111fb565b91505092915050565b5f80fd5b7f4e487b71000000000000000000000000000000000000000000000000000000005f52604160045260245ffd5b61127482610fd5565b810181811067ffffffffffffffff821117156112935761129261123e565b5b80604052505050565b5f6112a5610e3d565b90506112b1828261126b565b919050565b5f608082840312156112cb576112ca61123a565b5b6112d5608061129c565b90505f6112e484828501611186565b5f8301525060206112f7848285016111fb565b602083015250604061130b84828501610e8f565b604083015250606061131f84828501611186565b60608301525092915050565b5f608082840312156113405761133f610e46565b5b5f61134d848285016112b6565b91505092915050565b5f61136082611073565b9050919050565b61137081611356565b811461137a575f80fd5b50565b5f8135905061138b81611367565b92915050565b5f80fd5b5f67ffffffffffffffff8211156113af576113ae61123e565b5b6113b882610fd5565b9050602081019050919050565b828183375f83830152505050565b5f6113e56113e084611395565b61129c565b90508281526020810184848401111561140157611400611391565b5b61140c8482856113c5565b509392505050565b5f82601f83011261142857611427610f01565b5b81356114388482602086016113d3565b91505092915050565b5f806040838503121561145757611456610e46565b5b5f6114648582860161137d565b925050602083013567ffffffffffffffff81111561148557611484610e4a565b5b61149185828601611414565b9150509250929050565b5f819050602082019050919050565b5f819050919050565b5f6114be82516114aa565b80915050919050565b5f82821b905092915050565b5f6114dd82610fad565b826114e78461149b565b90506114f2816114b3565b925060208210156115325761152d7fffffffffffffffffffffffffffffffffffffffffffffffffffffffffffffffff836020036008026114c7565b831692505b5050919050565b5f81519050611547816111e5565b92915050565b5f6020828403121561156257611561610e46565b5b5f61156f84828501611539565b9150509291505056fea2646970667358221220aab5a35f19ed2f0a1ba1d8d12e2544419ec5bb803ca2f4f9454a0aa21b94c4b264736f6c63430008190033",
  "linkReferences": {},
  "deployedLinkReferences": {}
}