{
  "_format": "hh-sol-artifact-1",
  "contractName": "BoostCore",
  "sourceName": "contracts/BoostCore.sol",
  "abi": [
    {
      "inputs": [
        {
          "internalType": "contract BoostRegistry",
          "name": "registry_",
          "type": "address"
        },
        {
          "internalType": "address",
          "name": "protocolFeeReceiver_",
          "type": "address"
        }
      ],
      "stateMutability": "nonpayable",
      "type": "constructor"
    },
    {
      "inputs": [],
      "name": "AlreadyInitialized",
      "type": "error"
    },
    {
      "inputs": [
        {
          "internalType": "address",
          "name": "caller",
          "type": "address"
        },
        {
          "internalType": "bytes",
          "name": "data",
          "type": "bytes"
        }
      ],
      "name": "ClaimFailed",
      "type": "error"
    },
    {
      "inputs": [
        {
          "internalType": "address",
          "name": "asset",
          "type": "address"
        },
        {
          "internalType": "uint256",
          "name": "available",
          "type": "uint256"
        },
        {
          "internalType": "uint256",
          "name": "required",
          "type": "uint256"
        }
      ],
      "name": "InsufficientFunds",
      "type": "error"
    },
    {
      "inputs": [
        {
          "internalType": "bytes4",
          "name": "expectedInterface",
          "type": "bytes4"
        },
        {
          "internalType": "address",
          "name": "instance",
          "type": "address"
        }
      ],
      "name": "InvalidInstance",
      "type": "error"
    },
    {
      "inputs": [],
      "name": "NewOwnerIsZeroAddress",
      "type": "error"
    },
    {
      "inputs": [],
      "name": "NoHandoverRequest",
      "type": "error"
    },
    {
      "inputs": [],
      "name": "Reentrancy",
      "type": "error"
    },
    {
      "inputs": [],
      "name": "Unauthorized",
      "type": "error"
    },
    {
      "inputs": [],
      "name": "Unauthorized",
      "type": "error"
    },
    {
      "anonymous": false,
      "inputs": [
        {
          "indexed": true,
          "internalType": "address",
          "name": "pendingOwner",
          "type": "address"
        }
      ],
      "name": "OwnershipHandoverCanceled",
      "type": "event"
    },
    {
      "anonymous": false,
      "inputs": [
        {
          "indexed": true,
          "internalType": "address",
          "name": "pendingOwner",
          "type": "address"
        }
      ],
      "name": "OwnershipHandoverRequested",
      "type": "event"
    },
    {
      "anonymous": false,
      "inputs": [
        {
          "indexed": true,
          "internalType": "address",
          "name": "oldOwner",
          "type": "address"
        },
        {
          "indexed": true,
          "internalType": "address",
          "name": "newOwner",
          "type": "address"
        }
      ],
      "name": "OwnershipTransferred",
      "type": "event"
    },
    {
      "inputs": [],
      "name": "FEE_DENOMINATOR",
      "outputs": [
        {
          "internalType": "uint64",
          "name": "",
          "type": "uint64"
        }
      ],
      "stateMutability": "view",
      "type": "function"
    },
    {
      "inputs": [],
      "name": "cancelOwnershipHandover",
      "outputs": [],
      "stateMutability": "payable",
      "type": "function"
    },
    {
      "inputs": [],
      "name": "claimFee",
      "outputs": [
        {
          "internalType": "uint256",
          "name": "",
          "type": "uint256"
        }
      ],
      "stateMutability": "view",
      "type": "function"
    },
    {
      "inputs": [
        {
          "internalType": "uint256",
          "name": "boostId_",
          "type": "uint256"
        },
        {
          "internalType": "uint256",
          "name": "incentiveId_",
          "type": "uint256"
        },
        {
          "internalType": "address",
          "name": "referrer_",
          "type": "address"
        },
        {
          "internalType": "bytes",
          "name": "data_",
          "type": "bytes"
        }
      ],
      "name": "claimIncentive",
      "outputs": [],
      "stateMutability": "payable",
      "type": "function"
    },
    {
      "inputs": [
        {
          "internalType": "address",
          "name": "pendingOwner",
          "type": "address"
        }
      ],
      "name": "completeOwnershipHandover",
      "outputs": [],
      "stateMutability": "payable",
      "type": "function"
    },
    {
      "inputs": [
        {
          "internalType": "bytes",
          "name": "data_",
          "type": "bytes"
        }
      ],
      "name": "createBoost",
      "outputs": [
        {
          "components": [
            {
              "internalType": "contract Action",
              "name": "action",
              "type": "address"
            },
            {
              "internalType": "contract Validator",
              "name": "validator",
              "type": "address"
            },
            {
              "internalType": "contract AllowList",
              "name": "allowList",
              "type": "address"
            },
            {
              "internalType": "contract Budget",
              "name": "budget",
              "type": "address"
            },
            {
              "internalType": "contract Incentive[]",
              "name": "incentives",
              "type": "address[]"
            },
            {
              "internalType": "uint64",
              "name": "protocolFee",
              "type": "uint64"
            },
            {
              "internalType": "uint64",
              "name": "referralFee",
              "type": "uint64"
            },
            {
              "internalType": "uint256",
              "name": "maxParticipants",
              "type": "uint256"
            },
            {
              "internalType": "address",
              "name": "owner",
              "type": "address"
            }
          ],
          "internalType": "struct BoostLib.Boost",
          "name": "",
          "type": "tuple"
        }
      ],
      "stateMutability": "nonpayable",
      "type": "function"
    },
    {
      "inputs": [
        {
          "internalType": "uint256",
          "name": "index",
          "type": "uint256"
        }
      ],
      "name": "getBoost",
      "outputs": [
        {
          "components": [
            {
              "internalType": "contract Action",
              "name": "action",
              "type": "address"
            },
            {
              "internalType": "contract Validator",
              "name": "validator",
              "type": "address"
            },
            {
              "internalType": "contract AllowList",
              "name": "allowList",
              "type": "address"
            },
            {
              "internalType": "contract Budget",
              "name": "budget",
              "type": "address"
            },
            {
              "internalType": "contract Incentive[]",
              "name": "incentives",
              "type": "address[]"
            },
            {
              "internalType": "uint64",
              "name": "protocolFee",
              "type": "uint64"
            },
            {
              "internalType": "uint64",
              "name": "referralFee",
              "type": "uint64"
            },
            {
              "internalType": "uint256",
              "name": "maxParticipants",
              "type": "uint256"
            },
            {
              "internalType": "address",
              "name": "owner",
              "type": "address"
            }
          ],
          "internalType": "struct BoostLib.Boost",
          "name": "",
          "type": "tuple"
        }
      ],
      "stateMutability": "view",
      "type": "function"
    },
    {
      "inputs": [],
      "name": "getBoostCount",
      "outputs": [
        {
          "internalType": "uint256",
          "name": "",
          "type": "uint256"
        }
      ],
      "stateMutability": "view",
      "type": "function"
    },
    {
      "inputs": [],
      "name": "owner",
      "outputs": [
        {
          "internalType": "address",
          "name": "result",
          "type": "address"
        }
      ],
      "stateMutability": "view",
      "type": "function"
    },
    {
      "inputs": [
        {
          "internalType": "address",
          "name": "pendingOwner",
          "type": "address"
        }
      ],
      "name": "ownershipHandoverExpiresAt",
      "outputs": [
        {
          "internalType": "uint256",
          "name": "result",
          "type": "uint256"
        }
      ],
      "stateMutability": "view",
      "type": "function"
    },
    {
      "inputs": [],
      "name": "protocolFee",
      "outputs": [
        {
          "internalType": "uint64",
          "name": "",
          "type": "uint64"
        }
      ],
      "stateMutability": "view",
      "type": "function"
    },
    {
      "inputs": [],
      "name": "protocolFeeReceiver",
      "outputs": [
        {
          "internalType": "address",
          "name": "",
          "type": "address"
        }
      ],
      "stateMutability": "view",
      "type": "function"
    },
    {
      "inputs": [],
      "name": "referralFee",
      "outputs": [
        {
          "internalType": "uint64",
          "name": "",
          "type": "uint64"
        }
      ],
      "stateMutability": "view",
      "type": "function"
    },
    {
      "inputs": [],
      "name": "registry",
      "outputs": [
        {
          "internalType": "contract BoostRegistry",
          "name": "",
          "type": "address"
        }
      ],
      "stateMutability": "view",
      "type": "function"
    },
    {
      "inputs": [],
      "name": "renounceOwnership",
      "outputs": [],
      "stateMutability": "payable",
      "type": "function"
    },
    {
      "inputs": [],
      "name": "requestOwnershipHandover",
      "outputs": [],
      "stateMutability": "payable",
      "type": "function"
    },
    {
      "inputs": [
        {
          "internalType": "uint256",
          "name": "claimFee_",
          "type": "uint256"
        }
      ],
      "name": "setClaimFee",
      "outputs": [],
      "stateMutability": "nonpayable",
      "type": "function"
    },
    {
      "inputs": [
        {
          "internalType": "address",
          "name": "protocolFeeReceiver_",
          "type": "address"
        }
      ],
      "name": "setProtocolFeeReceiver",
      "outputs": [],
      "stateMutability": "nonpayable",
      "type": "function"
    },
    {
      "inputs": [
        {
          "internalType": "address",
          "name": "newOwner",
          "type": "address"
        }
      ],
      "name": "transferOwnership",
      "outputs": [],
      "stateMutability": "payable",
      "type": "function"
    }
  ],
  "bytecode": "0x60806040526544364c5bb0006003556103e860045f6101000a81548167ffffffffffffffff021916908367ffffffffffffffff1602179055506103e8600460086101000a81548167ffffffffffffffff021916908367ffffffffffffffff16021790555034801561006e575f80fd5b506040516130da3803806130da8339818101604052810190610090919061029f565b61009f3361012660201b60201c565b8160015f6101000a81548173ffffffffffffffffffffffffffffffffffffffff021916908373ffffffffffffffffffffffffffffffffffffffff1602179055508060025f6101000a81548173ffffffffffffffffffffffffffffffffffffffff021916908373ffffffffffffffffffffffffffffffffffffffff16021790555050506102dd565b61013461020260201b60201c565b156101ac577fffffffffffffffffffffffffffffffffffffffffffffffffffffffff7487392780541561016e57630dc149f05f526004601cfd5b8160601b60601c9150811560ff1b82178155815f7f8be0079c531659141344cd1fd0a4f28419497f9722a3daafe3b4186f6b6457e05f80a3506101ff565b8060601b60601c9050807fffffffffffffffffffffffffffffffffffffffffffffffffffffffff7487392755805f7f8be0079c531659141344cd1fd0a4f28419497f9722a3daafe3b4186f6b6457e05f80a35b50565b5f90565b5f80fd5b5f73ffffffffffffffffffffffffffffffffffffffff82169050919050565b5f6102338261020a565b9050919050565b5f61024482610229565b9050919050565b6102548161023a565b811461025e575f80fd5b50565b5f8151905061026f8161024b565b92915050565b61027e81610229565b8114610288575f80fd5b50565b5f8151905061029981610275565b92915050565b5f80604083850312156102b5576102b4610206565b5b5f6102c285828601610261565b92505060206102d38582860161028b565b9150509250929050565b612df0806102ea5f395ff3fe608060405260043610610113575f3560e01c806384ae2bc61161009f578063d73792a911610063578063d73792a914610303578063e21ff7311461032d578063f04e283e14610369578063f2fde38b14610385578063fee81cf4146103a157610113565b806384ae2bc61461023f5780638da5cb5b146102695780638fe4f5231461029357806399d32fc4146102af578063b0e21e8a146102d957610113565b806346877b1a116100e657806346877b1a146101af57806354d1f13d146101d75780635edb9eb0146101e1578063715018a61461020b5780637b1039991461021557610113565b806313c8e2de1461011757806325692962146101535780632e75ab501461015d57806339a51be514610185575b5f80fd5b348015610122575f80fd5b5061013d60048036038101906101389190611f1d565b6103dd565b60405161014a919061220e565b60405180910390f35b61015b6106b7565b005b348015610168575f80fd5b50610183600480360381019061017e9190611f1d565b610708565b005b348015610190575f80fd5b5061019961071a565b6040516101a6919061223d565b60405180910390f35b3480156101ba575f80fd5b506101d560048036038101906101d09190612280565b61073f565b005b6101df61078a565b005b3480156101ec575f80fd5b506101f56107c3565b60405161020291906122ba565b60405180910390f35b6102136107ce565b005b348015610220575f80fd5b506102296107e1565b60405161023691906122f3565b60405180910390f35b34801561024a575f80fd5b50610253610806565b604051610260919061231b565b60405180910390f35b348015610274575f80fd5b5061027d610820565b60405161028a919061223d565b60405180910390f35b6102ad60048036038101906102a89190612395565b610848565b005b3480156102ba575f80fd5b506102c3610b5a565b6040516102d091906122ba565b60405180910390f35b3480156102e4575f80fd5b506102ed610b60565b6040516102fa919061231b565b60405180910390f35b34801561030e575f80fd5b50610317610b79565b604051610324919061231b565b60405180910390f35b348015610338575f80fd5b50610353600480360381019061034e9190612419565b610b7f565b604051610360919061220e565b60405180910390f35b610383600480360381019061037e9190612280565b6112e5565b005b61039f600480360381019061039a9190612280565b611323565b005b3480156103ac575f80fd5b506103c760048036038101906103c29190612280565b61134c565b6040516103d491906122ba565b60405180910390f35b6103e5611d71565b5f82815481106103f8576103f7612464565b5b905f5260205f209060080201604051806101200160405290815f82015f9054906101000a900473ffffffffffffffffffffffffffffffffffffffff1673ffffffffffffffffffffffffffffffffffffffff1673ffffffffffffffffffffffffffffffffffffffff168152602001600182015f9054906101000a900473ffffffffffffffffffffffffffffffffffffffff1673ffffffffffffffffffffffffffffffffffffffff1673ffffffffffffffffffffffffffffffffffffffff168152602001600282015f9054906101000a900473ffffffffffffffffffffffffffffffffffffffff1673ffffffffffffffffffffffffffffffffffffffff1673ffffffffffffffffffffffffffffffffffffffff168152602001600382015f9054906101000a900473ffffffffffffffffffffffffffffffffffffffff1673ffffffffffffffffffffffffffffffffffffffff1673ffffffffffffffffffffffffffffffffffffffff168152602001600482018054806020026020016040519081016040528092919081815260200182805480156105e557602002820191905f5260205f20905b815f9054906101000a900473ffffffffffffffffffffffffffffffffffffffff1673ffffffffffffffffffffffffffffffffffffffff168152602001906001019080831161059c575b50505050508152602001600582015f9054906101000a900467ffffffffffffffff1667ffffffffffffffff1667ffffffffffffffff1681526020016005820160089054906101000a900467ffffffffffffffff1667ffffffffffffffff1667ffffffffffffffff16815260200160068201548152602001600782015f9054906101000a900473ffffffffffffffffffffffffffffffffffffffff1673ffffffffffffffffffffffffffffffffffffffff1673ffffffffffffffffffffffffffffffffffffffff16815250509050919050565b5f6106c0611365565b67ffffffffffffffff164201905063389a75e1600c52335f52806020600c2055337fdbf36a107da19e49527a7176a1babf963b4b0ff8cde35ee35d6cd8f1f9ac7e1d5f80a250565b61071061136f565b8060038190555050565b60025f9054906101000a900473ffffffffffffffffffffffffffffffffffffffff1681565b61074761136f565b8060025f6101000a81548173ffffffffffffffffffffffffffffffffffffffff021916908373ffffffffffffffffffffffffffffffffffffffff16021790555050565b63389a75e1600c52335f525f6020600c2055337ffa7b8eab7da67f412cc9575ed43464468f9bfbae89d1675917346ca6d8fe3c925f80a2565b5f8080549050905090565b6107d661136f565b6107df5f6113a6565b565b60015f9054906101000a900473ffffffffffffffffffffffffffffffffffffffff1681565b600460089054906101000a900467ffffffffffffffff1681565b5f7fffffffffffffffffffffffffffffffffffffffffffffffffffffffff7487392754905090565b3068929eee149b4bd2126854036108665763ab143c065f526004601cfd5b3068929eee149b4bd21268555f80868154811061088657610885612464565b5b905f5260205f20906008020190506003543410156108e1575f346003546040517f5c54305e0000000000000000000000000000000000000000000000000000000081526004016108d893929190612491565b60405180910390fd5b6108eb818561146c565b806001015f9054906101000a900473ffffffffffffffffffffffffffffffffffffffff1673ffffffffffffffffffffffffffffffffffffffff1663c16e50ef84846040518363ffffffff1660e01b8152600401610949929190612520565b6020604051808303815f875af1158015610965573d5f803e3d5ffd5b505050506040513d601f19601f820116820180604052508101906109899190612577565b6109bf576040517f82b4290000000000000000000000000000000000000000000000000000000000815260040160405180910390fd5b8060040185815481106109d5576109d4612464565b5b905f5260205f20015f9054906101000a900473ffffffffffffffffffffffffffffffffffffffff1673ffffffffffffffffffffffffffffffffffffffff1663c63ff8dd60405180604001604052803373ffffffffffffffffffffffffffffffffffffffff16815260200186868080601f0160208091040260200160405190810160405280939291908181526020018383808284375f81840152601f19601f82011690508083019250505050505050815250604051602001610a96919061263c565b6040516020818303038152906040526040518263ffffffff1660e01b8152600401610ac19190612694565b6020604051808303815f875af1158015610add573d5f803e3d5ffd5b505050506040513d601f19601f82011682018060405250810190610b019190612577565b610b46573383836040517f4139d81d000000000000000000000000000000000000000000000000000000008152600401610b3d939291906126b4565b60405180910390fd5b503868929eee149b4bd21268555050505050565b60035481565b60045f9054906101000a900467ffffffffffffffff1681565b61271081565b610b87611d71565b610b8f61136f565b3068929eee149b4bd212685403610bad5763ab143c065f526004601cfd5b3068929eee149b4bd21268555f610c0684848080601f0160208091040260200160405190810160405280939291908181526020018383808284375f81840152601f19601f820116905080830192505050505050506115da565b806020019051810190610c199190612b4c565b9050610c27815f0151611673565b5f8060018160018154018082558091505003905f5260205f2090600802019050816101000151816007015f6101000a81548173ffffffffffffffffffffffffffffffffffffffff021916908373ffffffffffffffffffffffffffffffffffffffff160217905550815f0151816003015f6101000a81548173ffffffffffffffffffffffffffffffffffffffff021916908373ffffffffffffffffffffffffffffffffffffffff1602179055508160a0015160045f9054906101000a900467ffffffffffffffff16610cf89190612bc0565b816005015f6101000a81548167ffffffffffffffff021916908367ffffffffffffffff1602179055508160c00151600460089054906101000a900467ffffffffffffffff16610d479190612bc0565b8160050160086101000a81548167ffffffffffffffff021916908367ffffffffffffffff1602179055508160e001518160060181905550610dae7fe6715795000000000000000000000000000000000000000000000000000000008360200151600161174e565b815f015f6101000a81548173ffffffffffffffffffffffffffffffffffffffff021916908373ffffffffffffffffffffffffffffffffffffffff160217905550610e1e7fe2089f79000000000000000000000000000000000000000000000000000000008360600151600161174e565b816002015f6101000a81548173ffffffffffffffffffffffffffffffffffffffff021916908373ffffffffffffffffffffffffffffffffffffffff160217905550610e708260800151835f0151611770565b816004019080519060200190610e87929190611e37565b505f73ffffffffffffffffffffffffffffffffffffffff1682604001516020015173ffffffffffffffffffffffffffffffffffffffff1614610ef857610ef37fc0919948000000000000000000000000000000000000000000000000000000008360400151600161174e565b610fe1565b805f015f9054906101000a900473ffffffffffffffffffffffffffffffffffffffff1673ffffffffffffffffffffffffffffffffffffffff166301ffc9a77fc0919948000000000000000000000000000000000000000000000000000000006040518263ffffffff1660e01b8152600401610f739190612c35565b602060405180830381865afa158015610f8e573d5f803e3d5ffd5b505050506040513d601f19601f82011682018060405250810190610fb29190612577565b610fbc575f610fe0565b805f015f9054906101000a900473ffffffffffffffffffffffffffffffffffffffff165b5b816001015f6101000a81548173ffffffffffffffffffffffffffffffffffffffff021916908373ffffffffffffffffffffffffffffffffffffffff16021790555080604051806101200160405290815f82015f9054906101000a900473ffffffffffffffffffffffffffffffffffffffff1673ffffffffffffffffffffffffffffffffffffffff1673ffffffffffffffffffffffffffffffffffffffff168152602001600182015f9054906101000a900473ffffffffffffffffffffffffffffffffffffffff1673ffffffffffffffffffffffffffffffffffffffff1673ffffffffffffffffffffffffffffffffffffffff168152602001600282015f9054906101000a900473ffffffffffffffffffffffffffffffffffffffff1673ffffffffffffffffffffffffffffffffffffffff1673ffffffffffffffffffffffffffffffffffffffff168152602001600382015f9054906101000a900473ffffffffffffffffffffffffffffffffffffffff1673ffffffffffffffffffffffffffffffffffffffff1673ffffffffffffffffffffffffffffffffffffffff1681526020016004820180548060200260200160405190810160405280929190818152602001828054801561120457602002820191905f5260205f20905b815f9054906101000a900473ffffffffffffffffffffffffffffffffffffffff1673ffffffffffffffffffffffffffffffffffffffff16815260200190600101908083116111bb575b50505050508152602001600582015f9054906101000a900467ffffffffffffffff1667ffffffffffffffff1667ffffffffffffffff1681526020016005820160089054906101000a900467ffffffffffffffff1667ffffffffffffffff1667ffffffffffffffff16815260200160068201548152602001600782015f9054906101000a900473ffffffffffffffffffffffffffffffffffffffff1673ffffffffffffffffffffffffffffffffffffffff1673ffffffffffffffffffffffffffffffffffffffff1681525050925050503868929eee149b4bd212685592915050565b6112ed61136f565b63389a75e1600c52805f526020600c20805442111561131357636f5e88185f526004601cfd5b5f815550611320816113a6565b50565b61132b61136f565b8060601b61134057637448fbae5f526004601cfd5b611349816113a6565b50565b5f63389a75e1600c52815f526020600c20549050919050565b5f6202a300905090565b7fffffffffffffffffffffffffffffffffffffffffffffffffffffffff748739275433146113a4576382b429005f526004601cfd5b565b6113ae611b3a565b15611413577fffffffffffffffffffffffffffffffffffffffffffffffffffffffff748739278160601b60601c91508181547f8be0079c531659141344cd1fd0a4f28419497f9722a3daafe3b4186f6b6457e05f80a3811560ff1b8217815550611469565b7fffffffffffffffffffffffffffffffffffffffffffffffffffffffff748739278160601b60601c91508181547f8be0079c531659141344cd1fd0a4f28419497f9722a3daafe3b4186f6b6457e05f80a3818155505b50565b5f60035403156115d6575f60035490505f73ffffffffffffffffffffffffffffffffffffffff168273ffffffffffffffffffffffffffffffffffffffff1614611532575f61271067ffffffffffffffff168460050160089054906101000a900467ffffffffffffffff1667ffffffffffffffff166003546114ed9190612c4e565b6114f79190612cbc565b905080826115059190612cec565b9150611530818473ffffffffffffffffffffffffffffffffffffffff16611b3e90919063ffffffff16565b505b61158a6002826115429190612cbc565b846007015f9054906101000a900473ffffffffffffffffffffffffffffffffffffffff1673ffffffffffffffffffffffffffffffffffffffff16611b3e90919063ffffffff16565b6115d44760025f9054906101000a900473ffffffffffffffffffffffffffffffffffffffff1673ffffffffffffffffffffffffffffffffffffffff16611b3e90919063ffffffff16565b505b5050565b606081511561166e5760405190506020810160048301805184518501811983525b80861015611654576001860195508551601f1a80611644576001870196508651601f1a5f198652607f811161163257600181013887395b6001607f82160186019550505061164f565b808553600185019450505b6115fb565b81835260208501840385525f845260208401604052505050505b919050565b61169d7f5cd687ca0000000000000000000000000000000000000000000000000000000082611b5b565b8073ffffffffffffffffffffffffffffffffffffffff1663fe9fbb80336040518263ffffffff1660e01b81526004016116d6919061223d565b602060405180830381865afa1580156116f1573d5f803e3d5ffd5b505050506040513d601f19601f820116820180604052508101906117159190612577565b61174b576040517f82b4290000000000000000000000000000000000000000000000000000000000815260040160405180910390fd5b50565b5f61175d848460200151611b5b565b6117678383611c52565b90509392505050565b6060825167ffffffffffffffff81111561178d5761178c6126e8565b5b6040519080825280602002602001820160405280156117bb5781602001602082028036833780820191505090505b5090505f5b8351811015611b33576118117f8dbd4bfc00000000000000000000000000000000000000000000000000000000858381518110611800576117ff612464565b5b602002602001015160200151611b5b565b83818151811061182457611823612464565b5b60200260200101515f01516118b0577f8dbd4bfc0000000000000000000000000000000000000000000000000000000084828151811061186757611866612464565b5b6020026020010151602001516040517fe1c444480000000000000000000000000000000000000000000000000000000081526004016118a7929190612d1f565b60405180910390fd5b6118f57f8dbd4bfc000000000000000000000000000000000000000000000000000000008583815181106118e7576118e6612464565b5b60200260200101515f61174e565b82828151811061190857611907612464565b5b602002602001019073ffffffffffffffffffffffffffffffffffffffff16908173ffffffffffffffffffffffffffffffffffffffff16815250505f82828151811061195657611955612464565b5b602002602001015173ffffffffffffffffffffffffffffffffffffffff16634e7165a286848151811061198c5761198b612464565b5b6020026020010151604001516040518263ffffffff1660e01b81526004016119b49190612694565b5f60405180830381865afa1580156119ce573d5f803e3d5ffd5b505050506040513d5f823e3d601f19601f820116820180604052508101906119f69190612d46565b90505f815114611a87578373ffffffffffffffffffffffffffffffffffffffff1663fa4ca9b1826040518263ffffffff1660e01b8152600401611a399190612694565b6020604051808303815f875af1158015611a55573d5f803e3d5ffd5b505050506040513d601f19601f82011682018060405250810190611a799190612577565b611a8657611a85612d8d565b5b5b828281518110611a9a57611a99612464565b5b602002602001015173ffffffffffffffffffffffffffffffffffffffff1663439fab91868481518110611ad057611acf612464565b5b6020026020010151604001516040518263ffffffff1660e01b8152600401611af89190612694565b5f604051808303815f87803b158015611b0f575f80fd5b505af1158015611b21573d5f803e3d5ffd5b505050505080806001019150506117c0565b5092915050565b5f90565b5f385f3884865af1611b575763b12d13eb5f526004601cfd5b5050565b5f73ffffffffffffffffffffffffffffffffffffffff168173ffffffffffffffffffffffffffffffffffffffff161480611c0a57508073ffffffffffffffffffffffffffffffffffffffff166301ffc9a7836040518263ffffffff1660e01b8152600401611bc99190612c35565b602060405180830381865afa158015611be4573d5f803e3d5ffd5b505050506040513d601f19601f82011682018060405250810190611c089190612577565b155b15611c4e5781816040517fe1c44448000000000000000000000000000000000000000000000000000000008152600401611c45929190612d1f565b60405180910390fd5b5050565b5f825f0151611c65578260200151611c89565b611c88836020015173ffffffffffffffffffffffffffffffffffffffff16611d0e565b5b9050825f01518015611c985750815b15611d08578073ffffffffffffffffffffffffffffffffffffffff1663439fab9184604001516040518263ffffffff1660e01b8152600401611cda9190612694565b5f604051808303815f87803b158015611cf1575f80fd5b505af1158015611d03573d5f803e3d5ffd5b505050505b92915050565b5f611d195f83611d20565b9050919050565b5f6c5af43d3d93803e602a57fd5bf36021528160145273602c3d8160093d39f33d3d3d3d363d3d37363d735f526035600c84f0905080611d675763301164255f526004601cfd5b5f60215292915050565b6040518061012001604052805f73ffffffffffffffffffffffffffffffffffffffff1681526020015f73ffffffffffffffffffffffffffffffffffffffff1681526020015f73ffffffffffffffffffffffffffffffffffffffff1681526020015f73ffffffffffffffffffffffffffffffffffffffff168152602001606081526020015f67ffffffffffffffff1681526020015f67ffffffffffffffff1681526020015f81526020015f73ffffffffffffffffffffffffffffffffffffffff1681525090565b828054828255905f5260205f20908101928215611ead579160200282015b82811115611eac578251825f6101000a81548173ffffffffffffffffffffffffffffffffffffffff021916908373ffffffffffffffffffffffffffffffffffffffff16021790555091602001919060010190611e55565b5b509050611eba9190611ebe565b5090565b5b80821115611ed5575f815f905550600101611ebf565b5090565b5f604051905090565b5f80fd5b5f80fd5b5f819050919050565b611efc81611eea565b8114611f06575f80fd5b50565b5f81359050611f1781611ef3565b92915050565b5f60208284031215611f3257611f31611ee2565b5b5f611f3f84828501611f09565b91505092915050565b5f73ffffffffffffffffffffffffffffffffffffffff82169050919050565b5f819050919050565b5f611f8a611f85611f8084611f48565b611f67565b611f48565b9050919050565b5f611f9b82611f70565b9050919050565b5f611fac82611f91565b9050919050565b611fbc81611fa2565b82525050565b5f611fcc82611f91565b9050919050565b611fdc81611fc2565b82525050565b5f611fec82611f91565b9050919050565b611ffc81611fe2565b82525050565b5f61200c82611f70565b9050919050565b5f61201d82612002565b9050919050565b61202d81612013565b82525050565b5f81519050919050565b5f82825260208201905092915050565b5f819050602082019050919050565b5f61206682611f91565b9050919050565b6120768161205c565b82525050565b5f612087838361206d565b60208301905092915050565b5f602082019050919050565b5f6120a982612033565b6120b3818561203d565b93506120be8361204d565b805f5b838110156120ee5781516120d5888261207c565b97506120e083612093565b9250506001810190506120c1565b5085935050505092915050565b5f67ffffffffffffffff82169050919050565b612117816120fb565b82525050565b61212681611eea565b82525050565b5f61213682611f48565b9050919050565b6121468161212c565b82525050565b5f61012083015f8301516121625f860182611fb3565b5060208301516121756020860182611fd3565b5060408301516121886040860182611ff3565b50606083015161219b6060860182612024565b50608083015184820360808601526121b3828261209f565b91505060a08301516121c860a086018261210e565b5060c08301516121db60c086018261210e565b5060e08301516121ee60e086018261211d565b5061010083015161220361010086018261213d565b508091505092915050565b5f6020820190508181035f830152612226818461214c565b905092915050565b6122378161212c565b82525050565b5f6020820190506122505f83018461222e565b92915050565b61225f8161212c565b8114612269575f80fd5b50565b5f8135905061227a81612256565b92915050565b5f6020828403121561229557612294611ee2565b5b5f6122a28482850161226c565b91505092915050565b6122b481611eea565b82525050565b5f6020820190506122cd5f8301846122ab565b92915050565b5f6122dd82611f91565b9050919050565b6122ed816122d3565b82525050565b5f6020820190506123065f8301846122e4565b92915050565b612315816120fb565b82525050565b5f60208201905061232e5f83018461230c565b92915050565b5f80fd5b5f80fd5b5f80fd5b5f8083601f84011261235557612354612334565b5b8235905067ffffffffffffffff81111561237257612371612338565b5b60208301915083600182028301111561238e5761238d61233c565b5b9250929050565b5f805f805f608086880312156123ae576123ad611ee2565b5b5f6123bb88828901611f09565b95505060206123cc88828901611f09565b94505060406123dd8882890161226c565b935050606086013567ffffffffffffffff8111156123fe576123fd611ee6565b5b61240a88828901612340565b92509250509295509295909350565b5f806020838503121561242f5761242e611ee2565b5b5f83013567ffffffffffffffff81111561244c5761244b611ee6565b5b61245885828601612340565b92509250509250929050565b7f4e487b71000000000000000000000000000000000000000000000000000000005f52603260045260245ffd5b5f6060820190506124a45f83018661222e565b6124b160208301856122ab565b6124be60408301846122ab565b949350505050565b5f82825260208201905092915050565b828183375f83830152505050565b5f601f19601f8301169050919050565b5f6124ff83856124c6565b935061250c8385846124d6565b612515836124e4565b840190509392505050565b5f6020820190508181035f8301526125398184866124f4565b90509392505050565b5f8115159050919050565b61255681612542565b8114612560575f80fd5b50565b5f815190506125718161254d565b92915050565b5f6020828403121561258c5761258b611ee2565b5b5f61259984828501612563565b91505092915050565b5f81519050919050565b5f82825260208201905092915050565b8281835e5f83830152505050565b5f6125d4826125a2565b6125de81856125ac565b93506125ee8185602086016125bc565b6125f7816124e4565b840191505092915050565b5f604083015f8301516126175f86018261213d565b506020830151848203602086015261262f82826125ca565b9150508091505092915050565b5f6020820190508181035f8301526126548184612602565b905092915050565b5f612666826125a2565b61267081856124c6565b93506126808185602086016125bc565b612689816124e4565b840191505092915050565b5f6020820190508181035f8301526126ac818461265c565b905092915050565b5f6040820190506126c75f83018661222e565b81810360208301526126da8184866124f4565b9050949350505050565b5f80fd5b7f4e487b71000000000000000000000000000000000000000000000000000000005f52604160045260245ffd5b61271e826124e4565b810181811067ffffffffffffffff8211171561273d5761273c6126e8565b5b80604052505050565b5f61274f611ed9565b905061275b8282612715565b919050565b5f80fd5b5f61276e82611f48565b9050919050565b5f61277f82612764565b9050919050565b61278f81612775565b8114612799575f80fd5b50565b5f815190506127aa81612786565b92915050565b5f815190506127be81612256565b92915050565b5f80fd5b5f67ffffffffffffffff8211156127e2576127e16126e8565b5b6127eb826124e4565b9050602081019050919050565b5f61280a612805846127c8565b612746565b905082815260208101848484011115612826576128256127c4565b5b6128318482856125bc565b509392505050565b5f82601f83011261284d5761284c612334565b5b815161285d8482602086016127f8565b91505092915050565b5f6060828403121561287b5761287a6126e4565b5b6128856060612746565b90505f61289484828501612563565b5f8301525060206128a7848285016127b0565b602083015250604082015167ffffffffffffffff8111156128cb576128ca612760565b5b6128d784828501612839565b60408301525092915050565b5f67ffffffffffffffff8211156128fd576128fc6126e8565b5b602082029050602081019050919050565b5f61292061291b846128e3565b612746565b905080838252602082019050602084028301858111156129435761294261233c565b5b835b8181101561298a57805167ffffffffffffffff81111561296857612967612334565b5b8086016129758982612866565b85526020850194505050602081019050612945565b5050509392505050565b5f82601f8301126129a8576129a7612334565b5b81516129b884826020860161290e565b91505092915050565b6129ca816120fb565b81146129d4575f80fd5b50565b5f815190506129e5816129c1565b92915050565b5f815190506129f981611ef3565b92915050565b5f6101208284031215612a1557612a146126e4565b5b612a20610120612746565b90505f612a2f8482850161279c565b5f83015250602082015167ffffffffffffffff811115612a5257612a51612760565b5b612a5e84828501612866565b602083015250604082015167ffffffffffffffff811115612a8257612a81612760565b5b612a8e84828501612866565b604083015250606082015167ffffffffffffffff811115612ab257612ab1612760565b5b612abe84828501612866565b606083015250608082015167ffffffffffffffff811115612ae257612ae1612760565b5b612aee84828501612994565b60808301525060a0612b02848285016129d7565b60a08301525060c0612b16848285016129d7565b60c08301525060e0612b2a848285016129eb565b60e083015250610100612b3f848285016127b0565b6101008301525092915050565b5f60208284031215612b6157612b60611ee2565b5b5f82015167ffffffffffffffff811115612b7e57612b7d611ee6565b5b612b8a848285016129ff565b91505092915050565b7f4e487b71000000000000000000000000000000000000000000000000000000005f52601160045260245ffd5b5f612bca826120fb565b9150612bd5836120fb565b9250828201905067ffffffffffffffff811115612bf557612bf4612b93565b5b92915050565b5f7fffffffff0000000000000000000000000000000000000000000000000000000082169050919050565b612c2f81612bfb565b82525050565b5f602082019050612c485f830184612c26565b92915050565b5f612c5882611eea565b9150612c6383611eea565b9250828202612c7181611eea565b91508282048414831517612c8857612c87612b93565b5b5092915050565b7f4e487b71000000000000000000000000000000000000000000000000000000005f52601260045260245ffd5b5f612cc682611eea565b9150612cd183611eea565b925082612ce157612ce0612c8f565b5b828204905092915050565b5f612cf682611eea565b9150612d0183611eea565b9250828203905081811115612d1957612d18612b93565b5b92915050565b5f604082019050612d325f830185612c26565b612d3f602083018461222e565b9392505050565b5f60208284031215612d5b57612d5a611ee2565b5b5f82015167ffffffffffffffff811115612d7857612d77611ee6565b5b612d8484828501612839565b91505092915050565b7f4e487b71000000000000000000000000000000000000000000000000000000005f52600160045260245ffdfea264697066735822122000411cf454d3f7b220aadb64ce9e6a010c954ba7ec7e1848fd2534e56a5294e364736f6c63430008190033",
  "linkReferences": {},
  "deployedLinkReferences": {}
}