{
  "_format": "hh-sol-artifact-1",
  "contractName": "BoostCore",
  "sourceName": "contracts/BoostCore.sol",
  "abi": [
    {
      "inputs": [
        {
          "internalType": "contract BoostRegistry",
          "name": "registry_",
          "type": "address"
        },
        {
          "internalType": "address",
          "name": "protocolFeeReceiver_",
          "type": "address"
        }
      ],
      "stateMutability": "nonpayable",
      "type": "constructor"
    },
    {
      "inputs": [],
      "name": "AlreadyInitialized",
      "type": "error"
    },
    {
      "inputs": [
        {
          "internalType": "address",
          "name": "caller",
          "type": "address"
        },
        {
          "internalType": "bytes",
          "name": "data",
          "type": "bytes"
        }
      ],
      "name": "ClaimFailed",
      "type": "error"
    },
    {
      "inputs": [
        {
          "internalType": "address",
          "name": "asset",
          "type": "address"
        },
        {
          "internalType": "uint256",
          "name": "available",
          "type": "uint256"
        },
        {
          "internalType": "uint256",
          "name": "required",
          "type": "uint256"
        }
      ],
      "name": "InsufficientFunds",
      "type": "error"
    },
    {
      "inputs": [
        {
          "internalType": "bytes4",
          "name": "expectedInterface",
          "type": "bytes4"
        },
        {
          "internalType": "address",
          "name": "instance",
          "type": "address"
        }
      ],
      "name": "InvalidInstance",
      "type": "error"
    },
    {
      "inputs": [],
      "name": "NewOwnerIsZeroAddress",
      "type": "error"
    },
    {
      "inputs": [],
      "name": "NoHandoverRequest",
      "type": "error"
    },
    {
      "inputs": [],
      "name": "Reentrancy",
      "type": "error"
    },
    {
      "inputs": [],
      "name": "Unauthorized",
      "type": "error"
    },
    {
      "inputs": [],
      "name": "Unauthorized",
      "type": "error"
    },
    {
      "anonymous": false,
      "inputs": [
        {
          "indexed": true,
          "internalType": "address",
          "name": "pendingOwner",
          "type": "address"
        }
      ],
      "name": "OwnershipHandoverCanceled",
      "type": "event"
    },
    {
      "anonymous": false,
      "inputs": [
        {
          "indexed": true,
          "internalType": "address",
          "name": "pendingOwner",
          "type": "address"
        }
      ],
      "name": "OwnershipHandoverRequested",
      "type": "event"
    },
    {
      "anonymous": false,
      "inputs": [
        {
          "indexed": true,
          "internalType": "address",
          "name": "oldOwner",
          "type": "address"
        },
        {
          "indexed": true,
          "internalType": "address",
          "name": "newOwner",
          "type": "address"
        }
      ],
      "name": "OwnershipTransferred",
      "type": "event"
    },
    {
      "inputs": [],
      "name": "cancelOwnershipHandover",
      "outputs": [],
      "stateMutability": "payable",
      "type": "function"
    },
    {
      "inputs": [],
      "name": "claimFee",
      "outputs": [
        {
          "internalType": "uint256",
          "name": "",
          "type": "uint256"
        }
      ],
      "stateMutability": "view",
      "type": "function"
    },
    {
      "inputs": [
        {
          "internalType": "uint256",
          "name": "boostId_",
          "type": "uint256"
        },
        {
          "internalType": "uint256",
          "name": "incentiveId_",
          "type": "uint256"
        },
        {
          "internalType": "address",
          "name": "referrer_",
          "type": "address"
        },
        {
          "internalType": "bytes",
          "name": "data_",
          "type": "bytes"
        }
      ],
      "name": "claimIncentive",
      "outputs": [],
      "stateMutability": "payable",
      "type": "function"
    },
    {
      "inputs": [
        {
          "internalType": "address",
          "name": "pendingOwner",
          "type": "address"
        }
      ],
      "name": "completeOwnershipHandover",
      "outputs": [],
      "stateMutability": "payable",
      "type": "function"
    },
    {
      "inputs": [
        {
          "internalType": "bytes",
          "name": "data_",
          "type": "bytes"
        }
      ],
      "name": "createBoost",
      "outputs": [
        {
          "components": [
            {
              "internalType": "contract Action",
              "name": "action",
              "type": "address"
            },
            {
              "internalType": "contract Validator",
              "name": "validator",
              "type": "address"
            },
            {
              "internalType": "contract AllowList",
              "name": "allowList",
              "type": "address"
            },
            {
              "internalType": "contract Budget",
              "name": "budget",
              "type": "address"
            },
            {
              "internalType": "contract Incentive[]",
              "name": "incentives",
              "type": "address[]"
            },
            {
              "internalType": "uint64",
              "name": "protocolFee",
              "type": "uint64"
            },
            {
              "internalType": "uint64",
              "name": "referralFee",
              "type": "uint64"
            },
            {
              "internalType": "uint256",
              "name": "maxParticipants",
              "type": "uint256"
            },
            {
              "internalType": "address",
              "name": "owner",
              "type": "address"
            }
          ],
          "internalType": "struct BoostLib.Boost",
          "name": "",
          "type": "tuple"
        }
      ],
      "stateMutability": "nonpayable",
      "type": "function"
    },
    {
      "inputs": [
        {
          "internalType": "uint256",
          "name": "index",
          "type": "uint256"
        }
      ],
      "name": "getBoost",
      "outputs": [
        {
          "components": [
            {
              "internalType": "contract Action",
              "name": "action",
              "type": "address"
            },
            {
              "internalType": "contract Validator",
              "name": "validator",
              "type": "address"
            },
            {
              "internalType": "contract AllowList",
              "name": "allowList",
              "type": "address"
            },
            {
              "internalType": "contract Budget",
              "name": "budget",
              "type": "address"
            },
            {
              "internalType": "contract Incentive[]",
              "name": "incentives",
              "type": "address[]"
            },
            {
              "internalType": "uint64",
              "name": "protocolFee",
              "type": "uint64"
            },
            {
              "internalType": "uint64",
              "name": "referralFee",
              "type": "uint64"
            },
            {
              "internalType": "uint256",
              "name": "maxParticipants",
              "type": "uint256"
            },
            {
              "internalType": "address",
              "name": "owner",
              "type": "address"
            }
          ],
          "internalType": "struct BoostLib.Boost",
          "name": "",
          "type": "tuple"
        }
      ],
      "stateMutability": "view",
      "type": "function"
    },
    {
      "inputs": [],
      "name": "getBoostCount",
      "outputs": [
        {
          "internalType": "uint256",
          "name": "",
          "type": "uint256"
        }
      ],
      "stateMutability": "view",
      "type": "function"
    },
    {
      "inputs": [],
      "name": "owner",
      "outputs": [
        {
          "internalType": "address",
          "name": "result",
          "type": "address"
        }
      ],
      "stateMutability": "view",
      "type": "function"
    },
    {
      "inputs": [
        {
          "internalType": "address",
          "name": "pendingOwner",
          "type": "address"
        }
      ],
      "name": "ownershipHandoverExpiresAt",
      "outputs": [
        {
          "internalType": "uint256",
          "name": "result",
          "type": "uint256"
        }
      ],
      "stateMutability": "view",
      "type": "function"
    },
    {
      "inputs": [],
      "name": "protocolFee",
      "outputs": [
        {
          "internalType": "uint64",
          "name": "",
          "type": "uint64"
        }
      ],
      "stateMutability": "view",
      "type": "function"
    },
    {
      "inputs": [],
      "name": "protocolFeeReceiver",
      "outputs": [
        {
          "internalType": "address",
          "name": "",
          "type": "address"
        }
      ],
      "stateMutability": "view",
      "type": "function"
    },
    {
      "inputs": [],
      "name": "referralFee",
      "outputs": [
        {
          "internalType": "uint64",
          "name": "",
          "type": "uint64"
        }
      ],
      "stateMutability": "view",
      "type": "function"
    },
    {
      "inputs": [],
      "name": "registry",
      "outputs": [
        {
          "internalType": "contract BoostRegistry",
          "name": "",
          "type": "address"
        }
      ],
      "stateMutability": "view",
      "type": "function"
    },
    {
      "inputs": [],
      "name": "renounceOwnership",
      "outputs": [],
      "stateMutability": "payable",
      "type": "function"
    },
    {
      "inputs": [],
      "name": "requestOwnershipHandover",
      "outputs": [],
      "stateMutability": "payable",
      "type": "function"
    },
    {
      "inputs": [
        {
          "internalType": "uint256",
          "name": "claimFee_",
          "type": "uint256"
        }
      ],
      "name": "setClaimFee",
      "outputs": [],
      "stateMutability": "nonpayable",
      "type": "function"
    },
    {
      "inputs": [
        {
          "internalType": "address",
          "name": "protocolFeeReceiver_",
          "type": "address"
        }
      ],
      "name": "setProtocolFeeReceiver",
      "outputs": [],
      "stateMutability": "nonpayable",
      "type": "function"
    },
    {
      "inputs": [
        {
          "internalType": "address",
          "name": "newOwner",
          "type": "address"
        }
      ],
      "name": "transferOwnership",
      "outputs": [],
      "stateMutability": "payable",
      "type": "function"
    }
  ],
  "bytecode": "0x60806040526544364c5bb0006003556103e8600460006101000a81548167ffffffffffffffff021916908367ffffffffffffffff1602179055506103e8600460086101000a81548167ffffffffffffffff021916908367ffffffffffffffff1602179055503480156200007157600080fd5b5060405162003217380380620032178339818101604052810190620000979190620002cc565b620000a8336200013260201b60201c565b81600160006101000a81548173ffffffffffffffffffffffffffffffffffffffff021916908373ffffffffffffffffffffffffffffffffffffffff16021790555080600260006101000a81548173ffffffffffffffffffffffffffffffffffffffff021916908373ffffffffffffffffffffffffffffffffffffffff160217905550505062000313565b620001426200021860201b60201c565b15620001c0577fffffffffffffffffffffffffffffffffffffffffffffffffffffffff748739278054156200017f57630dc149f06000526004601cfd5b8160601b60601c9150811560ff1b821781558160007f8be0079c531659141344cd1fd0a4f28419497f9722a3daafe3b4186f6b6457e0600080a35062000215565b8060601b60601c9050807fffffffffffffffffffffffffffffffffffffffffffffffffffffffff74873927558060007f8be0079c531659141344cd1fd0a4f28419497f9722a3daafe3b4186f6b6457e0600080a35b50565b600090565b600080fd5b600073ffffffffffffffffffffffffffffffffffffffff82169050919050565b60006200024f8262000222565b9050919050565b6000620002638262000242565b9050919050565b620002758162000256565b81146200028157600080fd5b50565b60008151905062000295816200026a565b92915050565b620002a68162000242565b8114620002b257600080fd5b50565b600081519050620002c6816200029b565b92915050565b60008060408385031215620002e657620002e56200021d565b5b6000620002f68582860162000284565b92505060206200030985828601620002b5565b9150509250929050565b612ef480620003236000396000f3fe6080604052600436106101095760003560e01c806384ae2bc611610095578063b0e21e8a11610064578063b0e21e8a146102d9578063e21ff73114610304578063f04e283e14610341578063f2fde38b1461035d578063fee81cf41461037957610109565b806384ae2bc61461023c5780638da5cb5b146102675780638fe4f5231461029257806399d32fc4146102ae57610109565b806346877b1a116100dc57806346877b1a146101a957806354d1f13d146101d25780635edb9eb0146101dc578063715018a6146102075780637b1039991461021157610109565b806313c8e2de1461010e578063256929621461014b5780632e75ab501461015557806339a51be51461017e575b600080fd5b34801561011a57600080fd5b5061013560048036038101906101309190611f8b565b6103b6565b6040516101429190612294565b60405180910390f35b61015361069d565b005b34801561016157600080fd5b5061017c60048036038101906101779190611f8b565b6106f1565b005b34801561018a57600080fd5b50610193610703565b6040516101a091906122c5565b60405180910390f35b3480156101b557600080fd5b506101d060048036038101906101cb919061230c565b610729565b005b6101da610775565b005b3480156101e857600080fd5b506101f16107b1565b6040516101fe9190612348565b60405180910390f35b61020f6107bd565b005b34801561021d57600080fd5b506102266107d1565b6040516102339190612384565b60405180910390f35b34801561024857600080fd5b506102516107f7565b60405161025e91906123ae565b60405180910390f35b34801561027357600080fd5b5061027c610811565b60405161028991906122c5565b60405180910390f35b6102ac60048036038101906102a7919061242e565b61083a565b005b3480156102ba57600080fd5b506102c3610b5c565b6040516102d09190612348565b60405180910390f35b3480156102e557600080fd5b506102ee610b62565b6040516102fb91906123ae565b60405180910390f35b34801561031057600080fd5b5061032b600480360381019061032691906124b6565b610b7c565b6040516103389190612294565b60405180910390f35b61035b6004803603810190610356919061230c565b611305565b005b6103776004803603810190610372919061230c565b611346565b005b34801561038557600080fd5b506103a0600480360381019061039b919061230c565b611370565b6040516103ad9190612348565b60405180910390f35b6103be611dcc565b600082815481106103d2576103d1612503565b5b9060005260206000209060080201604051806101200160405290816000820160009054906101000a900473ffffffffffffffffffffffffffffffffffffffff1673ffffffffffffffffffffffffffffffffffffffff1673ffffffffffffffffffffffffffffffffffffffff1681526020016001820160009054906101000a900473ffffffffffffffffffffffffffffffffffffffff1673ffffffffffffffffffffffffffffffffffffffff1673ffffffffffffffffffffffffffffffffffffffff1681526020016002820160009054906101000a900473ffffffffffffffffffffffffffffffffffffffff1673ffffffffffffffffffffffffffffffffffffffff1673ffffffffffffffffffffffffffffffffffffffff1681526020016003820160009054906101000a900473ffffffffffffffffffffffffffffffffffffffff1673ffffffffffffffffffffffffffffffffffffffff1673ffffffffffffffffffffffffffffffffffffffff168152602001600482018054806020026020016040519081016040528092919081815260200182805480156105c957602002820191906000526020600020905b8160009054906101000a900473ffffffffffffffffffffffffffffffffffffffff1673ffffffffffffffffffffffffffffffffffffffff168152602001906001019080831161057f575b505050505081526020016005820160009054906101000a900467ffffffffffffffff1667ffffffffffffffff1667ffffffffffffffff1681526020016005820160089054906101000a900467ffffffffffffffff1667ffffffffffffffff1667ffffffffffffffff168152602001600682015481526020016007820160009054906101000a900473ffffffffffffffffffffffffffffffffffffffff1673ffffffffffffffffffffffffffffffffffffffff1673ffffffffffffffffffffffffffffffffffffffff16815250509050919050565b60006106a761138b565b67ffffffffffffffff164201905063389a75e1600c5233600052806020600c2055337fdbf36a107da19e49527a7176a1babf963b4b0ff8cde35ee35d6cd8f1f9ac7e1d600080a250565b6106f9611396565b8060038190555050565b600260009054906101000a900473ffffffffffffffffffffffffffffffffffffffff1681565b610731611396565b80600260006101000a81548173ffffffffffffffffffffffffffffffffffffffff021916908373ffffffffffffffffffffffffffffffffffffffff16021790555050565b63389a75e1600c523360005260006020600c2055337ffa7b8eab7da67f412cc9575ed43464468f9bfbae89d1675917346ca6d8fe3c92600080a2565b60008080549050905090565b6107c5611396565b6107cf60006113ce565b565b600160009054906101000a900473ffffffffffffffffffffffffffffffffffffffff1681565b600460089054906101000a900467ffffffffffffffff1681565b60007fffffffffffffffffffffffffffffffffffffffffffffffffffffffff7487392754905090565b3068929eee149b4bd2126854036108595763ab143c066000526004601cfd5b3068929eee149b4bd2126855600080868154811061087a57610879612503565b5b906000526020600020906008020190506003543410156108d8576000346003546040517f5c54305e0000000000000000000000000000000000000000000000000000000081526004016108cf93929190612532565b60405180910390fd5b6108e28185611496565b8060010160009054906101000a900473ffffffffffffffffffffffffffffffffffffffff1673ffffffffffffffffffffffffffffffffffffffff1663c16e50ef84846040518363ffffffff1660e01b81526004016109419291906125c7565b6020604051808303816000875af1158015610960573d6000803e3d6000fd5b505050506040513d601f19601f820116820180604052508101906109849190612623565b6109ba576040517f82b4290000000000000000000000000000000000000000000000000000000000815260040160405180910390fd5b8060040185815481106109d0576109cf612503565b5b9060005260206000200160009054906101000a900473ffffffffffffffffffffffffffffffffffffffff1673ffffffffffffffffffffffffffffffffffffffff1663c63ff8dd60405180604001604052803373ffffffffffffffffffffffffffffffffffffffff16815260200186868080601f016020809104026020016040519081016040528093929190818152602001838380828437600081840152601f19601f82011690508083019250505050505050815250604051602001610a95919061270c565b6040516020818303038152906040526040518263ffffffff1660e01b8152600401610ac09190612767565b6020604051808303816000875af1158015610adf573d6000803e3d6000fd5b505050506040513d601f19601f82011682018060405250810190610b039190612623565b610b48573383836040517f4139d81d000000000000000000000000000000000000000000000000000000008152600401610b3f93929190612789565b60405180910390fd5b503868929eee149b4bd21268555050505050565b60035481565b600460009054906101000a900467ffffffffffffffff1681565b610b84611dcc565b610b8c611396565b3068929eee149b4bd212685403610bab5763ab143c066000526004601cfd5b3068929eee149b4bd21268556000610c0684848080601f016020809104026020016040519081016040528093929190818152602001838380828437600081840152601f19601f8201169050808301925050505050505061160a565b806020019051810190610c199190612c3d565b9050610c2881600001516116a5565b60008060018160018154018082558091505003906000526020600020906008020190508161010001518160070160006101000a81548173ffffffffffffffffffffffffffffffffffffffff021916908373ffffffffffffffffffffffffffffffffffffffff16021790555081600001518160030160006101000a81548173ffffffffffffffffffffffffffffffffffffffff021916908373ffffffffffffffffffffffffffffffffffffffff1602179055508160a00151600460009054906101000a900467ffffffffffffffff16610d009190612cb5565b8160050160006101000a81548167ffffffffffffffff021916908367ffffffffffffffff1602179055508160c00151600460089054906101000a900467ffffffffffffffff16610d509190612cb5565b8160050160086101000a81548167ffffffffffffffff021916908367ffffffffffffffff1602179055508160e001518160060181905550610db77fe67157950000000000000000000000000000000000000000000000000000000083602001516001611782565b8160000160006101000a81548173ffffffffffffffffffffffffffffffffffffffff021916908373ffffffffffffffffffffffffffffffffffffffff160217905550610e297fe2089f790000000000000000000000000000000000000000000000000000000083606001516001611782565b8160020160006101000a81548173ffffffffffffffffffffffffffffffffffffffff021916908373ffffffffffffffffffffffffffffffffffffffff160217905550610e7d826080015183600001516117a5565b816004019080519060200190610e94929190611e9a565b50600073ffffffffffffffffffffffffffffffffffffffff1682604001516020015173ffffffffffffffffffffffffffffffffffffffff1614610f0657610f017fc09199480000000000000000000000000000000000000000000000000000000083604001516001611782565b610ff6565b8060000160009054906101000a900473ffffffffffffffffffffffffffffffffffffffff1673ffffffffffffffffffffffffffffffffffffffff166301ffc9a77fc0919948000000000000000000000000000000000000000000000000000000006040518263ffffffff1660e01b8152600401610f839190612d2c565b602060405180830381865afa158015610fa0573d6000803e3d6000fd5b505050506040513d601f19601f82011682018060405250810190610fc49190612623565b610fcf576000610ff5565b8060000160009054906101000a900473ffffffffffffffffffffffffffffffffffffffff165b5b8160010160006101000a81548173ffffffffffffffffffffffffffffffffffffffff021916908373ffffffffffffffffffffffffffffffffffffffff16021790555080604051806101200160405290816000820160009054906101000a900473ffffffffffffffffffffffffffffffffffffffff1673ffffffffffffffffffffffffffffffffffffffff1673ffffffffffffffffffffffffffffffffffffffff1681526020016001820160009054906101000a900473ffffffffffffffffffffffffffffffffffffffff1673ffffffffffffffffffffffffffffffffffffffff1673ffffffffffffffffffffffffffffffffffffffff1681526020016002820160009054906101000a900473ffffffffffffffffffffffffffffffffffffffff1673ffffffffffffffffffffffffffffffffffffffff1673ffffffffffffffffffffffffffffffffffffffff1681526020016003820160009054906101000a900473ffffffffffffffffffffffffffffffffffffffff1673ffffffffffffffffffffffffffffffffffffffff1673ffffffffffffffffffffffffffffffffffffffff1681526020016004820180548060200260200160405190810160405280929190818152602001828054801561122257602002820191906000526020600020905b8160009054906101000a900473ffffffffffffffffffffffffffffffffffffffff1673ffffffffffffffffffffffffffffffffffffffff16815260200190600101908083116111d8575b505050505081526020016005820160009054906101000a900467ffffffffffffffff1667ffffffffffffffff1667ffffffffffffffff1681526020016005820160089054906101000a900467ffffffffffffffff1667ffffffffffffffff1667ffffffffffffffff168152602001600682015481526020016007820160009054906101000a900473ffffffffffffffffffffffffffffffffffffffff1673ffffffffffffffffffffffffffffffffffffffff1673ffffffffffffffffffffffffffffffffffffffff1681525050925050503868929eee149b4bd212685592915050565b61130d611396565b63389a75e1600c52806000526020600c20805442111561133557636f5e88186000526004601cfd5b6000815550611343816113ce565b50565b61134e611396565b8060601b61136457637448fbae6000526004601cfd5b61136d816113ce565b50565b600063389a75e1600c52816000526020600c20549050919050565b60006202a300905090565b7fffffffffffffffffffffffffffffffffffffffffffffffffffffffff748739275433146113cc576382b429006000526004601cfd5b565b6113d6611b80565b1561143c577fffffffffffffffffffffffffffffffffffffffffffffffffffffffff748739278160601b60601c91508181547f8be0079c531659141344cd1fd0a4f28419497f9722a3daafe3b4186f6b6457e0600080a3811560ff1b8217815550611493565b7fffffffffffffffffffffffffffffffffffffffffffffffffffffffff748739278160601b60601c91508181547f8be0079c531659141344cd1fd0a4f28419497f9722a3daafe3b4186f6b6457e0600080a3818155505b50565b600060035403156116065760006003549050600073ffffffffffffffffffffffffffffffffffffffff168273ffffffffffffffffffffffffffffffffffffffff161461156057600061271067ffffffffffffffff168460050160089054906101000a900467ffffffffffffffff1667ffffffffffffffff1660035461151b9190612d47565b6115259190612db8565b905080826115339190612de9565b915061155e818473ffffffffffffffffffffffffffffffffffffffff16611b8590919063ffffffff16565b505b6115b96002826115709190612db8565b8460070160009054906101000a900473ffffffffffffffffffffffffffffffffffffffff1673ffffffffffffffffffffffffffffffffffffffff16611b8590919063ffffffff16565b61160447600260009054906101000a900473ffffffffffffffffffffffffffffffffffffffff1673ffffffffffffffffffffffffffffffffffffffff16611b8590919063ffffffff16565b505b5050565b60608151156116a05760405190506020810160048301805184518501811983525b80861015611685576001860195508551601f1a80611675576001870196508651601f1a6000198652607f811161166357600181013887395b6001607f821601860195505050611680565b808553600185019450505b61162b565b81835260208501840385526000845260208401604052505050505b919050565b6116cf7f5cd687ca0000000000000000000000000000000000000000000000000000000082611ba5565b8073ffffffffffffffffffffffffffffffffffffffff1663fe9fbb80336040518263ffffffff1660e01b815260040161170891906122c5565b602060405180830381865afa158015611725573d6000803e3d6000fd5b505050506040513d601f19601f820116820180604052508101906117499190612623565b61177f576040517f82b4290000000000000000000000000000000000000000000000000000000000815260040160405180910390fd5b50565b6000611792848460200151611ba5565b61179c8383611c9f565b90509392505050565b6060825167ffffffffffffffff8111156117c2576117c16127c0565b5b6040519080825280602002602001820160405280156117f05781602001602082028036833780820191505090505b50905060005b8351811015611b79576118477f8dbd4bfc0000000000000000000000000000000000000000000000000000000085838151811061183657611835612503565b5b602002602001015160200151611ba5565b83818151811061185a57611859612503565b5b6020026020010151600001516118e7577f8dbd4bfc0000000000000000000000000000000000000000000000000000000084828151811061189e5761189d612503565b5b6020026020010151602001516040517fe1c444480000000000000000000000000000000000000000000000000000000081526004016118de929190612e1d565b60405180910390fd5b61192d7f8dbd4bfc0000000000000000000000000000000000000000000000000000000085838151811061191e5761191d612503565b5b60200260200101516000611782565b8282815181106119405761193f612503565b5b602002602001019073ffffffffffffffffffffffffffffffffffffffff16908173ffffffffffffffffffffffffffffffffffffffff1681525050600082828151811061198f5761198e612503565b5b602002602001015173ffffffffffffffffffffffffffffffffffffffff16634e7165a28684815181106119c5576119c4612503565b5b6020026020010151604001516040518263ffffffff1660e01b81526004016119ed9190612767565b600060405180830381865afa158015611a0a573d6000803e3d6000fd5b505050506040513d6000823e3d601f19601f82011682018060405250810190611a339190612e46565b90506000815114611ac8578373ffffffffffffffffffffffffffffffffffffffff1663fa4ca9b1826040518263ffffffff1660e01b8152600401611a779190612767565b6020604051808303816000875af1158015611a96573d6000803e3d6000fd5b505050506040513d601f19601f82011682018060405250810190611aba9190612623565b611ac757611ac6612e8f565b5b5b828281518110611adb57611ada612503565b5b602002602001015173ffffffffffffffffffffffffffffffffffffffff1663439fab91868481518110611b1157611b10612503565b5b6020026020010151604001516040518263ffffffff1660e01b8152600401611b399190612767565b600060405180830381600087803b158015611b5357600080fd5b505af1158015611b67573d6000803e3d6000fd5b505050505080806001019150506117f6565b5092915050565b600090565b60003860003884865af1611ba15763b12d13eb6000526004601cfd5b5050565b600073ffffffffffffffffffffffffffffffffffffffff168173ffffffffffffffffffffffffffffffffffffffff161480611c5757508073ffffffffffffffffffffffffffffffffffffffff166301ffc9a7836040518263ffffffff1660e01b8152600401611c149190612d2c565b602060405180830381865afa158015611c31573d6000803e3d6000fd5b505050506040513d601f19601f82011682018060405250810190611c559190612623565b155b15611c9b5781816040517fe1c44448000000000000000000000000000000000000000000000000000000008152600401611c92929190612e1d565b60405180910390fd5b5050565b60008260000151611cb4578260200151611cd8565b611cd7836020015173ffffffffffffffffffffffffffffffffffffffff16611d63565b5b905082600001518015611ce85750815b15611d5d578073ffffffffffffffffffffffffffffffffffffffff1663439fab9184604001516040518263ffffffff1660e01b8152600401611d2a9190612767565b600060405180830381600087803b158015611d4457600080fd5b505af1158015611d58573d6000803e3d6000fd5b505050505b92915050565b6000611d70600083611d77565b9050919050565b60006c5af43d3d93803e602a57fd5bf36021528160145273602c3d8160093d39f33d3d3d3d363d3d37363d736000526035600c84f0905080611dc15763301164256000526004601cfd5b600060215292915050565b604051806101200160405280600073ffffffffffffffffffffffffffffffffffffffff168152602001600073ffffffffffffffffffffffffffffffffffffffff168152602001600073ffffffffffffffffffffffffffffffffffffffff168152602001600073ffffffffffffffffffffffffffffffffffffffff16815260200160608152602001600067ffffffffffffffff168152602001600067ffffffffffffffff16815260200160008152602001600073ffffffffffffffffffffffffffffffffffffffff1681525090565b828054828255906000526020600020908101928215611f13579160200282015b82811115611f125782518260006101000a81548173ffffffffffffffffffffffffffffffffffffffff021916908373ffffffffffffffffffffffffffffffffffffffff16021790555091602001919060010190611eba565b5b509050611f209190611f24565b5090565b5b80821115611f3d576000816000905550600101611f25565b5090565b6000604051905090565b600080fd5b600080fd5b6000819050919050565b611f6881611f55565b8114611f7357600080fd5b50565b600081359050611f8581611f5f565b92915050565b600060208284031215611fa157611fa0611f4b565b5b6000611faf84828501611f76565b91505092915050565b600073ffffffffffffffffffffffffffffffffffffffff82169050919050565b6000819050919050565b6000611ffd611ff8611ff384611fb8565b611fd8565b611fb8565b9050919050565b600061200f82611fe2565b9050919050565b600061202182612004565b9050919050565b61203181612016565b82525050565b600061204282612004565b9050919050565b61205281612037565b82525050565b600061206382612004565b9050919050565b61207381612058565b82525050565b600061208482611fe2565b9050919050565b600061209682612079565b9050919050565b6120a68161208b565b82525050565b600081519050919050565b600082825260208201905092915050565b6000819050602082019050919050565b60006120e382612004565b9050919050565b6120f3816120d8565b82525050565b600061210583836120ea565b60208301905092915050565b6000602082019050919050565b6000612129826120ac565b61213381856120b7565b935061213e836120c8565b8060005b8381101561216f57815161215688826120f9565b975061216183612111565b925050600181019050612142565b5085935050505092915050565b600067ffffffffffffffff82169050919050565b6121998161217c565b82525050565b6121a881611f55565b82525050565b60006121b982611fb8565b9050919050565b6121c9816121ae565b82525050565b6000610120830160008301516121e86000860182612028565b5060208301516121fb6020860182612049565b50604083015161220e604086018261206a565b506060830151612221606086018261209d565b5060808301518482036080860152612239828261211e565b91505060a083015161224e60a0860182612190565b5060c083015161226160c0860182612190565b5060e083015161227460e086018261219f565b506101008301516122896101008601826121c0565b508091505092915050565b600060208201905081810360008301526122ae81846121cf565b905092915050565b6122bf816121ae565b82525050565b60006020820190506122da60008301846122b6565b92915050565b6122e9816121ae565b81146122f457600080fd5b50565b600081359050612306816122e0565b92915050565b60006020828403121561232257612321611f4b565b5b6000612330848285016122f7565b91505092915050565b61234281611f55565b82525050565b600060208201905061235d6000830184612339565b92915050565b600061236e82612004565b9050919050565b61237e81612363565b82525050565b60006020820190506123996000830184612375565b92915050565b6123a88161217c565b82525050565b60006020820190506123c3600083018461239f565b92915050565b600080fd5b600080fd5b600080fd5b60008083601f8401126123ee576123ed6123c9565b5b8235905067ffffffffffffffff81111561240b5761240a6123ce565b5b602083019150836001820283011115612427576124266123d3565b5b9250929050565b60008060008060006080868803121561244a57612449611f4b565b5b600061245888828901611f76565b955050602061246988828901611f76565b945050604061247a888289016122f7565b935050606086013567ffffffffffffffff81111561249b5761249a611f50565b5b6124a7888289016123d8565b92509250509295509295909350565b600080602083850312156124cd576124cc611f4b565b5b600083013567ffffffffffffffff8111156124eb576124ea611f50565b5b6124f7858286016123d8565b92509250509250929050565b7f4e487b7100000000000000000000000000000000000000000000000000000000600052603260045260246000fd5b600060608201905061254760008301866122b6565b6125546020830185612339565b6125616040830184612339565b949350505050565b600082825260208201905092915050565b82818337600083830152505050565b6000601f19601f8301169050919050565b60006125a68385612569565b93506125b383858461257a565b6125bc83612589565b840190509392505050565b600060208201905081810360008301526125e281848661259a565b90509392505050565b60008115159050919050565b612600816125eb565b811461260b57600080fd5b50565b60008151905061261d816125f7565b92915050565b60006020828403121561263957612638611f4b565b5b60006126478482850161260e565b91505092915050565b600081519050919050565b600082825260208201905092915050565b60005b8381101561268a57808201518184015260208101905061266f565b60008484015250505050565b60006126a182612650565b6126ab818561265b565b93506126bb81856020860161266c565b6126c481612589565b840191505092915050565b60006040830160008301516126e760008601826121c0565b50602083015184820360208601526126ff8282612696565b9150508091505092915050565b6000602082019050818103600083015261272681846126cf565b905092915050565b600061273982612650565b6127438185612569565b935061275381856020860161266c565b61275c81612589565b840191505092915050565b60006020820190508181036000830152612781818461272e565b905092915050565b600060408201905061279e60008301866122b6565b81810360208301526127b181848661259a565b9050949350505050565b600080fd5b7f4e487b7100000000000000000000000000000000000000000000000000000000600052604160045260246000fd5b6127f882612589565b810181811067ffffffffffffffff82111715612817576128166127c0565b5b80604052505050565b600061282a611f41565b905061283682826127ef565b919050565b600080fd5b600061284b82611fb8565b9050919050565b600061285d82612840565b9050919050565b61286d81612852565b811461287857600080fd5b50565b60008151905061288a81612864565b92915050565b60008151905061289f816122e0565b92915050565b600080fd5b600067ffffffffffffffff8211156128c5576128c46127c0565b5b6128ce82612589565b9050602081019050919050565b60006128ee6128e9846128aa565b612820565b90508281526020810184848401111561290a576129096128a5565b5b61291584828561266c565b509392505050565b600082601f830112612932576129316123c9565b5b81516129428482602086016128db565b91505092915050565b600060608284031215612961576129606127bb565b5b61296b6060612820565b9050600061297b8482850161260e565b600083015250602061298f84828501612890565b602083015250604082015167ffffffffffffffff8111156129b3576129b261283b565b5b6129bf8482850161291d565b60408301525092915050565b600067ffffffffffffffff8211156129e6576129e56127c0565b5b602082029050602081019050919050565b6000612a0a612a05846129cb565b612820565b90508083825260208201905060208402830185811115612a2d57612a2c6123d3565b5b835b81811015612a7457805167ffffffffffffffff811115612a5257612a516123c9565b5b808601612a5f898261294b565b85526020850194505050602081019050612a2f565b5050509392505050565b600082601f830112612a9357612a926123c9565b5b8151612aa38482602086016129f7565b91505092915050565b612ab58161217c565b8114612ac057600080fd5b50565b600081519050612ad281612aac565b92915050565b600081519050612ae781611f5f565b92915050565b60006101208284031215612b0457612b036127bb565b5b612b0f610120612820565b90506000612b1f8482850161287b565b600083015250602082015167ffffffffffffffff811115612b4357612b4261283b565b5b612b4f8482850161294b565b602083015250604082015167ffffffffffffffff811115612b7357612b7261283b565b5b612b7f8482850161294b565b604083015250606082015167ffffffffffffffff811115612ba357612ba261283b565b5b612baf8482850161294b565b606083015250608082015167ffffffffffffffff811115612bd357612bd261283b565b5b612bdf84828501612a7e565b60808301525060a0612bf384828501612ac3565b60a08301525060c0612c0784828501612ac3565b60c08301525060e0612c1b84828501612ad8565b60e083015250610100612c3084828501612890565b6101008301525092915050565b600060208284031215612c5357612c52611f4b565b5b600082015167ffffffffffffffff811115612c7157612c70611f50565b5b612c7d84828501612aed565b91505092915050565b7f4e487b7100000000000000000000000000000000000000000000000000000000600052601160045260246000fd5b6000612cc08261217c565b9150612ccb8361217c565b9250828201905067ffffffffffffffff811115612ceb57612cea612c86565b5b92915050565b60007fffffffff0000000000000000000000000000000000000000000000000000000082169050919050565b612d2681612cf1565b82525050565b6000602082019050612d416000830184612d1d565b92915050565b6000612d5282611f55565b9150612d5d83611f55565b9250828202612d6b81611f55565b91508282048414831517612d8257612d81612c86565b5b5092915050565b7f4e487b7100000000000000000000000000000000000000000000000000000000600052601260045260246000fd5b6000612dc382611f55565b9150612dce83611f55565b925082612dde57612ddd612d89565b5b828204905092915050565b6000612df482611f55565b9150612dff83611f55565b9250828203905081811115612e1757612e16612c86565b5b92915050565b6000604082019050612e326000830185612d1d565b612e3f60208301846122b6565b9392505050565b600060208284031215612e5c57612e5b611f4b565b5b600082015167ffffffffffffffff811115612e7a57612e79611f50565b5b612e868482850161291d565b91505092915050565b7f4e487b7100000000000000000000000000000000000000000000000000000000600052600160045260246000fdfea2646970667358221220528aa5d1fbb14fb94861a2f99427b8130991af2228b918543ec72c1376c146f364736f6c63430008180033",
  "linkReferences": {},
  "deployedLinkReferences": {}
}