{
  "_format": "hh-sol-artifact-1",
  "contractName": "SignerValidator",
  "sourceName": "contracts/validators/SignerValidator.sol",
  "abi": [
    {
      "inputs": [],
      "stateMutability": "nonpayable",
      "type": "constructor"
    },
    {
      "inputs": [],
      "name": "AlreadyInitialized",
      "type": "error"
    },
    {
      "inputs": [],
      "name": "CloneAlreadyInitialized",
      "type": "error"
    },
    {
      "inputs": [],
      "name": "InitializerNotImplemented",
      "type": "error"
    },
    {
      "inputs": [],
      "name": "InvalidInitialization",
      "type": "error"
    },
    {
      "inputs": [],
      "name": "InvalidInitializationData",
      "type": "error"
    },
    {
      "inputs": [],
      "name": "LengthMismatch",
      "type": "error"
    },
    {
      "inputs": [],
      "name": "NewOwnerIsZeroAddress",
      "type": "error"
    },
    {
      "inputs": [],
      "name": "NoHandoverRequest",
      "type": "error"
    },
    {
      "inputs": [],
      "name": "NotInitializing",
      "type": "error"
    },
    {
      "inputs": [
        {
          "internalType": "address",
          "name": "signer",
          "type": "address"
        },
        {
          "internalType": "bytes32",
          "name": "hash",
          "type": "bytes32"
        },
        {
          "internalType": "bytes",
          "name": "signature",
          "type": "bytes"
        }
      ],
      "name": "Replayed",
      "type": "error"
    },
    {
      "inputs": [],
      "name": "Unauthorized",
      "type": "error"
    },
    {
      "inputs": [],
      "name": "Unauthorized",
      "type": "error"
    },
    {
      "anonymous": false,
      "inputs": [
        {
          "indexed": false,
          "internalType": "uint64",
          "name": "version",
          "type": "uint64"
        }
      ],
      "name": "Initialized",
      "type": "event"
    },
    {
      "anonymous": false,
      "inputs": [
        {
          "indexed": true,
          "internalType": "address",
          "name": "pendingOwner",
          "type": "address"
        }
      ],
      "name": "OwnershipHandoverCanceled",
      "type": "event"
    },
    {
      "anonymous": false,
      "inputs": [
        {
          "indexed": true,
          "internalType": "address",
          "name": "pendingOwner",
          "type": "address"
        }
      ],
      "name": "OwnershipHandoverRequested",
      "type": "event"
    },
    {
      "anonymous": false,
      "inputs": [
        {
          "indexed": true,
          "internalType": "address",
          "name": "oldOwner",
          "type": "address"
        },
        {
          "indexed": true,
          "internalType": "address",
          "name": "newOwner",
          "type": "address"
        }
      ],
      "name": "OwnershipTransferred",
      "type": "event"
    },
    {
      "inputs": [],
      "name": "cancelOwnershipHandover",
      "outputs": [],
      "stateMutability": "payable",
      "type": "function"
    },
    {
      "inputs": [
        {
          "internalType": "address",
          "name": "pendingOwner",
          "type": "address"
        }
      ],
      "name": "completeOwnershipHandover",
      "outputs": [],
      "stateMutability": "payable",
      "type": "function"
    },
    {
      "inputs": [
        {
          "internalType": "bytes",
          "name": "data_",
          "type": "bytes"
        }
      ],
      "name": "initialize",
      "outputs": [],
      "stateMutability": "nonpayable",
      "type": "function"
    },
    {
      "inputs": [],
      "name": "owner",
      "outputs": [
        {
          "internalType": "address",
          "name": "result",
          "type": "address"
        }
      ],
      "stateMutability": "view",
      "type": "function"
    },
    {
      "inputs": [
        {
          "internalType": "address",
          "name": "pendingOwner",
          "type": "address"
        }
      ],
      "name": "ownershipHandoverExpiresAt",
      "outputs": [
        {
          "internalType": "uint256",
          "name": "result",
          "type": "uint256"
        }
      ],
      "stateMutability": "view",
      "type": "function"
    },
    {
      "inputs": [],
      "name": "renounceOwnership",
      "outputs": [],
      "stateMutability": "payable",
      "type": "function"
    },
    {
      "inputs": [],
      "name": "requestOwnershipHandover",
      "outputs": [],
      "stateMutability": "payable",
      "type": "function"
    },
    {
      "inputs": [
        {
          "internalType": "address[]",
          "name": "signers_",
          "type": "address[]"
        },
        {
          "internalType": "bool[]",
          "name": "authorized_",
          "type": "bool[]"
        }
      ],
      "name": "setAuthorized",
      "outputs": [],
      "stateMutability": "nonpayable",
      "type": "function"
    },
    {
      "inputs": [
        {
          "internalType": "address",
          "name": "",
          "type": "address"
        }
      ],
      "name": "signers",
      "outputs": [
        {
          "internalType": "bool",
          "name": "",
          "type": "bool"
        }
      ],
      "stateMutability": "view",
      "type": "function"
    },
    {
      "inputs": [
        {
          "internalType": "bytes4",
          "name": "interfaceId",
          "type": "bytes4"
        }
      ],
      "name": "supportsInterface",
      "outputs": [
        {
          "internalType": "bool",
          "name": "",
          "type": "bool"
        }
      ],
      "stateMutability": "view",
      "type": "function"
    },
    {
      "inputs": [
        {
          "internalType": "address",
          "name": "newOwner",
          "type": "address"
        }
      ],
      "name": "transferOwnership",
      "outputs": [],
      "stateMutability": "payable",
      "type": "function"
    },
    {
      "inputs": [
        {
          "internalType": "bytes",
          "name": "data_",
          "type": "bytes"
        }
      ],
      "name": "validate",
      "outputs": [
        {
          "internalType": "bool",
          "name": "",
          "type": "bool"
        }
      ],
      "stateMutability": "nonpayable",
      "type": "function"
    }
  ],
  "bytecode": "0x60806040523480156200001157600080fd5b5062000023336200003960201b60201c565b620000336200011f60201b60201c565b620001c1565b620000496200019160201b60201c565b15620000c7577fffffffffffffffffffffffffffffffffffffffffffffffffffffffff748739278054156200008657630dc149f06000526004601cfd5b8160601b60601c9150811560ff1b821781558160007f8be0079c531659141344cd1fd0a4f28419497f9722a3daafe3b4186f6b6457e0600080a3506200011c565b8060601b60601c9050807fffffffffffffffffffffffffffffffffffffffffffffffffffffffff74873927558060007f8be0079c531659141344cd1fd0a4f28419497f9722a3daafe3b4186f6b6457e0600080a35b50565b6000620001316200019660201b60201c565b9050805460018116156200014d5763f92ee8a96000526004601cfd5b8160c01c808260011c146200018c578060011b8355806020527fc7f505b2f371ae2175ee4913f4499e1f2633a7b5936321eed1cdaeb6115181d2602080a15b505050565b600090565b60007fffffffffffffffffffffffffffffffffffffffffffffffffffffffffbf60113260001b905090565b61149d80620001d16000396000f3fe6080604052600436106100a75760003560e01c8063736c0d5b11610064578063736c0d5b146101595780638da5cb5b14610196578063c16e50ef146101c1578063f04e283e146101fe578063f2fde38b1461021a578063fee81cf414610236576100a7565b806301ffc9a7146100ac57806325692962146100e95780634359d28a146100f3578063439fab911461011c57806354d1f13d14610145578063715018a61461014f575b600080fd5b3480156100b857600080fd5b506100d360048036038101906100ce9190610cb8565b610273565b6040516100e09190610d00565b60405180910390f35b6100f16102ed565b005b3480156100ff57600080fd5b5061011a60048036038101906101159190610dd6565b610341565b005b34801561012857600080fd5b50610143600480360381019061013e9190610ead565b61044e565b005b61014d610589565b005b6101576105c5565b005b34801561016557600080fd5b50610180600480360381019061017b9190610f58565b6105d9565b60405161018d9190610d00565b60405180910390f35b3480156101a257600080fd5b506101ab6105f9565b6040516101b89190610f94565b60405180910390f35b3480156101cd57600080fd5b506101e860048036038101906101e39190610ead565b610622565b6040516101f59190610d00565b60405180910390f35b61021860048036038101906102139190610f58565b61078f565b005b610234600480360381019061022f9190610f58565b6107d0565b005b34801561024257600080fd5b5061025d60048036038101906102589190610f58565b6107fa565b60405161026a9190610fc8565b60405180910390f35b60007fc0919948000000000000000000000000000000000000000000000000000000007bffffffffffffffffffffffffffffffffffffffffffffffffffffffff1916827bffffffffffffffffffffffffffffffffffffffffffffffffffffffff191614806102e657506102e582610815565b5b9050919050565b60006102f761088f565b67ffffffffffffffff164201905063389a75e1600c5233600052806020600c2055337fdbf36a107da19e49527a7176a1babf963b4b0ff8cde35ee35d6cd8f1f9ac7e1d600080a250565b61034961089a565b818190508484905014610388576040517fff633a3800000000000000000000000000000000000000000000000000000000815260040160405180910390fd5b60005b84849050811015610447578282828181106103a9576103a8610fe3565b5b90506020020160208101906103be919061103e565b6000808787858181106103d4576103d3610fe3565b5b90506020020160208101906103e99190610f58565b73ffffffffffffffffffffffffffffffffffffffff1673ffffffffffffffffffffffffffffffffffffffff16815260200190815260200160002060006101000a81548160ff021916908315150217905550808060010191505061038b565b5050505050565b60006104586108d2565b9050805460038255801561048b5760018160011c14303b106104825763f92ee8a96000526004601cfd5b818160ff1b1b91505b506000838381019061049d91906111ba565b90506104c3816000815181106104b6576104b5610fe3565b5b60200260200101516108fd565b60005b815181101561054d5760016000808484815181106104e7576104e6610fe3565b5b602002602001015173ffffffffffffffffffffffffffffffffffffffff1673ffffffffffffffffffffffffffffffffffffffff16815260200190815260200160002060006101000a81548160ff02191690831515021790555080806001019150506104c6565b50508015610584576002815560016020527fc7f505b2f371ae2175ee4913f4499e1f2633a7b5936321eed1cdaeb6115181d2602080a15b505050565b63389a75e1600c523360005260006020600c2055337ffa7b8eab7da67f412cc9575ed43464468f9bfbae89d1675917346ca6d8fe3c92600080a2565b6105cd61089a565b6105d760006109d8565b565b60006020528060005260406000206000915054906101000a900460ff1681565b60007fffffffffffffffffffffffffffffffffffffffffffffffffffffffff7487392754905090565b6000806000808585810190610637919061132c565b9250925092506000808473ffffffffffffffffffffffffffffffffffffffff1673ffffffffffffffffffffffffffffffffffffffff16815260200190815260200160002060009054906101000a900460ff166106bf576040517f82b4290000000000000000000000000000000000000000000000000000000000815260040160405180910390fd5b6001600083815260200190815260200160002060009054906101000a900460ff1615610726578282826040517fcde6ac8700000000000000000000000000000000000000000000000000000000815260040161071d93929190611429565b60405180910390fd5b600180600084815260200190815260200160002060006101000a81548160ff02191690831515021790555061078461075d83610aa0565b828573ffffffffffffffffffffffffffffffffffffffff16610ad29092919063ffffffff16565b935050505092915050565b61079761089a565b63389a75e1600c52806000526020600c2080544211156107bf57636f5e88186000526004601cfd5b60008155506107cd816109d8565b50565b6107d861089a565b8060601b6107ee57637448fbae6000526004601cfd5b6107f7816109d8565b50565b600063389a75e1600c52816000526020600c20549050919050565b60007f42606236000000000000000000000000000000000000000000000000000000007bffffffffffffffffffffffffffffffffffffffffffffffffffffffff1916827bffffffffffffffffffffffffffffffffffffffffffffffffffffffff19161480610888575061088782610bdd565b5b9050919050565b60006202a300905090565b7fffffffffffffffffffffffffffffffffffffffffffffffffffffffff748739275433146108d0576382b429006000526004601cfd5b565b60007fffffffffffffffffffffffffffffffffffffffffffffffffffffffffbf60113260001b905090565b610905610c47565b15610980577fffffffffffffffffffffffffffffffffffffffffffffffffffffffff7487392780541561094057630dc149f06000526004601cfd5b8160601b60601c9150811560ff1b821781558160007f8be0079c531659141344cd1fd0a4f28419497f9722a3daafe3b4186f6b6457e0600080a3506109d5565b8060601b60601c9050807fffffffffffffffffffffffffffffffffffffffffffffffffffffffff74873927558060007f8be0079c531659141344cd1fd0a4f28419497f9722a3daafe3b4186f6b6457e0600080a35b50565b6109e0610c47565b15610a46577fffffffffffffffffffffffffffffffffffffffffffffffffffffffff748739278160601b60601c91508181547f8be0079c531659141344cd1fd0a4f28419497f9722a3daafe3b4186f6b6457e0600080a3811560ff1b8217815550610a9d565b7fffffffffffffffffffffffffffffffffffffffffffffffffffffffff748739278160601b60601c91508181547f8be0079c531659141344cd1fd0a4f28419497f9722a3daafe3b4186f6b6457e0600080a3818155505b50565b6000816020527b19457468657265756d205369676e6564204d6573736167653a0a3332600052603c6004209050919050565b60008360601b60601c93508315610bd6576040518360005260208301516040526040835103610b43576040830151601b8160ff1c016020528060011b60011c606052602060016080600060015afa805187183d1517610b405760019350600060605282604052505050610bd6565b50505b6041835103610b8c57606083015160001a6020526040830151606052602060016080600060015afa805186183d1517610b8a57600192506000606052816040525050610bd6565b505b600060605280604052631626ba7e60e01b808252846004830152602482016040815284516020018060448501828860045afa5060208260443d01868b5afa83835114169450505050505b9392505050565b60007f01ffc9a7000000000000000000000000000000000000000000000000000000007bffffffffffffffffffffffffffffffffffffffffffffffffffffffff1916827bffffffffffffffffffffffffffffffffffffffffffffffffffffffff1916149050919050565b600090565b6000604051905090565b600080fd5b600080fd5b60007fffffffff0000000000000000000000000000000000000000000000000000000082169050919050565b610c9581610c60565b8114610ca057600080fd5b50565b600081359050610cb281610c8c565b92915050565b600060208284031215610cce57610ccd610c56565b5b6000610cdc84828501610ca3565b91505092915050565b60008115159050919050565b610cfa81610ce5565b82525050565b6000602082019050610d156000830184610cf1565b92915050565b600080fd5b600080fd5b600080fd5b60008083601f840112610d4057610d3f610d1b565b5b8235905067ffffffffffffffff811115610d5d57610d5c610d20565b5b602083019150836020820283011115610d7957610d78610d25565b5b9250929050565b60008083601f840112610d9657610d95610d1b565b5b8235905067ffffffffffffffff811115610db357610db2610d20565b5b602083019150836020820283011115610dcf57610dce610d25565b5b9250929050565b60008060008060408587031215610df057610def610c56565b5b600085013567ffffffffffffffff811115610e0e57610e0d610c5b565b5b610e1a87828801610d2a565b9450945050602085013567ffffffffffffffff811115610e3d57610e3c610c5b565b5b610e4987828801610d80565b925092505092959194509250565b60008083601f840112610e6d57610e6c610d1b565b5b8235905067ffffffffffffffff811115610e8a57610e89610d20565b5b602083019150836001820283011115610ea657610ea5610d25565b5b9250929050565b60008060208385031215610ec457610ec3610c56565b5b600083013567ffffffffffffffff811115610ee257610ee1610c5b565b5b610eee85828601610e57565b92509250509250929050565b600073ffffffffffffffffffffffffffffffffffffffff82169050919050565b6000610f2582610efa565b9050919050565b610f3581610f1a565b8114610f4057600080fd5b50565b600081359050610f5281610f2c565b92915050565b600060208284031215610f6e57610f6d610c56565b5b6000610f7c84828501610f43565b91505092915050565b610f8e81610f1a565b82525050565b6000602082019050610fa96000830184610f85565b92915050565b6000819050919050565b610fc281610faf565b82525050565b6000602082019050610fdd6000830184610fb9565b92915050565b7f4e487b7100000000000000000000000000000000000000000000000000000000600052603260045260246000fd5b61101b81610ce5565b811461102657600080fd5b50565b60008135905061103881611012565b92915050565b60006020828403121561105457611053610c56565b5b600061106284828501611029565b91505092915050565b6000601f19601f8301169050919050565b7f4e487b7100000000000000000000000000000000000000000000000000000000600052604160045260246000fd5b6110b48261106b565b810181811067ffffffffffffffff821117156110d3576110d261107c565b5b80604052505050565b60006110e6610c4c565b90506110f282826110ab565b919050565b600067ffffffffffffffff8211156111125761111161107c565b5b602082029050602081019050919050565b6000611136611131846110f7565b6110dc565b9050808382526020820190506020840283018581111561115957611158610d25565b5b835b81811015611182578061116e8882610f43565b84526020840193505060208101905061115b565b5050509392505050565b600082601f8301126111a1576111a0610d1b565b5b81356111b1848260208601611123565b91505092915050565b6000602082840312156111d0576111cf610c56565b5b600082013567ffffffffffffffff8111156111ee576111ed610c5b565b5b6111fa8482850161118c565b91505092915050565b600061120e82610efa565b9050919050565b61121e81611203565b811461122957600080fd5b50565b60008135905061123b81611215565b92915050565b6000819050919050565b61125481611241565b811461125f57600080fd5b50565b6000813590506112718161124b565b92915050565b600080fd5b600067ffffffffffffffff8211156112975761129661107c565b5b6112a08261106b565b9050602081019050919050565b82818337600083830152505050565b60006112cf6112ca8461127c565b6110dc565b9050828152602081018484840111156112eb576112ea611277565b5b6112f68482856112ad565b509392505050565b600082601f83011261131357611312610d1b565b5b81356113238482602086016112bc565b91505092915050565b60008060006060848603121561134557611344610c56565b5b60006113538682870161122c565b935050602061136486828701611262565b925050604084013567ffffffffffffffff81111561138557611384610c5b565b5b611391868287016112fe565b9150509250925092565b6113a481611241565b82525050565b600081519050919050565b600082825260208201905092915050565b60005b838110156113e45780820151818401526020810190506113c9565b60008484015250505050565b60006113fb826113aa565b61140581856113b5565b93506114158185602086016113c6565b61141e8161106b565b840191505092915050565b600060608201905061143e6000830186610f85565b61144b602083018561139b565b818103604083015261145d81846113f0565b905094935050505056fea2646970667358221220dffbdd8f476b3f349108d35b34be47e1d1b96c768785c2735524ecf3a15f940664736f6c63430008180033",
  "linkReferences": {},
  "deployedLinkReferences": {}
}