{
  "_format": "hh-sol-artifact-1",
  "contractName": "SignerValidator",
  "sourceName": "contracts/validators/SignerValidator.sol",
  "abi": [
    {
      "inputs": [],
      "stateMutability": "nonpayable",
      "type": "constructor"
    },
    {
      "inputs": [],
      "name": "AlreadyInitialized",
      "type": "error"
    },
    {
      "inputs": [],
      "name": "CloneAlreadyInitialized",
      "type": "error"
    },
    {
      "inputs": [],
      "name": "InitializerNotImplemented",
      "type": "error"
    },
    {
      "inputs": [],
      "name": "InvalidInitialization",
      "type": "error"
    },
    {
      "inputs": [],
      "name": "InvalidInitializationData",
      "type": "error"
    },
    {
      "inputs": [],
      "name": "LengthMismatch",
      "type": "error"
    },
    {
      "inputs": [],
      "name": "NewOwnerIsZeroAddress",
      "type": "error"
    },
    {
      "inputs": [],
      "name": "NoHandoverRequest",
      "type": "error"
    },
    {
      "inputs": [],
      "name": "NotInitializing",
      "type": "error"
    },
    {
      "inputs": [
        {
          "internalType": "address",
          "name": "signer",
          "type": "address"
        },
        {
          "internalType": "bytes32",
          "name": "hash",
          "type": "bytes32"
        },
        {
          "internalType": "bytes",
          "name": "signature",
          "type": "bytes"
        }
      ],
      "name": "Replayed",
      "type": "error"
    },
    {
      "inputs": [],
      "name": "Unauthorized",
      "type": "error"
    },
    {
      "inputs": [],
      "name": "Unauthorized",
      "type": "error"
    },
    {
      "anonymous": false,
      "inputs": [
        {
          "indexed": false,
          "internalType": "uint64",
          "name": "version",
          "type": "uint64"
        }
      ],
      "name": "Initialized",
      "type": "event"
    },
    {
      "anonymous": false,
      "inputs": [
        {
          "indexed": true,
          "internalType": "address",
          "name": "pendingOwner",
          "type": "address"
        }
      ],
      "name": "OwnershipHandoverCanceled",
      "type": "event"
    },
    {
      "anonymous": false,
      "inputs": [
        {
          "indexed": true,
          "internalType": "address",
          "name": "pendingOwner",
          "type": "address"
        }
      ],
      "name": "OwnershipHandoverRequested",
      "type": "event"
    },
    {
      "anonymous": false,
      "inputs": [
        {
          "indexed": true,
          "internalType": "address",
          "name": "oldOwner",
          "type": "address"
        },
        {
          "indexed": true,
          "internalType": "address",
          "name": "newOwner",
          "type": "address"
        }
      ],
      "name": "OwnershipTransferred",
      "type": "event"
    },
    {
      "inputs": [],
      "name": "cancelOwnershipHandover",
      "outputs": [],
      "stateMutability": "payable",
      "type": "function"
    },
    {
      "inputs": [
        {
          "internalType": "address",
          "name": "pendingOwner",
          "type": "address"
        }
      ],
      "name": "completeOwnershipHandover",
      "outputs": [],
      "stateMutability": "payable",
      "type": "function"
    },
    {
      "inputs": [
        {
          "internalType": "bytes",
          "name": "data_",
          "type": "bytes"
        }
      ],
      "name": "initialize",
      "outputs": [],
      "stateMutability": "nonpayable",
      "type": "function"
    },
    {
      "inputs": [],
      "name": "owner",
      "outputs": [
        {
          "internalType": "address",
          "name": "result",
          "type": "address"
        }
      ],
      "stateMutability": "view",
      "type": "function"
    },
    {
      "inputs": [
        {
          "internalType": "address",
          "name": "pendingOwner",
          "type": "address"
        }
      ],
      "name": "ownershipHandoverExpiresAt",
      "outputs": [
        {
          "internalType": "uint256",
          "name": "result",
          "type": "uint256"
        }
      ],
      "stateMutability": "view",
      "type": "function"
    },
    {
      "inputs": [],
      "name": "renounceOwnership",
      "outputs": [],
      "stateMutability": "payable",
      "type": "function"
    },
    {
      "inputs": [],
      "name": "requestOwnershipHandover",
      "outputs": [],
      "stateMutability": "payable",
      "type": "function"
    },
    {
      "inputs": [
        {
          "internalType": "address[]",
          "name": "signers_",
          "type": "address[]"
        },
        {
          "internalType": "bool[]",
          "name": "authorized_",
          "type": "bool[]"
        }
      ],
      "name": "setAuthorized",
      "outputs": [],
      "stateMutability": "nonpayable",
      "type": "function"
    },
    {
      "inputs": [
        {
          "internalType": "address",
          "name": "",
          "type": "address"
        }
      ],
      "name": "signers",
      "outputs": [
        {
          "internalType": "bool",
          "name": "",
          "type": "bool"
        }
      ],
      "stateMutability": "view",
      "type": "function"
    },
    {
      "inputs": [
        {
          "internalType": "bytes4",
          "name": "interfaceId",
          "type": "bytes4"
        }
      ],
      "name": "supportsInterface",
      "outputs": [
        {
          "internalType": "bool",
          "name": "",
          "type": "bool"
        }
      ],
      "stateMutability": "view",
      "type": "function"
    },
    {
      "inputs": [
        {
          "internalType": "address",
          "name": "newOwner",
          "type": "address"
        }
      ],
      "name": "transferOwnership",
      "outputs": [],
      "stateMutability": "payable",
      "type": "function"
    },
    {
      "inputs": [
        {
          "internalType": "bytes",
          "name": "data_",
          "type": "bytes"
        }
      ],
      "name": "validate",
      "outputs": [
        {
          "internalType": "bool",
          "name": "",
          "type": "bool"
        }
      ],
      "stateMutability": "nonpayable",
      "type": "function"
    }
  ],
  "bytecode": "0x608060405234801561000f575f80fd5b5061001f3361003260201b60201c565b61002d61010e60201b60201c565b6101a7565b61004061017a60201b60201c565b156100b8577fffffffffffffffffffffffffffffffffffffffffffffffffffffffff7487392780541561007a57630dc149f05f526004601cfd5b8160601b60601c9150811560ff1b82178155815f7f8be0079c531659141344cd1fd0a4f28419497f9722a3daafe3b4186f6b6457e05f80a35061010b565b8060601b60601c9050807fffffffffffffffffffffffffffffffffffffffffffffffffffffffff7487392755805f7f8be0079c531659141344cd1fd0a4f28419497f9722a3daafe3b4186f6b6457e05f80a35b50565b5f61011d61017e60201b60201c565b9050805460018116156101375763f92ee8a95f526004601cfd5b8160c01c808260011c14610175578060011b8355806020527fc7f505b2f371ae2175ee4913f4499e1f2633a7b5936321eed1cdaeb6115181d2602080a15b505050565b5f90565b5f7fffffffffffffffffffffffffffffffffffffffffffffffffffffffffbf6011325f1b905090565b6113f3806101b45f395ff3fe6080604052600436106100a6575f3560e01c8063736c0d5b11610063578063736c0d5b146101545780638da5cb5b14610190578063c16e50ef146101ba578063f04e283e146101f6578063f2fde38b14610212578063fee81cf41461022e576100a6565b806301ffc9a7146100aa57806325692962146100e65780634359d28a146100f0578063439fab911461011857806354d1f13d14610140578063715018a61461014a575b5f80fd5b3480156100b5575f80fd5b506100d060048036038101906100cb9190610c67565b61026a565b6040516100dd9190610cac565b60405180910390f35b6100ee6102e3565b005b3480156100fb575f80fd5b5061011660048036038101906101119190610d7b565b610334565b005b348015610123575f80fd5b5061013e60048036038101906101399190610e4e565b61043d565b005b610148610570565b005b6101526105a9565b005b34801561015f575f80fd5b5061017a60048036038101906101759190610ef3565b6105bc565b6040516101879190610cac565b60405180910390f35b34801561019b575f80fd5b506101a46105d8565b6040516101b19190610f2d565b60405180910390f35b3480156101c5575f80fd5b506101e060048036038101906101db9190610e4e565b610600565b6040516101ed9190610cac565b60405180910390f35b610210600480360381019061020b9190610ef3565b610762565b005b61022c60048036038101906102279190610ef3565b6107a0565b005b348015610239575f80fd5b50610254600480360381019061024f9190610ef3565b6107c9565b6040516102619190610f5e565b60405180910390f35b5f7fc0919948000000000000000000000000000000000000000000000000000000007bffffffffffffffffffffffffffffffffffffffffffffffffffffffff1916827bffffffffffffffffffffffffffffffffffffffffffffffffffffffff191614806102dc57506102db826107e2565b5b9050919050565b5f6102ec61085b565b67ffffffffffffffff164201905063389a75e1600c52335f52806020600c2055337fdbf36a107da19e49527a7176a1babf963b4b0ff8cde35ee35d6cd8f1f9ac7e1d5f80a250565b61033c610865565b81819050848490501461037b576040517fff633a3800000000000000000000000000000000000000000000000000000000815260040160405180910390fd5b5f5b848490508110156104365782828281811061039b5761039a610f77565b5b90506020020160208101906103b09190610fce565b5f808787858181106103c5576103c4610f77565b5b90506020020160208101906103da9190610ef3565b73ffffffffffffffffffffffffffffffffffffffff1673ffffffffffffffffffffffffffffffffffffffff1681526020019081526020015f205f6101000a81548160ff021916908315150217905550808060010191505061037d565b5050505050565b5f61044661089c565b905080546003825580156104785760018160011c14303b1061046f5763f92ee8a95f526004601cfd5b818160ff1b1b91505b505f83838101906104899190611141565b90506104ae815f815181106104a1576104a0610f77565b5b60200260200101516108c5565b5f5b81518110156105345760015f808484815181106104d0576104cf610f77565b5b602002602001015173ffffffffffffffffffffffffffffffffffffffff1673ffffffffffffffffffffffffffffffffffffffff1681526020019081526020015f205f6101000a81548160ff02191690831515021790555080806001019150506104b0565b5050801561056b576002815560016020527fc7f505b2f371ae2175ee4913f4499e1f2633a7b5936321eed1cdaeb6115181d2602080a15b505050565b63389a75e1600c52335f525f6020600c2055337ffa7b8eab7da67f412cc9575ed43464468f9bfbae89d1675917346ca6d8fe3c925f80a2565b6105b1610865565b6105ba5f61099b565b565b5f602052805f5260405f205f915054906101000a900460ff1681565b5f7fffffffffffffffffffffffffffffffffffffffffffffffffffffffff7487392754905090565b5f805f80858581019061061391906112a6565b9250925092505f808473ffffffffffffffffffffffffffffffffffffffff1673ffffffffffffffffffffffffffffffffffffffff1681526020019081526020015f205f9054906101000a900460ff16610698576040517f82b4290000000000000000000000000000000000000000000000000000000000815260040160405180910390fd5b60015f8381526020019081526020015f205f9054906101000a900460ff16156106fc578282826040517fcde6ac870000000000000000000000000000000000000000000000000000000081526004016106f393929190611381565b60405180910390fd5b6001805f8481526020019081526020015f205f6101000a81548160ff02191690831515021790555061075761073083610a61565b828573ffffffffffffffffffffffffffffffffffffffff16610a919092919063ffffffff16565b935050505092915050565b61076a610865565b63389a75e1600c52805f526020600c20805442111561079057636f5e88185f526004601cfd5b5f81555061079d8161099b565b50565b6107a8610865565b8060601b6107bd57637448fbae5f526004601cfd5b6107c68161099b565b50565b5f63389a75e1600c52815f526020600c20549050919050565b5f7f42606236000000000000000000000000000000000000000000000000000000007bffffffffffffffffffffffffffffffffffffffffffffffffffffffff1916827bffffffffffffffffffffffffffffffffffffffffffffffffffffffff19161480610854575061085382610b94565b5b9050919050565b5f6202a300905090565b7fffffffffffffffffffffffffffffffffffffffffffffffffffffffff7487392754331461089a576382b429005f526004601cfd5b565b5f7fffffffffffffffffffffffffffffffffffffffffffffffffffffffffbf6011325f1b905090565b6108cd610bfd565b15610945577fffffffffffffffffffffffffffffffffffffffffffffffffffffffff7487392780541561090757630dc149f05f526004601cfd5b8160601b60601c9150811560ff1b82178155815f7f8be0079c531659141344cd1fd0a4f28419497f9722a3daafe3b4186f6b6457e05f80a350610998565b8060601b60601c9050807fffffffffffffffffffffffffffffffffffffffffffffffffffffffff7487392755805f7f8be0079c531659141344cd1fd0a4f28419497f9722a3daafe3b4186f6b6457e05f80a35b50565b6109a3610bfd565b15610a08577fffffffffffffffffffffffffffffffffffffffffffffffffffffffff748739278160601b60601c91508181547f8be0079c531659141344cd1fd0a4f28419497f9722a3daafe3b4186f6b6457e05f80a3811560ff1b8217815550610a5e565b7fffffffffffffffffffffffffffffffffffffffffffffffffffffffff748739278160601b60601c91508181547f8be0079c531659141344cd1fd0a4f28419497f9722a3daafe3b4186f6b6457e05f80a3818155505b50565b5f816020527b19457468657265756d205369676e6564204d6573736167653a0a33325f52603c6004209050919050565b5f8360601b60601c93508315610b8d57604051835f5260208301516040526040835103610afe576040830151601b8160ff1c016020528060011b60011c6060526020600160805f60015afa805187183d1517610afb57600193505f60605282604052505050610b8d565b50505b6041835103610b445760608301515f1a60205260408301516060526020600160805f60015afa805186183d1517610b4257600192505f606052816040525050610b8d565b505b5f60605280604052631626ba7e60e01b808252846004830152602482016040815284516020018060448501828860045afa5060208260443d01868b5afa83835114169450505050505b9392505050565b5f7f01ffc9a7000000000000000000000000000000000000000000000000000000007bffffffffffffffffffffffffffffffffffffffffffffffffffffffff1916827bffffffffffffffffffffffffffffffffffffffffffffffffffffffff1916149050919050565b5f90565b5f604051905090565b5f80fd5b5f80fd5b5f7fffffffff0000000000000000000000000000000000000000000000000000000082169050919050565b610c4681610c12565b8114610c50575f80fd5b50565b5f81359050610c6181610c3d565b92915050565b5f60208284031215610c7c57610c7b610c0a565b5b5f610c8984828501610c53565b91505092915050565b5f8115159050919050565b610ca681610c92565b82525050565b5f602082019050610cbf5f830184610c9d565b92915050565b5f80fd5b5f80fd5b5f80fd5b5f8083601f840112610ce657610ce5610cc5565b5b8235905067ffffffffffffffff811115610d0357610d02610cc9565b5b602083019150836020820283011115610d1f57610d1e610ccd565b5b9250929050565b5f8083601f840112610d3b57610d3a610cc5565b5b8235905067ffffffffffffffff811115610d5857610d57610cc9565b5b602083019150836020820283011115610d7457610d73610ccd565b5b9250929050565b5f805f8060408587031215610d9357610d92610c0a565b5b5f85013567ffffffffffffffff811115610db057610daf610c0e565b5b610dbc87828801610cd1565b9450945050602085013567ffffffffffffffff811115610ddf57610dde610c0e565b5b610deb87828801610d26565b925092505092959194509250565b5f8083601f840112610e0e57610e0d610cc5565b5b8235905067ffffffffffffffff811115610e2b57610e2a610cc9565b5b602083019150836001820283011115610e4757610e46610ccd565b5b9250929050565b5f8060208385031215610e6457610e63610c0a565b5b5f83013567ffffffffffffffff811115610e8157610e80610c0e565b5b610e8d85828601610df9565b92509250509250929050565b5f73ffffffffffffffffffffffffffffffffffffffff82169050919050565b5f610ec282610e99565b9050919050565b610ed281610eb8565b8114610edc575f80fd5b50565b5f81359050610eed81610ec9565b92915050565b5f60208284031215610f0857610f07610c0a565b5b5f610f1584828501610edf565b91505092915050565b610f2781610eb8565b82525050565b5f602082019050610f405f830184610f1e565b92915050565b5f819050919050565b610f5881610f46565b82525050565b5f602082019050610f715f830184610f4f565b92915050565b7f4e487b71000000000000000000000000000000000000000000000000000000005f52603260045260245ffd5b610fad81610c92565b8114610fb7575f80fd5b50565b5f81359050610fc881610fa4565b92915050565b5f60208284031215610fe357610fe2610c0a565b5b5f610ff084828501610fba565b91505092915050565b5f601f19601f8301169050919050565b7f4e487b71000000000000000000000000000000000000000000000000000000005f52604160045260245ffd5b61103f82610ff9565b810181811067ffffffffffffffff8211171561105e5761105d611009565b5b80604052505050565b5f611070610c01565b905061107c8282611036565b919050565b5f67ffffffffffffffff82111561109b5761109a611009565b5b602082029050602081019050919050565b5f6110be6110b984611081565b611067565b905080838252602082019050602084028301858111156110e1576110e0610ccd565b5b835b8181101561110a57806110f68882610edf565b8452602084019350506020810190506110e3565b5050509392505050565b5f82601f83011261112857611127610cc5565b5b81356111388482602086016110ac565b91505092915050565b5f6020828403121561115657611155610c0a565b5b5f82013567ffffffffffffffff81111561117357611172610c0e565b5b61117f84828501611114565b91505092915050565b5f61119282610e99565b9050919050565b6111a281611188565b81146111ac575f80fd5b50565b5f813590506111bd81611199565b92915050565b5f819050919050565b6111d5816111c3565b81146111df575f80fd5b50565b5f813590506111f0816111cc565b92915050565b5f80fd5b5f67ffffffffffffffff82111561121457611213611009565b5b61121d82610ff9565b9050602081019050919050565b828183375f83830152505050565b5f61124a611245846111fa565b611067565b905082815260208101848484011115611266576112656111f6565b5b61127184828561122a565b509392505050565b5f82601f83011261128d5761128c610cc5565b5b813561129d848260208601611238565b91505092915050565b5f805f606084860312156112bd576112bc610c0a565b5b5f6112ca868287016111af565b93505060206112db868287016111e2565b925050604084013567ffffffffffffffff8111156112fc576112fb610c0e565b5b61130886828701611279565b9150509250925092565b61131b816111c3565b82525050565b5f81519050919050565b5f82825260208201905092915050565b8281835e5f83830152505050565b5f61135382611321565b61135d818561132b565b935061136d81856020860161133b565b61137681610ff9565b840191505092915050565b5f6060820190506113945f830186610f1e565b6113a16020830185611312565b81810360408301526113b38184611349565b905094935050505056fea26469706673582212206aad4092c7c647db036a949f561fbf4317a9548ae52c4b16f918e118bf57579864736f6c63430008190033",
  "linkReferences": {},
  "deployedLinkReferences": {}
}