{
  "_format": "hh-sol-artifact-1",
  "contractName": "SignerValidator",
  "sourceName": "contracts/validators/SignerValidator.sol",
  "abi": [
    {
      "inputs": [],
      "stateMutability": "nonpayable",
      "type": "constructor"
    },
    {
      "inputs": [],
      "name": "AlreadyInitialized",
      "type": "error"
    },
    {
      "inputs": [],
      "name": "CloneAlreadyInitialized",
      "type": "error"
    },
    {
      "inputs": [],
      "name": "InitializerNotImplemented",
      "type": "error"
    },
    {
      "inputs": [],
      "name": "InvalidInitialization",
      "type": "error"
    },
    {
      "inputs": [],
      "name": "InvalidInitializationData",
      "type": "error"
    },
    {
      "inputs": [],
      "name": "LengthMismatch",
      "type": "error"
    },
    {
      "inputs": [],
      "name": "NewOwnerIsZeroAddress",
      "type": "error"
    },
    {
      "inputs": [],
      "name": "NoHandoverRequest",
      "type": "error"
    },
    {
      "inputs": [],
      "name": "NotInitializing",
      "type": "error"
    },
    {
      "inputs": [
        {
          "internalType": "address",
          "name": "signer",
          "type": "address"
        },
        {
          "internalType": "bytes32",
          "name": "hash",
          "type": "bytes32"
        },
        {
          "internalType": "bytes",
          "name": "signature",
          "type": "bytes"
        }
      ],
      "name": "Replayed",
      "type": "error"
    },
    {
      "inputs": [],
      "name": "Unauthorized",
      "type": "error"
    },
    {
      "inputs": [],
      "name": "Unauthorized",
      "type": "error"
    },
    {
      "anonymous": false,
      "inputs": [
        {
          "indexed": false,
          "internalType": "uint64",
          "name": "version",
          "type": "uint64"
        }
      ],
      "name": "Initialized",
      "type": "event"
    },
    {
      "anonymous": false,
      "inputs": [
        {
          "indexed": true,
          "internalType": "address",
          "name": "pendingOwner",
          "type": "address"
        }
      ],
      "name": "OwnershipHandoverCanceled",
      "type": "event"
    },
    {
      "anonymous": false,
      "inputs": [
        {
          "indexed": true,
          "internalType": "address",
          "name": "pendingOwner",
          "type": "address"
        }
      ],
      "name": "OwnershipHandoverRequested",
      "type": "event"
    },
    {
      "anonymous": false,
      "inputs": [
        {
          "indexed": true,
          "internalType": "address",
          "name": "oldOwner",
          "type": "address"
        },
        {
          "indexed": true,
          "internalType": "address",
          "name": "newOwner",
          "type": "address"
        }
      ],
      "name": "OwnershipTransferred",
      "type": "event"
    },
    {
      "inputs": [],
      "name": "cancelOwnershipHandover",
      "outputs": [],
      "stateMutability": "payable",
      "type": "function"
    },
    {
      "inputs": [
        {
          "internalType": "address",
          "name": "pendingOwner",
          "type": "address"
        }
      ],
      "name": "completeOwnershipHandover",
      "outputs": [],
      "stateMutability": "payable",
      "type": "function"
    },
    {
      "inputs": [
        {
          "internalType": "bytes",
          "name": "data_",
          "type": "bytes"
        }
      ],
      "name": "initialize",
      "outputs": [],
      "stateMutability": "nonpayable",
      "type": "function"
    },
    {
      "inputs": [],
      "name": "interfaceName",
      "outputs": [
        {
          "internalType": "string",
          "name": "",
          "type": "string"
        }
      ],
      "stateMutability": "pure",
      "type": "function"
    },
    {
      "inputs": [],
      "name": "owner",
      "outputs": [
        {
          "internalType": "address",
          "name": "result",
          "type": "address"
        }
      ],
      "stateMutability": "view",
      "type": "function"
    },
    {
      "inputs": [
        {
          "internalType": "address",
          "name": "pendingOwner",
          "type": "address"
        }
      ],
      "name": "ownershipHandoverExpiresAt",
      "outputs": [
        {
          "internalType": "uint256",
          "name": "result",
          "type": "uint256"
        }
      ],
      "stateMutability": "view",
      "type": "function"
    },
    {
      "inputs": [],
      "name": "renounceOwnership",
      "outputs": [],
      "stateMutability": "payable",
      "type": "function"
    },
    {
      "inputs": [],
      "name": "requestOwnershipHandover",
      "outputs": [],
      "stateMutability": "payable",
      "type": "function"
    },
    {
      "inputs": [
        {
          "internalType": "address[]",
          "name": "signers_",
          "type": "address[]"
        },
        {
          "internalType": "bool[]",
          "name": "authorized_",
          "type": "bool[]"
        }
      ],
      "name": "setAuthorized",
      "outputs": [],
      "stateMutability": "nonpayable",
      "type": "function"
    },
    {
      "inputs": [
        {
          "internalType": "address",
          "name": "",
          "type": "address"
        }
      ],
      "name": "signers",
      "outputs": [
        {
          "internalType": "bool",
          "name": "",
          "type": "bool"
        }
      ],
      "stateMutability": "view",
      "type": "function"
    },
    {
      "inputs": [
        {
          "internalType": "bytes4",
          "name": "interfaceId",
          "type": "bytes4"
        }
      ],
      "name": "supportsInterface",
      "outputs": [
        {
          "internalType": "bool",
          "name": "",
          "type": "bool"
        }
      ],
      "stateMutability": "view",
      "type": "function"
    },
    {
      "inputs": [
        {
          "internalType": "address",
          "name": "newOwner",
          "type": "address"
        }
      ],
      "name": "transferOwnership",
      "outputs": [],
      "stateMutability": "payable",
      "type": "function"
    },
    {
      "inputs": [
        {
          "internalType": "bytes",
          "name": "data_",
          "type": "bytes"
        }
      ],
      "name": "validate",
      "outputs": [
        {
          "internalType": "bool",
          "name": "",
          "type": "bool"
        }
      ],
      "stateMutability": "nonpayable",
      "type": "function"
    }
  ],
  "bytecode": "0x608060405234801561000f575f80fd5b5061001f3361003260201b60201c565b61002d61010e60201b60201c565b6101a7565b61004061017a60201b60201c565b156100b8577fffffffffffffffffffffffffffffffffffffffffffffffffffffffff7487392780541561007a57630dc149f05f526004601cfd5b8160601b60601c9150811560ff1b82178155815f7f8be0079c531659141344cd1fd0a4f28419497f9722a3daafe3b4186f6b6457e05f80a35061010b565b8060601b60601c9050807fffffffffffffffffffffffffffffffffffffffffffffffffffffffff7487392755805f7f8be0079c531659141344cd1fd0a4f28419497f9722a3daafe3b4186f6b6457e05f80a35b50565b5f61011d61017e60201b60201c565b9050805460018116156101375763f92ee8a95f526004601cfd5b8160c01c808260011c14610175578060011b8355806020527fc7f505b2f371ae2175ee4913f4499e1f2633a7b5936321eed1cdaeb6115181d2602080a15b505050565b5f90565b5f7fffffffffffffffffffffffffffffffffffffffffffffffffffffffffbf6011325f1b905090565b6114e7806101b45f395ff3fe6080604052600436106100c1575f3560e01c8063715018a61161007e578063c16e50ef11610058578063c16e50ef146101ff578063f04e283e1461023b578063f2fde38b14610257578063fee81cf414610273576100c1565b8063715018a61461018f578063736c0d5b146101995780638da5cb5b146101d5576100c1565b806301ffc9a7146100c557806325692962146101015780634359d28a1461010b578063439fab911461013357806354d1f13d1461015b5780636e441e4c14610165575b5f80fd5b3480156100d0575f80fd5b506100eb60048036038101906100e69190610ce9565b6102af565b6040516100f89190610d2e565b60405180910390f35b610109610328565b005b348015610116575f80fd5b50610131600480360381019061012c9190610dfd565b610379565b005b34801561013e575f80fd5b5061015960048036038101906101549190610ed0565b610482565b005b6101636105b5565b005b348015610170575f80fd5b506101796105ee565b6040516101869190610f8b565b60405180910390f35b61019761062b565b005b3480156101a4575f80fd5b506101bf60048036038101906101ba9190611005565b61063e565b6040516101cc9190610d2e565b60405180910390f35b3480156101e0575f80fd5b506101e961065a565b6040516101f6919061103f565b60405180910390f35b34801561020a575f80fd5b5061022560048036038101906102209190610ed0565b610682565b6040516102329190610d2e565b60405180910390f35b61025560048036038101906102509190611005565b6107e4565b005b610271600480360381019061026c9190611005565b610822565b005b34801561027e575f80fd5b5061029960048036038101906102949190611005565b61084b565b6040516102a69190611070565b60405180910390f35b5f7fc0919948000000000000000000000000000000000000000000000000000000007bffffffffffffffffffffffffffffffffffffffffffffffffffffffff1916827bffffffffffffffffffffffffffffffffffffffffffffffffffffffff19161480610321575061032082610864565b5b9050919050565b5f6103316108dd565b67ffffffffffffffff164201905063389a75e1600c52335f52806020600c2055337fdbf36a107da19e49527a7176a1babf963b4b0ff8cde35ee35d6cd8f1f9ac7e1d5f80a250565b6103816108e7565b8181905084849050146103c0576040517fff633a3800000000000000000000000000000000000000000000000000000000815260040160405180910390fd5b5f5b8484905081101561047b578282828181106103e0576103df611089565b5b90506020020160208101906103f591906110e0565b5f8087878581811061040a57610409611089565b5b905060200201602081019061041f9190611005565b73ffffffffffffffffffffffffffffffffffffffff1673ffffffffffffffffffffffffffffffffffffffff1681526020019081526020015f205f6101000a81548160ff02191690831515021790555080806001019150506103c2565b5050505050565b5f61048b61091e565b905080546003825580156104bd5760018160011c14303b106104b45763f92ee8a95f526004601cfd5b818160ff1b1b91505b505f83838101906104ce9190611243565b90506104f3815f815181106104e6576104e5611089565b5b6020026020010151610947565b5f5b81518110156105795760015f8084848151811061051557610514611089565b5b602002602001015173ffffffffffffffffffffffffffffffffffffffff1673ffffffffffffffffffffffffffffffffffffffff1681526020019081526020015f205f6101000a81548160ff02191690831515021790555080806001019150506104f5565b505080156105b0576002815560016020527fc7f505b2f371ae2175ee4913f4499e1f2633a7b5936321eed1cdaeb6115181d2602080a15b505050565b63389a75e1600c52335f525f6020600c2055337ffa7b8eab7da67f412cc9575ed43464468f9bfbae89d1675917346ca6d8fe3c925f80a2565b60606040518060400160405280600f81526020017f5369676e657256616c696461746f720000000000000000000000000000000000815250905090565b6106336108e7565b61063c5f610a1d565b565b5f602052805f5260405f205f915054906101000a900460ff1681565b5f7fffffffffffffffffffffffffffffffffffffffffffffffffffffffff7487392754905090565b5f805f80858581019061069591906113a8565b9250925092505f808473ffffffffffffffffffffffffffffffffffffffff1673ffffffffffffffffffffffffffffffffffffffff1681526020019081526020015f205f9054906101000a900460ff1661071a576040517f82b4290000000000000000000000000000000000000000000000000000000000815260040160405180910390fd5b60015f8381526020019081526020015f205f9054906101000a900460ff161561077e578282826040517fcde6ac8700000000000000000000000000000000000000000000000000000000815260040161077593929190611475565b60405180910390fd5b6001805f8481526020019081526020015f205f6101000a81548160ff0219169083151502179055506107d96107b283610ae3565b828573ffffffffffffffffffffffffffffffffffffffff16610b139092919063ffffffff16565b935050505092915050565b6107ec6108e7565b63389a75e1600c52805f526020600c20805442111561081257636f5e88185f526004601cfd5b5f81555061081f81610a1d565b50565b61082a6108e7565b8060601b61083f57637448fbae5f526004601cfd5b61084881610a1d565b50565b5f63389a75e1600c52815f526020600c20549050919050565b5f7f2c247c7a000000000000000000000000000000000000000000000000000000007bffffffffffffffffffffffffffffffffffffffffffffffffffffffff1916827bffffffffffffffffffffffffffffffffffffffffffffffffffffffff191614806108d657506108d582610c16565b5b9050919050565b5f6202a300905090565b7fffffffffffffffffffffffffffffffffffffffffffffffffffffffff7487392754331461091c576382b429005f526004601cfd5b565b5f7fffffffffffffffffffffffffffffffffffffffffffffffffffffffffbf6011325f1b905090565b61094f610c7f565b156109c7577fffffffffffffffffffffffffffffffffffffffffffffffffffffffff7487392780541561098957630dc149f05f526004601cfd5b8160601b60601c9150811560ff1b82178155815f7f8be0079c531659141344cd1fd0a4f28419497f9722a3daafe3b4186f6b6457e05f80a350610a1a565b8060601b60601c9050807fffffffffffffffffffffffffffffffffffffffffffffffffffffffff7487392755805f7f8be0079c531659141344cd1fd0a4f28419497f9722a3daafe3b4186f6b6457e05f80a35b50565b610a25610c7f565b15610a8a577fffffffffffffffffffffffffffffffffffffffffffffffffffffffff748739278160601b60601c91508181547f8be0079c531659141344cd1fd0a4f28419497f9722a3daafe3b4186f6b6457e05f80a3811560ff1b8217815550610ae0565b7fffffffffffffffffffffffffffffffffffffffffffffffffffffffff748739278160601b60601c91508181547f8be0079c531659141344cd1fd0a4f28419497f9722a3daafe3b4186f6b6457e05f80a3818155505b50565b5f816020527b19457468657265756d205369676e6564204d6573736167653a0a33325f52603c6004209050919050565b5f8360601b60601c93508315610c0f57604051835f5260208301516040526040835103610b80576040830151601b8160ff1c016020528060011b60011c6060526020600160805f60015afa805187183d1517610b7d57600193505f60605282604052505050610c0f565b50505b6041835103610bc65760608301515f1a60205260408301516060526020600160805f60015afa805186183d1517610bc457600192505f606052816040525050610c0f565b505b5f60605280604052631626ba7e60e01b808252846004830152602482016040815284516020018060448501828860045afa5060208260443d01868b5afa83835114169450505050505b9392505050565b5f7f01ffc9a7000000000000000000000000000000000000000000000000000000007bffffffffffffffffffffffffffffffffffffffffffffffffffffffff1916827bffffffffffffffffffffffffffffffffffffffffffffffffffffffff1916149050919050565b5f90565b5f604051905090565b5f80fd5b5f80fd5b5f7fffffffff0000000000000000000000000000000000000000000000000000000082169050919050565b610cc881610c94565b8114610cd2575f80fd5b50565b5f81359050610ce381610cbf565b92915050565b5f60208284031215610cfe57610cfd610c8c565b5b5f610d0b84828501610cd5565b91505092915050565b5f8115159050919050565b610d2881610d14565b82525050565b5f602082019050610d415f830184610d1f565b92915050565b5f80fd5b5f80fd5b5f80fd5b5f8083601f840112610d6857610d67610d47565b5b8235905067ffffffffffffffff811115610d8557610d84610d4b565b5b602083019150836020820283011115610da157610da0610d4f565b5b9250929050565b5f8083601f840112610dbd57610dbc610d47565b5b8235905067ffffffffffffffff811115610dda57610dd9610d4b565b5b602083019150836020820283011115610df657610df5610d4f565b5b9250929050565b5f805f8060408587031215610e1557610e14610c8c565b5b5f85013567ffffffffffffffff811115610e3257610e31610c90565b5b610e3e87828801610d53565b9450945050602085013567ffffffffffffffff811115610e6157610e60610c90565b5b610e6d87828801610da8565b925092505092959194509250565b5f8083601f840112610e9057610e8f610d47565b5b8235905067ffffffffffffffff811115610ead57610eac610d4b565b5b602083019150836001820283011115610ec957610ec8610d4f565b5b9250929050565b5f8060208385031215610ee657610ee5610c8c565b5b5f83013567ffffffffffffffff811115610f0357610f02610c90565b5b610f0f85828601610e7b565b92509250509250929050565b5f81519050919050565b5f82825260208201905092915050565b8281835e5f83830152505050565b5f601f19601f8301169050919050565b5f610f5d82610f1b565b610f678185610f25565b9350610f77818560208601610f35565b610f8081610f43565b840191505092915050565b5f6020820190508181035f830152610fa38184610f53565b905092915050565b5f73ffffffffffffffffffffffffffffffffffffffff82169050919050565b5f610fd482610fab565b9050919050565b610fe481610fca565b8114610fee575f80fd5b50565b5f81359050610fff81610fdb565b92915050565b5f6020828403121561101a57611019610c8c565b5b5f61102784828501610ff1565b91505092915050565b61103981610fca565b82525050565b5f6020820190506110525f830184611030565b92915050565b5f819050919050565b61106a81611058565b82525050565b5f6020820190506110835f830184611061565b92915050565b7f4e487b71000000000000000000000000000000000000000000000000000000005f52603260045260245ffd5b6110bf81610d14565b81146110c9575f80fd5b50565b5f813590506110da816110b6565b92915050565b5f602082840312156110f5576110f4610c8c565b5b5f611102848285016110cc565b91505092915050565b7f4e487b71000000000000000000000000000000000000000000000000000000005f52604160045260245ffd5b61114182610f43565b810181811067ffffffffffffffff821117156111605761115f61110b565b5b80604052505050565b5f611172610c83565b905061117e8282611138565b919050565b5f67ffffffffffffffff82111561119d5761119c61110b565b5b602082029050602081019050919050565b5f6111c06111bb84611183565b611169565b905080838252602082019050602084028301858111156111e3576111e2610d4f565b5b835b8181101561120c57806111f88882610ff1565b8452602084019350506020810190506111e5565b5050509392505050565b5f82601f83011261122a57611229610d47565b5b813561123a8482602086016111ae565b91505092915050565b5f6020828403121561125857611257610c8c565b5b5f82013567ffffffffffffffff81111561127557611274610c90565b5b61128184828501611216565b91505092915050565b5f61129482610fab565b9050919050565b6112a48161128a565b81146112ae575f80fd5b50565b5f813590506112bf8161129b565b92915050565b5f819050919050565b6112d7816112c5565b81146112e1575f80fd5b50565b5f813590506112f2816112ce565b92915050565b5f80fd5b5f67ffffffffffffffff8211156113165761131561110b565b5b61131f82610f43565b9050602081019050919050565b828183375f83830152505050565b5f61134c611347846112fc565b611169565b905082815260208101848484011115611368576113676112f8565b5b61137384828561132c565b509392505050565b5f82601f83011261138f5761138e610d47565b5b813561139f84826020860161133a565b91505092915050565b5f805f606084860312156113bf576113be610c8c565b5b5f6113cc868287016112b1565b93505060206113dd868287016112e4565b925050604084013567ffffffffffffffff8111156113fe576113fd610c90565b5b61140a8682870161137b565b9150509250925092565b61141d816112c5565b82525050565b5f81519050919050565b5f82825260208201905092915050565b5f61144782611423565b611451818561142d565b9350611461818560208601610f35565b61146a81610f43565b840191505092915050565b5f6060820190506114885f830186611030565b6114956020830185611414565b81810360408301526114a7818461143d565b905094935050505056fea2646970667358221220d643c3ee046c45832efe9ac69a02220eecadc1580d2bcee51dfc4fe5b781d9a564736f6c63430008190033",
  "linkReferences": {},
  "deployedLinkReferences": {}
}