{
  "_format": "hh-sol-artifact-1",
  "contractName": "SignerValidator",
  "sourceName": "contracts/validators/SignerValidator.sol",
  "abi": [
    {
      "inputs": [],
      "stateMutability": "nonpayable",
      "type": "constructor"
    },
    {
      "inputs": [],
      "name": "AlreadyInitialized",
      "type": "error"
    },
    {
      "inputs": [],
      "name": "CloneAlreadyInitialized",
      "type": "error"
    },
    {
      "inputs": [],
      "name": "InitializerNotImplemented",
      "type": "error"
    },
    {
      "inputs": [],
      "name": "InvalidInitialization",
      "type": "error"
    },
    {
      "inputs": [],
      "name": "InvalidInitializationData",
      "type": "error"
    },
    {
      "inputs": [],
      "name": "LengthMismatch",
      "type": "error"
    },
    {
      "inputs": [],
      "name": "NewOwnerIsZeroAddress",
      "type": "error"
    },
    {
      "inputs": [],
      "name": "NoHandoverRequest",
      "type": "error"
    },
    {
      "inputs": [],
      "name": "NotInitializing",
      "type": "error"
    },
    {
      "inputs": [
        {
          "internalType": "address",
          "name": "signer",
          "type": "address"
        },
        {
          "internalType": "bytes32",
          "name": "hash",
          "type": "bytes32"
        },
        {
          "internalType": "bytes",
          "name": "signature",
          "type": "bytes"
        }
      ],
      "name": "Replayed",
      "type": "error"
    },
    {
      "inputs": [],
      "name": "Unauthorized",
      "type": "error"
    },
    {
      "inputs": [],
      "name": "Unauthorized",
      "type": "error"
    },
    {
      "anonymous": false,
      "inputs": [
        {
          "indexed": false,
          "internalType": "uint64",
          "name": "version",
          "type": "uint64"
        }
      ],
      "name": "Initialized",
      "type": "event"
    },
    {
      "anonymous": false,
      "inputs": [
        {
          "indexed": true,
          "internalType": "address",
          "name": "pendingOwner",
          "type": "address"
        }
      ],
      "name": "OwnershipHandoverCanceled",
      "type": "event"
    },
    {
      "anonymous": false,
      "inputs": [
        {
          "indexed": true,
          "internalType": "address",
          "name": "pendingOwner",
          "type": "address"
        }
      ],
      "name": "OwnershipHandoverRequested",
      "type": "event"
    },
    {
      "anonymous": false,
      "inputs": [
        {
          "indexed": true,
          "internalType": "address",
          "name": "oldOwner",
          "type": "address"
        },
        {
          "indexed": true,
          "internalType": "address",
          "name": "newOwner",
          "type": "address"
        }
      ],
      "name": "OwnershipTransferred",
      "type": "event"
    },
    {
      "inputs": [],
      "name": "cancelOwnershipHandover",
      "outputs": [],
      "stateMutability": "payable",
      "type": "function"
    },
    {
      "inputs": [
        {
          "internalType": "address",
          "name": "pendingOwner",
          "type": "address"
        }
      ],
      "name": "completeOwnershipHandover",
      "outputs": [],
      "stateMutability": "payable",
      "type": "function"
    },
    {
      "inputs": [],
      "name": "getComponentInterface",
      "outputs": [
        {
          "internalType": "bytes4",
          "name": "",
          "type": "bytes4"
        }
      ],
      "stateMutability": "pure",
      "type": "function"
    },
    {
      "inputs": [
        {
          "internalType": "bytes",
          "name": "data_",
          "type": "bytes"
        }
      ],
      "name": "initialize",
      "outputs": [],
      "stateMutability": "nonpayable",
      "type": "function"
    },
    {
      "inputs": [],
      "name": "owner",
      "outputs": [
        {
          "internalType": "address",
          "name": "result",
          "type": "address"
        }
      ],
      "stateMutability": "view",
      "type": "function"
    },
    {
      "inputs": [
        {
          "internalType": "address",
          "name": "pendingOwner",
          "type": "address"
        }
      ],
      "name": "ownershipHandoverExpiresAt",
      "outputs": [
        {
          "internalType": "uint256",
          "name": "result",
          "type": "uint256"
        }
      ],
      "stateMutability": "view",
      "type": "function"
    },
    {
      "inputs": [],
      "name": "renounceOwnership",
      "outputs": [],
      "stateMutability": "payable",
      "type": "function"
    },
    {
      "inputs": [],
      "name": "requestOwnershipHandover",
      "outputs": [],
      "stateMutability": "payable",
      "type": "function"
    },
    {
      "inputs": [
        {
          "internalType": "address[]",
          "name": "signers_",
          "type": "address[]"
        },
        {
          "internalType": "bool[]",
          "name": "authorized_",
          "type": "bool[]"
        }
      ],
      "name": "setAuthorized",
      "outputs": [],
      "stateMutability": "nonpayable",
      "type": "function"
    },
    {
      "inputs": [
        {
          "internalType": "address",
          "name": "",
          "type": "address"
        }
      ],
      "name": "signers",
      "outputs": [
        {
          "internalType": "bool",
          "name": "",
          "type": "bool"
        }
      ],
      "stateMutability": "view",
      "type": "function"
    },
    {
      "inputs": [
        {
          "internalType": "bytes4",
          "name": "interfaceId",
          "type": "bytes4"
        }
      ],
      "name": "supportsInterface",
      "outputs": [
        {
          "internalType": "bool",
          "name": "",
          "type": "bool"
        }
      ],
      "stateMutability": "view",
      "type": "function"
    },
    {
      "inputs": [
        {
          "internalType": "address",
          "name": "newOwner",
          "type": "address"
        }
      ],
      "name": "transferOwnership",
      "outputs": [],
      "stateMutability": "payable",
      "type": "function"
    },
    {
      "inputs": [
        {
          "internalType": "bytes",
          "name": "data_",
          "type": "bytes"
        }
      ],
      "name": "validate",
      "outputs": [
        {
          "internalType": "bool",
          "name": "",
          "type": "bool"
        }
      ],
      "stateMutability": "nonpayable",
      "type": "function"
    }
  ],
  "bytecode": "0x608060405234801561000f575f80fd5b5061001f3361003260201b60201c565b61002d61010e60201b60201c565b6101a7565b61004061017a60201b60201c565b156100b8577fffffffffffffffffffffffffffffffffffffffffffffffffffffffff7487392780541561007a57630dc149f05f526004601cfd5b8160601b60601c9150811560ff1b82178155815f7f8be0079c531659141344cd1fd0a4f28419497f9722a3daafe3b4186f6b6457e05f80a35061010b565b8060601b60601c9050807fffffffffffffffffffffffffffffffffffffffffffffffffffffffff7487392755805f7f8be0079c531659141344cd1fd0a4f28419497f9722a3daafe3b4186f6b6457e05f80a35b50565b5f61011d61017e60201b60201c565b9050805460018116156101375763f92ee8a95f526004601cfd5b8160c01c808260011c14610175578060011b8355806020527fc7f505b2f371ae2175ee4913f4499e1f2633a7b5936321eed1cdaeb6115181d2602080a15b505050565b5f90565b5f7fffffffffffffffffffffffffffffffffffffffffffffffffffffffffbf6011325f1b905090565b611487806101b45f395ff3fe6080604052600436106100c1575f3560e01c8063715018a61161007e578063c16e50ef11610058578063c16e50ef146101ff578063f04e283e1461023b578063f2fde38b14610257578063fee81cf414610273576100c1565b8063715018a61461018f578063736c0d5b146101995780638da5cb5b146101d5576100c1565b806301ffc9a7146100c5578063256929621461010157806328d6183b1461010b5780634359d28a14610135578063439fab911461015d57806354d1f13d14610185575b5f80fd5b3480156100d0575f80fd5b506100eb60048036038101906100e69190610cd3565b6102af565b6040516100f89190610d18565b60405180910390f35b610109610328565b005b348015610116575f80fd5b5061011f610379565b60405161012c9190610d40565b60405180910390f35b348015610140575f80fd5b5061015b60048036038101906101569190610e0f565b6103a0565b005b348015610168575f80fd5b50610183600480360381019061017e9190610ee2565b6104a9565b005b61018d6105dc565b005b610197610615565b005b3480156101a4575f80fd5b506101bf60048036038101906101ba9190610f87565b610628565b6040516101cc9190610d18565b60405180910390f35b3480156101e0575f80fd5b506101e9610644565b6040516101f69190610fc1565b60405180910390f35b34801561020a575f80fd5b5061022560048036038101906102209190610ee2565b61066c565b6040516102329190610d18565b60405180910390f35b61025560048036038101906102509190610f87565b6107ce565b005b610271600480360381019061026c9190610f87565b61080c565b005b34801561027e575f80fd5b5061029960048036038101906102949190610f87565b610835565b6040516102a69190610ff2565b60405180910390f35b5f7fe8478173000000000000000000000000000000000000000000000000000000007bffffffffffffffffffffffffffffffffffffffffffffffffffffffff1916827bffffffffffffffffffffffffffffffffffffffffffffffffffffffff1916148061032157506103208261084e565b5b9050919050565b5f6103316108c7565b67ffffffffffffffff164201905063389a75e1600c52335f52806020600c2055337fdbf36a107da19e49527a7176a1babf963b4b0ff8cde35ee35d6cd8f1f9ac7e1d5f80a250565b5f7fe847817300000000000000000000000000000000000000000000000000000000905090565b6103a86108d1565b8181905084849050146103e7576040517fff633a3800000000000000000000000000000000000000000000000000000000815260040160405180910390fd5b5f5b848490508110156104a2578282828181106104075761040661100b565b5b905060200201602081019061041c9190611062565b5f808787858181106104315761043061100b565b5b90506020020160208101906104469190610f87565b73ffffffffffffffffffffffffffffffffffffffff1673ffffffffffffffffffffffffffffffffffffffff1681526020019081526020015f205f6101000a81548160ff02191690831515021790555080806001019150506103e9565b5050505050565b5f6104b2610908565b905080546003825580156104e45760018160011c14303b106104db5763f92ee8a95f526004601cfd5b818160ff1b1b91505b505f83838101906104f591906111d5565b905061051a815f8151811061050d5761050c61100b565b5b6020026020010151610931565b5f5b81518110156105a05760015f8084848151811061053c5761053b61100b565b5b602002602001015173ffffffffffffffffffffffffffffffffffffffff1673ffffffffffffffffffffffffffffffffffffffff1681526020019081526020015f205f6101000a81548160ff021916908315150217905550808060010191505061051c565b505080156105d7576002815560016020527fc7f505b2f371ae2175ee4913f4499e1f2633a7b5936321eed1cdaeb6115181d2602080a15b505050565b63389a75e1600c52335f525f6020600c2055337ffa7b8eab7da67f412cc9575ed43464468f9bfbae89d1675917346ca6d8fe3c925f80a2565b61061d6108d1565b6106265f610a07565b565b5f602052805f5260405f205f915054906101000a900460ff1681565b5f7fffffffffffffffffffffffffffffffffffffffffffffffffffffffff7487392754905090565b5f805f80858581019061067f919061133a565b9250925092505f808473ffffffffffffffffffffffffffffffffffffffff1673ffffffffffffffffffffffffffffffffffffffff1681526020019081526020015f205f9054906101000a900460ff16610704576040517f82b4290000000000000000000000000000000000000000000000000000000000815260040160405180910390fd5b60015f8381526020019081526020015f205f9054906101000a900460ff1615610768578282826040517fcde6ac8700000000000000000000000000000000000000000000000000000000815260040161075f93929190611415565b60405180910390fd5b6001805f8481526020019081526020015f205f6101000a81548160ff0219169083151502179055506107c361079c83610acd565b828573ffffffffffffffffffffffffffffffffffffffff16610afd9092919063ffffffff16565b935050505092915050565b6107d66108d1565b63389a75e1600c52805f526020600c2080544211156107fc57636f5e88185f526004601cfd5b5f81555061080981610a07565b50565b6108146108d1565b8060601b61082957637448fbae5f526004601cfd5b61083281610a07565b50565b5f63389a75e1600c52815f526020600c20549050919050565b5f7f42606236000000000000000000000000000000000000000000000000000000007bffffffffffffffffffffffffffffffffffffffffffffffffffffffff1916827bffffffffffffffffffffffffffffffffffffffffffffffffffffffff191614806108c057506108bf82610c00565b5b9050919050565b5f6202a300905090565b7fffffffffffffffffffffffffffffffffffffffffffffffffffffffff74873927543314610906576382b429005f526004601cfd5b565b5f7fffffffffffffffffffffffffffffffffffffffffffffffffffffffffbf6011325f1b905090565b610939610c69565b156109b1577fffffffffffffffffffffffffffffffffffffffffffffffffffffffff7487392780541561097357630dc149f05f526004601cfd5b8160601b60601c9150811560ff1b82178155815f7f8be0079c531659141344cd1fd0a4f28419497f9722a3daafe3b4186f6b6457e05f80a350610a04565b8060601b60601c9050807fffffffffffffffffffffffffffffffffffffffffffffffffffffffff7487392755805f7f8be0079c531659141344cd1fd0a4f28419497f9722a3daafe3b4186f6b6457e05f80a35b50565b610a0f610c69565b15610a74577fffffffffffffffffffffffffffffffffffffffffffffffffffffffff748739278160601b60601c91508181547f8be0079c531659141344cd1fd0a4f28419497f9722a3daafe3b4186f6b6457e05f80a3811560ff1b8217815550610aca565b7fffffffffffffffffffffffffffffffffffffffffffffffffffffffff748739278160601b60601c91508181547f8be0079c531659141344cd1fd0a4f28419497f9722a3daafe3b4186f6b6457e05f80a3818155505b50565b5f816020527b19457468657265756d205369676e6564204d6573736167653a0a33325f52603c6004209050919050565b5f8360601b60601c93508315610bf957604051835f5260208301516040526040835103610b6a576040830151601b8160ff1c016020528060011b60011c6060526020600160805f60015afa805187183d1517610b6757600193505f60605282604052505050610bf9565b50505b6041835103610bb05760608301515f1a60205260408301516060526020600160805f60015afa805186183d1517610bae57600192505f606052816040525050610bf9565b505b5f60605280604052631626ba7e60e01b808252846004830152602482016040815284516020018060448501828860045afa5060208260443d01868b5afa83835114169450505050505b9392505050565b5f7f01ffc9a7000000000000000000000000000000000000000000000000000000007bffffffffffffffffffffffffffffffffffffffffffffffffffffffff1916827bffffffffffffffffffffffffffffffffffffffffffffffffffffffff1916149050919050565b5f90565b5f604051905090565b5f80fd5b5f80fd5b5f7fffffffff0000000000000000000000000000000000000000000000000000000082169050919050565b610cb281610c7e565b8114610cbc575f80fd5b50565b5f81359050610ccd81610ca9565b92915050565b5f60208284031215610ce857610ce7610c76565b5b5f610cf584828501610cbf565b91505092915050565b5f8115159050919050565b610d1281610cfe565b82525050565b5f602082019050610d2b5f830184610d09565b92915050565b610d3a81610c7e565b82525050565b5f602082019050610d535f830184610d31565b92915050565b5f80fd5b5f80fd5b5f80fd5b5f8083601f840112610d7a57610d79610d59565b5b8235905067ffffffffffffffff811115610d9757610d96610d5d565b5b602083019150836020820283011115610db357610db2610d61565b5b9250929050565b5f8083601f840112610dcf57610dce610d59565b5b8235905067ffffffffffffffff811115610dec57610deb610d5d565b5b602083019150836020820283011115610e0857610e07610d61565b5b9250929050565b5f805f8060408587031215610e2757610e26610c76565b5b5f85013567ffffffffffffffff811115610e4457610e43610c7a565b5b610e5087828801610d65565b9450945050602085013567ffffffffffffffff811115610e7357610e72610c7a565b5b610e7f87828801610dba565b925092505092959194509250565b5f8083601f840112610ea257610ea1610d59565b5b8235905067ffffffffffffffff811115610ebf57610ebe610d5d565b5b602083019150836001820283011115610edb57610eda610d61565b5b9250929050565b5f8060208385031215610ef857610ef7610c76565b5b5f83013567ffffffffffffffff811115610f1557610f14610c7a565b5b610f2185828601610e8d565b92509250509250929050565b5f73ffffffffffffffffffffffffffffffffffffffff82169050919050565b5f610f5682610f2d565b9050919050565b610f6681610f4c565b8114610f70575f80fd5b50565b5f81359050610f8181610f5d565b92915050565b5f60208284031215610f9c57610f9b610c76565b5b5f610fa984828501610f73565b91505092915050565b610fbb81610f4c565b82525050565b5f602082019050610fd45f830184610fb2565b92915050565b5f819050919050565b610fec81610fda565b82525050565b5f6020820190506110055f830184610fe3565b92915050565b7f4e487b71000000000000000000000000000000000000000000000000000000005f52603260045260245ffd5b61104181610cfe565b811461104b575f80fd5b50565b5f8135905061105c81611038565b92915050565b5f6020828403121561107757611076610c76565b5b5f6110848482850161104e565b91505092915050565b5f601f19601f8301169050919050565b7f4e487b71000000000000000000000000000000000000000000000000000000005f52604160045260245ffd5b6110d38261108d565b810181811067ffffffffffffffff821117156110f2576110f161109d565b5b80604052505050565b5f611104610c6d565b905061111082826110ca565b919050565b5f67ffffffffffffffff82111561112f5761112e61109d565b5b602082029050602081019050919050565b5f61115261114d84611115565b6110fb565b9050808382526020820190506020840283018581111561117557611174610d61565b5b835b8181101561119e578061118a8882610f73565b845260208401935050602081019050611177565b5050509392505050565b5f82601f8301126111bc576111bb610d59565b5b81356111cc848260208601611140565b91505092915050565b5f602082840312156111ea576111e9610c76565b5b5f82013567ffffffffffffffff81111561120757611206610c7a565b5b611213848285016111a8565b91505092915050565b5f61122682610f2d565b9050919050565b6112368161121c565b8114611240575f80fd5b50565b5f813590506112518161122d565b92915050565b5f819050919050565b61126981611257565b8114611273575f80fd5b50565b5f8135905061128481611260565b92915050565b5f80fd5b5f67ffffffffffffffff8211156112a8576112a761109d565b5b6112b18261108d565b9050602081019050919050565b828183375f83830152505050565b5f6112de6112d98461128e565b6110fb565b9050828152602081018484840111156112fa576112f961128a565b5b6113058482856112be565b509392505050565b5f82601f83011261132157611320610d59565b5b81356113318482602086016112cc565b91505092915050565b5f805f6060848603121561135157611350610c76565b5b5f61135e86828701611243565b935050602061136f86828701611276565b925050604084013567ffffffffffffffff8111156113905761138f610c7a565b5b61139c8682870161130d565b9150509250925092565b6113af81611257565b82525050565b5f81519050919050565b5f82825260208201905092915050565b8281835e5f83830152505050565b5f6113e7826113b5565b6113f181856113bf565b93506114018185602086016113cf565b61140a8161108d565b840191505092915050565b5f6060820190506114285f830186610fb2565b61143560208301856113a6565b818103604083015261144781846113dd565b905094935050505056fea2646970667358221220295f902ff709efc6c0e5abf4d8429bff37290204e2afc23c4fcd9cf97a3cd18164736f6c63430008190033",
  "linkReferences": {},
  "deployedLinkReferences": {}
}