{
  "_format": "hh-sol-artifact-1",
  "contractName": "ERC1155Incentive",
  "sourceName": "contracts/incentives/ERC1155Incentive.sol",
  "abi": [
    {
      "inputs": [],
      "stateMutability": "nonpayable",
      "type": "constructor"
    },
    {
      "inputs": [],
      "name": "AlreadyInitialized",
      "type": "error"
    },
    {
      "inputs": [],
      "name": "ClaimFailed",
      "type": "error"
    },
    {
      "inputs": [
        {
          "internalType": "address",
          "name": "caller",
          "type": "address"
        },
        {
          "internalType": "bytes",
          "name": "data",
          "type": "bytes"
        }
      ],
      "name": "ClaimFailed",
      "type": "error"
    },
    {
      "inputs": [],
      "name": "CloneAlreadyInitialized",
      "type": "error"
    },
    {
      "inputs": [],
      "name": "InitializerNotImplemented",
      "type": "error"
    },
    {
      "inputs": [
        {
          "internalType": "address",
          "name": "asset",
          "type": "address"
        },
        {
          "internalType": "uint256",
          "name": "available",
          "type": "uint256"
        },
        {
          "internalType": "uint256",
          "name": "required",
          "type": "uint256"
        }
      ],
      "name": "InsufficientFunds",
      "type": "error"
    },
    {
      "inputs": [],
      "name": "InvalidInitialization",
      "type": "error"
    },
    {
      "inputs": [],
      "name": "InvalidInitialization",
      "type": "error"
    },
    {
      "inputs": [],
      "name": "InvalidInitializationData",
      "type": "error"
    },
    {
      "inputs": [],
      "name": "NewOwnerIsZeroAddress",
      "type": "error"
    },
    {
      "inputs": [],
      "name": "NoHandoverRequest",
      "type": "error"
    },
    {
      "inputs": [],
      "name": "NotClaimable",
      "type": "error"
    },
    {
      "inputs": [],
      "name": "NotImplemented",
      "type": "error"
    },
    {
      "inputs": [],
      "name": "NotInitializing",
      "type": "error"
    },
    {
      "inputs": [],
      "name": "Reentrancy",
      "type": "error"
    },
    {
      "inputs": [],
      "name": "Unauthorized",
      "type": "error"
    },
    {
      "anonymous": false,
      "inputs": [
        {
          "indexed": true,
          "internalType": "address",
          "name": "recipient",
          "type": "address"
        },
        {
          "indexed": false,
          "internalType": "bytes",
          "name": "data",
          "type": "bytes"
        }
      ],
      "name": "Claimed",
      "type": "event"
    },
    {
      "anonymous": false,
      "inputs": [
        {
          "indexed": false,
          "internalType": "uint64",
          "name": "version",
          "type": "uint64"
        }
      ],
      "name": "Initialized",
      "type": "event"
    },
    {
      "anonymous": false,
      "inputs": [
        {
          "indexed": true,
          "internalType": "address",
          "name": "pendingOwner",
          "type": "address"
        }
      ],
      "name": "OwnershipHandoverCanceled",
      "type": "event"
    },
    {
      "anonymous": false,
      "inputs": [
        {
          "indexed": true,
          "internalType": "address",
          "name": "pendingOwner",
          "type": "address"
        }
      ],
      "name": "OwnershipHandoverRequested",
      "type": "event"
    },
    {
      "anonymous": false,
      "inputs": [
        {
          "indexed": true,
          "internalType": "address",
          "name": "oldOwner",
          "type": "address"
        },
        {
          "indexed": true,
          "internalType": "address",
          "name": "newOwner",
          "type": "address"
        }
      ],
      "name": "OwnershipTransferred",
      "type": "event"
    },
    {
      "inputs": [],
      "name": "asset",
      "outputs": [
        {
          "internalType": "contract IERC1155",
          "name": "",
          "type": "address"
        }
      ],
      "stateMutability": "view",
      "type": "function"
    },
    {
      "inputs": [],
      "name": "cancelOwnershipHandover",
      "outputs": [],
      "stateMutability": "payable",
      "type": "function"
    },
    {
      "inputs": [
        {
          "internalType": "bytes",
          "name": "data_",
          "type": "bytes"
        }
      ],
      "name": "claim",
      "outputs": [
        {
          "internalType": "bool",
          "name": "",
          "type": "bool"
        }
      ],
      "stateMutability": "nonpayable",
      "type": "function"
    },
    {
      "inputs": [
        {
          "internalType": "address",
          "name": "",
          "type": "address"
        }
      ],
      "name": "claimed",
      "outputs": [
        {
          "internalType": "bool",
          "name": "",
          "type": "bool"
        }
      ],
      "stateMutability": "view",
      "type": "function"
    },
    {
      "inputs": [],
      "name": "claims",
      "outputs": [
        {
          "internalType": "uint256",
          "name": "",
          "type": "uint256"
        }
      ],
      "stateMutability": "view",
      "type": "function"
    },
    {
      "inputs": [
        {
          "internalType": "address",
          "name": "pendingOwner",
          "type": "address"
        }
      ],
      "name": "completeOwnershipHandover",
      "outputs": [],
      "stateMutability": "payable",
      "type": "function"
    },
    {
      "inputs": [],
      "name": "currentReward",
      "outputs": [
        {
          "internalType": "uint256",
          "name": "",
          "type": "uint256"
        }
      ],
      "stateMutability": "view",
      "type": "function"
    },
    {
      "inputs": [],
      "name": "extraData",
      "outputs": [
        {
          "internalType": "bytes",
          "name": "",
          "type": "bytes"
        }
      ],
      "stateMutability": "view",
      "type": "function"
    },
    {
      "inputs": [],
      "name": "getComponentInterface",
      "outputs": [
        {
          "internalType": "bytes4",
          "name": "",
          "type": "bytes4"
        }
      ],
      "stateMutability": "pure",
      "type": "function"
    },
    {
      "inputs": [
        {
          "internalType": "bytes",
          "name": "data_",
          "type": "bytes"
        }
      ],
      "name": "initialize",
      "outputs": [],
      "stateMutability": "nonpayable",
      "type": "function"
    },
    {
      "inputs": [
        {
          "internalType": "bytes",
          "name": "data_",
          "type": "bytes"
        }
      ],
      "name": "isClaimable",
      "outputs": [
        {
          "internalType": "bool",
          "name": "",
          "type": "bool"
        }
      ],
      "stateMutability": "view",
      "type": "function"
    },
    {
      "inputs": [],
      "name": "limit",
      "outputs": [
        {
          "internalType": "uint256",
          "name": "",
          "type": "uint256"
        }
      ],
      "stateMutability": "view",
      "type": "function"
    },
    {
      "inputs": [
        {
          "internalType": "address",
          "name": "",
          "type": "address"
        },
        {
          "internalType": "address",
          "name": "",
          "type": "address"
        },
        {
          "internalType": "uint256[]",
          "name": "",
          "type": "uint256[]"
        },
        {
          "internalType": "uint256[]",
          "name": "",
          "type": "uint256[]"
        },
        {
          "internalType": "bytes",
          "name": "",
          "type": "bytes"
        }
      ],
      "name": "onERC1155BatchReceived",
      "outputs": [
        {
          "internalType": "bytes4",
          "name": "",
          "type": "bytes4"
        }
      ],
      "stateMutability": "pure",
      "type": "function"
    },
    {
      "inputs": [
        {
          "internalType": "address",
          "name": "",
          "type": "address"
        },
        {
          "internalType": "address",
          "name": "",
          "type": "address"
        },
        {
          "internalType": "uint256",
          "name": "",
          "type": "uint256"
        },
        {
          "internalType": "uint256",
          "name": "",
          "type": "uint256"
        },
        {
          "internalType": "bytes",
          "name": "",
          "type": "bytes"
        }
      ],
      "name": "onERC1155Received",
      "outputs": [
        {
          "internalType": "bytes4",
          "name": "",
          "type": "bytes4"
        }
      ],
      "stateMutability": "pure",
      "type": "function"
    },
    {
      "inputs": [],
      "name": "owner",
      "outputs": [
        {
          "internalType": "address",
          "name": "result",
          "type": "address"
        }
      ],
      "stateMutability": "view",
      "type": "function"
    },
    {
      "inputs": [
        {
          "internalType": "address",
          "name": "pendingOwner",
          "type": "address"
        }
      ],
      "name": "ownershipHandoverExpiresAt",
      "outputs": [
        {
          "internalType": "uint256",
          "name": "result",
          "type": "uint256"
        }
      ],
      "stateMutability": "view",
      "type": "function"
    },
    {
      "inputs": [
        {
          "internalType": "bytes",
          "name": "data_",
          "type": "bytes"
        }
      ],
      "name": "preflight",
      "outputs": [
        {
          "internalType": "bytes",
          "name": "budgetData",
          "type": "bytes"
        }
      ],
      "stateMutability": "view",
      "type": "function"
    },
    {
      "inputs": [
        {
          "internalType": "bytes",
          "name": "data_",
          "type": "bytes"
        }
      ],
      "name": "reclaim",
      "outputs": [
        {
          "internalType": "bool",
          "name": "",
          "type": "bool"
        }
      ],
      "stateMutability": "nonpayable",
      "type": "function"
    },
    {
      "inputs": [],
      "name": "renounceOwnership",
      "outputs": [],
      "stateMutability": "payable",
      "type": "function"
    },
    {
      "inputs": [],
      "name": "requestOwnershipHandover",
      "outputs": [],
      "stateMutability": "payable",
      "type": "function"
    },
    {
      "inputs": [],
      "name": "reward",
      "outputs": [
        {
          "internalType": "uint256",
          "name": "",
          "type": "uint256"
        }
      ],
      "stateMutability": "view",
      "type": "function"
    },
    {
      "inputs": [],
      "name": "strategy",
      "outputs": [
        {
          "internalType": "enum AERC1155Incentive.Strategy",
          "name": "",
          "type": "uint8"
        }
      ],
      "stateMutability": "view",
      "type": "function"
    },
    {
      "inputs": [
        {
          "internalType": "bytes4",
          "name": "interfaceId",
          "type": "bytes4"
        }
      ],
      "name": "supportsInterface",
      "outputs": [
        {
          "internalType": "bool",
          "name": "",
          "type": "bool"
        }
      ],
      "stateMutability": "view",
      "type": "function"
    },
    {
      "inputs": [],
      "name": "tokenId",
      "outputs": [
        {
          "internalType": "uint256",
          "name": "",
          "type": "uint256"
        }
      ],
      "stateMutability": "view",
      "type": "function"
    },
    {
      "inputs": [
        {
          "internalType": "address",
          "name": "newOwner",
          "type": "address"
        }
      ],
      "name": "transferOwnership",
      "outputs": [],
      "stateMutability": "payable",
      "type": "function"
    }
  ],
  "bytecode": "0x608060405234801561000f575f80fd5b5061001f3361003960201b60201c565b6001808190555061003461011560201b60201c565b6101ae565b61004761018160201b60201c565b156100bf577fffffffffffffffffffffffffffffffffffffffffffffffffffffffff7487392780541561008157630dc149f05f526004601cfd5b8160601b60601c9150811560ff1b82178155815f7f8be0079c531659141344cd1fd0a4f28419497f9722a3daafe3b4186f6b6457e05f80a350610112565b8060601b60601c9050807fffffffffffffffffffffffffffffffffffffffffffffffffffffffff7487392755805f7f8be0079c531659141344cd1fd0a4f28419497f9722a3daafe3b4186f6b6457e05f80a35b50565b5f61012461018560201b60201c565b90508054600181161561013e5763f92ee8a95f526004601cfd5b8160c01c808260011c1461017c578060011b8355806020527fc7f505b2f371ae2175ee4913f4499e1f2633a7b5936321eed1cdaeb6115181d2602080a15b505050565b5f90565b5f7fffffffffffffffffffffffffffffffffffffffffffffffffffffffffbf6011325f1b905090565b612654806101bb5f395ff3fe608060405260043610610165575f3560e01c80638da5cb5b116100d0578063dcc59b6f11610089578063f1c30ec011610063578063f1c30ec0146104d7578063f23a6e6114610513578063f2fde38b1461054f578063fee81cf41461056b57610165565b8063dcc59b6f14610455578063e18e65081461047f578063f04e283e146104bb57610165565b80638da5cb5b14610323578063a4d66daf1461034d578063a8c62e7614610377578063bc197c81146103a1578063c63ff8dd146103dd578063c884ef831461041957610165565b806338d52e0f1161012257806338d52e0f14610257578063439fab91146102815780634e7165a2146102a957806354d1f13d146102e5578063609d3334146102ef578063715018a61461031957610165565b806301ffc9a71461016957806307621eca146101a557806317d70f7c146101cf578063228cb733146101f9578063256929621461022357806328d6183b1461022d575b5f80fd5b348015610174575f80fd5b5061018f600480360381019061018a919061154c565b6105a7565b60405161019c9190611591565b60405180910390f35b3480156101b0575f80fd5b506101b9610688565b6040516101c691906115c2565b60405180910390f35b3480156101da575f80fd5b506101e3610691565b6040516101f091906115c2565b60405180910390f35b348015610204575f80fd5b5061020d610697565b60405161021a91906115c2565b60405180910390f35b61022b61069d565b005b348015610238575f80fd5b506102416106ee565b60405161024e91906115ea565b60405180910390f35b348015610262575f80fd5b5061026b610715565b604051610278919061167d565b60405180910390f35b34801561028c575f80fd5b506102a760048036038101906102a291906116f7565b61073a565b005b3480156102b4575f80fd5b506102cf60048036038101906102ca91906116f7565b6109dd565b6040516102dc91906117b2565b60405180910390f35b6102ed610ac0565b005b3480156102fa575f80fd5b50610303610af9565b60405161031091906117b2565b60405180910390f35b610321610b85565b005b34801561032e575f80fd5b50610337610b98565b60405161034491906117f2565b60405180910390f35b348015610358575f80fd5b50610361610bc0565b60405161036e91906115c2565b60405180910390f35b348015610382575f80fd5b5061038b610bc6565b604051610398919061187e565b60405180910390f35b3480156103ac575f80fd5b506103c760048036038101906103c29190611916565b610bd9565b6040516103d491906115ea565b60405180910390f35b3480156103e8575f80fd5b5061040360048036038101906103fe91906116f7565b610bf0565b6040516104109190611591565b60405180910390f35b348015610424575f80fd5b5061043f600480360381019061043a91906119ed565b610e45565b60405161044c9190611591565b60405180910390f35b348015610460575f80fd5b50610469610e62565b60405161047691906115c2565b60405180910390f35b34801561048a575f80fd5b506104a560048036038101906104a091906116f7565b610e67565b6040516104b29190611591565b60405180910390f35b6104d560048036038101906104d091906119ed565b610e8f565b005b3480156104e2575f80fd5b506104fd60048036038101906104f891906116f7565b610ecd565b60405161050a9190611591565b60405180910390f35b34801561051e575f80fd5b5061053960048036038101906105349190611a42565b6110c9565b60405161054691906115ea565b60405180910390f35b610569600480360381019061056491906119ed565b6110de565b005b348015610576575f80fd5b50610591600480360381019061058c91906119ed565b611107565b60405161059e91906115c2565b60405180910390f35b5f7fb168aa66000000000000000000000000000000000000000000000000000000007bffffffffffffffffffffffffffffffffffffffffffffffffffffffff1916827bffffffffffffffffffffffffffffffffffffffffffffffffffffffff1916148061067157507f4e2312e0000000000000000000000000000000000000000000000000000000007bffffffffffffffffffffffffffffffffffffffffffffffffffffffff1916827bffffffffffffffffffffffffffffffffffffffffffffffffffffffff1916145b80610681575061068082611120565b5b9050919050565b5f600154905090565b60055481565b60015481565b5f6106a6611199565b67ffffffffffffffff164201905063389a75e1600c52335f52806020600c2055337fdbf36a107da19e49527a7176a1babf963b4b0ff8cde35ee35d6cd8f1f9ac7e1d5f80a250565b5f7fb168aa6600000000000000000000000000000000000000000000000000000000905090565b60035f9054906101000a900473ffffffffffffffffffffffffffffffffffffffff1681565b5f6107436111a3565b905080546003825580156107755760018160011c14303b1061076c5763f92ee8a95f526004601cfd5b818160ff1b1b91505b505f83838101906107869190611d0b565b905060018081111561079b5761079a61180b565b5b816020015160018111156107b2576107b161180b565b5b036107e9576040517fd623472500000000000000000000000000000000000000000000000000000000815260040160405180910390fd5b5f816060015103610826576040517ff92ee8a900000000000000000000000000000000000000000000000000000000815260040160405180910390fd5b805f015160035f6101000a81548173ffffffffffffffffffffffffffffffffffffffff021916908373ffffffffffffffffffffffffffffffffffffffff1602179055508060200151600360146101000a81548160ff021916908360018111156108925761089161180b565b5b0217905550806040015160058190555080606001516004819055508060800151600690816108c09190611f43565b505f815f015173ffffffffffffffffffffffffffffffffffffffff1662fdd58e3084604001516040518363ffffffff1660e01b8152600401610903929190612012565b602060405180830381865afa15801561091e573d5f803e3d5ffd5b505050506040513d601f19601f82011682018060405250810190610942919061204d565b9050816060015181101561099857815f01518183606001516040517f5c54305e00000000000000000000000000000000000000000000000000000000815260040161098f93929190612078565b60405180910390fd5b6109a1336111cc565b505080156109d8576002815560016020527fc7f505b2f371ae2175ee4913f4499e1f2633a7b5936321eed1cdaeb6115181d2602080a15b505050565b60605f83838101906109ef9190611d0b565b90506040518060800160405280600280811115610a0f57610a0e61180b565b5b8152602001825f015173ffffffffffffffffffffffffffffffffffffffff1681526020013073ffffffffffffffffffffffffffffffffffffffff168152602001604051806060016040528084604001518152602001846060015181526020018460800151815250604051602001610a869190612151565b604051602081830303815290604052815250604051602001610aa89190612226565b60405160208183030381529060405291505092915050565b63389a75e1600c52335f525f6020600c2055337ffa7b8eab7da67f412cc9575ed43464468f9bfbae89d1675917346ca6d8fe3c925f80a2565b60068054610b0690611d7f565b80601f0160208091040260200160405190810160405280929190818152602001828054610b3290611d7f565b8015610b7d5780601f10610b5457610100808354040283529160200191610b7d565b820191905f5260205f20905b815481529060010190602001808311610b6057829003601f168201915b505050505081565b610b8d6112a2565b610b965f6112d9565b565b5f7fffffffffffffffffffffffffffffffffffffffffffffffffffffffff7487392754905090565b60045481565b600360149054906101000a900460ff1681565b5f63bc197c8160e01b905098975050505050505050565b5f610bf96112a2565b5f6001811115610c0c57610c0b61180b565b5b600360149054906101000a900460ff166001811115610c2e57610c2d61180b565b5b03610e3b575f8383810190610c4391906122af565b9050610c51815f015161139f565b610c87576040517f6247a84e00000000000000000000000000000000000000000000000000000000815260040160405180910390fd5b5f80815480929190610c9890612323565b9190505550600160025f835f015173ffffffffffffffffffffffffffffffffffffffff1673ffffffffffffffffffffffffffffffffffffffff1681526020019081526020015f205f6101000a81548160ff02191690831515021790555060035f9054906101000a900473ffffffffffffffffffffffffffffffffffffffff1673ffffffffffffffffffffffffffffffffffffffff1663f242432a30835f0151600554600186602001516040518663ffffffff1660e01b8152600401610d619594939291906123a3565b5f604051808303815f87803b158015610d78575f80fd5b505af1158015610d8a573d5f803e3d5ffd5b50505050805f015173ffffffffffffffffffffffffffffffffffffffff167f9ad2e7a4af16dceda9cce4274b2f59c328d8c012eb0e15eb5e1e73b7d8f264d360035f9054906101000a900473ffffffffffffffffffffffffffffffffffffffff16835f015160055460018660200151604051602001610e0d9594939291906124b1565b604051602081830303815290604052604051610e2991906117b2565b60405180910390a26001915050610e3f565b5f90505b92915050565b6002602052805f5260405f205f915054906101000a900460ff1681565b5f5481565b5f808383810190610e7891906122af565b9050610e86815f015161139f565b91505092915050565b610e976112a2565b63389a75e1600c52805f526020600c208054421115610ebd57636f5e88185f526004601cfd5b5f815550610eca816112d9565b50565b5f610ed66112a2565b5f8383810190610ee691906122af565b90505f8160200151806020019051810190610f01919061204d565b9050600454811115610f6b573382604051602001610f1f9190612545565b6040516020818303038152906040526040517f4139d81d000000000000000000000000000000000000000000000000000000008152600401610f62929190612565565b60405180910390fd5b8060045f828254610f7c9190612593565b9250508190555060035f9054906101000a900473ffffffffffffffffffffffffffffffffffffffff1673ffffffffffffffffffffffffffffffffffffffff1663f242432a30845f01516005548587602001516040518663ffffffff1660e01b8152600401610fee9594939291906125c6565b5f604051808303815f87803b158015611005575f80fd5b505af1158015611017573d5f803e3d5ffd5b50505050815f015173ffffffffffffffffffffffffffffffffffffffff167f9ad2e7a4af16dceda9cce4274b2f59c328d8c012eb0e15eb5e1e73b7d8f264d360035f9054906101000a900473ffffffffffffffffffffffffffffffffffffffff16845f01516005548587602001516040516020016110999594939291906124b1565b6040516020818303038152906040526040516110b591906117b2565b60405180910390a260019250505092915050565b5f63f23a6e6160e01b90509695505050505050565b6110e66112a2565b8060601b6110fb57637448fbae5f526004601cfd5b611104816112d9565b50565b5f63389a75e1600c52815f526020600c20549050919050565b5f7f8085fa3e000000000000000000000000000000000000000000000000000000007bffffffffffffffffffffffffffffffffffffffffffffffffffffffff1916827bffffffffffffffffffffffffffffffffffffffffffffffffffffffff19161480611192575061119182611400565b5b9050919050565b5f6202a300905090565b5f7fffffffffffffffffffffffffffffffffffffffffffffffffffffffffbf6011325f1b905090565b6111d4611479565b1561124c577fffffffffffffffffffffffffffffffffffffffffffffffffffffffff7487392780541561120e57630dc149f05f526004601cfd5b8160601b60601c9150811560ff1b82178155815f7f8be0079c531659141344cd1fd0a4f28419497f9722a3daafe3b4186f6b6457e05f80a35061129f565b8060601b60601c9050807fffffffffffffffffffffffffffffffffffffffffffffffffffffffff7487392755805f7f8be0079c531659141344cd1fd0a4f28419497f9722a3daafe3b4186f6b6457e05f80a35b50565b7fffffffffffffffffffffffffffffffffffffffffffffffffffffffff748739275433146112d7576382b429005f526004601cfd5b565b6112e1611479565b15611346577fffffffffffffffffffffffffffffffffffffffffffffffffffffffff748739278160601b60601c91508181547f8be0079c531659141344cd1fd0a4f28419497f9722a3daafe3b4186f6b6457e05f80a3811560ff1b821781555061139c565b7fffffffffffffffffffffffffffffffffffffffffffffffffffffffff748739278160601b60601c91508181547f8be0079c531659141344cd1fd0a4f28419497f9722a3daafe3b4186f6b6457e05f80a3818155505b50565b5f60025f8373ffffffffffffffffffffffffffffffffffffffff1673ffffffffffffffffffffffffffffffffffffffff1681526020019081526020015f205f9054906101000a900460ff161580156113f957506004545f54105b9050919050565b5f7f6ab67a0d000000000000000000000000000000000000000000000000000000007bffffffffffffffffffffffffffffffffffffffffffffffffffffffff1916827bffffffffffffffffffffffffffffffffffffffffffffffffffffffff1916148061147257506114718261147d565b5b9050919050565b5f90565b5f7f01ffc9a7000000000000000000000000000000000000000000000000000000007bffffffffffffffffffffffffffffffffffffffffffffffffffffffff1916827bffffffffffffffffffffffffffffffffffffffffffffffffffffffff1916149050919050565b5f604051905090565b5f80fd5b5f80fd5b5f7fffffffff0000000000000000000000000000000000000000000000000000000082169050919050565b61152b816114f7565b8114611535575f80fd5b50565b5f8135905061154681611522565b92915050565b5f60208284031215611561576115606114ef565b5b5f61156e84828501611538565b91505092915050565b5f8115159050919050565b61158b81611577565b82525050565b5f6020820190506115a45f830184611582565b92915050565b5f819050919050565b6115bc816115aa565b82525050565b5f6020820190506115d55f8301846115b3565b92915050565b6115e4816114f7565b82525050565b5f6020820190506115fd5f8301846115db565b92915050565b5f73ffffffffffffffffffffffffffffffffffffffff82169050919050565b5f819050919050565b5f61164561164061163b84611603565b611622565b611603565b9050919050565b5f6116568261162b565b9050919050565b5f6116678261164c565b9050919050565b6116778161165d565b82525050565b5f6020820190506116905f83018461166e565b92915050565b5f80fd5b5f80fd5b5f80fd5b5f8083601f8401126116b7576116b6611696565b5b8235905067ffffffffffffffff8111156116d4576116d361169a565b5b6020830191508360018202830111156116f0576116ef61169e565b5b9250929050565b5f806020838503121561170d5761170c6114ef565b5b5f83013567ffffffffffffffff81111561172a576117296114f3565b5b611736858286016116a2565b92509250509250929050565b5f81519050919050565b5f82825260208201905092915050565b8281835e5f83830152505050565b5f601f19601f8301169050919050565b5f61178482611742565b61178e818561174c565b935061179e81856020860161175c565b6117a78161176a565b840191505092915050565b5f6020820190508181035f8301526117ca818461177a565b905092915050565b5f6117dc82611603565b9050919050565b6117ec816117d2565b82525050565b5f6020820190506118055f8301846117e3565b92915050565b7f4e487b71000000000000000000000000000000000000000000000000000000005f52602160045260245ffd5b600281106118495761184861180b565b5b50565b5f81905061185982611838565b919050565b5f6118688261184c565b9050919050565b6118788161185e565b82525050565b5f6020820190506118915f83018461186f565b92915050565b6118a0816117d2565b81146118aa575f80fd5b50565b5f813590506118bb81611897565b92915050565b5f8083601f8401126118d6576118d5611696565b5b8235905067ffffffffffffffff8111156118f3576118f261169a565b5b60208301915083602082028301111561190f5761190e61169e565b5b9250929050565b5f805f805f805f8060a0898b031215611932576119316114ef565b5b5f61193f8b828c016118ad565b98505060206119508b828c016118ad565b975050604089013567ffffffffffffffff811115611971576119706114f3565b5b61197d8b828c016118c1565b9650965050606089013567ffffffffffffffff8111156119a05761199f6114f3565b5b6119ac8b828c016118c1565b9450945050608089013567ffffffffffffffff8111156119cf576119ce6114f3565b5b6119db8b828c016116a2565b92509250509295985092959890939650565b5f60208284031215611a0257611a016114ef565b5b5f611a0f848285016118ad565b91505092915050565b611a21816115aa565b8114611a2b575f80fd5b50565b5f81359050611a3c81611a18565b92915050565b5f805f805f8060a08789031215611a5c57611a5b6114ef565b5b5f611a6989828a016118ad565b9650506020611a7a89828a016118ad565b9550506040611a8b89828a01611a2e565b9450506060611a9c89828a01611a2e565b935050608087013567ffffffffffffffff811115611abd57611abc6114f3565b5b611ac989828a016116a2565b92509250509295509295509295565b5f80fd5b7f4e487b71000000000000000000000000000000000000000000000000000000005f52604160045260245ffd5b611b128261176a565b810181811067ffffffffffffffff82111715611b3157611b30611adc565b5b80604052505050565b5f611b436114e6565b9050611b4f8282611b09565b919050565b5f80fd5b5f611b62826117d2565b9050919050565b611b7281611b58565b8114611b7c575f80fd5b50565b5f81359050611b8d81611b69565b92915050565b60028110611b9f575f80fd5b50565b5f81359050611bb081611b93565b92915050565b5f80fd5b5f67ffffffffffffffff821115611bd457611bd3611adc565b5b611bdd8261176a565b9050602081019050919050565b828183375f83830152505050565b5f611c0a611c0584611bba565b611b3a565b905082815260208101848484011115611c2657611c25611bb6565b5b611c31848285611bea565b509392505050565b5f82601f830112611c4d57611c4c611696565b5b8135611c5d848260208601611bf8565b91505092915050565b5f60a08284031215611c7b57611c7a611ad8565b5b611c8560a0611b3a565b90505f611c9484828501611b7f565b5f830152506020611ca784828501611ba2565b6020830152506040611cbb84828501611a2e565b6040830152506060611ccf84828501611a2e565b606083015250608082013567ffffffffffffffff811115611cf357611cf2611b54565b5b611cff84828501611c39565b60808301525092915050565b5f60208284031215611d2057611d1f6114ef565b5b5f82013567ffffffffffffffff811115611d3d57611d3c6114f3565b5b611d4984828501611c66565b91505092915050565b7f4e487b71000000000000000000000000000000000000000000000000000000005f52602260045260245ffd5b5f6002820490506001821680611d9657607f821691505b602082108103611da957611da8611d52565b5b50919050565b5f819050815f5260205f209050919050565b5f6020601f8301049050919050565b5f82821b905092915050565b5f60088302611e0b7fffffffffffffffffffffffffffffffffffffffffffffffffffffffffffffffff82611dd0565b611e158683611dd0565b95508019841693508086168417925050509392505050565b5f611e47611e42611e3d846115aa565b611622565b6115aa565b9050919050565b5f819050919050565b611e6083611e2d565b611e74611e6c82611e4e565b848454611ddc565b825550505050565b5f90565b611e88611e7c565b611e93818484611e57565b505050565b5b81811015611eb657611eab5f82611e80565b600181019050611e99565b5050565b601f821115611efb57611ecc81611daf565b611ed584611dc1565b81016020851015611ee4578190505b611ef8611ef085611dc1565b830182611e98565b50505b505050565b5f82821c905092915050565b5f611f1b5f1984600802611f00565b1980831691505092915050565b5f611f338383611f0c565b9150826002028217905092915050565b611f4c82611742565b67ffffffffffffffff811115611f6557611f64611adc565b5b611f6f8254611d7f565b611f7a828285611eba565b5f60209050601f831160018114611fab575f8415611f99578287015190505b611fa38582611f28565b86555061200a565b601f198416611fb986611daf565b5f5b82811015611fe057848901518255600182019150602085019450602081019050611fbb565b86831015611ffd5784890151611ff9601f891682611f0c565b8355505b6001600288020188555050505b505050505050565b5f6040820190506120255f8301856117e3565b61203260208301846115b3565b9392505050565b5f8151905061204781611a18565b92915050565b5f60208284031215612062576120616114ef565b5b5f61206f84828501612039565b91505092915050565b5f60608201905061208b5f8301866117e3565b61209860208301856115b3565b6120a560408301846115b3565b949350505050565b6120b6816115aa565b82525050565b5f82825260208201905092915050565b5f6120d682611742565b6120e081856120bc565b93506120f081856020860161175c565b6120f98161176a565b840191505092915050565b5f606083015f8301516121195f8601826120ad565b50602083015161212c60208601826120ad565b506040830151848203604086015261214482826120cc565b9150508091505092915050565b5f6020820190508181035f8301526121698184612104565b905092915050565b600381106121825761218161180b565b5b50565b5f81905061219282612171565b919050565b5f6121a182612185565b9050919050565b6121b181612197565b82525050565b6121c0816117d2565b82525050565b5f608083015f8301516121db5f8601826121a8565b5060208301516121ee60208601826121b7565b50604083015161220160408601826121b7565b506060830151848203606086015261221982826120cc565b9150508091505092915050565b5f6020820190508181035f83015261223e81846121c6565b905092915050565b5f6040828403121561225b5761225a611ad8565b5b6122656040611b3a565b90505f612274848285016118ad565b5f83015250602082013567ffffffffffffffff81111561229757612296611b54565b5b6122a384828501611c39565b60208301525092915050565b5f602082840312156122c4576122c36114ef565b5b5f82013567ffffffffffffffff8111156122e1576122e06114f3565b5b6122ed84828501612246565b91505092915050565b7f4e487b71000000000000000000000000000000000000000000000000000000005f52601160045260245ffd5b5f61232d826115aa565b91507fffffffffffffffffffffffffffffffffffffffffffffffffffffffffffffffff820361235f5761235e6122f6565b5b600182019050919050565b5f819050919050565b5f61238d6123886123838461236a565b611622565b6115aa565b9050919050565b61239d81612373565b82525050565b5f60a0820190506123b65f8301886117e3565b6123c360208301876117e3565b6123d060408301866115b3565b6123dd6060830185612394565b81810360808301526123ef818461177a565b90509695505050505050565b5f8160601b9050919050565b5f612411826123fb565b9050919050565b5f61242282612407565b9050919050565b61243a6124358261165d565b612418565b82525050565b61245161244c826117d2565b612418565b82525050565b5f819050919050565b61247161246c826115aa565b612457565b82525050565b5f81905092915050565b5f61248b82611742565b6124958185612477565b93506124a581856020860161175c565b80840191505092915050565b5f6124bc8288612429565b6014820191506124cc8287612440565b6014820191506124dc8286612460565b6020820191506124ec8285612460565b6020820191506124fc8284612481565b91508190509695505050505050565b5f604083015f8301516125205f8601826121b7565b506020830151848203602086015261253882826120cc565b9150508091505092915050565b5f6020820190508181035f83015261255d818461250b565b905092915050565b5f6040820190506125785f8301856117e3565b818103602083015261258a818461177a565b90509392505050565b5f61259d826115aa565b91506125a8836115aa565b92508282039050818111156125c0576125bf6122f6565b5b92915050565b5f60a0820190506125d95f8301886117e3565b6125e660208301876117e3565b6125f360408301866115b3565b61260060608301856115b3565b8181036080830152612612818461177a565b9050969550505050505056fea2646970667358221220f88649c917bc1da15a44b5577599fd9e4de4f3f9f1fa90f0b936fd1d3fa1b75c64736f6c63430008190033",
  "linkReferences": {},
  "deployedLinkReferences": {}
}