{
  "_format": "hh-sol-artifact-1",
  "contractName": "ERC1155Incentive",
  "sourceName": "contracts/incentives/ERC1155Incentive.sol",
  "abi": [
    {
      "inputs": [],
      "stateMutability": "nonpayable",
      "type": "constructor"
    },
    {
      "inputs": [],
      "name": "AlreadyInitialized",
      "type": "error"
    },
    {
      "inputs": [],
      "name": "ClaimFailed",
      "type": "error"
    },
    {
      "inputs": [
        {
          "internalType": "address",
          "name": "caller",
          "type": "address"
        },
        {
          "internalType": "bytes",
          "name": "data",
          "type": "bytes"
        }
      ],
      "name": "ClaimFailed",
      "type": "error"
    },
    {
      "inputs": [],
      "name": "CloneAlreadyInitialized",
      "type": "error"
    },
    {
      "inputs": [],
      "name": "InitializerNotImplemented",
      "type": "error"
    },
    {
      "inputs": [
        {
          "internalType": "address",
          "name": "asset",
          "type": "address"
        },
        {
          "internalType": "uint256",
          "name": "available",
          "type": "uint256"
        },
        {
          "internalType": "uint256",
          "name": "required",
          "type": "uint256"
        }
      ],
      "name": "InsufficientFunds",
      "type": "error"
    },
    {
      "inputs": [],
      "name": "InvalidInitialization",
      "type": "error"
    },
    {
      "inputs": [],
      "name": "InvalidInitialization",
      "type": "error"
    },
    {
      "inputs": [],
      "name": "InvalidInitializationData",
      "type": "error"
    },
    {
      "inputs": [],
      "name": "NewOwnerIsZeroAddress",
      "type": "error"
    },
    {
      "inputs": [],
      "name": "NoHandoverRequest",
      "type": "error"
    },
    {
      "inputs": [],
      "name": "NotClaimable",
      "type": "error"
    },
    {
      "inputs": [],
      "name": "NotImplemented",
      "type": "error"
    },
    {
      "inputs": [],
      "name": "NotInitializing",
      "type": "error"
    },
    {
      "inputs": [],
      "name": "Reentrancy",
      "type": "error"
    },
    {
      "inputs": [],
      "name": "Unauthorized",
      "type": "error"
    },
    {
      "anonymous": false,
      "inputs": [
        {
          "indexed": true,
          "internalType": "address",
          "name": "recipient",
          "type": "address"
        },
        {
          "indexed": false,
          "internalType": "bytes",
          "name": "data",
          "type": "bytes"
        }
      ],
      "name": "Claimed",
      "type": "event"
    },
    {
      "anonymous": false,
      "inputs": [
        {
          "indexed": false,
          "internalType": "uint64",
          "name": "version",
          "type": "uint64"
        }
      ],
      "name": "Initialized",
      "type": "event"
    },
    {
      "anonymous": false,
      "inputs": [
        {
          "indexed": true,
          "internalType": "address",
          "name": "pendingOwner",
          "type": "address"
        }
      ],
      "name": "OwnershipHandoverCanceled",
      "type": "event"
    },
    {
      "anonymous": false,
      "inputs": [
        {
          "indexed": true,
          "internalType": "address",
          "name": "pendingOwner",
          "type": "address"
        }
      ],
      "name": "OwnershipHandoverRequested",
      "type": "event"
    },
    {
      "anonymous": false,
      "inputs": [
        {
          "indexed": true,
          "internalType": "address",
          "name": "oldOwner",
          "type": "address"
        },
        {
          "indexed": true,
          "internalType": "address",
          "name": "newOwner",
          "type": "address"
        }
      ],
      "name": "OwnershipTransferred",
      "type": "event"
    },
    {
      "inputs": [],
      "name": "asset",
      "outputs": [
        {
          "internalType": "contract IERC1155",
          "name": "",
          "type": "address"
        }
      ],
      "stateMutability": "view",
      "type": "function"
    },
    {
      "inputs": [],
      "name": "cancelOwnershipHandover",
      "outputs": [],
      "stateMutability": "payable",
      "type": "function"
    },
    {
      "inputs": [
        {
          "internalType": "bytes",
          "name": "data_",
          "type": "bytes"
        }
      ],
      "name": "claim",
      "outputs": [
        {
          "internalType": "bool",
          "name": "",
          "type": "bool"
        }
      ],
      "stateMutability": "nonpayable",
      "type": "function"
    },
    {
      "inputs": [
        {
          "internalType": "address",
          "name": "",
          "type": "address"
        }
      ],
      "name": "claimed",
      "outputs": [
        {
          "internalType": "bool",
          "name": "",
          "type": "bool"
        }
      ],
      "stateMutability": "view",
      "type": "function"
    },
    {
      "inputs": [],
      "name": "claims",
      "outputs": [
        {
          "internalType": "uint256",
          "name": "",
          "type": "uint256"
        }
      ],
      "stateMutability": "view",
      "type": "function"
    },
    {
      "inputs": [
        {
          "internalType": "address",
          "name": "pendingOwner",
          "type": "address"
        }
      ],
      "name": "completeOwnershipHandover",
      "outputs": [],
      "stateMutability": "payable",
      "type": "function"
    },
    {
      "inputs": [],
      "name": "extraData",
      "outputs": [
        {
          "internalType": "bytes",
          "name": "",
          "type": "bytes"
        }
      ],
      "stateMutability": "view",
      "type": "function"
    },
    {
      "inputs": [
        {
          "internalType": "bytes",
          "name": "data_",
          "type": "bytes"
        }
      ],
      "name": "initialize",
      "outputs": [],
      "stateMutability": "nonpayable",
      "type": "function"
    },
    {
      "inputs": [],
      "name": "interfaceName",
      "outputs": [
        {
          "internalType": "string",
          "name": "",
          "type": "string"
        }
      ],
      "stateMutability": "pure",
      "type": "function"
    },
    {
      "inputs": [
        {
          "internalType": "bytes",
          "name": "data_",
          "type": "bytes"
        }
      ],
      "name": "isClaimable",
      "outputs": [
        {
          "internalType": "bool",
          "name": "",
          "type": "bool"
        }
      ],
      "stateMutability": "view",
      "type": "function"
    },
    {
      "inputs": [],
      "name": "limit",
      "outputs": [
        {
          "internalType": "uint256",
          "name": "",
          "type": "uint256"
        }
      ],
      "stateMutability": "view",
      "type": "function"
    },
    {
      "inputs": [
        {
          "internalType": "address",
          "name": "",
          "type": "address"
        },
        {
          "internalType": "address",
          "name": "",
          "type": "address"
        },
        {
          "internalType": "uint256[]",
          "name": "",
          "type": "uint256[]"
        },
        {
          "internalType": "uint256[]",
          "name": "",
          "type": "uint256[]"
        },
        {
          "internalType": "bytes",
          "name": "",
          "type": "bytes"
        }
      ],
      "name": "onERC1155BatchReceived",
      "outputs": [
        {
          "internalType": "bytes4",
          "name": "",
          "type": "bytes4"
        }
      ],
      "stateMutability": "pure",
      "type": "function"
    },
    {
      "inputs": [
        {
          "internalType": "address",
          "name": "",
          "type": "address"
        },
        {
          "internalType": "address",
          "name": "",
          "type": "address"
        },
        {
          "internalType": "uint256",
          "name": "",
          "type": "uint256"
        },
        {
          "internalType": "uint256",
          "name": "",
          "type": "uint256"
        },
        {
          "internalType": "bytes",
          "name": "",
          "type": "bytes"
        }
      ],
      "name": "onERC1155Received",
      "outputs": [
        {
          "internalType": "bytes4",
          "name": "",
          "type": "bytes4"
        }
      ],
      "stateMutability": "pure",
      "type": "function"
    },
    {
      "inputs": [],
      "name": "owner",
      "outputs": [
        {
          "internalType": "address",
          "name": "result",
          "type": "address"
        }
      ],
      "stateMutability": "view",
      "type": "function"
    },
    {
      "inputs": [
        {
          "internalType": "address",
          "name": "pendingOwner",
          "type": "address"
        }
      ],
      "name": "ownershipHandoverExpiresAt",
      "outputs": [
        {
          "internalType": "uint256",
          "name": "result",
          "type": "uint256"
        }
      ],
      "stateMutability": "view",
      "type": "function"
    },
    {
      "inputs": [
        {
          "internalType": "bytes",
          "name": "data_",
          "type": "bytes"
        }
      ],
      "name": "preflight",
      "outputs": [
        {
          "internalType": "bytes",
          "name": "budgetData",
          "type": "bytes"
        }
      ],
      "stateMutability": "view",
      "type": "function"
    },
    {
      "inputs": [
        {
          "internalType": "bytes",
          "name": "data_",
          "type": "bytes"
        }
      ],
      "name": "reclaim",
      "outputs": [
        {
          "internalType": "bool",
          "name": "",
          "type": "bool"
        }
      ],
      "stateMutability": "nonpayable",
      "type": "function"
    },
    {
      "inputs": [],
      "name": "renounceOwnership",
      "outputs": [],
      "stateMutability": "payable",
      "type": "function"
    },
    {
      "inputs": [],
      "name": "requestOwnershipHandover",
      "outputs": [],
      "stateMutability": "payable",
      "type": "function"
    },
    {
      "inputs": [],
      "name": "strategy",
      "outputs": [
        {
          "internalType": "enum ERC1155Incentive.Strategy",
          "name": "",
          "type": "uint8"
        }
      ],
      "stateMutability": "view",
      "type": "function"
    },
    {
      "inputs": [
        {
          "internalType": "bytes4",
          "name": "interfaceId",
          "type": "bytes4"
        }
      ],
      "name": "supportsInterface",
      "outputs": [
        {
          "internalType": "bool",
          "name": "",
          "type": "bool"
        }
      ],
      "stateMutability": "view",
      "type": "function"
    },
    {
      "inputs": [],
      "name": "tokenId",
      "outputs": [
        {
          "internalType": "uint256",
          "name": "",
          "type": "uint256"
        }
      ],
      "stateMutability": "view",
      "type": "function"
    },
    {
      "inputs": [
        {
          "internalType": "address",
          "name": "newOwner",
          "type": "address"
        }
      ],
      "name": "transferOwnership",
      "outputs": [],
      "stateMutability": "payable",
      "type": "function"
    }
  ],
  "bytecode": "0x608060405234801561000f575f80fd5b5061001f3361003260201b60201c565b61002d61010e60201b60201c565b6101a7565b61004061017a60201b60201c565b156100b8577fffffffffffffffffffffffffffffffffffffffffffffffffffffffff7487392780541561007a57630dc149f05f526004601cfd5b8160601b60601c9150811560ff1b82178155815f7f8be0079c531659141344cd1fd0a4f28419497f9722a3daafe3b4186f6b6457e05f80a35061010b565b8060601b60601c9050807fffffffffffffffffffffffffffffffffffffffffffffffffffffffff7487392755805f7f8be0079c531659141344cd1fd0a4f28419497f9722a3daafe3b4186f6b6457e05f80a35b50565b5f61011d61017e60201b60201c565b9050805460018116156101375763f92ee8a95f526004601cfd5b8160c01c808260011c14610175578060011b8355806020527fc7f505b2f371ae2175ee4913f4499e1f2633a7b5936321eed1cdaeb6115181d2602080a15b505050565b5f90565b5f7fffffffffffffffffffffffffffffffffffffffffffffffffffffffffbf6011325f1b905090565b6125ea806101b45f395ff3fe60806040526004361061013f575f3560e01c8063a4d66daf116100b5578063e18e65081161006e578063e18e650814610405578063f04e283e14610441578063f1c30ec01461045d578063f23a6e6114610499578063f2fde38b146104d5578063fee81cf4146104f15761013f565b8063a4d66daf146102d3578063a8c62e76146102fd578063bc197c8114610327578063c63ff8dd14610363578063c884ef831461039f578063dcc59b6f146103db5761013f565b80634e7165a2116101075780634e7165a21461020557806354d1f13d14610241578063609d33341461024b5780636e441e4c14610275578063715018a61461029f5780638da5cb5b146102a95761013f565b806301ffc9a71461014357806317d70f7c1461017f57806325692962146101a957806338d52e0f146101b3578063439fab91146101dd575b5f80fd5b34801561014e575f80fd5b5061016960048036038101906101649190611470565b61052d565b60405161017691906114b5565b60405180910390f35b34801561018a575f80fd5b506101936105a6565b6040516101a091906114e6565b60405180910390f35b6101b16105ac565b005b3480156101be575f80fd5b506101c76105fd565b6040516101d49190611579565b60405180910390f35b3480156101e8575f80fd5b5061020360048036038101906101fe91906115f3565b610622565b005b348015610210575f80fd5b5061022b600480360381019061022691906115f3565b6108c5565b60405161023891906116ae565b60405180910390f35b6102496109a8565b005b348015610256575f80fd5b5061025f6109e1565b60405161026c91906116ae565b60405180910390f35b348015610280575f80fd5b50610289610a6d565b6040516102969190611720565b60405180910390f35b6102a7610aaa565b005b3480156102b4575f80fd5b506102bd610abd565b6040516102ca9190611760565b60405180910390f35b3480156102de575f80fd5b506102e7610ae5565b6040516102f491906114e6565b60405180910390f35b348015610308575f80fd5b50610311610aeb565b60405161031e91906117ec565b60405180910390f35b348015610332575f80fd5b5061034d60048036038101906103489190611884565b610afe565b60405161035a919061196a565b60405180910390f35b34801561036e575f80fd5b50610389600480360381019061038491906115f3565b610b15565b60405161039691906114b5565b60405180910390f35b3480156103aa575f80fd5b506103c560048036038101906103c09190611983565b610d69565b6040516103d291906114b5565b60405180910390f35b3480156103e6575f80fd5b506103ef610d86565b6040516103fc91906114e6565b60405180910390f35b348015610410575f80fd5b5061042b600480360381019061042691906115f3565b610d8b565b60405161043891906114b5565b60405180910390f35b61045b60048036038101906104569190611983565b610db3565b005b348015610468575f80fd5b50610483600480360381019061047e91906115f3565b610df1565b60405161049091906114b5565b60405180910390f35b3480156104a4575f80fd5b506104bf60048036038101906104ba91906119d8565b610fed565b6040516104cc919061196a565b60405180910390f35b6104ef60048036038101906104ea9190611983565b611002565b005b3480156104fc575f80fd5b5061051760048036038101906105129190611983565b61102b565b60405161052491906114e6565b60405180910390f35b5f7f4e2312e0000000000000000000000000000000000000000000000000000000007bffffffffffffffffffffffffffffffffffffffffffffffffffffffff1916827bffffffffffffffffffffffffffffffffffffffffffffffffffffffff1916148061059f575061059e82611044565b5b9050919050565b60045481565b5f6105b56110bd565b67ffffffffffffffff164201905063389a75e1600c52335f52806020600c2055337fdbf36a107da19e49527a7176a1babf963b4b0ff8cde35ee35d6cd8f1f9ac7e1d5f80a250565b60025f9054906101000a900473ffffffffffffffffffffffffffffffffffffffff1681565b5f61062b6110c7565b9050805460038255801561065d5760018160011c14303b106106545763f92ee8a95f526004601cfd5b818160ff1b1b91505b505f838381019061066e9190611ca1565b905060018081111561068357610682611779565b5b8160200151600181111561069a57610699611779565b5b036106d1576040517fd623472500000000000000000000000000000000000000000000000000000000815260040160405180910390fd5b5f81606001510361070e576040517ff92ee8a900000000000000000000000000000000000000000000000000000000815260040160405180910390fd5b5f815f015173ffffffffffffffffffffffffffffffffffffffff1662fdd58e3084604001516040518363ffffffff1660e01b8152600401610750929190611ce8565b602060405180830381865afa15801561076b573d5f803e3d5ffd5b505050506040513d601f19601f8201168201806040525081019061078f9190611d23565b905081606001518110156107e557815f01518183606001516040517f5c54305e0000000000000000000000000000000000000000000000000000000081526004016107dc93929190611d4e565b60405180910390fd5b815f015160025f6101000a81548173ffffffffffffffffffffffffffffffffffffffff021916908373ffffffffffffffffffffffffffffffffffffffff1602179055508160200151600260146101000a81548160ff0219169083600181111561085157610850611779565b5b02179055508160400151600481905550816060015160038190555081608001516005908161087f9190611f74565b50610889336110f0565b505080156108c0576002815560016020527fc7f505b2f371ae2175ee4913f4499e1f2633a7b5936321eed1cdaeb6115181d2602080a15b505050565b60605f83838101906108d79190611ca1565b905060405180608001604052806002808111156108f7576108f6611779565b5b8152602001825f015173ffffffffffffffffffffffffffffffffffffffff1681526020013073ffffffffffffffffffffffffffffffffffffffff16815260200160405180606001604052808460400151815260200184606001518152602001846080015181525060405160200161096e91906120e7565b60405160208183030381529060405281525060405160200161099091906121bc565b60405160208183030381529060405291505092915050565b63389a75e1600c52335f525f6020600c2055337ffa7b8eab7da67f412cc9575ed43464468f9bfbae89d1675917346ca6d8fe3c925f80a2565b600580546109ee90611db0565b80601f0160208091040260200160405190810160405280929190818152602001828054610a1a90611db0565b8015610a655780601f10610a3c57610100808354040283529160200191610a65565b820191905f5260205f20905b815481529060010190602001808311610a4857829003601f168201915b505050505081565b60606040518060400160405280601081526020017f45524331313535496e63656e7469766500000000000000000000000000000000815250905090565b610ab26111c6565b610abb5f6111fd565b565b5f7fffffffffffffffffffffffffffffffffffffffffffffffffffffffff7487392754905090565b60035481565b600260149054906101000a900460ff1681565b5f63bc197c8160e01b905098975050505050505050565b5f610b1e6111c6565b5f6001811115610b3157610b30611779565b5b600260149054906101000a900460ff166001811115610b5357610b52611779565b5b03610d5f575f8383810190610b689190612245565b9050610b76815f01516112c3565b610bac576040517f6247a84e00000000000000000000000000000000000000000000000000000000815260040160405180910390fd5b5f80815480929190610bbd906122b9565b91905055506001805f835f015173ffffffffffffffffffffffffffffffffffffffff1673ffffffffffffffffffffffffffffffffffffffff1681526020019081526020015f205f6101000a81548160ff02191690831515021790555060025f9054906101000a900473ffffffffffffffffffffffffffffffffffffffff1673ffffffffffffffffffffffffffffffffffffffff1663f242432a30835f0151600454600186602001516040518663ffffffff1660e01b8152600401610c85959493929190612339565b5f604051808303815f87803b158015610c9c575f80fd5b505af1158015610cae573d5f803e3d5ffd5b50505050805f015173ffffffffffffffffffffffffffffffffffffffff167f9ad2e7a4af16dceda9cce4274b2f59c328d8c012eb0e15eb5e1e73b7d8f264d360025f9054906101000a900473ffffffffffffffffffffffffffffffffffffffff16835f015160045460018660200151604051602001610d31959493929190612447565b604051602081830303815290604052604051610d4d91906116ae565b60405180910390a26001915050610d63565b5f90505b92915050565b6001602052805f5260405f205f915054906101000a900460ff1681565b5f5481565b5f808383810190610d9c9190612245565b9050610daa815f01516112c3565b91505092915050565b610dbb6111c6565b63389a75e1600c52805f526020600c208054421115610de157636f5e88185f526004601cfd5b5f815550610dee816111fd565b50565b5f610dfa6111c6565b5f8383810190610e0a9190612245565b90505f8160200151806020019051810190610e259190611d23565b9050600354811115610e8f573382604051602001610e4391906124db565b6040516020818303038152906040526040517f4139d81d000000000000000000000000000000000000000000000000000000008152600401610e869291906124fb565b60405180910390fd5b8060035f828254610ea09190612529565b9250508190555060025f9054906101000a900473ffffffffffffffffffffffffffffffffffffffff1673ffffffffffffffffffffffffffffffffffffffff1663f242432a30845f01516004548587602001516040518663ffffffff1660e01b8152600401610f1295949392919061255c565b5f604051808303815f87803b158015610f29575f80fd5b505af1158015610f3b573d5f803e3d5ffd5b50505050815f015173ffffffffffffffffffffffffffffffffffffffff167f9ad2e7a4af16dceda9cce4274b2f59c328d8c012eb0e15eb5e1e73b7d8f264d360025f9054906101000a900473ffffffffffffffffffffffffffffffffffffffff16845f0151600454858760200151604051602001610fbd959493929190612447565b604051602081830303815290604052604051610fd991906116ae565b60405180910390a260019250505092915050565b5f63f23a6e6160e01b90509695505050505050565b61100a6111c6565b8060601b61101f57637448fbae5f526004601cfd5b611028816111fd565b50565b5f63389a75e1600c52815f526020600c20549050919050565b5f7f8dbd4bfc000000000000000000000000000000000000000000000000000000007bffffffffffffffffffffffffffffffffffffffffffffffffffffffff1916827bffffffffffffffffffffffffffffffffffffffffffffffffffffffff191614806110b657506110b582611324565b5b9050919050565b5f6202a300905090565b5f7fffffffffffffffffffffffffffffffffffffffffffffffffffffffffbf6011325f1b905090565b6110f861139d565b15611170577fffffffffffffffffffffffffffffffffffffffffffffffffffffffff7487392780541561113257630dc149f05f526004601cfd5b8160601b60601c9150811560ff1b82178155815f7f8be0079c531659141344cd1fd0a4f28419497f9722a3daafe3b4186f6b6457e05f80a3506111c3565b8060601b60601c9050807fffffffffffffffffffffffffffffffffffffffffffffffffffffffff7487392755805f7f8be0079c531659141344cd1fd0a4f28419497f9722a3daafe3b4186f6b6457e05f80a35b50565b7fffffffffffffffffffffffffffffffffffffffffffffffffffffffff748739275433146111fb576382b429005f526004601cfd5b565b61120561139d565b1561126a577fffffffffffffffffffffffffffffffffffffffffffffffffffffffff748739278160601b60601c91508181547f8be0079c531659141344cd1fd0a4f28419497f9722a3daafe3b4186f6b6457e05f80a3811560ff1b82178155506112c0565b7fffffffffffffffffffffffffffffffffffffffffffffffffffffffff748739278160601b60601c91508181547f8be0079c531659141344cd1fd0a4f28419497f9722a3daafe3b4186f6b6457e05f80a3818155505b50565b5f60015f8373ffffffffffffffffffffffffffffffffffffffff1673ffffffffffffffffffffffffffffffffffffffff1681526020019081526020015f205f9054906101000a900460ff1615801561131d57506003545f54105b9050919050565b5f7f2c247c7a000000000000000000000000000000000000000000000000000000007bffffffffffffffffffffffffffffffffffffffffffffffffffffffff1916827bffffffffffffffffffffffffffffffffffffffffffffffffffffffff191614806113965750611395826113a1565b5b9050919050565b5f90565b5f7f01ffc9a7000000000000000000000000000000000000000000000000000000007bffffffffffffffffffffffffffffffffffffffffffffffffffffffff1916827bffffffffffffffffffffffffffffffffffffffffffffffffffffffff1916149050919050565b5f604051905090565b5f80fd5b5f80fd5b5f7fffffffff0000000000000000000000000000000000000000000000000000000082169050919050565b61144f8161141b565b8114611459575f80fd5b50565b5f8135905061146a81611446565b92915050565b5f6020828403121561148557611484611413565b5b5f6114928482850161145c565b91505092915050565b5f8115159050919050565b6114af8161149b565b82525050565b5f6020820190506114c85f8301846114a6565b92915050565b5f819050919050565b6114e0816114ce565b82525050565b5f6020820190506114f95f8301846114d7565b92915050565b5f73ffffffffffffffffffffffffffffffffffffffff82169050919050565b5f819050919050565b5f61154161153c611537846114ff565b61151e565b6114ff565b9050919050565b5f61155282611527565b9050919050565b5f61156382611548565b9050919050565b61157381611559565b82525050565b5f60208201905061158c5f83018461156a565b92915050565b5f80fd5b5f80fd5b5f80fd5b5f8083601f8401126115b3576115b2611592565b5b8235905067ffffffffffffffff8111156115d0576115cf611596565b5b6020830191508360018202830111156115ec576115eb61159a565b5b9250929050565b5f806020838503121561160957611608611413565b5b5f83013567ffffffffffffffff81111561162657611625611417565b5b6116328582860161159e565b92509250509250929050565b5f81519050919050565b5f82825260208201905092915050565b8281835e5f83830152505050565b5f601f19601f8301169050919050565b5f6116808261163e565b61168a8185611648565b935061169a818560208601611658565b6116a381611666565b840191505092915050565b5f6020820190508181035f8301526116c68184611676565b905092915050565b5f81519050919050565b5f82825260208201905092915050565b5f6116f2826116ce565b6116fc81856116d8565b935061170c818560208601611658565b61171581611666565b840191505092915050565b5f6020820190508181035f83015261173881846116e8565b905092915050565b5f61174a826114ff565b9050919050565b61175a81611740565b82525050565b5f6020820190506117735f830184611751565b92915050565b7f4e487b71000000000000000000000000000000000000000000000000000000005f52602160045260245ffd5b600281106117b7576117b6611779565b5b50565b5f8190506117c7826117a6565b919050565b5f6117d6826117ba565b9050919050565b6117e6816117cc565b82525050565b5f6020820190506117ff5f8301846117dd565b92915050565b61180e81611740565b8114611818575f80fd5b50565b5f8135905061182981611805565b92915050565b5f8083601f84011261184457611843611592565b5b8235905067ffffffffffffffff81111561186157611860611596565b5b60208301915083602082028301111561187d5761187c61159a565b5b9250929050565b5f805f805f805f8060a0898b0312156118a05761189f611413565b5b5f6118ad8b828c0161181b565b98505060206118be8b828c0161181b565b975050604089013567ffffffffffffffff8111156118df576118de611417565b5b6118eb8b828c0161182f565b9650965050606089013567ffffffffffffffff81111561190e5761190d611417565b5b61191a8b828c0161182f565b9450945050608089013567ffffffffffffffff81111561193d5761193c611417565b5b6119498b828c0161159e565b92509250509295985092959890939650565b6119648161141b565b82525050565b5f60208201905061197d5f83018461195b565b92915050565b5f6020828403121561199857611997611413565b5b5f6119a58482850161181b565b91505092915050565b6119b7816114ce565b81146119c1575f80fd5b50565b5f813590506119d2816119ae565b92915050565b5f805f805f8060a087890312156119f2576119f1611413565b5b5f6119ff89828a0161181b565b9650506020611a1089828a0161181b565b9550506040611a2189828a016119c4565b9450506060611a3289828a016119c4565b935050608087013567ffffffffffffffff811115611a5357611a52611417565b5b611a5f89828a0161159e565b92509250509295509295509295565b5f80fd5b7f4e487b71000000000000000000000000000000000000000000000000000000005f52604160045260245ffd5b611aa882611666565b810181811067ffffffffffffffff82111715611ac757611ac6611a72565b5b80604052505050565b5f611ad961140a565b9050611ae58282611a9f565b919050565b5f80fd5b5f611af882611740565b9050919050565b611b0881611aee565b8114611b12575f80fd5b50565b5f81359050611b2381611aff565b92915050565b60028110611b35575f80fd5b50565b5f81359050611b4681611b29565b92915050565b5f80fd5b5f67ffffffffffffffff821115611b6a57611b69611a72565b5b611b7382611666565b9050602081019050919050565b828183375f83830152505050565b5f611ba0611b9b84611b50565b611ad0565b905082815260208101848484011115611bbc57611bbb611b4c565b5b611bc7848285611b80565b509392505050565b5f82601f830112611be357611be2611592565b5b8135611bf3848260208601611b8e565b91505092915050565b5f60a08284031215611c1157611c10611a6e565b5b611c1b60a0611ad0565b90505f611c2a84828501611b15565b5f830152506020611c3d84828501611b38565b6020830152506040611c51848285016119c4565b6040830152506060611c65848285016119c4565b606083015250608082013567ffffffffffffffff811115611c8957611c88611aea565b5b611c9584828501611bcf565b60808301525092915050565b5f60208284031215611cb657611cb5611413565b5b5f82013567ffffffffffffffff811115611cd357611cd2611417565b5b611cdf84828501611bfc565b91505092915050565b5f604082019050611cfb5f830185611751565b611d0860208301846114d7565b9392505050565b5f81519050611d1d816119ae565b92915050565b5f60208284031215611d3857611d37611413565b5b5f611d4584828501611d0f565b91505092915050565b5f606082019050611d615f830186611751565b611d6e60208301856114d7565b611d7b60408301846114d7565b949350505050565b7f4e487b71000000000000000000000000000000000000000000000000000000005f52602260045260245ffd5b5f6002820490506001821680611dc757607f821691505b602082108103611dda57611dd9611d83565b5b50919050565b5f819050815f5260205f209050919050565b5f6020601f8301049050919050565b5f82821b905092915050565b5f60088302611e3c7fffffffffffffffffffffffffffffffffffffffffffffffffffffffffffffffff82611e01565b611e468683611e01565b95508019841693508086168417925050509392505050565b5f611e78611e73611e6e846114ce565b61151e565b6114ce565b9050919050565b5f819050919050565b611e9183611e5e565b611ea5611e9d82611e7f565b848454611e0d565b825550505050565b5f90565b611eb9611ead565b611ec4818484611e88565b505050565b5b81811015611ee757611edc5f82611eb1565b600181019050611eca565b5050565b601f821115611f2c57611efd81611de0565b611f0684611df2565b81016020851015611f15578190505b611f29611f2185611df2565b830182611ec9565b50505b505050565b5f82821c905092915050565b5f611f4c5f1984600802611f31565b1980831691505092915050565b5f611f648383611f3d565b9150826002028217905092915050565b611f7d8261163e565b67ffffffffffffffff811115611f9657611f95611a72565b5b611fa08254611db0565b611fab828285611eeb565b5f60209050601f831160018114611fdc575f8415611fca578287015190505b611fd48582611f59565b86555061203b565b601f198416611fea86611de0565b5f5b8281101561201157848901518255600182019150602085019450602081019050611fec565b8683101561202e578489015161202a601f891682611f3d565b8355505b6001600288020188555050505b505050505050565b61204c816114ce565b82525050565b5f82825260208201905092915050565b5f61206c8261163e565b6120768185612052565b9350612086818560208601611658565b61208f81611666565b840191505092915050565b5f606083015f8301516120af5f860182612043565b5060208301516120c26020860182612043565b50604083015184820360408601526120da8282612062565b9150508091505092915050565b5f6020820190508181035f8301526120ff818461209a565b905092915050565b6003811061211857612117611779565b5b50565b5f81905061212882612107565b919050565b5f6121378261211b565b9050919050565b6121478161212d565b82525050565b61215681611740565b82525050565b5f608083015f8301516121715f86018261213e565b506020830151612184602086018261214d565b506040830151612197604086018261214d565b50606083015184820360608601526121af8282612062565b9150508091505092915050565b5f6020820190508181035f8301526121d4818461215c565b905092915050565b5f604082840312156121f1576121f0611a6e565b5b6121fb6040611ad0565b90505f61220a8482850161181b565b5f83015250602082013567ffffffffffffffff81111561222d5761222c611aea565b5b61223984828501611bcf565b60208301525092915050565b5f6020828403121561225a57612259611413565b5b5f82013567ffffffffffffffff81111561227757612276611417565b5b612283848285016121dc565b91505092915050565b7f4e487b71000000000000000000000000000000000000000000000000000000005f52601160045260245ffd5b5f6122c3826114ce565b91507fffffffffffffffffffffffffffffffffffffffffffffffffffffffffffffffff82036122f5576122f461228c565b5b600182019050919050565b5f819050919050565b5f61232361231e61231984612300565b61151e565b6114ce565b9050919050565b61233381612309565b82525050565b5f60a08201905061234c5f830188611751565b6123596020830187611751565b61236660408301866114d7565b612373606083018561232a565b81810360808301526123858184611676565b90509695505050505050565b5f8160601b9050919050565b5f6123a782612391565b9050919050565b5f6123b88261239d565b9050919050565b6123d06123cb82611559565b6123ae565b82525050565b6123e76123e282611740565b6123ae565b82525050565b5f819050919050565b612407612402826114ce565b6123ed565b82525050565b5f81905092915050565b5f6124218261163e565b61242b818561240d565b935061243b818560208601611658565b80840191505092915050565b5f61245282886123bf565b60148201915061246282876123d6565b60148201915061247282866123f6565b60208201915061248282856123f6565b6020820191506124928284612417565b91508190509695505050505050565b5f604083015f8301516124b65f86018261214d565b50602083015184820360208601526124ce8282612062565b9150508091505092915050565b5f6020820190508181035f8301526124f381846124a1565b905092915050565b5f60408201905061250e5f830185611751565b81810360208301526125208184611676565b90509392505050565b5f612533826114ce565b915061253e836114ce565b92508282039050818111156125565761255561228c565b5b92915050565b5f60a08201905061256f5f830188611751565b61257c6020830187611751565b61258960408301866114d7565b61259660608301856114d7565b81810360808301526125a88184611676565b9050969550505050505056fea264697066735822122078fa2e7b7c8caacdd24955c88c2a014503737a27f46e83472456bda350533d9264736f6c63430008190033",
  "linkReferences": {},
  "deployedLinkReferences": {}
}