{
  "_format": "hh-sol-artifact-1",
  "contractName": "ERC1155Incentive",
  "sourceName": "contracts/incentives/ERC1155Incentive.sol",
  "abi": [
    {
      "inputs": [],
      "stateMutability": "nonpayable",
      "type": "constructor"
    },
    {
      "inputs": [],
      "name": "AlreadyInitialized",
      "type": "error"
    },
    {
      "inputs": [],
      "name": "ClaimFailed",
      "type": "error"
    },
    {
      "inputs": [
        {
          "internalType": "address",
          "name": "caller",
          "type": "address"
        },
        {
          "internalType": "bytes",
          "name": "data",
          "type": "bytes"
        }
      ],
      "name": "ClaimFailed",
      "type": "error"
    },
    {
      "inputs": [],
      "name": "CloneAlreadyInitialized",
      "type": "error"
    },
    {
      "inputs": [],
      "name": "InitializerNotImplemented",
      "type": "error"
    },
    {
      "inputs": [
        {
          "internalType": "address",
          "name": "asset",
          "type": "address"
        },
        {
          "internalType": "uint256",
          "name": "available",
          "type": "uint256"
        },
        {
          "internalType": "uint256",
          "name": "required",
          "type": "uint256"
        }
      ],
      "name": "InsufficientFunds",
      "type": "error"
    },
    {
      "inputs": [],
      "name": "InvalidInitialization",
      "type": "error"
    },
    {
      "inputs": [],
      "name": "InvalidInitialization",
      "type": "error"
    },
    {
      "inputs": [],
      "name": "InvalidInitializationData",
      "type": "error"
    },
    {
      "inputs": [],
      "name": "NewOwnerIsZeroAddress",
      "type": "error"
    },
    {
      "inputs": [],
      "name": "NoHandoverRequest",
      "type": "error"
    },
    {
      "inputs": [],
      "name": "NotClaimable",
      "type": "error"
    },
    {
      "inputs": [],
      "name": "NotImplemented",
      "type": "error"
    },
    {
      "inputs": [],
      "name": "NotInitializing",
      "type": "error"
    },
    {
      "inputs": [],
      "name": "Reentrancy",
      "type": "error"
    },
    {
      "inputs": [],
      "name": "Unauthorized",
      "type": "error"
    },
    {
      "anonymous": false,
      "inputs": [
        {
          "indexed": true,
          "internalType": "address",
          "name": "recipient",
          "type": "address"
        },
        {
          "indexed": false,
          "internalType": "bytes",
          "name": "data",
          "type": "bytes"
        }
      ],
      "name": "Claimed",
      "type": "event"
    },
    {
      "anonymous": false,
      "inputs": [
        {
          "indexed": false,
          "internalType": "uint64",
          "name": "version",
          "type": "uint64"
        }
      ],
      "name": "Initialized",
      "type": "event"
    },
    {
      "anonymous": false,
      "inputs": [
        {
          "indexed": true,
          "internalType": "address",
          "name": "pendingOwner",
          "type": "address"
        }
      ],
      "name": "OwnershipHandoverCanceled",
      "type": "event"
    },
    {
      "anonymous": false,
      "inputs": [
        {
          "indexed": true,
          "internalType": "address",
          "name": "pendingOwner",
          "type": "address"
        }
      ],
      "name": "OwnershipHandoverRequested",
      "type": "event"
    },
    {
      "anonymous": false,
      "inputs": [
        {
          "indexed": true,
          "internalType": "address",
          "name": "oldOwner",
          "type": "address"
        },
        {
          "indexed": true,
          "internalType": "address",
          "name": "newOwner",
          "type": "address"
        }
      ],
      "name": "OwnershipTransferred",
      "type": "event"
    },
    {
      "inputs": [],
      "name": "asset",
      "outputs": [
        {
          "internalType": "contract IERC1155",
          "name": "",
          "type": "address"
        }
      ],
      "stateMutability": "view",
      "type": "function"
    },
    {
      "inputs": [],
      "name": "cancelOwnershipHandover",
      "outputs": [],
      "stateMutability": "payable",
      "type": "function"
    },
    {
      "inputs": [
        {
          "internalType": "bytes",
          "name": "data_",
          "type": "bytes"
        }
      ],
      "name": "claim",
      "outputs": [
        {
          "internalType": "bool",
          "name": "",
          "type": "bool"
        }
      ],
      "stateMutability": "nonpayable",
      "type": "function"
    },
    {
      "inputs": [
        {
          "internalType": "address",
          "name": "",
          "type": "address"
        }
      ],
      "name": "claimed",
      "outputs": [
        {
          "internalType": "bool",
          "name": "",
          "type": "bool"
        }
      ],
      "stateMutability": "view",
      "type": "function"
    },
    {
      "inputs": [],
      "name": "claims",
      "outputs": [
        {
          "internalType": "uint256",
          "name": "",
          "type": "uint256"
        }
      ],
      "stateMutability": "view",
      "type": "function"
    },
    {
      "inputs": [
        {
          "internalType": "address",
          "name": "pendingOwner",
          "type": "address"
        }
      ],
      "name": "completeOwnershipHandover",
      "outputs": [],
      "stateMutability": "payable",
      "type": "function"
    },
    {
      "inputs": [],
      "name": "extraData",
      "outputs": [
        {
          "internalType": "bytes",
          "name": "",
          "type": "bytes"
        }
      ],
      "stateMutability": "view",
      "type": "function"
    },
    {
      "inputs": [
        {
          "internalType": "bytes",
          "name": "data_",
          "type": "bytes"
        }
      ],
      "name": "initialize",
      "outputs": [],
      "stateMutability": "nonpayable",
      "type": "function"
    },
    {
      "inputs": [
        {
          "internalType": "bytes",
          "name": "data_",
          "type": "bytes"
        }
      ],
      "name": "isClaimable",
      "outputs": [
        {
          "internalType": "bool",
          "name": "",
          "type": "bool"
        }
      ],
      "stateMutability": "view",
      "type": "function"
    },
    {
      "inputs": [],
      "name": "limit",
      "outputs": [
        {
          "internalType": "uint256",
          "name": "",
          "type": "uint256"
        }
      ],
      "stateMutability": "view",
      "type": "function"
    },
    {
      "inputs": [
        {
          "internalType": "address",
          "name": "",
          "type": "address"
        },
        {
          "internalType": "address",
          "name": "",
          "type": "address"
        },
        {
          "internalType": "uint256[]",
          "name": "",
          "type": "uint256[]"
        },
        {
          "internalType": "uint256[]",
          "name": "",
          "type": "uint256[]"
        },
        {
          "internalType": "bytes",
          "name": "",
          "type": "bytes"
        }
      ],
      "name": "onERC1155BatchReceived",
      "outputs": [
        {
          "internalType": "bytes4",
          "name": "",
          "type": "bytes4"
        }
      ],
      "stateMutability": "pure",
      "type": "function"
    },
    {
      "inputs": [
        {
          "internalType": "address",
          "name": "",
          "type": "address"
        },
        {
          "internalType": "address",
          "name": "",
          "type": "address"
        },
        {
          "internalType": "uint256",
          "name": "",
          "type": "uint256"
        },
        {
          "internalType": "uint256",
          "name": "",
          "type": "uint256"
        },
        {
          "internalType": "bytes",
          "name": "",
          "type": "bytes"
        }
      ],
      "name": "onERC1155Received",
      "outputs": [
        {
          "internalType": "bytes4",
          "name": "",
          "type": "bytes4"
        }
      ],
      "stateMutability": "pure",
      "type": "function"
    },
    {
      "inputs": [],
      "name": "owner",
      "outputs": [
        {
          "internalType": "address",
          "name": "result",
          "type": "address"
        }
      ],
      "stateMutability": "view",
      "type": "function"
    },
    {
      "inputs": [
        {
          "internalType": "address",
          "name": "pendingOwner",
          "type": "address"
        }
      ],
      "name": "ownershipHandoverExpiresAt",
      "outputs": [
        {
          "internalType": "uint256",
          "name": "result",
          "type": "uint256"
        }
      ],
      "stateMutability": "view",
      "type": "function"
    },
    {
      "inputs": [
        {
          "internalType": "bytes",
          "name": "data_",
          "type": "bytes"
        }
      ],
      "name": "preflight",
      "outputs": [
        {
          "internalType": "bytes",
          "name": "budgetData",
          "type": "bytes"
        }
      ],
      "stateMutability": "view",
      "type": "function"
    },
    {
      "inputs": [
        {
          "internalType": "bytes",
          "name": "data_",
          "type": "bytes"
        }
      ],
      "name": "reclaim",
      "outputs": [
        {
          "internalType": "bool",
          "name": "",
          "type": "bool"
        }
      ],
      "stateMutability": "nonpayable",
      "type": "function"
    },
    {
      "inputs": [],
      "name": "renounceOwnership",
      "outputs": [],
      "stateMutability": "payable",
      "type": "function"
    },
    {
      "inputs": [],
      "name": "requestOwnershipHandover",
      "outputs": [],
      "stateMutability": "payable",
      "type": "function"
    },
    {
      "inputs": [],
      "name": "strategy",
      "outputs": [
        {
          "internalType": "enum ERC1155Incentive.Strategy",
          "name": "",
          "type": "uint8"
        }
      ],
      "stateMutability": "view",
      "type": "function"
    },
    {
      "inputs": [
        {
          "internalType": "bytes4",
          "name": "interfaceId",
          "type": "bytes4"
        }
      ],
      "name": "supportsInterface",
      "outputs": [
        {
          "internalType": "bool",
          "name": "",
          "type": "bool"
        }
      ],
      "stateMutability": "view",
      "type": "function"
    },
    {
      "inputs": [],
      "name": "tokenId",
      "outputs": [
        {
          "internalType": "uint256",
          "name": "",
          "type": "uint256"
        }
      ],
      "stateMutability": "view",
      "type": "function"
    },
    {
      "inputs": [
        {
          "internalType": "address",
          "name": "newOwner",
          "type": "address"
        }
      ],
      "name": "transferOwnership",
      "outputs": [],
      "stateMutability": "payable",
      "type": "function"
    }
  ],
  "bytecode": "0x60806040523480156200001157600080fd5b5062000023336200003960201b60201c565b620000336200011f60201b60201c565b620001c1565b620000496200019160201b60201c565b15620000c7577fffffffffffffffffffffffffffffffffffffffffffffffffffffffff748739278054156200008657630dc149f06000526004601cfd5b8160601b60601c9150811560ff1b821781558160007f8be0079c531659141344cd1fd0a4f28419497f9722a3daafe3b4186f6b6457e0600080a3506200011c565b8060601b60601c9050807fffffffffffffffffffffffffffffffffffffffffffffffffffffffff74873927558060007f8be0079c531659141344cd1fd0a4f28419497f9722a3daafe3b4186f6b6457e0600080a35b50565b6000620001316200019660201b60201c565b9050805460018116156200014d5763f92ee8a96000526004601cfd5b8160c01c808260011c146200018c578060011b8355806020527fc7f505b2f371ae2175ee4913f4499e1f2633a7b5936321eed1cdaeb6115181d2602080a15b505050565b600090565b60007fffffffffffffffffffffffffffffffffffffffffffffffffffffffffbf60113260001b905090565b61262880620001d16000396000f3fe6080604052600436106101355760003560e01c8063a8c62e76116100ab578063e18e65081161006f578063e18e6508146103df578063f04e283e1461041c578063f1c30ec014610438578063f23a6e6114610475578063f2fde38b146104b2578063fee81cf4146104ce57610135565b8063a8c62e76146102d2578063bc197c81146102fd578063c63ff8dd1461033a578063c884ef8314610377578063dcc59b6f146103b457610135565b80634e7165a2116100fd5780634e7165a21461020057806354d1f13d1461023d578063609d333414610247578063715018a6146102725780638da5cb5b1461027c578063a4d66daf146102a757610135565b806301ffc9a71461013a57806317d70f7c1461017757806325692962146101a257806338d52e0f146101ac578063439fab91146101d7575b600080fd5b34801561014657600080fd5b50610161600480360381019061015c9190611474565b61050b565b60405161016e91906114bc565b60405180910390f35b34801561018357600080fd5b5061018c610585565b60405161019991906114f0565b60405180910390f35b6101aa61058b565b005b3480156101b857600080fd5b506101c16105df565b6040516101ce919061158a565b60405180910390f35b3480156101e357600080fd5b506101fe60048036038101906101f9919061160a565b610605565b005b34801561020c57600080fd5b506102276004803603810190610222919061160a565b6108b3565b60405161023491906116e7565b60405180910390f35b610245610998565b005b34801561025357600080fd5b5061025c6109d4565b60405161026991906116e7565b60405180910390f35b61027a610a62565b005b34801561028857600080fd5b50610291610a76565b60405161029e919061172a565b60405180910390f35b3480156102b357600080fd5b506102bc610a9f565b6040516102c991906114f0565b60405180910390f35b3480156102de57600080fd5b506102e7610aa5565b6040516102f491906117bc565b60405180910390f35b34801561030957600080fd5b50610324600480360381019061031f9190611859565b610ab8565b6040516103319190611944565b60405180910390f35b34801561034657600080fd5b50610361600480360381019061035c919061160a565b610ad0565b60405161036e91906114bc565b60405180910390f35b34801561038357600080fd5b5061039e6004803603810190610399919061195f565b610d38565b6040516103ab91906114bc565b60405180910390f35b3480156103c057600080fd5b506103c9610d58565b6040516103d691906114f0565b60405180910390f35b3480156103eb57600080fd5b506104066004803603810190610401919061160a565b610d5e565b60405161041391906114bc565b60405180910390f35b6104366004803603810190610431919061195f565b610d88565b005b34801561044457600080fd5b5061045f600480360381019061045a919061160a565b610dc9565b60405161046c91906114bc565b60405180910390f35b34801561048157600080fd5b5061049c600480360381019061049791906119b8565b610fd3565b6040516104a99190611944565b60405180910390f35b6104cc60048036038101906104c7919061195f565b610fe9565b005b3480156104da57600080fd5b506104f560048036038101906104f0919061195f565b611013565b60405161050291906114f0565b60405180910390f35b60007f4e2312e0000000000000000000000000000000000000000000000000000000007bffffffffffffffffffffffffffffffffffffffffffffffffffffffff1916827bffffffffffffffffffffffffffffffffffffffffffffffffffffffff1916148061057e575061057d8261102e565b5b9050919050565b60045481565b60006105956110a8565b67ffffffffffffffff164201905063389a75e1600c5233600052806020600c2055337fdbf36a107da19e49527a7176a1babf963b4b0ff8cde35ee35d6cd8f1f9ac7e1d600080a250565b600260009054906101000a900473ffffffffffffffffffffffffffffffffffffffff1681565b600061060f6110b3565b905080546003825580156106425760018160011c14303b106106395763f92ee8a96000526004601cfd5b818160ff1b1b91505b50600083838101906106549190611c97565b905060018081111561066957610668611745565b5b816020015160018111156106805761067f611745565b5b036106b7576040517fd623472500000000000000000000000000000000000000000000000000000000815260040160405180910390fd5b60008160600151036106f5576040517ff92ee8a900000000000000000000000000000000000000000000000000000000815260040160405180910390fd5b6000816000015173ffffffffffffffffffffffffffffffffffffffff1662fdd58e3084604001516040518363ffffffff1660e01b8152600401610739929190611ce0565b602060405180830381865afa158015610756573d6000803e3d6000fd5b505050506040513d601f19601f8201168201806040525081019061077a9190611d1e565b905081606001518110156107d15781600001518183606001516040517f5c54305e0000000000000000000000000000000000000000000000000000000081526004016107c893929190611d4b565b60405180910390fd5b8160000151600260006101000a81548173ffffffffffffffffffffffffffffffffffffffff021916908373ffffffffffffffffffffffffffffffffffffffff1602179055508160200151600260146101000a81548160ff0219169083600181111561083f5761083e611745565b5b02179055508160400151600481905550816060015160038190555081608001516005908161086d9190611f84565b50610877336110de565b505080156108ae576002815560016020527fc7f505b2f371ae2175ee4913f4499e1f2633a7b5936321eed1cdaeb6115181d2602080a15b505050565b6060600083838101906108c69190611c97565b905060405180608001604052806002808111156108e6576108e5611745565b5b8152602001826000015173ffffffffffffffffffffffffffffffffffffffff1681526020013073ffffffffffffffffffffffffffffffffffffffff16815260200160405180606001604052808460400151815260200184606001518152602001846080015181525060405160200161095e91906120ff565b60405160208183030381529060405281525060405160200161098091906121db565b60405160208183030381529060405291505092915050565b63389a75e1600c523360005260006020600c2055337ffa7b8eab7da67f412cc9575ed43464468f9bfbae89d1675917346ca6d8fe3c92600080a2565b600580546109e190611db1565b80601f0160208091040260200160405190810160405280929190818152602001828054610a0d90611db1565b8015610a5a5780601f10610a2f57610100808354040283529160200191610a5a565b820191906000526020600020905b815481529060010190602001808311610a3d57829003601f168201915b505050505081565b610a6a6111b9565b610a7460006111f1565b565b60007fffffffffffffffffffffffffffffffffffffffffffffffffffffffff7487392754905090565b60035481565b600260149054906101000a900460ff1681565b600063bc197c8160e01b905098975050505050505050565b6000610ada6111b9565b60006001811115610aee57610aed611745565b5b600260149054906101000a900460ff166001811115610b1057610b0f611745565b5b03610d2d5760008383810190610b269190612269565b9050610b3581600001516112b9565b610b6b576040517f6247a84e00000000000000000000000000000000000000000000000000000000815260040160405180910390fd5b600080815480929190610b7d906122e1565b91905055506001806000836000015173ffffffffffffffffffffffffffffffffffffffff1673ffffffffffffffffffffffffffffffffffffffff16815260200190815260200160002060006101000a81548160ff021916908315150217905550600260009054906101000a900473ffffffffffffffffffffffffffffffffffffffff1673ffffffffffffffffffffffffffffffffffffffff1663f242432a308360000151600454600186602001516040518663ffffffff1660e01b8152600401610c4b959493929190612364565b600060405180830381600087803b158015610c6557600080fd5b505af1158015610c79573d6000803e3d6000fd5b50505050806000015173ffffffffffffffffffffffffffffffffffffffff167f9ad2e7a4af16dceda9cce4274b2f59c328d8c012eb0e15eb5e1e73b7d8f264d3600260009054906101000a900473ffffffffffffffffffffffffffffffffffffffff16836000015160045460018660200151604051602001610cff95949392919061247a565b604051602081830303815290604052604051610d1b91906116e7565b60405180910390a26001915050610d32565b600090505b92915050565b60016020528060005260406000206000915054906101000a900460ff1681565b60005481565b6000808383810190610d709190612269565b9050610d7f81600001516112b9565b91505092915050565b610d906111b9565b63389a75e1600c52806000526020600c208054421115610db857636f5e88186000526004601cfd5b6000815550610dc6816111f1565b50565b6000610dd36111b9565b60008383810190610de49190612269565b905060008160200151806020019051810190610e009190611d1e565b9050600354811115610e6a573382604051602001610e1e9190612512565b6040516020818303038152906040526040517f4139d81d000000000000000000000000000000000000000000000000000000008152600401610e61929190612534565b60405180910390fd5b8060036000828254610e7c9190612564565b92505081905550600260009054906101000a900473ffffffffffffffffffffffffffffffffffffffff1673ffffffffffffffffffffffffffffffffffffffff1663f242432a3084600001516004548587602001516040518663ffffffff1660e01b8152600401610ef0959493929190612598565b600060405180830381600087803b158015610f0a57600080fd5b505af1158015610f1e573d6000803e3d6000fd5b50505050816000015173ffffffffffffffffffffffffffffffffffffffff167f9ad2e7a4af16dceda9cce4274b2f59c328d8c012eb0e15eb5e1e73b7d8f264d3600260009054906101000a900473ffffffffffffffffffffffffffffffffffffffff168460000151600454858760200151604051602001610fa395949392919061247a565b604051602081830303815290604052604051610fbf91906116e7565b60405180910390a260019250505092915050565b600063f23a6e6160e01b90509695505050505050565b610ff16111b9565b8060601b61100757637448fbae6000526004601cfd5b611010816111f1565b50565b600063389a75e1600c52816000526020600c20549050919050565b60007f8dbd4bfc000000000000000000000000000000000000000000000000000000007bffffffffffffffffffffffffffffffffffffffffffffffffffffffff1916827bffffffffffffffffffffffffffffffffffffffffffffffffffffffff191614806110a157506110a08261131f565b5b9050919050565b60006202a300905090565b60007fffffffffffffffffffffffffffffffffffffffffffffffffffffffffbf60113260001b905090565b6110e6611399565b15611161577fffffffffffffffffffffffffffffffffffffffffffffffffffffffff7487392780541561112157630dc149f06000526004601cfd5b8160601b60601c9150811560ff1b821781558160007f8be0079c531659141344cd1fd0a4f28419497f9722a3daafe3b4186f6b6457e0600080a3506111b6565b8060601b60601c9050807fffffffffffffffffffffffffffffffffffffffffffffffffffffffff74873927558060007f8be0079c531659141344cd1fd0a4f28419497f9722a3daafe3b4186f6b6457e0600080a35b50565b7fffffffffffffffffffffffffffffffffffffffffffffffffffffffff748739275433146111ef576382b429006000526004601cfd5b565b6111f9611399565b1561125f577fffffffffffffffffffffffffffffffffffffffffffffffffffffffff748739278160601b60601c91508181547f8be0079c531659141344cd1fd0a4f28419497f9722a3daafe3b4186f6b6457e0600080a3811560ff1b82178155506112b6565b7fffffffffffffffffffffffffffffffffffffffffffffffffffffffff748739278160601b60601c91508181547f8be0079c531659141344cd1fd0a4f28419497f9722a3daafe3b4186f6b6457e0600080a3818155505b50565b6000600160008373ffffffffffffffffffffffffffffffffffffffff1673ffffffffffffffffffffffffffffffffffffffff16815260200190815260200160002060009054906101000a900460ff161580156113185750600354600054105b9050919050565b60007f42606236000000000000000000000000000000000000000000000000000000007bffffffffffffffffffffffffffffffffffffffffffffffffffffffff1916827bffffffffffffffffffffffffffffffffffffffffffffffffffffffff1916148061139257506113918261139e565b5b9050919050565b600090565b60007f01ffc9a7000000000000000000000000000000000000000000000000000000007bffffffffffffffffffffffffffffffffffffffffffffffffffffffff1916827bffffffffffffffffffffffffffffffffffffffffffffffffffffffff1916149050919050565b6000604051905090565b600080fd5b600080fd5b60007fffffffff0000000000000000000000000000000000000000000000000000000082169050919050565b6114518161141c565b811461145c57600080fd5b50565b60008135905061146e81611448565b92915050565b60006020828403121561148a57611489611412565b5b60006114988482850161145f565b91505092915050565b60008115159050919050565b6114b6816114a1565b82525050565b60006020820190506114d160008301846114ad565b92915050565b6000819050919050565b6114ea816114d7565b82525050565b600060208201905061150560008301846114e1565b92915050565b600073ffffffffffffffffffffffffffffffffffffffff82169050919050565b6000819050919050565b600061155061154b6115468461150b565b61152b565b61150b565b9050919050565b600061156282611535565b9050919050565b600061157482611557565b9050919050565b61158481611569565b82525050565b600060208201905061159f600083018461157b565b92915050565b600080fd5b600080fd5b600080fd5b60008083601f8401126115ca576115c96115a5565b5b8235905067ffffffffffffffff8111156115e7576115e66115aa565b5b602083019150836001820283011115611603576116026115af565b5b9250929050565b6000806020838503121561162157611620611412565b5b600083013567ffffffffffffffff81111561163f5761163e611417565b5b61164b858286016115b4565b92509250509250929050565b600081519050919050565b600082825260208201905092915050565b60005b83811015611691578082015181840152602081019050611676565b60008484015250505050565b6000601f19601f8301169050919050565b60006116b982611657565b6116c38185611662565b93506116d3818560208601611673565b6116dc8161169d565b840191505092915050565b6000602082019050818103600083015261170181846116ae565b905092915050565b60006117148261150b565b9050919050565b61172481611709565b82525050565b600060208201905061173f600083018461171b565b92915050565b7f4e487b7100000000000000000000000000000000000000000000000000000000600052602160045260246000fd5b6002811061178557611784611745565b5b50565b600081905061179682611774565b919050565b60006117a682611788565b9050919050565b6117b68161179b565b82525050565b60006020820190506117d160008301846117ad565b92915050565b6117e081611709565b81146117eb57600080fd5b50565b6000813590506117fd816117d7565b92915050565b60008083601f840112611819576118186115a5565b5b8235905067ffffffffffffffff811115611836576118356115aa565b5b602083019150836020820283011115611852576118516115af565b5b9250929050565b60008060008060008060008060a0898b03121561187957611878611412565b5b60006118878b828c016117ee565b98505060206118988b828c016117ee565b975050604089013567ffffffffffffffff8111156118b9576118b8611417565b5b6118c58b828c01611803565b9650965050606089013567ffffffffffffffff8111156118e8576118e7611417565b5b6118f48b828c01611803565b9450945050608089013567ffffffffffffffff81111561191757611916611417565b5b6119238b828c016115b4565b92509250509295985092959890939650565b61193e8161141c565b82525050565b60006020820190506119596000830184611935565b92915050565b60006020828403121561197557611974611412565b5b6000611983848285016117ee565b91505092915050565b611995816114d7565b81146119a057600080fd5b50565b6000813590506119b28161198c565b92915050565b60008060008060008060a087890312156119d5576119d4611412565b5b60006119e389828a016117ee565b96505060206119f489828a016117ee565b9550506040611a0589828a016119a3565b9450506060611a1689828a016119a3565b935050608087013567ffffffffffffffff811115611a3757611a36611417565b5b611a4389828a016115b4565b92509250509295509295509295565b600080fd5b7f4e487b7100000000000000000000000000000000000000000000000000000000600052604160045260246000fd5b611a8f8261169d565b810181811067ffffffffffffffff82111715611aae57611aad611a57565b5b80604052505050565b6000611ac1611408565b9050611acd8282611a86565b919050565b600080fd5b6000611ae282611709565b9050919050565b611af281611ad7565b8114611afd57600080fd5b50565b600081359050611b0f81611ae9565b92915050565b60028110611b2257600080fd5b50565b600081359050611b3481611b15565b92915050565b600080fd5b600067ffffffffffffffff821115611b5a57611b59611a57565b5b611b638261169d565b9050602081019050919050565b82818337600083830152505050565b6000611b92611b8d84611b3f565b611ab7565b905082815260208101848484011115611bae57611bad611b3a565b5b611bb9848285611b70565b509392505050565b600082601f830112611bd657611bd56115a5565b5b8135611be6848260208601611b7f565b91505092915050565b600060a08284031215611c0557611c04611a52565b5b611c0f60a0611ab7565b90506000611c1f84828501611b00565b6000830152506020611c3384828501611b25565b6020830152506040611c47848285016119a3565b6040830152506060611c5b848285016119a3565b606083015250608082013567ffffffffffffffff811115611c7f57611c7e611ad2565b5b611c8b84828501611bc1565b60808301525092915050565b600060208284031215611cad57611cac611412565b5b600082013567ffffffffffffffff811115611ccb57611cca611417565b5b611cd784828501611bef565b91505092915050565b6000604082019050611cf5600083018561171b565b611d0260208301846114e1565b9392505050565b600081519050611d188161198c565b92915050565b600060208284031215611d3457611d33611412565b5b6000611d4284828501611d09565b91505092915050565b6000606082019050611d60600083018661171b565b611d6d60208301856114e1565b611d7a60408301846114e1565b949350505050565b7f4e487b7100000000000000000000000000000000000000000000000000000000600052602260045260246000fd5b60006002820490506001821680611dc957607f821691505b602082108103611ddc57611ddb611d82565b5b50919050565b60008190508160005260206000209050919050565b60006020601f8301049050919050565b600082821b905092915050565b600060088302611e447fffffffffffffffffffffffffffffffffffffffffffffffffffffffffffffffff82611e07565b611e4e8683611e07565b95508019841693508086168417925050509392505050565b6000611e81611e7c611e77846114d7565b61152b565b6114d7565b9050919050565b6000819050919050565b611e9b83611e66565b611eaf611ea782611e88565b848454611e14565b825550505050565b600090565b611ec4611eb7565b611ecf818484611e92565b505050565b5b81811015611ef357611ee8600082611ebc565b600181019050611ed5565b5050565b601f821115611f3857611f0981611de2565b611f1284611df7565b81016020851015611f21578190505b611f35611f2d85611df7565b830182611ed4565b50505b505050565b600082821c905092915050565b6000611f5b60001984600802611f3d565b1980831691505092915050565b6000611f748383611f4a565b9150826002028217905092915050565b611f8d82611657565b67ffffffffffffffff811115611fa657611fa5611a57565b5b611fb08254611db1565b611fbb828285611ef7565b600060209050601f831160018114611fee5760008415611fdc578287015190505b611fe68582611f68565b86555061204e565b601f198416611ffc86611de2565b60005b8281101561202457848901518255600182019150602085019450602081019050611fff565b86831015612041578489015161203d601f891682611f4a565b8355505b6001600288020188555050505b505050505050565b61205f816114d7565b82525050565b600082825260208201905092915050565b600061208182611657565b61208b8185612065565b935061209b818560208601611673565b6120a48161169d565b840191505092915050565b60006060830160008301516120c76000860182612056565b5060208301516120da6020860182612056565b50604083015184820360408601526120f28282612076565b9150508091505092915050565b6000602082019050818103600083015261211981846120af565b905092915050565b6003811061213257612131611745565b5b50565b600081905061214382612121565b919050565b600061215382612135565b9050919050565b61216381612148565b82525050565b61217281611709565b82525050565b6000608083016000830151612190600086018261215a565b5060208301516121a36020860182612169565b5060408301516121b66040860182612169565b50606083015184820360608601526121ce8282612076565b9150508091505092915050565b600060208201905081810360008301526121f58184612178565b905092915050565b60006040828403121561221357612212611a52565b5b61221d6040611ab7565b9050600061222d848285016117ee565b600083015250602082013567ffffffffffffffff81111561225157612250611ad2565b5b61225d84828501611bc1565b60208301525092915050565b60006020828403121561227f5761227e611412565b5b600082013567ffffffffffffffff81111561229d5761229c611417565b5b6122a9848285016121fd565b91505092915050565b7f4e487b7100000000000000000000000000000000000000000000000000000000600052601160045260246000fd5b60006122ec826114d7565b91507fffffffffffffffffffffffffffffffffffffffffffffffffffffffffffffffff820361231e5761231d6122b2565b5b600182019050919050565b6000819050919050565b600061234e61234961234484612329565b61152b565b6114d7565b9050919050565b61235e81612333565b82525050565b600060a082019050612379600083018861171b565b612386602083018761171b565b61239360408301866114e1565b6123a06060830185612355565b81810360808301526123b281846116ae565b90509695505050505050565b60008160601b9050919050565b60006123d6826123be565b9050919050565b60006123e8826123cb565b9050919050565b6124006123fb82611569565b6123dd565b82525050565b61241761241282611709565b6123dd565b82525050565b6000819050919050565b612438612433826114d7565b61241d565b82525050565b600081905092915050565b600061245482611657565b61245e818561243e565b935061246e818560208601611673565b80840191505092915050565b600061248682886123ef565b6014820191506124968287612406565b6014820191506124a68286612427565b6020820191506124b68285612427565b6020820191506124c68284612449565b91508190509695505050505050565b60006040830160008301516124ed6000860182612169565b50602083015184820360208601526125058282612076565b9150508091505092915050565b6000602082019050818103600083015261252c81846124d5565b905092915050565b6000604082019050612549600083018561171b565b818103602083015261255b81846116ae565b90509392505050565b600061256f826114d7565b915061257a836114d7565b9250828203905081811115612592576125916122b2565b5b92915050565b600060a0820190506125ad600083018861171b565b6125ba602083018761171b565b6125c760408301866114e1565b6125d460608301856114e1565b81810360808301526125e681846116ae565b9050969550505050505056fea2646970667358221220679437299c5f6c95c6543d1a285897730760c671510531bc67d002acf1298bae64736f6c63430008180033",
  "linkReferences": {},
  "deployedLinkReferences": {}
}