{
  "_format": "hh-sol-artifact-1",
  "contractName": "VestingBudget",
  "sourceName": "contracts/budgets/VestingBudget.sol",
  "abi": [
    {
      "inputs": [],
      "stateMutability": "nonpayable",
      "type": "constructor"
    },
    {
      "inputs": [],
      "name": "AlreadyInitialized",
      "type": "error"
    },
    {
      "inputs": [],
      "name": "CloneAlreadyInitialized",
      "type": "error"
    },
    {
      "inputs": [],
      "name": "InitializerNotImplemented",
      "type": "error"
    },
    {
      "inputs": [
        {
          "internalType": "address",
          "name": "asset",
          "type": "address"
        },
        {
          "internalType": "uint256",
          "name": "available",
          "type": "uint256"
        },
        {
          "internalType": "uint256",
          "name": "required",
          "type": "uint256"
        }
      ],
      "name": "InsufficientFunds",
      "type": "error"
    },
    {
      "inputs": [
        {
          "internalType": "address",
          "name": "asset",
          "type": "address"
        },
        {
          "internalType": "uint256",
          "name": "amount",
          "type": "uint256"
        }
      ],
      "name": "InvalidAllocation",
      "type": "error"
    },
    {
      "inputs": [],
      "name": "InvalidInitialization",
      "type": "error"
    },
    {
      "inputs": [],
      "name": "InvalidInitializationData",
      "type": "error"
    },
    {
      "inputs": [],
      "name": "LengthMismatch",
      "type": "error"
    },
    {
      "inputs": [],
      "name": "NewOwnerIsZeroAddress",
      "type": "error"
    },
    {
      "inputs": [],
      "name": "NoHandoverRequest",
      "type": "error"
    },
    {
      "inputs": [],
      "name": "NotInitializing",
      "type": "error"
    },
    {
      "inputs": [],
      "name": "Reentrancy",
      "type": "error"
    },
    {
      "inputs": [
        {
          "internalType": "address",
          "name": "asset",
          "type": "address"
        },
        {
          "internalType": "address",
          "name": "to",
          "type": "address"
        },
        {
          "internalType": "uint256",
          "name": "amount",
          "type": "uint256"
        }
      ],
      "name": "TransferFailed",
      "type": "error"
    },
    {
      "inputs": [],
      "name": "Unauthorized",
      "type": "error"
    },
    {
      "anonymous": false,
      "inputs": [
        {
          "indexed": true,
          "internalType": "address",
          "name": "account",
          "type": "address"
        },
        {
          "indexed": false,
          "internalType": "bool",
          "name": "isAuthorized",
          "type": "bool"
        }
      ],
      "name": "Authorized",
      "type": "event"
    },
    {
      "anonymous": false,
      "inputs": [
        {
          "indexed": true,
          "internalType": "address",
          "name": "asset",
          "type": "address"
        },
        {
          "indexed": false,
          "internalType": "address",
          "name": "to",
          "type": "address"
        },
        {
          "indexed": false,
          "internalType": "uint256",
          "name": "amount",
          "type": "uint256"
        }
      ],
      "name": "Distributed",
      "type": "event"
    },
    {
      "anonymous": false,
      "inputs": [
        {
          "indexed": false,
          "internalType": "uint64",
          "name": "version",
          "type": "uint64"
        }
      ],
      "name": "Initialized",
      "type": "event"
    },
    {
      "anonymous": false,
      "inputs": [
        {
          "indexed": true,
          "internalType": "address",
          "name": "pendingOwner",
          "type": "address"
        }
      ],
      "name": "OwnershipHandoverCanceled",
      "type": "event"
    },
    {
      "anonymous": false,
      "inputs": [
        {
          "indexed": true,
          "internalType": "address",
          "name": "pendingOwner",
          "type": "address"
        }
      ],
      "name": "OwnershipHandoverRequested",
      "type": "event"
    },
    {
      "anonymous": false,
      "inputs": [
        {
          "indexed": true,
          "internalType": "address",
          "name": "oldOwner",
          "type": "address"
        },
        {
          "indexed": true,
          "internalType": "address",
          "name": "newOwner",
          "type": "address"
        }
      ],
      "name": "OwnershipTransferred",
      "type": "event"
    },
    {
      "stateMutability": "payable",
      "type": "fallback"
    },
    {
      "inputs": [
        {
          "internalType": "bytes",
          "name": "data_",
          "type": "bytes"
        }
      ],
      "name": "allocate",
      "outputs": [
        {
          "internalType": "bool",
          "name": "",
          "type": "bool"
        }
      ],
      "stateMutability": "payable",
      "type": "function"
    },
    {
      "inputs": [
        {
          "internalType": "address",
          "name": "asset_",
          "type": "address"
        }
      ],
      "name": "available",
      "outputs": [
        {
          "internalType": "uint256",
          "name": "",
          "type": "uint256"
        }
      ],
      "stateMutability": "view",
      "type": "function"
    },
    {
      "inputs": [],
      "name": "cancelOwnershipHandover",
      "outputs": [],
      "stateMutability": "payable",
      "type": "function"
    },
    {
      "inputs": [],
      "name": "cliff",
      "outputs": [
        {
          "internalType": "uint64",
          "name": "",
          "type": "uint64"
        }
      ],
      "stateMutability": "view",
      "type": "function"
    },
    {
      "inputs": [
        {
          "internalType": "address",
          "name": "pendingOwner",
          "type": "address"
        }
      ],
      "name": "completeOwnershipHandover",
      "outputs": [],
      "stateMutability": "payable",
      "type": "function"
    },
    {
      "inputs": [
        {
          "internalType": "bytes",
          "name": "data_",
          "type": "bytes"
        }
      ],
      "name": "disburse",
      "outputs": [
        {
          "internalType": "bool",
          "name": "",
          "type": "bool"
        }
      ],
      "stateMutability": "nonpayable",
      "type": "function"
    },
    {
      "inputs": [
        {
          "internalType": "bytes[]",
          "name": "data_",
          "type": "bytes[]"
        }
      ],
      "name": "disburseBatch",
      "outputs": [
        {
          "internalType": "bool",
          "name": "",
          "type": "bool"
        }
      ],
      "stateMutability": "nonpayable",
      "type": "function"
    },
    {
      "inputs": [
        {
          "internalType": "address",
          "name": "asset_",
          "type": "address"
        }
      ],
      "name": "distributed",
      "outputs": [
        {
          "internalType": "uint256",
          "name": "",
          "type": "uint256"
        }
      ],
      "stateMutability": "view",
      "type": "function"
    },
    {
      "inputs": [],
      "name": "duration",
      "outputs": [
        {
          "internalType": "uint64",
          "name": "",
          "type": "uint64"
        }
      ],
      "stateMutability": "view",
      "type": "function"
    },
    {
      "inputs": [],
      "name": "end",
      "outputs": [
        {
          "internalType": "uint256",
          "name": "",
          "type": "uint256"
        }
      ],
      "stateMutability": "view",
      "type": "function"
    },
    {
      "inputs": [],
      "name": "getComponentInterface",
      "outputs": [
        {
          "internalType": "bytes4",
          "name": "",
          "type": "bytes4"
        }
      ],
      "stateMutability": "pure",
      "type": "function"
    },
    {
      "inputs": [
        {
          "internalType": "bytes",
          "name": "i",
          "type": "bytes"
        }
      ],
      "name": "getGarbageB",
      "outputs": [
        {
          "internalType": "bool",
          "name": "",
          "type": "bool"
        }
      ],
      "stateMutability": "pure",
      "type": "function"
    },
    {
      "inputs": [
        {
          "internalType": "bytes",
          "name": "data_",
          "type": "bytes"
        }
      ],
      "name": "initialize",
      "outputs": [],
      "stateMutability": "nonpayable",
      "type": "function"
    },
    {
      "inputs": [
        {
          "internalType": "address",
          "name": "account_",
          "type": "address"
        }
      ],
      "name": "isAuthorized",
      "outputs": [
        {
          "internalType": "bool",
          "name": "",
          "type": "bool"
        }
      ],
      "stateMutability": "view",
      "type": "function"
    },
    {
      "inputs": [],
      "name": "owner",
      "outputs": [
        {
          "internalType": "address",
          "name": "result",
          "type": "address"
        }
      ],
      "stateMutability": "view",
      "type": "function"
    },
    {
      "inputs": [
        {
          "internalType": "address",
          "name": "pendingOwner",
          "type": "address"
        }
      ],
      "name": "ownershipHandoverExpiresAt",
      "outputs": [
        {
          "internalType": "uint256",
          "name": "result",
          "type": "uint256"
        }
      ],
      "stateMutability": "view",
      "type": "function"
    },
    {
      "inputs": [
        {
          "internalType": "bytes",
          "name": "data_",
          "type": "bytes"
        }
      ],
      "name": "reclaim",
      "outputs": [
        {
          "internalType": "bool",
          "name": "",
          "type": "bool"
        }
      ],
      "stateMutability": "nonpayable",
      "type": "function"
    },
    {
      "inputs": [
        {
          "internalType": "bytes",
          "name": "",
          "type": "bytes"
        }
      ],
      "name": "reconcile",
      "outputs": [
        {
          "internalType": "uint256",
          "name": "",
          "type": "uint256"
        }
      ],
      "stateMutability": "nonpayable",
      "type": "function"
    },
    {
      "inputs": [],
      "name": "renounceOwnership",
      "outputs": [],
      "stateMutability": "payable",
      "type": "function"
    },
    {
      "inputs": [],
      "name": "requestOwnershipHandover",
      "outputs": [],
      "stateMutability": "payable",
      "type": "function"
    },
    {
      "inputs": [
        {
          "internalType": "address[]",
          "name": "account_",
          "type": "address[]"
        },
        {
          "internalType": "bool[]",
          "name": "authorized_",
          "type": "bool[]"
        }
      ],
      "name": "setAuthorized",
      "outputs": [],
      "stateMutability": "nonpayable",
      "type": "function"
    },
    {
      "inputs": [],
      "name": "start",
      "outputs": [
        {
          "internalType": "uint64",
          "name": "",
          "type": "uint64"
        }
      ],
      "stateMutability": "view",
      "type": "function"
    },
    {
      "inputs": [
        {
          "internalType": "bytes4",
          "name": "interfaceId",
          "type": "bytes4"
        }
      ],
      "name": "supportsInterface",
      "outputs": [
        {
          "internalType": "bool",
          "name": "",
          "type": "bool"
        }
      ],
      "stateMutability": "view",
      "type": "function"
    },
    {
      "inputs": [
        {
          "internalType": "address",
          "name": "asset_",
          "type": "address"
        }
      ],
      "name": "total",
      "outputs": [
        {
          "internalType": "uint256",
          "name": "",
          "type": "uint256"
        }
      ],
      "stateMutability": "view",
      "type": "function"
    },
    {
      "inputs": [
        {
          "internalType": "address",
          "name": "newOwner",
          "type": "address"
        }
      ],
      "name": "transferOwnership",
      "outputs": [],
      "stateMutability": "payable",
      "type": "function"
    },
    {
      "stateMutability": "payable",
      "type": "receive"
    }
  ],
  "bytecode": "0x608060405234801561000f575f80fd5b5061001f3361003260201b60201c565b61002d61010e60201b60201c565b6101a7565b61004061017a60201b60201c565b156100b8577fffffffffffffffffffffffffffffffffffffffffffffffffffffffff7487392780541561007a57630dc149f05f526004601cfd5b8160601b60601c9150811560ff1b82178155815f7f8be0079c531659141344cd1fd0a4f28419497f9722a3daafe3b4186f6b6457e05f80a35061010b565b8060601b60601c9050807fffffffffffffffffffffffffffffffffffffffffffffffffffffffff7487392755805f7f8be0079c531659141344cd1fd0a4f28419497f9722a3daafe3b4186f6b6457e05f80a35b50565b5f61011d61017e60201b60201c565b9050805460018116156101375763f92ee8a95f526004601cfd5b8160c01c808260011c14610175578060011b8355806020527fc7f505b2f371ae2175ee4913f4499e1f2633a7b5936321eed1cdaeb6115181d2602080a15b505050565b5f90565b5f7fffffffffffffffffffffffffffffffffffffffffffffffffffffffffbf6011325f1b905090565b612602806101b45f395ff3fe608060405260043610610169575f3560e01c80635aef467a116100d0578063efbe1c1c11610089578063f2fde38b11610063578063f2fde38b14610508578063fa4ca9b114610524578063fe9fbb8014610560578063fee81cf41461059c57610170565b8063efbe1c1c14610486578063f04e283e146104b0578063f1c30ec0146104cc57610170565b80635aef467a1461038057806361400c99146103b0578063715018a6146103ec5780638da5cb5b146103f6578063be9a655514610420578063d2514e841461044a57610170565b80633b6548a2116101225780633b6548a2146102725780634359d28a146102ae578063439fab91146102d6578063451cc191146102fe57806354d1f13d1461033a578063578bcf351461034457610170565b806301ffc9a7146101725780630fb5a6b4146101ae57806310098ad5146101d857806313d033c014610214578063256929621461023e57806328d6183b1461024857610170565b3661017057005b005b34801561017d575f80fd5b50610198600480360381019061019391906119c5565b6105d8565b6040516101a59190611a0a565b60405180910390f35b3480156101b9575f80fd5b506101c2610651565b6040516101cf9190611a45565b60405180910390f35b3480156101e3575f80fd5b506101fe60048036038101906101f99190611ab8565b61066b565b60405161020b9190611afb565b60405180910390f35b34801561021f575f80fd5b506102286106c4565b6040516102359190611a45565b60405180910390f35b6102466106de565b005b348015610253575f80fd5b5061025c61072f565b6040516102699190611b23565b60405180910390f35b34801561027d575f80fd5b5061029860048036038101906102939190611b9d565b610756565b6040516102a59190611a0a565b60405180910390f35b3480156102b9575f80fd5b506102d460048036038101906102cf9190611c92565b610761565b005b3480156102e1575f80fd5b506102fc60048036038101906102f79190611b9d565b61086b565b005b348015610309575f80fd5b50610324600480360381019061031f9190611b9d565b610a15565b6040516103319190611afb565b60405180910390f35b610342610a1c565b005b34801561034f575f80fd5b5061036a60048036038101906103659190611ab8565b610a55565b6040516103779190611afb565b60405180910390f35b61039a60048036038101906103959190611b9d565b610a9a565b6040516103a79190611a0a565b60405180910390f35b3480156103bb575f80fd5b506103d660048036038101906103d19190611d65565b610c67565b6040516103e39190611a0a565b60405180910390f35b6103f4610ccb565b005b348015610401575f80fd5b5061040a610cde565b6040516104179190611dbf565b60405180910390f35b34801561042b575f80fd5b50610434610d06565b6040516104419190611a45565b60405180910390f35b348015610455575f80fd5b50610470600480360381019061046b9190611ab8565b610d1f565b60405161047d9190611afb565b60405180910390f35b348015610491575f80fd5b5061049a610dd6565b6040516104a79190611afb565b60405180910390f35b6104ca60048036038101906104c59190611ab8565b610e1d565b005b3480156104d7575f80fd5b506104f260048036038101906104ed9190611b9d565b610e5b565b6040516104ff9190611a0a565b60405180910390f35b610522600480360381019061051d9190611ab8565b610f40565b005b34801561052f575f80fd5b5061054a60048036038101906105459190611b9d565b610f69565b6040516105579190611a0a565b60405180910390f35b34801561056b575f80fd5b5061058660048036038101906105819190611ab8565b611068565b6040516105939190611a0a565b60405180910390f35b3480156105a7575f80fd5b506105c260048036038101906105bd9190611ab8565b6110f7565b6040516105cf9190611afb565b60405180910390f35b5f7f124c993e000000000000000000000000000000000000000000000000000000007bffffffffffffffffffffffffffffffffffffffffffffffffffffffff1916827bffffffffffffffffffffffffffffffffffffffffffffffffffffffff1916148061064a575061064982611110565b5b9050919050565b600260089054906101000a900467ffffffffffffffff1681565b5f805f8373ffffffffffffffffffffffffffffffffffffffff1673ffffffffffffffffffffffffffffffffffffffff1681526020019081526020015f20546106b38342611189565b6106bd9190611e05565b9050919050565b600260109054906101000a900467ffffffffffffffff1681565b5f6106e761124a565b67ffffffffffffffff164201905063389a75e1600c52335f52806020600c2055337fdbf36a107da19e49527a7176a1babf963b4b0ff8cde35ee35d6cd8f1f9ac7e1d5f80a250565b5f7f124c993e00000000000000000000000000000000000000000000000000000000905090565b5f6001905092915050565b610769611254565b8181905084849050146107a8576040517fff633a3800000000000000000000000000000000000000000000000000000000815260040160405180910390fd5b5f5b84849050811015610864578282828181106107c8576107c7611e38565b5b90506020020160208101906107dd9190611e8f565b60015f8787858181106107f3576107f2611e38565b5b90506020020160208101906108089190611ab8565b73ffffffffffffffffffffffffffffffffffffffff1673ffffffffffffffffffffffffffffffffffffffff1681526020019081526020015f205f6101000a81548160ff02191690831515021790555080806001019150506107aa565b5050505050565b5f61087461128b565b905080546003825580156108a65760018160011c14303b1061089d5763f92ee8a95f526004601cfd5b818160ff1b1b91505b505f83838101906108b791906120d9565b9050806040015160025f6101000a81548167ffffffffffffffff021916908367ffffffffffffffff1602179055508060600151600260086101000a81548167ffffffffffffffff021916908367ffffffffffffffff1602179055508060800151600260106101000a81548167ffffffffffffffff021916908367ffffffffffffffff16021790555061094b815f01516112b4565b5f5b8160200151518110156109d9576001805f8460200151848151811061097557610974611e38565b5b602002602001015173ffffffffffffffffffffffffffffffffffffffff1673ffffffffffffffffffffffffffffffffffffffff1681526020019081526020015f205f6101000a81548160ff021916908315150217905550808060010191505061094d565b50508015610a10576002815560016020527fc7f505b2f371ae2175ee4913f4499e1f2633a7b5936321eed1cdaeb6115181d2602080a15b505050565b5f92915050565b63389a75e1600c52335f525f6020600c2055337ffa7b8eab7da67f412cc9575ed43464468f9bfbae89d1675917346ca6d8fe3c925f80a2565b5f805f8373ffffffffffffffffffffffffffffffffffffffff1673ffffffffffffffffffffffffffffffffffffffff1681526020019081526020015f20549050919050565b5f808383810190610aab9190612284565b90505f6002811115610ac057610abf6122cb565b5b815f01516002811115610ad657610ad56122cb565b5b03610b4c575f8160600151806020019051810190610af4919061235b565b9050805f01513414610b46578160200151815f01516040517fcece04c5000000000000000000000000000000000000000000000000000000008152600401610b3d929190612386565b60405180910390fd5b50610c5b565b60016002811115610b6057610b5f6122cb565b5b815f01516002811115610b7657610b756122cb565b5b03610c51575f8160600151806020019051810190610b94919061235b565b9050610bce826040015130835f0151856020015173ffffffffffffffffffffffffffffffffffffffff1661138a909392919063ffffffff16565b805f0151610bff30846020015173ffffffffffffffffffffffffffffffffffffffff166113e490919063ffffffff16565b1015610c4b578160200151815f01516040517fcece04c5000000000000000000000000000000000000000000000000000000008152600401610c42929190612386565b60405180910390fd5b50610c5a565b5f915050610c61565b5b60019150505b92915050565b5f805f90505b83839050811015610cbf57610ca5848483818110610c8e57610c8d611e38565b5b9050602002810190610ca091906123b9565b610f69565b610cb2575f915050610cc5565b8080600101915050610c6d565b50600190505b92915050565b610cd3611254565b610cdc5f611417565b565b5f7fffffffffffffffffffffffffffffffffffffffffffffffffffffffff7487392754905090565b60025f9054906101000a900467ffffffffffffffff1681565b5f805f73ffffffffffffffffffffffffffffffffffffffff168373ffffffffffffffffffffffffffffffffffffffff1614610d8257610d7d308473ffffffffffffffffffffffffffffffffffffffff166113e490919063ffffffff16565b610d84565b475b9050805f808573ffffffffffffffffffffffffffffffffffffffff1673ffffffffffffffffffffffffffffffffffffffff1681526020019081526020015f2054610dce919061241b565b915050919050565b5f600260089054906101000a900467ffffffffffffffff1660025f9054906101000a900467ffffffffffffffff16610e0e919061244e565b67ffffffffffffffff16905090565b610e25611254565b63389a75e1600c52805f526020600c208054421115610e4b57636f5e88185f526004601cfd5b5f815550610e5881611417565b50565b5f610e64611254565b5f8383810190610e749190612284565b90505f6002811115610e8957610e886122cb565b5b815f01516002811115610e9f57610e9e6122cb565b5b1480610ed2575060016002811115610eba57610eb96122cb565b5b815f01516002811115610ed057610ecf6122cb565b5b145b15610f2b575f8160600151806020019051810190610ef0919061235b565b9050610f25826020015183604001515f845f015114610f1257835f0151610f20565b610f1f856020015161066b565b5b6114dd565b50610f34565b5f915050610f3a565b60019150505b92915050565b610f48611254565b8060601b610f5d57637448fbae5f526004601cfd5b610f6681611417565b50565b5f610f7333611068565b610fa9576040517f82b4290000000000000000000000000000000000000000000000000000000000815260040160405180910390fd5b5f8383810190610fb99190612284565b905060016002811115610fcf57610fce6122cb565b5b815f01516002811115610fe557610fe46122cb565b5b148061101757505f6002811115610fff57610ffe6122cb565b5b815f01516002811115611015576110146122cb565b5b145b15611053575f8160600151806020019051810190611035919061235b565b905061104d82602001518360400151835f01516114dd565b5061105c565b5f915050611062565b60019150505b92915050565b5f60015f8373ffffffffffffffffffffffffffffffffffffffff1673ffffffffffffffffffffffffffffffffffffffff1681526020019081526020015f205f9054906101000a900460ff16806110f057506110c1610cde565b73ffffffffffffffffffffffffffffffffffffffff168273ffffffffffffffffffffffffffffffffffffffff16145b9050919050565b5f63389a75e1600c52815f526020600c20549050919050565b5f7f74009ff1000000000000000000000000000000000000000000000000000000007bffffffffffffffffffffffffffffffffffffffffffffffffffffffff1916827bffffffffffffffffffffffffffffffffffffffffffffffffffffffff191614806111825750611181826116f5565b5b9050919050565b5f805f73ffffffffffffffffffffffffffffffffffffffff168473ffffffffffffffffffffffffffffffffffffffff16146111ec576111e7308573ffffffffffffffffffffffffffffffffffffffff166113e490919063ffffffff16565b6111ee565b475b90506112415f808673ffffffffffffffffffffffffffffffffffffffff1673ffffffffffffffffffffffffffffffffffffffff1681526020019081526020015f20548261123b919061241b565b8461176e565b91505092915050565b5f6202a300905090565b7fffffffffffffffffffffffffffffffffffffffffffffffffffffffff74873927543314611289576382b429005f526004601cfd5b565b5f7fffffffffffffffffffffffffffffffffffffffffffffffffffffffffbf6011325f1b905090565b6112bc61188c565b15611334577fffffffffffffffffffffffffffffffffffffffffffffffffffffffff748739278054156112f657630dc149f05f526004601cfd5b8160601b60601c9150811560ff1b82178155815f7f8be0079c531659141344cd1fd0a4f28419497f9722a3daafe3b4186f6b6457e05f80a350611387565b8060601b60601c9050807fffffffffffffffffffffffffffffffffffffffffffffffffffffffff7487392755805f7f8be0079c531659141344cd1fd0a4f28419497f9722a3daafe3b4186f6b6457e05f80a35b50565b60405181606052826040528360601b602c526f23b872dd000000000000000000000000600c5260205f6064601c5f895af13d1560015f511417166113d557637939f4245f526004601cfd5b5f606052806040525050505050565b5f816014526f70a082310000000000000000000000005f5260208060246010865afa601f3d111660205102905092915050565b61141f61188c565b15611484577fffffffffffffffffffffffffffffffffffffffffffffffffffffffff748739278160601b60601c91508181547f8be0079c531659141344cd1fd0a4f28419497f9722a3daafe3b4186f6b6457e05f80a3811560ff1b82178155506114da565b7fffffffffffffffffffffffffffffffffffffffffffffffffffffffff748739278160601b60601c91508181547f8be0079c531659141344cd1fd0a4f28419497f9722a3daafe3b4186f6b6457e05f80a3818155505b50565b3068929eee149b4bd2126854036114fb5763ab143c065f526004601cfd5b3068929eee149b4bd21268555f73ffffffffffffffffffffffffffffffffffffffff168273ffffffffffffffffffffffffffffffffffffffff160361157b578282826040517fbf182be800000000000000000000000000000000000000000000000000000000815260040161157293929190612489565b60405180910390fd5b6115848361066b565b8111156115d457826115958461066b565b826040517f5c54305e0000000000000000000000000000000000000000000000000000000081526004016115cb939291906124be565b60405180910390fd5b805f808573ffffffffffffffffffffffffffffffffffffffff1673ffffffffffffffffffffffffffffffffffffffff1681526020019081526020015f205f82825461161f919061241b565b925050819055505f73ffffffffffffffffffffffffffffffffffffffff168373ffffffffffffffffffffffffffffffffffffffff1603611668576116638282611890565b611694565b61169382828573ffffffffffffffffffffffffffffffffffffffff166118ad9092919063ffffffff16565b5b8273ffffffffffffffffffffffffffffffffffffffff167fad4a9acf26d8bba7a8cf1a41160d59be042ee554578e256c98d2ab74cdd4354283836040516116dc929190612386565b60405180910390a23868929eee149b4bd2126855505050565b5f7f6ab67a0d000000000000000000000000000000000000000000000000000000007bffffffffffffffffffffffffffffffffffffffffffffffffffffffff1916827bffffffffffffffffffffffffffffffffffffffffffffffffffffffff191614806117675750611766826118f6565b5b9050919050565b5f600260109054906101000a900467ffffffffffffffff1660025f9054906101000a900467ffffffffffffffff166117a6919061244e565b67ffffffffffffffff168267ffffffffffffffff1610156117c9575f9050611886565b600260089054906101000a900467ffffffffffffffff1660025f9054906101000a900467ffffffffffffffff16611800919061244e565b67ffffffffffffffff168267ffffffffffffffff161061182257829050611886565b600260089054906101000a900467ffffffffffffffff1667ffffffffffffffff1660025f9054906101000a900467ffffffffffffffff168361186491906124f3565b67ffffffffffffffff1684611879919061252e565b611883919061259c565b90505b92915050565b5f90565b5f385f3884865af16118a95763b12d13eb5f526004601cfd5b5050565b81601452806034526fa9059cbb0000000000000000000000005f5260205f604460105f875af13d1560015f511417166118ed576390b8ec185f526004601cfd5b5f603452505050565b5f7f01ffc9a7000000000000000000000000000000000000000000000000000000007bffffffffffffffffffffffffffffffffffffffffffffffffffffffff1916827bffffffffffffffffffffffffffffffffffffffffffffffffffffffff1916149050919050565b5f604051905090565b5f80fd5b5f80fd5b5f7fffffffff0000000000000000000000000000000000000000000000000000000082169050919050565b6119a481611970565b81146119ae575f80fd5b50565b5f813590506119bf8161199b565b92915050565b5f602082840312156119da576119d9611968565b5b5f6119e7848285016119b1565b91505092915050565b5f8115159050919050565b611a04816119f0565b82525050565b5f602082019050611a1d5f8301846119fb565b92915050565b5f67ffffffffffffffff82169050919050565b611a3f81611a23565b82525050565b5f602082019050611a585f830184611a36565b92915050565b5f73ffffffffffffffffffffffffffffffffffffffff82169050919050565b5f611a8782611a5e565b9050919050565b611a9781611a7d565b8114611aa1575f80fd5b50565b5f81359050611ab281611a8e565b92915050565b5f60208284031215611acd57611acc611968565b5b5f611ada84828501611aa4565b91505092915050565b5f819050919050565b611af581611ae3565b82525050565b5f602082019050611b0e5f830184611aec565b92915050565b611b1d81611970565b82525050565b5f602082019050611b365f830184611b14565b92915050565b5f80fd5b5f80fd5b5f80fd5b5f8083601f840112611b5d57611b5c611b3c565b5b8235905067ffffffffffffffff811115611b7a57611b79611b40565b5b602083019150836001820283011115611b9657611b95611b44565b5b9250929050565b5f8060208385031215611bb357611bb2611968565b5b5f83013567ffffffffffffffff811115611bd057611bcf61196c565b5b611bdc85828601611b48565b92509250509250929050565b5f8083601f840112611bfd57611bfc611b3c565b5b8235905067ffffffffffffffff811115611c1a57611c19611b40565b5b602083019150836020820283011115611c3657611c35611b44565b5b9250929050565b5f8083601f840112611c5257611c51611b3c565b5b8235905067ffffffffffffffff811115611c6f57611c6e611b40565b5b602083019150836020820283011115611c8b57611c8a611b44565b5b9250929050565b5f805f8060408587031215611caa57611ca9611968565b5b5f85013567ffffffffffffffff811115611cc757611cc661196c565b5b611cd387828801611be8565b9450945050602085013567ffffffffffffffff811115611cf657611cf561196c565b5b611d0287828801611c3d565b925092505092959194509250565b5f8083601f840112611d2557611d24611b3c565b5b8235905067ffffffffffffffff811115611d4257611d41611b40565b5b602083019150836020820283011115611d5e57611d5d611b44565b5b9250929050565b5f8060208385031215611d7b57611d7a611968565b5b5f83013567ffffffffffffffff811115611d9857611d9761196c565b5b611da485828601611d10565b92509250509250929050565b611db981611a7d565b82525050565b5f602082019050611dd25f830184611db0565b92915050565b7f4e487b71000000000000000000000000000000000000000000000000000000005f52601160045260245ffd5b5f611e0f82611ae3565b9150611e1a83611ae3565b9250828203905081811115611e3257611e31611dd8565b5b92915050565b7f4e487b71000000000000000000000000000000000000000000000000000000005f52603260045260245ffd5b611e6e816119f0565b8114611e78575f80fd5b50565b5f81359050611e8981611e65565b92915050565b5f60208284031215611ea457611ea3611968565b5b5f611eb184828501611e7b565b91505092915050565b5f80fd5b5f601f19601f8301169050919050565b7f4e487b71000000000000000000000000000000000000000000000000000000005f52604160045260245ffd5b611f0482611ebe565b810181811067ffffffffffffffff82111715611f2357611f22611ece565b5b80604052505050565b5f611f3561195f565b9050611f418282611efb565b919050565b5f80fd5b5f67ffffffffffffffff821115611f6457611f63611ece565b5b602082029050602081019050919050565b5f611f87611f8284611f4a565b611f2c565b90508083825260208201905060208402830185811115611faa57611fa9611b44565b5b835b81811015611fd35780611fbf8882611aa4565b845260208401935050602081019050611fac565b5050509392505050565b5f82601f830112611ff157611ff0611b3c565b5b8135612001848260208601611f75565b91505092915050565b61201381611a23565b811461201d575f80fd5b50565b5f8135905061202e8161200a565b92915050565b5f60a0828403121561204957612048611eba565b5b61205360a0611f2c565b90505f61206284828501611aa4565b5f83015250602082013567ffffffffffffffff81111561208557612084611f46565b5b61209184828501611fdd565b60208301525060406120a584828501612020565b60408301525060606120b984828501612020565b60608301525060806120cd84828501612020565b60808301525092915050565b5f602082840312156120ee576120ed611968565b5b5f82013567ffffffffffffffff81111561210b5761210a61196c565b5b61211784828501612034565b91505092915050565b6003811061212c575f80fd5b50565b5f8135905061213d81612120565b92915050565b5f80fd5b5f67ffffffffffffffff82111561216157612160611ece565b5b61216a82611ebe565b9050602081019050919050565b828183375f83830152505050565b5f61219761219284612147565b611f2c565b9050828152602081018484840111156121b3576121b2612143565b5b6121be848285612177565b509392505050565b5f82601f8301126121da576121d9611b3c565b5b81356121ea848260208601612185565b91505092915050565b5f6080828403121561220857612207611eba565b5b6122126080611f2c565b90505f6122218482850161212f565b5f83015250602061223484828501611aa4565b602083015250604061224884828501611aa4565b604083015250606082013567ffffffffffffffff81111561226c5761226b611f46565b5b612278848285016121c6565b60608301525092915050565b5f6020828403121561229957612298611968565b5b5f82013567ffffffffffffffff8111156122b6576122b561196c565b5b6122c2848285016121f3565b91505092915050565b7f4e487b71000000000000000000000000000000000000000000000000000000005f52602160045260245ffd5b61230181611ae3565b811461230b575f80fd5b50565b5f8151905061231c816122f8565b92915050565b5f6020828403121561233757612336611eba565b5b6123416020611f2c565b90505f6123508482850161230e565b5f8301525092915050565b5f602082840312156123705761236f611968565b5b5f61237d84828501612322565b91505092915050565b5f6040820190506123995f830185611db0565b6123a66020830184611aec565b9392505050565b5f80fd5b5f80fd5b5f80fd5b5f80833560016020038436030381126123d5576123d46123ad565b5b80840192508235915067ffffffffffffffff8211156123f7576123f66123b1565b5b602083019250600182023603831315612413576124126123b5565b5b509250929050565b5f61242582611ae3565b915061243083611ae3565b925082820190508082111561244857612447611dd8565b5b92915050565b5f61245882611a23565b915061246383611a23565b9250828201905067ffffffffffffffff81111561248357612482611dd8565b5b92915050565b5f60608201905061249c5f830186611db0565b6124a96020830185611db0565b6124b66040830184611aec565b949350505050565b5f6060820190506124d15f830186611db0565b6124de6020830185611aec565b6124eb6040830184611aec565b949350505050565b5f6124fd82611a23565b915061250883611a23565b9250828203905067ffffffffffffffff81111561252857612527611dd8565b5b92915050565b5f61253882611ae3565b915061254383611ae3565b925082820261255181611ae3565b9150828204841483151761256857612567611dd8565b5b5092915050565b7f4e487b71000000000000000000000000000000000000000000000000000000005f52601260045260245ffd5b5f6125a682611ae3565b91506125b183611ae3565b9250826125c1576125c061256f565b5b82820490509291505056fea2646970667358221220d067dbf0e6b47aa89f055040a33b2711b7d7794a8e4c68e2ebfdf0746d36879a64736f6c63430008190033",
  "linkReferences": {},
  "deployedLinkReferences": {}
}