{
  "_format": "hh-sol-artifact-1",
  "contractName": "VestingBudget",
  "sourceName": "contracts/budgets/VestingBudget.sol",
  "abi": [
    {
      "inputs": [],
      "stateMutability": "nonpayable",
      "type": "constructor"
    },
    {
      "inputs": [],
      "name": "AlreadyInitialized",
      "type": "error"
    },
    {
      "inputs": [],
      "name": "CloneAlreadyInitialized",
      "type": "error"
    },
    {
      "inputs": [],
      "name": "InitializerNotImplemented",
      "type": "error"
    },
    {
      "inputs": [
        {
          "internalType": "address",
          "name": "asset",
          "type": "address"
        },
        {
          "internalType": "uint256",
          "name": "available",
          "type": "uint256"
        },
        {
          "internalType": "uint256",
          "name": "required",
          "type": "uint256"
        }
      ],
      "name": "InsufficientFunds",
      "type": "error"
    },
    {
      "inputs": [
        {
          "internalType": "address",
          "name": "asset",
          "type": "address"
        },
        {
          "internalType": "uint256",
          "name": "amount",
          "type": "uint256"
        }
      ],
      "name": "InvalidAllocation",
      "type": "error"
    },
    {
      "inputs": [],
      "name": "InvalidInitialization",
      "type": "error"
    },
    {
      "inputs": [],
      "name": "InvalidInitializationData",
      "type": "error"
    },
    {
      "inputs": [],
      "name": "LengthMismatch",
      "type": "error"
    },
    {
      "inputs": [],
      "name": "NewOwnerIsZeroAddress",
      "type": "error"
    },
    {
      "inputs": [],
      "name": "NoHandoverRequest",
      "type": "error"
    },
    {
      "inputs": [],
      "name": "NotInitializing",
      "type": "error"
    },
    {
      "inputs": [],
      "name": "Reentrancy",
      "type": "error"
    },
    {
      "inputs": [
        {
          "internalType": "address",
          "name": "asset",
          "type": "address"
        },
        {
          "internalType": "address",
          "name": "to",
          "type": "address"
        },
        {
          "internalType": "uint256",
          "name": "amount",
          "type": "uint256"
        }
      ],
      "name": "TransferFailed",
      "type": "error"
    },
    {
      "inputs": [],
      "name": "Unauthorized",
      "type": "error"
    },
    {
      "anonymous": false,
      "inputs": [
        {
          "indexed": true,
          "internalType": "address",
          "name": "account",
          "type": "address"
        },
        {
          "indexed": false,
          "internalType": "bool",
          "name": "isAuthorized",
          "type": "bool"
        }
      ],
      "name": "Authorized",
      "type": "event"
    },
    {
      "anonymous": false,
      "inputs": [
        {
          "indexed": true,
          "internalType": "address",
          "name": "asset",
          "type": "address"
        },
        {
          "indexed": false,
          "internalType": "address",
          "name": "to",
          "type": "address"
        },
        {
          "indexed": false,
          "internalType": "uint256",
          "name": "amount",
          "type": "uint256"
        }
      ],
      "name": "Distributed",
      "type": "event"
    },
    {
      "anonymous": false,
      "inputs": [
        {
          "indexed": false,
          "internalType": "uint64",
          "name": "version",
          "type": "uint64"
        }
      ],
      "name": "Initialized",
      "type": "event"
    },
    {
      "anonymous": false,
      "inputs": [
        {
          "indexed": true,
          "internalType": "address",
          "name": "pendingOwner",
          "type": "address"
        }
      ],
      "name": "OwnershipHandoverCanceled",
      "type": "event"
    },
    {
      "anonymous": false,
      "inputs": [
        {
          "indexed": true,
          "internalType": "address",
          "name": "pendingOwner",
          "type": "address"
        }
      ],
      "name": "OwnershipHandoverRequested",
      "type": "event"
    },
    {
      "anonymous": false,
      "inputs": [
        {
          "indexed": true,
          "internalType": "address",
          "name": "oldOwner",
          "type": "address"
        },
        {
          "indexed": true,
          "internalType": "address",
          "name": "newOwner",
          "type": "address"
        }
      ],
      "name": "OwnershipTransferred",
      "type": "event"
    },
    {
      "stateMutability": "payable",
      "type": "fallback"
    },
    {
      "inputs": [
        {
          "internalType": "bytes",
          "name": "data_",
          "type": "bytes"
        }
      ],
      "name": "allocate",
      "outputs": [
        {
          "internalType": "bool",
          "name": "",
          "type": "bool"
        }
      ],
      "stateMutability": "payable",
      "type": "function"
    },
    {
      "inputs": [
        {
          "internalType": "address",
          "name": "asset_",
          "type": "address"
        }
      ],
      "name": "available",
      "outputs": [
        {
          "internalType": "uint256",
          "name": "",
          "type": "uint256"
        }
      ],
      "stateMutability": "view",
      "type": "function"
    },
    {
      "inputs": [],
      "name": "cancelOwnershipHandover",
      "outputs": [],
      "stateMutability": "payable",
      "type": "function"
    },
    {
      "inputs": [],
      "name": "cliff",
      "outputs": [
        {
          "internalType": "uint64",
          "name": "",
          "type": "uint64"
        }
      ],
      "stateMutability": "view",
      "type": "function"
    },
    {
      "inputs": [
        {
          "internalType": "address",
          "name": "pendingOwner",
          "type": "address"
        }
      ],
      "name": "completeOwnershipHandover",
      "outputs": [],
      "stateMutability": "payable",
      "type": "function"
    },
    {
      "inputs": [
        {
          "internalType": "bytes",
          "name": "data_",
          "type": "bytes"
        }
      ],
      "name": "disburse",
      "outputs": [
        {
          "internalType": "bool",
          "name": "",
          "type": "bool"
        }
      ],
      "stateMutability": "nonpayable",
      "type": "function"
    },
    {
      "inputs": [
        {
          "internalType": "bytes[]",
          "name": "data_",
          "type": "bytes[]"
        }
      ],
      "name": "disburseBatch",
      "outputs": [
        {
          "internalType": "bool",
          "name": "",
          "type": "bool"
        }
      ],
      "stateMutability": "nonpayable",
      "type": "function"
    },
    {
      "inputs": [
        {
          "internalType": "address",
          "name": "asset_",
          "type": "address"
        }
      ],
      "name": "distributed",
      "outputs": [
        {
          "internalType": "uint256",
          "name": "",
          "type": "uint256"
        }
      ],
      "stateMutability": "view",
      "type": "function"
    },
    {
      "inputs": [],
      "name": "duration",
      "outputs": [
        {
          "internalType": "uint64",
          "name": "",
          "type": "uint64"
        }
      ],
      "stateMutability": "view",
      "type": "function"
    },
    {
      "inputs": [],
      "name": "end",
      "outputs": [
        {
          "internalType": "uint256",
          "name": "",
          "type": "uint256"
        }
      ],
      "stateMutability": "view",
      "type": "function"
    },
    {
      "inputs": [
        {
          "internalType": "bytes",
          "name": "data_",
          "type": "bytes"
        }
      ],
      "name": "initialize",
      "outputs": [],
      "stateMutability": "nonpayable",
      "type": "function"
    },
    {
      "inputs": [
        {
          "internalType": "address",
          "name": "account_",
          "type": "address"
        }
      ],
      "name": "isAuthorized",
      "outputs": [
        {
          "internalType": "bool",
          "name": "",
          "type": "bool"
        }
      ],
      "stateMutability": "view",
      "type": "function"
    },
    {
      "inputs": [],
      "name": "owner",
      "outputs": [
        {
          "internalType": "address",
          "name": "result",
          "type": "address"
        }
      ],
      "stateMutability": "view",
      "type": "function"
    },
    {
      "inputs": [
        {
          "internalType": "address",
          "name": "pendingOwner",
          "type": "address"
        }
      ],
      "name": "ownershipHandoverExpiresAt",
      "outputs": [
        {
          "internalType": "uint256",
          "name": "result",
          "type": "uint256"
        }
      ],
      "stateMutability": "view",
      "type": "function"
    },
    {
      "inputs": [
        {
          "internalType": "bytes",
          "name": "data_",
          "type": "bytes"
        }
      ],
      "name": "reclaim",
      "outputs": [
        {
          "internalType": "bool",
          "name": "",
          "type": "bool"
        }
      ],
      "stateMutability": "nonpayable",
      "type": "function"
    },
    {
      "inputs": [
        {
          "internalType": "bytes",
          "name": "",
          "type": "bytes"
        }
      ],
      "name": "reconcile",
      "outputs": [
        {
          "internalType": "uint256",
          "name": "",
          "type": "uint256"
        }
      ],
      "stateMutability": "nonpayable",
      "type": "function"
    },
    {
      "inputs": [],
      "name": "renounceOwnership",
      "outputs": [],
      "stateMutability": "payable",
      "type": "function"
    },
    {
      "inputs": [],
      "name": "requestOwnershipHandover",
      "outputs": [],
      "stateMutability": "payable",
      "type": "function"
    },
    {
      "inputs": [
        {
          "internalType": "address[]",
          "name": "account_",
          "type": "address[]"
        },
        {
          "internalType": "bool[]",
          "name": "authorized_",
          "type": "bool[]"
        }
      ],
      "name": "setAuthorized",
      "outputs": [],
      "stateMutability": "nonpayable",
      "type": "function"
    },
    {
      "inputs": [],
      "name": "start",
      "outputs": [
        {
          "internalType": "uint64",
          "name": "",
          "type": "uint64"
        }
      ],
      "stateMutability": "view",
      "type": "function"
    },
    {
      "inputs": [
        {
          "internalType": "bytes4",
          "name": "interfaceId",
          "type": "bytes4"
        }
      ],
      "name": "supportsInterface",
      "outputs": [
        {
          "internalType": "bool",
          "name": "",
          "type": "bool"
        }
      ],
      "stateMutability": "view",
      "type": "function"
    },
    {
      "inputs": [
        {
          "internalType": "address",
          "name": "asset_",
          "type": "address"
        }
      ],
      "name": "total",
      "outputs": [
        {
          "internalType": "uint256",
          "name": "",
          "type": "uint256"
        }
      ],
      "stateMutability": "view",
      "type": "function"
    },
    {
      "inputs": [
        {
          "internalType": "address",
          "name": "newOwner",
          "type": "address"
        }
      ],
      "name": "transferOwnership",
      "outputs": [],
      "stateMutability": "payable",
      "type": "function"
    },
    {
      "stateMutability": "payable",
      "type": "receive"
    }
  ],
  "bytecode": "0x60806040523480156200001157600080fd5b5062000023336200003960201b60201c565b620000336200011f60201b60201c565b620001c1565b620000496200019160201b60201c565b15620000c7577fffffffffffffffffffffffffffffffffffffffffffffffffffffffff748739278054156200008657630dc149f06000526004601cfd5b8160601b60601c9150811560ff1b821781558160007f8be0079c531659141344cd1fd0a4f28419497f9722a3daafe3b4186f6b6457e0600080a3506200011c565b8060601b60601c9050807fffffffffffffffffffffffffffffffffffffffffffffffffffffffff74873927558060007f8be0079c531659141344cd1fd0a4f28419497f9722a3daafe3b4186f6b6457e0600080a35b50565b6000620001316200019660201b60201c565b9050805460018116156200014d5763f92ee8a96000526004601cfd5b8160c01c808260011c146200018c578060011b8355806020527fc7f505b2f371ae2175ee4913f4499e1f2633a7b5936321eed1cdaeb6115181d2602080a15b505050565b600090565b60007fffffffffffffffffffffffffffffffffffffffffffffffffffffffffbf60113260001b905090565b61259780620001d16000396000f3fe6080604052600436106101445760003560e01c806361400c99116100b6578063f04e283e1161006f578063f04e283e14610432578063f1c30ec01461044e578063f2fde38b1461048b578063fa4ca9b1146104a7578063fe9fbb80146104e4578063fee81cf4146105215761014b565b806361400c991461032d578063715018a61461036a5780638da5cb5b14610374578063be9a65551461039f578063d2514e84146103ca578063efbe1c1c146104075761014b565b80634359d28a116101085780634359d28a14610227578063439fab9114610250578063451cc1911461027957806354d1f13d146102b6578063578bcf35146102c05780635aef467a146102fd5761014b565b806301ffc9a71461014d5780630fb5a6b41461018a57806310098ad5146101b557806313d033c0146101f2578063256929621461021d5761014b565b3661014b57005b005b34801561015957600080fd5b50610174600480360381019061016f9190611922565b61055e565b604051610181919061196a565b60405180910390f35b34801561019657600080fd5b5061019f6105d8565b6040516101ac91906119a8565b60405180910390f35b3480156101c157600080fd5b506101dc60048036038101906101d79190611a21565b6105f2565b6040516101e99190611a67565b60405180910390f35b3480156101fe57600080fd5b5061020761064e565b60405161021491906119a8565b60405180910390f35b610225610668565b005b34801561023357600080fd5b5061024e60048036038101906102499190611b3d565b6106bc565b005b34801561025c57600080fd5b5061027760048036038101906102729190611c14565b6107ca565b005b34801561028557600080fd5b506102a0600480360381019061029b9190611c14565b61097d565b6040516102ad9190611a67565b60405180910390f35b6102be610985565b005b3480156102cc57600080fd5b506102e760048036038101906102e29190611a21565b6109c1565b6040516102f49190611a67565b60405180910390f35b61031760048036038101906103129190611c14565b610a09565b604051610324919061196a565b60405180910390f35b34801561033957600080fd5b50610354600480360381019061034f9190611cb7565b610be2565b604051610361919061196a565b60405180910390f35b610372610c49565b005b34801561038057600080fd5b50610389610c5d565b6040516103969190611d13565b60405180910390f35b3480156103ab57600080fd5b506103b4610c86565b6040516103c191906119a8565b60405180910390f35b3480156103d657600080fd5b506103f160048036038101906103ec9190611a21565b610ca0565b6040516103fe9190611a67565b60405180910390f35b34801561041357600080fd5b5061041c610d5b565b6040516104299190611a67565b60405180910390f35b61044c60048036038101906104479190611a21565b610da4565b005b34801561045a57600080fd5b5061047560048036038101906104709190611c14565b610de5565b604051610482919061196a565b60405180910390f35b6104a560048036038101906104a09190611a21565b610ed4565b005b3480156104b357600080fd5b506104ce60048036038101906104c99190611c14565b610efe565b6040516104db919061196a565b60405180910390f35b3480156104f057600080fd5b5061050b60048036038101906105069190611a21565b611005565b604051610518919061196a565b60405180910390f35b34801561052d57600080fd5b5061054860048036038101906105439190611a21565b611098565b6040516105559190611a67565b60405180910390f35b60007f5cd687ca000000000000000000000000000000000000000000000000000000007bffffffffffffffffffffffffffffffffffffffffffffffffffffffff1916827bffffffffffffffffffffffffffffffffffffffffffffffffffffffff191614806105d157506105d0826110b3565b5b9050919050565b600260089054906101000a900467ffffffffffffffff1681565b60008060008373ffffffffffffffffffffffffffffffffffffffff1673ffffffffffffffffffffffffffffffffffffffff1681526020019081526020016000205461063d834261112d565b6106479190611d5d565b9050919050565b600260109054906101000a900467ffffffffffffffff1681565b60006106726111f2565b67ffffffffffffffff164201905063389a75e1600c5233600052806020600c2055337fdbf36a107da19e49527a7176a1babf963b4b0ff8cde35ee35d6cd8f1f9ac7e1d600080a250565b6106c46111fd565b818190508484905014610703576040517fff633a3800000000000000000000000000000000000000000000000000000000815260040160405180910390fd5b60005b848490508110156107c35782828281811061072457610723611d91565b5b90506020020160208101906107399190611dec565b600160008787858181106107505761074f611d91565b5b90506020020160208101906107659190611a21565b73ffffffffffffffffffffffffffffffffffffffff1673ffffffffffffffffffffffffffffffffffffffff16815260200190815260200160002060006101000a81548160ff0219169083151502179055508080600101915050610706565b5050505050565b60006107d4611235565b905080546003825580156108075760018160011c14303b106107fe5763f92ee8a96000526004601cfd5b818160ff1b1b91505b50600083838101906108199190612046565b90508060400151600260006101000a81548167ffffffffffffffff021916908367ffffffffffffffff1602179055508060600151600260086101000a81548167ffffffffffffffff021916908367ffffffffffffffff1602179055508060800151600260106101000a81548167ffffffffffffffff021916908367ffffffffffffffff1602179055506108af8160000151611260565b60005b816020015151811015610941576001806000846020015184815181106108db576108da611d91565b5b602002602001015173ffffffffffffffffffffffffffffffffffffffff1673ffffffffffffffffffffffffffffffffffffffff16815260200190815260200160002060006101000a81548160ff02191690831515021790555080806001019150506108b2565b50508015610978576002815560016020527fc7f505b2f371ae2175ee4913f4499e1f2633a7b5936321eed1cdaeb6115181d2602080a15b505050565b600092915050565b63389a75e1600c523360005260006020600c2055337ffa7b8eab7da67f412cc9575ed43464468f9bfbae89d1675917346ca6d8fe3c92600080a2565b60008060008373ffffffffffffffffffffffffffffffffffffffff1673ffffffffffffffffffffffffffffffffffffffff168152602001908152602001600020549050919050565b6000808383810190610a1b91906121fd565b905060006002811115610a3157610a30612246565b5b81600001516002811115610a4857610a47612246565b5b03610ac15760008160600151806020019051810190610a6791906122dd565b905080600001513414610abb57816020015181600001516040517fcece04c5000000000000000000000000000000000000000000000000000000008152600401610ab292919061230a565b60405180910390fd5b50610bd6565b60016002811115610ad557610ad4612246565b5b81600001516002811115610aec57610aeb612246565b5b03610bcb5760008160600151806020019051810190610b0b91906122dd565b9050610b468260400151308360000151856020015173ffffffffffffffffffffffffffffffffffffffff1661133b909392919063ffffffff16565b8060000151610b7830846020015173ffffffffffffffffffffffffffffffffffffffff1661139a90919063ffffffff16565b1015610bc557816020015181600001516040517fcece04c5000000000000000000000000000000000000000000000000000000008152600401610bbc92919061230a565b60405180910390fd5b50610bd5565b6000915050610bdc565b5b60019150505b92915050565b600080600090505b83839050811015610c3d57610c22848483818110610c0b57610c0a611d91565b5b9050602002810190610c1d9190612342565b610efe565b610c30576000915050610c43565b8080600101915050610bea565b50600190505b92915050565b610c516111fd565b610c5b60006113cf565b565b60007fffffffffffffffffffffffffffffffffffffffffffffffffffffffff7487392754905090565b600260009054906101000a900467ffffffffffffffff1681565b600080600073ffffffffffffffffffffffffffffffffffffffff168373ffffffffffffffffffffffffffffffffffffffff1614610d0557610d00308473ffffffffffffffffffffffffffffffffffffffff1661139a90919063ffffffff16565b610d07565b475b9050806000808573ffffffffffffffffffffffffffffffffffffffff1673ffffffffffffffffffffffffffffffffffffffff16815260200190815260200160002054610d5391906123a5565b915050919050565b6000600260089054906101000a900467ffffffffffffffff16600260009054906101000a900467ffffffffffffffff16610d9591906123d9565b67ffffffffffffffff16905090565b610dac6111fd565b63389a75e1600c52806000526020600c208054421115610dd457636f5e88186000526004601cfd5b6000815550610de2816113cf565b50565b6000610def6111fd565b60008383810190610e0091906121fd565b905060006002811115610e1657610e15612246565b5b81600001516002811115610e2d57610e2c612246565b5b1480610e61575060016002811115610e4857610e47612246565b5b81600001516002811115610e5f57610e5e612246565b5b145b15610ebe5760008160600151806020019051810190610e8091906122dd565b9050610eb8826020015183604001516000846000015114610ea5578360000151610eb3565b610eb285602001516105f2565b5b611497565b50610ec8565b6000915050610ece565b60019150505b92915050565b610edc6111fd565b8060601b610ef257637448fbae6000526004601cfd5b610efb816113cf565b50565b6000610f0933611005565b610f3f576040517f82b4290000000000000000000000000000000000000000000000000000000000815260040160405180910390fd5b60008383810190610f5091906121fd565b905060016002811115610f6657610f65612246565b5b81600001516002811115610f7d57610f7c612246565b5b1480610fb1575060006002811115610f9857610f97612246565b5b81600001516002811115610faf57610fae612246565b5b145b15610fef5760008160600151806020019051810190610fd091906122dd565b9050610fe9826020015183604001518360000151611497565b50610ff9565b6000915050610fff565b60019150505b92915050565b6000600160008373ffffffffffffffffffffffffffffffffffffffff1673ffffffffffffffffffffffffffffffffffffffff16815260200190815260200160002060009054906101000a900460ff16806110915750611062610c5d565b73ffffffffffffffffffffffffffffffffffffffff168273ffffffffffffffffffffffffffffffffffffffff16145b9050919050565b600063389a75e1600c52816000526020600c20549050919050565b60007f42606236000000000000000000000000000000000000000000000000000000007bffffffffffffffffffffffffffffffffffffffffffffffffffffffff1916827bffffffffffffffffffffffffffffffffffffffffffffffffffffffff191614806111265750611125826116b5565b5b9050919050565b600080600073ffffffffffffffffffffffffffffffffffffffff168473ffffffffffffffffffffffffffffffffffffffff16146111925761118d308573ffffffffffffffffffffffffffffffffffffffff1661139a90919063ffffffff16565b611194565b475b90506111e96000808673ffffffffffffffffffffffffffffffffffffffff1673ffffffffffffffffffffffffffffffffffffffff16815260200190815260200160002054826111e391906123a5565b8461171f565b91505092915050565b60006202a300905090565b7fffffffffffffffffffffffffffffffffffffffffffffffffffffffff74873927543314611233576382b429006000526004601cfd5b565b60007fffffffffffffffffffffffffffffffffffffffffffffffffffffffffbf60113260001b905090565b611268611842565b156112e3577fffffffffffffffffffffffffffffffffffffffffffffffffffffffff748739278054156112a357630dc149f06000526004601cfd5b8160601b60601c9150811560ff1b821781558160007f8be0079c531659141344cd1fd0a4f28419497f9722a3daafe3b4186f6b6457e0600080a350611338565b8060601b60601c9050807fffffffffffffffffffffffffffffffffffffffffffffffffffffffff74873927558060007f8be0079c531659141344cd1fd0a4f28419497f9722a3daafe3b4186f6b6457e0600080a35b50565b60405181606052826040528360601b602c526f23b872dd000000000000000000000000600c52602060006064601c6000895af13d15600160005114171661138a57637939f4246000526004601cfd5b6000606052806040525050505050565b6000816014526f70a0823100000000000000000000000060005260208060246010865afa601f3d111660205102905092915050565b6113d7611842565b1561143d577fffffffffffffffffffffffffffffffffffffffffffffffffffffffff748739278160601b60601c91508181547f8be0079c531659141344cd1fd0a4f28419497f9722a3daafe3b4186f6b6457e0600080a3811560ff1b8217815550611494565b7fffffffffffffffffffffffffffffffffffffffffffffffffffffffff748739278160601b60601c91508181547f8be0079c531659141344cd1fd0a4f28419497f9722a3daafe3b4186f6b6457e0600080a3818155505b50565b3068929eee149b4bd2126854036114b65763ab143c066000526004601cfd5b3068929eee149b4bd2126855600073ffffffffffffffffffffffffffffffffffffffff168273ffffffffffffffffffffffffffffffffffffffff1603611537578282826040517fbf182be800000000000000000000000000000000000000000000000000000000815260040161152e93929190612415565b60405180910390fd5b611540836105f2565b8111156115905782611551846105f2565b826040517f5c54305e0000000000000000000000000000000000000000000000000000000081526004016115879392919061244c565b60405180910390fd5b806000808573ffffffffffffffffffffffffffffffffffffffff1673ffffffffffffffffffffffffffffffffffffffff16815260200190815260200160002060008282546115de91906123a5565b92505081905550600073ffffffffffffffffffffffffffffffffffffffff168373ffffffffffffffffffffffffffffffffffffffff1603611628576116238282611847565b611654565b61165382828573ffffffffffffffffffffffffffffffffffffffff166118679092919063ffffffff16565b5b8273ffffffffffffffffffffffffffffffffffffffff167fad4a9acf26d8bba7a8cf1a41160d59be042ee554578e256c98d2ab74cdd43542838360405161169c92919061230a565b60405180910390a23868929eee149b4bd2126855505050565b60007f01ffc9a7000000000000000000000000000000000000000000000000000000007bffffffffffffffffffffffffffffffffffffffffffffffffffffffff1916827bffffffffffffffffffffffffffffffffffffffffffffffffffffffff1916149050919050565b6000600260109054906101000a900467ffffffffffffffff16600260009054906101000a900467ffffffffffffffff1661175991906123d9565b67ffffffffffffffff168267ffffffffffffffff16101561177d576000905061183c565b600260089054906101000a900467ffffffffffffffff16600260009054906101000a900467ffffffffffffffff166117b591906123d9565b67ffffffffffffffff168267ffffffffffffffff16106117d75782905061183c565b600260089054906101000a900467ffffffffffffffff1667ffffffffffffffff16600260009054906101000a900467ffffffffffffffff168361181a9190612483565b67ffffffffffffffff168461182f91906124bf565b6118399190612530565b90505b92915050565b600090565b60003860003884865af16118635763b12d13eb6000526004601cfd5b5050565b81601452806034526fa9059cbb00000000000000000000000060005260206000604460106000875af13d1560016000511417166118ac576390b8ec186000526004601cfd5b6000603452505050565b6000604051905090565b600080fd5b600080fd5b60007fffffffff0000000000000000000000000000000000000000000000000000000082169050919050565b6118ff816118ca565b811461190a57600080fd5b50565b60008135905061191c816118f6565b92915050565b600060208284031215611938576119376118c0565b5b60006119468482850161190d565b91505092915050565b60008115159050919050565b6119648161194f565b82525050565b600060208201905061197f600083018461195b565b92915050565b600067ffffffffffffffff82169050919050565b6119a281611985565b82525050565b60006020820190506119bd6000830184611999565b92915050565b600073ffffffffffffffffffffffffffffffffffffffff82169050919050565b60006119ee826119c3565b9050919050565b6119fe816119e3565b8114611a0957600080fd5b50565b600081359050611a1b816119f5565b92915050565b600060208284031215611a3757611a366118c0565b5b6000611a4584828501611a0c565b91505092915050565b6000819050919050565b611a6181611a4e565b82525050565b6000602082019050611a7c6000830184611a58565b92915050565b600080fd5b600080fd5b600080fd5b60008083601f840112611aa757611aa6611a82565b5b8235905067ffffffffffffffff811115611ac457611ac3611a87565b5b602083019150836020820283011115611ae057611adf611a8c565b5b9250929050565b60008083601f840112611afd57611afc611a82565b5b8235905067ffffffffffffffff811115611b1a57611b19611a87565b5b602083019150836020820283011115611b3657611b35611a8c565b5b9250929050565b60008060008060408587031215611b5757611b566118c0565b5b600085013567ffffffffffffffff811115611b7557611b746118c5565b5b611b8187828801611a91565b9450945050602085013567ffffffffffffffff811115611ba457611ba36118c5565b5b611bb087828801611ae7565b925092505092959194509250565b60008083601f840112611bd457611bd3611a82565b5b8235905067ffffffffffffffff811115611bf157611bf0611a87565b5b602083019150836001820283011115611c0d57611c0c611a8c565b5b9250929050565b60008060208385031215611c2b57611c2a6118c0565b5b600083013567ffffffffffffffff811115611c4957611c486118c5565b5b611c5585828601611bbe565b92509250509250929050565b60008083601f840112611c7757611c76611a82565b5b8235905067ffffffffffffffff811115611c9457611c93611a87565b5b602083019150836020820283011115611cb057611caf611a8c565b5b9250929050565b60008060208385031215611cce57611ccd6118c0565b5b600083013567ffffffffffffffff811115611cec57611ceb6118c5565b5b611cf885828601611c61565b92509250509250929050565b611d0d816119e3565b82525050565b6000602082019050611d286000830184611d04565b92915050565b7f4e487b7100000000000000000000000000000000000000000000000000000000600052601160045260246000fd5b6000611d6882611a4e565b9150611d7383611a4e565b9250828203905081811115611d8b57611d8a611d2e565b5b92915050565b7f4e487b7100000000000000000000000000000000000000000000000000000000600052603260045260246000fd5b611dc98161194f565b8114611dd457600080fd5b50565b600081359050611de681611dc0565b92915050565b600060208284031215611e0257611e016118c0565b5b6000611e1084828501611dd7565b91505092915050565b600080fd5b6000601f19601f8301169050919050565b7f4e487b7100000000000000000000000000000000000000000000000000000000600052604160045260246000fd5b611e6782611e1e565b810181811067ffffffffffffffff82111715611e8657611e85611e2f565b5b80604052505050565b6000611e996118b6565b9050611ea58282611e5e565b919050565b600080fd5b600067ffffffffffffffff821115611eca57611ec9611e2f565b5b602082029050602081019050919050565b6000611eee611ee984611eaf565b611e8f565b90508083825260208201905060208402830185811115611f1157611f10611a8c565b5b835b81811015611f3a5780611f268882611a0c565b845260208401935050602081019050611f13565b5050509392505050565b600082601f830112611f5957611f58611a82565b5b8135611f69848260208601611edb565b91505092915050565b611f7b81611985565b8114611f8657600080fd5b50565b600081359050611f9881611f72565b92915050565b600060a08284031215611fb457611fb3611e19565b5b611fbe60a0611e8f565b90506000611fce84828501611a0c565b600083015250602082013567ffffffffffffffff811115611ff257611ff1611eaa565b5b611ffe84828501611f44565b602083015250604061201284828501611f89565b604083015250606061202684828501611f89565b606083015250608061203a84828501611f89565b60808301525092915050565b60006020828403121561205c5761205b6118c0565b5b600082013567ffffffffffffffff81111561207a576120796118c5565b5b61208684828501611f9e565b91505092915050565b6003811061209c57600080fd5b50565b6000813590506120ae8161208f565b92915050565b600080fd5b600067ffffffffffffffff8211156120d4576120d3611e2f565b5b6120dd82611e1e565b9050602081019050919050565b82818337600083830152505050565b600061210c612107846120b9565b611e8f565b905082815260208101848484011115612128576121276120b4565b5b6121338482856120ea565b509392505050565b600082601f8301126121505761214f611a82565b5b81356121608482602086016120f9565b91505092915050565b60006080828403121561217f5761217e611e19565b5b6121896080611e8f565b905060006121998482850161209f565b60008301525060206121ad84828501611a0c565b60208301525060406121c184828501611a0c565b604083015250606082013567ffffffffffffffff8111156121e5576121e4611eaa565b5b6121f18482850161213b565b60608301525092915050565b600060208284031215612213576122126118c0565b5b600082013567ffffffffffffffff811115612231576122306118c5565b5b61223d84828501612169565b91505092915050565b7f4e487b7100000000000000000000000000000000000000000000000000000000600052602160045260246000fd5b61227e81611a4e565b811461228957600080fd5b50565b60008151905061229b81612275565b92915050565b6000602082840312156122b7576122b6611e19565b5b6122c16020611e8f565b905060006122d18482850161228c565b60008301525092915050565b6000602082840312156122f3576122f26118c0565b5b6000612301848285016122a1565b91505092915050565b600060408201905061231f6000830185611d04565b61232c6020830184611a58565b9392505050565b600080fd5b600080fd5b600080fd5b6000808335600160200384360303811261235f5761235e612333565b5b80840192508235915067ffffffffffffffff82111561238157612380612338565b5b60208301925060018202360383131561239d5761239c61233d565b5b509250929050565b60006123b082611a4e565b91506123bb83611a4e565b92508282019050808211156123d3576123d2611d2e565b5b92915050565b60006123e482611985565b91506123ef83611985565b9250828201905067ffffffffffffffff81111561240f5761240e611d2e565b5b92915050565b600060608201905061242a6000830186611d04565b6124376020830185611d04565b6124446040830184611a58565b949350505050565b60006060820190506124616000830186611d04565b61246e6020830185611a58565b61247b6040830184611a58565b949350505050565b600061248e82611985565b915061249983611985565b9250828203905067ffffffffffffffff8111156124b9576124b8611d2e565b5b92915050565b60006124ca82611a4e565b91506124d583611a4e565b92508282026124e381611a4e565b915082820484148315176124fa576124f9611d2e565b5b5092915050565b7f4e487b7100000000000000000000000000000000000000000000000000000000600052601260045260246000fd5b600061253b82611a4e565b915061254683611a4e565b92508261255657612555612501565b5b82820490509291505056fea264697066735822122065982dd479e4a0dabd0cc36378dc7b54a513861456bcdaf819b6a75930242c1664736f6c63430008180033",
  "linkReferences": {},
  "deployedLinkReferences": {}
}