{
  "_format": "hh-sol-artifact-1",
  "contractName": "VestingBudget",
  "sourceName": "contracts/budgets/VestingBudget.sol",
  "abi": [
    {
      "inputs": [],
      "stateMutability": "nonpayable",
      "type": "constructor"
    },
    {
      "inputs": [],
      "name": "AlreadyInitialized",
      "type": "error"
    },
    {
      "inputs": [],
      "name": "CloneAlreadyInitialized",
      "type": "error"
    },
    {
      "inputs": [],
      "name": "InitializerNotImplemented",
      "type": "error"
    },
    {
      "inputs": [
        {
          "internalType": "address",
          "name": "asset",
          "type": "address"
        },
        {
          "internalType": "uint256",
          "name": "available",
          "type": "uint256"
        },
        {
          "internalType": "uint256",
          "name": "required",
          "type": "uint256"
        }
      ],
      "name": "InsufficientFunds",
      "type": "error"
    },
    {
      "inputs": [
        {
          "internalType": "address",
          "name": "asset",
          "type": "address"
        },
        {
          "internalType": "uint256",
          "name": "amount",
          "type": "uint256"
        }
      ],
      "name": "InvalidAllocation",
      "type": "error"
    },
    {
      "inputs": [],
      "name": "InvalidInitialization",
      "type": "error"
    },
    {
      "inputs": [],
      "name": "InvalidInitializationData",
      "type": "error"
    },
    {
      "inputs": [],
      "name": "LengthMismatch",
      "type": "error"
    },
    {
      "inputs": [],
      "name": "NewOwnerIsZeroAddress",
      "type": "error"
    },
    {
      "inputs": [],
      "name": "NoHandoverRequest",
      "type": "error"
    },
    {
      "inputs": [],
      "name": "NotInitializing",
      "type": "error"
    },
    {
      "inputs": [],
      "name": "Reentrancy",
      "type": "error"
    },
    {
      "inputs": [
        {
          "internalType": "address",
          "name": "asset",
          "type": "address"
        },
        {
          "internalType": "address",
          "name": "to",
          "type": "address"
        },
        {
          "internalType": "uint256",
          "name": "amount",
          "type": "uint256"
        }
      ],
      "name": "TransferFailed",
      "type": "error"
    },
    {
      "inputs": [],
      "name": "Unauthorized",
      "type": "error"
    },
    {
      "anonymous": false,
      "inputs": [
        {
          "indexed": true,
          "internalType": "address",
          "name": "account",
          "type": "address"
        },
        {
          "indexed": false,
          "internalType": "bool",
          "name": "isAuthorized",
          "type": "bool"
        }
      ],
      "name": "Authorized",
      "type": "event"
    },
    {
      "anonymous": false,
      "inputs": [
        {
          "indexed": true,
          "internalType": "address",
          "name": "asset",
          "type": "address"
        },
        {
          "indexed": false,
          "internalType": "address",
          "name": "to",
          "type": "address"
        },
        {
          "indexed": false,
          "internalType": "uint256",
          "name": "amount",
          "type": "uint256"
        }
      ],
      "name": "Distributed",
      "type": "event"
    },
    {
      "anonymous": false,
      "inputs": [
        {
          "indexed": false,
          "internalType": "uint64",
          "name": "version",
          "type": "uint64"
        }
      ],
      "name": "Initialized",
      "type": "event"
    },
    {
      "anonymous": false,
      "inputs": [
        {
          "indexed": true,
          "internalType": "address",
          "name": "pendingOwner",
          "type": "address"
        }
      ],
      "name": "OwnershipHandoverCanceled",
      "type": "event"
    },
    {
      "anonymous": false,
      "inputs": [
        {
          "indexed": true,
          "internalType": "address",
          "name": "pendingOwner",
          "type": "address"
        }
      ],
      "name": "OwnershipHandoverRequested",
      "type": "event"
    },
    {
      "anonymous": false,
      "inputs": [
        {
          "indexed": true,
          "internalType": "address",
          "name": "oldOwner",
          "type": "address"
        },
        {
          "indexed": true,
          "internalType": "address",
          "name": "newOwner",
          "type": "address"
        }
      ],
      "name": "OwnershipTransferred",
      "type": "event"
    },
    {
      "stateMutability": "payable",
      "type": "fallback"
    },
    {
      "inputs": [
        {
          "internalType": "bytes",
          "name": "data_",
          "type": "bytes"
        }
      ],
      "name": "allocate",
      "outputs": [
        {
          "internalType": "bool",
          "name": "",
          "type": "bool"
        }
      ],
      "stateMutability": "payable",
      "type": "function"
    },
    {
      "inputs": [
        {
          "internalType": "address",
          "name": "asset_",
          "type": "address"
        }
      ],
      "name": "available",
      "outputs": [
        {
          "internalType": "uint256",
          "name": "",
          "type": "uint256"
        }
      ],
      "stateMutability": "view",
      "type": "function"
    },
    {
      "inputs": [],
      "name": "cancelOwnershipHandover",
      "outputs": [],
      "stateMutability": "payable",
      "type": "function"
    },
    {
      "inputs": [],
      "name": "cliff",
      "outputs": [
        {
          "internalType": "uint64",
          "name": "",
          "type": "uint64"
        }
      ],
      "stateMutability": "view",
      "type": "function"
    },
    {
      "inputs": [
        {
          "internalType": "address",
          "name": "pendingOwner",
          "type": "address"
        }
      ],
      "name": "completeOwnershipHandover",
      "outputs": [],
      "stateMutability": "payable",
      "type": "function"
    },
    {
      "inputs": [
        {
          "internalType": "bytes",
          "name": "data_",
          "type": "bytes"
        }
      ],
      "name": "disburse",
      "outputs": [
        {
          "internalType": "bool",
          "name": "",
          "type": "bool"
        }
      ],
      "stateMutability": "nonpayable",
      "type": "function"
    },
    {
      "inputs": [
        {
          "internalType": "bytes[]",
          "name": "data_",
          "type": "bytes[]"
        }
      ],
      "name": "disburseBatch",
      "outputs": [
        {
          "internalType": "bool",
          "name": "",
          "type": "bool"
        }
      ],
      "stateMutability": "nonpayable",
      "type": "function"
    },
    {
      "inputs": [
        {
          "internalType": "address",
          "name": "asset_",
          "type": "address"
        }
      ],
      "name": "distributed",
      "outputs": [
        {
          "internalType": "uint256",
          "name": "",
          "type": "uint256"
        }
      ],
      "stateMutability": "view",
      "type": "function"
    },
    {
      "inputs": [],
      "name": "duration",
      "outputs": [
        {
          "internalType": "uint64",
          "name": "",
          "type": "uint64"
        }
      ],
      "stateMutability": "view",
      "type": "function"
    },
    {
      "inputs": [],
      "name": "end",
      "outputs": [
        {
          "internalType": "uint256",
          "name": "",
          "type": "uint256"
        }
      ],
      "stateMutability": "view",
      "type": "function"
    },
    {
      "inputs": [
        {
          "internalType": "bytes",
          "name": "data_",
          "type": "bytes"
        }
      ],
      "name": "initialize",
      "outputs": [],
      "stateMutability": "nonpayable",
      "type": "function"
    },
    {
      "inputs": [],
      "name": "interfaceName",
      "outputs": [
        {
          "internalType": "string",
          "name": "",
          "type": "string"
        }
      ],
      "stateMutability": "pure",
      "type": "function"
    },
    {
      "inputs": [
        {
          "internalType": "address",
          "name": "account_",
          "type": "address"
        }
      ],
      "name": "isAuthorized",
      "outputs": [
        {
          "internalType": "bool",
          "name": "",
          "type": "bool"
        }
      ],
      "stateMutability": "view",
      "type": "function"
    },
    {
      "inputs": [],
      "name": "owner",
      "outputs": [
        {
          "internalType": "address",
          "name": "result",
          "type": "address"
        }
      ],
      "stateMutability": "view",
      "type": "function"
    },
    {
      "inputs": [
        {
          "internalType": "address",
          "name": "pendingOwner",
          "type": "address"
        }
      ],
      "name": "ownershipHandoverExpiresAt",
      "outputs": [
        {
          "internalType": "uint256",
          "name": "result",
          "type": "uint256"
        }
      ],
      "stateMutability": "view",
      "type": "function"
    },
    {
      "inputs": [
        {
          "internalType": "bytes",
          "name": "data_",
          "type": "bytes"
        }
      ],
      "name": "reclaim",
      "outputs": [
        {
          "internalType": "bool",
          "name": "",
          "type": "bool"
        }
      ],
      "stateMutability": "nonpayable",
      "type": "function"
    },
    {
      "inputs": [
        {
          "internalType": "bytes",
          "name": "",
          "type": "bytes"
        }
      ],
      "name": "reconcile",
      "outputs": [
        {
          "internalType": "uint256",
          "name": "",
          "type": "uint256"
        }
      ],
      "stateMutability": "nonpayable",
      "type": "function"
    },
    {
      "inputs": [],
      "name": "renounceOwnership",
      "outputs": [],
      "stateMutability": "payable",
      "type": "function"
    },
    {
      "inputs": [],
      "name": "requestOwnershipHandover",
      "outputs": [],
      "stateMutability": "payable",
      "type": "function"
    },
    {
      "inputs": [
        {
          "internalType": "address[]",
          "name": "account_",
          "type": "address[]"
        },
        {
          "internalType": "bool[]",
          "name": "authorized_",
          "type": "bool[]"
        }
      ],
      "name": "setAuthorized",
      "outputs": [],
      "stateMutability": "nonpayable",
      "type": "function"
    },
    {
      "inputs": [],
      "name": "start",
      "outputs": [
        {
          "internalType": "uint64",
          "name": "",
          "type": "uint64"
        }
      ],
      "stateMutability": "view",
      "type": "function"
    },
    {
      "inputs": [
        {
          "internalType": "bytes4",
          "name": "interfaceId",
          "type": "bytes4"
        }
      ],
      "name": "supportsInterface",
      "outputs": [
        {
          "internalType": "bool",
          "name": "",
          "type": "bool"
        }
      ],
      "stateMutability": "view",
      "type": "function"
    },
    {
      "inputs": [
        {
          "internalType": "address",
          "name": "asset_",
          "type": "address"
        }
      ],
      "name": "total",
      "outputs": [
        {
          "internalType": "uint256",
          "name": "",
          "type": "uint256"
        }
      ],
      "stateMutability": "view",
      "type": "function"
    },
    {
      "inputs": [
        {
          "internalType": "address",
          "name": "newOwner",
          "type": "address"
        }
      ],
      "name": "transferOwnership",
      "outputs": [],
      "stateMutability": "payable",
      "type": "function"
    },
    {
      "stateMutability": "payable",
      "type": "receive"
    }
  ],
  "bytecode": "0x608060405234801561000f575f80fd5b5061001f3361003260201b60201c565b61002d61010e60201b60201c565b6101a7565b61004061017a60201b60201c565b156100b8577fffffffffffffffffffffffffffffffffffffffffffffffffffffffff7487392780541561007a57630dc149f05f526004601cfd5b8160601b60601c9150811560ff1b82178155815f7f8be0079c531659141344cd1fd0a4f28419497f9722a3daafe3b4186f6b6457e05f80a35061010b565b8060601b60601c9050807fffffffffffffffffffffffffffffffffffffffffffffffffffffffff7487392755805f7f8be0079c531659141344cd1fd0a4f28419497f9722a3daafe3b4186f6b6457e05f80a35b50565b5f61011d61017e60201b60201c565b9050805460018116156101375763f92ee8a95f526004601cfd5b8160c01c808260011c14610175578060011b8355806020527fc7f505b2f371ae2175ee4913f4499e1f2633a7b5936321eed1cdaeb6115181d2602080a15b505050565b5f90565b5f7fffffffffffffffffffffffffffffffffffffffffffffffffffffffffbf6011325f1b905090565b612595806101b45f395ff3fe60806040526004361061014e575f3560e01c80636e441e4c116100b5578063f04e283e1161006e578063f04e283e14610459578063f1c30ec014610475578063f2fde38b146104b1578063fa4ca9b1146104cd578063fe9fbb8014610509578063fee81cf41461054557610155565b80636e441e4c1461036b578063715018a6146103955780638da5cb5b1461039f578063be9a6555146103c9578063d2514e84146103f3578063efbe1c1c1461042f57610155565b8063439fab9111610107578063439fab9114610255578063451cc1911461027d57806354d1f13d146102b9578063578bcf35146102c35780635aef467a146102ff57806361400c991461032f57610155565b806301ffc9a7146101575780630fb5a6b41461019357806310098ad5146101bd57806313d033c0146101f957806325692962146102235780634359d28a1461022d57610155565b3661015557005b005b348015610162575f80fd5b5061017d60048036038101906101789190611900565b610581565b60405161018a9190611945565b60405180910390f35b34801561019e575f80fd5b506101a76105fa565b6040516101b49190611980565b60405180910390f35b3480156101c8575f80fd5b506101e360048036038101906101de91906119f3565b610614565b6040516101f09190611a36565b60405180910390f35b348015610204575f80fd5b5061020d61066d565b60405161021a9190611980565b60405180910390f35b61022b610687565b005b348015610238575f80fd5b50610253600480360381019061024e9190611b05565b6106d8565b005b348015610260575f80fd5b5061027b60048036038101906102769190611bd8565b6107e2565b005b348015610288575f80fd5b506102a3600480360381019061029e9190611bd8565b61098c565b6040516102b09190611a36565b60405180910390f35b6102c1610993565b005b3480156102ce575f80fd5b506102e960048036038101906102e491906119f3565b6109cc565b6040516102f69190611a36565b60405180910390f35b61031960048036038101906103149190611bd8565b610a11565b6040516103269190611945565b60405180910390f35b34801561033a575f80fd5b5061035560048036038101906103509190611c78565b610bde565b6040516103629190611945565b60405180910390f35b348015610376575f80fd5b5061037f610c42565b60405161038c9190611d33565b60405180910390f35b61039d610c7f565b005b3480156103aa575f80fd5b506103b3610c92565b6040516103c09190611d62565b60405180910390f35b3480156103d4575f80fd5b506103dd610cba565b6040516103ea9190611980565b60405180910390f35b3480156103fe575f80fd5b50610419600480360381019061041491906119f3565b610cd3565b6040516104269190611a36565b60405180910390f35b34801561043a575f80fd5b50610443610d8a565b6040516104509190611a36565b60405180910390f35b610473600480360381019061046e91906119f3565b610dd1565b005b348015610480575f80fd5b5061049b60048036038101906104969190611bd8565b610e0f565b6040516104a89190611945565b60405180910390f35b6104cb60048036038101906104c691906119f3565b610ef4565b005b3480156104d8575f80fd5b506104f360048036038101906104ee9190611bd8565b610f1d565b6040516105009190611945565b60405180910390f35b348015610514575f80fd5b5061052f600480360381019061052a91906119f3565b61101c565b60405161053c9190611945565b60405180910390f35b348015610550575f80fd5b5061056b600480360381019061056691906119f3565b6110ab565b6040516105789190611a36565b60405180910390f35b5f7f5cd687ca000000000000000000000000000000000000000000000000000000007bffffffffffffffffffffffffffffffffffffffffffffffffffffffff1916827bffffffffffffffffffffffffffffffffffffffffffffffffffffffff191614806105f357506105f2826110c4565b5b9050919050565b600260089054906101000a900467ffffffffffffffff1681565b5f805f8373ffffffffffffffffffffffffffffffffffffffff1673ffffffffffffffffffffffffffffffffffffffff1681526020019081526020015f205461065c834261113d565b6106669190611da8565b9050919050565b600260109054906101000a900467ffffffffffffffff1681565b5f6106906111fe565b67ffffffffffffffff164201905063389a75e1600c52335f52806020600c2055337fdbf36a107da19e49527a7176a1babf963b4b0ff8cde35ee35d6cd8f1f9ac7e1d5f80a250565b6106e0611208565b81819050848490501461071f576040517fff633a3800000000000000000000000000000000000000000000000000000000815260040160405180910390fd5b5f5b848490508110156107db5782828281811061073f5761073e611ddb565b5b90506020020160208101906107549190611e32565b60015f87878581811061076a57610769611ddb565b5b905060200201602081019061077f91906119f3565b73ffffffffffffffffffffffffffffffffffffffff1673ffffffffffffffffffffffffffffffffffffffff1681526020019081526020015f205f6101000a81548160ff0219169083151502179055508080600101915050610721565b5050505050565b5f6107eb61123f565b9050805460038255801561081d5760018160011c14303b106108145763f92ee8a95f526004601cfd5b818160ff1b1b91505b505f838381019061082e919061206c565b9050806040015160025f6101000a81548167ffffffffffffffff021916908367ffffffffffffffff1602179055508060600151600260086101000a81548167ffffffffffffffff021916908367ffffffffffffffff1602179055508060800151600260106101000a81548167ffffffffffffffff021916908367ffffffffffffffff1602179055506108c2815f0151611268565b5f5b816020015151811015610950576001805f846020015184815181106108ec576108eb611ddb565b5b602002602001015173ffffffffffffffffffffffffffffffffffffffff1673ffffffffffffffffffffffffffffffffffffffff1681526020019081526020015f205f6101000a81548160ff02191690831515021790555080806001019150506108c4565b50508015610987576002815560016020527fc7f505b2f371ae2175ee4913f4499e1f2633a7b5936321eed1cdaeb6115181d2602080a15b505050565b5f92915050565b63389a75e1600c52335f525f6020600c2055337ffa7b8eab7da67f412cc9575ed43464468f9bfbae89d1675917346ca6d8fe3c925f80a2565b5f805f8373ffffffffffffffffffffffffffffffffffffffff1673ffffffffffffffffffffffffffffffffffffffff1681526020019081526020015f20549050919050565b5f808383810190610a229190612217565b90505f6002811115610a3757610a3661225e565b5b815f01516002811115610a4d57610a4c61225e565b5b03610ac3575f8160600151806020019051810190610a6b91906122ee565b9050805f01513414610abd578160200151815f01516040517fcece04c5000000000000000000000000000000000000000000000000000000008152600401610ab4929190612319565b60405180910390fd5b50610bd2565b60016002811115610ad757610ad661225e565b5b815f01516002811115610aed57610aec61225e565b5b03610bc8575f8160600151806020019051810190610b0b91906122ee565b9050610b45826040015130835f0151856020015173ffffffffffffffffffffffffffffffffffffffff1661133e909392919063ffffffff16565b805f0151610b7630846020015173ffffffffffffffffffffffffffffffffffffffff1661139890919063ffffffff16565b1015610bc2578160200151815f01516040517fcece04c5000000000000000000000000000000000000000000000000000000008152600401610bb9929190612319565b60405180910390fd5b50610bd1565b5f915050610bd8565b5b60019150505b92915050565b5f805f90505b83839050811015610c3657610c1c848483818110610c0557610c04611ddb565b5b9050602002810190610c17919061234c565b610f1d565b610c29575f915050610c3c565b8080600101915050610be4565b50600190505b92915050565b60606040518060400160405280600d81526020017f56657374696e6742756467657400000000000000000000000000000000000000815250905090565b610c87611208565b610c905f6113cb565b565b5f7fffffffffffffffffffffffffffffffffffffffffffffffffffffffff7487392754905090565b60025f9054906101000a900467ffffffffffffffff1681565b5f805f73ffffffffffffffffffffffffffffffffffffffff168373ffffffffffffffffffffffffffffffffffffffff1614610d3657610d31308473ffffffffffffffffffffffffffffffffffffffff1661139890919063ffffffff16565b610d38565b475b9050805f808573ffffffffffffffffffffffffffffffffffffffff1673ffffffffffffffffffffffffffffffffffffffff1681526020019081526020015f2054610d8291906123ae565b915050919050565b5f600260089054906101000a900467ffffffffffffffff1660025f9054906101000a900467ffffffffffffffff16610dc291906123e1565b67ffffffffffffffff16905090565b610dd9611208565b63389a75e1600c52805f526020600c208054421115610dff57636f5e88185f526004601cfd5b5f815550610e0c816113cb565b50565b5f610e18611208565b5f8383810190610e289190612217565b90505f6002811115610e3d57610e3c61225e565b5b815f01516002811115610e5357610e5261225e565b5b1480610e86575060016002811115610e6e57610e6d61225e565b5b815f01516002811115610e8457610e8361225e565b5b145b15610edf575f8160600151806020019051810190610ea491906122ee565b9050610ed9826020015183604001515f845f015114610ec657835f0151610ed4565b610ed38560200151610614565b5b611491565b50610ee8565b5f915050610eee565b60019150505b92915050565b610efc611208565b8060601b610f1157637448fbae5f526004601cfd5b610f1a816113cb565b50565b5f610f273361101c565b610f5d576040517f82b4290000000000000000000000000000000000000000000000000000000000815260040160405180910390fd5b5f8383810190610f6d9190612217565b905060016002811115610f8357610f8261225e565b5b815f01516002811115610f9957610f9861225e565b5b1480610fcb57505f6002811115610fb357610fb261225e565b5b815f01516002811115610fc957610fc861225e565b5b145b15611007575f8160600151806020019051810190610fe991906122ee565b905061100182602001518360400151835f0151611491565b50611010565b5f915050611016565b60019150505b92915050565b5f60015f8373ffffffffffffffffffffffffffffffffffffffff1673ffffffffffffffffffffffffffffffffffffffff1681526020019081526020015f205f9054906101000a900460ff16806110a45750611075610c92565b73ffffffffffffffffffffffffffffffffffffffff168273ffffffffffffffffffffffffffffffffffffffff16145b9050919050565b5f63389a75e1600c52815f526020600c20549050919050565b5f7f2c247c7a000000000000000000000000000000000000000000000000000000007bffffffffffffffffffffffffffffffffffffffffffffffffffffffff1916827bffffffffffffffffffffffffffffffffffffffffffffffffffffffff191614806111365750611135826116a9565b5b9050919050565b5f805f73ffffffffffffffffffffffffffffffffffffffff168473ffffffffffffffffffffffffffffffffffffffff16146111a05761119b308573ffffffffffffffffffffffffffffffffffffffff1661139890919063ffffffff16565b6111a2565b475b90506111f55f808673ffffffffffffffffffffffffffffffffffffffff1673ffffffffffffffffffffffffffffffffffffffff1681526020019081526020015f2054826111ef91906123ae565b84611712565b91505092915050565b5f6202a300905090565b7fffffffffffffffffffffffffffffffffffffffffffffffffffffffff7487392754331461123d576382b429005f526004601cfd5b565b5f7fffffffffffffffffffffffffffffffffffffffffffffffffffffffffbf6011325f1b905090565b611270611830565b156112e8577fffffffffffffffffffffffffffffffffffffffffffffffffffffffff748739278054156112aa57630dc149f05f526004601cfd5b8160601b60601c9150811560ff1b82178155815f7f8be0079c531659141344cd1fd0a4f28419497f9722a3daafe3b4186f6b6457e05f80a35061133b565b8060601b60601c9050807fffffffffffffffffffffffffffffffffffffffffffffffffffffffff7487392755805f7f8be0079c531659141344cd1fd0a4f28419497f9722a3daafe3b4186f6b6457e05f80a35b50565b60405181606052826040528360601b602c526f23b872dd000000000000000000000000600c5260205f6064601c5f895af13d1560015f5114171661138957637939f4245f526004601cfd5b5f606052806040525050505050565b5f816014526f70a082310000000000000000000000005f5260208060246010865afa601f3d111660205102905092915050565b6113d3611830565b15611438577fffffffffffffffffffffffffffffffffffffffffffffffffffffffff748739278160601b60601c91508181547f8be0079c531659141344cd1fd0a4f28419497f9722a3daafe3b4186f6b6457e05f80a3811560ff1b821781555061148e565b7fffffffffffffffffffffffffffffffffffffffffffffffffffffffff748739278160601b60601c91508181547f8be0079c531659141344cd1fd0a4f28419497f9722a3daafe3b4186f6b6457e05f80a3818155505b50565b3068929eee149b4bd2126854036114af5763ab143c065f526004601cfd5b3068929eee149b4bd21268555f73ffffffffffffffffffffffffffffffffffffffff168273ffffffffffffffffffffffffffffffffffffffff160361152f578282826040517fbf182be80000000000000000000000000000000000000000000000000000000081526004016115269392919061241c565b60405180910390fd5b61153883610614565b811115611588578261154984610614565b826040517f5c54305e00000000000000000000000000000000000000000000000000000000815260040161157f93929190612451565b60405180910390fd5b805f808573ffffffffffffffffffffffffffffffffffffffff1673ffffffffffffffffffffffffffffffffffffffff1681526020019081526020015f205f8282546115d391906123ae565b925050819055505f73ffffffffffffffffffffffffffffffffffffffff168373ffffffffffffffffffffffffffffffffffffffff160361161c576116178282611834565b611648565b61164782828573ffffffffffffffffffffffffffffffffffffffff166118519092919063ffffffff16565b5b8273ffffffffffffffffffffffffffffffffffffffff167fad4a9acf26d8bba7a8cf1a41160d59be042ee554578e256c98d2ab74cdd435428383604051611690929190612319565b60405180910390a23868929eee149b4bd2126855505050565b5f7f01ffc9a7000000000000000000000000000000000000000000000000000000007bffffffffffffffffffffffffffffffffffffffffffffffffffffffff1916827bffffffffffffffffffffffffffffffffffffffffffffffffffffffff1916149050919050565b5f600260109054906101000a900467ffffffffffffffff1660025f9054906101000a900467ffffffffffffffff1661174a91906123e1565b67ffffffffffffffff168267ffffffffffffffff16101561176d575f905061182a565b600260089054906101000a900467ffffffffffffffff1660025f9054906101000a900467ffffffffffffffff166117a491906123e1565b67ffffffffffffffff168267ffffffffffffffff16106117c65782905061182a565b600260089054906101000a900467ffffffffffffffff1667ffffffffffffffff1660025f9054906101000a900467ffffffffffffffff16836118089190612486565b67ffffffffffffffff168461181d91906124c1565b611827919061252f565b90505b92915050565b5f90565b5f385f3884865af161184d5763b12d13eb5f526004601cfd5b5050565b81601452806034526fa9059cbb0000000000000000000000005f5260205f604460105f875af13d1560015f51141716611891576390b8ec185f526004601cfd5b5f603452505050565b5f604051905090565b5f80fd5b5f80fd5b5f7fffffffff0000000000000000000000000000000000000000000000000000000082169050919050565b6118df816118ab565b81146118e9575f80fd5b50565b5f813590506118fa816118d6565b92915050565b5f60208284031215611915576119146118a3565b5b5f611922848285016118ec565b91505092915050565b5f8115159050919050565b61193f8161192b565b82525050565b5f6020820190506119585f830184611936565b92915050565b5f67ffffffffffffffff82169050919050565b61197a8161195e565b82525050565b5f6020820190506119935f830184611971565b92915050565b5f73ffffffffffffffffffffffffffffffffffffffff82169050919050565b5f6119c282611999565b9050919050565b6119d2816119b8565b81146119dc575f80fd5b50565b5f813590506119ed816119c9565b92915050565b5f60208284031215611a0857611a076118a3565b5b5f611a15848285016119df565b91505092915050565b5f819050919050565b611a3081611a1e565b82525050565b5f602082019050611a495f830184611a27565b92915050565b5f80fd5b5f80fd5b5f80fd5b5f8083601f840112611a7057611a6f611a4f565b5b8235905067ffffffffffffffff811115611a8d57611a8c611a53565b5b602083019150836020820283011115611aa957611aa8611a57565b5b9250929050565b5f8083601f840112611ac557611ac4611a4f565b5b8235905067ffffffffffffffff811115611ae257611ae1611a53565b5b602083019150836020820283011115611afe57611afd611a57565b5b9250929050565b5f805f8060408587031215611b1d57611b1c6118a3565b5b5f85013567ffffffffffffffff811115611b3a57611b396118a7565b5b611b4687828801611a5b565b9450945050602085013567ffffffffffffffff811115611b6957611b686118a7565b5b611b7587828801611ab0565b925092505092959194509250565b5f8083601f840112611b9857611b97611a4f565b5b8235905067ffffffffffffffff811115611bb557611bb4611a53565b5b602083019150836001820283011115611bd157611bd0611a57565b5b9250929050565b5f8060208385031215611bee57611bed6118a3565b5b5f83013567ffffffffffffffff811115611c0b57611c0a6118a7565b5b611c1785828601611b83565b92509250509250929050565b5f8083601f840112611c3857611c37611a4f565b5b8235905067ffffffffffffffff811115611c5557611c54611a53565b5b602083019150836020820283011115611c7157611c70611a57565b5b9250929050565b5f8060208385031215611c8e57611c8d6118a3565b5b5f83013567ffffffffffffffff811115611cab57611caa6118a7565b5b611cb785828601611c23565b92509250509250929050565b5f81519050919050565b5f82825260208201905092915050565b8281835e5f83830152505050565b5f601f19601f8301169050919050565b5f611d0582611cc3565b611d0f8185611ccd565b9350611d1f818560208601611cdd565b611d2881611ceb565b840191505092915050565b5f6020820190508181035f830152611d4b8184611cfb565b905092915050565b611d5c816119b8565b82525050565b5f602082019050611d755f830184611d53565b92915050565b7f4e487b71000000000000000000000000000000000000000000000000000000005f52601160045260245ffd5b5f611db282611a1e565b9150611dbd83611a1e565b9250828203905081811115611dd557611dd4611d7b565b5b92915050565b7f4e487b71000000000000000000000000000000000000000000000000000000005f52603260045260245ffd5b611e118161192b565b8114611e1b575f80fd5b50565b5f81359050611e2c81611e08565b92915050565b5f60208284031215611e4757611e466118a3565b5b5f611e5484828501611e1e565b91505092915050565b5f80fd5b7f4e487b71000000000000000000000000000000000000000000000000000000005f52604160045260245ffd5b611e9782611ceb565b810181811067ffffffffffffffff82111715611eb657611eb5611e61565b5b80604052505050565b5f611ec861189a565b9050611ed48282611e8e565b919050565b5f80fd5b5f67ffffffffffffffff821115611ef757611ef6611e61565b5b602082029050602081019050919050565b5f611f1a611f1584611edd565b611ebf565b90508083825260208201905060208402830185811115611f3d57611f3c611a57565b5b835b81811015611f665780611f5288826119df565b845260208401935050602081019050611f3f565b5050509392505050565b5f82601f830112611f8457611f83611a4f565b5b8135611f94848260208601611f08565b91505092915050565b611fa68161195e565b8114611fb0575f80fd5b50565b5f81359050611fc181611f9d565b92915050565b5f60a08284031215611fdc57611fdb611e5d565b5b611fe660a0611ebf565b90505f611ff5848285016119df565b5f83015250602082013567ffffffffffffffff81111561201857612017611ed9565b5b61202484828501611f70565b602083015250604061203884828501611fb3565b604083015250606061204c84828501611fb3565b606083015250608061206084828501611fb3565b60808301525092915050565b5f60208284031215612081576120806118a3565b5b5f82013567ffffffffffffffff81111561209e5761209d6118a7565b5b6120aa84828501611fc7565b91505092915050565b600381106120bf575f80fd5b50565b5f813590506120d0816120b3565b92915050565b5f80fd5b5f67ffffffffffffffff8211156120f4576120f3611e61565b5b6120fd82611ceb565b9050602081019050919050565b828183375f83830152505050565b5f61212a612125846120da565b611ebf565b905082815260208101848484011115612146576121456120d6565b5b61215184828561210a565b509392505050565b5f82601f83011261216d5761216c611a4f565b5b813561217d848260208601612118565b91505092915050565b5f6080828403121561219b5761219a611e5d565b5b6121a56080611ebf565b90505f6121b4848285016120c2565b5f8301525060206121c7848285016119df565b60208301525060406121db848285016119df565b604083015250606082013567ffffffffffffffff8111156121ff576121fe611ed9565b5b61220b84828501612159565b60608301525092915050565b5f6020828403121561222c5761222b6118a3565b5b5f82013567ffffffffffffffff811115612249576122486118a7565b5b61225584828501612186565b91505092915050565b7f4e487b71000000000000000000000000000000000000000000000000000000005f52602160045260245ffd5b61229481611a1e565b811461229e575f80fd5b50565b5f815190506122af8161228b565b92915050565b5f602082840312156122ca576122c9611e5d565b5b6122d46020611ebf565b90505f6122e3848285016122a1565b5f8301525092915050565b5f60208284031215612303576123026118a3565b5b5f612310848285016122b5565b91505092915050565b5f60408201905061232c5f830185611d53565b6123396020830184611a27565b9392505050565b5f80fd5b5f80fd5b5f80fd5b5f808335600160200384360303811261236857612367612340565b5b80840192508235915067ffffffffffffffff82111561238a57612389612344565b5b6020830192506001820236038313156123a6576123a5612348565b5b509250929050565b5f6123b882611a1e565b91506123c383611a1e565b92508282019050808211156123db576123da611d7b565b5b92915050565b5f6123eb8261195e565b91506123f68361195e565b9250828201905067ffffffffffffffff81111561241657612415611d7b565b5b92915050565b5f60608201905061242f5f830186611d53565b61243c6020830185611d53565b6124496040830184611a27565b949350505050565b5f6060820190506124645f830186611d53565b6124716020830185611a27565b61247e6040830184611a27565b949350505050565b5f6124908261195e565b915061249b8361195e565b9250828203905067ffffffffffffffff8111156124bb576124ba611d7b565b5b92915050565b5f6124cb82611a1e565b91506124d683611a1e565b92508282026124e481611a1e565b915082820484148315176124fb576124fa611d7b565b5b5092915050565b7f4e487b71000000000000000000000000000000000000000000000000000000005f52601260045260245ffd5b5f61253982611a1e565b915061254483611a1e565b92508261255457612553612502565b5b82820490509291505056fea26469706673582212207347c47701da6e217775692e8d2c4f3beff39527746529a6e7e47ce5658c92ca64736f6c63430008190033",
  "linkReferences": {},
  "deployedLinkReferences": {}
}