{
  "_format": "hh-sol-artifact-1",
  "contractName": "ContractAction",
  "sourceName": "contracts/actions/ContractAction.sol",
  "abi": [
    {
      "inputs": [],
      "stateMutability": "nonpayable",
      "type": "constructor"
    },
    {
      "inputs": [],
      "name": "CloneAlreadyInitialized",
      "type": "error"
    },
    {
      "inputs": [],
      "name": "InitializerNotImplemented",
      "type": "error"
    },
    {
      "inputs": [],
      "name": "InvalidInitialization",
      "type": "error"
    },
    {
      "inputs": [],
      "name": "InvalidInitializationData",
      "type": "error"
    },
    {
      "inputs": [],
      "name": "NotInitializing",
      "type": "error"
    },
    {
      "inputs": [
        {
          "internalType": "uint256",
          "name": "targetChainId",
          "type": "uint256"
        }
      ],
      "name": "TargetChainUnsupported",
      "type": "error"
    },
    {
      "anonymous": false,
      "inputs": [
        {
          "indexed": true,
          "internalType": "address",
          "name": "executor",
          "type": "address"
        },
        {
          "indexed": false,
          "internalType": "address",
          "name": "caller",
          "type": "address"
        },
        {
          "indexed": false,
          "internalType": "bool",
          "name": "success",
          "type": "bool"
        },
        {
          "indexed": false,
          "internalType": "bytes",
          "name": "data",
          "type": "bytes"
        }
      ],
      "name": "ActionExecuted",
      "type": "event"
    },
    {
      "anonymous": false,
      "inputs": [
        {
          "indexed": true,
          "internalType": "address",
          "name": "user",
          "type": "address"
        },
        {
          "indexed": false,
          "internalType": "bool",
          "name": "isValidated",
          "type": "bool"
        },
        {
          "indexed": false,
          "internalType": "bytes",
          "name": "data",
          "type": "bytes"
        }
      ],
      "name": "ActionValidated",
      "type": "event"
    },
    {
      "anonymous": false,
      "inputs": [
        {
          "indexed": false,
          "internalType": "uint64",
          "name": "version",
          "type": "uint64"
        }
      ],
      "name": "Initialized",
      "type": "event"
    },
    {
      "inputs": [],
      "name": "VALIDATOR",
      "outputs": [
        {
          "internalType": "contract Validator",
          "name": "",
          "type": "address"
        }
      ],
      "stateMutability": "view",
      "type": "function"
    },
    {
      "inputs": [],
      "name": "chainId",
      "outputs": [
        {
          "internalType": "uint256",
          "name": "",
          "type": "uint256"
        }
      ],
      "stateMutability": "view",
      "type": "function"
    },
    {
      "inputs": [
        {
          "internalType": "bytes",
          "name": "data_",
          "type": "bytes"
        }
      ],
      "name": "execute",
      "outputs": [
        {
          "internalType": "bool",
          "name": "",
          "type": "bool"
        },
        {
          "internalType": "bytes",
          "name": "",
          "type": "bytes"
        }
      ],
      "stateMutability": "payable",
      "type": "function"
    },
    {
      "inputs": [],
      "name": "getComponentInterface",
      "outputs": [
        {
          "internalType": "bytes4",
          "name": "",
          "type": "bytes4"
        }
      ],
      "stateMutability": "pure",
      "type": "function"
    },
    {
      "inputs": [
        {
          "internalType": "bytes",
          "name": "data_",
          "type": "bytes"
        }
      ],
      "name": "initialize",
      "outputs": [],
      "stateMutability": "nonpayable",
      "type": "function"
    },
    {
      "inputs": [
        {
          "internalType": "bytes",
          "name": "data_",
          "type": "bytes"
        }
      ],
      "name": "prepare",
      "outputs": [
        {
          "internalType": "bytes",
          "name": "bytes_",
          "type": "bytes"
        }
      ],
      "stateMutability": "view",
      "type": "function"
    },
    {
      "inputs": [],
      "name": "selector",
      "outputs": [
        {
          "internalType": "bytes4",
          "name": "",
          "type": "bytes4"
        }
      ],
      "stateMutability": "view",
      "type": "function"
    },
    {
      "inputs": [
        {
          "internalType": "bytes4",
          "name": "interfaceId",
          "type": "bytes4"
        }
      ],
      "name": "supportsInterface",
      "outputs": [
        {
          "internalType": "bool",
          "name": "",
          "type": "bool"
        }
      ],
      "stateMutability": "view",
      "type": "function"
    },
    {
      "inputs": [],
      "name": "target",
      "outputs": [
        {
          "internalType": "address",
          "name": "",
          "type": "address"
        }
      ],
      "stateMutability": "view",
      "type": "function"
    },
    {
      "inputs": [],
      "name": "value",
      "outputs": [
        {
          "internalType": "uint256",
          "name": "",
          "type": "uint256"
        }
      ],
      "stateMutability": "view",
      "type": "function"
    }
  ],
  "bytecode": "0x60a0604052348015600e575f80fd5b50601b601f60201b60201c565b60b0565b5f602c608760201b60201c565b90508054600181161560455763f92ee8a95f526004601cfd5b8160c01c808260011c146082578060011b8355806020527fc7f505b2f371ae2175ee4913f4499e1f2633a7b5936321eed1cdaeb6115181d2602080a15b505050565b5f7fffffffffffffffffffffffffffffffffffffffffffffffffffffffffbf6011325f1b905090565b608051610cbb6100c85f395f6104030152610cbb5ff3fe608060405260043610610090575f3560e01c8063439fab9111610058578063439fab911461017f5780639a8a0592146101a7578063d4b83992146101d1578063d7768c47146101fb578063ea3d508a1461023757610090565b806301ffc9a71461009457806309c5eabe146100d057806328d6183b14610101578063393df8cb1461012b5780633fa4f24514610155575b5f80fd5b34801561009f575f80fd5b506100ba60048036038101906100b591906107d8565b610261565b6040516100c7919061081d565b60405180910390f35b6100ea60048036038101906100e59190610897565b6102da565b6040516100f8929190610952565b60405180910390f35b34801561010c575f80fd5b506101156103da565b604051610122919061098f565b60405180910390f35b348015610136575f80fd5b5061013f610401565b60405161014c9190610a22565b60405180910390f35b348015610160575f80fd5b50610169610425565b6040516101769190610a53565b60405180910390f35b34801561018a575f80fd5b506101a560048036038101906101a09190610897565b61042b565b005b3480156101b2575f80fd5b506101bb6104b8565b6040516101c89190610a53565b60405180910390f35b3480156101dc575f80fd5b506101e56104bd565b6040516101f29190610a8c565b60405180910390f35b348015610206575f80fd5b50610221600480360381019061021c9190610897565b6104e2565b60405161022e9190610aa5565b60405180910390f35b348015610242575f80fd5b5061024b610506565b604051610258919061098f565b60405180910390f35b5f7f2fae823b000000000000000000000000000000000000000000000000000000007bffffffffffffffffffffffffffffffffffffffffffffffffffffffff1916827bffffffffffffffffffffffffffffffffffffffffffffffffffffffff191614806102d357506102d282610519565b5b9050919050565b5f6060465f5414610323575f546040517f180098f400000000000000000000000000000000000000000000000000000000815260040161031a9190610a53565b60405180910390fd5b5f8060015f9054906101000a900473ffffffffffffffffffffffffffffffffffffffff1673ffffffffffffffffffffffffffffffffffffffff1660025461037a600160149054906101000a900460e01b8989610592565b6040516103879190610aff565b5f6040518083038185875af1925050503d805f81146103c1576040519150601f19603f3d011682016040523d82523d5f602084013e6103c6565b606091505b509150915081819350935050509250929050565b5f7f2fae823b00000000000000000000000000000000000000000000000000000000905090565b7f000000000000000000000000000000000000000000000000000000000000000081565b60025481565b5f6104346105be565b905080546003825580156104665760018160011c14303b1061045d5763f92ee8a95f526004601cfd5b818160ff1b1b91505b5061047e83838101906104799190610c5a565b6105e7565b80156104b3576002815560016020527fc7f505b2f371ae2175ee4913f4499e1f2633a7b5936321eed1cdaeb6115181d2602080a15b505050565b5f5481565b60015f9054906101000a900473ffffffffffffffffffffffffffffffffffffffff1681565b60606104fe600160149054906101000a900460e01b8484610592565b905092915050565b600160149054906101000a900460e01b81565b5f7fcea74fae000000000000000000000000000000000000000000000000000000007bffffffffffffffffffffffffffffffffffffffffffffffffffffffff1916827bffffffffffffffffffffffffffffffffffffffffffffffffffffffff1916148061058b575061058a8261066c565b5b9050919050565b606081600401604051915080825260208101820160405284602083015282846024840137509392505050565b5f7fffffffffffffffffffffffffffffffffffffffffffffffffffffffffbf6011325f1b905090565b6105ef6106e5565b805f01515f81905550806020015160015f6101000a81548173ffffffffffffffffffffffffffffffffffffffff021916908373ffffffffffffffffffffffffffffffffffffffff1602179055508060400151600160146101000a81548163ffffffff021916908360e01c0217905550806060015160028190555050565b5f7f6ab67a0d000000000000000000000000000000000000000000000000000000007bffffffffffffffffffffffffffffffffffffffffffffffffffffffff1916827bffffffffffffffffffffffffffffffffffffffffffffffffffffffff191614806106de57506106dd82610709565b5b9050919050565b5f6106ee6105be565b905080546001166107065763d7e6bcf85f526004601cfd5b50565b5f7f01ffc9a7000000000000000000000000000000000000000000000000000000007bffffffffffffffffffffffffffffffffffffffffffffffffffffffff1916827bffffffffffffffffffffffffffffffffffffffffffffffffffffffff1916149050919050565b5f604051905090565b5f80fd5b5f80fd5b5f7fffffffff0000000000000000000000000000000000000000000000000000000082169050919050565b6107b781610783565b81146107c1575f80fd5b50565b5f813590506107d2816107ae565b92915050565b5f602082840312156107ed576107ec61077b565b5b5f6107fa848285016107c4565b91505092915050565b5f8115159050919050565b61081781610803565b82525050565b5f6020820190506108305f83018461080e565b92915050565b5f80fd5b5f80fd5b5f80fd5b5f8083601f84011261085757610856610836565b5b8235905067ffffffffffffffff8111156108745761087361083a565b5b6020830191508360018202830111156108905761088f61083e565b5b9250929050565b5f80602083850312156108ad576108ac61077b565b5b5f83013567ffffffffffffffff8111156108ca576108c961077f565b5b6108d685828601610842565b92509250509250929050565b5f81519050919050565b5f82825260208201905092915050565b8281835e5f83830152505050565b5f601f19601f8301169050919050565b5f610924826108e2565b61092e81856108ec565b935061093e8185602086016108fc565b6109478161090a565b840191505092915050565b5f6040820190506109655f83018561080e565b8181036020830152610977818461091a565b90509392505050565b61098981610783565b82525050565b5f6020820190506109a25f830184610980565b92915050565b5f73ffffffffffffffffffffffffffffffffffffffff82169050919050565b5f819050919050565b5f6109ea6109e56109e0846109a8565b6109c7565b6109a8565b9050919050565b5f6109fb826109d0565b9050919050565b5f610a0c826109f1565b9050919050565b610a1c81610a02565b82525050565b5f602082019050610a355f830184610a13565b92915050565b5f819050919050565b610a4d81610a3b565b82525050565b5f602082019050610a665f830184610a44565b92915050565b5f610a76826109a8565b9050919050565b610a8681610a6c565b82525050565b5f602082019050610a9f5f830184610a7d565b92915050565b5f6020820190508181035f830152610abd818461091a565b905092915050565b5f81905092915050565b5f610ad9826108e2565b610ae38185610ac5565b9350610af38185602086016108fc565b80840191505092915050565b5f610b0a8284610acf565b915081905092915050565b5f80fd5b7f4e487b71000000000000000000000000000000000000000000000000000000005f52604160045260245ffd5b610b4f8261090a565b810181811067ffffffffffffffff82111715610b6e57610b6d610b19565b5b80604052505050565b5f610b80610772565b9050610b8c8282610b46565b919050565b610b9a81610a3b565b8114610ba4575f80fd5b50565b5f81359050610bb581610b91565b92915050565b610bc481610a6c565b8114610bce575f80fd5b50565b5f81359050610bdf81610bbb565b92915050565b5f60808284031215610bfa57610bf9610b15565b5b610c046080610b77565b90505f610c1384828501610ba7565b5f830152506020610c2684828501610bd1565b6020830152506040610c3a848285016107c4565b6040830152506060610c4e84828501610ba7565b60608301525092915050565b5f60808284031215610c6f57610c6e61077b565b5b5f610c7c84828501610be5565b9150509291505056fea26469706673582212200967d390cd5778f888a85c3a7cbabb534083aee963a321a3048e8f78238d73d464736f6c634300081a0033",
  "linkReferences": {},
  "deployedLinkReferences": {}
}