{
  "_format": "hh-sol-artifact-1",
  "contractName": "ContractAction",
  "sourceName": "contracts/actions/ContractAction.sol",
  "abi": [
    {
      "inputs": [],
      "stateMutability": "nonpayable",
      "type": "constructor"
    },
    {
      "inputs": [],
      "name": "CloneAlreadyInitialized",
      "type": "error"
    },
    {
      "inputs": [],
      "name": "ExecuteNotImplemented",
      "type": "error"
    },
    {
      "inputs": [],
      "name": "InitializerNotImplemented",
      "type": "error"
    },
    {
      "inputs": [],
      "name": "InvalidInitialization",
      "type": "error"
    },
    {
      "inputs": [],
      "name": "InvalidInitializationData",
      "type": "error"
    },
    {
      "inputs": [],
      "name": "NotInitializing",
      "type": "error"
    },
    {
      "inputs": [
        {
          "internalType": "uint256",
          "name": "targetChainId",
          "type": "uint256"
        }
      ],
      "name": "TargetChainUnsupported",
      "type": "error"
    },
    {
      "anonymous": false,
      "inputs": [
        {
          "indexed": true,
          "internalType": "address",
          "name": "executor",
          "type": "address"
        },
        {
          "indexed": false,
          "internalType": "address",
          "name": "caller",
          "type": "address"
        },
        {
          "indexed": false,
          "internalType": "bool",
          "name": "success",
          "type": "bool"
        },
        {
          "indexed": false,
          "internalType": "bytes",
          "name": "data",
          "type": "bytes"
        }
      ],
      "name": "ActionExecuted",
      "type": "event"
    },
    {
      "anonymous": false,
      "inputs": [
        {
          "indexed": true,
          "internalType": "address",
          "name": "user",
          "type": "address"
        },
        {
          "indexed": false,
          "internalType": "bool",
          "name": "isValidated",
          "type": "bool"
        },
        {
          "indexed": false,
          "internalType": "bytes",
          "name": "data",
          "type": "bytes"
        }
      ],
      "name": "ActionValidated",
      "type": "event"
    },
    {
      "anonymous": false,
      "inputs": [
        {
          "indexed": false,
          "internalType": "uint64",
          "name": "version",
          "type": "uint64"
        }
      ],
      "name": "Initialized",
      "type": "event"
    },
    {
      "inputs": [],
      "name": "VALIDATOR",
      "outputs": [
        {
          "internalType": "contract Validator",
          "name": "",
          "type": "address"
        }
      ],
      "stateMutability": "view",
      "type": "function"
    },
    {
      "inputs": [],
      "name": "chainId",
      "outputs": [
        {
          "internalType": "uint256",
          "name": "",
          "type": "uint256"
        }
      ],
      "stateMutability": "view",
      "type": "function"
    },
    {
      "inputs": [
        {
          "internalType": "bytes",
          "name": "data_",
          "type": "bytes"
        }
      ],
      "name": "execute",
      "outputs": [
        {
          "internalType": "bool",
          "name": "",
          "type": "bool"
        },
        {
          "internalType": "bytes",
          "name": "",
          "type": "bytes"
        }
      ],
      "stateMutability": "payable",
      "type": "function"
    },
    {
      "inputs": [
        {
          "internalType": "bytes",
          "name": "data_",
          "type": "bytes"
        }
      ],
      "name": "initialize",
      "outputs": [],
      "stateMutability": "nonpayable",
      "type": "function"
    },
    {
      "inputs": [
        {
          "internalType": "bytes",
          "name": "data_",
          "type": "bytes"
        }
      ],
      "name": "prepare",
      "outputs": [
        {
          "internalType": "bytes",
          "name": "bytes_",
          "type": "bytes"
        }
      ],
      "stateMutability": "view",
      "type": "function"
    },
    {
      "inputs": [],
      "name": "selector",
      "outputs": [
        {
          "internalType": "bytes4",
          "name": "",
          "type": "bytes4"
        }
      ],
      "stateMutability": "view",
      "type": "function"
    },
    {
      "inputs": [
        {
          "internalType": "bytes4",
          "name": "interfaceId",
          "type": "bytes4"
        }
      ],
      "name": "supportsInterface",
      "outputs": [
        {
          "internalType": "bool",
          "name": "",
          "type": "bool"
        }
      ],
      "stateMutability": "view",
      "type": "function"
    },
    {
      "inputs": [],
      "name": "target",
      "outputs": [
        {
          "internalType": "address",
          "name": "",
          "type": "address"
        }
      ],
      "stateMutability": "view",
      "type": "function"
    },
    {
      "inputs": [],
      "name": "value",
      "outputs": [
        {
          "internalType": "uint256",
          "name": "",
          "type": "uint256"
        }
      ],
      "stateMutability": "view",
      "type": "function"
    }
  ],
  "bytecode": "0x60a060405234801561001057600080fd5b5061001f61002460201b60201c565b6100bd565b600061003461009260201b60201c565b90508054600181161561004f5763f92ee8a96000526004601cfd5b8160c01c808260011c1461008d578060011b8355806020527fc7f505b2f371ae2175ee4913f4499e1f2633a7b5936321eed1cdaeb6115181d2602080a15b505050565b60007fffffffffffffffffffffffffffffffffffffffffffffffffffffffffbf60113260001b905090565b608051610c5a6100d860003960006103ba0152610c5a6000f3fe6080604052600436106100865760003560e01c8063439fab9111610059578063439fab911461014f5780639a8a059214610178578063d4b83992146101a3578063d7768c47146101ce578063ea3d508a1461020b57610086565b806301ffc9a71461008b57806309c5eabe146100c8578063393df8cb146100f95780633fa4f24514610124575b600080fd5b34801561009757600080fd5b506100b260048036038101906100ad9190610729565b610236565b6040516100bf9190610771565b60405180910390f35b6100e260048036038101906100dd91906107f1565b6102b0565b6040516100f09291906108ce565b60405180910390f35b34801561010557600080fd5b5061010e6103b8565b60405161011b919061097d565b60405180910390f35b34801561013057600080fd5b506101396103dc565b60405161014691906109b1565b60405180910390f35b34801561015b57600080fd5b50610176600480360381019061017191906107f1565b6103e2565b005b34801561018457600080fd5b5061018d610471565b60405161019a91906109b1565b60405180910390f35b3480156101af57600080fd5b506101b8610477565b6040516101c591906109ed565b60405180910390f35b3480156101da57600080fd5b506101f560048036038101906101f091906107f1565b61049d565b6040516102029190610a08565b60405180910390f35b34801561021757600080fd5b506102206104c1565b60405161022d9190610a39565b60405180910390f35b60007fe6715795000000000000000000000000000000000000000000000000000000007bffffffffffffffffffffffffffffffffffffffffffffffffffffffff1916827bffffffffffffffffffffffffffffffffffffffffffffffffffffffff191614806102a957506102a8826104d4565b5b9050919050565b6000606046600054146102fc576000546040517f180098f40000000000000000000000000000000000000000000000000000000081526004016102f391906109b1565b60405180910390fd5b600080600160009054906101000a900473ffffffffffffffffffffffffffffffffffffffff1673ffffffffffffffffffffffffffffffffffffffff16600254610355600160149054906101000a900460e01b898961054e565b6040516103629190610a90565b60006040518083038185875af1925050503d806000811461039f576040519150601f19603f3d011682016040523d82523d6000602084013e6103a4565b606091505b509150915081819350935050509250929050565b7f000000000000000000000000000000000000000000000000000000000000000081565b60025481565b60006103ec61057a565b9050805460038255801561041f5760018160011c14303b106104165763f92ee8a96000526004601cfd5b818160ff1b1b91505b5061043783838101906104329190610bf7565b6105a5565b801561046c576002815560016020527fc7f505b2f371ae2175ee4913f4499e1f2633a7b5936321eed1cdaeb6115181d2602080a15b505050565b60005481565b600160009054906101000a900473ffffffffffffffffffffffffffffffffffffffff1681565b60606104b9600160149054906101000a900460e01b848461054e565b905092915050565b600160149054906101000a900460e01b81565b60007f42606236000000000000000000000000000000000000000000000000000000007bffffffffffffffffffffffffffffffffffffffffffffffffffffffff1916827bffffffffffffffffffffffffffffffffffffffffffffffffffffffff1916148061054757506105468261062d565b5b9050919050565b606081600401604051915080825260208101820160405284602083015282846024840137509392505050565b60007fffffffffffffffffffffffffffffffffffffffffffffffffffffffffbf60113260001b905090565b6105ad610697565b80600001516000819055508060200151600160006101000a81548173ffffffffffffffffffffffffffffffffffffffff021916908373ffffffffffffffffffffffffffffffffffffffff1602179055508060400151600160146101000a81548163ffffffff021916908360e01c0217905550806060015160028190555050565b60007f01ffc9a7000000000000000000000000000000000000000000000000000000007bffffffffffffffffffffffffffffffffffffffffffffffffffffffff1916827bffffffffffffffffffffffffffffffffffffffffffffffffffffffff1916149050919050565b60006106a161057a565b905080546001166106ba5763d7e6bcf86000526004601cfd5b50565b6000604051905090565b600080fd5b600080fd5b60007fffffffff0000000000000000000000000000000000000000000000000000000082169050919050565b610706816106d1565b811461071157600080fd5b50565b600081359050610723816106fd565b92915050565b60006020828403121561073f5761073e6106c7565b5b600061074d84828501610714565b91505092915050565b60008115159050919050565b61076b81610756565b82525050565b60006020820190506107866000830184610762565b92915050565b600080fd5b600080fd5b600080fd5b60008083601f8401126107b1576107b061078c565b5b8235905067ffffffffffffffff8111156107ce576107cd610791565b5b6020830191508360018202830111156107ea576107e9610796565b5b9250929050565b60008060208385031215610808576108076106c7565b5b600083013567ffffffffffffffff811115610826576108256106cc565b5b6108328582860161079b565b92509250509250929050565b600081519050919050565b600082825260208201905092915050565b60005b8381101561087857808201518184015260208101905061085d565b60008484015250505050565b6000601f19601f8301169050919050565b60006108a08261083e565b6108aa8185610849565b93506108ba81856020860161085a565b6108c381610884565b840191505092915050565b60006040820190506108e36000830185610762565b81810360208301526108f58184610895565b90509392505050565b600073ffffffffffffffffffffffffffffffffffffffff82169050919050565b6000819050919050565b600061094361093e610939846108fe565b61091e565b6108fe565b9050919050565b600061095582610928565b9050919050565b60006109678261094a565b9050919050565b6109778161095c565b82525050565b6000602082019050610992600083018461096e565b92915050565b6000819050919050565b6109ab81610998565b82525050565b60006020820190506109c660008301846109a2565b92915050565b60006109d7826108fe565b9050919050565b6109e7816109cc565b82525050565b6000602082019050610a0260008301846109de565b92915050565b60006020820190508181036000830152610a228184610895565b905092915050565b610a33816106d1565b82525050565b6000602082019050610a4e6000830184610a2a565b92915050565b600081905092915050565b6000610a6a8261083e565b610a748185610a54565b9350610a8481856020860161085a565b80840191505092915050565b6000610a9c8284610a5f565b915081905092915050565b600080fd5b7f4e487b7100000000000000000000000000000000000000000000000000000000600052604160045260246000fd5b610ae482610884565b810181811067ffffffffffffffff82111715610b0357610b02610aac565b5b80604052505050565b6000610b166106bd565b9050610b228282610adb565b919050565b610b3081610998565b8114610b3b57600080fd5b50565b600081359050610b4d81610b27565b92915050565b610b5c816109cc565b8114610b6757600080fd5b50565b600081359050610b7981610b53565b92915050565b600060808284031215610b9557610b94610aa7565b5b610b9f6080610b0c565b90506000610baf84828501610b3e565b6000830152506020610bc384828501610b6a565b6020830152506040610bd784828501610714565b6040830152506060610beb84828501610b3e565b60608301525092915050565b600060808284031215610c0d57610c0c6106c7565b5b6000610c1b84828501610b7f565b9150509291505056fea26469706673582212204af2c1587a357b377131e4c9819b346cf7fcab7a8267a95da9b8bca3a56d8c0264736f6c63430008180033",
  "linkReferences": {},
  "deployedLinkReferences": {}
}