{
  "_format": "hh-sol-artifact-1",
  "contractName": "AllowListIncentive",
  "sourceName": "contracts/incentives/AllowListIncentive.sol",
  "abi": [
    {
      "inputs": [],
      "stateMutability": "nonpayable",
      "type": "constructor"
    },
    {
      "inputs": [],
      "name": "AlreadyInitialized",
      "type": "error"
    },
    {
      "inputs": [],
      "name": "ClaimFailed",
      "type": "error"
    },
    {
      "inputs": [],
      "name": "CloneAlreadyInitialized",
      "type": "error"
    },
    {
      "inputs": [],
      "name": "InitializerNotImplemented",
      "type": "error"
    },
    {
      "inputs": [],
      "name": "InvalidInitialization",
      "type": "error"
    },
    {
      "inputs": [],
      "name": "InvalidInitializationData",
      "type": "error"
    },
    {
      "inputs": [],
      "name": "NewOwnerIsZeroAddress",
      "type": "error"
    },
    {
      "inputs": [],
      "name": "NoHandoverRequest",
      "type": "error"
    },
    {
      "inputs": [],
      "name": "NotClaimable",
      "type": "error"
    },
    {
      "inputs": [],
      "name": "NotImplemented",
      "type": "error"
    },
    {
      "inputs": [],
      "name": "NotInitializing",
      "type": "error"
    },
    {
      "inputs": [],
      "name": "Reentrancy",
      "type": "error"
    },
    {
      "inputs": [],
      "name": "Unauthorized",
      "type": "error"
    },
    {
      "anonymous": false,
      "inputs": [
        {
          "indexed": true,
          "internalType": "address",
          "name": "recipient",
          "type": "address"
        },
        {
          "indexed": false,
          "internalType": "bytes",
          "name": "data",
          "type": "bytes"
        }
      ],
      "name": "Claimed",
      "type": "event"
    },
    {
      "anonymous": false,
      "inputs": [
        {
          "indexed": false,
          "internalType": "uint64",
          "name": "version",
          "type": "uint64"
        }
      ],
      "name": "Initialized",
      "type": "event"
    },
    {
      "anonymous": false,
      "inputs": [
        {
          "indexed": true,
          "internalType": "address",
          "name": "pendingOwner",
          "type": "address"
        }
      ],
      "name": "OwnershipHandoverCanceled",
      "type": "event"
    },
    {
      "anonymous": false,
      "inputs": [
        {
          "indexed": true,
          "internalType": "address",
          "name": "pendingOwner",
          "type": "address"
        }
      ],
      "name": "OwnershipHandoverRequested",
      "type": "event"
    },
    {
      "anonymous": false,
      "inputs": [
        {
          "indexed": true,
          "internalType": "address",
          "name": "oldOwner",
          "type": "address"
        },
        {
          "indexed": true,
          "internalType": "address",
          "name": "newOwner",
          "type": "address"
        }
      ],
      "name": "OwnershipTransferred",
      "type": "event"
    },
    {
      "inputs": [],
      "name": "allowList",
      "outputs": [
        {
          "internalType": "contract SimpleAllowList",
          "name": "",
          "type": "address"
        }
      ],
      "stateMutability": "view",
      "type": "function"
    },
    {
      "inputs": [],
      "name": "cancelOwnershipHandover",
      "outputs": [],
      "stateMutability": "payable",
      "type": "function"
    },
    {
      "inputs": [
        {
          "internalType": "bytes",
          "name": "data_",
          "type": "bytes"
        }
      ],
      "name": "claim",
      "outputs": [
        {
          "internalType": "bool",
          "name": "",
          "type": "bool"
        }
      ],
      "stateMutability": "nonpayable",
      "type": "function"
    },
    {
      "inputs": [
        {
          "internalType": "address",
          "name": "",
          "type": "address"
        }
      ],
      "name": "claimed",
      "outputs": [
        {
          "internalType": "bool",
          "name": "",
          "type": "bool"
        }
      ],
      "stateMutability": "view",
      "type": "function"
    },
    {
      "inputs": [],
      "name": "claims",
      "outputs": [
        {
          "internalType": "uint256",
          "name": "",
          "type": "uint256"
        }
      ],
      "stateMutability": "view",
      "type": "function"
    },
    {
      "inputs": [
        {
          "internalType": "address",
          "name": "pendingOwner",
          "type": "address"
        }
      ],
      "name": "completeOwnershipHandover",
      "outputs": [],
      "stateMutability": "payable",
      "type": "function"
    },
    {
      "inputs": [],
      "name": "currentReward",
      "outputs": [
        {
          "internalType": "uint256",
          "name": "",
          "type": "uint256"
        }
      ],
      "stateMutability": "view",
      "type": "function"
    },
    {
      "inputs": [],
      "name": "getComponentInterface",
      "outputs": [
        {
          "internalType": "bytes4",
          "name": "",
          "type": "bytes4"
        }
      ],
      "stateMutability": "pure",
      "type": "function"
    },
    {
      "inputs": [
        {
          "internalType": "bytes",
          "name": "data_",
          "type": "bytes"
        }
      ],
      "name": "initialize",
      "outputs": [],
      "stateMutability": "nonpayable",
      "type": "function"
    },
    {
      "inputs": [
        {
          "internalType": "bytes",
          "name": "data_",
          "type": "bytes"
        }
      ],
      "name": "isClaimable",
      "outputs": [
        {
          "internalType": "bool",
          "name": "",
          "type": "bool"
        }
      ],
      "stateMutability": "view",
      "type": "function"
    },
    {
      "inputs": [],
      "name": "limit",
      "outputs": [
        {
          "internalType": "uint256",
          "name": "",
          "type": "uint256"
        }
      ],
      "stateMutability": "view",
      "type": "function"
    },
    {
      "inputs": [],
      "name": "owner",
      "outputs": [
        {
          "internalType": "address",
          "name": "result",
          "type": "address"
        }
      ],
      "stateMutability": "view",
      "type": "function"
    },
    {
      "inputs": [
        {
          "internalType": "address",
          "name": "pendingOwner",
          "type": "address"
        }
      ],
      "name": "ownershipHandoverExpiresAt",
      "outputs": [
        {
          "internalType": "uint256",
          "name": "result",
          "type": "uint256"
        }
      ],
      "stateMutability": "view",
      "type": "function"
    },
    {
      "inputs": [
        {
          "internalType": "bytes",
          "name": "",
          "type": "bytes"
        }
      ],
      "name": "preflight",
      "outputs": [
        {
          "internalType": "bytes",
          "name": "",
          "type": "bytes"
        }
      ],
      "stateMutability": "pure",
      "type": "function"
    },
    {
      "inputs": [
        {
          "internalType": "bytes",
          "name": "",
          "type": "bytes"
        }
      ],
      "name": "reclaim",
      "outputs": [
        {
          "internalType": "bool",
          "name": "",
          "type": "bool"
        }
      ],
      "stateMutability": "pure",
      "type": "function"
    },
    {
      "inputs": [],
      "name": "renounceOwnership",
      "outputs": [],
      "stateMutability": "payable",
      "type": "function"
    },
    {
      "inputs": [],
      "name": "requestOwnershipHandover",
      "outputs": [],
      "stateMutability": "payable",
      "type": "function"
    },
    {
      "inputs": [],
      "name": "reward",
      "outputs": [
        {
          "internalType": "uint256",
          "name": "",
          "type": "uint256"
        }
      ],
      "stateMutability": "view",
      "type": "function"
    },
    {
      "inputs": [
        {
          "internalType": "bytes4",
          "name": "interfaceId",
          "type": "bytes4"
        }
      ],
      "name": "supportsInterface",
      "outputs": [
        {
          "internalType": "bool",
          "name": "",
          "type": "bool"
        }
      ],
      "stateMutability": "view",
      "type": "function"
    },
    {
      "inputs": [
        {
          "internalType": "address",
          "name": "newOwner",
          "type": "address"
        }
      ],
      "name": "transferOwnership",
      "outputs": [],
      "stateMutability": "payable",
      "type": "function"
    }
  ],
  "bytecode": "0x608060405234801561000f575f80fd5b5061001f3361003260201b60201c565b61002d61010e60201b60201c565b6101a7565b61004061017a60201b60201c565b156100b8577fffffffffffffffffffffffffffffffffffffffffffffffffffffffff7487392780541561007a57630dc149f05f526004601cfd5b8160601b60601c9150811560ff1b82178155815f7f8be0079c531659141344cd1fd0a4f28419497f9722a3daafe3b4186f6b6457e05f80a35061010b565b8060601b60601c9050807fffffffffffffffffffffffffffffffffffffffffffffffffffffffff7487392755805f7f8be0079c531659141344cd1fd0a4f28419497f9722a3daafe3b4186f6b6457e05f80a35b50565b5f61011d61017e60201b60201c565b9050805460018116156101375763f92ee8a95f526004601cfd5b8160c01c808260011c14610175578060011b8355806020527fc7f505b2f371ae2175ee4913f4499e1f2633a7b5936321eed1cdaeb6115181d2602080a15b505050565b5f90565b5f7fffffffffffffffffffffffffffffffffffffffffffffffffffffffffbf6011325f1b905090565b6118cb806101b45f395ff3fe60806040526004361061011e575f3560e01c80638da5cb5b1161009f578063e18e650811610063578063e18e65081461037e578063f04e283e146103ba578063f1c30ec0146103d6578063f2fde38b14610412578063fee81cf41461042e5761011e565b80638da5cb5b14610288578063a4d66daf146102b2578063c63ff8dd146102dc578063c884ef8314610318578063dcc59b6f146103545761011e565b8063439fab91116100e6578063439fab91146101e65780634e7165a21461020e57806354d1f13d1461024a578063715018a61461025457806387b9d25c1461025e5761011e565b806301ffc9a71461012257806307621eca1461015e578063228cb7331461018857806325692962146101b257806328d6183b146101bc575b5f80fd5b34801561012d575f80fd5b5061014860048036038101906101439190610fdc565b61046a565b6040516101559190611021565b60405180910390f35b348015610169575f80fd5b506101726104e3565b60405161017f9190611052565b60405180910390f35b348015610193575f80fd5b5061019c6104ec565b6040516101a99190611052565b60405180910390f35b6101ba6104f2565b005b3480156101c7575f80fd5b506101d0610543565b6040516101dd919061107a565b60405180910390f35b3480156101f1575f80fd5b5061020c600480360381019061020791906110f4565b61056a565b005b348015610219575f80fd5b50610234600480360381019061022f91906110f4565b61064a565b60405161024191906111af565b60405180910390f35b6102526106a1565b005b61025c6106da565b005b348015610269575f80fd5b506102726106ed565b60405161027f9190611249565b60405180910390f35b348015610293575f80fd5b5061029c610712565b6040516102a99190611282565b60405180910390f35b3480156102bd575f80fd5b506102c661073a565b6040516102d39190611052565b60405180910390f35b3480156102e7575f80fd5b5061030260048036038101906102fd91906110f4565b610740565b60405161030f9190611021565b60405180910390f35b348015610323575f80fd5b5061033e600480360381019061033991906112c5565b610900565b60405161034b9190611021565b60405180910390f35b34801561035f575f80fd5b5061036861091d565b6040516103759190611052565b60405180910390f35b348015610389575f80fd5b506103a4600480360381019061039f91906110f4565b610922565b6040516103b19190611021565b60405180910390f35b6103d460048036038101906103cf91906112c5565b610a3f565b005b3480156103e1575f80fd5b506103fc60048036038101906103f791906110f4565b610a7d565b6040516104099190611021565b60405180910390f35b61042c600480360381019061042791906112c5565b610ab0565b005b348015610439575f80fd5b50610454600480360381019061044f91906112c5565b610ad9565b6040516104619190611052565b60405180910390f35b5f7fd1da3349000000000000000000000000000000000000000000000000000000007bffffffffffffffffffffffffffffffffffffffffffffffffffffffff1916827bffffffffffffffffffffffffffffffffffffffffffffffffffffffff191614806104dc57506104db82610af2565b5b9050919050565b5f600154905090565b60015481565b5f6104fb610b6b565b67ffffffffffffffff164201905063389a75e1600c52335f52806020600c2055337fdbf36a107da19e49527a7176a1babf963b4b0ff8cde35ee35d6cd8f1f9ac7e1d5f80a250565b5f7fd1da334900000000000000000000000000000000000000000000000000000000905090565b5f610573610b75565b905080546003825580156105a55760018160011c14303b1061059c5763f92ee8a95f526004601cfd5b818160ff1b1b91505b505f83838101906105b69190611422565b90506105c133610b9e565b805f015160035f6101000a81548173ffffffffffffffffffffffffffffffffffffffff021916908373ffffffffffffffffffffffffffffffffffffffff1602179055508060200151600481905550508015610645576002815560016020527fc7f505b2f371ae2175ee4913f4499e1f2633a7b5936321eed1cdaeb6115181d2602080a15b505050565b60605f67ffffffffffffffff811115610666576106656112f4565b5b6040519080825280601f01601f1916602001820160405280156106985781602001600182028036833780820191505090505b50905092915050565b63389a75e1600c52335f525f6020600c2055337ffa7b8eab7da67f412cc9575ed43464468f9bfbae89d1675917346ca6d8fe3c925f80a2565b6106e2610c74565b6106eb5f610cab565b565b60035f9054906101000a900473ffffffffffffffffffffffffffffffffffffffff1681565b5f7fffffffffffffffffffffffffffffffffffffffffffffffffffffffff7487392754905090565b60045481565b5f610749610c74565b5f83838101906107599190611566565b90506004545f8081548092919061076f906115da565b919050551015806107c9575060025f825f015173ffffffffffffffffffffffffffffffffffffffff1673ffffffffffffffffffffffffffffffffffffffff1681526020019081526020015f205f9054906101000a900460ff165b15610800576040517f6247a84e00000000000000000000000000000000000000000000000000000000815260040160405180910390fd5b600160025f835f015173ffffffffffffffffffffffffffffffffffffffff1673ffffffffffffffffffffffffffffffffffffffff1681526020019081526020015f205f6101000a81548160ff0219169083151502179055505f80610866835f0151610d71565b9150915060035f9054906101000a900473ffffffffffffffffffffffffffffffffffffffff1673ffffffffffffffffffffffffffffffffffffffff16633abb060483836040518363ffffffff1660e01b81526004016108c692919061178f565b5f604051808303815f87803b1580156108dd575f80fd5b505af11580156108ef573d5f803e3d5ffd5b505050506001935050505092915050565b6002602052805f5260405f205f915054906101000a900460ff1681565b5f5481565b5f8083838101906109339190611566565b90506004545f54108015610991575060025f825f015173ffffffffffffffffffffffffffffffffffffffff1673ffffffffffffffffffffffffffffffffffffffff1681526020019081526020015f205f9054906101000a900460ff16155b8015610a36575060035f9054906101000a900473ffffffffffffffffffffffffffffffffffffffff1673ffffffffffffffffffffffffffffffffffffffff1663e3f756de825f01516040518263ffffffff1660e01b81526004016109f591906117e7565b602060405180830381865afa158015610a10573d5f803e3d5ffd5b505050506040513d601f19601f82011682018060405250810190610a34919061183d565b155b91505092915050565b610a47610c74565b63389a75e1600c52805f526020600c208054421115610a6d57636f5e88185f526004601cfd5b5f815550610a7a81610cab565b50565b5f6040517fd623472500000000000000000000000000000000000000000000000000000000815260040160405180910390fd5b610ab8610c74565b8060601b610acd57637448fbae5f526004601cfd5b610ad681610cab565b50565b5f63389a75e1600c52815f526020600c20549050919050565b5f7f8085fa3e000000000000000000000000000000000000000000000000000000007bffffffffffffffffffffffffffffffffffffffffffffffffffffffff1916827bffffffffffffffffffffffffffffffffffffffffffffffffffffffff19161480610b645750610b6382610e90565b5b9050919050565b5f6202a300905090565b5f7fffffffffffffffffffffffffffffffffffffffffffffffffffffffffbf6011325f1b905090565b610ba6610f09565b15610c1e577fffffffffffffffffffffffffffffffffffffffffffffffffffffffff74873927805415610be057630dc149f05f526004601cfd5b8160601b60601c9150811560ff1b82178155815f7f8be0079c531659141344cd1fd0a4f28419497f9722a3daafe3b4186f6b6457e05f80a350610c71565b8060601b60601c9050807fffffffffffffffffffffffffffffffffffffffffffffffffffffffff7487392755805f7f8be0079c531659141344cd1fd0a4f28419497f9722a3daafe3b4186f6b6457e05f80a35b50565b7fffffffffffffffffffffffffffffffffffffffffffffffffffffffff74873927543314610ca9576382b429005f526004601cfd5b565b610cb3610f09565b15610d18577fffffffffffffffffffffffffffffffffffffffffffffffffffffffff748739278160601b60601c91508181547f8be0079c531659141344cd1fd0a4f28419497f9722a3daafe3b4186f6b6457e05f80a3811560ff1b8217815550610d6e565b7fffffffffffffffffffffffffffffffffffffffffffffffffffffffff748739278160601b60601c91508181547f8be0079c531659141344cd1fd0a4f28419497f9722a3daafe3b4186f6b6457e05f80a3818155505b50565b6060805f600167ffffffffffffffff811115610d9057610d8f6112f4565b5b604051908082528060200260200182016040528015610dbe5781602001602082028036833780820191505090505b5090505f600167ffffffffffffffff811115610ddd57610ddc6112f4565b5b604051908082528060200260200182016040528015610e0b5781602001602082028036833780820191505090505b50905084825f81518110610e2257610e21611868565b5b602002602001019073ffffffffffffffffffffffffffffffffffffffff16908173ffffffffffffffffffffffffffffffffffffffff16815250506001815f81518110610e7157610e70611868565b5b6020026020010190151590811515815250508181935093505050915091565b5f7f6ab67a0d000000000000000000000000000000000000000000000000000000007bffffffffffffffffffffffffffffffffffffffffffffffffffffffff1916827bffffffffffffffffffffffffffffffffffffffffffffffffffffffff19161480610f025750610f0182610f0d565b5b9050919050565b5f90565b5f7f01ffc9a7000000000000000000000000000000000000000000000000000000007bffffffffffffffffffffffffffffffffffffffffffffffffffffffff1916827bffffffffffffffffffffffffffffffffffffffffffffffffffffffff1916149050919050565b5f604051905090565b5f80fd5b5f80fd5b5f7fffffffff0000000000000000000000000000000000000000000000000000000082169050919050565b610fbb81610f87565b8114610fc5575f80fd5b50565b5f81359050610fd681610fb2565b92915050565b5f60208284031215610ff157610ff0610f7f565b5b5f610ffe84828501610fc8565b91505092915050565b5f8115159050919050565b61101b81611007565b82525050565b5f6020820190506110345f830184611012565b92915050565b5f819050919050565b61104c8161103a565b82525050565b5f6020820190506110655f830184611043565b92915050565b61107481610f87565b82525050565b5f60208201905061108d5f83018461106b565b92915050565b5f80fd5b5f80fd5b5f80fd5b5f8083601f8401126110b4576110b3611093565b5b8235905067ffffffffffffffff8111156110d1576110d0611097565b5b6020830191508360018202830111156110ed576110ec61109b565b5b9250929050565b5f806020838503121561110a57611109610f7f565b5b5f83013567ffffffffffffffff81111561112757611126610f83565b5b6111338582860161109f565b92509250509250929050565b5f81519050919050565b5f82825260208201905092915050565b8281835e5f83830152505050565b5f601f19601f8301169050919050565b5f6111818261113f565b61118b8185611149565b935061119b818560208601611159565b6111a481611167565b840191505092915050565b5f6020820190508181035f8301526111c78184611177565b905092915050565b5f73ffffffffffffffffffffffffffffffffffffffff82169050919050565b5f819050919050565b5f61121161120c611207846111cf565b6111ee565b6111cf565b9050919050565b5f611222826111f7565b9050919050565b5f61123382611218565b9050919050565b61124381611229565b82525050565b5f60208201905061125c5f83018461123a565b92915050565b5f61126c826111cf565b9050919050565b61127c81611262565b82525050565b5f6020820190506112955f830184611273565b92915050565b6112a481611262565b81146112ae575f80fd5b50565b5f813590506112bf8161129b565b92915050565b5f602082840312156112da576112d9610f7f565b5b5f6112e7848285016112b1565b91505092915050565b5f80fd5b7f4e487b71000000000000000000000000000000000000000000000000000000005f52604160045260245ffd5b61132a82611167565b810181811067ffffffffffffffff82111715611349576113486112f4565b5b80604052505050565b5f61135b610f76565b90506113678282611321565b919050565b5f80fd5b5f61137a82611262565b9050919050565b61138a81611370565b8114611394575f80fd5b50565b5f813590506113a581611381565b92915050565b6113b48161103a565b81146113be575f80fd5b50565b5f813590506113cf816113ab565b92915050565b5f604082840312156113ea576113e96112f0565b5b6113f46040611352565b90505f61140384828501611397565b5f830152506020611416848285016113c1565b60208301525092915050565b5f6040828403121561143757611436610f7f565b5b5f611444848285016113d5565b91505092915050565b5f80fd5b5f67ffffffffffffffff82111561146b5761146a6112f4565b5b61147482611167565b9050602081019050919050565b828183375f83830152505050565b5f6114a161149c84611451565b611352565b9050828152602081018484840111156114bd576114bc61144d565b5b6114c8848285611481565b509392505050565b5f82601f8301126114e4576114e3611093565b5b81356114f484826020860161148f565b91505092915050565b5f60408284031215611512576115116112f0565b5b61151c6040611352565b90505f61152b848285016112b1565b5f83015250602082013567ffffffffffffffff81111561154e5761154d61136c565b5b61155a848285016114d0565b60208301525092915050565b5f6020828403121561157b5761157a610f7f565b5b5f82013567ffffffffffffffff81111561159857611597610f83565b5b6115a4848285016114fd565b91505092915050565b7f4e487b71000000000000000000000000000000000000000000000000000000005f52601160045260245ffd5b5f6115e48261103a565b91507fffffffffffffffffffffffffffffffffffffffffffffffffffffffffffffffff8203611616576116156115ad565b5b600182019050919050565b5f81519050919050565b5f82825260208201905092915050565b5f819050602082019050919050565b61165381611262565b82525050565b5f611664838361164a565b60208301905092915050565b5f602082019050919050565b5f61168682611621565b611690818561162b565b935061169b8361163b565b805f5b838110156116cb5781516116b28882611659565b97506116bd83611670565b92505060018101905061169e565b5085935050505092915050565b5f81519050919050565b5f82825260208201905092915050565b5f819050602082019050919050565b61170a81611007565b82525050565b5f61171b8383611701565b60208301905092915050565b5f602082019050919050565b5f61173d826116d8565b61174781856116e2565b9350611752836116f2565b805f5b838110156117825781516117698882611710565b975061177483611727565b925050600181019050611755565b5085935050505092915050565b5f6040820190508181035f8301526117a7818561167c565b905081810360208301526117bb8184611733565b90509392505050565b50565b5f6117d25f83611149565b91506117dd826117c4565b5f82019050919050565b5f6040820190506117fa5f830184611273565b818103602083015261180b816117c7565b905092915050565b61181c81611007565b8114611826575f80fd5b50565b5f8151905061183781611813565b92915050565b5f6020828403121561185257611851610f7f565b5b5f61185f84828501611829565b91505092915050565b7f4e487b71000000000000000000000000000000000000000000000000000000005f52603260045260245ffdfea2646970667358221220ffb2739be6b6d5bbb57557d4cc8e5ca9d32b7da1ae892114e6bcb8d6c2faf27a64736f6c63430008190033",
  "linkReferences": {},
  "deployedLinkReferences": {}
}