{
  "_format": "hh-sol-artifact-1",
  "contractName": "AllowListIncentive",
  "sourceName": "contracts/incentives/AllowListIncentive.sol",
  "abi": [
    {
      "inputs": [],
      "stateMutability": "nonpayable",
      "type": "constructor"
    },
    {
      "inputs": [],
      "name": "AlreadyInitialized",
      "type": "error"
    },
    {
      "inputs": [],
      "name": "ClaimFailed",
      "type": "error"
    },
    {
      "inputs": [],
      "name": "CloneAlreadyInitialized",
      "type": "error"
    },
    {
      "inputs": [],
      "name": "InitializerNotImplemented",
      "type": "error"
    },
    {
      "inputs": [],
      "name": "InvalidInitialization",
      "type": "error"
    },
    {
      "inputs": [],
      "name": "InvalidInitializationData",
      "type": "error"
    },
    {
      "inputs": [],
      "name": "NewOwnerIsZeroAddress",
      "type": "error"
    },
    {
      "inputs": [],
      "name": "NoHandoverRequest",
      "type": "error"
    },
    {
      "inputs": [],
      "name": "NotClaimable",
      "type": "error"
    },
    {
      "inputs": [],
      "name": "NotImplemented",
      "type": "error"
    },
    {
      "inputs": [],
      "name": "NotInitializing",
      "type": "error"
    },
    {
      "inputs": [],
      "name": "Reentrancy",
      "type": "error"
    },
    {
      "inputs": [],
      "name": "Unauthorized",
      "type": "error"
    },
    {
      "anonymous": false,
      "inputs": [
        {
          "indexed": true,
          "internalType": "address",
          "name": "recipient",
          "type": "address"
        },
        {
          "indexed": false,
          "internalType": "bytes",
          "name": "data",
          "type": "bytes"
        }
      ],
      "name": "Claimed",
      "type": "event"
    },
    {
      "anonymous": false,
      "inputs": [
        {
          "indexed": false,
          "internalType": "uint64",
          "name": "version",
          "type": "uint64"
        }
      ],
      "name": "Initialized",
      "type": "event"
    },
    {
      "anonymous": false,
      "inputs": [
        {
          "indexed": true,
          "internalType": "address",
          "name": "pendingOwner",
          "type": "address"
        }
      ],
      "name": "OwnershipHandoverCanceled",
      "type": "event"
    },
    {
      "anonymous": false,
      "inputs": [
        {
          "indexed": true,
          "internalType": "address",
          "name": "pendingOwner",
          "type": "address"
        }
      ],
      "name": "OwnershipHandoverRequested",
      "type": "event"
    },
    {
      "anonymous": false,
      "inputs": [
        {
          "indexed": true,
          "internalType": "address",
          "name": "oldOwner",
          "type": "address"
        },
        {
          "indexed": true,
          "internalType": "address",
          "name": "newOwner",
          "type": "address"
        }
      ],
      "name": "OwnershipTransferred",
      "type": "event"
    },
    {
      "inputs": [],
      "name": "allowList",
      "outputs": [
        {
          "internalType": "contract SimpleAllowList",
          "name": "",
          "type": "address"
        }
      ],
      "stateMutability": "view",
      "type": "function"
    },
    {
      "inputs": [],
      "name": "cancelOwnershipHandover",
      "outputs": [],
      "stateMutability": "payable",
      "type": "function"
    },
    {
      "inputs": [
        {
          "internalType": "bytes",
          "name": "data_",
          "type": "bytes"
        }
      ],
      "name": "claim",
      "outputs": [
        {
          "internalType": "bool",
          "name": "",
          "type": "bool"
        }
      ],
      "stateMutability": "nonpayable",
      "type": "function"
    },
    {
      "inputs": [
        {
          "internalType": "address",
          "name": "",
          "type": "address"
        }
      ],
      "name": "claimed",
      "outputs": [
        {
          "internalType": "bool",
          "name": "",
          "type": "bool"
        }
      ],
      "stateMutability": "view",
      "type": "function"
    },
    {
      "inputs": [],
      "name": "claims",
      "outputs": [
        {
          "internalType": "uint256",
          "name": "",
          "type": "uint256"
        }
      ],
      "stateMutability": "view",
      "type": "function"
    },
    {
      "inputs": [
        {
          "internalType": "address",
          "name": "pendingOwner",
          "type": "address"
        }
      ],
      "name": "completeOwnershipHandover",
      "outputs": [],
      "stateMutability": "payable",
      "type": "function"
    },
    {
      "inputs": [
        {
          "internalType": "bytes",
          "name": "data_",
          "type": "bytes"
        }
      ],
      "name": "initialize",
      "outputs": [],
      "stateMutability": "nonpayable",
      "type": "function"
    },
    {
      "inputs": [],
      "name": "interfaceName",
      "outputs": [
        {
          "internalType": "string",
          "name": "",
          "type": "string"
        }
      ],
      "stateMutability": "pure",
      "type": "function"
    },
    {
      "inputs": [
        {
          "internalType": "bytes",
          "name": "data_",
          "type": "bytes"
        }
      ],
      "name": "isClaimable",
      "outputs": [
        {
          "internalType": "bool",
          "name": "",
          "type": "bool"
        }
      ],
      "stateMutability": "view",
      "type": "function"
    },
    {
      "inputs": [],
      "name": "limit",
      "outputs": [
        {
          "internalType": "uint256",
          "name": "",
          "type": "uint256"
        }
      ],
      "stateMutability": "view",
      "type": "function"
    },
    {
      "inputs": [],
      "name": "owner",
      "outputs": [
        {
          "internalType": "address",
          "name": "result",
          "type": "address"
        }
      ],
      "stateMutability": "view",
      "type": "function"
    },
    {
      "inputs": [
        {
          "internalType": "address",
          "name": "pendingOwner",
          "type": "address"
        }
      ],
      "name": "ownershipHandoverExpiresAt",
      "outputs": [
        {
          "internalType": "uint256",
          "name": "result",
          "type": "uint256"
        }
      ],
      "stateMutability": "view",
      "type": "function"
    },
    {
      "inputs": [
        {
          "internalType": "bytes",
          "name": "",
          "type": "bytes"
        }
      ],
      "name": "preflight",
      "outputs": [
        {
          "internalType": "bytes",
          "name": "",
          "type": "bytes"
        }
      ],
      "stateMutability": "pure",
      "type": "function"
    },
    {
      "inputs": [
        {
          "internalType": "bytes",
          "name": "",
          "type": "bytes"
        }
      ],
      "name": "reclaim",
      "outputs": [
        {
          "internalType": "bool",
          "name": "",
          "type": "bool"
        }
      ],
      "stateMutability": "pure",
      "type": "function"
    },
    {
      "inputs": [],
      "name": "renounceOwnership",
      "outputs": [],
      "stateMutability": "payable",
      "type": "function"
    },
    {
      "inputs": [],
      "name": "requestOwnershipHandover",
      "outputs": [],
      "stateMutability": "payable",
      "type": "function"
    },
    {
      "inputs": [
        {
          "internalType": "bytes4",
          "name": "interfaceId",
          "type": "bytes4"
        }
      ],
      "name": "supportsInterface",
      "outputs": [
        {
          "internalType": "bool",
          "name": "",
          "type": "bool"
        }
      ],
      "stateMutability": "view",
      "type": "function"
    },
    {
      "inputs": [
        {
          "internalType": "address",
          "name": "newOwner",
          "type": "address"
        }
      ],
      "name": "transferOwnership",
      "outputs": [],
      "stateMutability": "payable",
      "type": "function"
    }
  ],
  "bytecode": "0x608060405234801561000f575f80fd5b5061001f3361003260201b60201c565b61002d61010e60201b60201c565b6101a7565b61004061017a60201b60201c565b156100b8577fffffffffffffffffffffffffffffffffffffffffffffffffffffffff7487392780541561007a57630dc149f05f526004601cfd5b8160601b60601c9150811560ff1b82178155815f7f8be0079c531659141344cd1fd0a4f28419497f9722a3daafe3b4186f6b6457e05f80a35061010b565b8060601b60601c9050807fffffffffffffffffffffffffffffffffffffffffffffffffffffffff7487392755805f7f8be0079c531659141344cd1fd0a4f28419497f9722a3daafe3b4186f6b6457e05f80a35b50565b5f61011d61017e60201b60201c565b9050805460018116156101375763f92ee8a95f526004601cfd5b8160c01c808260011c14610175578060011b8355806020527fc7f505b2f371ae2175ee4913f4499e1f2633a7b5936321eed1cdaeb6115181d2602080a15b505050565b5f90565b5f7fffffffffffffffffffffffffffffffffffffffffffffffffffffffffbf6011325f1b905090565b611838806101b45f395ff3fe608060405260043610610108575f3560e01c8063a4d66daf11610094578063e18e650811610063578063e18e650814610314578063f04e283e14610350578063f1c30ec01461036c578063f2fde38b146103a8578063fee81cf4146103c457610108565b8063a4d66daf14610248578063c63ff8dd14610272578063c884ef83146102ae578063dcc59b6f146102ea57610108565b806354d1f13d116100db57806354d1f13d146101b65780636e441e4c146101c0578063715018a6146101ea57806387b9d25c146101f45780638da5cb5b1461021e57610108565b806301ffc9a71461010c5780632569296214610148578063439fab91146101525780634e7165a21461017a575b5f80fd5b348015610117575f80fd5b50610132600480360381019061012d9190610eff565b610400565b60405161013f9190610f44565b60405180910390f35b610150610479565b005b34801561015d575f80fd5b5061017860048036038101906101739190610fbe565b6104ca565b005b348015610185575f80fd5b506101a0600480360381019061019b9190610fbe565b6105aa565b6040516101ad9190611079565b60405180910390f35b6101be610601565b005b3480156101cb575f80fd5b506101d461063a565b6040516101e191906110eb565b60405180910390f35b6101f2610677565b005b3480156101ff575f80fd5b5061020861068a565b6040516102159190611185565b60405180910390f35b348015610229575f80fd5b506102326106af565b60405161023f91906111be565b60405180910390f35b348015610253575f80fd5b5061025c6106d7565b60405161026991906111ef565b60405180910390f35b34801561027d575f80fd5b5061029860048036038101906102939190610fbe565b6106dd565b6040516102a59190610f44565b60405180910390f35b3480156102b9575f80fd5b506102d460048036038101906102cf9190611232565b61089c565b6040516102e19190610f44565b60405180910390f35b3480156102f5575f80fd5b506102fe6108b9565b60405161030b91906111ef565b60405180910390f35b34801561031f575f80fd5b5061033a60048036038101906103359190610fbe565b6108be565b6040516103479190610f44565b60405180910390f35b61036a60048036038101906103659190611232565b6109db565b005b348015610377575f80fd5b50610392600480360381019061038d9190610fbe565b610a19565b60405161039f9190610f44565b60405180910390f35b6103c260048036038101906103bd9190611232565b610a4c565b005b3480156103cf575f80fd5b506103ea60048036038101906103e59190611232565b610a75565b6040516103f791906111ef565b60405180910390f35b5f7f8dbd4bfc000000000000000000000000000000000000000000000000000000007bffffffffffffffffffffffffffffffffffffffffffffffffffffffff1916827bffffffffffffffffffffffffffffffffffffffffffffffffffffffff19161480610472575061047182610a8e565b5b9050919050565b5f610482610b07565b67ffffffffffffffff164201905063389a75e1600c52335f52806020600c2055337fdbf36a107da19e49527a7176a1babf963b4b0ff8cde35ee35d6cd8f1f9ac7e1d5f80a250565b5f6104d3610b11565b905080546003825580156105055760018160011c14303b106104fc5763f92ee8a95f526004601cfd5b818160ff1b1b91505b505f8383810190610516919061138f565b905061052133610b3a565b805f015160025f6101000a81548173ffffffffffffffffffffffffffffffffffffffff021916908373ffffffffffffffffffffffffffffffffffffffff16021790555080602001516003819055505080156105a5576002815560016020527fc7f505b2f371ae2175ee4913f4499e1f2633a7b5936321eed1cdaeb6115181d2602080a15b505050565b60605f67ffffffffffffffff8111156105c6576105c5611261565b5b6040519080825280601f01601f1916602001820160405280156105f85781602001600182028036833780820191505090505b50905092915050565b63389a75e1600c52335f525f6020600c2055337ffa7b8eab7da67f412cc9575ed43464468f9bfbae89d1675917346ca6d8fe3c925f80a2565b60606040518060400160405280601281526020017f416c6c6f774c697374496e63656e746976650000000000000000000000000000815250905090565b61067f610c10565b6106885f610c47565b565b60025f9054906101000a900473ffffffffffffffffffffffffffffffffffffffff1681565b5f7fffffffffffffffffffffffffffffffffffffffffffffffffffffffff7487392754905090565b60035481565b5f6106e6610c10565b5f83838101906106f691906114d3565b90506003545f8081548092919061070c90611547565b91905055101580610766575060015f825f015173ffffffffffffffffffffffffffffffffffffffff1673ffffffffffffffffffffffffffffffffffffffff1681526020019081526020015f205f9054906101000a900460ff165b1561079d576040517f6247a84e00000000000000000000000000000000000000000000000000000000815260040160405180910390fd5b6001805f835f015173ffffffffffffffffffffffffffffffffffffffff1673ffffffffffffffffffffffffffffffffffffffff1681526020019081526020015f205f6101000a81548160ff0219169083151502179055505f80610802835f0151610d0d565b9150915060025f9054906101000a900473ffffffffffffffffffffffffffffffffffffffff1673ffffffffffffffffffffffffffffffffffffffff16633abb060483836040518363ffffffff1660e01b81526004016108629291906116fc565b5f604051808303815f87803b158015610879575f80fd5b505af115801561088b573d5f803e3d5ffd5b505050506001935050505092915050565b6001602052805f5260405f205f915054906101000a900460ff1681565b5f5481565b5f8083838101906108cf91906114d3565b90506003545f5410801561092d575060015f825f015173ffffffffffffffffffffffffffffffffffffffff1673ffffffffffffffffffffffffffffffffffffffff1681526020019081526020015f205f9054906101000a900460ff16155b80156109d2575060025f9054906101000a900473ffffffffffffffffffffffffffffffffffffffff1673ffffffffffffffffffffffffffffffffffffffff1663e3f756de825f01516040518263ffffffff1660e01b81526004016109919190611754565b602060405180830381865afa1580156109ac573d5f803e3d5ffd5b505050506040513d601f19601f820116820180604052508101906109d091906117aa565b155b91505092915050565b6109e3610c10565b63389a75e1600c52805f526020600c208054421115610a0957636f5e88185f526004601cfd5b5f815550610a1681610c47565b50565b5f6040517fd623472500000000000000000000000000000000000000000000000000000000815260040160405180910390fd5b610a54610c10565b8060601b610a6957637448fbae5f526004601cfd5b610a7281610c47565b50565b5f63389a75e1600c52815f526020600c20549050919050565b5f7f2c247c7a000000000000000000000000000000000000000000000000000000007bffffffffffffffffffffffffffffffffffffffffffffffffffffffff1916827bffffffffffffffffffffffffffffffffffffffffffffffffffffffff19161480610b005750610aff82610e2c565b5b9050919050565b5f6202a300905090565b5f7fffffffffffffffffffffffffffffffffffffffffffffffffffffffffbf6011325f1b905090565b610b42610e95565b15610bba577fffffffffffffffffffffffffffffffffffffffffffffffffffffffff74873927805415610b7c57630dc149f05f526004601cfd5b8160601b60601c9150811560ff1b82178155815f7f8be0079c531659141344cd1fd0a4f28419497f9722a3daafe3b4186f6b6457e05f80a350610c0d565b8060601b60601c9050807fffffffffffffffffffffffffffffffffffffffffffffffffffffffff7487392755805f7f8be0079c531659141344cd1fd0a4f28419497f9722a3daafe3b4186f6b6457e05f80a35b50565b7fffffffffffffffffffffffffffffffffffffffffffffffffffffffff74873927543314610c45576382b429005f526004601cfd5b565b610c4f610e95565b15610cb4577fffffffffffffffffffffffffffffffffffffffffffffffffffffffff748739278160601b60601c91508181547f8be0079c531659141344cd1fd0a4f28419497f9722a3daafe3b4186f6b6457e05f80a3811560ff1b8217815550610d0a565b7fffffffffffffffffffffffffffffffffffffffffffffffffffffffff748739278160601b60601c91508181547f8be0079c531659141344cd1fd0a4f28419497f9722a3daafe3b4186f6b6457e05f80a3818155505b50565b6060805f600167ffffffffffffffff811115610d2c57610d2b611261565b5b604051908082528060200260200182016040528015610d5a5781602001602082028036833780820191505090505b5090505f600167ffffffffffffffff811115610d7957610d78611261565b5b604051908082528060200260200182016040528015610da75781602001602082028036833780820191505090505b50905084825f81518110610dbe57610dbd6117d5565b5b602002602001019073ffffffffffffffffffffffffffffffffffffffff16908173ffffffffffffffffffffffffffffffffffffffff16815250506001815f81518110610e0d57610e0c6117d5565b5b6020026020010190151590811515815250508181935093505050915091565b5f7f01ffc9a7000000000000000000000000000000000000000000000000000000007bffffffffffffffffffffffffffffffffffffffffffffffffffffffff1916827bffffffffffffffffffffffffffffffffffffffffffffffffffffffff1916149050919050565b5f90565b5f604051905090565b5f80fd5b5f80fd5b5f7fffffffff0000000000000000000000000000000000000000000000000000000082169050919050565b610ede81610eaa565b8114610ee8575f80fd5b50565b5f81359050610ef981610ed5565b92915050565b5f60208284031215610f1457610f13610ea2565b5b5f610f2184828501610eeb565b91505092915050565b5f8115159050919050565b610f3e81610f2a565b82525050565b5f602082019050610f575f830184610f35565b92915050565b5f80fd5b5f80fd5b5f80fd5b5f8083601f840112610f7e57610f7d610f5d565b5b8235905067ffffffffffffffff811115610f9b57610f9a610f61565b5b602083019150836001820283011115610fb757610fb6610f65565b5b9250929050565b5f8060208385031215610fd457610fd3610ea2565b5b5f83013567ffffffffffffffff811115610ff157610ff0610ea6565b5b610ffd85828601610f69565b92509250509250929050565b5f81519050919050565b5f82825260208201905092915050565b8281835e5f83830152505050565b5f601f19601f8301169050919050565b5f61104b82611009565b6110558185611013565b9350611065818560208601611023565b61106e81611031565b840191505092915050565b5f6020820190508181035f8301526110918184611041565b905092915050565b5f81519050919050565b5f82825260208201905092915050565b5f6110bd82611099565b6110c781856110a3565b93506110d7818560208601611023565b6110e081611031565b840191505092915050565b5f6020820190508181035f83015261110381846110b3565b905092915050565b5f73ffffffffffffffffffffffffffffffffffffffff82169050919050565b5f819050919050565b5f61114d6111486111438461110b565b61112a565b61110b565b9050919050565b5f61115e82611133565b9050919050565b5f61116f82611154565b9050919050565b61117f81611165565b82525050565b5f6020820190506111985f830184611176565b92915050565b5f6111a88261110b565b9050919050565b6111b88161119e565b82525050565b5f6020820190506111d15f8301846111af565b92915050565b5f819050919050565b6111e9816111d7565b82525050565b5f6020820190506112025f8301846111e0565b92915050565b6112118161119e565b811461121b575f80fd5b50565b5f8135905061122c81611208565b92915050565b5f6020828403121561124757611246610ea2565b5b5f6112548482850161121e565b91505092915050565b5f80fd5b7f4e487b71000000000000000000000000000000000000000000000000000000005f52604160045260245ffd5b61129782611031565b810181811067ffffffffffffffff821117156112b6576112b5611261565b5b80604052505050565b5f6112c8610e99565b90506112d4828261128e565b919050565b5f80fd5b5f6112e78261119e565b9050919050565b6112f7816112dd565b8114611301575f80fd5b50565b5f81359050611312816112ee565b92915050565b611321816111d7565b811461132b575f80fd5b50565b5f8135905061133c81611318565b92915050565b5f604082840312156113575761135661125d565b5b61136160406112bf565b90505f61137084828501611304565b5f8301525060206113838482850161132e565b60208301525092915050565b5f604082840312156113a4576113a3610ea2565b5b5f6113b184828501611342565b91505092915050565b5f80fd5b5f67ffffffffffffffff8211156113d8576113d7611261565b5b6113e182611031565b9050602081019050919050565b828183375f83830152505050565b5f61140e611409846113be565b6112bf565b90508281526020810184848401111561142a576114296113ba565b5b6114358482856113ee565b509392505050565b5f82601f83011261145157611450610f5d565b5b81356114618482602086016113fc565b91505092915050565b5f6040828403121561147f5761147e61125d565b5b61148960406112bf565b90505f6114988482850161121e565b5f83015250602082013567ffffffffffffffff8111156114bb576114ba6112d9565b5b6114c78482850161143d565b60208301525092915050565b5f602082840312156114e8576114e7610ea2565b5b5f82013567ffffffffffffffff81111561150557611504610ea6565b5b6115118482850161146a565b91505092915050565b7f4e487b71000000000000000000000000000000000000000000000000000000005f52601160045260245ffd5b5f611551826111d7565b91507fffffffffffffffffffffffffffffffffffffffffffffffffffffffffffffffff82036115835761158261151a565b5b600182019050919050565b5f81519050919050565b5f82825260208201905092915050565b5f819050602082019050919050565b6115c08161119e565b82525050565b5f6115d183836115b7565b60208301905092915050565b5f602082019050919050565b5f6115f38261158e565b6115fd8185611598565b9350611608836115a8565b805f5b8381101561163857815161161f88826115c6565b975061162a836115dd565b92505060018101905061160b565b5085935050505092915050565b5f81519050919050565b5f82825260208201905092915050565b5f819050602082019050919050565b61167781610f2a565b82525050565b5f611688838361166e565b60208301905092915050565b5f602082019050919050565b5f6116aa82611645565b6116b4818561164f565b93506116bf8361165f565b805f5b838110156116ef5781516116d6888261167d565b97506116e183611694565b9250506001810190506116c2565b5085935050505092915050565b5f6040820190508181035f83015261171481856115e9565b9050818103602083015261172881846116a0565b90509392505050565b50565b5f61173f5f83611013565b915061174a82611731565b5f82019050919050565b5f6040820190506117675f8301846111af565b818103602083015261177881611734565b905092915050565b61178981610f2a565b8114611793575f80fd5b50565b5f815190506117a481611780565b92915050565b5f602082840312156117bf576117be610ea2565b5b5f6117cc84828501611796565b91505092915050565b7f4e487b71000000000000000000000000000000000000000000000000000000005f52603260045260245ffdfea26469706673582212203faf062e61ccc626b8a1403f8dcb9039dc46bfb3c96793c26bd028c33718274b64736f6c63430008190033",
  "linkReferences": {},
  "deployedLinkReferences": {}
}