{
  "_format": "hh-sol-artifact-1",
  "contractName": "Repository",
  "sourceName": "contracts/Repository.sol",
  "abi": [
    {
      "inputs": [
        {
          "internalType": "enum Repository.ComponentType",
          "name": "kind",
          "type": "uint8"
        },
        {
          "internalType": "bytes32",
          "name": "id",
          "type": "bytes32"
        }
      ],
      "name": "AlreadyRegistered",
      "type": "error"
    },
    {
      "inputs": [],
      "name": "EmptyMetadata",
      "type": "error"
    },
    {
      "inputs": [
        {
          "internalType": "bytes32",
          "name": "id",
          "type": "bytes32"
        },
        {
          "internalType": "address",
          "name": "operator",
          "type": "address"
        }
      ],
      "name": "NotAuthorized",
      "type": "error"
    },
    {
      "inputs": [
        {
          "internalType": "bytes32",
          "name": "id",
          "type": "bytes32"
        }
      ],
      "name": "NotRegistered",
      "type": "error"
    },
    {
      "anonymous": false,
      "inputs": [
        {
          "indexed": true,
          "internalType": "bytes32",
          "name": "id",
          "type": "bytes32"
        },
        {
          "indexed": true,
          "internalType": "address",
          "name": "operator",
          "type": "address"
        },
        {
          "indexed": false,
          "internalType": "bool",
          "name": "authorized",
          "type": "bool"
        }
      ],
      "name": "Authorized",
      "type": "event"
    },
    {
      "anonymous": false,
      "inputs": [
        {
          "indexed": true,
          "internalType": "enum Repository.ComponentType",
          "name": "kind",
          "type": "uint8"
        },
        {
          "indexed": true,
          "internalType": "bytes32",
          "name": "id",
          "type": "bytes32"
        },
        {
          "indexed": false,
          "internalType": "address",
          "name": "implementation",
          "type": "address"
        },
        {
          "indexed": false,
          "internalType": "bytes",
          "name": "metadata",
          "type": "bytes"
        }
      ],
      "name": "Registered",
      "type": "event"
    },
    {
      "inputs": [
        {
          "internalType": "bytes32",
          "name": "id",
          "type": "bytes32"
        }
      ],
      "name": "components",
      "outputs": [
        {
          "internalType": "enum Repository.ComponentType",
          "name": "kind",
          "type": "uint8"
        },
        {
          "components": [
            {
              "components": [
                {
                  "internalType": "uint8",
                  "name": "major",
                  "type": "uint8"
                },
                {
                  "internalType": "uint8",
                  "name": "minor",
                  "type": "uint8"
                },
                {
                  "internalType": "uint8",
                  "name": "patch",
                  "type": "uint8"
                }
              ],
              "internalType": "struct Repository.Tag",
              "name": "tag",
              "type": "tuple"
            },
            {
              "internalType": "address",
              "name": "implementation",
              "type": "address"
            },
            {
              "internalType": "bytes",
              "name": "metadata",
              "type": "bytes"
            }
          ],
          "internalType": "struct Repository.Version",
          "name": "latest",
          "type": "tuple"
        },
        {
          "internalType": "bytes",
          "name": "metadata",
          "type": "bytes"
        }
      ],
      "stateMutability": "view",
      "type": "function"
    },
    {
      "inputs": [
        {
          "internalType": "enum Repository.ComponentType",
          "name": "kind",
          "type": "uint8"
        },
        {
          "internalType": "address",
          "name": "implementation",
          "type": "address"
        },
        {
          "internalType": "bytes",
          "name": "componentMetadata",
          "type": "bytes"
        },
        {
          "internalType": "bytes",
          "name": "versionMetadata",
          "type": "bytes"
        }
      ],
      "name": "create",
      "outputs": [],
      "stateMutability": "nonpayable",
      "type": "function"
    },
    {
      "inputs": [
        {
          "internalType": "bytes32",
          "name": "id",
          "type": "bytes32"
        },
        {
          "internalType": "address",
          "name": "operator",
          "type": "address"
        }
      ],
      "name": "isOperator",
      "outputs": [
        {
          "internalType": "bool",
          "name": "authorized",
          "type": "bool"
        }
      ],
      "stateMutability": "view",
      "type": "function"
    },
    {
      "inputs": [
        {
          "internalType": "bytes32",
          "name": "id",
          "type": "bytes32"
        },
        {
          "internalType": "address",
          "name": "implementation",
          "type": "address"
        },
        {
          "internalType": "bytes",
          "name": "versionMetadata",
          "type": "bytes"
        }
      ],
      "name": "patch",
      "outputs": [],
      "stateMutability": "nonpayable",
      "type": "function"
    },
    {
      "inputs": [
        {
          "internalType": "bytes4",
          "name": "interfaceId",
          "type": "bytes4"
        }
      ],
      "name": "supportsInterface",
      "outputs": [
        {
          "internalType": "bool",
          "name": "",
          "type": "bool"
        }
      ],
      "stateMutability": "view",
      "type": "function"
    },
    {
      "inputs": [
        {
          "internalType": "bytes32",
          "name": "id",
          "type": "bytes32"
        },
        {
          "internalType": "address",
          "name": "implementation",
          "type": "address"
        },
        {
          "internalType": "bool",
          "name": "isMajor",
          "type": "bool"
        },
        {
          "internalType": "bytes",
          "name": "versionMetadata",
          "type": "bytes"
        }
      ],
      "name": "update",
      "outputs": [],
      "stateMutability": "nonpayable",
      "type": "function"
    }
  ],
  "bytecode": "0x608060405234801561001057600080fd5b50611987806100206000396000f3fe608060405234801561001057600080fd5b50600436106100625760003560e01c806301ffc9a71461006757806309e11fa2146100975780631a4999c9146100b35780631c5ecc27146100e55780638a8d9e7c14610101578063ccdf8f6614610131575b600080fd5b610081600480360381019061007c9190610e2b565b61014d565b60405161008e9190610e73565b60405180910390f35b6100b160048036038101906100ac9190610f76565b6101b7565b005b6100cd60048036038101906100c89190611053565b610525565b6040516100dc9392919061128e565b60405180910390f35b6100ff60048036038101906100fa91906112ff565b610741565b005b61011b60048036038101906101169190611387565b610a76565b6040516101289190610e73565b60405180910390f35b61014b600480360381019061014691906113c7565b610aa5565b005b60007f01ffc9a7000000000000000000000000000000000000000000000000000000007bffffffffffffffffffffffffffffffffffffffffffffffffffffffff1916827bffffffffffffffffffffffffffffffffffffffffffffffffffffffff1916149050919050565b60008585856040516020016101ce939291906114c2565b604051602081830303815290604052805190602001209050600073ffffffffffffffffffffffffffffffffffffffff1660008083815260200190815260200160002060010160010160009054906101000a900473ffffffffffffffffffffffffffffffffffffffff1673ffffffffffffffffffffffffffffffffffffffff16146102915786816040517f96b5684c0000000000000000000000000000000000000000000000000000000081526004016102889291906114fb565b60405180910390fd5b60405180606001604052808860048111156102af576102ae611080565b5b815260200160405180606001604052806040518060600160405280600160ff168152602001600060ff168152602001600060ff1681525081526020018973ffffffffffffffffffffffffffffffffffffffff16815260200186868080601f016020809104026020016040519081016040528093929190818152602001838380828437600081840152601f19601f82011690508083019250505050505050815250815260200186868080601f016020809104026020016040519081016040528093929190818152602001838380828437600081840152601f19601f8201169050808301925050505050505081525060008083815260200190815260200160002060008201518160000160006101000a81548160ff021916908360048111156103d9576103d8611080565b5b021790555060208201518160010160008201518160000160008201518160000160006101000a81548160ff021916908360ff16021790555060208201518160000160016101000a81548160ff021916908360ff16021790555060408201518160000160026101000a81548160ff021916908360ff160217905550505060208201518160010160006101000a81548173ffffffffffffffffffffffffffffffffffffffff021916908373ffffffffffffffffffffffffffffffffffffffff16021790555060408201518160020190816104b19190611769565b50505060408201518160040190816104c99190611769565b50905050808760048111156104e1576104e0611080565b5b7fe355491a4dba1bda398315ddb988d26ef598213732e81fb683944b146e9cdc5e88888860405161051493929190611877565b60405180910390a350505050505050565b60006020528060005260406000206000915090508060000160009054906101000a900460ff169080600101604051806060016040529081600082016040518060600160405290816000820160009054906101000a900460ff1660ff1660ff1681526020016000820160019054906101000a900460ff1660ff1660ff1681526020016000820160029054906101000a900460ff1660ff1660ff168152505081526020016001820160009054906101000a900473ffffffffffffffffffffffffffffffffffffffff1673ffffffffffffffffffffffffffffffffffffffff1673ffffffffffffffffffffffffffffffffffffffff16815260200160028201805461062c90611582565b80601f016020809104026020016040519081016040528092919081815260200182805461065890611582565b80156106a55780601f1061067a576101008083540402835291602001916106a5565b820191906000526020600020905b81548152906001019060200180831161068857829003601f168201915b505050505081525050908060040180546106be90611582565b80601f01602080910402602001604051908101604052809291908181526020018280546106ea90611582565b80156107375780601f1061070c57610100808354040283529160200191610737565b820191906000526020600020905b81548152906001019060200180831161071a57829003601f168201915b5050505050905083565b84600073ffffffffffffffffffffffffffffffffffffffff1660008083815260200190815260200160002060010160010160009054906101000a900473ffffffffffffffffffffffffffffffffffffffff1673ffffffffffffffffffffffffffffffffffffffff16036107eb57806040517f8cc00d160000000000000000000000000000000000000000000000000000000081526004016107e291906118a9565b60405180910390fd5b6001600082815260200190815260200160002060003373ffffffffffffffffffffffffffffffffffffffff1673ffffffffffffffffffffffffffffffffffffffff16815260200190815260200160002060009054906101000a900460ff1661088c5780336040517fa78e4aa50000000000000000000000000000000000000000000000000000000081526004016108839291906118c4565b60405180910390fd5b6000806000888152602001908152602001600020905060405180606001604052806040518060600160405280886108c45760006108c7565b60015b8560010160000160000160009054906101000a900460ff166108e9919061191c565b60ff1681526020018861091f5760018560010160000160000160019054906101000a900460ff1661091a919061191c565b610922565b60005b60ff168152602001600060ff1681525081526020018773ffffffffffffffffffffffffffffffffffffffff16815260200185858080601f016020809104026020016040519081016040528093929190818152602001838380828437600081840152601f19601f820116905080830192505050505050508152508160010160008201518160000160008201518160000160006101000a81548160ff021916908360ff16021790555060208201518160000160016101000a81548160ff021916908360ff16021790555060408201518160000160026101000a81548160ff021916908360ff160217905550505060208201518160010160006101000a81548173ffffffffffffffffffffffffffffffffffffffff021916908373ffffffffffffffffffffffffffffffffffffffff1602179055506040820151816002019081610a699190611769565b5090505050505050505050565b60016020528160005260406000206020528060005260406000206000915091509054906101000a900460ff1681565b83600073ffffffffffffffffffffffffffffffffffffffff1660008083815260200190815260200160002060010160010160009054906101000a900473ffffffffffffffffffffffffffffffffffffffff1673ffffffffffffffffffffffffffffffffffffffff1603610b4f57806040517f8cc00d16000000000000000000000000000000000000000000000000000000008152600401610b4691906118a9565b60405180910390fd5b6001600082815260200190815260200160002060003373ffffffffffffffffffffffffffffffffffffffff1673ffffffffffffffffffffffffffffffffffffffff16815260200190815260200160002060009054906101000a900460ff16610bf05780336040517fa78e4aa5000000000000000000000000000000000000000000000000000000008152600401610be79291906118c4565b60405180910390fd5b60008060008781526020019081526020016000209050604051806060016040528060405180606001604052808460010160000160000160009054906101000a900460ff1660ff1681526020018460010160000160000160019054906101000a900460ff1660ff16815260200160018560010160000160000160029054906101000a900460ff16610c80919061191c565b60ff1681525081526020018673ffffffffffffffffffffffffffffffffffffffff16815260200185858080601f016020809104026020016040519081016040528093929190818152602001838380828437600081840152601f19601f820116905080830192505050505050508152508160010160008201518160000160008201518160000160006101000a81548160ff021916908360ff16021790555060208201518160000160016101000a81548160ff021916908360ff16021790555060408201518160000160026101000a81548160ff021916908360ff160217905550505060208201518160010160006101000a81548173ffffffffffffffffffffffffffffffffffffffff021916908373ffffffffffffffffffffffffffffffffffffffff1602179055506040820151816002019081610dbd9190611769565b50905050505050505050565b600080fd5b600080fd5b60007fffffffff0000000000000000000000000000000000000000000000000000000082169050919050565b610e0881610dd3565b8114610e1357600080fd5b50565b600081359050610e2581610dff565b92915050565b600060208284031215610e4157610e40610dc9565b5b6000610e4f84828501610e16565b91505092915050565b60008115159050919050565b610e6d81610e58565b82525050565b6000602082019050610e886000830184610e64565b92915050565b60058110610e9b57600080fd5b50565b600081359050610ead81610e8e565b92915050565b600073ffffffffffffffffffffffffffffffffffffffff82169050919050565b6000610ede82610eb3565b9050919050565b610eee81610ed3565b8114610ef957600080fd5b50565b600081359050610f0b81610ee5565b92915050565b600080fd5b600080fd5b600080fd5b60008083601f840112610f3657610f35610f11565b5b8235905067ffffffffffffffff811115610f5357610f52610f16565b5b602083019150836001820283011115610f6f57610f6e610f1b565b5b9250929050565b60008060008060008060808789031215610f9357610f92610dc9565b5b6000610fa189828a01610e9e565b9650506020610fb289828a01610efc565b955050604087013567ffffffffffffffff811115610fd357610fd2610dce565b5b610fdf89828a01610f20565b9450945050606087013567ffffffffffffffff81111561100257611001610dce565b5b61100e89828a01610f20565b92509250509295509295509295565b6000819050919050565b6110308161101d565b811461103b57600080fd5b50565b60008135905061104d81611027565b92915050565b60006020828403121561106957611068610dc9565b5b60006110778482850161103e565b91505092915050565b7f4e487b7100000000000000000000000000000000000000000000000000000000600052602160045260246000fd5b600581106110c0576110bf611080565b5b50565b60008190506110d1826110af565b919050565b60006110e1826110c3565b9050919050565b6110f1816110d6565b82525050565b600060ff82169050919050565b61110d816110f7565b82525050565b6060820160008201516111296000850182611104565b50602082015161113c6020850182611104565b50604082015161114f6040850182611104565b50505050565b61115e81610ed3565b82525050565b600081519050919050565b600082825260208201905092915050565b60005b8381101561119e578082015181840152602081019050611183565b60008484015250505050565b6000601f19601f8301169050919050565b60006111c682611164565b6111d0818561116f565b93506111e0818560208601611180565b6111e9816111aa565b840191505092915050565b600060a08301600083015161120c6000860182611113565b50602083015161121f6060860182611155565b506040830151848203608086015261123782826111bb565b9150508091505092915050565b600082825260208201905092915050565b600061126082611164565b61126a8185611244565b935061127a818560208601611180565b611283816111aa565b840191505092915050565b60006060820190506112a360008301866110e8565b81810360208301526112b581856111f4565b905081810360408301526112c98184611255565b9050949350505050565b6112dc81610e58565b81146112e757600080fd5b50565b6000813590506112f9816112d3565b92915050565b60008060008060006080868803121561131b5761131a610dc9565b5b60006113298882890161103e565b955050602061133a88828901610efc565b945050604061134b888289016112ea565b935050606086013567ffffffffffffffff81111561136c5761136b610dce565b5b61137888828901610f20565b92509250509295509295909350565b6000806040838503121561139e5761139d610dc9565b5b60006113ac8582860161103e565b92505060206113bd85828601610efc565b9150509250929050565b600080600080606085870312156113e1576113e0610dc9565b5b60006113ef8782880161103e565b945050602061140087828801610efc565b935050604085013567ffffffffffffffff81111561142157611420610dce565b5b61142d87828801610f20565b925092505092959194509250565b60008160601b9050919050565b60006114538261143b565b9050919050565b600061146582611448565b9050919050565b61147d61147882610ed3565b61145a565b82525050565b600081905092915050565b82818337600083830152505050565b60006114a98385611483565b93506114b683858461148e565b82840190509392505050565b60006114ce828661146c565b6014820191506114df82848661149d565b9150819050949350505050565b6114f58161101d565b82525050565b600060408201905061151060008301856110e8565b61151d60208301846114ec565b9392505050565b7f4e487b7100000000000000000000000000000000000000000000000000000000600052604160045260246000fd5b7f4e487b7100000000000000000000000000000000000000000000000000000000600052602260045260246000fd5b6000600282049050600182168061159a57607f821691505b6020821081036115ad576115ac611553565b5b50919050565b60008190508160005260206000209050919050565b60006020601f8301049050919050565b600082821b905092915050565b6000600883026116157fffffffffffffffffffffffffffffffffffffffffffffffffffffffffffffffff826115d8565b61161f86836115d8565b95508019841693508086168417925050509392505050565b6000819050919050565b6000819050919050565b600061166661166161165c84611637565b611641565b611637565b9050919050565b6000819050919050565b6116808361164b565b61169461168c8261166d565b8484546115e5565b825550505050565b600090565b6116a961169c565b6116b4818484611677565b505050565b5b818110156116d8576116cd6000826116a1565b6001810190506116ba565b5050565b601f82111561171d576116ee816115b3565b6116f7846115c8565b81016020851015611706578190505b61171a611712856115c8565b8301826116b9565b50505b505050565b600082821c905092915050565b600061174060001984600802611722565b1980831691505092915050565b6000611759838361172f565b9150826002028217905092915050565b61177282611164565b67ffffffffffffffff81111561178b5761178a611524565b5b6117958254611582565b6117a08282856116dc565b600060209050601f8311600181146117d357600084156117c1578287015190505b6117cb858261174d565b865550611833565b601f1984166117e1866115b3565b60005b82811015611809578489015182556001820191506020850194506020810190506117e4565b868310156118265784890151611822601f89168261172f565b8355505b6001600288020188555050505b505050505050565b61184481610ed3565b82525050565b60006118568385611244565b935061186383858461148e565b61186c836111aa565b840190509392505050565b600060408201905061188c600083018661183b565b818103602083015261189f81848661184a565b9050949350505050565b60006020820190506118be60008301846114ec565b92915050565b60006040820190506118d960008301856114ec565b6118e6602083018461183b565b9392505050565b7f4e487b7100000000000000000000000000000000000000000000000000000000600052601160045260246000fd5b6000611927826110f7565b9150611932836110f7565b9250828201905060ff81111561194b5761194a6118ed565b5b9291505056fea26469706673582212208dbcad8453b2a2d97aad85cf3e3d1a834637a6a0943783844650378f0f67cbf264736f6c63430008180033",
  "linkReferences": {},
  "deployedLinkReferences": {}
}