{
  "_format": "hh-sol-artifact-1",
  "contractName": "PointsIncentive",
  "sourceName": "contracts/incentives/PointsIncentive.sol",
  "abi": [
    {
      "inputs": [],
      "stateMutability": "nonpayable",
      "type": "constructor"
    },
    {
      "inputs": [],
      "name": "AlreadyInitialized",
      "type": "error"
    },
    {
      "inputs": [],
      "name": "ClaimFailed",
      "type": "error"
    },
    {
      "inputs": [],
      "name": "CloneAlreadyInitialized",
      "type": "error"
    },
    {
      "inputs": [],
      "name": "InitializerNotImplemented",
      "type": "error"
    },
    {
      "inputs": [],
      "name": "InvalidInitialization",
      "type": "error"
    },
    {
      "inputs": [],
      "name": "InvalidInitialization",
      "type": "error"
    },
    {
      "inputs": [],
      "name": "InvalidInitializationData",
      "type": "error"
    },
    {
      "inputs": [],
      "name": "NewOwnerIsZeroAddress",
      "type": "error"
    },
    {
      "inputs": [],
      "name": "NoHandoverRequest",
      "type": "error"
    },
    {
      "inputs": [],
      "name": "NotClaimable",
      "type": "error"
    },
    {
      "inputs": [],
      "name": "NotImplemented",
      "type": "error"
    },
    {
      "inputs": [],
      "name": "NotInitializing",
      "type": "error"
    },
    {
      "inputs": [],
      "name": "Reentrancy",
      "type": "error"
    },
    {
      "inputs": [],
      "name": "Unauthorized",
      "type": "error"
    },
    {
      "anonymous": false,
      "inputs": [
        {
          "indexed": true,
          "internalType": "address",
          "name": "recipient",
          "type": "address"
        },
        {
          "indexed": false,
          "internalType": "bytes",
          "name": "data",
          "type": "bytes"
        }
      ],
      "name": "Claimed",
      "type": "event"
    },
    {
      "anonymous": false,
      "inputs": [
        {
          "indexed": false,
          "internalType": "uint64",
          "name": "version",
          "type": "uint64"
        }
      ],
      "name": "Initialized",
      "type": "event"
    },
    {
      "anonymous": false,
      "inputs": [
        {
          "indexed": true,
          "internalType": "address",
          "name": "pendingOwner",
          "type": "address"
        }
      ],
      "name": "OwnershipHandoverCanceled",
      "type": "event"
    },
    {
      "anonymous": false,
      "inputs": [
        {
          "indexed": true,
          "internalType": "address",
          "name": "pendingOwner",
          "type": "address"
        }
      ],
      "name": "OwnershipHandoverRequested",
      "type": "event"
    },
    {
      "anonymous": false,
      "inputs": [
        {
          "indexed": true,
          "internalType": "address",
          "name": "oldOwner",
          "type": "address"
        },
        {
          "indexed": true,
          "internalType": "address",
          "name": "newOwner",
          "type": "address"
        }
      ],
      "name": "OwnershipTransferred",
      "type": "event"
    },
    {
      "inputs": [],
      "name": "cancelOwnershipHandover",
      "outputs": [],
      "stateMutability": "payable",
      "type": "function"
    },
    {
      "inputs": [
        {
          "internalType": "bytes",
          "name": "data_",
          "type": "bytes"
        }
      ],
      "name": "claim",
      "outputs": [
        {
          "internalType": "bool",
          "name": "",
          "type": "bool"
        }
      ],
      "stateMutability": "nonpayable",
      "type": "function"
    },
    {
      "inputs": [
        {
          "internalType": "address",
          "name": "",
          "type": "address"
        }
      ],
      "name": "claimed",
      "outputs": [
        {
          "internalType": "bool",
          "name": "",
          "type": "bool"
        }
      ],
      "stateMutability": "view",
      "type": "function"
    },
    {
      "inputs": [],
      "name": "claims",
      "outputs": [
        {
          "internalType": "uint256",
          "name": "",
          "type": "uint256"
        }
      ],
      "stateMutability": "view",
      "type": "function"
    },
    {
      "inputs": [
        {
          "internalType": "address",
          "name": "pendingOwner",
          "type": "address"
        }
      ],
      "name": "completeOwnershipHandover",
      "outputs": [],
      "stateMutability": "payable",
      "type": "function"
    },
    {
      "inputs": [
        {
          "internalType": "bytes",
          "name": "data_",
          "type": "bytes"
        }
      ],
      "name": "initialize",
      "outputs": [],
      "stateMutability": "nonpayable",
      "type": "function"
    },
    {
      "inputs": [],
      "name": "interfaceName",
      "outputs": [
        {
          "internalType": "string",
          "name": "",
          "type": "string"
        }
      ],
      "stateMutability": "pure",
      "type": "function"
    },
    {
      "inputs": [
        {
          "internalType": "bytes",
          "name": "data_",
          "type": "bytes"
        }
      ],
      "name": "isClaimable",
      "outputs": [
        {
          "internalType": "bool",
          "name": "",
          "type": "bool"
        }
      ],
      "stateMutability": "view",
      "type": "function"
    },
    {
      "inputs": [],
      "name": "limit",
      "outputs": [
        {
          "internalType": "uint256",
          "name": "",
          "type": "uint256"
        }
      ],
      "stateMutability": "view",
      "type": "function"
    },
    {
      "inputs": [],
      "name": "owner",
      "outputs": [
        {
          "internalType": "address",
          "name": "result",
          "type": "address"
        }
      ],
      "stateMutability": "view",
      "type": "function"
    },
    {
      "inputs": [
        {
          "internalType": "address",
          "name": "pendingOwner",
          "type": "address"
        }
      ],
      "name": "ownershipHandoverExpiresAt",
      "outputs": [
        {
          "internalType": "uint256",
          "name": "result",
          "type": "uint256"
        }
      ],
      "stateMutability": "view",
      "type": "function"
    },
    {
      "inputs": [
        {
          "internalType": "bytes",
          "name": "",
          "type": "bytes"
        }
      ],
      "name": "preflight",
      "outputs": [
        {
          "internalType": "bytes",
          "name": "budgetData",
          "type": "bytes"
        }
      ],
      "stateMutability": "pure",
      "type": "function"
    },
    {
      "inputs": [],
      "name": "quantity",
      "outputs": [
        {
          "internalType": "uint256",
          "name": "",
          "type": "uint256"
        }
      ],
      "stateMutability": "view",
      "type": "function"
    },
    {
      "inputs": [
        {
          "internalType": "bytes",
          "name": "",
          "type": "bytes"
        }
      ],
      "name": "reclaim",
      "outputs": [
        {
          "internalType": "bool",
          "name": "",
          "type": "bool"
        }
      ],
      "stateMutability": "pure",
      "type": "function"
    },
    {
      "inputs": [],
      "name": "renounceOwnership",
      "outputs": [],
      "stateMutability": "payable",
      "type": "function"
    },
    {
      "inputs": [],
      "name": "requestOwnershipHandover",
      "outputs": [],
      "stateMutability": "payable",
      "type": "function"
    },
    {
      "inputs": [],
      "name": "selector",
      "outputs": [
        {
          "internalType": "bytes4",
          "name": "",
          "type": "bytes4"
        }
      ],
      "stateMutability": "view",
      "type": "function"
    },
    {
      "inputs": [
        {
          "internalType": "bytes4",
          "name": "interfaceId",
          "type": "bytes4"
        }
      ],
      "name": "supportsInterface",
      "outputs": [
        {
          "internalType": "bool",
          "name": "",
          "type": "bool"
        }
      ],
      "stateMutability": "view",
      "type": "function"
    },
    {
      "inputs": [
        {
          "internalType": "address",
          "name": "newOwner",
          "type": "address"
        }
      ],
      "name": "transferOwnership",
      "outputs": [],
      "stateMutability": "payable",
      "type": "function"
    },
    {
      "inputs": [],
      "name": "venue",
      "outputs": [
        {
          "internalType": "address",
          "name": "",
          "type": "address"
        }
      ],
      "stateMutability": "view",
      "type": "function"
    }
  ],
  "bytecode": "0x608060405234801561000f575f80fd5b5061001f3361003260201b60201c565b61002d61010e60201b60201c565b6101a7565b61004061017a60201b60201c565b156100b8577fffffffffffffffffffffffffffffffffffffffffffffffffffffffff7487392780541561007a57630dc149f05f526004601cfd5b8160601b60601c9150811560ff1b82178155815f7f8be0079c531659141344cd1fd0a4f28419497f9722a3daafe3b4186f6b6457e05f80a35061010b565b8060601b60601c9050807fffffffffffffffffffffffffffffffffffffffffffffffffffffffff7487392755805f7f8be0079c531659141344cd1fd0a4f28419497f9722a3daafe3b4186f6b6457e05f80a35b50565b5f61011d61017e60201b60201c565b9050805460018116156101375763f92ee8a95f526004601cfd5b8160c01c808260011c14610175578060011b8355806020527fc7f505b2f371ae2175ee4913f4499e1f2633a7b5936321eed1cdaeb6115181d2602080a15b505050565b5f90565b5f7fffffffffffffffffffffffffffffffffffffffffffffffffffffffffbf6011325f1b905090565b6116b8806101b45f395ff3fe60806040526004361061011e575f3560e01c8063a4d66daf1161009f578063ea3d508a11610063578063ea3d508a14610390578063f04e283e146103ba578063f1c30ec0146103d6578063f2fde38b14610412578063fee81cf41461042e5761011e565b8063a4d66daf14610288578063c63ff8dd146102b2578063c884ef83146102ee578063dcc59b6f1461032a578063e18e6508146103545761011e565b806354d1f13d116100e657806354d1f13d146101f65780636e441e4c14610200578063715018a61461022a5780638da5cb5b14610234578063a270a7371461025e5761011e565b806301ffc9a71461012257806317fc45e21461015e5780632569296214610188578063439fab91146101925780634e7165a2146101ba575b5f80fd5b34801561012d575f80fd5b5061014860048036038101906101439190610f3a565b61046a565b6040516101559190610f7f565b60405180910390f35b348015610169575f80fd5b506101726104e3565b60405161017f9190610fb0565b60405180910390f35b6101906104e9565b005b34801561019d575f80fd5b506101b860048036038101906101b3919061102a565b61053a565b005b3480156101c5575f80fd5b506101e060048036038101906101db919061102a565b610692565b6040516101ed91906110e5565b60405180910390f35b6101fe6106e9565b005b34801561020b575f80fd5b50610214610722565b6040516102219190611157565b60405180910390f35b61023261075f565b005b34801561023f575f80fd5b50610248610772565b60405161025591906111b6565b60405180910390f35b348015610269575f80fd5b5061027261079a565b60405161027f91906111b6565b60405180910390f35b348015610293575f80fd5b5061029c6107bf565b6040516102a99190610fb0565b60405180910390f35b3480156102bd575f80fd5b506102d860048036038101906102d3919061102a565b6107c5565b6040516102e59190610f7f565b60405180910390f35b3480156102f9575f80fd5b50610314600480360381019061030f91906111f9565b610a78565b6040516103219190610f7f565b60405180910390f35b348015610335575f80fd5b5061033e610a95565b60405161034b9190610fb0565b60405180910390f35b34801561035f575f80fd5b5061037a6004803603810190610375919061102a565b610a9a565b6040516103879190610f7f565b60405180910390f35b34801561039b575f80fd5b506103a4610ac2565b6040516103b19190611233565b60405180910390f35b6103d460048036038101906103cf91906111f9565b610ad4565b005b3480156103e1575f80fd5b506103fc60048036038101906103f7919061102a565b610b12565b6040516104099190610f7f565b60405180910390f35b61042c600480360381019061042791906111f9565b610b45565b005b348015610439575f80fd5b50610454600480360381019061044f91906111f9565b610b6e565b6040516104619190610fb0565b60405180910390f35b5f7f8dbd4bfc000000000000000000000000000000000000000000000000000000007bffffffffffffffffffffffffffffffffffffffffffffffffffffffff1916827bffffffffffffffffffffffffffffffffffffffffffffffffffffffff191614806104dc57506104db82610b87565b5b9050919050565b60035481565b5f6104f2610c00565b67ffffffffffffffff164201905063389a75e1600c52335f52806020600c2055337fdbf36a107da19e49527a7176a1babf963b4b0ff8cde35ee35d6cd8f1f9ac7e1d5f80a250565b5f610543610c0a565b905080546003825580156105755760018160011c14303b1061056c5763f92ee8a95f526004601cfd5b818160ff1b1b91505b505f8383810190610586919061136b565b90505f8160400151148061059d57505f8160600151145b156105d4576040517ff92ee8a900000000000000000000000000000000000000000000000000000000815260040160405180910390fd5b805f015160025f6101000a81548173ffffffffffffffffffffffffffffffffffffffff021916908373ffffffffffffffffffffffffffffffffffffffff160217905550806020015160055f6101000a81548163ffffffff021916908360e01c02179055508060400151600381905550806060015160048190555061065733610c33565b50801561068d576002815560016020527fc7f505b2f371ae2175ee4913f4499e1f2633a7b5936321eed1cdaeb6115181d2602080a15b505050565b60605f67ffffffffffffffff8111156106ae576106ad611250565b5b6040519080825280601f01601f1916602001820160405280156106e05781602001600182028036833780820191505090505b50905092915050565b63389a75e1600c52335f525f6020600c2055337ffa7b8eab7da67f412cc9575ed43464468f9bfbae89d1675917346ca6d8fe3c925f80a2565b60606040518060400160405280600f81526020017f506f696e7473496e63656e746976650000000000000000000000000000000000815250905090565b610767610d09565b6107705f610d40565b565b5f7fffffffffffffffffffffffffffffffffffffffffffffffffffffffff7487392754905090565b60025f9054906101000a900473ffffffffffffffffffffffffffffffffffffffff1681565b60045481565b5f6107ce610d09565b5f83838101906107de91906114af565b90506107ec815f0151610e06565b610822576040517f6247a84e00000000000000000000000000000000000000000000000000000000815260040160405180910390fd5b5f8081548092919061083390611523565b91905055506001805f835f015173ffffffffffffffffffffffffffffffffffffffff1673ffffffffffffffffffffffffffffffffffffffff1681526020019081526020015f205f6101000a81548160ff0219169083151502179055505f60025f9054906101000a900473ffffffffffffffffffffffffffffffffffffffff1673ffffffffffffffffffffffffffffffffffffffff1660055f9054906101000a900460e01b835f01516003546040516024016108ef92919061156a565b604051602081830303815290604052907bffffffffffffffffffffffffffffffffffffffffffffffffffffffff19166020820180517bffffffffffffffffffffffffffffffffffffffffffffffffffffffff838183161783525050505060405161095991906115cb565b5f604051808303815f865af19150503d805f8114610992576040519150601f19603f3d011682016040523d82523d5f602084013e610997565b606091505b50509050806109d2576040517f360e42e100000000000000000000000000000000000000000000000000000000815260040160405180910390fd5b815f015173ffffffffffffffffffffffffffffffffffffffff167f9ad2e7a4af16dceda9cce4274b2f59c328d8c012eb0e15eb5e1e73b7d8f264d360025f9054906101000a900473ffffffffffffffffffffffffffffffffffffffff16845f0151600354604051602001610a4893929190611646565b604051602081830303815290604052604051610a6491906110e5565b60405180910390a260019250505092915050565b6001602052805f5260405f205f915054906101000a900460ff1681565b5f5481565b5f808383810190610aab91906114af565b9050610ab9815f0151610e06565b91505092915050565b60055f9054906101000a900460e01b81565b610adc610d09565b63389a75e1600c52805f526020600c208054421115610b0257636f5e88185f526004601cfd5b5f815550610b0f81610d40565b50565b5f6040517fd623472500000000000000000000000000000000000000000000000000000000815260040160405180910390fd5b610b4d610d09565b8060601b610b6257637448fbae5f526004601cfd5b610b6b81610d40565b50565b5f63389a75e1600c52815f526020600c20549050919050565b5f7f2c247c7a000000000000000000000000000000000000000000000000000000007bffffffffffffffffffffffffffffffffffffffffffffffffffffffff1916827bffffffffffffffffffffffffffffffffffffffffffffffffffffffff19161480610bf95750610bf882610e67565b5b9050919050565b5f6202a300905090565b5f7fffffffffffffffffffffffffffffffffffffffffffffffffffffffffbf6011325f1b905090565b610c3b610ed0565b15610cb3577fffffffffffffffffffffffffffffffffffffffffffffffffffffffff74873927805415610c7557630dc149f05f526004601cfd5b8160601b60601c9150811560ff1b82178155815f7f8be0079c531659141344cd1fd0a4f28419497f9722a3daafe3b4186f6b6457e05f80a350610d06565b8060601b60601c9050807fffffffffffffffffffffffffffffffffffffffffffffffffffffffff7487392755805f7f8be0079c531659141344cd1fd0a4f28419497f9722a3daafe3b4186f6b6457e05f80a35b50565b7fffffffffffffffffffffffffffffffffffffffffffffffffffffffff74873927543314610d3e576382b429005f526004601cfd5b565b610d48610ed0565b15610dad577fffffffffffffffffffffffffffffffffffffffffffffffffffffffff748739278160601b60601c91508181547f8be0079c531659141344cd1fd0a4f28419497f9722a3daafe3b4186f6b6457e05f80a3811560ff1b8217815550610e03565b7fffffffffffffffffffffffffffffffffffffffffffffffffffffffff748739278160601b60601c91508181547f8be0079c531659141344cd1fd0a4f28419497f9722a3daafe3b4186f6b6457e05f80a3818155505b50565b5f60015f8373ffffffffffffffffffffffffffffffffffffffff1673ffffffffffffffffffffffffffffffffffffffff1681526020019081526020015f205f9054906101000a900460ff16158015610e6057506004545f54105b9050919050565b5f7f01ffc9a7000000000000000000000000000000000000000000000000000000007bffffffffffffffffffffffffffffffffffffffffffffffffffffffff1916827bffffffffffffffffffffffffffffffffffffffffffffffffffffffff1916149050919050565b5f90565b5f604051905090565b5f80fd5b5f80fd5b5f7fffffffff0000000000000000000000000000000000000000000000000000000082169050919050565b610f1981610ee5565b8114610f23575f80fd5b50565b5f81359050610f3481610f10565b92915050565b5f60208284031215610f4f57610f4e610edd565b5b5f610f5c84828501610f26565b91505092915050565b5f8115159050919050565b610f7981610f65565b82525050565b5f602082019050610f925f830184610f70565b92915050565b5f819050919050565b610faa81610f98565b82525050565b5f602082019050610fc35f830184610fa1565b92915050565b5f80fd5b5f80fd5b5f80fd5b5f8083601f840112610fea57610fe9610fc9565b5b8235905067ffffffffffffffff81111561100757611006610fcd565b5b60208301915083600182028301111561102357611022610fd1565b5b9250929050565b5f80602083850312156110405761103f610edd565b5b5f83013567ffffffffffffffff81111561105d5761105c610ee1565b5b61106985828601610fd5565b92509250509250929050565b5f81519050919050565b5f82825260208201905092915050565b8281835e5f83830152505050565b5f601f19601f8301169050919050565b5f6110b782611075565b6110c1818561107f565b93506110d181856020860161108f565b6110da8161109d565b840191505092915050565b5f6020820190508181035f8301526110fd81846110ad565b905092915050565b5f81519050919050565b5f82825260208201905092915050565b5f61112982611105565b611133818561110f565b935061114381856020860161108f565b61114c8161109d565b840191505092915050565b5f6020820190508181035f83015261116f818461111f565b905092915050565b5f73ffffffffffffffffffffffffffffffffffffffff82169050919050565b5f6111a082611177565b9050919050565b6111b081611196565b82525050565b5f6020820190506111c95f8301846111a7565b92915050565b6111d881611196565b81146111e2575f80fd5b50565b5f813590506111f3816111cf565b92915050565b5f6020828403121561120e5761120d610edd565b5b5f61121b848285016111e5565b91505092915050565b61122d81610ee5565b82525050565b5f6020820190506112465f830184611224565b92915050565b5f80fd5b7f4e487b71000000000000000000000000000000000000000000000000000000005f52604160045260245ffd5b6112868261109d565b810181811067ffffffffffffffff821117156112a5576112a4611250565b5b80604052505050565b5f6112b7610ed4565b90506112c3828261127d565b919050565b5f80fd5b6112d581610f98565b81146112df575f80fd5b50565b5f813590506112f0816112cc565b92915050565b5f6080828403121561130b5761130a61124c565b5b61131560806112ae565b90505f611324848285016111e5565b5f83015250602061133784828501610f26565b602083015250604061134b848285016112e2565b604083015250606061135f848285016112e2565b60608301525092915050565b5f608082840312156113805761137f610edd565b5b5f61138d848285016112f6565b91505092915050565b5f80fd5b5f67ffffffffffffffff8211156113b4576113b3611250565b5b6113bd8261109d565b9050602081019050919050565b828183375f83830152505050565b5f6113ea6113e58461139a565b6112ae565b90508281526020810184848401111561140657611405611396565b5b6114118482856113ca565b509392505050565b5f82601f83011261142d5761142c610fc9565b5b813561143d8482602086016113d8565b91505092915050565b5f6040828403121561145b5761145a61124c565b5b61146560406112ae565b90505f611474848285016111e5565b5f83015250602082013567ffffffffffffffff811115611497576114966112c8565b5b6114a384828501611419565b60208301525092915050565b5f602082840312156114c4576114c3610edd565b5b5f82013567ffffffffffffffff8111156114e1576114e0610ee1565b5b6114ed84828501611446565b91505092915050565b7f4e487b71000000000000000000000000000000000000000000000000000000005f52601160045260245ffd5b5f61152d82610f98565b91507fffffffffffffffffffffffffffffffffffffffffffffffffffffffffffffffff820361155f5761155e6114f6565b5b600182019050919050565b5f60408201905061157d5f8301856111a7565b61158a6020830184610fa1565b9392505050565b5f81905092915050565b5f6115a582611075565b6115af8185611591565b93506115bf81856020860161108f565b80840191505092915050565b5f6115d6828461159b565b915081905092915050565b5f8160601b9050919050565b5f6115f7826115e1565b9050919050565b5f611608826115ed565b9050919050565b61162061161b82611196565b6115fe565b82525050565b5f819050919050565b61164061163b82610f98565b611626565b82525050565b5f611651828661160f565b601482019150611661828561160f565b601482019150611671828461162f565b60208201915081905094935050505056fea264697066735822122004f43dc0daf3d84a34c9426ec1018a7f421d4e035bdd04287ab606e0697b9dd764736f6c63430008190033",
  "linkReferences": {},
  "deployedLinkReferences": {}
}