{
  "_format": "hh-sol-artifact-1",
  "contractName": "SimpleAllowList",
  "sourceName": "contracts/allowlists/SimpleAllowList.sol",
  "abi": [
    {
      "inputs": [],
      "stateMutability": "nonpayable",
      "type": "constructor"
    },
    {
      "inputs": [],
      "name": "AlreadyInitialized",
      "type": "error"
    },
    {
      "inputs": [],
      "name": "CloneAlreadyInitialized",
      "type": "error"
    },
    {
      "inputs": [],
      "name": "InitializerNotImplemented",
      "type": "error"
    },
    {
      "inputs": [],
      "name": "InvalidInitialization",
      "type": "error"
    },
    {
      "inputs": [],
      "name": "InvalidInitializationData",
      "type": "error"
    },
    {
      "inputs": [],
      "name": "LengthMismatch",
      "type": "error"
    },
    {
      "inputs": [],
      "name": "NewOwnerIsZeroAddress",
      "type": "error"
    },
    {
      "inputs": [],
      "name": "NoHandoverRequest",
      "type": "error"
    },
    {
      "inputs": [],
      "name": "NotInitializing",
      "type": "error"
    },
    {
      "inputs": [],
      "name": "Unauthorized",
      "type": "error"
    },
    {
      "anonymous": false,
      "inputs": [
        {
          "indexed": false,
          "internalType": "uint64",
          "name": "version",
          "type": "uint64"
        }
      ],
      "name": "Initialized",
      "type": "event"
    },
    {
      "anonymous": false,
      "inputs": [
        {
          "indexed": true,
          "internalType": "address",
          "name": "pendingOwner",
          "type": "address"
        }
      ],
      "name": "OwnershipHandoverCanceled",
      "type": "event"
    },
    {
      "anonymous": false,
      "inputs": [
        {
          "indexed": true,
          "internalType": "address",
          "name": "pendingOwner",
          "type": "address"
        }
      ],
      "name": "OwnershipHandoverRequested",
      "type": "event"
    },
    {
      "anonymous": false,
      "inputs": [
        {
          "indexed": true,
          "internalType": "address",
          "name": "oldOwner",
          "type": "address"
        },
        {
          "indexed": true,
          "internalType": "address",
          "name": "newOwner",
          "type": "address"
        }
      ],
      "name": "OwnershipTransferred",
      "type": "event"
    },
    {
      "anonymous": false,
      "inputs": [
        {
          "indexed": true,
          "internalType": "address",
          "name": "user",
          "type": "address"
        },
        {
          "indexed": true,
          "internalType": "uint256",
          "name": "roles",
          "type": "uint256"
        }
      ],
      "name": "RolesUpdated",
      "type": "event"
    },
    {
      "inputs": [],
      "name": "LIST_MANAGER_ROLE",
      "outputs": [
        {
          "internalType": "uint256",
          "name": "",
          "type": "uint256"
        }
      ],
      "stateMutability": "view",
      "type": "function"
    },
    {
      "inputs": [],
      "name": "cancelOwnershipHandover",
      "outputs": [],
      "stateMutability": "payable",
      "type": "function"
    },
    {
      "inputs": [
        {
          "internalType": "address",
          "name": "pendingOwner",
          "type": "address"
        }
      ],
      "name": "completeOwnershipHandover",
      "outputs": [],
      "stateMutability": "payable",
      "type": "function"
    },
    {
      "inputs": [
        {
          "internalType": "address",
          "name": "user",
          "type": "address"
        },
        {
          "internalType": "uint256",
          "name": "roles",
          "type": "uint256"
        }
      ],
      "name": "grantRoles",
      "outputs": [],
      "stateMutability": "payable",
      "type": "function"
    },
    {
      "inputs": [
        {
          "internalType": "address",
          "name": "user",
          "type": "address"
        },
        {
          "internalType": "uint256",
          "name": "roles",
          "type": "uint256"
        }
      ],
      "name": "hasAllRoles",
      "outputs": [
        {
          "internalType": "bool",
          "name": "",
          "type": "bool"
        }
      ],
      "stateMutability": "view",
      "type": "function"
    },
    {
      "inputs": [
        {
          "internalType": "address",
          "name": "user",
          "type": "address"
        },
        {
          "internalType": "uint256",
          "name": "roles",
          "type": "uint256"
        }
      ],
      "name": "hasAnyRole",
      "outputs": [
        {
          "internalType": "bool",
          "name": "",
          "type": "bool"
        }
      ],
      "stateMutability": "view",
      "type": "function"
    },
    {
      "inputs": [
        {
          "internalType": "bytes",
          "name": "data_",
          "type": "bytes"
        }
      ],
      "name": "initialize",
      "outputs": [],
      "stateMutability": "nonpayable",
      "type": "function"
    },
    {
      "inputs": [],
      "name": "interfaceName",
      "outputs": [
        {
          "internalType": "string",
          "name": "",
          "type": "string"
        }
      ],
      "stateMutability": "pure",
      "type": "function"
    },
    {
      "inputs": [
        {
          "internalType": "address",
          "name": "user_",
          "type": "address"
        },
        {
          "internalType": "bytes",
          "name": "",
          "type": "bytes"
        }
      ],
      "name": "isAllowed",
      "outputs": [
        {
          "internalType": "bool",
          "name": "",
          "type": "bool"
        }
      ],
      "stateMutability": "view",
      "type": "function"
    },
    {
      "inputs": [],
      "name": "owner",
      "outputs": [
        {
          "internalType": "address",
          "name": "result",
          "type": "address"
        }
      ],
      "stateMutability": "view",
      "type": "function"
    },
    {
      "inputs": [
        {
          "internalType": "address",
          "name": "pendingOwner",
          "type": "address"
        }
      ],
      "name": "ownershipHandoverExpiresAt",
      "outputs": [
        {
          "internalType": "uint256",
          "name": "result",
          "type": "uint256"
        }
      ],
      "stateMutability": "view",
      "type": "function"
    },
    {
      "inputs": [],
      "name": "renounceOwnership",
      "outputs": [],
      "stateMutability": "payable",
      "type": "function"
    },
    {
      "inputs": [
        {
          "internalType": "uint256",
          "name": "roles",
          "type": "uint256"
        }
      ],
      "name": "renounceRoles",
      "outputs": [],
      "stateMutability": "payable",
      "type": "function"
    },
    {
      "inputs": [],
      "name": "requestOwnershipHandover",
      "outputs": [],
      "stateMutability": "payable",
      "type": "function"
    },
    {
      "inputs": [
        {
          "internalType": "address",
          "name": "user",
          "type": "address"
        },
        {
          "internalType": "uint256",
          "name": "roles",
          "type": "uint256"
        }
      ],
      "name": "revokeRoles",
      "outputs": [],
      "stateMutability": "payable",
      "type": "function"
    },
    {
      "inputs": [
        {
          "internalType": "address",
          "name": "user",
          "type": "address"
        }
      ],
      "name": "rolesOf",
      "outputs": [
        {
          "internalType": "uint256",
          "name": "roles",
          "type": "uint256"
        }
      ],
      "stateMutability": "view",
      "type": "function"
    },
    {
      "inputs": [
        {
          "internalType": "address[]",
          "name": "users_",
          "type": "address[]"
        },
        {
          "internalType": "bool[]",
          "name": "allowed_",
          "type": "bool[]"
        }
      ],
      "name": "setAllowed",
      "outputs": [],
      "stateMutability": "nonpayable",
      "type": "function"
    },
    {
      "inputs": [
        {
          "internalType": "bytes4",
          "name": "interfaceId",
          "type": "bytes4"
        }
      ],
      "name": "supportsInterface",
      "outputs": [
        {
          "internalType": "bool",
          "name": "",
          "type": "bool"
        }
      ],
      "stateMutability": "view",
      "type": "function"
    },
    {
      "inputs": [
        {
          "internalType": "address",
          "name": "newOwner",
          "type": "address"
        }
      ],
      "name": "transferOwnership",
      "outputs": [],
      "stateMutability": "payable",
      "type": "function"
    }
  ],
  "bytecode": "0x608060405234801561000f575f80fd5b5061001f3361003260201b60201c565b61002d61010e60201b60201c565b6101a7565b61004061017a60201b60201c565b156100b8577fffffffffffffffffffffffffffffffffffffffffffffffffffffffff7487392780541561007a57630dc149f05f526004601cfd5b8160601b60601c9150811560ff1b82178155815f7f8be0079c531659141344cd1fd0a4f28419497f9722a3daafe3b4186f6b6457e05f80a35061010b565b8060601b60601c9050807fffffffffffffffffffffffffffffffffffffffffffffffffffffffff7487392755805f7f8be0079c531659141344cd1fd0a4f28419497f9722a3daafe3b4186f6b6457e05f80a35b50565b5f61011d61017e60201b60201c565b9050805460018116156101375763f92ee8a95f526004601cfd5b8160c01c808260011c14610175578060011b8355806020527fc7f505b2f371ae2175ee4913f4499e1f2633a7b5936321eed1cdaeb6115181d2602080a15b505050565b5f90565b5f7fffffffffffffffffffffffffffffffffffffffffffffffffffffffffbf6011325f1b905090565b611403806101b45f395ff3fe608060405260043610610113575f3560e01c8063514e62fc1161009f57806398332bbc1161006357806398332bbc1461031d578063e3f756de14610347578063f04e283e14610383578063f2fde38b1461039f578063fee81cf4146103bb57610113565b8063514e62fc1461027957806354d1f13d146102b55780636e441e4c146102bf578063715018a6146102e95780638da5cb5b146102f357610113565b806325692962116100e657806325692962146101c75780632de94807146101d15780633abb06041461020d578063439fab91146102355780634a4ee7b11461025d57610113565b806301ffc9a714610117578063183a4f6e146101535780631c10893f1461016f5780631cd64df41461018b575b5f80fd5b348015610122575f80fd5b5061013d60048036038101906101389190610cee565b6103f7565b60405161014a9190610d33565b60405180910390f35b61016d60048036038101906101689190610d7f565b610470565b005b61018960048036038101906101849190610e04565b61047d565b005b348015610196575f80fd5b506101b160048036038101906101ac9190610e04565b610493565b6040516101be9190610d33565b60405180910390f35b6101cf6104a9565b005b3480156101dc575f80fd5b506101f760048036038101906101f29190610e42565b6104fa565b6040516102049190610e7c565b60405180910390f35b348015610218575f80fd5b50610233600480360381019061022e9190610f4b565b610513565b005b348015610240575f80fd5b5061025b6004803603810190610256919061101e565b610620565b005b61027760048036038101906102729190610e04565b610748565b005b348015610284575f80fd5b5061029f600480360381019061029a9190610e04565b61075e565b6040516102ac9190610d33565b60405180910390f35b6102bd610775565b005b3480156102ca575f80fd5b506102d36107ae565b6040516102e091906110d9565b60405180910390f35b6102f16107eb565b005b3480156102fe575f80fd5b506103076107fe565b6040516103149190611108565b60405180910390f35b348015610328575f80fd5b50610331610826565b60405161033e9190610e7c565b60405180910390f35b348015610352575f80fd5b5061036d60048036038101906103689190611121565b61082b565b60405161037a9190610d33565b60405180910390f35b61039d60048036038101906103989190610e42565b61087e565b005b6103b960048036038101906103b49190610e42565b6108bc565b005b3480156103c6575f80fd5b506103e160048036038101906103dc9190610e42565b6108e5565b6040516103ee9190610e7c565b60405180910390f35b5f7fe2089f79000000000000000000000000000000000000000000000000000000007bffffffffffffffffffffffffffffffffffffffffffffffffffffffff1916827bffffffffffffffffffffffffffffffffffffffffffffffffffffffff191614806104695750610468826108fe565b5b9050919050565b61047a3382610977565b50565b610485610986565b61048f82826109bd565b5050565b5f818261049f856104fa565b1614905092915050565b5f6104b26109cd565b67ffffffffffffffff164201905063389a75e1600c52335f52806020600c2055337fdbf36a107da19e49527a7176a1babf963b4b0ff8cde35ee35d6cd8f1f9ac7e1d5f80a250565b5f638b78c6d8600c52815f526020600c20549050919050565b600261051e816109d7565b82829050858590501461055d576040517fff633a3800000000000000000000000000000000000000000000000000000000815260040160405180910390fd5b5f5b858590508110156106185783838281811061057d5761057c61117e565b5b905060200201602081019061059291906111d5565b5f808888858181106105a7576105a661117e565b5b90506020020160208101906105bc9190610e42565b73ffffffffffffffffffffffffffffffffffffffff1673ffffffffffffffffffffffffffffffffffffffff1681526020019081526020015f205f6101000a81548160ff021916908315150217905550808060010191505061055f565b505050505050565b5f6106296109fe565b9050805460038255801561065b5760018160011c14303b106106525763f92ee8a95f526004601cfd5b818160ff1b1b91505b505f80848481019061066d9190611373565b9150915061067a82610a27565b6106858260026109bd565b5f5b815181101561070b5760015f808484815181106106a7576106a661117e565b5b602002602001015173ffffffffffffffffffffffffffffffffffffffff1673ffffffffffffffffffffffffffffffffffffffff1681526020019081526020015f205f6101000a81548160ff0219169083151502179055508080600101915050610687565b5050508015610743576002815560016020527fc7f505b2f371ae2175ee4913f4499e1f2633a7b5936321eed1cdaeb6115181d2602080a15b505050565b610750610986565b61075a8282610977565b5050565b5f808261076a856104fa565b161415905092915050565b63389a75e1600c52335f525f6020600c2055337ffa7b8eab7da67f412cc9575ed43464468f9bfbae89d1675917346ca6d8fe3c925f80a2565b60606040518060400160405280600f81526020017f53696d706c65416c6c6f774c6973740000000000000000000000000000000000815250905090565b6107f3610986565b6107fc5f610afd565b565b5f7fffffffffffffffffffffffffffffffffffffffffffffffffffffffff7487392754905090565b600281565b5f805f8573ffffffffffffffffffffffffffffffffffffffff1673ffffffffffffffffffffffffffffffffffffffff1681526020019081526020015f205f9054906101000a900460ff1690509392505050565b610886610986565b63389a75e1600c52805f526020600c2080544211156108ac57636f5e88185f526004601cfd5b5f8155506108b981610afd565b50565b6108c4610986565b8060601b6108d957637448fbae5f526004601cfd5b6108e281610afd565b50565b5f63389a75e1600c52815f526020600c20549050919050565b5f7f2c247c7a000000000000000000000000000000000000000000000000000000007bffffffffffffffffffffffffffffffffffffffffffffffffffffffff1916827bffffffffffffffffffffffffffffffffffffffffffffffffffffffff19161480610970575061096f82610bc3565b5b9050919050565b61098282825f610c2c565b5050565b7fffffffffffffffffffffffffffffffffffffffffffffffffffffffff748739275433146109bb576382b429005f526004601cfd5b565b6109c982826001610c2c565b5050565b5f6202a300905090565b638b78c6d8600c52335f52806020600c2054166109fb576382b429005f526004601cfd5b50565b5f7fffffffffffffffffffffffffffffffffffffffffffffffffffffffffbf6011325f1b905090565b610a2f610c84565b15610aa7577fffffffffffffffffffffffffffffffffffffffffffffffffffffffff74873927805415610a6957630dc149f05f526004601cfd5b8160601b60601c9150811560ff1b82178155815f7f8be0079c531659141344cd1fd0a4f28419497f9722a3daafe3b4186f6b6457e05f80a350610afa565b8060601b60601c9050807fffffffffffffffffffffffffffffffffffffffffffffffffffffffff7487392755805f7f8be0079c531659141344cd1fd0a4f28419497f9722a3daafe3b4186f6b6457e05f80a35b50565b610b05610c84565b15610b6a577fffffffffffffffffffffffffffffffffffffffffffffffffffffffff748739278160601b60601c91508181547f8be0079c531659141344cd1fd0a4f28419497f9722a3daafe3b4186f6b6457e05f80a3811560ff1b8217815550610bc0565b7fffffffffffffffffffffffffffffffffffffffffffffffffffffffff748739278160601b60601c91508181547f8be0079c531659141344cd1fd0a4f28419497f9722a3daafe3b4186f6b6457e05f80a3818155505b50565b5f7f01ffc9a7000000000000000000000000000000000000000000000000000000007bffffffffffffffffffffffffffffffffffffffffffffffffffffffff1916827bffffffffffffffffffffffffffffffffffffffffffffffffffffffff1916149050919050565b638b78c6d8600c52825f526020600c20805483811783610c4e57848216821890505b80835580600c5160601c7f715ad5ce61fc9595c7b415289d59cf203f23a94fa06f04af7e489a0a76e1fe265f80a3505050505050565b5f90565b5f604051905090565b5f80fd5b5f80fd5b5f7fffffffff0000000000000000000000000000000000000000000000000000000082169050919050565b610ccd81610c99565b8114610cd7575f80fd5b50565b5f81359050610ce881610cc4565b92915050565b5f60208284031215610d0357610d02610c91565b5b5f610d1084828501610cda565b91505092915050565b5f8115159050919050565b610d2d81610d19565b82525050565b5f602082019050610d465f830184610d24565b92915050565b5f819050919050565b610d5e81610d4c565b8114610d68575f80fd5b50565b5f81359050610d7981610d55565b92915050565b5f60208284031215610d9457610d93610c91565b5b5f610da184828501610d6b565b91505092915050565b5f73ffffffffffffffffffffffffffffffffffffffff82169050919050565b5f610dd382610daa565b9050919050565b610de381610dc9565b8114610ded575f80fd5b50565b5f81359050610dfe81610dda565b92915050565b5f8060408385031215610e1a57610e19610c91565b5b5f610e2785828601610df0565b9250506020610e3885828601610d6b565b9150509250929050565b5f60208284031215610e5757610e56610c91565b5b5f610e6484828501610df0565b91505092915050565b610e7681610d4c565b82525050565b5f602082019050610e8f5f830184610e6d565b92915050565b5f80fd5b5f80fd5b5f80fd5b5f8083601f840112610eb657610eb5610e95565b5b8235905067ffffffffffffffff811115610ed357610ed2610e99565b5b602083019150836020820283011115610eef57610eee610e9d565b5b9250929050565b5f8083601f840112610f0b57610f0a610e95565b5b8235905067ffffffffffffffff811115610f2857610f27610e99565b5b602083019150836020820283011115610f4457610f43610e9d565b5b9250929050565b5f805f8060408587031215610f6357610f62610c91565b5b5f85013567ffffffffffffffff811115610f8057610f7f610c95565b5b610f8c87828801610ea1565b9450945050602085013567ffffffffffffffff811115610faf57610fae610c95565b5b610fbb87828801610ef6565b925092505092959194509250565b5f8083601f840112610fde57610fdd610e95565b5b8235905067ffffffffffffffff811115610ffb57610ffa610e99565b5b60208301915083600182028301111561101757611016610e9d565b5b9250929050565b5f806020838503121561103457611033610c91565b5b5f83013567ffffffffffffffff81111561105157611050610c95565b5b61105d85828601610fc9565b92509250509250929050565b5f81519050919050565b5f82825260208201905092915050565b8281835e5f83830152505050565b5f601f19601f8301169050919050565b5f6110ab82611069565b6110b58185611073565b93506110c5818560208601611083565b6110ce81611091565b840191505092915050565b5f6020820190508181035f8301526110f181846110a1565b905092915050565b61110281610dc9565b82525050565b5f60208201905061111b5f8301846110f9565b92915050565b5f805f6040848603121561113857611137610c91565b5b5f61114586828701610df0565b935050602084013567ffffffffffffffff81111561116657611165610c95565b5b61117286828701610fc9565b92509250509250925092565b7f4e487b71000000000000000000000000000000000000000000000000000000005f52603260045260245ffd5b6111b481610d19565b81146111be575f80fd5b50565b5f813590506111cf816111ab565b92915050565b5f602082840312156111ea576111e9610c91565b5b5f6111f7848285016111c1565b91505092915050565b5f61120a82610daa565b9050919050565b61121a81611200565b8114611224575f80fd5b50565b5f8135905061123581611211565b92915050565b7f4e487b71000000000000000000000000000000000000000000000000000000005f52604160045260245ffd5b61127182611091565b810181811067ffffffffffffffff821117156112905761128f61123b565b5b80604052505050565b5f6112a2610c88565b90506112ae8282611268565b919050565b5f67ffffffffffffffff8211156112cd576112cc61123b565b5b602082029050602081019050919050565b5f6112f06112eb846112b3565b611299565b9050808382526020820190506020840283018581111561131357611312610e9d565b5b835b8181101561133c57806113288882610df0565b845260208401935050602081019050611315565b5050509392505050565b5f82601f83011261135a57611359610e95565b5b813561136a8482602086016112de565b91505092915050565b5f806040838503121561138957611388610c91565b5b5f61139685828601611227565b925050602083013567ffffffffffffffff8111156113b7576113b6610c95565b5b6113c385828601611346565b915050925092905056fea26469706673582212207d9a3f23d5548971067c3b7853bf38ef2f65cfe345c0b7dacc735c9057bc7b2064736f6c63430008190033",
  "linkReferences": {},
  "deployedLinkReferences": {}
}