{
  "_format": "hh-sol-artifact-1",
  "contractName": "Points",
  "sourceName": "contracts/tokens/Points.sol",
  "abi": [
    {
      "inputs": [],
      "name": "AllowanceOverflow",
      "type": "error"
    },
    {
      "inputs": [],
      "name": "AllowanceUnderflow",
      "type": "error"
    },
    {
      "inputs": [],
      "name": "AlreadyInitialized",
      "type": "error"
    },
    {
      "inputs": [],
      "name": "InsufficientAllowance",
      "type": "error"
    },
    {
      "inputs": [],
      "name": "InsufficientBalance",
      "type": "error"
    },
    {
      "inputs": [],
      "name": "InvalidInitialization",
      "type": "error"
    },
    {
      "inputs": [],
      "name": "InvalidPermit",
      "type": "error"
    },
    {
      "inputs": [],
      "name": "NewOwnerIsZeroAddress",
      "type": "error"
    },
    {
      "inputs": [],
      "name": "NoHandoverRequest",
      "type": "error"
    },
    {
      "inputs": [],
      "name": "NonTransferable",
      "type": "error"
    },
    {
      "inputs": [],
      "name": "NotInitializing",
      "type": "error"
    },
    {
      "inputs": [],
      "name": "PermitExpired",
      "type": "error"
    },
    {
      "inputs": [],
      "name": "TotalSupplyOverflow",
      "type": "error"
    },
    {
      "inputs": [],
      "name": "Unauthorized",
      "type": "error"
    },
    {
      "anonymous": false,
      "inputs": [
        {
          "indexed": true,
          "internalType": "address",
          "name": "owner",
          "type": "address"
        },
        {
          "indexed": true,
          "internalType": "address",
          "name": "spender",
          "type": "address"
        },
        {
          "indexed": false,
          "internalType": "uint256",
          "name": "amount",
          "type": "uint256"
        }
      ],
      "name": "Approval",
      "type": "event"
    },
    {
      "anonymous": false,
      "inputs": [
        {
          "indexed": false,
          "internalType": "uint64",
          "name": "version",
          "type": "uint64"
        }
      ],
      "name": "Initialized",
      "type": "event"
    },
    {
      "anonymous": false,
      "inputs": [
        {
          "indexed": true,
          "internalType": "address",
          "name": "pendingOwner",
          "type": "address"
        }
      ],
      "name": "OwnershipHandoverCanceled",
      "type": "event"
    },
    {
      "anonymous": false,
      "inputs": [
        {
          "indexed": true,
          "internalType": "address",
          "name": "pendingOwner",
          "type": "address"
        }
      ],
      "name": "OwnershipHandoverRequested",
      "type": "event"
    },
    {
      "anonymous": false,
      "inputs": [
        {
          "indexed": true,
          "internalType": "address",
          "name": "oldOwner",
          "type": "address"
        },
        {
          "indexed": true,
          "internalType": "address",
          "name": "newOwner",
          "type": "address"
        }
      ],
      "name": "OwnershipTransferred",
      "type": "event"
    },
    {
      "anonymous": false,
      "inputs": [
        {
          "indexed": true,
          "internalType": "address",
          "name": "user",
          "type": "address"
        },
        {
          "indexed": true,
          "internalType": "uint256",
          "name": "roles",
          "type": "uint256"
        }
      ],
      "name": "RolesUpdated",
      "type": "event"
    },
    {
      "anonymous": false,
      "inputs": [
        {
          "indexed": true,
          "internalType": "address",
          "name": "from",
          "type": "address"
        },
        {
          "indexed": true,
          "internalType": "address",
          "name": "to",
          "type": "address"
        },
        {
          "indexed": false,
          "internalType": "uint256",
          "name": "amount",
          "type": "uint256"
        }
      ],
      "name": "Transfer",
      "type": "event"
    },
    {
      "inputs": [],
      "name": "DOMAIN_SEPARATOR",
      "outputs": [
        {
          "internalType": "bytes32",
          "name": "result",
          "type": "bytes32"
        }
      ],
      "stateMutability": "view",
      "type": "function"
    },
    {
      "inputs": [],
      "name": "ISSUER_ROLE",
      "outputs": [
        {
          "internalType": "uint256",
          "name": "",
          "type": "uint256"
        }
      ],
      "stateMutability": "view",
      "type": "function"
    },
    {
      "inputs": [
        {
          "internalType": "address",
          "name": "owner",
          "type": "address"
        },
        {
          "internalType": "address",
          "name": "spender",
          "type": "address"
        }
      ],
      "name": "allowance",
      "outputs": [
        {
          "internalType": "uint256",
          "name": "result",
          "type": "uint256"
        }
      ],
      "stateMutability": "view",
      "type": "function"
    },
    {
      "inputs": [
        {
          "internalType": "address",
          "name": "spender",
          "type": "address"
        },
        {
          "internalType": "uint256",
          "name": "amount",
          "type": "uint256"
        }
      ],
      "name": "approve",
      "outputs": [
        {
          "internalType": "bool",
          "name": "",
          "type": "bool"
        }
      ],
      "stateMutability": "nonpayable",
      "type": "function"
    },
    {
      "inputs": [
        {
          "internalType": "address",
          "name": "owner",
          "type": "address"
        }
      ],
      "name": "balanceOf",
      "outputs": [
        {
          "internalType": "uint256",
          "name": "result",
          "type": "uint256"
        }
      ],
      "stateMutability": "view",
      "type": "function"
    },
    {
      "inputs": [],
      "name": "cancelOwnershipHandover",
      "outputs": [],
      "stateMutability": "payable",
      "type": "function"
    },
    {
      "inputs": [
        {
          "internalType": "address",
          "name": "pendingOwner",
          "type": "address"
        }
      ],
      "name": "completeOwnershipHandover",
      "outputs": [],
      "stateMutability": "payable",
      "type": "function"
    },
    {
      "inputs": [],
      "name": "decimals",
      "outputs": [
        {
          "internalType": "uint8",
          "name": "",
          "type": "uint8"
        }
      ],
      "stateMutability": "view",
      "type": "function"
    },
    {
      "inputs": [
        {
          "internalType": "address",
          "name": "user",
          "type": "address"
        },
        {
          "internalType": "uint256",
          "name": "roles",
          "type": "uint256"
        }
      ],
      "name": "grantRoles",
      "outputs": [],
      "stateMutability": "payable",
      "type": "function"
    },
    {
      "inputs": [
        {
          "internalType": "address",
          "name": "user",
          "type": "address"
        },
        {
          "internalType": "uint256",
          "name": "roles",
          "type": "uint256"
        }
      ],
      "name": "hasAllRoles",
      "outputs": [
        {
          "internalType": "bool",
          "name": "",
          "type": "bool"
        }
      ],
      "stateMutability": "view",
      "type": "function"
    },
    {
      "inputs": [
        {
          "internalType": "address",
          "name": "user",
          "type": "address"
        },
        {
          "internalType": "uint256",
          "name": "roles",
          "type": "uint256"
        }
      ],
      "name": "hasAnyRole",
      "outputs": [
        {
          "internalType": "bool",
          "name": "",
          "type": "bool"
        }
      ],
      "stateMutability": "view",
      "type": "function"
    },
    {
      "inputs": [
        {
          "internalType": "string",
          "name": "name_",
          "type": "string"
        },
        {
          "internalType": "string",
          "name": "symbol_",
          "type": "string"
        },
        {
          "internalType": "address",
          "name": "minter_",
          "type": "address"
        }
      ],
      "name": "initialize",
      "outputs": [],
      "stateMutability": "nonpayable",
      "type": "function"
    },
    {
      "inputs": [
        {
          "internalType": "address",
          "name": "to",
          "type": "address"
        },
        {
          "internalType": "uint256",
          "name": "amount",
          "type": "uint256"
        }
      ],
      "name": "issue",
      "outputs": [],
      "stateMutability": "nonpayable",
      "type": "function"
    },
    {
      "inputs": [],
      "name": "name",
      "outputs": [
        {
          "internalType": "string",
          "name": "",
          "type": "string"
        }
      ],
      "stateMutability": "view",
      "type": "function"
    },
    {
      "inputs": [
        {
          "internalType": "address",
          "name": "owner",
          "type": "address"
        }
      ],
      "name": "nonces",
      "outputs": [
        {
          "internalType": "uint256",
          "name": "result",
          "type": "uint256"
        }
      ],
      "stateMutability": "view",
      "type": "function"
    },
    {
      "inputs": [],
      "name": "owner",
      "outputs": [
        {
          "internalType": "address",
          "name": "result",
          "type": "address"
        }
      ],
      "stateMutability": "view",
      "type": "function"
    },
    {
      "inputs": [
        {
          "internalType": "address",
          "name": "pendingOwner",
          "type": "address"
        }
      ],
      "name": "ownershipHandoverExpiresAt",
      "outputs": [
        {
          "internalType": "uint256",
          "name": "result",
          "type": "uint256"
        }
      ],
      "stateMutability": "view",
      "type": "function"
    },
    {
      "inputs": [
        {
          "internalType": "address",
          "name": "owner",
          "type": "address"
        },
        {
          "internalType": "address",
          "name": "spender",
          "type": "address"
        },
        {
          "internalType": "uint256",
          "name": "value",
          "type": "uint256"
        },
        {
          "internalType": "uint256",
          "name": "deadline",
          "type": "uint256"
        },
        {
          "internalType": "uint8",
          "name": "v",
          "type": "uint8"
        },
        {
          "internalType": "bytes32",
          "name": "r",
          "type": "bytes32"
        },
        {
          "internalType": "bytes32",
          "name": "s",
          "type": "bytes32"
        }
      ],
      "name": "permit",
      "outputs": [],
      "stateMutability": "nonpayable",
      "type": "function"
    },
    {
      "inputs": [],
      "name": "renounceOwnership",
      "outputs": [],
      "stateMutability": "payable",
      "type": "function"
    },
    {
      "inputs": [
        {
          "internalType": "uint256",
          "name": "roles",
          "type": "uint256"
        }
      ],
      "name": "renounceRoles",
      "outputs": [],
      "stateMutability": "payable",
      "type": "function"
    },
    {
      "inputs": [],
      "name": "requestOwnershipHandover",
      "outputs": [],
      "stateMutability": "payable",
      "type": "function"
    },
    {
      "inputs": [
        {
          "internalType": "address",
          "name": "user",
          "type": "address"
        },
        {
          "internalType": "uint256",
          "name": "roles",
          "type": "uint256"
        }
      ],
      "name": "revokeRoles",
      "outputs": [],
      "stateMutability": "payable",
      "type": "function"
    },
    {
      "inputs": [
        {
          "internalType": "address",
          "name": "user",
          "type": "address"
        }
      ],
      "name": "rolesOf",
      "outputs": [
        {
          "internalType": "uint256",
          "name": "roles",
          "type": "uint256"
        }
      ],
      "stateMutability": "view",
      "type": "function"
    },
    {
      "inputs": [],
      "name": "symbol",
      "outputs": [
        {
          "internalType": "string",
          "name": "",
          "type": "string"
        }
      ],
      "stateMutability": "view",
      "type": "function"
    },
    {
      "inputs": [],
      "name": "totalSupply",
      "outputs": [
        {
          "internalType": "uint256",
          "name": "result",
          "type": "uint256"
        }
      ],
      "stateMutability": "view",
      "type": "function"
    },
    {
      "inputs": [
        {
          "internalType": "address",
          "name": "to",
          "type": "address"
        },
        {
          "internalType": "uint256",
          "name": "amount",
          "type": "uint256"
        }
      ],
      "name": "transfer",
      "outputs": [
        {
          "internalType": "bool",
          "name": "",
          "type": "bool"
        }
      ],
      "stateMutability": "nonpayable",
      "type": "function"
    },
    {
      "inputs": [
        {
          "internalType": "address",
          "name": "from",
          "type": "address"
        },
        {
          "internalType": "address",
          "name": "to",
          "type": "address"
        },
        {
          "internalType": "uint256",
          "name": "amount",
          "type": "uint256"
        }
      ],
      "name": "transferFrom",
      "outputs": [
        {
          "internalType": "bool",
          "name": "",
          "type": "bool"
        }
      ],
      "stateMutability": "nonpayable",
      "type": "function"
    },
    {
      "inputs": [
        {
          "internalType": "address",
          "name": "newOwner",
          "type": "address"
        }
      ],
      "name": "transferOwnership",
      "outputs": [],
      "stateMutability": "payable",
      "type": "function"
    }
  ],
  "bytecode": "0x6080604052348015600e575f80fd5b50611b1b8061001c5f395ff3fe6080604052600436106101b6575f3560e01c806354d1f13d116100eb57806395d89b4111610089578063dd62ed3e11610063578063dd62ed3e146105aa578063f04e283e146105e6578063f2fde38b14610602578063fee81cf41461061e576101b6565b806395d89b411461051c578063a9059cbb14610546578063d505accf14610582576101b6565b80637ecebe00116100c55780637ecebe001461046457806382aefa24146104a0578063867904b4146104ca5780638da5cb5b146104f2576101b6565b806354d1f13d1461041457806370a082311461041e578063715018a61461045a576101b6565b806323b872dd11610158578063313ce56711610132578063313ce567146103685780633644e515146103925780634a4ee7b1146103bc578063514e62fc146103d8576101b6565b806323b872dd146102e657806325692962146103225780632de948071461032c576101b6565b806318160ddd1161019457806318160ddd14610248578063183a4f6e146102725780631c10893f1461028e5780631cd64df4146102aa576101b6565b806306fdde03146101ba578063077f224a146101e4578063095ea7b31461020c575b5f80fd5b3480156101c5575f80fd5b506101ce61065a565b6040516101db91906112af565b60405180910390f35b3480156101ef575f80fd5b5061020a60048036038101906102059190611466565b6106e9565b005b348015610217575f80fd5b50610232600480360381019061022d9190611521565b610793565b60405161023f9190611579565b60405180910390f35b348015610253575f80fd5b5061025c6107e3565b60405161026991906115a1565b60405180910390f35b61028c600480360381019061028791906115ba565b6107f4565b005b6102a860048036038101906102a39190611521565b610801565b005b3480156102b5575f80fd5b506102d060048036038101906102cb9190611521565b610817565b6040516102dd9190611579565b60405180910390f35b3480156102f1575f80fd5b5061030c600480360381019061030791906115e5565b61082d565b6040516103199190611579565b60405180910390f35b61032a6108fe565b005b348015610337575f80fd5b50610352600480360381019061034d9190611635565b61094f565b60405161035f91906115a1565b60405180910390f35b348015610373575f80fd5b5061037c610968565b604051610389919061167b565b60405180910390f35b34801561039d575f80fd5b506103a6610970565b6040516103b391906116ac565b60405180910390f35b6103d660048036038101906103d19190611521565b610a00565b005b3480156103e3575f80fd5b506103fe60048036038101906103f99190611521565b610a16565b60405161040b9190611579565b60405180910390f35b61041c610a2d565b005b348015610429575f80fd5b50610444600480360381019061043f9190611635565b610a66565b60405161045191906115a1565b60405180910390f35b610462610a7f565b005b34801561046f575f80fd5b5061048a60048036038101906104859190611635565b610a92565b60405161049791906115a1565b60405180910390f35b3480156104ab575f80fd5b506104b4610aab565b6040516104c191906115a1565b60405180910390f35b3480156104d5575f80fd5b506104f060048036038101906104eb9190611521565b610ab0565b005b3480156104fd575f80fd5b50610506610aca565b60405161051391906116d4565b60405180910390f35b348015610527575f80fd5b50610530610af2565b60405161053d91906112af565b60405180910390f35b348015610551575f80fd5b5061056c60048036038101906105679190611521565b610b82565b6040516105799190611579565b60405180910390f35b34801561058d575f80fd5b506105a860048036038101906105a39190611741565b610c10565b005b3480156105b5575f80fd5b506105d060048036038101906105cb91906117de565b610dac565b6040516105dd91906115a1565b60405180910390f35b61060060048036038101906105fb9190611635565b610dca565b005b61061c60048036038101906106179190611635565b610e08565b005b348015610629575f80fd5b50610644600480360381019061063f9190611635565b610e31565b60405161065191906115a1565b60405180910390f35b60605f805461066890611849565b80601f016020809104026020016040519081016040528092919081815260200182805461069490611849565b80156106df5780601f106106b6576101008083540402835291602001916106df565b820191905f5260205f20905b8154815290600101906020018083116106c257829003601f168201915b5050505050905090565b5f6106f2610e4a565b905080546003825580156107245760018160011c14303b1061071b5763f92ee8a95f526004601cfd5b818160ff1b1b91505b5061072e33610e73565b835f908161073c9190611a16565b50826001908161074c9190611a16565b50610758826002610f49565b801561078d576002815560016020527fc7f505b2f371ae2175ee4913f4499e1f2633a7b5936321eed1cdaeb6115181d2602080a15b50505050565b5f82602052637f5e9f20600c52335f52816034600c2055815f52602c5160601c337f8c5be1e5ebec7d5bd14f71427d1e84f3dd0314c0f7b2291e5b200ac8c7c3b92560205fa36001905092915050565b5f6805345cdf77eb68f44c54905090565b6107fe3382610f59565b50565b610809610f68565b6108138282610f49565b5050565b5f81826108238561094f565b1614905092915050565b5f610839848484610f9f565b8360601b33602052637f5e9f208117600c526034600c20805460018101156108765780851115610870576313be252b5f526004601cfd5b84810382555b6387a211a28317600c526020600c2080548087111561089c5763f4d678b85f526004601cfd5b8681038255875f526020600c2087815401815587602052600c5160601c8660601c7fddf252ad1be2c89b69c2b068fc378daa952ba7f163c4a11628f55a4df523b3ef602080a35050505050506108f3848484611043565b600190509392505050565b5f610907611048565b67ffffffffffffffff164201905063389a75e1600c52335f52806020600c2055337fdbf36a107da19e49527a7176a1babf963b4b0ff8cde35ee35d6cd8f1f9ac7e1d5f80a250565b5f638b78c6d8600c52815f526020600c20549050919050565b5f6012905090565b5f8061097a611052565b90505f801b81036109975761098d61065a565b8051906020012090505b6040517f8b73c3c69bb8fe3d512ecc4cf759cc79239f7b179b0ffacaa9a75d522b39400f81528160208201527fc89efdaa54c0f20c7adf612882df0950f5a951637e0307cdcb4c672f298b8bc6604082015246606082015230608082015260a081209250505090565b610a08610f68565b610a128282610f59565b5050565b5f8082610a228561094f565b161415905092915050565b63389a75e1600c52335f525f6020600c2055337ffa7b8eab7da67f412cc9575ed43464468f9bfbae89d1675917346ca6d8fe3c925f80a2565b5f6387a211a2600c52815f526020600c20549050919050565b610a87610f68565b610a905f611056565b565b5f6338377508600c52815f526020600c20549050919050565b600281565b6002610abb8161111c565b610ac58383611151565b505050565b5f7fffffffffffffffffffffffffffffffffffffffffffffffffffffffff7487392754905090565b606060018054610b0190611849565b80601f0160208091040260200160405190810160405280929190818152602001828054610b2d90611849565b8015610b785780601f10610b4f57610100808354040283529160200191610b78565b820191905f5260205f20905b815481529060010190602001808311610b5b57829003601f168201915b5050505050905090565b5f610b8e338484610f9f565b6387a211a2600c52335f526020600c20805480841115610bb55763f4d678b85f526004601cfd5b8381038255845f526020600c2084815401815584602052600c5160601c337fddf252ad1be2c89b69c2b068fc378daa952ba7f163c4a11628f55a4df523b3ef602080a3505050610c06338484611043565b6001905092915050565b5f610c19611052565b90505f801b8103610c3657610c2c61065a565b8051906020012090505b84421115610c4b57631a15a3cc5f526004601cfd5b6040518860601b60601c98508760601b60601c975065383775081901600e52885f526020600c2080547f8b73c3c69bb8fe3d512ecc4cf759cc79239f7b179b0ffacaa9a75d522b39400f83528360208401527fc89efdaa54c0f20c7adf612882df0950f5a951637e0307cdcb4c672f298b8bc6604084015246606084015230608084015260a08320602e527f6e71edae12b1b97f4d1f60370fef10105fa2faae0126114a169c64845d6126c983528a60208401528960408401528860608401528060808401528760a084015260c08320604e526042602c205f528660ff16602052856040528460605260208060805f60015afa8b3d5114610d535763ddafbaef5f526004601cfd5b80820183558a637f5e9f2060a01b17604052896034602c20558a8c7f8c5be1e5ebec7d5bd14f71427d1e84f3dd0314c0f7b2291e5b200ac8c7c3b925602060608801a3836040525f606052505050505050505050505050565b5f81602052637f5e9f20600c52825f526034600c2054905092915050565b610dd2610f68565b63389a75e1600c52805f526020600c208054421115610df857636f5e88185f526004601cfd5b5f815550610e0581611056565b50565b610e10610f68565b8060601b610e2557637448fbae5f526004601cfd5b610e2e81611056565b50565b5f63389a75e1600c52815f526020600c20549050919050565b5f7fffffffffffffffffffffffffffffffffffffffffffffffffffffffffbf6011325f1b905090565b610e7b6111e3565b15610ef3577fffffffffffffffffffffffffffffffffffffffffffffffffffffffff74873927805415610eb557630dc149f05f526004601cfd5b8160601b60601c9150811560ff1b82178155815f7f8be0079c531659141344cd1fd0a4f28419497f9722a3daafe3b4186f6b6457e05f80a350610f46565b8060601b60601c9050807fffffffffffffffffffffffffffffffffffffffffffffffffffffffff7487392755805f7f8be0079c531659141344cd1fd0a4f28419497f9722a3daafe3b4186f6b6457e05f80a35b50565b610f55828260016111e7565b5050565b610f6482825f6111e7565b5050565b7fffffffffffffffffffffffffffffffffffffffffffffffffffffffff74873927543314610f9d576382b429005f526004601cfd5b565b5f73ffffffffffffffffffffffffffffffffffffffff168373ffffffffffffffffffffffffffffffffffffffff161415801561100757505f73ffffffffffffffffffffffffffffffffffffffff168273ffffffffffffffffffffffffffffffffffffffff1614155b1561103e576040517f9cbe235700000000000000000000000000000000000000000000000000000000815260040160405180910390fd5b505050565b505050565b5f6202a300905090565b5f90565b61105e6111e3565b156110c3577fffffffffffffffffffffffffffffffffffffffffffffffffffffffff748739278160601b60601c91508181547f8be0079c531659141344cd1fd0a4f28419497f9722a3daafe3b4186f6b6457e05f80a3811560ff1b8217815550611119565b7fffffffffffffffffffffffffffffffffffffffffffffffffffffffff748739278160601b60601c91508181547f8be0079c531659141344cd1fd0a4f28419497f9722a3daafe3b4186f6b6457e05f80a3818155505b50565b638b78c6d81954331461114e57638b78c6d8600c52335f52806020600c20541661114d576382b429005f526004601cfd5b5b50565b61115c5f8383610f9f565b6805345cdf77eb68f44c548181018181101561117f5763e5cfe9575f526004601cfd5b806805345cdf77eb68f44c556387a211a2600c52835f526020600c2083815401815583602052600c5160601c5f7fddf252ad1be2c89b69c2b068fc378daa952ba7f163c4a11628f55a4df523b3ef602080a35050506111df5f8383611043565b5050565b5f90565b638b78c6d8600c52825f526020600c2080548381178361120957848216821890505b80835580600c5160601c7f715ad5ce61fc9595c7b415289d59cf203f23a94fa06f04af7e489a0a76e1fe265f80a3505050505050565b5f81519050919050565b5f82825260208201905092915050565b8281835e5f83830152505050565b5f601f19601f8301169050919050565b5f6112818261123f565b61128b8185611249565b935061129b818560208601611259565b6112a481611267565b840191505092915050565b5f6020820190508181035f8301526112c78184611277565b905092915050565b5f604051905090565b5f80fd5b5f80fd5b5f80fd5b5f80fd5b7f4e487b71000000000000000000000000000000000000000000000000000000005f52604160045260245ffd5b61131e82611267565b810181811067ffffffffffffffff8211171561133d5761133c6112e8565b5b80604052505050565b5f61134f6112cf565b905061135b8282611315565b919050565b5f67ffffffffffffffff82111561137a576113796112e8565b5b61138382611267565b9050602081019050919050565b828183375f83830152505050565b5f6113b06113ab84611360565b611346565b9050828152602081018484840111156113cc576113cb6112e4565b5b6113d7848285611390565b509392505050565b5f82601f8301126113f3576113f26112e0565b5b813561140384826020860161139e565b91505092915050565b5f73ffffffffffffffffffffffffffffffffffffffff82169050919050565b5f6114358261140c565b9050919050565b6114458161142b565b811461144f575f80fd5b50565b5f813590506114608161143c565b92915050565b5f805f6060848603121561147d5761147c6112d8565b5b5f84013567ffffffffffffffff81111561149a576114996112dc565b5b6114a6868287016113df565b935050602084013567ffffffffffffffff8111156114c7576114c66112dc565b5b6114d3868287016113df565b92505060406114e486828701611452565b9150509250925092565b5f819050919050565b611500816114ee565b811461150a575f80fd5b50565b5f8135905061151b816114f7565b92915050565b5f8060408385031215611537576115366112d8565b5b5f61154485828601611452565b92505060206115558582860161150d565b9150509250929050565b5f8115159050919050565b6115738161155f565b82525050565b5f60208201905061158c5f83018461156a565b92915050565b61159b816114ee565b82525050565b5f6020820190506115b45f830184611592565b92915050565b5f602082840312156115cf576115ce6112d8565b5b5f6115dc8482850161150d565b91505092915050565b5f805f606084860312156115fc576115fb6112d8565b5b5f61160986828701611452565b935050602061161a86828701611452565b925050604061162b8682870161150d565b9150509250925092565b5f6020828403121561164a576116496112d8565b5b5f61165784828501611452565b91505092915050565b5f60ff82169050919050565b61167581611660565b82525050565b5f60208201905061168e5f83018461166c565b92915050565b5f819050919050565b6116a681611694565b82525050565b5f6020820190506116bf5f83018461169d565b92915050565b6116ce8161142b565b82525050565b5f6020820190506116e75f8301846116c5565b92915050565b6116f681611660565b8114611700575f80fd5b50565b5f81359050611711816116ed565b92915050565b61172081611694565b811461172a575f80fd5b50565b5f8135905061173b81611717565b92915050565b5f805f805f805f60e0888a03121561175c5761175b6112d8565b5b5f6117698a828b01611452565b975050602061177a8a828b01611452565b965050604061178b8a828b0161150d565b955050606061179c8a828b0161150d565b94505060806117ad8a828b01611703565b93505060a06117be8a828b0161172d565b92505060c06117cf8a828b0161172d565b91505092959891949750929550565b5f80604083850312156117f4576117f36112d8565b5b5f61180185828601611452565b925050602061181285828601611452565b9150509250929050565b7f4e487b71000000000000000000000000000000000000000000000000000000005f52602260045260245ffd5b5f600282049050600182168061186057607f821691505b6020821081036118735761187261181c565b5b50919050565b5f819050815f5260205f209050919050565b5f6020601f8301049050919050565b5f82821b905092915050565b5f600883026118d57fffffffffffffffffffffffffffffffffffffffffffffffffffffffffffffffff8261189a565b6118df868361189a565b95508019841693508086168417925050509392505050565b5f819050919050565b5f61191a611915611910846114ee565b6118f7565b6114ee565b9050919050565b5f819050919050565b61193383611900565b61194761193f82611921565b8484546118a6565b825550505050565b5f90565b61195b61194f565b61196681848461192a565b505050565b5b818110156119895761197e5f82611953565b60018101905061196c565b5050565b601f8211156119ce5761199f81611879565b6119a88461188b565b810160208510156119b7578190505b6119cb6119c38561188b565b83018261196b565b50505b505050565b5f82821c905092915050565b5f6119ee5f19846008026119d3565b1980831691505092915050565b5f611a0683836119df565b9150826002028217905092915050565b611a1f8261123f565b67ffffffffffffffff811115611a3857611a376112e8565b5b611a428254611849565b611a4d82828561198d565b5f60209050601f831160018114611a7e575f8415611a6c578287015190505b611a7685826119fb565b865550611add565b601f198416611a8c86611879565b5f5b82811015611ab357848901518255600182019150602085019450602081019050611a8e565b86831015611ad05784890151611acc601f8916826119df565b8355505b6001600288020188555050505b50505050505056fea2646970667358221220588279594887393a0d4c4d10e75c321025f4a084b976e8e93b5ad6161e685a6764736f6c634300081a0033",
  "linkReferences": {},
  "deployedLinkReferences": {}
}