{
  "_format": "hh-sol-artifact-1",
  "contractName": "MockERC20",
  "sourceName": "contracts/shared/Mocks.sol",
  "abi": [
    {
      "inputs": [],
      "name": "AllowanceOverflow",
      "type": "error"
    },
    {
      "inputs": [],
      "name": "AllowanceUnderflow",
      "type": "error"
    },
    {
      "inputs": [],
      "name": "InsufficientAllowance",
      "type": "error"
    },
    {
      "inputs": [],
      "name": "InsufficientBalance",
      "type": "error"
    },
    {
      "inputs": [],
      "name": "InvalidPermit",
      "type": "error"
    },
    {
      "inputs": [],
      "name": "PermitExpired",
      "type": "error"
    },
    {
      "inputs": [],
      "name": "TotalSupplyOverflow",
      "type": "error"
    },
    {
      "anonymous": false,
      "inputs": [
        {
          "indexed": true,
          "internalType": "address",
          "name": "owner",
          "type": "address"
        },
        {
          "indexed": true,
          "internalType": "address",
          "name": "spender",
          "type": "address"
        },
        {
          "indexed": false,
          "internalType": "uint256",
          "name": "amount",
          "type": "uint256"
        }
      ],
      "name": "Approval",
      "type": "event"
    },
    {
      "anonymous": false,
      "inputs": [
        {
          "indexed": true,
          "internalType": "address",
          "name": "from",
          "type": "address"
        },
        {
          "indexed": true,
          "internalType": "address",
          "name": "to",
          "type": "address"
        },
        {
          "indexed": false,
          "internalType": "uint256",
          "name": "amount",
          "type": "uint256"
        }
      ],
      "name": "Transfer",
      "type": "event"
    },
    {
      "inputs": [],
      "name": "DOMAIN_SEPARATOR",
      "outputs": [
        {
          "internalType": "bytes32",
          "name": "result",
          "type": "bytes32"
        }
      ],
      "stateMutability": "view",
      "type": "function"
    },
    {
      "inputs": [
        {
          "internalType": "address",
          "name": "owner",
          "type": "address"
        },
        {
          "internalType": "address",
          "name": "spender",
          "type": "address"
        }
      ],
      "name": "allowance",
      "outputs": [
        {
          "internalType": "uint256",
          "name": "result",
          "type": "uint256"
        }
      ],
      "stateMutability": "view",
      "type": "function"
    },
    {
      "inputs": [
        {
          "internalType": "address",
          "name": "spender",
          "type": "address"
        },
        {
          "internalType": "uint256",
          "name": "amount",
          "type": "uint256"
        }
      ],
      "name": "approve",
      "outputs": [
        {
          "internalType": "bool",
          "name": "",
          "type": "bool"
        }
      ],
      "stateMutability": "nonpayable",
      "type": "function"
    },
    {
      "inputs": [
        {
          "internalType": "address",
          "name": "owner",
          "type": "address"
        }
      ],
      "name": "balanceOf",
      "outputs": [
        {
          "internalType": "uint256",
          "name": "result",
          "type": "uint256"
        }
      ],
      "stateMutability": "view",
      "type": "function"
    },
    {
      "inputs": [],
      "name": "decimals",
      "outputs": [
        {
          "internalType": "uint8",
          "name": "",
          "type": "uint8"
        }
      ],
      "stateMutability": "view",
      "type": "function"
    },
    {
      "inputs": [
        {
          "internalType": "address",
          "name": "to",
          "type": "address"
        },
        {
          "internalType": "uint256",
          "name": "amount",
          "type": "uint256"
        }
      ],
      "name": "mint",
      "outputs": [],
      "stateMutability": "nonpayable",
      "type": "function"
    },
    {
      "inputs": [
        {
          "internalType": "address",
          "name": "to",
          "type": "address"
        },
        {
          "internalType": "uint256",
          "name": "amount",
          "type": "uint256"
        }
      ],
      "name": "mintPayable",
      "outputs": [],
      "stateMutability": "payable",
      "type": "function"
    },
    {
      "inputs": [],
      "name": "name",
      "outputs": [
        {
          "internalType": "string",
          "name": "",
          "type": "string"
        }
      ],
      "stateMutability": "pure",
      "type": "function"
    },
    {
      "inputs": [
        {
          "internalType": "address",
          "name": "owner",
          "type": "address"
        }
      ],
      "name": "nonces",
      "outputs": [
        {
          "internalType": "uint256",
          "name": "result",
          "type": "uint256"
        }
      ],
      "stateMutability": "view",
      "type": "function"
    },
    {
      "inputs": [
        {
          "internalType": "address",
          "name": "owner",
          "type": "address"
        },
        {
          "internalType": "address",
          "name": "spender",
          "type": "address"
        },
        {
          "internalType": "uint256",
          "name": "value",
          "type": "uint256"
        },
        {
          "internalType": "uint256",
          "name": "deadline",
          "type": "uint256"
        },
        {
          "internalType": "uint8",
          "name": "v",
          "type": "uint8"
        },
        {
          "internalType": "bytes32",
          "name": "r",
          "type": "bytes32"
        },
        {
          "internalType": "bytes32",
          "name": "s",
          "type": "bytes32"
        }
      ],
      "name": "permit",
      "outputs": [],
      "stateMutability": "nonpayable",
      "type": "function"
    },
    {
      "inputs": [],
      "name": "symbol",
      "outputs": [
        {
          "internalType": "string",
          "name": "",
          "type": "string"
        }
      ],
      "stateMutability": "pure",
      "type": "function"
    },
    {
      "inputs": [],
      "name": "totalSupply",
      "outputs": [
        {
          "internalType": "uint256",
          "name": "result",
          "type": "uint256"
        }
      ],
      "stateMutability": "view",
      "type": "function"
    },
    {
      "inputs": [
        {
          "internalType": "address",
          "name": "to",
          "type": "address"
        },
        {
          "internalType": "uint256",
          "name": "amount",
          "type": "uint256"
        }
      ],
      "name": "transfer",
      "outputs": [
        {
          "internalType": "bool",
          "name": "",
          "type": "bool"
        }
      ],
      "stateMutability": "nonpayable",
      "type": "function"
    },
    {
      "inputs": [
        {
          "internalType": "address",
          "name": "from",
          "type": "address"
        },
        {
          "internalType": "address",
          "name": "to",
          "type": "address"
        },
        {
          "internalType": "uint256",
          "name": "amount",
          "type": "uint256"
        }
      ],
      "name": "transferFrom",
      "outputs": [
        {
          "internalType": "bool",
          "name": "",
          "type": "bool"
        }
      ],
      "stateMutability": "nonpayable",
      "type": "function"
    }
  ],
  "bytecode": "0x6080604052348015600e575f80fd5b50610e138061001c5f395ff3fe6080604052600436106100dc575f3560e01c806340c10f191161007e57806395d89b411161005857806395d89b41146102bc578063a9059cbb146102e6578063d505accf14610322578063dd62ed3e1461034a576100dc565b806340c10f191461021c57806370a08231146102445780637ecebe0014610280576100dc565b806318160ddd116100ba57806318160ddd1461016257806323b872dd1461018c578063313ce567146101c85780633644e515146101f2576100dc565b806306fdde03146100e0578063095ea7b31461010a57806317d304b014610146575b5f80fd5b3480156100eb575f80fd5b506100f4610386565b60405161010191906109bf565b60405180910390f35b348015610115575f80fd5b50610130600480360381019061012b9190610a70565b6103c3565b60405161013d9190610ac8565b60405180910390f35b610160600480360381019061015b9190610a70565b610413565b005b34801561016d575f80fd5b50610176610470565b6040516101839190610af0565b60405180910390f35b348015610197575f80fd5b506101b260048036038101906101ad9190610b09565b610481565b6040516101bf9190610ac8565b60405180910390f35b3480156101d3575f80fd5b506101dc610552565b6040516101e99190610b74565b60405180910390f35b3480156101fd575f80fd5b5061020661055a565b6040516102139190610ba5565b60405180910390f35b348015610227575f80fd5b50610242600480360381019061023d9190610a70565b6105ea565b005b34801561024f575f80fd5b5061026a60048036038101906102659190610bbe565b6105f8565b6040516102779190610af0565b60405180910390f35b34801561028b575f80fd5b506102a660048036038101906102a19190610bbe565b610611565b6040516102b39190610af0565b60405180910390f35b3480156102c7575f80fd5b506102d061062a565b6040516102dd91906109bf565b60405180910390f35b3480156102f1575f80fd5b5061030c60048036038101906103079190610a70565b610667565b6040516103199190610ac8565b60405180910390f35b34801561032d575f80fd5b5061034860048036038101906103439190610c3d565b6106f5565b005b348015610355575f80fd5b50610370600480360381019061036b9190610cda565b610891565b60405161037d9190610af0565b60405180910390f35b60606040518060400160405280600a81526020017f4d6f636b20455243323000000000000000000000000000000000000000000000815250905090565b5f82602052637f5e9f20600c52335f52816034600c2055815f52602c5160601c337f8c5be1e5ebec7d5bd14f71427d1e84f3dd0314c0f7b2291e5b200ac8c7c3b92560205fa36001905092915050565b6064816104209190610d45565b341015610462576040517f08c379a000000000000000000000000000000000000000000000000000000000815260040161045990610dbf565b60405180910390fd5b61046c82826108af565b5050565b5f6805345cdf77eb68f44c54905090565b5f61048d848484610941565b8360601b33602052637f5e9f208117600c526034600c20805460018101156104ca57808511156104c4576313be252b5f526004601cfd5b84810382555b6387a211a28317600c526020600c208054808711156104f05763f4d678b85f526004601cfd5b8681038255875f526020600c2087815401815587602052600c5160601c8660601c7fddf252ad1be2c89b69c2b068fc378daa952ba7f163c4a11628f55a4df523b3ef602080a3505050505050610547848484610946565b600190509392505050565b5f6012905090565b5f8061056461094b565b90505f801b810361058157610577610386565b8051906020012090505b6040517f8b73c3c69bb8fe3d512ecc4cf759cc79239f7b179b0ffacaa9a75d522b39400f81528160208201527fc89efdaa54c0f20c7adf612882df0950f5a951637e0307cdcb4c672f298b8bc6604082015246606082015230608082015260a081209250505090565b6105f482826108af565b5050565b5f6387a211a2600c52815f526020600c20549050919050565b5f6338377508600c52815f526020600c20549050919050565b60606040518060400160405280600481526020017f4d4f434b00000000000000000000000000000000000000000000000000000000815250905090565b5f610673338484610941565b6387a211a2600c52335f526020600c2080548084111561069a5763f4d678b85f526004601cfd5b8381038255845f526020600c2084815401815584602052600c5160601c337fddf252ad1be2c89b69c2b068fc378daa952ba7f163c4a11628f55a4df523b3ef602080a35050506106eb338484610946565b6001905092915050565b5f6106fe61094b565b90505f801b810361071b57610711610386565b8051906020012090505b8442111561073057631a15a3cc5f526004601cfd5b6040518860601b60601c98508760601b60601c975065383775081901600e52885f526020600c2080547f8b73c3c69bb8fe3d512ecc4cf759cc79239f7b179b0ffacaa9a75d522b39400f83528360208401527fc89efdaa54c0f20c7adf612882df0950f5a951637e0307cdcb4c672f298b8bc6604084015246606084015230608084015260a08320602e527f6e71edae12b1b97f4d1f60370fef10105fa2faae0126114a169c64845d6126c983528a60208401528960408401528860608401528060808401528760a084015260c08320604e526042602c205f528660ff16602052856040528460605260208060805f60015afa8b3d51146108385763ddafbaef5f526004601cfd5b80820183558a637f5e9f2060a01b17604052896034602c20558a8c7f8c5be1e5ebec7d5bd14f71427d1e84f3dd0314c0f7b2291e5b200ac8c7c3b925602060608801a3836040525f606052505050505050505050505050565b5f81602052637f5e9f20600c52825f526034600c2054905092915050565b6108ba5f8383610941565b6805345cdf77eb68f44c54818101818110156108dd5763e5cfe9575f526004601cfd5b806805345cdf77eb68f44c556387a211a2600c52835f526020600c2083815401815583602052600c5160601c5f7fddf252ad1be2c89b69c2b068fc378daa952ba7f163c4a11628f55a4df523b3ef602080a350505061093d5f8383610946565b5050565b505050565b505050565b5f90565b5f81519050919050565b5f82825260208201905092915050565b8281835e5f83830152505050565b5f601f19601f8301169050919050565b5f6109918261094f565b61099b8185610959565b93506109ab818560208601610969565b6109b481610977565b840191505092915050565b5f6020820190508181035f8301526109d78184610987565b905092915050565b5f80fd5b5f73ffffffffffffffffffffffffffffffffffffffff82169050919050565b5f610a0c826109e3565b9050919050565b610a1c81610a02565b8114610a26575f80fd5b50565b5f81359050610a3781610a13565b92915050565b5f819050919050565b610a4f81610a3d565b8114610a59575f80fd5b50565b5f81359050610a6a81610a46565b92915050565b5f8060408385031215610a8657610a856109df565b5b5f610a9385828601610a29565b9250506020610aa485828601610a5c565b9150509250929050565b5f8115159050919050565b610ac281610aae565b82525050565b5f602082019050610adb5f830184610ab9565b92915050565b610aea81610a3d565b82525050565b5f602082019050610b035f830184610ae1565b92915050565b5f805f60608486031215610b2057610b1f6109df565b5b5f610b2d86828701610a29565b9350506020610b3e86828701610a29565b9250506040610b4f86828701610a5c565b9150509250925092565b5f60ff82169050919050565b610b6e81610b59565b82525050565b5f602082019050610b875f830184610b65565b92915050565b5f819050919050565b610b9f81610b8d565b82525050565b5f602082019050610bb85f830184610b96565b92915050565b5f60208284031215610bd357610bd26109df565b5b5f610be084828501610a29565b91505092915050565b610bf281610b59565b8114610bfc575f80fd5b50565b5f81359050610c0d81610be9565b92915050565b610c1c81610b8d565b8114610c26575f80fd5b50565b5f81359050610c3781610c13565b92915050565b5f805f805f805f60e0888a031215610c5857610c576109df565b5b5f610c658a828b01610a29565b9750506020610c768a828b01610a29565b9650506040610c878a828b01610a5c565b9550506060610c988a828b01610a5c565b9450506080610ca98a828b01610bff565b93505060a0610cba8a828b01610c29565b92505060c0610ccb8a828b01610c29565b91505092959891949750929550565b5f8060408385031215610cf057610cef6109df565b5b5f610cfd85828601610a29565b9250506020610d0e85828601610a29565b9150509250929050565b7f4e487b71000000000000000000000000000000000000000000000000000000005f52601260045260245ffd5b5f610d4f82610a3d565b9150610d5a83610a3d565b925082610d6a57610d69610d18565b5b828204905092915050565b7f4d6f636b45524332303a2067696d6d65206d6f7265206d6f6e657921000000005f82015250565b5f610da9601c83610959565b9150610db482610d75565b602082019050919050565b5f6020820190508181035f830152610dd681610d9d565b905091905056fea26469706673582212202017758755fd1a9ee9816eec432ddd04fae4a022d4b8cad78ac5cd40e484794864736f6c634300081a0033",
  "linkReferences": {},
  "deployedLinkReferences": {}
}