{
  "_format": "hh-sol-artifact-1",
  "contractName": "MockERC20",
  "sourceName": "contracts/shared/Mocks.sol",
  "abi": [
    {
      "inputs": [],
      "name": "AllowanceOverflow",
      "type": "error"
    },
    {
      "inputs": [],
      "name": "AllowanceUnderflow",
      "type": "error"
    },
    {
      "inputs": [],
      "name": "InsufficientAllowance",
      "type": "error"
    },
    {
      "inputs": [],
      "name": "InsufficientBalance",
      "type": "error"
    },
    {
      "inputs": [],
      "name": "InvalidPermit",
      "type": "error"
    },
    {
      "inputs": [],
      "name": "PermitExpired",
      "type": "error"
    },
    {
      "inputs": [],
      "name": "TotalSupplyOverflow",
      "type": "error"
    },
    {
      "anonymous": false,
      "inputs": [
        {
          "indexed": true,
          "internalType": "address",
          "name": "owner",
          "type": "address"
        },
        {
          "indexed": true,
          "internalType": "address",
          "name": "spender",
          "type": "address"
        },
        {
          "indexed": false,
          "internalType": "uint256",
          "name": "amount",
          "type": "uint256"
        }
      ],
      "name": "Approval",
      "type": "event"
    },
    {
      "anonymous": false,
      "inputs": [
        {
          "indexed": true,
          "internalType": "address",
          "name": "from",
          "type": "address"
        },
        {
          "indexed": true,
          "internalType": "address",
          "name": "to",
          "type": "address"
        },
        {
          "indexed": false,
          "internalType": "uint256",
          "name": "amount",
          "type": "uint256"
        }
      ],
      "name": "Transfer",
      "type": "event"
    },
    {
      "inputs": [],
      "name": "DOMAIN_SEPARATOR",
      "outputs": [
        {
          "internalType": "bytes32",
          "name": "result",
          "type": "bytes32"
        }
      ],
      "stateMutability": "view",
      "type": "function"
    },
    {
      "inputs": [
        {
          "internalType": "address",
          "name": "owner",
          "type": "address"
        },
        {
          "internalType": "address",
          "name": "spender",
          "type": "address"
        }
      ],
      "name": "allowance",
      "outputs": [
        {
          "internalType": "uint256",
          "name": "result",
          "type": "uint256"
        }
      ],
      "stateMutability": "view",
      "type": "function"
    },
    {
      "inputs": [
        {
          "internalType": "address",
          "name": "spender",
          "type": "address"
        },
        {
          "internalType": "uint256",
          "name": "amount",
          "type": "uint256"
        }
      ],
      "name": "approve",
      "outputs": [
        {
          "internalType": "bool",
          "name": "",
          "type": "bool"
        }
      ],
      "stateMutability": "nonpayable",
      "type": "function"
    },
    {
      "inputs": [
        {
          "internalType": "address",
          "name": "owner",
          "type": "address"
        }
      ],
      "name": "balanceOf",
      "outputs": [
        {
          "internalType": "uint256",
          "name": "result",
          "type": "uint256"
        }
      ],
      "stateMutability": "view",
      "type": "function"
    },
    {
      "inputs": [],
      "name": "decimals",
      "outputs": [
        {
          "internalType": "uint8",
          "name": "",
          "type": "uint8"
        }
      ],
      "stateMutability": "view",
      "type": "function"
    },
    {
      "inputs": [
        {
          "internalType": "address",
          "name": "to",
          "type": "address"
        },
        {
          "internalType": "uint256",
          "name": "amount",
          "type": "uint256"
        }
      ],
      "name": "mint",
      "outputs": [],
      "stateMutability": "nonpayable",
      "type": "function"
    },
    {
      "inputs": [
        {
          "internalType": "address",
          "name": "to",
          "type": "address"
        },
        {
          "internalType": "uint256",
          "name": "amount",
          "type": "uint256"
        }
      ],
      "name": "mintPayable",
      "outputs": [],
      "stateMutability": "payable",
      "type": "function"
    },
    {
      "inputs": [],
      "name": "name",
      "outputs": [
        {
          "internalType": "string",
          "name": "",
          "type": "string"
        }
      ],
      "stateMutability": "pure",
      "type": "function"
    },
    {
      "inputs": [
        {
          "internalType": "address",
          "name": "owner",
          "type": "address"
        }
      ],
      "name": "nonces",
      "outputs": [
        {
          "internalType": "uint256",
          "name": "result",
          "type": "uint256"
        }
      ],
      "stateMutability": "view",
      "type": "function"
    },
    {
      "inputs": [
        {
          "internalType": "address",
          "name": "owner",
          "type": "address"
        },
        {
          "internalType": "address",
          "name": "spender",
          "type": "address"
        },
        {
          "internalType": "uint256",
          "name": "value",
          "type": "uint256"
        },
        {
          "internalType": "uint256",
          "name": "deadline",
          "type": "uint256"
        },
        {
          "internalType": "uint8",
          "name": "v",
          "type": "uint8"
        },
        {
          "internalType": "bytes32",
          "name": "r",
          "type": "bytes32"
        },
        {
          "internalType": "bytes32",
          "name": "s",
          "type": "bytes32"
        }
      ],
      "name": "permit",
      "outputs": [],
      "stateMutability": "nonpayable",
      "type": "function"
    },
    {
      "inputs": [],
      "name": "symbol",
      "outputs": [
        {
          "internalType": "string",
          "name": "",
          "type": "string"
        }
      ],
      "stateMutability": "pure",
      "type": "function"
    },
    {
      "inputs": [],
      "name": "totalSupply",
      "outputs": [
        {
          "internalType": "uint256",
          "name": "result",
          "type": "uint256"
        }
      ],
      "stateMutability": "view",
      "type": "function"
    },
    {
      "inputs": [
        {
          "internalType": "address",
          "name": "to",
          "type": "address"
        },
        {
          "internalType": "uint256",
          "name": "amount",
          "type": "uint256"
        }
      ],
      "name": "transfer",
      "outputs": [
        {
          "internalType": "bool",
          "name": "",
          "type": "bool"
        }
      ],
      "stateMutability": "nonpayable",
      "type": "function"
    },
    {
      "inputs": [
        {
          "internalType": "address",
          "name": "from",
          "type": "address"
        },
        {
          "internalType": "address",
          "name": "to",
          "type": "address"
        },
        {
          "internalType": "uint256",
          "name": "amount",
          "type": "uint256"
        }
      ],
      "name": "transferFrom",
      "outputs": [
        {
          "internalType": "bool",
          "name": "",
          "type": "bool"
        }
      ],
      "stateMutability": "nonpayable",
      "type": "function"
    }
  ],
  "bytecode": "0x608060405234801561001057600080fd5b50610e94806100206000396000f3fe6080604052600436106100dd5760003560e01c806340c10f191161007f57806395d89b411161005957806395d89b41146102c7578063a9059cbb146102f2578063d505accf1461032f578063dd62ed3e14610358576100dd565b806340c10f191461022457806370a082311461024d5780637ecebe001461028a576100dd565b806318160ddd116100bb57806318160ddd1461016657806323b872dd14610191578063313ce567146101ce5780633644e515146101f9576100dd565b806306fdde03146100e2578063095ea7b31461010d57806317d304b01461014a575b600080fd5b3480156100ee57600080fd5b506100f7610395565b6040516101049190610a12565b60405180910390f35b34801561011957600080fd5b50610134600480360381019061012f9190610acd565b6103d2565b6040516101419190610b28565b60405180910390f35b610164600480360381019061015f9190610acd565b610426565b005b34801561017257600080fd5b5061017b610483565b6040516101889190610b52565b60405180910390f35b34801561019d57600080fd5b506101b860048036038101906101b39190610b6d565b610495565b6040516101c59190610b28565b60405180910390f35b3480156101da57600080fd5b506101e361056a565b6040516101f09190610bdc565b60405180910390f35b34801561020557600080fd5b5061020e610573565b60405161021b9190610c10565b60405180910390f35b34801561023057600080fd5b5061024b60048036038101906102469190610acd565b610605565b005b34801561025957600080fd5b50610274600480360381019061026f9190610c2b565b610613565b6040516102819190610b52565b60405180910390f35b34801561029657600080fd5b506102b160048036038101906102ac9190610c2b565b61062e565b6040516102be9190610b52565b60405180910390f35b3480156102d357600080fd5b506102dc610649565b6040516102e99190610a12565b60405180910390f35b3480156102fe57600080fd5b5061031960048036038101906103149190610acd565b610686565b6040516103269190610b28565b60405180910390f35b34801561033b57600080fd5b5061035660048036038101906103519190610cb0565b610718565b005b34801561036457600080fd5b5061037f600480360381019061037a9190610d52565b6108bc565b60405161038c9190610b52565b60405180910390f35b60606040518060400160405280600a81526020017f4d6f636b20455243323000000000000000000000000000000000000000000000815250905090565b600082602052637f5e9f20600c5233600052816034600c205581600052602c5160601c337f8c5be1e5ebec7d5bd14f71427d1e84f3dd0314c0f7b2291e5b200ac8c7c3b92560206000a36001905092915050565b6064816104339190610dc1565b341015610475576040517f08c379a000000000000000000000000000000000000000000000000000000000815260040161046c90610e3e565b60405180910390fd5b61047f82826108dc565b5050565b60006805345cdf77eb68f44c54905090565b60006104a2848484610973565b8360601b33602052637f5e9f208117600c526034600c20805460018101156104e057808511156104da576313be252b6000526004601cfd5b84810382555b6387a211a28317600c526020600c208054808711156105075763f4d678b86000526004601cfd5b8681038255876000526020600c2087815401815587602052600c5160601c8660601c7fddf252ad1be2c89b69c2b068fc378daa952ba7f163c4a11628f55a4df523b3ef602080a350505050505061055f848484610978565b600190509392505050565b60006012905090565b60008061057e61097d565b90506000801b810361059c57610592610395565b8051906020012090505b6040517f8b73c3c69bb8fe3d512ecc4cf759cc79239f7b179b0ffacaa9a75d522b39400f81528160208201527fc89efdaa54c0f20c7adf612882df0950f5a951637e0307cdcb4c672f298b8bc6604082015246606082015230608082015260a081209250505090565b61060f82826108dc565b5050565b60006387a211a2600c52816000526020600c20549050919050565b60006338377508600c52816000526020600c20549050919050565b60606040518060400160405280600481526020017f4d4f434b00000000000000000000000000000000000000000000000000000000815250905090565b6000610693338484610973565b6387a211a2600c52336000526020600c208054808411156106bc5763f4d678b86000526004601cfd5b8381038255846000526020600c2084815401815584602052600c5160601c337fddf252ad1be2c89b69c2b068fc378daa952ba7f163c4a11628f55a4df523b3ef602080a350505061070e338484610978565b6001905092915050565b600061072261097d565b90506000801b810361074057610736610395565b8051906020012090505b8442111561075657631a15a3cc6000526004601cfd5b6040518860601b60601c98508760601b60601c975065383775081901600e52886000526020600c2080547f8b73c3c69bb8fe3d512ecc4cf759cc79239f7b179b0ffacaa9a75d522b39400f83528360208401527fc89efdaa54c0f20c7adf612882df0950f5a951637e0307cdcb4c672f298b8bc6604084015246606084015230608084015260a08320602e527f6e71edae12b1b97f4d1f60370fef10105fa2faae0126114a169c64845d6126c983528a60208401528960408401528860608401528060808401528760a084015260c08320604e526042602c206000528660ff1660205285604052846060526020806080600060015afa8b3d51146108625763ddafbaef6000526004601cfd5b80820183558a637f5e9f2060a01b17604052896034602c20558a8c7f8c5be1e5ebec7d5bd14f71427d1e84f3dd0314c0f7b2291e5b200ac8c7c3b925602060608801a3836040526000606052505050505050505050505050565b600081602052637f5e9f20600c52826000526034600c2054905092915050565b6108e860008383610973565b6805345cdf77eb68f44c548181018181101561090c5763e5cfe9576000526004601cfd5b806805345cdf77eb68f44c556387a211a2600c52836000526020600c2083815401815583602052600c5160601c60007fddf252ad1be2c89b69c2b068fc378daa952ba7f163c4a11628f55a4df523b3ef602080a350505061096f60008383610978565b5050565b505050565b505050565b600090565b600081519050919050565b600082825260208201905092915050565b60005b838110156109bc5780820151818401526020810190506109a1565b60008484015250505050565b6000601f19601f8301169050919050565b60006109e482610982565b6109ee818561098d565b93506109fe81856020860161099e565b610a07816109c8565b840191505092915050565b60006020820190508181036000830152610a2c81846109d9565b905092915050565b600080fd5b600073ffffffffffffffffffffffffffffffffffffffff82169050919050565b6000610a6482610a39565b9050919050565b610a7481610a59565b8114610a7f57600080fd5b50565b600081359050610a9181610a6b565b92915050565b6000819050919050565b610aaa81610a97565b8114610ab557600080fd5b50565b600081359050610ac781610aa1565b92915050565b60008060408385031215610ae457610ae3610a34565b5b6000610af285828601610a82565b9250506020610b0385828601610ab8565b9150509250929050565b60008115159050919050565b610b2281610b0d565b82525050565b6000602082019050610b3d6000830184610b19565b92915050565b610b4c81610a97565b82525050565b6000602082019050610b676000830184610b43565b92915050565b600080600060608486031215610b8657610b85610a34565b5b6000610b9486828701610a82565b9350506020610ba586828701610a82565b9250506040610bb686828701610ab8565b9150509250925092565b600060ff82169050919050565b610bd681610bc0565b82525050565b6000602082019050610bf16000830184610bcd565b92915050565b6000819050919050565b610c0a81610bf7565b82525050565b6000602082019050610c256000830184610c01565b92915050565b600060208284031215610c4157610c40610a34565b5b6000610c4f84828501610a82565b91505092915050565b610c6181610bc0565b8114610c6c57600080fd5b50565b600081359050610c7e81610c58565b92915050565b610c8d81610bf7565b8114610c9857600080fd5b50565b600081359050610caa81610c84565b92915050565b600080600080600080600060e0888a031215610ccf57610cce610a34565b5b6000610cdd8a828b01610a82565b9750506020610cee8a828b01610a82565b9650506040610cff8a828b01610ab8565b9550506060610d108a828b01610ab8565b9450506080610d218a828b01610c6f565b93505060a0610d328a828b01610c9b565b92505060c0610d438a828b01610c9b565b91505092959891949750929550565b60008060408385031215610d6957610d68610a34565b5b6000610d7785828601610a82565b9250506020610d8885828601610a82565b9150509250929050565b7f4e487b7100000000000000000000000000000000000000000000000000000000600052601260045260246000fd5b6000610dcc82610a97565b9150610dd783610a97565b925082610de757610de6610d92565b5b828204905092915050565b7f4d6f636b45524332303a2067696d6d65206d6f7265206d6f6e65792100000000600082015250565b6000610e28601c8361098d565b9150610e3382610df2565b602082019050919050565b60006020820190508181036000830152610e5781610e1b565b905091905056fea2646970667358221220be3b1f8a7198e0b7ffb367f698fcf0019ed9c9952d50a6b8edf0a08a569e2afb64736f6c63430008180033",
  "linkReferences": {},
  "deployedLinkReferences": {}
}