{
  "_format": "hh-sol-artifact-1",
  "contractName": "MockERC1155",
  "sourceName": "contracts/shared/Mocks.sol",
  "abi": [
    {
      "inputs": [],
      "name": "AccountBalanceOverflow",
      "type": "error"
    },
    {
      "inputs": [],
      "name": "ArrayLengthsMismatch",
      "type": "error"
    },
    {
      "inputs": [],
      "name": "InsufficientBalance",
      "type": "error"
    },
    {
      "inputs": [],
      "name": "NotOwnerNorApproved",
      "type": "error"
    },
    {
      "inputs": [],
      "name": "TransferToNonERC1155ReceiverImplementer",
      "type": "error"
    },
    {
      "inputs": [],
      "name": "TransferToZeroAddress",
      "type": "error"
    },
    {
      "anonymous": false,
      "inputs": [
        {
          "indexed": true,
          "internalType": "address",
          "name": "owner",
          "type": "address"
        },
        {
          "indexed": true,
          "internalType": "address",
          "name": "operator",
          "type": "address"
        },
        {
          "indexed": false,
          "internalType": "bool",
          "name": "isApproved",
          "type": "bool"
        }
      ],
      "name": "ApprovalForAll",
      "type": "event"
    },
    {
      "anonymous": false,
      "inputs": [
        {
          "indexed": true,
          "internalType": "address",
          "name": "operator",
          "type": "address"
        },
        {
          "indexed": true,
          "internalType": "address",
          "name": "from",
          "type": "address"
        },
        {
          "indexed": true,
          "internalType": "address",
          "name": "to",
          "type": "address"
        },
        {
          "indexed": false,
          "internalType": "uint256[]",
          "name": "ids",
          "type": "uint256[]"
        },
        {
          "indexed": false,
          "internalType": "uint256[]",
          "name": "amounts",
          "type": "uint256[]"
        }
      ],
      "name": "TransferBatch",
      "type": "event"
    },
    {
      "anonymous": false,
      "inputs": [
        {
          "indexed": true,
          "internalType": "address",
          "name": "operator",
          "type": "address"
        },
        {
          "indexed": true,
          "internalType": "address",
          "name": "from",
          "type": "address"
        },
        {
          "indexed": true,
          "internalType": "address",
          "name": "to",
          "type": "address"
        },
        {
          "indexed": false,
          "internalType": "uint256",
          "name": "id",
          "type": "uint256"
        },
        {
          "indexed": false,
          "internalType": "uint256",
          "name": "amount",
          "type": "uint256"
        }
      ],
      "name": "TransferSingle",
      "type": "event"
    },
    {
      "anonymous": false,
      "inputs": [
        {
          "indexed": false,
          "internalType": "string",
          "name": "value",
          "type": "string"
        },
        {
          "indexed": true,
          "internalType": "uint256",
          "name": "id",
          "type": "uint256"
        }
      ],
      "name": "URI",
      "type": "event"
    },
    {
      "inputs": [
        {
          "internalType": "address",
          "name": "owner",
          "type": "address"
        },
        {
          "internalType": "uint256",
          "name": "id",
          "type": "uint256"
        }
      ],
      "name": "balanceOf",
      "outputs": [
        {
          "internalType": "uint256",
          "name": "result",
          "type": "uint256"
        }
      ],
      "stateMutability": "view",
      "type": "function"
    },
    {
      "inputs": [
        {
          "internalType": "address[]",
          "name": "owners",
          "type": "address[]"
        },
        {
          "internalType": "uint256[]",
          "name": "ids",
          "type": "uint256[]"
        }
      ],
      "name": "balanceOfBatch",
      "outputs": [
        {
          "internalType": "uint256[]",
          "name": "balances",
          "type": "uint256[]"
        }
      ],
      "stateMutability": "view",
      "type": "function"
    },
    {
      "inputs": [
        {
          "internalType": "address",
          "name": "from",
          "type": "address"
        },
        {
          "internalType": "uint256",
          "name": "id",
          "type": "uint256"
        },
        {
          "internalType": "uint256",
          "name": "amount",
          "type": "uint256"
        }
      ],
      "name": "burn",
      "outputs": [],
      "stateMutability": "nonpayable",
      "type": "function"
    },
    {
      "inputs": [
        {
          "internalType": "address",
          "name": "owner",
          "type": "address"
        },
        {
          "internalType": "address",
          "name": "operator",
          "type": "address"
        }
      ],
      "name": "isApprovedForAll",
      "outputs": [
        {
          "internalType": "bool",
          "name": "result",
          "type": "bool"
        }
      ],
      "stateMutability": "view",
      "type": "function"
    },
    {
      "inputs": [
        {
          "internalType": "address",
          "name": "to",
          "type": "address"
        },
        {
          "internalType": "uint256",
          "name": "id",
          "type": "uint256"
        },
        {
          "internalType": "uint256",
          "name": "amount",
          "type": "uint256"
        }
      ],
      "name": "mint",
      "outputs": [],
      "stateMutability": "nonpayable",
      "type": "function"
    },
    {
      "inputs": [
        {
          "internalType": "address",
          "name": "from",
          "type": "address"
        },
        {
          "internalType": "address",
          "name": "to",
          "type": "address"
        },
        {
          "internalType": "uint256[]",
          "name": "ids",
          "type": "uint256[]"
        },
        {
          "internalType": "uint256[]",
          "name": "amounts",
          "type": "uint256[]"
        },
        {
          "internalType": "bytes",
          "name": "data",
          "type": "bytes"
        }
      ],
      "name": "safeBatchTransferFrom",
      "outputs": [],
      "stateMutability": "nonpayable",
      "type": "function"
    },
    {
      "inputs": [
        {
          "internalType": "address",
          "name": "from",
          "type": "address"
        },
        {
          "internalType": "address",
          "name": "to",
          "type": "address"
        },
        {
          "internalType": "uint256",
          "name": "id",
          "type": "uint256"
        },
        {
          "internalType": "uint256",
          "name": "amount",
          "type": "uint256"
        },
        {
          "internalType": "bytes",
          "name": "data",
          "type": "bytes"
        }
      ],
      "name": "safeTransferFrom",
      "outputs": [],
      "stateMutability": "nonpayable",
      "type": "function"
    },
    {
      "inputs": [
        {
          "internalType": "address",
          "name": "operator",
          "type": "address"
        },
        {
          "internalType": "bool",
          "name": "isApproved",
          "type": "bool"
        }
      ],
      "name": "setApprovalForAll",
      "outputs": [],
      "stateMutability": "nonpayable",
      "type": "function"
    },
    {
      "inputs": [
        {
          "internalType": "bytes4",
          "name": "interfaceId",
          "type": "bytes4"
        }
      ],
      "name": "supportsInterface",
      "outputs": [
        {
          "internalType": "bool",
          "name": "result",
          "type": "bool"
        }
      ],
      "stateMutability": "view",
      "type": "function"
    },
    {
      "inputs": [
        {
          "internalType": "uint256",
          "name": "id",
          "type": "uint256"
        }
      ],
      "name": "uri",
      "outputs": [
        {
          "internalType": "string",
          "name": "",
          "type": "string"
        }
      ],
      "stateMutability": "view",
      "type": "function"
    }
  ],
  "bytecode": "0x608060405234801561001057600080fd5b5061159d806100206000396000f3fe608060405234801561001057600080fd5b506004361061009d5760003560e01c80634e1273f4116100665780634e1273f41461016a578063a22cb4651461019a578063e985e9c5146101b6578063f242432a146101e6578063f5298aca146102025761009d565b8062fdd58e146100a257806301ffc9a7146100d25780630e89341c14610102578063156e29f6146101325780632eb2c2d61461014e575b600080fd5b6100bc60048036038101906100b79190610dd2565b61021e565b6040516100c99190610e21565b60405180910390f35b6100ec60048036038101906100e79190610e94565b610242565b6040516100f99190610edc565b60405180910390f35b61011c60048036038101906101179190610ef7565b610267565b6040516101299190610fb4565b60405180910390f35b61014c60048036038101906101479190610fd6565b610298565b005b610168600480360381019061016391906110e4565b6102b8565b005b610184600480360381019061017f9190611216565b6105ba565b6040516101919190611355565b60405180910390f35b6101b460048036038101906101af91906113a3565b61062a565b005b6101d060048036038101906101cb91906113e3565b610680565b6040516101dd9190610edc565b60405180910390f35b61020060048036038101906101fb9190611423565b6106a4565b005b61021c60048036038101906102179190610fd6565b6108ed565b005b6000679a31110384e0b0c96020528260145281600052604060002054905092915050565b60008160e01c630e89341c811463d9b67a2682146301ffc9a783141717915050919050565b6060610272826108fd565b6040516020016102829190611545565b6040516020818303038152906040529050919050565b6102b38383836040518060200160405280600081525061094e565b505050565b6102c0610a4c565b15610399576103988888888880806020026020016040519081016040528093929190818152602001838360200280828437600081840152601f19601f82011690508083019250505050505050878780806020026020016040519081016040528093929190818152602001838360200280828437600081840152601f19601f8201169050808301925050505050505086868080601f016020809104026020016040519081016040528093929190818152602001838380828437600081840152601f19601f82011690508083019250505050505050610a51565b5b8285146103ae57633b800a466000526004601cfd5b8760601b679a31110384e0b0c9178760601b679a31110384e0b0c917816020528160601c99508060601c9850886103ed5763ea553b346000526004601cfd5b89331461041157336000526034600c205461041057634b6e7f186000526004601cfd5b5b8660051b5b8015610485576020810390508087013583602052818a0135600052604060002080548083111561044e5763f4d678b86000526004601cfd5b82810382555050826020526040600020805482810181811015610479576301336cea6000526004601cfd5b80835550505050610416565b50604051604081528760051b602001604082018160208c0382378160400160208401528160208a03838301378b8d337f4a39dc06d4c0dbc64b70af90fd698a233a518aa5d07e595d983b8c0526c8f7fb60408687010187a450505050506104ea610a58565b15610500576104ff8888888888888888610a5d565b5b863b156105b0578660005260405163bc197c81815233602082015288604082015260a060608201528560051b60200160c082018160208a0382378160a00180608085015282602089038484013782810160a08501528460200160208703848501840137828301850160c40160208582601c8801600080515af161058d573d1561058c573d6000863e3d85fd5b5b63bc197c8160e01b8551146105aa57639c05499b6000526004601cfd5b50505050505b5050505050505050565b60608382146105d157633b800a466000526004601cfd5b6040519050818152602081018260051b8181016040525b801561062057602081039050808701358060601b679a31110384e0b0c9176020528186013560005260406000205482840152506105e8565b5050949350505050565b8015159050679a31110384e0b0c96020523360145281600052806034600c2055806000528160601b60601c337f17307eab39ab6107e8899845ad3d59bd9653f200f220920489ca2b5937696c3160206000a35050565b6000679a31110384e0b0c960205282601452816000526034600c2054905092915050565b6106ac610a4c565b156107135761071286866106bf87610b48565b6106c887610b48565b86868080601f016020809104026020016040519081016040528093929190818152602001838380828437600081840152601f19601f82011690508083019250505050505050610a51565b5b8560601b679a31110384e0b0c9178560601b679a31110384e0b0c917816020528160601c97508060601c9650866107525763ea553b346000526004601cfd5b87331461077657336000526034600c205461077557634b6e7f186000526004601cfd5b5b8560005260406000208054808711156107975763f4d678b86000526004601cfd5b868103825550508060205260406000208054868101818110156107c2576301336cea6000526004601cfd5b808355505050846020528688337fc3d58168c5ae7397731d063d5bbf3d657854427343f4c083240f7aacaa2d0f6260406000a450506107ff610a58565b1561086657610865868661081287610b48565b61081b87610b48565b86868080601f016020809104026020016040519081016040528093929190818152602001838380828437600081840152601f19601f82011690508083019250505050505050610b65565b5b843b156108e55760405163f23a6e61815233602082015286604082015284606082015283608082015260a080820152816020016020840360c08301376020818360c401601c840160008a5af16108c6573d156108c5573d6000823e3d81fd5b5b63f23a6e6160e01b8151146108e357639c05499b6000526004601cfd5b505b505050505050565b6108f8838383610b6c565b505050565b60606080604051019050602081016040526000815280600019835b600115610939578184019350600a81066030018453600a8104905080610918575b50828203602084039350808452505050919050565b610956610a4c565b1561097a5761097960008561096a86610b48565b61097386610b48565b85610a51565b5b8360601b806109915763ea553b346000526004601cfd5b679a31110384e0b0c9602052846014528360005260406000208054848101818110156109c5576301336cea6000526004601cfd5b808355505050826020528060601c6000337fc3d58168c5ae7397731d063d5bbf3d657854427343f4c083240f7aacaa2d0f6260406000a450610a05610a58565b15610a2957610a28600085610a1986610b48565b610a2286610b48565b85610b65565b5b610a3284610b7e565b15610a4657610a45600085858585610b89565b5b50505050565b600090565b5050505050565b600090565b610a65610a58565b15610b3e57610b3d8888888880806020026020016040519081016040528093929190818152602001838360200280828437600081840152601f19601f82011690508083019250505050505050878780806020026020016040519081016040528093929190818152602001838360200280828437600081840152601f19601f8201169050808301925050505050505086868080601f016020809104026020016040519081016040528093929190818152602001838380828437600081840152601f19601f82011690508083019250505050505050610b65565b5b5050505050505050565b606060405190506040810160405260018152816020820152919050565b5050505050565b610b796000848484610c1f565b505050565b6000813b9050919050565b60405163f23a6e6181523360208201528560601b60601c604082015283606082015282608082015260a08082015281518060c08301528015610bd5578060e08301826020860160045afa505b6020828260c401601c850160008a5af1610bf9573d15610bf8573d6000833e3d82fd5b5b63f23a6e6160e01b825114610c1657639c05499b6000526004601cfd5b50505050505050565b610c27610a4c565b15610c5a57610c59836000610c3b85610b48565b610c4485610b48565b60405180602001604052806000815250610a51565b5b8260601b80679a31110384e0b0c917602052808560601b148560601b1517610c9957846000526034600c2054610c9857634b6e7f186000526004601cfd5b5b826000526040600020805480841115610cba5763f4d678b86000526004601cfd5b838103825550508160205260008160601c337fc3d58168c5ae7397731d063d5bbf3d657854427343f4c083240f7aacaa2d0f6260406000a450610cfb610a58565b15610d2e57610d2d836000610d0f85610b48565b610d1885610b48565b60405180602001604052806000815250610b65565b5b50505050565b600080fd5b600080fd5b600073ffffffffffffffffffffffffffffffffffffffff82169050919050565b6000610d6982610d3e565b9050919050565b610d7981610d5e565b8114610d8457600080fd5b50565b600081359050610d9681610d70565b92915050565b6000819050919050565b610daf81610d9c565b8114610dba57600080fd5b50565b600081359050610dcc81610da6565b92915050565b60008060408385031215610de957610de8610d34565b5b6000610df785828601610d87565b9250506020610e0885828601610dbd565b9150509250929050565b610e1b81610d9c565b82525050565b6000602082019050610e366000830184610e12565b92915050565b60007fffffffff0000000000000000000000000000000000000000000000000000000082169050919050565b610e7181610e3c565b8114610e7c57600080fd5b50565b600081359050610e8e81610e68565b92915050565b600060208284031215610eaa57610ea9610d34565b5b6000610eb884828501610e7f565b91505092915050565b60008115159050919050565b610ed681610ec1565b82525050565b6000602082019050610ef16000830184610ecd565b92915050565b600060208284031215610f0d57610f0c610d34565b5b6000610f1b84828501610dbd565b91505092915050565b600081519050919050565b600082825260208201905092915050565b60005b83811015610f5e578082015181840152602081019050610f43565b60008484015250505050565b6000601f19601f8301169050919050565b6000610f8682610f24565b610f908185610f2f565b9350610fa0818560208601610f40565b610fa981610f6a565b840191505092915050565b60006020820190508181036000830152610fce8184610f7b565b905092915050565b600080600060608486031215610fef57610fee610d34565b5b6000610ffd86828701610d87565b935050602061100e86828701610dbd565b925050604061101f86828701610dbd565b9150509250925092565b600080fd5b600080fd5b600080fd5b60008083601f84011261104e5761104d611029565b5b8235905067ffffffffffffffff81111561106b5761106a61102e565b5b60208301915083602082028301111561108757611086611033565b5b9250929050565b60008083601f8401126110a4576110a3611029565b5b8235905067ffffffffffffffff8111156110c1576110c061102e565b5b6020830191508360018202830111156110dd576110dc611033565b5b9250929050565b60008060008060008060008060a0898b03121561110457611103610d34565b5b60006111128b828c01610d87565b98505060206111238b828c01610d87565b975050604089013567ffffffffffffffff81111561114457611143610d39565b5b6111508b828c01611038565b9650965050606089013567ffffffffffffffff81111561117357611172610d39565b5b61117f8b828c01611038565b9450945050608089013567ffffffffffffffff8111156111a2576111a1610d39565b5b6111ae8b828c0161108e565b92509250509295985092959890939650565b60008083601f8401126111d6576111d5611029565b5b8235905067ffffffffffffffff8111156111f3576111f261102e565b5b60208301915083602082028301111561120f5761120e611033565b5b9250929050565b600080600080604085870312156112305761122f610d34565b5b600085013567ffffffffffffffff81111561124e5761124d610d39565b5b61125a878288016111c0565b9450945050602085013567ffffffffffffffff81111561127d5761127c610d39565b5b61128987828801611038565b925092505092959194509250565b600081519050919050565b600082825260208201905092915050565b6000819050602082019050919050565b6112cc81610d9c565b82525050565b60006112de83836112c3565b60208301905092915050565b6000602082019050919050565b600061130282611297565b61130c81856112a2565b9350611317836112b3565b8060005b8381101561134857815161132f88826112d2565b975061133a836112ea565b92505060018101905061131b565b5085935050505092915050565b6000602082019050818103600083015261136f81846112f7565b905092915050565b61138081610ec1565b811461138b57600080fd5b50565b60008135905061139d81611377565b92915050565b600080604083850312156113ba576113b9610d34565b5b60006113c885828601610d87565b92505060206113d98582860161138e565b9150509250929050565b600080604083850312156113fa576113f9610d34565b5b600061140885828601610d87565b925050602061141985828601610d87565b9150509250929050565b60008060008060008060a087890312156114405761143f610d34565b5b600061144e89828a01610d87565b965050602061145f89828a01610d87565b955050604061147089828a01610dbd565b945050606061148189828a01610dbd565b935050608087013567ffffffffffffffff8111156114a2576114a1610d39565b5b6114ae89828a0161108e565b92509250509295509295509295565b600081905092915050565b7f68747470733a2f2f6578616d706c652e636f6d2f746f6b656e2f000000000000600082015250565b60006114fe601a836114bd565b9150611509826114c8565b601a82019050919050565b600061151f82610f24565b61152981856114bd565b9350611539818560208601610f40565b80840191505092915050565b6000611550826114f1565b915061155c8284611514565b91508190509291505056fea26469706673582212206bfd4c1b5e48ec7b2acd89331173d6c8156a862872f8290643ef5ed5f133a4d264736f6c63430008180033",
  "linkReferences": {},
  "deployedLinkReferences": {}
}