{
  "_format": "hh-sol-artifact-1",
  "contractName": "BoostRegistry",
  "sourceName": "contracts/BoostRegistry.sol",
  "abi": [
    {
      "inputs": [
        {
          "internalType": "enum BoostRegistry.RegistryType",
          "name": "registryType",
          "type": "uint8"
        },
        {
          "internalType": "bytes32",
          "name": "identifier",
          "type": "bytes32"
        }
      ],
      "name": "AlreadyRegistered",
      "type": "error"
    },
    {
      "inputs": [
        {
          "internalType": "address",
          "name": "implementation",
          "type": "address"
        }
      ],
      "name": "NotCloneable",
      "type": "error"
    },
    {
      "inputs": [
        {
          "internalType": "bytes32",
          "name": "identifier",
          "type": "bytes32"
        }
      ],
      "name": "NotRegistered",
      "type": "error"
    },
    {
      "inputs": [],
      "name": "Reentrancy",
      "type": "error"
    },
    {
      "anonymous": false,
      "inputs": [
        {
          "indexed": true,
          "internalType": "enum BoostRegistry.RegistryType",
          "name": "registryType",
          "type": "uint8"
        },
        {
          "indexed": true,
          "internalType": "bytes32",
          "name": "identifier",
          "type": "bytes32"
        },
        {
          "indexed": false,
          "internalType": "address",
          "name": "baseImplementation",
          "type": "address"
        },
        {
          "indexed": false,
          "internalType": "contract Cloneable",
          "name": "deployedInstance",
          "type": "address"
        }
      ],
      "name": "Deployed",
      "type": "event"
    },
    {
      "anonymous": false,
      "inputs": [
        {
          "indexed": true,
          "internalType": "enum BoostRegistry.RegistryType",
          "name": "registryType",
          "type": "uint8"
        },
        {
          "indexed": true,
          "internalType": "bytes32",
          "name": "identifier",
          "type": "bytes32"
        },
        {
          "indexed": false,
          "internalType": "address",
          "name": "implementation",
          "type": "address"
        }
      ],
      "name": "Registered",
      "type": "event"
    },
    {
      "inputs": [
        {
          "internalType": "enum BoostRegistry.RegistryType",
          "name": "type_",
          "type": "uint8"
        },
        {
          "internalType": "address",
          "name": "base_",
          "type": "address"
        },
        {
          "internalType": "string",
          "name": "name_",
          "type": "string"
        },
        {
          "internalType": "bytes",
          "name": "data_",
          "type": "bytes"
        }
      ],
      "name": "deployClone",
      "outputs": [
        {
          "internalType": "contract Cloneable",
          "name": "instance",
          "type": "address"
        }
      ],
      "stateMutability": "nonpayable",
      "type": "function"
    },
    {
      "inputs": [
        {
          "internalType": "bytes32",
          "name": "identifier_",
          "type": "bytes32"
        }
      ],
      "name": "getBaseImplementation",
      "outputs": [
        {
          "internalType": "contract Cloneable",
          "name": "implementation",
          "type": "address"
        }
      ],
      "stateMutability": "view",
      "type": "function"
    },
    {
      "inputs": [
        {
          "internalType": "bytes32",
          "name": "identifier_",
          "type": "bytes32"
        }
      ],
      "name": "getClone",
      "outputs": [
        {
          "components": [
            {
              "internalType": "enum BoostRegistry.RegistryType",
              "name": "baseType",
              "type": "uint8"
            },
            {
              "internalType": "contract Cloneable",
              "name": "instance",
              "type": "address"
            },
            {
              "internalType": "address",
              "name": "deployer",
              "type": "address"
            },
            {
              "internalType": "string",
              "name": "name",
              "type": "string"
            }
          ],
          "internalType": "struct BoostRegistry.Clone",
          "name": "clone",
          "type": "tuple"
        }
      ],
      "stateMutability": "view",
      "type": "function"
    },
    {
      "inputs": [
        {
          "internalType": "enum BoostRegistry.RegistryType",
          "name": "type_",
          "type": "uint8"
        },
        {
          "internalType": "address",
          "name": "base_",
          "type": "address"
        },
        {
          "internalType": "address",
          "name": "deployer_",
          "type": "address"
        },
        {
          "internalType": "string",
          "name": "name_",
          "type": "string"
        }
      ],
      "name": "getCloneIdentifier",
      "outputs": [
        {
          "internalType": "bytes32",
          "name": "identifier",
          "type": "bytes32"
        }
      ],
      "stateMutability": "pure",
      "type": "function"
    },
    {
      "inputs": [
        {
          "internalType": "address",
          "name": "deployer_",
          "type": "address"
        }
      ],
      "name": "getClones",
      "outputs": [
        {
          "internalType": "bytes32[]",
          "name": "",
          "type": "bytes32[]"
        }
      ],
      "stateMutability": "view",
      "type": "function"
    },
    {
      "inputs": [
        {
          "internalType": "enum BoostRegistry.RegistryType",
          "name": "type_",
          "type": "uint8"
        },
        {
          "internalType": "string",
          "name": "name_",
          "type": "string"
        }
      ],
      "name": "getIdentifier",
      "outputs": [
        {
          "internalType": "bytes32",
          "name": "identifier",
          "type": "bytes32"
        }
      ],
      "stateMutability": "pure",
      "type": "function"
    },
    {
      "inputs": [
        {
          "internalType": "enum BoostRegistry.RegistryType",
          "name": "type_",
          "type": "uint8"
        },
        {
          "internalType": "string",
          "name": "name_",
          "type": "string"
        },
        {
          "internalType": "address",
          "name": "implementation_",
          "type": "address"
        }
      ],
      "name": "register",
      "outputs": [],
      "stateMutability": "nonpayable",
      "type": "function"
    },
    {
      "inputs": [
        {
          "internalType": "bytes4",
          "name": "interfaceId",
          "type": "bytes4"
        }
      ],
      "name": "supportsInterface",
      "outputs": [
        {
          "internalType": "bool",
          "name": "",
          "type": "bool"
        }
      ],
      "stateMutability": "view",
      "type": "function"
    }
  ],
  "bytecode": "0x608060405234801561001057600080fd5b50611c2e806100206000396000f3fe608060405234801561001057600080fd5b50600436106100885760003560e01c8063acc83fc81161005b578063acc83fc81461014d578063d12dd4811461017d578063f166879214610199578063fd97064b146101c957610088565b806301ffc9a71461008d5780633aaf1626146100bd578063792aa01c146100ed57806383f388591461011d575b600080fd5b6100a760048036038101906100a29190610e5a565b6101f9565b6040516100b49190610ea2565b60405180910390f35b6100d760048036038101906100d29190610ef3565b610263565b6040516100e4919061112a565b60405180910390f35b61010760048036038101906101029190611178565b61047e565b6040516101149190611263565b60405180910390f35b61013760048036038101906101329190610ef3565b610515565b6040516101449190611294565b60405180910390f35b61016760048036038101906101629190611339565b6105c2565b60405161017491906113d0565b60405180910390f35b610197600480360381019061019291906113eb565b610605565b005b6101b360048036038101906101ae919061145f565b610839565b6040516101c091906113d0565b60405180910390f35b6101e360048036038101906101de9190611515565b610876565b6040516101f09190611294565b60405180910390f35b60007f01ffc9a7000000000000000000000000000000000000000000000000000000007bffffffffffffffffffffffffffffffffffffffffffffffffffffffff1916827bffffffffffffffffffffffffffffffffffffffffffffffffffffffff1916149050919050565b61026b610d92565b600160008381526020019081526020016000206040518060800160405290816000820160009054906101000a900460ff1660048111156102ae576102ad610f20565b5b60048111156102c0576102bf610f20565b5b81526020016000820160019054906101000a900473ffffffffffffffffffffffffffffffffffffffff1673ffffffffffffffffffffffffffffffffffffffff1673ffffffffffffffffffffffffffffffffffffffff1681526020016001820160009054906101000a900473ffffffffffffffffffffffffffffffffffffffff1673ffffffffffffffffffffffffffffffffffffffff1673ffffffffffffffffffffffffffffffffffffffff168152602001600282018054610380906115eb565b80601f01602080910402602001604051908101604052809291908181526020018280546103ac906115eb565b80156103f95780601f106103ce576101008083540402835291602001916103f9565b820191906000526020600020905b8154815290600101906020018083116103dc57829003601f168201915b5050505050815250509050600073ffffffffffffffffffffffffffffffffffffffff16816020015173ffffffffffffffffffffffffffffffffffffffff160361047957816040517f8cc00d1600000000000000000000000000000000000000000000000000000000815260040161047091906113d0565b60405180910390fd5b919050565b6060600260008373ffffffffffffffffffffffffffffffffffffffff1673ffffffffffffffffffffffffffffffffffffffff16815260200190815260200160002080548060200260200160405190810160405280929190818152602001828054801561050957602002820191906000526020600020905b8154815260200190600101908083116104f5575b50505050509050919050565b600080600083815260200190815260200160002060009054906101000a900473ffffffffffffffffffffffffffffffffffffffff169050600073ffffffffffffffffffffffffffffffffffffffff168173ffffffffffffffffffffffffffffffffffffffff16036105bd57816040517f8cc00d160000000000000000000000000000000000000000000000000000000081526004016105b491906113d0565b60405180910390fd5b919050565b60006105fa86868686866040516020016105df94939291906116a3565b60405160208183030381529060405280519060200120610c53565b905095945050505050565b808073ffffffffffffffffffffffffffffffffffffffff166301ffc9a77f42606236000000000000000000000000000000000000000000000000000000006040518263ffffffff1660e01b815260040161065f91906116ed565b602060405180830381865afa15801561067c573d6000803e3d6000fd5b505050506040513d601f19601f820116820180604052508101906106a09190611734565b6106e157806040517fd3dd30120000000000000000000000000000000000000000000000000000000081526004016106d89190611770565b60405180910390fd5b60006106ee868686610839565b9050600073ffffffffffffffffffffffffffffffffffffffff1660008083815260200190815260200160002060009054906101000a900473ffffffffffffffffffffffffffffffffffffffff1673ffffffffffffffffffffffffffffffffffffffff16146107955785816040517f96b5684c00000000000000000000000000000000000000000000000000000000815260040161078c92919061179a565b60405180910390fd5b8260008083815260200190815260200160002060006101000a81548173ffffffffffffffffffffffffffffffffffffffff021916908373ffffffffffffffffffffffffffffffffffffffff160217905550808660048111156107fa576107f9610f20565b5b7f660d31df25c96b8a337fcf12a56b7363e5a997639db853d5dbaec7c01f31bd80856040516108299190611770565b60405180910390a3505050505050565b600061086d8484846040516020016108529291906117c3565b60405160208183030381529060405280519060200120610c53565b90509392505050565b60003068929eee149b4bd2126854036108975763ab143c066000526004601cfd5b3068929eee149b4bd212685561094087878787336040516020016108bf959493929190611812565b6040516020818303038152906040528051906020012084848080601f016020809104026020016040519081016040528093929190818152602001838380828437600081840152601f19601f820116905080830192505050505050508873ffffffffffffffffffffffffffffffffffffffff16610c869092919063ffffffff16565b9050600061095188883389896105c2565b9050600073ffffffffffffffffffffffffffffffffffffffff166001600083815260200190815260200160002060000160019054906101000a900473ffffffffffffffffffffffffffffffffffffffff1673ffffffffffffffffffffffffffffffffffffffff16146109fc5787816040517f96b5684c0000000000000000000000000000000000000000000000000000000081526004016109f392919061179a565b60405180910390fd5b600260003373ffffffffffffffffffffffffffffffffffffffff1673ffffffffffffffffffffffffffffffffffffffff1681526020019081526020016000208190806001815401808255809150506001900390600052602060002001600090919091909150556040518060800160405280896004811115610a8057610a7f610f20565b5b81526020018373ffffffffffffffffffffffffffffffffffffffff1681526020013373ffffffffffffffffffffffffffffffffffffffff16815260200187878080601f016020809104026020016040519081016040528093929190818152602001838380828437600081840152601f19601f820116905080830192505050505050508152506001600083815260200190815260200160002060008201518160000160006101000a81548160ff02191690836004811115610b4357610b42610f20565b5b021790555060208201518160000160016101000a81548173ffffffffffffffffffffffffffffffffffffffff021916908373ffffffffffffffffffffffffffffffffffffffff16021790555060408201518160010160006101000a81548173ffffffffffffffffffffffffffffffffffffffff021916908373ffffffffffffffffffffffffffffffffffffffff1602179055506060820151816002019081610beb9190611a39565b5090505080886004811115610c0357610c02610f20565b5b7f2348fcdb9847b17a183e53aa32c0c5c76afdef8fcb14bb51f216c6611701ab1a8985604051610c34929190611b0b565b60405180910390a3503868929eee149b4bd21268559695505050505050565b60008282604051602001610c68929190611b55565b60405160208183030381529060405280519060200120905092915050565b6000610cb1838573ffffffffffffffffffffffffffffffffffffffff16610d2590919063ffffffff16565b90508073ffffffffffffffffffffffffffffffffffffffff1663439fab91836040518263ffffffff1660e01b8152600401610cec9190611bd6565b600060405180830381600087803b158015610d0657600080fd5b505af1158015610d1a573d6000803e3d6000fd5b505050509392505050565b6000610d3360008484610d3b565b905092915050565b60006c5af43d3d93803e602a57fd5bf36021528260145273602c3d8160093d39f33d3d3d3d363d3d37363d73600052816035600c86f5905080610d865763301164256000526004601cfd5b60006021529392505050565b604051806080016040528060006004811115610db157610db0610f20565b5b8152602001600073ffffffffffffffffffffffffffffffffffffffff168152602001600073ffffffffffffffffffffffffffffffffffffffff168152602001606081525090565b600080fd5b600080fd5b60007fffffffff0000000000000000000000000000000000000000000000000000000082169050919050565b610e3781610e02565b8114610e4257600080fd5b50565b600081359050610e5481610e2e565b92915050565b600060208284031215610e7057610e6f610df8565b5b6000610e7e84828501610e45565b91505092915050565b60008115159050919050565b610e9c81610e87565b82525050565b6000602082019050610eb76000830184610e93565b92915050565b6000819050919050565b610ed081610ebd565b8114610edb57600080fd5b50565b600081359050610eed81610ec7565b92915050565b600060208284031215610f0957610f08610df8565b5b6000610f1784828501610ede565b91505092915050565b7f4e487b7100000000000000000000000000000000000000000000000000000000600052602160045260246000fd5b60058110610f6057610f5f610f20565b5b50565b6000819050610f7182610f4f565b919050565b6000610f8182610f63565b9050919050565b610f9181610f76565b82525050565b600073ffffffffffffffffffffffffffffffffffffffff82169050919050565b6000819050919050565b6000610fdc610fd7610fd284610f97565b610fb7565b610f97565b9050919050565b6000610fee82610fc1565b9050919050565b600061100082610fe3565b9050919050565b61101081610ff5565b82525050565b600061102182610f97565b9050919050565b61103181611016565b82525050565b600081519050919050565b600082825260208201905092915050565b60005b83811015611071578082015181840152602081019050611056565b60008484015250505050565b6000601f19601f8301169050919050565b600061109982611037565b6110a38185611042565b93506110b3818560208601611053565b6110bc8161107d565b840191505092915050565b60006080830160008301516110df6000860182610f88565b5060208301516110f26020860182611007565b5060408301516111056040860182611028565b506060830151848203606086015261111d828261108e565b9150508091505092915050565b6000602082019050818103600083015261114481846110c7565b905092915050565b61115581611016565b811461116057600080fd5b50565b6000813590506111728161114c565b92915050565b60006020828403121561118e5761118d610df8565b5b600061119c84828501611163565b91505092915050565b600081519050919050565b600082825260208201905092915050565b6000819050602082019050919050565b6111da81610ebd565b82525050565b60006111ec83836111d1565b60208301905092915050565b6000602082019050919050565b6000611210826111a5565b61121a81856111b0565b9350611225836111c1565b8060005b8381101561125657815161123d88826111e0565b9750611248836111f8565b925050600181019050611229565b5085935050505092915050565b6000602082019050818103600083015261127d8184611205565b905092915050565b61128e81610ff5565b82525050565b60006020820190506112a96000830184611285565b92915050565b600581106112bc57600080fd5b50565b6000813590506112ce816112af565b92915050565b600080fd5b600080fd5b600080fd5b60008083601f8401126112f9576112f86112d4565b5b8235905067ffffffffffffffff811115611316576113156112d9565b5b602083019150836001820283011115611332576113316112de565b5b9250929050565b60008060008060006080868803121561135557611354610df8565b5b6000611363888289016112bf565b955050602061137488828901611163565b945050604061138588828901611163565b935050606086013567ffffffffffffffff8111156113a6576113a5610dfd565b5b6113b2888289016112e3565b92509250509295509295909350565b6113ca81610ebd565b82525050565b60006020820190506113e560008301846113c1565b92915050565b6000806000806060858703121561140557611404610df8565b5b6000611413878288016112bf565b945050602085013567ffffffffffffffff81111561143457611433610dfd565b5b611440878288016112e3565b9350935050604061145387828801611163565b91505092959194509250565b60008060006040848603121561147857611477610df8565b5b6000611486868287016112bf565b935050602084013567ffffffffffffffff8111156114a7576114a6610dfd565b5b6114b3868287016112e3565b92509250509250925092565b60008083601f8401126114d5576114d46112d4565b5b8235905067ffffffffffffffff8111156114f2576114f16112d9565b5b60208301915083600182028301111561150e5761150d6112de565b5b9250929050565b6000806000806000806080878903121561153257611531610df8565b5b600061154089828a016112bf565b965050602061155189828a01611163565b955050604087013567ffffffffffffffff81111561157257611571610dfd565b5b61157e89828a016112e3565b9450945050606087013567ffffffffffffffff8111156115a1576115a0610dfd565b5b6115ad89828a016114bf565b92509250509295509295509295565b7f4e487b7100000000000000000000000000000000000000000000000000000000600052602260045260246000fd5b6000600282049050600182168061160357607f821691505b602082108103611616576116156115bc565b5b50919050565b60008160601b9050919050565b60006116348261161c565b9050919050565b600061164682611629565b9050919050565b61165e61165982611016565b61163b565b82525050565b600081905092915050565b82818337600083830152505050565b600061168a8385611664565b935061169783858461166f565b82840190509392505050565b60006116af828761164d565b6014820191506116bf828661164d565b6014820191506116d082848661167e565b915081905095945050505050565b6116e781610e02565b82525050565b600060208201905061170260008301846116de565b92915050565b61171181610e87565b811461171c57600080fd5b50565b60008151905061172e81611708565b92915050565b60006020828403121561174a57611749610df8565b5b60006117588482850161171f565b91505092915050565b61176a81611016565b82525050565b60006020820190506117856000830184611761565b92915050565b61179481610f76565b82525050565b60006040820190506117af600083018561178b565b6117bc60208301846113c1565b9392505050565b60006117d082848661167e565b91508190509392505050565b60008160f81b9050919050565b60006117f4826117dc565b9050919050565b61180c61180782610f76565b6117e9565b82525050565b600061181e82886117fb565b60018201915061182e828761164d565b60148201915061183f82858761167e565b915061184b828461164d565b6014820191508190509695505050505050565b7f4e487b7100000000000000000000000000000000000000000000000000000000600052604160045260246000fd5b60008190508160005260206000209050919050565b60006020601f8301049050919050565b600082821b905092915050565b6000600883026118ef7fffffffffffffffffffffffffffffffffffffffffffffffffffffffffffffffff826118b2565b6118f986836118b2565b95508019841693508086168417925050509392505050565b6000819050919050565b600061193661193161192c84611911565b610fb7565b611911565b9050919050565b6000819050919050565b6119508361191b565b61196461195c8261193d565b8484546118bf565b825550505050565b600090565b61197961196c565b611984818484611947565b505050565b5b818110156119a85761199d600082611971565b60018101905061198a565b5050565b601f8211156119ed576119be8161188d565b6119c7846118a2565b810160208510156119d6578190505b6119ea6119e2856118a2565b830182611989565b50505b505050565b600082821c905092915050565b6000611a10600019846008026119f2565b1980831691505092915050565b6000611a2983836119ff565b9150826002028217905092915050565b611a4282611037565b67ffffffffffffffff811115611a5b57611a5a61185e565b5b611a6582546115eb565b611a708282856119ac565b600060209050601f831160018114611aa35760008415611a91578287015190505b611a9b8582611a1d565b865550611b03565b601f198416611ab18661188d565b60005b82811015611ad957848901518255600182019150602085019450602081019050611ab4565b86831015611af65784890151611af2601f8916826119ff565b8355505b6001600288020188555050505b505050505050565b6000604082019050611b206000830185611761565b611b2d6020830184611285565b9392505050565b6000819050919050565b611b4f611b4a82610ebd565b611b34565b82525050565b6000611b6182856117fb565b600182019150611b718284611b3e565b6020820191508190509392505050565b600081519050919050565b600082825260208201905092915050565b6000611ba882611b81565b611bb28185611b8c565b9350611bc2818560208601611053565b611bcb8161107d565b840191505092915050565b60006020820190508181036000830152611bf08184611b9d565b90509291505056fea2646970667358221220baff3f7c49425773109656b14c1c4d961fc4d3d6cbf32f1950b09a777d4daf1e64736f6c63430008180033",
  "linkReferences": {},
  "deployedLinkReferences": {}
}