{
  "_format": "hh-sol-artifact-1",
  "contractName": "SimpleDenyList",
  "sourceName": "contracts/allowlists/SimpleDenyList.sol",
  "abi": [
    {
      "inputs": [],
      "stateMutability": "nonpayable",
      "type": "constructor"
    },
    {
      "inputs": [],
      "name": "AlreadyInitialized",
      "type": "error"
    },
    {
      "inputs": [],
      "name": "CloneAlreadyInitialized",
      "type": "error"
    },
    {
      "inputs": [],
      "name": "InitializerNotImplemented",
      "type": "error"
    },
    {
      "inputs": [],
      "name": "InvalidInitialization",
      "type": "error"
    },
    {
      "inputs": [],
      "name": "InvalidInitializationData",
      "type": "error"
    },
    {
      "inputs": [],
      "name": "LengthMismatch",
      "type": "error"
    },
    {
      "inputs": [],
      "name": "NewOwnerIsZeroAddress",
      "type": "error"
    },
    {
      "inputs": [],
      "name": "NoHandoverRequest",
      "type": "error"
    },
    {
      "inputs": [],
      "name": "NotInitializing",
      "type": "error"
    },
    {
      "inputs": [],
      "name": "Unauthorized",
      "type": "error"
    },
    {
      "anonymous": false,
      "inputs": [
        {
          "indexed": false,
          "internalType": "uint64",
          "name": "version",
          "type": "uint64"
        }
      ],
      "name": "Initialized",
      "type": "event"
    },
    {
      "anonymous": false,
      "inputs": [
        {
          "indexed": true,
          "internalType": "address",
          "name": "pendingOwner",
          "type": "address"
        }
      ],
      "name": "OwnershipHandoverCanceled",
      "type": "event"
    },
    {
      "anonymous": false,
      "inputs": [
        {
          "indexed": true,
          "internalType": "address",
          "name": "pendingOwner",
          "type": "address"
        }
      ],
      "name": "OwnershipHandoverRequested",
      "type": "event"
    },
    {
      "anonymous": false,
      "inputs": [
        {
          "indexed": true,
          "internalType": "address",
          "name": "oldOwner",
          "type": "address"
        },
        {
          "indexed": true,
          "internalType": "address",
          "name": "newOwner",
          "type": "address"
        }
      ],
      "name": "OwnershipTransferred",
      "type": "event"
    },
    {
      "inputs": [],
      "name": "cancelOwnershipHandover",
      "outputs": [],
      "stateMutability": "payable",
      "type": "function"
    },
    {
      "inputs": [
        {
          "internalType": "address",
          "name": "pendingOwner",
          "type": "address"
        }
      ],
      "name": "completeOwnershipHandover",
      "outputs": [],
      "stateMutability": "payable",
      "type": "function"
    },
    {
      "inputs": [],
      "name": "getComponentInterface",
      "outputs": [
        {
          "internalType": "bytes4",
          "name": "",
          "type": "bytes4"
        }
      ],
      "stateMutability": "pure",
      "type": "function"
    },
    {
      "inputs": [
        {
          "internalType": "bytes",
          "name": "data_",
          "type": "bytes"
        }
      ],
      "name": "initialize",
      "outputs": [],
      "stateMutability": "nonpayable",
      "type": "function"
    },
    {
      "inputs": [
        {
          "internalType": "address",
          "name": "user_",
          "type": "address"
        },
        {
          "internalType": "bytes",
          "name": "",
          "type": "bytes"
        }
      ],
      "name": "isAllowed",
      "outputs": [
        {
          "internalType": "bool",
          "name": "",
          "type": "bool"
        }
      ],
      "stateMutability": "view",
      "type": "function"
    },
    {
      "inputs": [],
      "name": "owner",
      "outputs": [
        {
          "internalType": "address",
          "name": "result",
          "type": "address"
        }
      ],
      "stateMutability": "view",
      "type": "function"
    },
    {
      "inputs": [
        {
          "internalType": "address",
          "name": "pendingOwner",
          "type": "address"
        }
      ],
      "name": "ownershipHandoverExpiresAt",
      "outputs": [
        {
          "internalType": "uint256",
          "name": "result",
          "type": "uint256"
        }
      ],
      "stateMutability": "view",
      "type": "function"
    },
    {
      "inputs": [],
      "name": "renounceOwnership",
      "outputs": [],
      "stateMutability": "payable",
      "type": "function"
    },
    {
      "inputs": [],
      "name": "requestOwnershipHandover",
      "outputs": [],
      "stateMutability": "payable",
      "type": "function"
    },
    {
      "inputs": [
        {
          "internalType": "address[]",
          "name": "users_",
          "type": "address[]"
        },
        {
          "internalType": "bool[]",
          "name": "denied_",
          "type": "bool[]"
        }
      ],
      "name": "setDenied",
      "outputs": [],
      "stateMutability": "nonpayable",
      "type": "function"
    },
    {
      "inputs": [
        {
          "internalType": "bytes4",
          "name": "interfaceId",
          "type": "bytes4"
        }
      ],
      "name": "supportsInterface",
      "outputs": [
        {
          "internalType": "bool",
          "name": "",
          "type": "bool"
        }
      ],
      "stateMutability": "view",
      "type": "function"
    },
    {
      "inputs": [
        {
          "internalType": "address",
          "name": "newOwner",
          "type": "address"
        }
      ],
      "name": "transferOwnership",
      "outputs": [],
      "stateMutability": "payable",
      "type": "function"
    }
  ],
  "bytecode": "0x608060405234801561000f575f80fd5b5061001f3361003260201b60201c565b61002d61010e60201b60201c565b6101a7565b61004061017a60201b60201c565b156100b8577fffffffffffffffffffffffffffffffffffffffffffffffffffffffff7487392780541561007a57630dc149f05f526004601cfd5b8160601b60601c9150811560ff1b82178155815f7f8be0079c531659141344cd1fd0a4f28419497f9722a3daafe3b4186f6b6457e05f80a35061010b565b8060601b60601c9050807fffffffffffffffffffffffffffffffffffffffffffffffffffffffff7487392755805f7f8be0079c531659141344cd1fd0a4f28419497f9722a3daafe3b4186f6b6457e05f80a35b50565b5f61011d61017e60201b60201c565b9050805460018116156101375763f92ee8a95f526004601cfd5b8160c01c808260011c14610175578060011b8355806020527fc7f505b2f371ae2175ee4913f4499e1f2633a7b5936321eed1cdaeb6115181d2602080a15b505050565b5f90565b5f7fffffffffffffffffffffffffffffffffffffffffffffffffffffffffbf6011325f1b905090565b6110ac806101b45f395ff3fe6080604052600436106100a6575f3560e01c8063715018a611610063578063715018a6146101745780638da5cb5b1461017e578063e3f756de146101a8578063f04e283e146101e4578063f2fde38b14610200578063fee81cf41461021c576100a6565b806301ffc9a7146100aa578063141973b0146100e6578063256929621461010e57806328d6183b14610118578063439fab911461014257806354d1f13d1461016a575b5f80fd5b3480156100b5575f80fd5b506100d060048036038101906100cb9190610a82565b610258565b6040516100dd9190610ac7565b60405180910390f35b3480156100f1575f80fd5b5061010c60048036038101906101079190610b96565b6102d1565b005b6101166103da565b005b348015610123575f80fd5b5061012c61042b565b6040516101399190610c23565b60405180910390f35b34801561014d575f80fd5b5061016860048036038101906101639190610c91565b610452565b005b61017261056f565b005b61017c6105a8565b005b348015610189575f80fd5b506101926105bb565b60405161019f9190610d1b565b60405180910390f35b3480156101b3575f80fd5b506101ce60048036038101906101c99190610d5e565b6105e3565b6040516101db9190610ac7565b60405180910390f35b6101fe60048036038101906101f99190610dbb565b610637565b005b61021a60048036038101906102159190610dbb565b610675565b005b348015610227575f80fd5b50610242600480360381019061023d9190610dbb565b61069e565b60405161024f9190610dfe565b60405180910390f35b5f7f9d585f63000000000000000000000000000000000000000000000000000000007bffffffffffffffffffffffffffffffffffffffffffffffffffffffff1916827bffffffffffffffffffffffffffffffffffffffffffffffffffffffff191614806102ca57506102c9826106b7565b5b9050919050565b6102d9610730565b818190508484905014610318576040517fff633a3800000000000000000000000000000000000000000000000000000000815260040160405180910390fd5b5f5b848490508110156103d35782828281811061033857610337610e17565b5b905060200201602081019061034d9190610e6e565b5f8087878581811061036257610361610e17565b5b90506020020160208101906103779190610dbb565b73ffffffffffffffffffffffffffffffffffffffff1673ffffffffffffffffffffffffffffffffffffffff1681526020019081526020015f205f6101000a81548160ff021916908315150217905550808060010191505061031a565b5050505050565b5f6103e3610767565b67ffffffffffffffff164201905063389a75e1600c52335f52806020600c2055337fdbf36a107da19e49527a7176a1babf963b4b0ff8cde35ee35d6cd8f1f9ac7e1d5f80a250565b5f7f9d585f6300000000000000000000000000000000000000000000000000000000905090565b5f61045b610771565b9050805460038255801561048d5760018160011c14303b106104845763f92ee8a95f526004601cfd5b818160ff1b1b91505b505f80848481019061049f919061101c565b915091506104ac8261079a565b5f5b81518110156105325760015f808484815181106104ce576104cd610e17565b5b602002602001015173ffffffffffffffffffffffffffffffffffffffff1673ffffffffffffffffffffffffffffffffffffffff1681526020019081526020015f205f6101000a81548160ff02191690831515021790555080806001019150506104ae565b505050801561056a576002815560016020527fc7f505b2f371ae2175ee4913f4499e1f2633a7b5936321eed1cdaeb6115181d2602080a15b505050565b63389a75e1600c52335f525f6020600c2055337ffa7b8eab7da67f412cc9575ed43464468f9bfbae89d1675917346ca6d8fe3c925f80a2565b6105b0610730565b6105b95f610870565b565b5f7fffffffffffffffffffffffffffffffffffffffffffffffffffffffff7487392754905090565b5f805f8573ffffffffffffffffffffffffffffffffffffffff1673ffffffffffffffffffffffffffffffffffffffff1681526020019081526020015f205f9054906101000a900460ff161590509392505050565b61063f610730565b63389a75e1600c52805f526020600c20805442111561066557636f5e88185f526004601cfd5b5f81555061067281610870565b50565b61067d610730565b8060601b61069257637448fbae5f526004601cfd5b61069b81610870565b50565b5f63389a75e1600c52815f526020600c20549050919050565b5f7fcade8742000000000000000000000000000000000000000000000000000000007bffffffffffffffffffffffffffffffffffffffffffffffffffffffff1916827bffffffffffffffffffffffffffffffffffffffffffffffffffffffff19161480610729575061072882610936565b5b9050919050565b7fffffffffffffffffffffffffffffffffffffffffffffffffffffffff74873927543314610765576382b429005f526004601cfd5b565b5f6202a300905090565b5f7fffffffffffffffffffffffffffffffffffffffffffffffffffffffffbf6011325f1b905090565b6107a26109af565b1561081a577fffffffffffffffffffffffffffffffffffffffffffffffffffffffff748739278054156107dc57630dc149f05f526004601cfd5b8160601b60601c9150811560ff1b82178155815f7f8be0079c531659141344cd1fd0a4f28419497f9722a3daafe3b4186f6b6457e05f80a35061086d565b8060601b60601c9050807fffffffffffffffffffffffffffffffffffffffffffffffffffffffff7487392755805f7f8be0079c531659141344cd1fd0a4f28419497f9722a3daafe3b4186f6b6457e05f80a35b50565b6108786109af565b156108dd577fffffffffffffffffffffffffffffffffffffffffffffffffffffffff748739278160601b60601c91508181547f8be0079c531659141344cd1fd0a4f28419497f9722a3daafe3b4186f6b6457e05f80a3811560ff1b8217815550610933565b7fffffffffffffffffffffffffffffffffffffffffffffffffffffffff748739278160601b60601c91508181547f8be0079c531659141344cd1fd0a4f28419497f9722a3daafe3b4186f6b6457e05f80a3818155505b50565b5f7f6ab67a0d000000000000000000000000000000000000000000000000000000007bffffffffffffffffffffffffffffffffffffffffffffffffffffffff1916827bffffffffffffffffffffffffffffffffffffffffffffffffffffffff191614806109a857506109a7826109b3565b5b9050919050565b5f90565b5f7f01ffc9a7000000000000000000000000000000000000000000000000000000007bffffffffffffffffffffffffffffffffffffffffffffffffffffffff1916827bffffffffffffffffffffffffffffffffffffffffffffffffffffffff1916149050919050565b5f604051905090565b5f80fd5b5f80fd5b5f7fffffffff0000000000000000000000000000000000000000000000000000000082169050919050565b610a6181610a2d565b8114610a6b575f80fd5b50565b5f81359050610a7c81610a58565b92915050565b5f60208284031215610a9757610a96610a25565b5b5f610aa484828501610a6e565b91505092915050565b5f8115159050919050565b610ac181610aad565b82525050565b5f602082019050610ada5f830184610ab8565b92915050565b5f80fd5b5f80fd5b5f80fd5b5f8083601f840112610b0157610b00610ae0565b5b8235905067ffffffffffffffff811115610b1e57610b1d610ae4565b5b602083019150836020820283011115610b3a57610b39610ae8565b5b9250929050565b5f8083601f840112610b5657610b55610ae0565b5b8235905067ffffffffffffffff811115610b7357610b72610ae4565b5b602083019150836020820283011115610b8f57610b8e610ae8565b5b9250929050565b5f805f8060408587031215610bae57610bad610a25565b5b5f85013567ffffffffffffffff811115610bcb57610bca610a29565b5b610bd787828801610aec565b9450945050602085013567ffffffffffffffff811115610bfa57610bf9610a29565b5b610c0687828801610b41565b925092505092959194509250565b610c1d81610a2d565b82525050565b5f602082019050610c365f830184610c14565b92915050565b5f8083601f840112610c5157610c50610ae0565b5b8235905067ffffffffffffffff811115610c6e57610c6d610ae4565b5b602083019150836001820283011115610c8a57610c89610ae8565b5b9250929050565b5f8060208385031215610ca757610ca6610a25565b5b5f83013567ffffffffffffffff811115610cc457610cc3610a29565b5b610cd085828601610c3c565b92509250509250929050565b5f73ffffffffffffffffffffffffffffffffffffffff82169050919050565b5f610d0582610cdc565b9050919050565b610d1581610cfb565b82525050565b5f602082019050610d2e5f830184610d0c565b92915050565b610d3d81610cfb565b8114610d47575f80fd5b50565b5f81359050610d5881610d34565b92915050565b5f805f60408486031215610d7557610d74610a25565b5b5f610d8286828701610d4a565b935050602084013567ffffffffffffffff811115610da357610da2610a29565b5b610daf86828701610c3c565b92509250509250925092565b5f60208284031215610dd057610dcf610a25565b5b5f610ddd84828501610d4a565b91505092915050565b5f819050919050565b610df881610de6565b82525050565b5f602082019050610e115f830184610def565b92915050565b7f4e487b71000000000000000000000000000000000000000000000000000000005f52603260045260245ffd5b610e4d81610aad565b8114610e57575f80fd5b50565b5f81359050610e6881610e44565b92915050565b5f60208284031215610e8357610e82610a25565b5b5f610e9084828501610e5a565b91505092915050565b5f610ea382610cdc565b9050919050565b610eb381610e99565b8114610ebd575f80fd5b50565b5f81359050610ece81610eaa565b92915050565b5f601f19601f8301169050919050565b7f4e487b71000000000000000000000000000000000000000000000000000000005f52604160045260245ffd5b610f1a82610ed4565b810181811067ffffffffffffffff82111715610f3957610f38610ee4565b5b80604052505050565b5f610f4b610a1c565b9050610f578282610f11565b919050565b5f67ffffffffffffffff821115610f7657610f75610ee4565b5b602082029050602081019050919050565b5f610f99610f9484610f5c565b610f42565b90508083825260208201905060208402830185811115610fbc57610fbb610ae8565b5b835b81811015610fe55780610fd18882610d4a565b845260208401935050602081019050610fbe565b5050509392505050565b5f82601f83011261100357611002610ae0565b5b8135611013848260208601610f87565b91505092915050565b5f806040838503121561103257611031610a25565b5b5f61103f85828601610ec0565b925050602083013567ffffffffffffffff8111156110605761105f610a29565b5b61106c85828601610fef565b915050925092905056fea26469706673582212205bf39f3f0830c7e85f14b309f6dce8a8690568d05aa61418eaf25cff4591c70664736f6c63430008190033",
  "linkReferences": {},
  "deployedLinkReferences": {}
}