{
  "_format": "hh-sol-artifact-1",
  "contractName": "SimpleDenyList",
  "sourceName": "contracts/allowlists/SimpleDenyList.sol",
  "abi": [
    {
      "inputs": [],
      "stateMutability": "nonpayable",
      "type": "constructor"
    },
    {
      "inputs": [],
      "name": "AlreadyInitialized",
      "type": "error"
    },
    {
      "inputs": [],
      "name": "CloneAlreadyInitialized",
      "type": "error"
    },
    {
      "inputs": [],
      "name": "InitializerNotImplemented",
      "type": "error"
    },
    {
      "inputs": [],
      "name": "InvalidInitialization",
      "type": "error"
    },
    {
      "inputs": [],
      "name": "InvalidInitializationData",
      "type": "error"
    },
    {
      "inputs": [],
      "name": "LengthMismatch",
      "type": "error"
    },
    {
      "inputs": [],
      "name": "NewOwnerIsZeroAddress",
      "type": "error"
    },
    {
      "inputs": [],
      "name": "NoHandoverRequest",
      "type": "error"
    },
    {
      "inputs": [],
      "name": "NotImplemented",
      "type": "error"
    },
    {
      "inputs": [],
      "name": "NotInitializing",
      "type": "error"
    },
    {
      "inputs": [],
      "name": "Unauthorized",
      "type": "error"
    },
    {
      "anonymous": false,
      "inputs": [
        {
          "indexed": false,
          "internalType": "uint64",
          "name": "version",
          "type": "uint64"
        }
      ],
      "name": "Initialized",
      "type": "event"
    },
    {
      "anonymous": false,
      "inputs": [
        {
          "indexed": true,
          "internalType": "address",
          "name": "pendingOwner",
          "type": "address"
        }
      ],
      "name": "OwnershipHandoverCanceled",
      "type": "event"
    },
    {
      "anonymous": false,
      "inputs": [
        {
          "indexed": true,
          "internalType": "address",
          "name": "pendingOwner",
          "type": "address"
        }
      ],
      "name": "OwnershipHandoverRequested",
      "type": "event"
    },
    {
      "anonymous": false,
      "inputs": [
        {
          "indexed": true,
          "internalType": "address",
          "name": "oldOwner",
          "type": "address"
        },
        {
          "indexed": true,
          "internalType": "address",
          "name": "newOwner",
          "type": "address"
        }
      ],
      "name": "OwnershipTransferred",
      "type": "event"
    },
    {
      "inputs": [],
      "name": "cancelOwnershipHandover",
      "outputs": [],
      "stateMutability": "payable",
      "type": "function"
    },
    {
      "inputs": [
        {
          "internalType": "address",
          "name": "pendingOwner",
          "type": "address"
        }
      ],
      "name": "completeOwnershipHandover",
      "outputs": [],
      "stateMutability": "payable",
      "type": "function"
    },
    {
      "inputs": [],
      "name": "getComponentInterface",
      "outputs": [
        {
          "internalType": "bytes4",
          "name": "",
          "type": "bytes4"
        }
      ],
      "stateMutability": "pure",
      "type": "function"
    },
    {
      "inputs": [
        {
          "internalType": "bytes",
          "name": "data_",
          "type": "bytes"
        }
      ],
      "name": "initialize",
      "outputs": [],
      "stateMutability": "nonpayable",
      "type": "function"
    },
    {
      "inputs": [
        {
          "internalType": "address",
          "name": "user_",
          "type": "address"
        },
        {
          "internalType": "bytes",
          "name": "",
          "type": "bytes"
        }
      ],
      "name": "isAllowed",
      "outputs": [
        {
          "internalType": "bool",
          "name": "",
          "type": "bool"
        }
      ],
      "stateMutability": "view",
      "type": "function"
    },
    {
      "inputs": [],
      "name": "owner",
      "outputs": [
        {
          "internalType": "address",
          "name": "result",
          "type": "address"
        }
      ],
      "stateMutability": "view",
      "type": "function"
    },
    {
      "inputs": [
        {
          "internalType": "address",
          "name": "pendingOwner",
          "type": "address"
        }
      ],
      "name": "ownershipHandoverExpiresAt",
      "outputs": [
        {
          "internalType": "uint256",
          "name": "result",
          "type": "uint256"
        }
      ],
      "stateMutability": "view",
      "type": "function"
    },
    {
      "inputs": [],
      "name": "renounceOwnership",
      "outputs": [],
      "stateMutability": "payable",
      "type": "function"
    },
    {
      "inputs": [],
      "name": "requestOwnershipHandover",
      "outputs": [],
      "stateMutability": "payable",
      "type": "function"
    },
    {
      "inputs": [
        {
          "internalType": "address[]",
          "name": "users_",
          "type": "address[]"
        },
        {
          "internalType": "bool[]",
          "name": "allowed_",
          "type": "bool[]"
        }
      ],
      "name": "setAllowed",
      "outputs": [],
      "stateMutability": "nonpayable",
      "type": "function"
    },
    {
      "inputs": [
        {
          "internalType": "address[]",
          "name": "users_",
          "type": "address[]"
        },
        {
          "internalType": "bool[]",
          "name": "denied_",
          "type": "bool[]"
        }
      ],
      "name": "setDenied",
      "outputs": [],
      "stateMutability": "nonpayable",
      "type": "function"
    },
    {
      "inputs": [
        {
          "internalType": "bytes4",
          "name": "interfaceId",
          "type": "bytes4"
        }
      ],
      "name": "supportsInterface",
      "outputs": [
        {
          "internalType": "bool",
          "name": "",
          "type": "bool"
        }
      ],
      "stateMutability": "view",
      "type": "function"
    },
    {
      "inputs": [
        {
          "internalType": "address",
          "name": "newOwner",
          "type": "address"
        }
      ],
      "name": "transferOwnership",
      "outputs": [],
      "stateMutability": "payable",
      "type": "function"
    }
  ],
  "bytecode": "0x608060405234801561000f575f80fd5b5061001f3361003260201b60201c565b61002d61010e60201b60201c565b6101a7565b61004061017a60201b60201c565b156100b8577fffffffffffffffffffffffffffffffffffffffffffffffffffffffff7487392780541561007a57630dc149f05f526004601cfd5b8160601b60601c9150811560ff1b82178155815f7f8be0079c531659141344cd1fd0a4f28419497f9722a3daafe3b4186f6b6457e05f80a35061010b565b8060601b60601c9050807fffffffffffffffffffffffffffffffffffffffffffffffffffffffff7487392755805f7f8be0079c531659141344cd1fd0a4f28419497f9722a3daafe3b4186f6b6457e05f80a35b50565b5f61011d61017e60201b60201c565b9050805460018116156101375763f92ee8a95f526004601cfd5b8160c01c808260011c14610175578060011b8355806020527fc7f505b2f371ae2175ee4913f4499e1f2633a7b5936321eed1cdaeb6115181d2602080a15b505050565b5f90565b5f7fffffffffffffffffffffffffffffffffffffffffffffffffffffffffbf6011325f1b905090565b6110b0806101b45f395ff3fe6080604052600436106100c1575f3560e01c806354d1f13d1161007e578063e3f756de11610058578063e3f756de146101eb578063f04e283e14610227578063f2fde38b14610243578063fee81cf41461025f576100c1565b806354d1f13d146101ad578063715018a6146101b75780638da5cb5b146101c1576100c1565b806301ffc9a7146100c5578063141973b014610101578063256929621461012957806328d6183b146101335780633abb06041461015d578063439fab9114610185575b5f80fd5b3480156100d0575f80fd5b506100eb60048036038101906100e69190610a86565b61029b565b6040516100f89190610acb565b60405180910390f35b34801561010c575f80fd5b5061012760048036038101906101229190610b9a565b610314565b005b61013161041d565b005b34801561013e575f80fd5b5061014761046e565b6040516101549190610c27565b60405180910390f35b348015610168575f80fd5b50610183600480360381019061017e9190610b9a565b610495565b005b348015610190575f80fd5b506101ab60048036038101906101a69190610c95565b6104cf565b005b6101b56105ec565b005b6101bf610625565b005b3480156101cc575f80fd5b506101d5610638565b6040516101e29190610d1f565b60405180910390f35b3480156101f6575f80fd5b50610211600480360381019061020c9190610d62565b610660565b60405161021e9190610acb565b60405180910390f35b610241600480360381019061023c9190610dbf565b6106b4565b005b61025d60048036038101906102589190610dbf565b6106f2565b005b34801561026a575f80fd5b5061028560048036038101906102809190610dbf565b61071b565b6040516102929190610e02565b60405180910390f35b5f7fe47cf2f6000000000000000000000000000000000000000000000000000000007bffffffffffffffffffffffffffffffffffffffffffffffffffffffff1916827bffffffffffffffffffffffffffffffffffffffffffffffffffffffff1916148061030d575061030c82610734565b5b9050919050565b61031c6107ad565b81819050848490501461035b576040517fff633a3800000000000000000000000000000000000000000000000000000000815260040160405180910390fd5b5f5b848490508110156104165782828281811061037b5761037a610e1b565b5b90506020020160208101906103909190610e72565b5f808787858181106103a5576103a4610e1b565b5b90506020020160208101906103ba9190610dbf565b73ffffffffffffffffffffffffffffffffffffffff1673ffffffffffffffffffffffffffffffffffffffff1681526020019081526020015f205f6101000a81548160ff021916908315150217905550808060010191505061035d565b5050505050565b5f6104266107e4565b67ffffffffffffffff164201905063389a75e1600c52335f52806020600c2055337fdbf36a107da19e49527a7176a1babf963b4b0ff8cde35ee35d6cd8f1f9ac7e1d5f80a250565b5f7fe47cf2f600000000000000000000000000000000000000000000000000000000905090565b61049d6107ad565b6040517fd623472500000000000000000000000000000000000000000000000000000000815260040160405180910390fd5b5f6104d86107ee565b9050805460038255801561050a5760018160011c14303b106105015763f92ee8a95f526004601cfd5b818160ff1b1b91505b505f80848481019061051c9190611020565b9150915061052982610817565b5f5b81518110156105af5760015f8084848151811061054b5761054a610e1b565b5b602002602001015173ffffffffffffffffffffffffffffffffffffffff1673ffffffffffffffffffffffffffffffffffffffff1681526020019081526020015f205f6101000a81548160ff021916908315150217905550808060010191505061052b565b50505080156105e7576002815560016020527fc7f505b2f371ae2175ee4913f4499e1f2633a7b5936321eed1cdaeb6115181d2602080a15b505050565b63389a75e1600c52335f525f6020600c2055337ffa7b8eab7da67f412cc9575ed43464468f9bfbae89d1675917346ca6d8fe3c925f80a2565b61062d6107ad565b6106365f6108ed565b565b5f7fffffffffffffffffffffffffffffffffffffffffffffffffffffffff7487392754905090565b5f805f8573ffffffffffffffffffffffffffffffffffffffff1673ffffffffffffffffffffffffffffffffffffffff1681526020019081526020015f205f9054906101000a900460ff161590509392505050565b6106bc6107ad565b63389a75e1600c52805f526020600c2080544211156106e257636f5e88185f526004601cfd5b5f8155506106ef816108ed565b50565b6106fa6107ad565b8060601b61070f57637448fbae5f526004601cfd5b610718816108ed565b50565b5f63389a75e1600c52815f526020600c20549050919050565b5f7f42606236000000000000000000000000000000000000000000000000000000007bffffffffffffffffffffffffffffffffffffffffffffffffffffffff1916827bffffffffffffffffffffffffffffffffffffffffffffffffffffffff191614806107a657506107a5826109b3565b5b9050919050565b7fffffffffffffffffffffffffffffffffffffffffffffffffffffffff748739275433146107e2576382b429005f526004601cfd5b565b5f6202a300905090565b5f7fffffffffffffffffffffffffffffffffffffffffffffffffffffffffbf6011325f1b905090565b61081f610a1c565b15610897577fffffffffffffffffffffffffffffffffffffffffffffffffffffffff7487392780541561085957630dc149f05f526004601cfd5b8160601b60601c9150811560ff1b82178155815f7f8be0079c531659141344cd1fd0a4f28419497f9722a3daafe3b4186f6b6457e05f80a3506108ea565b8060601b60601c9050807fffffffffffffffffffffffffffffffffffffffffffffffffffffffff7487392755805f7f8be0079c531659141344cd1fd0a4f28419497f9722a3daafe3b4186f6b6457e05f80a35b50565b6108f5610a1c565b1561095a577fffffffffffffffffffffffffffffffffffffffffffffffffffffffff748739278160601b60601c91508181547f8be0079c531659141344cd1fd0a4f28419497f9722a3daafe3b4186f6b6457e05f80a3811560ff1b82178155506109b0565b7fffffffffffffffffffffffffffffffffffffffffffffffffffffffff748739278160601b60601c91508181547f8be0079c531659141344cd1fd0a4f28419497f9722a3daafe3b4186f6b6457e05f80a3818155505b50565b5f7f01ffc9a7000000000000000000000000000000000000000000000000000000007bffffffffffffffffffffffffffffffffffffffffffffffffffffffff1916827bffffffffffffffffffffffffffffffffffffffffffffffffffffffff1916149050919050565b5f90565b5f604051905090565b5f80fd5b5f80fd5b5f7fffffffff0000000000000000000000000000000000000000000000000000000082169050919050565b610a6581610a31565b8114610a6f575f80fd5b50565b5f81359050610a8081610a5c565b92915050565b5f60208284031215610a9b57610a9a610a29565b5b5f610aa884828501610a72565b91505092915050565b5f8115159050919050565b610ac581610ab1565b82525050565b5f602082019050610ade5f830184610abc565b92915050565b5f80fd5b5f80fd5b5f80fd5b5f8083601f840112610b0557610b04610ae4565b5b8235905067ffffffffffffffff811115610b2257610b21610ae8565b5b602083019150836020820283011115610b3e57610b3d610aec565b5b9250929050565b5f8083601f840112610b5a57610b59610ae4565b5b8235905067ffffffffffffffff811115610b7757610b76610ae8565b5b602083019150836020820283011115610b9357610b92610aec565b5b9250929050565b5f805f8060408587031215610bb257610bb1610a29565b5b5f85013567ffffffffffffffff811115610bcf57610bce610a2d565b5b610bdb87828801610af0565b9450945050602085013567ffffffffffffffff811115610bfe57610bfd610a2d565b5b610c0a87828801610b45565b925092505092959194509250565b610c2181610a31565b82525050565b5f602082019050610c3a5f830184610c18565b92915050565b5f8083601f840112610c5557610c54610ae4565b5b8235905067ffffffffffffffff811115610c7257610c71610ae8565b5b602083019150836001820283011115610c8e57610c8d610aec565b5b9250929050565b5f8060208385031215610cab57610caa610a29565b5b5f83013567ffffffffffffffff811115610cc857610cc7610a2d565b5b610cd485828601610c40565b92509250509250929050565b5f73ffffffffffffffffffffffffffffffffffffffff82169050919050565b5f610d0982610ce0565b9050919050565b610d1981610cff565b82525050565b5f602082019050610d325f830184610d10565b92915050565b610d4181610cff565b8114610d4b575f80fd5b50565b5f81359050610d5c81610d38565b92915050565b5f805f60408486031215610d7957610d78610a29565b5b5f610d8686828701610d4e565b935050602084013567ffffffffffffffff811115610da757610da6610a2d565b5b610db386828701610c40565b92509250509250925092565b5f60208284031215610dd457610dd3610a29565b5b5f610de184828501610d4e565b91505092915050565b5f819050919050565b610dfc81610dea565b82525050565b5f602082019050610e155f830184610df3565b92915050565b7f4e487b71000000000000000000000000000000000000000000000000000000005f52603260045260245ffd5b610e5181610ab1565b8114610e5b575f80fd5b50565b5f81359050610e6c81610e48565b92915050565b5f60208284031215610e8757610e86610a29565b5b5f610e9484828501610e5e565b91505092915050565b5f610ea782610ce0565b9050919050565b610eb781610e9d565b8114610ec1575f80fd5b50565b5f81359050610ed281610eae565b92915050565b5f601f19601f8301169050919050565b7f4e487b71000000000000000000000000000000000000000000000000000000005f52604160045260245ffd5b610f1e82610ed8565b810181811067ffffffffffffffff82111715610f3d57610f3c610ee8565b5b80604052505050565b5f610f4f610a20565b9050610f5b8282610f15565b919050565b5f67ffffffffffffffff821115610f7a57610f79610ee8565b5b602082029050602081019050919050565b5f610f9d610f9884610f60565b610f46565b90508083825260208201905060208402830185811115610fc057610fbf610aec565b5b835b81811015610fe95780610fd58882610d4e565b845260208401935050602081019050610fc2565b5050509392505050565b5f82601f83011261100757611006610ae4565b5b8135611017848260208601610f8b565b91505092915050565b5f806040838503121561103657611035610a29565b5b5f61104385828601610ec4565b925050602083013567ffffffffffffffff81111561106457611063610a2d565b5b61107085828601610ff3565b915050925092905056fea26469706673582212206c40620e5d4ecb4001856ea00d71c02eab06d5649a49c8bbdc0e157f465cd94464736f6c63430008190033",
  "linkReferences": {},
  "deployedLinkReferences": {}
}