{
  "_format": "hh-sol-artifact-1",
  "contractName": "SimpleDenyList",
  "sourceName": "contracts/allowlists/SimpleDenyList.sol",
  "abi": [
    {
      "inputs": [],
      "stateMutability": "nonpayable",
      "type": "constructor"
    },
    {
      "inputs": [],
      "name": "AlreadyInitialized",
      "type": "error"
    },
    {
      "inputs": [],
      "name": "CloneAlreadyInitialized",
      "type": "error"
    },
    {
      "inputs": [],
      "name": "InitializerNotImplemented",
      "type": "error"
    },
    {
      "inputs": [],
      "name": "InvalidInitialization",
      "type": "error"
    },
    {
      "inputs": [],
      "name": "InvalidInitializationData",
      "type": "error"
    },
    {
      "inputs": [],
      "name": "LengthMismatch",
      "type": "error"
    },
    {
      "inputs": [],
      "name": "NewOwnerIsZeroAddress",
      "type": "error"
    },
    {
      "inputs": [],
      "name": "NoHandoverRequest",
      "type": "error"
    },
    {
      "inputs": [],
      "name": "NotInitializing",
      "type": "error"
    },
    {
      "inputs": [],
      "name": "Unauthorized",
      "type": "error"
    },
    {
      "anonymous": false,
      "inputs": [
        {
          "indexed": false,
          "internalType": "uint64",
          "name": "version",
          "type": "uint64"
        }
      ],
      "name": "Initialized",
      "type": "event"
    },
    {
      "anonymous": false,
      "inputs": [
        {
          "indexed": true,
          "internalType": "address",
          "name": "pendingOwner",
          "type": "address"
        }
      ],
      "name": "OwnershipHandoverCanceled",
      "type": "event"
    },
    {
      "anonymous": false,
      "inputs": [
        {
          "indexed": true,
          "internalType": "address",
          "name": "pendingOwner",
          "type": "address"
        }
      ],
      "name": "OwnershipHandoverRequested",
      "type": "event"
    },
    {
      "anonymous": false,
      "inputs": [
        {
          "indexed": true,
          "internalType": "address",
          "name": "oldOwner",
          "type": "address"
        },
        {
          "indexed": true,
          "internalType": "address",
          "name": "newOwner",
          "type": "address"
        }
      ],
      "name": "OwnershipTransferred",
      "type": "event"
    },
    {
      "inputs": [],
      "name": "cancelOwnershipHandover",
      "outputs": [],
      "stateMutability": "payable",
      "type": "function"
    },
    {
      "inputs": [
        {
          "internalType": "address",
          "name": "pendingOwner",
          "type": "address"
        }
      ],
      "name": "completeOwnershipHandover",
      "outputs": [],
      "stateMutability": "payable",
      "type": "function"
    },
    {
      "inputs": [
        {
          "internalType": "bytes",
          "name": "data_",
          "type": "bytes"
        }
      ],
      "name": "initialize",
      "outputs": [],
      "stateMutability": "nonpayable",
      "type": "function"
    },
    {
      "inputs": [
        {
          "internalType": "address",
          "name": "user_",
          "type": "address"
        },
        {
          "internalType": "bytes",
          "name": "",
          "type": "bytes"
        }
      ],
      "name": "isAllowed",
      "outputs": [
        {
          "internalType": "bool",
          "name": "",
          "type": "bool"
        }
      ],
      "stateMutability": "view",
      "type": "function"
    },
    {
      "inputs": [],
      "name": "owner",
      "outputs": [
        {
          "internalType": "address",
          "name": "result",
          "type": "address"
        }
      ],
      "stateMutability": "view",
      "type": "function"
    },
    {
      "inputs": [
        {
          "internalType": "address",
          "name": "pendingOwner",
          "type": "address"
        }
      ],
      "name": "ownershipHandoverExpiresAt",
      "outputs": [
        {
          "internalType": "uint256",
          "name": "result",
          "type": "uint256"
        }
      ],
      "stateMutability": "view",
      "type": "function"
    },
    {
      "inputs": [],
      "name": "renounceOwnership",
      "outputs": [],
      "stateMutability": "payable",
      "type": "function"
    },
    {
      "inputs": [],
      "name": "requestOwnershipHandover",
      "outputs": [],
      "stateMutability": "payable",
      "type": "function"
    },
    {
      "inputs": [
        {
          "internalType": "address[]",
          "name": "users_",
          "type": "address[]"
        },
        {
          "internalType": "bool[]",
          "name": "denied_",
          "type": "bool[]"
        }
      ],
      "name": "setDenied",
      "outputs": [],
      "stateMutability": "nonpayable",
      "type": "function"
    },
    {
      "inputs": [
        {
          "internalType": "bytes4",
          "name": "interfaceId",
          "type": "bytes4"
        }
      ],
      "name": "supportsInterface",
      "outputs": [
        {
          "internalType": "bool",
          "name": "",
          "type": "bool"
        }
      ],
      "stateMutability": "view",
      "type": "function"
    },
    {
      "inputs": [
        {
          "internalType": "address",
          "name": "newOwner",
          "type": "address"
        }
      ],
      "name": "transferOwnership",
      "outputs": [],
      "stateMutability": "payable",
      "type": "function"
    }
  ],
  "bytecode": "0x608060405234801561001057600080fd5b506100203361003360201b60201c565b61002e61011460201b60201c565b6101b2565b61004161018260201b60201c565b156100bc577fffffffffffffffffffffffffffffffffffffffffffffffffffffffff7487392780541561007c57630dc149f06000526004601cfd5b8160601b60601c9150811560ff1b821781558160007f8be0079c531659141344cd1fd0a4f28419497f9722a3daafe3b4186f6b6457e0600080a350610111565b8060601b60601c9050807fffffffffffffffffffffffffffffffffffffffffffffffffffffffff74873927558060007f8be0079c531659141344cd1fd0a4f28419497f9722a3daafe3b4186f6b6457e0600080a35b50565b600061012461018760201b60201c565b90508054600181161561013f5763f92ee8a96000526004601cfd5b8160c01c808260011c1461017d578060011b8355806020527fc7f505b2f371ae2175ee4913f4499e1f2633a7b5936321eed1cdaeb6115181d2602080a15b505050565b600090565b60007fffffffffffffffffffffffffffffffffffffffffffffffffffffffffbf60113260001b905090565b61101980620001c26000396000f3fe60806040526004361061009c5760003560e01c8063715018a611610064578063715018a6146101445780638da5cb5b1461014e578063e3f756de14610179578063f04e283e146101b6578063f2fde38b146101d2578063fee81cf4146101ee5761009c565b806301ffc9a7146100a1578063141973b0146100de5780632569296214610107578063439fab911461011157806354d1f13d1461013a575b600080fd5b3480156100ad57600080fd5b506100c860048036038101906100c391906109e7565b61022b565b6040516100d59190610a2f565b60405180910390f35b3480156100ea57600080fd5b5061010560048036038101906101009190610b05565b6102a5565b005b61010f6103b2565b005b34801561011d57600080fd5b5061013860048036038101906101339190610bdc565b610406565b005b61014261052a565b005b61014c610566565b005b34801561015a57600080fd5b5061016361057a565b6040516101709190610c6a565b60405180910390f35b34801561018557600080fd5b506101a0600480360381019061019b9190610cb1565b6105a3565b6040516101ad9190610a2f565b60405180910390f35b6101d060048036038101906101cb9190610d11565b6105fb565b005b6101ec60048036038101906101e79190610d11565b61063c565b005b3480156101fa57600080fd5b5061021560048036038101906102109190610d11565b610666565b6040516102229190610d57565b60405180910390f35b60007fe2089f79000000000000000000000000000000000000000000000000000000007bffffffffffffffffffffffffffffffffffffffffffffffffffffffff1916827bffffffffffffffffffffffffffffffffffffffffffffffffffffffff1916148061029e575061029d82610681565b5b9050919050565b6102ad6106fb565b8181905084849050146102ec576040517fff633a3800000000000000000000000000000000000000000000000000000000815260040160405180910390fd5b60005b848490508110156103ab5782828281811061030d5761030c610d72565b5b90506020020160208101906103229190610dcd565b60008087878581811061033857610337610d72565b5b905060200201602081019061034d9190610d11565b73ffffffffffffffffffffffffffffffffffffffff1673ffffffffffffffffffffffffffffffffffffffff16815260200190815260200160002060006101000a81548160ff02191690831515021790555080806001019150506102ef565b5050505050565b60006103bc610733565b67ffffffffffffffff164201905063389a75e1600c5233600052806020600c2055337fdbf36a107da19e49527a7176a1babf963b4b0ff8cde35ee35d6cd8f1f9ac7e1d600080a250565b600061041061073e565b905080546003825580156104435760018160011c14303b1061043a5763f92ee8a96000526004601cfd5b818160ff1b1b91505b5060008084848101906104569190610f87565b9150915061046382610769565b60005b81518110156104ed57600160008084848151811061048757610486610d72565b5b602002602001015173ffffffffffffffffffffffffffffffffffffffff1673ffffffffffffffffffffffffffffffffffffffff16815260200190815260200160002060006101000a81548160ff0219169083151502179055508080600101915050610466565b5050508015610525576002815560016020527fc7f505b2f371ae2175ee4913f4499e1f2633a7b5936321eed1cdaeb6115181d2602080a15b505050565b63389a75e1600c523360005260006020600c2055337ffa7b8eab7da67f412cc9575ed43464468f9bfbae89d1675917346ca6d8fe3c92600080a2565b61056e6106fb565b6105786000610844565b565b60007fffffffffffffffffffffffffffffffffffffffffffffffffffffffff7487392754905090565b60008060008573ffffffffffffffffffffffffffffffffffffffff1673ffffffffffffffffffffffffffffffffffffffff16815260200190815260200160002060009054906101000a900460ff161590509392505050565b6106036106fb565b63389a75e1600c52806000526020600c20805442111561062b57636f5e88186000526004601cfd5b600081555061063981610844565b50565b6106446106fb565b8060601b61065a57637448fbae6000526004601cfd5b61066381610844565b50565b600063389a75e1600c52816000526020600c20549050919050565b60007f42606236000000000000000000000000000000000000000000000000000000007bffffffffffffffffffffffffffffffffffffffffffffffffffffffff1916827bffffffffffffffffffffffffffffffffffffffffffffffffffffffff191614806106f457506106f38261090c565b5b9050919050565b7fffffffffffffffffffffffffffffffffffffffffffffffffffffffff74873927543314610731576382b429006000526004601cfd5b565b60006202a300905090565b60007fffffffffffffffffffffffffffffffffffffffffffffffffffffffffbf60113260001b905090565b610771610976565b156107ec577fffffffffffffffffffffffffffffffffffffffffffffffffffffffff748739278054156107ac57630dc149f06000526004601cfd5b8160601b60601c9150811560ff1b821781558160007f8be0079c531659141344cd1fd0a4f28419497f9722a3daafe3b4186f6b6457e0600080a350610841565b8060601b60601c9050807fffffffffffffffffffffffffffffffffffffffffffffffffffffffff74873927558060007f8be0079c531659141344cd1fd0a4f28419497f9722a3daafe3b4186f6b6457e0600080a35b50565b61084c610976565b156108b2577fffffffffffffffffffffffffffffffffffffffffffffffffffffffff748739278160601b60601c91508181547f8be0079c531659141344cd1fd0a4f28419497f9722a3daafe3b4186f6b6457e0600080a3811560ff1b8217815550610909565b7fffffffffffffffffffffffffffffffffffffffffffffffffffffffff748739278160601b60601c91508181547f8be0079c531659141344cd1fd0a4f28419497f9722a3daafe3b4186f6b6457e0600080a3818155505b50565b60007f01ffc9a7000000000000000000000000000000000000000000000000000000007bffffffffffffffffffffffffffffffffffffffffffffffffffffffff1916827bffffffffffffffffffffffffffffffffffffffffffffffffffffffff1916149050919050565b600090565b6000604051905090565b600080fd5b600080fd5b60007fffffffff0000000000000000000000000000000000000000000000000000000082169050919050565b6109c48161098f565b81146109cf57600080fd5b50565b6000813590506109e1816109bb565b92915050565b6000602082840312156109fd576109fc610985565b5b6000610a0b848285016109d2565b91505092915050565b60008115159050919050565b610a2981610a14565b82525050565b6000602082019050610a446000830184610a20565b92915050565b600080fd5b600080fd5b600080fd5b60008083601f840112610a6f57610a6e610a4a565b5b8235905067ffffffffffffffff811115610a8c57610a8b610a4f565b5b602083019150836020820283011115610aa857610aa7610a54565b5b9250929050565b60008083601f840112610ac557610ac4610a4a565b5b8235905067ffffffffffffffff811115610ae257610ae1610a4f565b5b602083019150836020820283011115610afe57610afd610a54565b5b9250929050565b60008060008060408587031215610b1f57610b1e610985565b5b600085013567ffffffffffffffff811115610b3d57610b3c61098a565b5b610b4987828801610a59565b9450945050602085013567ffffffffffffffff811115610b6c57610b6b61098a565b5b610b7887828801610aaf565b925092505092959194509250565b60008083601f840112610b9c57610b9b610a4a565b5b8235905067ffffffffffffffff811115610bb957610bb8610a4f565b5b602083019150836001820283011115610bd557610bd4610a54565b5b9250929050565b60008060208385031215610bf357610bf2610985565b5b600083013567ffffffffffffffff811115610c1157610c1061098a565b5b610c1d85828601610b86565b92509250509250929050565b600073ffffffffffffffffffffffffffffffffffffffff82169050919050565b6000610c5482610c29565b9050919050565b610c6481610c49565b82525050565b6000602082019050610c7f6000830184610c5b565b92915050565b610c8e81610c49565b8114610c9957600080fd5b50565b600081359050610cab81610c85565b92915050565b600080600060408486031215610cca57610cc9610985565b5b6000610cd886828701610c9c565b935050602084013567ffffffffffffffff811115610cf957610cf861098a565b5b610d0586828701610b86565b92509250509250925092565b600060208284031215610d2757610d26610985565b5b6000610d3584828501610c9c565b91505092915050565b6000819050919050565b610d5181610d3e565b82525050565b6000602082019050610d6c6000830184610d48565b92915050565b7f4e487b7100000000000000000000000000000000000000000000000000000000600052603260045260246000fd5b610daa81610a14565b8114610db557600080fd5b50565b600081359050610dc781610da1565b92915050565b600060208284031215610de357610de2610985565b5b6000610df184828501610db8565b91505092915050565b6000610e0582610c29565b9050919050565b610e1581610dfa565b8114610e2057600080fd5b50565b600081359050610e3281610e0c565b92915050565b6000601f19601f8301169050919050565b7f4e487b7100000000000000000000000000000000000000000000000000000000600052604160045260246000fd5b610e8182610e38565b810181811067ffffffffffffffff82111715610ea057610e9f610e49565b5b80604052505050565b6000610eb361097b565b9050610ebf8282610e78565b919050565b600067ffffffffffffffff821115610edf57610ede610e49565b5b602082029050602081019050919050565b6000610f03610efe84610ec4565b610ea9565b90508083825260208201905060208402830185811115610f2657610f25610a54565b5b835b81811015610f4f5780610f3b8882610c9c565b845260208401935050602081019050610f28565b5050509392505050565b600082601f830112610f6e57610f6d610a4a565b5b8135610f7e848260208601610ef0565b91505092915050565b60008060408385031215610f9e57610f9d610985565b5b6000610fac85828601610e23565b925050602083013567ffffffffffffffff811115610fcd57610fcc61098a565b5b610fd985828601610f59565b915050925092905056fea2646970667358221220064334d6c008874e37c2816deb2802b8146bee575f6288a38756f2c54675313064736f6c63430008180033",
  "linkReferences": {},
  "deployedLinkReferences": {}
}