{
  "_format": "hh-sol-artifact-1",
  "contractName": "SimpleDenyList",
  "sourceName": "contracts/allowlists/SimpleDenyList.sol",
  "abi": [
    {
      "inputs": [],
      "stateMutability": "nonpayable",
      "type": "constructor"
    },
    {
      "inputs": [],
      "name": "AlreadyInitialized",
      "type": "error"
    },
    {
      "inputs": [],
      "name": "CloneAlreadyInitialized",
      "type": "error"
    },
    {
      "inputs": [],
      "name": "InitializerNotImplemented",
      "type": "error"
    },
    {
      "inputs": [],
      "name": "InvalidInitialization",
      "type": "error"
    },
    {
      "inputs": [],
      "name": "InvalidInitializationData",
      "type": "error"
    },
    {
      "inputs": [],
      "name": "LengthMismatch",
      "type": "error"
    },
    {
      "inputs": [],
      "name": "NewOwnerIsZeroAddress",
      "type": "error"
    },
    {
      "inputs": [],
      "name": "NoHandoverRequest",
      "type": "error"
    },
    {
      "inputs": [],
      "name": "NotInitializing",
      "type": "error"
    },
    {
      "inputs": [],
      "name": "Unauthorized",
      "type": "error"
    },
    {
      "anonymous": false,
      "inputs": [
        {
          "indexed": false,
          "internalType": "uint64",
          "name": "version",
          "type": "uint64"
        }
      ],
      "name": "Initialized",
      "type": "event"
    },
    {
      "anonymous": false,
      "inputs": [
        {
          "indexed": true,
          "internalType": "address",
          "name": "pendingOwner",
          "type": "address"
        }
      ],
      "name": "OwnershipHandoverCanceled",
      "type": "event"
    },
    {
      "anonymous": false,
      "inputs": [
        {
          "indexed": true,
          "internalType": "address",
          "name": "pendingOwner",
          "type": "address"
        }
      ],
      "name": "OwnershipHandoverRequested",
      "type": "event"
    },
    {
      "anonymous": false,
      "inputs": [
        {
          "indexed": true,
          "internalType": "address",
          "name": "oldOwner",
          "type": "address"
        },
        {
          "indexed": true,
          "internalType": "address",
          "name": "newOwner",
          "type": "address"
        }
      ],
      "name": "OwnershipTransferred",
      "type": "event"
    },
    {
      "inputs": [],
      "name": "cancelOwnershipHandover",
      "outputs": [],
      "stateMutability": "payable",
      "type": "function"
    },
    {
      "inputs": [
        {
          "internalType": "address",
          "name": "pendingOwner",
          "type": "address"
        }
      ],
      "name": "completeOwnershipHandover",
      "outputs": [],
      "stateMutability": "payable",
      "type": "function"
    },
    {
      "inputs": [
        {
          "internalType": "bytes",
          "name": "data_",
          "type": "bytes"
        }
      ],
      "name": "initialize",
      "outputs": [],
      "stateMutability": "nonpayable",
      "type": "function"
    },
    {
      "inputs": [],
      "name": "interfaceName",
      "outputs": [
        {
          "internalType": "string",
          "name": "",
          "type": "string"
        }
      ],
      "stateMutability": "pure",
      "type": "function"
    },
    {
      "inputs": [
        {
          "internalType": "address",
          "name": "user_",
          "type": "address"
        },
        {
          "internalType": "bytes",
          "name": "",
          "type": "bytes"
        }
      ],
      "name": "isAllowed",
      "outputs": [
        {
          "internalType": "bool",
          "name": "",
          "type": "bool"
        }
      ],
      "stateMutability": "view",
      "type": "function"
    },
    {
      "inputs": [],
      "name": "owner",
      "outputs": [
        {
          "internalType": "address",
          "name": "result",
          "type": "address"
        }
      ],
      "stateMutability": "view",
      "type": "function"
    },
    {
      "inputs": [
        {
          "internalType": "address",
          "name": "pendingOwner",
          "type": "address"
        }
      ],
      "name": "ownershipHandoverExpiresAt",
      "outputs": [
        {
          "internalType": "uint256",
          "name": "result",
          "type": "uint256"
        }
      ],
      "stateMutability": "view",
      "type": "function"
    },
    {
      "inputs": [],
      "name": "renounceOwnership",
      "outputs": [],
      "stateMutability": "payable",
      "type": "function"
    },
    {
      "inputs": [],
      "name": "requestOwnershipHandover",
      "outputs": [],
      "stateMutability": "payable",
      "type": "function"
    },
    {
      "inputs": [
        {
          "internalType": "address[]",
          "name": "users_",
          "type": "address[]"
        },
        {
          "internalType": "bool[]",
          "name": "denied_",
          "type": "bool[]"
        }
      ],
      "name": "setDenied",
      "outputs": [],
      "stateMutability": "nonpayable",
      "type": "function"
    },
    {
      "inputs": [
        {
          "internalType": "bytes4",
          "name": "interfaceId",
          "type": "bytes4"
        }
      ],
      "name": "supportsInterface",
      "outputs": [
        {
          "internalType": "bool",
          "name": "",
          "type": "bool"
        }
      ],
      "stateMutability": "view",
      "type": "function"
    },
    {
      "inputs": [
        {
          "internalType": "address",
          "name": "newOwner",
          "type": "address"
        }
      ],
      "name": "transferOwnership",
      "outputs": [],
      "stateMutability": "payable",
      "type": "function"
    }
  ],
  "bytecode": "0x608060405234801561000f575f80fd5b5061001f3361003260201b60201c565b61002d61010e60201b60201c565b6101a7565b61004061017a60201b60201c565b156100b8577fffffffffffffffffffffffffffffffffffffffffffffffffffffffff7487392780541561007a57630dc149f05f526004601cfd5b8160601b60601c9150811560ff1b82178155815f7f8be0079c531659141344cd1fd0a4f28419497f9722a3daafe3b4186f6b6457e05f80a35061010b565b8060601b60601c9050807fffffffffffffffffffffffffffffffffffffffffffffffffffffffff7487392755805f7f8be0079c531659141344cd1fd0a4f28419497f9722a3daafe3b4186f6b6457e05f80a35b50565b5f61011d61017e60201b60201c565b9050805460018116156101375763f92ee8a95f526004601cfd5b8160c01c808260011c14610175578060011b8355806020527fc7f505b2f371ae2175ee4913f4499e1f2633a7b5936321eed1cdaeb6115181d2602080a15b505050565b5f90565b5f7fffffffffffffffffffffffffffffffffffffffffffffffffffffffffbf6011325f1b905090565b6110a1806101b45f395ff3fe6080604052600436106100a6575f3560e01c8063715018a611610063578063715018a6146101745780638da5cb5b1461017e578063e3f756de146101a8578063f04e283e146101e4578063f2fde38b14610200578063fee81cf41461021c576100a6565b806301ffc9a7146100aa578063141973b0146100e6578063256929621461010e578063439fab911461011857806354d1f13d146101405780636e441e4c1461014a575b5f80fd5b3480156100b5575f80fd5b506100d060048036038101906100cb9190610a1f565b610258565b6040516100dd9190610a64565b60405180910390f35b3480156100f1575f80fd5b5061010c60048036038101906101079190610b33565b6102d1565b005b6101166103da565b005b348015610123575f80fd5b5061013e60048036038101906101399190610c06565b61042b565b005b610148610548565b005b348015610155575f80fd5b5061015e610581565b60405161016b9190610cc1565b60405180910390f35b61017c6105be565b005b348015610189575f80fd5b506101926105d1565b60405161019f9190610d20565b60405180910390f35b3480156101b3575f80fd5b506101ce60048036038101906101c99190610d63565b6105f9565b6040516101db9190610a64565b60405180910390f35b6101fe60048036038101906101f99190610dc0565b61064d565b005b61021a60048036038101906102159190610dc0565b61068b565b005b348015610227575f80fd5b50610242600480360381019061023d9190610dc0565b6106b4565b60405161024f9190610e03565b60405180910390f35b5f7fe2089f79000000000000000000000000000000000000000000000000000000007bffffffffffffffffffffffffffffffffffffffffffffffffffffffff1916827bffffffffffffffffffffffffffffffffffffffffffffffffffffffff191614806102ca57506102c9826106cd565b5b9050919050565b6102d9610746565b818190508484905014610318576040517fff633a3800000000000000000000000000000000000000000000000000000000815260040160405180910390fd5b5f5b848490508110156103d35782828281811061033857610337610e1c565b5b905060200201602081019061034d9190610e73565b5f8087878581811061036257610361610e1c565b5b90506020020160208101906103779190610dc0565b73ffffffffffffffffffffffffffffffffffffffff1673ffffffffffffffffffffffffffffffffffffffff1681526020019081526020015f205f6101000a81548160ff021916908315150217905550808060010191505061031a565b5050505050565b5f6103e361077d565b67ffffffffffffffff164201905063389a75e1600c52335f52806020600c2055337fdbf36a107da19e49527a7176a1babf963b4b0ff8cde35ee35d6cd8f1f9ac7e1d5f80a250565b5f610434610787565b905080546003825580156104665760018160011c14303b1061045d5763f92ee8a95f526004601cfd5b818160ff1b1b91505b505f8084848101906104789190611011565b91509150610485826107b0565b5f5b815181101561050b5760015f808484815181106104a7576104a6610e1c565b5b602002602001015173ffffffffffffffffffffffffffffffffffffffff1673ffffffffffffffffffffffffffffffffffffffff1681526020019081526020015f205f6101000a81548160ff0219169083151502179055508080600101915050610487565b5050508015610543576002815560016020527fc7f505b2f371ae2175ee4913f4499e1f2633a7b5936321eed1cdaeb6115181d2602080a15b505050565b63389a75e1600c52335f525f6020600c2055337ffa7b8eab7da67f412cc9575ed43464468f9bfbae89d1675917346ca6d8fe3c925f80a2565b60606040518060400160405280600e81526020017f53696d706c6544656e794c697374000000000000000000000000000000000000815250905090565b6105c6610746565b6105cf5f610886565b565b5f7fffffffffffffffffffffffffffffffffffffffffffffffffffffffff7487392754905090565b5f805f8573ffffffffffffffffffffffffffffffffffffffff1673ffffffffffffffffffffffffffffffffffffffff1681526020019081526020015f205f9054906101000a900460ff161590509392505050565b610655610746565b63389a75e1600c52805f526020600c20805442111561067b57636f5e88185f526004601cfd5b5f81555061068881610886565b50565b610693610746565b8060601b6106a857637448fbae5f526004601cfd5b6106b181610886565b50565b5f63389a75e1600c52815f526020600c20549050919050565b5f7f2c247c7a000000000000000000000000000000000000000000000000000000007bffffffffffffffffffffffffffffffffffffffffffffffffffffffff1916827bffffffffffffffffffffffffffffffffffffffffffffffffffffffff1916148061073f575061073e8261094c565b5b9050919050565b7fffffffffffffffffffffffffffffffffffffffffffffffffffffffff7487392754331461077b576382b429005f526004601cfd5b565b5f6202a300905090565b5f7fffffffffffffffffffffffffffffffffffffffffffffffffffffffffbf6011325f1b905090565b6107b86109b5565b15610830577fffffffffffffffffffffffffffffffffffffffffffffffffffffffff748739278054156107f257630dc149f05f526004601cfd5b8160601b60601c9150811560ff1b82178155815f7f8be0079c531659141344cd1fd0a4f28419497f9722a3daafe3b4186f6b6457e05f80a350610883565b8060601b60601c9050807fffffffffffffffffffffffffffffffffffffffffffffffffffffffff7487392755805f7f8be0079c531659141344cd1fd0a4f28419497f9722a3daafe3b4186f6b6457e05f80a35b50565b61088e6109b5565b156108f3577fffffffffffffffffffffffffffffffffffffffffffffffffffffffff748739278160601b60601c91508181547f8be0079c531659141344cd1fd0a4f28419497f9722a3daafe3b4186f6b6457e05f80a3811560ff1b8217815550610949565b7fffffffffffffffffffffffffffffffffffffffffffffffffffffffff748739278160601b60601c91508181547f8be0079c531659141344cd1fd0a4f28419497f9722a3daafe3b4186f6b6457e05f80a3818155505b50565b5f7f01ffc9a7000000000000000000000000000000000000000000000000000000007bffffffffffffffffffffffffffffffffffffffffffffffffffffffff1916827bffffffffffffffffffffffffffffffffffffffffffffffffffffffff1916149050919050565b5f90565b5f604051905090565b5f80fd5b5f80fd5b5f7fffffffff0000000000000000000000000000000000000000000000000000000082169050919050565b6109fe816109ca565b8114610a08575f80fd5b50565b5f81359050610a19816109f5565b92915050565b5f60208284031215610a3457610a336109c2565b5b5f610a4184828501610a0b565b91505092915050565b5f8115159050919050565b610a5e81610a4a565b82525050565b5f602082019050610a775f830184610a55565b92915050565b5f80fd5b5f80fd5b5f80fd5b5f8083601f840112610a9e57610a9d610a7d565b5b8235905067ffffffffffffffff811115610abb57610aba610a81565b5b602083019150836020820283011115610ad757610ad6610a85565b5b9250929050565b5f8083601f840112610af357610af2610a7d565b5b8235905067ffffffffffffffff811115610b1057610b0f610a81565b5b602083019150836020820283011115610b2c57610b2b610a85565b5b9250929050565b5f805f8060408587031215610b4b57610b4a6109c2565b5b5f85013567ffffffffffffffff811115610b6857610b676109c6565b5b610b7487828801610a89565b9450945050602085013567ffffffffffffffff811115610b9757610b966109c6565b5b610ba387828801610ade565b925092505092959194509250565b5f8083601f840112610bc657610bc5610a7d565b5b8235905067ffffffffffffffff811115610be357610be2610a81565b5b602083019150836001820283011115610bff57610bfe610a85565b5b9250929050565b5f8060208385031215610c1c57610c1b6109c2565b5b5f83013567ffffffffffffffff811115610c3957610c386109c6565b5b610c4585828601610bb1565b92509250509250929050565b5f81519050919050565b5f82825260208201905092915050565b8281835e5f83830152505050565b5f601f19601f8301169050919050565b5f610c9382610c51565b610c9d8185610c5b565b9350610cad818560208601610c6b565b610cb681610c79565b840191505092915050565b5f6020820190508181035f830152610cd98184610c89565b905092915050565b5f73ffffffffffffffffffffffffffffffffffffffff82169050919050565b5f610d0a82610ce1565b9050919050565b610d1a81610d00565b82525050565b5f602082019050610d335f830184610d11565b92915050565b610d4281610d00565b8114610d4c575f80fd5b50565b5f81359050610d5d81610d39565b92915050565b5f805f60408486031215610d7a57610d796109c2565b5b5f610d8786828701610d4f565b935050602084013567ffffffffffffffff811115610da857610da76109c6565b5b610db486828701610bb1565b92509250509250925092565b5f60208284031215610dd557610dd46109c2565b5b5f610de284828501610d4f565b91505092915050565b5f819050919050565b610dfd81610deb565b82525050565b5f602082019050610e165f830184610df4565b92915050565b7f4e487b71000000000000000000000000000000000000000000000000000000005f52603260045260245ffd5b610e5281610a4a565b8114610e5c575f80fd5b50565b5f81359050610e6d81610e49565b92915050565b5f60208284031215610e8857610e876109c2565b5b5f610e9584828501610e5f565b91505092915050565b5f610ea882610ce1565b9050919050565b610eb881610e9e565b8114610ec2575f80fd5b50565b5f81359050610ed381610eaf565b92915050565b7f4e487b71000000000000000000000000000000000000000000000000000000005f52604160045260245ffd5b610f0f82610c79565b810181811067ffffffffffffffff82111715610f2e57610f2d610ed9565b5b80604052505050565b5f610f406109b9565b9050610f4c8282610f06565b919050565b5f67ffffffffffffffff821115610f6b57610f6a610ed9565b5b602082029050602081019050919050565b5f610f8e610f8984610f51565b610f37565b90508083825260208201905060208402830185811115610fb157610fb0610a85565b5b835b81811015610fda5780610fc68882610d4f565b845260208401935050602081019050610fb3565b5050509392505050565b5f82601f830112610ff857610ff7610a7d565b5b8135611008848260208601610f7c565b91505092915050565b5f8060408385031215611027576110266109c2565b5b5f61103485828601610ec5565b925050602083013567ffffffffffffffff811115611055576110546109c6565b5b61106185828601610fe4565b915050925092905056fea26469706673582212202ff2eac64f02d9ec68389a9600dcdd215da8566380b600593dc66809af37bf8164736f6c63430008190033",
  "linkReferences": {},
  "deployedLinkReferences": {}
}