{
  "_format": "hh-sol-artifact-1",
  "contractName": "BoostAccount",
  "sourceName": "contracts/accounts/BoostAccount.sol",
  "abi": [
    {
      "inputs": [],
      "name": "AlreadyInitialized",
      "type": "error"
    },
    {
      "inputs": [],
      "name": "FnSelectorNotRecognized",
      "type": "error"
    },
    {
      "inputs": [],
      "name": "InvalidInitialization",
      "type": "error"
    },
    {
      "inputs": [],
      "name": "NewOwnerIsZeroAddress",
      "type": "error"
    },
    {
      "inputs": [],
      "name": "NoHandoverRequest",
      "type": "error"
    },
    {
      "inputs": [],
      "name": "NotInitializing",
      "type": "error"
    },
    {
      "inputs": [],
      "name": "Unauthorized",
      "type": "error"
    },
    {
      "inputs": [],
      "name": "UnauthorizedCallContext",
      "type": "error"
    },
    {
      "inputs": [],
      "name": "UpgradeFailed",
      "type": "error"
    },
    {
      "anonymous": false,
      "inputs": [
        {
          "indexed": false,
          "internalType": "uint64",
          "name": "version",
          "type": "uint64"
        }
      ],
      "name": "Initialized",
      "type": "event"
    },
    {
      "anonymous": false,
      "inputs": [
        {
          "indexed": true,
          "internalType": "address",
          "name": "pendingOwner",
          "type": "address"
        }
      ],
      "name": "OwnershipHandoverCanceled",
      "type": "event"
    },
    {
      "anonymous": false,
      "inputs": [
        {
          "indexed": true,
          "internalType": "address",
          "name": "pendingOwner",
          "type": "address"
        }
      ],
      "name": "OwnershipHandoverRequested",
      "type": "event"
    },
    {
      "anonymous": false,
      "inputs": [
        {
          "indexed": true,
          "internalType": "address",
          "name": "oldOwner",
          "type": "address"
        },
        {
          "indexed": true,
          "internalType": "address",
          "name": "newOwner",
          "type": "address"
        }
      ],
      "name": "OwnershipTransferred",
      "type": "event"
    },
    {
      "anonymous": false,
      "inputs": [
        {
          "indexed": true,
          "internalType": "address",
          "name": "user",
          "type": "address"
        },
        {
          "indexed": true,
          "internalType": "uint256",
          "name": "roles",
          "type": "uint256"
        }
      ],
      "name": "RolesUpdated",
      "type": "event"
    },
    {
      "anonymous": false,
      "inputs": [
        {
          "indexed": true,
          "internalType": "address",
          "name": "implementation",
          "type": "address"
        }
      ],
      "name": "Upgraded",
      "type": "event"
    },
    {
      "stateMutability": "payable",
      "type": "fallback"
    },
    {
      "inputs": [],
      "name": "OWNER_ROLE",
      "outputs": [
        {
          "internalType": "uint256",
          "name": "",
          "type": "uint256"
        }
      ],
      "stateMutability": "view",
      "type": "function"
    },
    {
      "inputs": [],
      "name": "addDeposit",
      "outputs": [],
      "stateMutability": "payable",
      "type": "function"
    },
    {
      "inputs": [],
      "name": "cancelOwnershipHandover",
      "outputs": [],
      "stateMutability": "payable",
      "type": "function"
    },
    {
      "inputs": [
        {
          "internalType": "address",
          "name": "pendingOwner",
          "type": "address"
        }
      ],
      "name": "completeOwnershipHandover",
      "outputs": [],
      "stateMutability": "payable",
      "type": "function"
    },
    {
      "inputs": [
        {
          "internalType": "address",
          "name": "delegate",
          "type": "address"
        },
        {
          "internalType": "bytes",
          "name": "data",
          "type": "bytes"
        }
      ],
      "name": "delegateExecute",
      "outputs": [
        {
          "internalType": "bytes",
          "name": "result",
          "type": "bytes"
        }
      ],
      "stateMutability": "payable",
      "type": "function"
    },
    {
      "inputs": [],
      "name": "eip712Domain",
      "outputs": [
        {
          "internalType": "bytes1",
          "name": "fields",
          "type": "bytes1"
        },
        {
          "internalType": "string",
          "name": "name",
          "type": "string"
        },
        {
          "internalType": "string",
          "name": "version",
          "type": "string"
        },
        {
          "internalType": "uint256",
          "name": "chainId",
          "type": "uint256"
        },
        {
          "internalType": "address",
          "name": "verifyingContract",
          "type": "address"
        },
        {
          "internalType": "bytes32",
          "name": "salt",
          "type": "bytes32"
        },
        {
          "internalType": "uint256[]",
          "name": "extensions",
          "type": "uint256[]"
        }
      ],
      "stateMutability": "view",
      "type": "function"
    },
    {
      "inputs": [],
      "name": "entryPoint",
      "outputs": [
        {
          "internalType": "address",
          "name": "",
          "type": "address"
        }
      ],
      "stateMutability": "view",
      "type": "function"
    },
    {
      "inputs": [
        {
          "internalType": "address",
          "name": "target",
          "type": "address"
        },
        {
          "internalType": "uint256",
          "name": "value",
          "type": "uint256"
        },
        {
          "internalType": "bytes",
          "name": "data",
          "type": "bytes"
        }
      ],
      "name": "execute",
      "outputs": [
        {
          "internalType": "bytes",
          "name": "result",
          "type": "bytes"
        }
      ],
      "stateMutability": "payable",
      "type": "function"
    },
    {
      "inputs": [
        {
          "components": [
            {
              "internalType": "address",
              "name": "target",
              "type": "address"
            },
            {
              "internalType": "uint256",
              "name": "value",
              "type": "uint256"
            },
            {
              "internalType": "bytes",
              "name": "data",
              "type": "bytes"
            }
          ],
          "internalType": "struct ERC4337.Call[]",
          "name": "calls",
          "type": "tuple[]"
        }
      ],
      "name": "executeBatch",
      "outputs": [
        {
          "internalType": "bytes[]",
          "name": "results",
          "type": "bytes[]"
        }
      ],
      "stateMutability": "payable",
      "type": "function"
    },
    {
      "inputs": [],
      "name": "getDeposit",
      "outputs": [
        {
          "internalType": "uint256",
          "name": "result",
          "type": "uint256"
        }
      ],
      "stateMutability": "view",
      "type": "function"
    },
    {
      "inputs": [
        {
          "internalType": "address",
          "name": "user",
          "type": "address"
        },
        {
          "internalType": "uint256",
          "name": "roles",
          "type": "uint256"
        }
      ],
      "name": "grantRoles",
      "outputs": [],
      "stateMutability": "payable",
      "type": "function"
    },
    {
      "inputs": [
        {
          "internalType": "address",
          "name": "user",
          "type": "address"
        },
        {
          "internalType": "uint256",
          "name": "roles",
          "type": "uint256"
        }
      ],
      "name": "hasAllRoles",
      "outputs": [
        {
          "internalType": "bool",
          "name": "",
          "type": "bool"
        }
      ],
      "stateMutability": "view",
      "type": "function"
    },
    {
      "inputs": [
        {
          "internalType": "address",
          "name": "user",
          "type": "address"
        },
        {
          "internalType": "uint256",
          "name": "roles",
          "type": "uint256"
        }
      ],
      "name": "hasAnyRole",
      "outputs": [
        {
          "internalType": "bool",
          "name": "",
          "type": "bool"
        }
      ],
      "stateMutability": "view",
      "type": "function"
    },
    {
      "inputs": [
        {
          "internalType": "address",
          "name": "owner_",
          "type": "address"
        }
      ],
      "name": "initialize",
      "outputs": [],
      "stateMutability": "payable",
      "type": "function"
    },
    {
      "inputs": [
        {
          "internalType": "bytes32",
          "name": "hash",
          "type": "bytes32"
        },
        {
          "internalType": "bytes",
          "name": "signature",
          "type": "bytes"
        }
      ],
      "name": "isValidSignature",
      "outputs": [
        {
          "internalType": "bytes4",
          "name": "result",
          "type": "bytes4"
        }
      ],
      "stateMutability": "view",
      "type": "function"
    },
    {
      "inputs": [],
      "name": "owner",
      "outputs": [
        {
          "internalType": "address",
          "name": "result",
          "type": "address"
        }
      ],
      "stateMutability": "view",
      "type": "function"
    },
    {
      "inputs": [
        {
          "internalType": "address",
          "name": "pendingOwner",
          "type": "address"
        }
      ],
      "name": "ownershipHandoverExpiresAt",
      "outputs": [
        {
          "internalType": "uint256",
          "name": "result",
          "type": "uint256"
        }
      ],
      "stateMutability": "view",
      "type": "function"
    },
    {
      "inputs": [],
      "name": "proxiableUUID",
      "outputs": [
        {
          "internalType": "bytes32",
          "name": "",
          "type": "bytes32"
        }
      ],
      "stateMutability": "view",
      "type": "function"
    },
    {
      "inputs": [],
      "name": "renounceOwnership",
      "outputs": [],
      "stateMutability": "payable",
      "type": "function"
    },
    {
      "inputs": [
        {
          "internalType": "uint256",
          "name": "roles",
          "type": "uint256"
        }
      ],
      "name": "renounceRoles",
      "outputs": [],
      "stateMutability": "payable",
      "type": "function"
    },
    {
      "inputs": [],
      "name": "requestOwnershipHandover",
      "outputs": [],
      "stateMutability": "payable",
      "type": "function"
    },
    {
      "inputs": [
        {
          "internalType": "address",
          "name": "user",
          "type": "address"
        },
        {
          "internalType": "uint256",
          "name": "roles",
          "type": "uint256"
        }
      ],
      "name": "revokeRoles",
      "outputs": [],
      "stateMutability": "payable",
      "type": "function"
    },
    {
      "inputs": [
        {
          "internalType": "address",
          "name": "user",
          "type": "address"
        }
      ],
      "name": "rolesOf",
      "outputs": [
        {
          "internalType": "uint256",
          "name": "roles",
          "type": "uint256"
        }
      ],
      "stateMutability": "view",
      "type": "function"
    },
    {
      "inputs": [
        {
          "internalType": "bytes32",
          "name": "storageSlot",
          "type": "bytes32"
        }
      ],
      "name": "storageLoad",
      "outputs": [
        {
          "internalType": "bytes32",
          "name": "result",
          "type": "bytes32"
        }
      ],
      "stateMutability": "view",
      "type": "function"
    },
    {
      "inputs": [
        {
          "internalType": "bytes32",
          "name": "storageSlot",
          "type": "bytes32"
        },
        {
          "internalType": "bytes32",
          "name": "storageValue",
          "type": "bytes32"
        }
      ],
      "name": "storageStore",
      "outputs": [],
      "stateMutability": "payable",
      "type": "function"
    },
    {
      "inputs": [
        {
          "internalType": "address",
          "name": "newOwner",
          "type": "address"
        }
      ],
      "name": "transferOwnership",
      "outputs": [],
      "stateMutability": "payable",
      "type": "function"
    },
    {
      "inputs": [
        {
          "internalType": "address",
          "name": "newImplementation",
          "type": "address"
        },
        {
          "internalType": "bytes",
          "name": "data",
          "type": "bytes"
        }
      ],
      "name": "upgradeToAndCall",
      "outputs": [],
      "stateMutability": "payable",
      "type": "function"
    },
    {
      "inputs": [
        {
          "components": [
            {
              "internalType": "address",
              "name": "sender",
              "type": "address"
            },
            {
              "internalType": "uint256",
              "name": "nonce",
              "type": "uint256"
            },
            {
              "internalType": "bytes",
              "name": "initCode",
              "type": "bytes"
            },
            {
              "internalType": "bytes",
              "name": "callData",
              "type": "bytes"
            },
            {
              "internalType": "bytes32",
              "name": "accountGasLimits",
              "type": "bytes32"
            },
            {
              "internalType": "uint256",
              "name": "preVerificationGas",
              "type": "uint256"
            },
            {
              "internalType": "bytes32",
              "name": "gasFees",
              "type": "bytes32"
            },
            {
              "internalType": "bytes",
              "name": "paymasterAndData",
              "type": "bytes"
            },
            {
              "internalType": "bytes",
              "name": "signature",
              "type": "bytes"
            }
          ],
          "internalType": "struct ERC4337.PackedUserOperation",
          "name": "userOp",
          "type": "tuple"
        },
        {
          "internalType": "bytes32",
          "name": "userOpHash",
          "type": "bytes32"
        },
        {
          "internalType": "uint256",
          "name": "missingAccountFunds",
          "type": "uint256"
        }
      ],
      "name": "validateUserOp",
      "outputs": [
        {
          "internalType": "uint256",
          "name": "validationData",
          "type": "uint256"
        }
      ],
      "stateMutability": "payable",
      "type": "function"
    },
    {
      "inputs": [
        {
          "internalType": "address",
          "name": "to",
          "type": "address"
        },
        {
          "internalType": "uint256",
          "name": "amount",
          "type": "uint256"
        }
      ],
      "name": "withdrawDepositTo",
      "outputs": [],
      "stateMutability": "payable",
      "type": "function"
    },
    {
      "stateMutability": "payable",
      "type": "receive"
    }
  ],
  "bytecode": "0x6101406040523073ffffffffffffffffffffffffffffffffffffffff1660809081525034801561002d575f80fd5b503073ffffffffffffffffffffffffffffffffffffffff1660a081815250504660c0818152505060608061006561015760201b60201c565b6100805761007761015b60201b60201c565b80925081935050505b5f61008f61015760201b60201c565b6100a05782805190602001206100a4565b5f801b5b90505f6100b561015760201b60201c565b6100c65782805190602001206100ca565b5f801b5b90508160e081815250508061010081815250505f6100ec61015760201b60201c565b610136576040517f8b73c3c69bb8fe3d512ecc4cf759cc79239f7b179b0ffacaa9a75d522b39400f815283602082015282604082015246606082015230608082015260a081209150505b80610120818152505050505050506101526101d260201b60201c565b6102c8565b5f90565b6060806040518060400160405280600d81526020017f426f6f7374204163636f756e740000000000000000000000000000000000000081525091506040518060400160405280600181526020017f310000000000000000000000000000000000000000000000000000000000000081525090509091565b6101e260016101e460201b60201c565b565b6101f26102c060201b60201c565b1561026a577fffffffffffffffffffffffffffffffffffffffffffffffffffffffff7487392780541561022c57630dc149f05f526004601cfd5b8160601b60601c9150811560ff1b82178155815f7f8be0079c531659141344cd1fd0a4f28419497f9722a3daafe3b4186f6b6457e05f80a3506102bd565b8060601b60601c9050807fffffffffffffffffffffffffffffffffffffffffffffffffffffffff7487392755805f7f8be0079c531659141344cd1fd0a4f28419497f9722a3daafe3b4186f6b6457e05f80a35b50565b5f6001905090565b60805160a05160c05160e051610100516101205161236e6103165f395f61185301525f61191101525f6118ee01525f61198001525f6119a401525f8181610a770152610b73015261236e5ff3fe6080604052600436106101c5575f3560e01c806352d1902d116100f6578063b61d27f611610094578063e58378bb11610063578063e58378bb146105f6578063f04e283e14610620578063f2fde38b1461063c578063fee81cf414610658576101cc565b8063b61d27f614610544578063c399ec8814610574578063c4d66de81461059e578063cb0fec1f146105ba576101cc565b806384b0196e116100d057806384b0196e146104905780638da5cb5b146104c0578063b0d691fe146104ea578063b10cc72814610514576101cc565b806352d1902d1461045257806354d1f13d1461047c578063715018a614610486576101cc565b80632de94807116101635780634a58db191161013d5780634a58db19146103d45780634d44560d146103de5780634f1ef286146103fa578063514e62fc14610416576101cc565b80632de948071461034c57806334fcd5be146103885780634a4ee7b1146103b8576101cc565b806319822f7c1161019f57806319822f7c146102ba5780631c10893f146102ea5780631cd64df4146103065780632569296214610342576101cc565b8063125b14e5146102465780631626ba7e14610262578063183a4f6e1461029e576101cc565b366101cc57005b5f3560e01c63bc197c81811463f23a6e6182141763150b7a02821417156101f757806020526020603cf35b50610200610694565b156102125761020d61069c565b610244565b6040517f3c10b94e00000000000000000000000000000000000000000000000000000000815260040160405180910390fd5b005b610260600480360381019061025b9190611a0f565b610723565b005b34801561026d575f80fd5b5061028860048036038101906102839190611aae565b6107bf565b6040516102959190611b45565b60405180910390f35b6102b860048036038101906102b39190611b91565b6107e5565b005b6102d460048036038101906102cf9190611bdf565b6107f2565b6040516102e19190611c5a565b60405180910390f35b61030460048036038101906102ff9190611ccd565b610891565b005b348015610311575f80fd5b5061032c60048036038101906103279190611ccd565b6108a7565b6040516103399190611d25565b60405180910390f35b61034a6108bd565b005b348015610357575f80fd5b50610372600480360381019061036d9190611d3e565b61090e565b60405161037f9190611c5a565b60405180910390f35b6103a2600480360381019061039d9190611dbe565b610927565b6040516103af9190611f34565b60405180910390f35b6103d260048036038101906103cd9190611ccd565b6109e9565b005b6103dc6109ff565b005b6103f860048036038101906103f39190611ccd565b610a20565b005b610414600480360381019061040f9190611f54565b610a74565b005b348015610421575f80fd5b5061043c60048036038101906104379190611ccd565b610b58565b6040516104499190611d25565b60405180910390f35b34801561045d575f80fd5b50610466610b6f565b6040516104739190611fc0565b60405180910390f35b610484610bd1565b005b61048e610c0a565b005b34801561049b575f80fd5b506104a4610c1d565b6040516104b7979695949392919061212b565b60405180910390f35b3480156104cb575f80fd5b506104d4610c68565b6040516104e191906121ad565b60405180910390f35b3480156104f5575f80fd5b506104fe610c90565b60405161050b91906121ad565b60405180910390f35b61052e60048036038101906105299190611f54565b610ca7565b60405161053b919061220e565b60405180910390f35b61055e6004803603810190610559919061222e565b610dbe565b60405161056b919061220e565b60405180910390f35b34801561057f575f80fd5b50610588610e3a565b6040516105959190611c5a565b60405180910390f35b6105b860048036038101906105b39190611d3e565b610e6a565b005b3480156105c5575f80fd5b506105e060048036038101906105db919061229f565b610ef3565b6040516105ed9190611fc0565b60405180910390f35b348015610601575f80fd5b5061060a610efd565b6040516106179190611c5a565b60405180910390f35b61063a60048036038101906106359190611d3e565b610f02565b005b61065660048036038101906106519190611d3e565b610f40565b005b348015610663575f80fd5b5061067e60048036038101906106799190611d3e565b610f69565b60405161068b9190611c5a565b60405180910390f35b5f6001905090565b366106a5573636f35b5f6003195f5b3681101561070a578035828201185f1a600182019150806106fa578135838301185f1a6001830192505f198552607f81116106e857600181013886395b6001607f821601850194505050610705565b808453600184019350505b6106ab565b505f38835f305af43d5f803e8061071f573d5ffd5b3d5ff35b61072b610c90565b73ffffffffffffffffffffffffffffffffffffffff163373ffffffffffffffffffffffffffffffffffffffff161461076657610765610f82565b5b817f360894a13ba1a3210667c828492db98dca3e2076cc3735a920a3ca505d382bbc81147fffffffffffffffffffffffffffffffffffffffffffffffffffffffff74873927821417156107b7575f38fd5b818355505050565b5f806107cc858585611024565b905080155f03631626ba7e1760e01b9150509392505050565b6107ef3382611088565b50565b5f6107fb610c90565b73ffffffffffffffffffffffffffffffffffffffff163373ffffffffffffffffffffffffffffffffffffffff161461085f576040517f82b4290000000000000000000000000000000000000000000000000000000000815260040160405180910390fd5b8161086a8585611097565b915061087985602001356110d0565b8015610889575f385f3884335af1505b509392505050565b610899610f82565b6108a382826110d3565b5050565b5f81826108b38561090e565b1614905092915050565b5f6108c66110e3565b67ffffffffffffffff164201905063389a75e1600c52335f52806020600c2055337fdbf36a107da19e49527a7176a1babf963b4b0ff8cde35ee35d6cd8f1f9ac7e1d5f80a250565b5f638b78c6d8600c52815f526020600c20549050919050565b6060610931610c90565b73ffffffffffffffffffffffffffffffffffffffff163373ffffffffffffffffffffffffffffffffffffffff161461096c5761096b610f82565b5b6040519050818152806020018260051b81018360051b858337805b8083146109dc57825186016040810135810180356020820185375f38823586602086013586355af16109bb573d5f853e3d84fd5b8385523d8452602084013d5f823e3d81019450505050602083019250610987565b5080604052505092915050565b6109f1610f82565b6109fb8282611088565b5050565b5f610a08610c90565b90505f385f3834855af1813b02610a1d575f38fd5b50565b610a28610f82565b5f610a31610c90565b905082601452816034526f205c28780000000000000000000000005f525f38604460105f855af1813b02610a6b573d5f6040513e3d604051fd5b5f603452505050565b5f7f00000000000000000000000000000000000000000000000000000000000000009050308103610aac57639f03a0265f526004601cfd5b610ab5846110ed565b8360601b60601c93506352d1902d6001527f360894a13ba1a3210667c828492db98dca3e2076cc3735a920a3ca505d382bbc80602060016004601d895afa5114610b07576355299b496001526004601dfd5b847fbc7cd75a20ee27fd9adebab32041f755214dbc6bffa90cc0225b39da2e5c2d3b5f38a28481558215610b5157604051838582375f388583895af4610b4f573d5f823e3d81fd5b505b5050505050565b5f8082610b648561090e565b161415905092915050565b5f807f00000000000000000000000000000000000000000000000000000000000000009050308114610ba857639f03a0265f526004601cfd5b7f360894a13ba1a3210667c828492db98dca3e2076cc3735a920a3ca505d382bbc5f1b91505090565b63389a75e1600c52335f525f6020600c2055337ffa7b8eab7da67f412cc9575ed43464468f9bfbae89d1675917346ca6d8fe3c925f80a2565b610c12610f82565b610c1b5f6110f8565b565b5f6060805f805f60607f0f000000000000000000000000000000000000000000000000000000000000009650610c516111be565b809650819750505046935030925090919293949596565b5f7fffffffffffffffffffffffffffffffffffffffffffffffffffffffff7487392754905090565b5f6f71727de22e5e9d8baf0edac6f37da032905090565b6060610cb1610c90565b73ffffffffffffffffffffffffffffffffffffffff163373ffffffffffffffffffffffffffffffffffffffff1614610cec57610ceb610f82565b5b5f807f360894a13ba1a3210667c828492db98dca3e2076cc3735a920a3ca505d382bbc5490507fffffffffffffffffffffffffffffffffffffffffffffffffffffffff748739275491506040519250838584375f388585895af4610d52573d5f843e3d83fd5b3d8352602083013d5f823e3d8101604052507fffffffffffffffffffffffffffffffffffffffffffffffffffffffff748739275482147f360894a13ba1a3210667c828492db98dca3e2076cc3735a920a3ca505d382bbc54821416610db5575f38fd5b50509392505050565b6060610dc8610c90565b73ffffffffffffffffffffffffffffffffffffffff163373ffffffffffffffffffffffffffffffffffffffff1614610e0357610e02610f82565b5b6040519050818382375f38838387895af1610e20573d5f823e3d81fd5b3d8152602081013d5f823e3d810160405250949350505050565b5f80610e44610c90565b9050306020526370a082315f526020806024601c845afa601f3d11166020510291505090565b5f610e73611235565b90508054600382558015610ea55760018160011c14303b10610e9c5763f92ee8a95f526004601cfd5b818160ff1b1b91505b50610eaf8261125e565b610eba8260026110d3565b8015610eef576002815560016020527fc7f505b2f371ae2175ee4913f4499e1f2633a7b5936321eed1cdaeb6115181d2602080a15b5050565b5f81549050919050565b600281565b610f0a610f82565b63389a75e1600c52805f526020600c208054421115610f3057636f5e88185f526004601cfd5b5f815550610f3d816110f8565b50565b610f48610f82565b8060601b610f5d57637448fbae5f526004601cfd5b610f66816110f8565b50565b5f63389a75e1600c52815f526020600c20549050919050565b610f8a610c68565b73ffffffffffffffffffffffffffffffffffffffff163373ffffffffffffffffffffffffffffffffffffffff1614611022573073ffffffffffffffffffffffffffffffffffffffff163373ffffffffffffffffffffffffffffffffffffffff1614611021576040517f82b4290000000000000000000000000000000000000000000000000000000000815260040160405180910390fd5b5b565b5f61ffff6060511904616492026020830384013503611050576040830135830180359250602081019350505b61105b848484611334565b8061106d575061106c84848461135f565b5b8061107f575061107e84848461155a565b5b90509392505050565b61109382825f6115db565b5050565b5f806110c36110a4610c68565b6110ad85611633565b868061010001906110be91906122d6565b611663565b9050801591505092915050565b50565b6110df828260016115db565b5050565b5f6202a300905090565b6110f5610f82565b50565b61110061175b565b15611165577fffffffffffffffffffffffffffffffffffffffffffffffffffffffff748739278160601b60601c91508181547f8be0079c531659141344cd1fd0a4f28419497f9722a3daafe3b4186f6b6457e05f80a3811560ff1b82178155506111bb565b7fffffffffffffffffffffffffffffffffffffffffffffffffffffffff748739278160601b60601c91508181547f8be0079c531659141344cd1fd0a4f28419497f9722a3daafe3b4186f6b6457e05f80a3818155505b50565b6060806040518060400160405280600d81526020017f426f6f7374204163636f756e740000000000000000000000000000000000000081525091506040518060400160405280600181526020017f310000000000000000000000000000000000000000000000000000000000000081525090509091565b5f7fffffffffffffffffffffffffffffffffffffffffffffffffffffffffbf6011325f1b905090565b61126661175b565b156112de577fffffffffffffffffffffffffffffffffffffffffffffffffffffffff748739278054156112a057630dc149f05f526004601cfd5b8160601b60601c9150811560ff1b82178155815f7f8be0079c531659141344cd1fd0a4f28419497f9722a3daafe3b4186f6b6457e05f80a350611331565b8060601b60601c9050807fffffffffffffffffffffffffffffffffffffffffffffffffffffffff7487392755805f7f8be0079c531659141344cd1fd0a4f28419497f9722a3daafe3b4186f6b6457e05f80a35b50565b5f61133d611763565b156113585761135561134d6117a6565b858585611663565b90505b9392505050565b5f806113696117b4565b90506040516020840385013561ffff16600115611526578060420180860387016040816020376119015f52821582881017896042601e201817156113db577f983e65e5148e570cd828ead231ee759a8d7958721a768f93bc4483ba005c32de5f528860205260405f2098505050611526565b7f5479706564446174615369676e280000000000000000000000000000000000008452600e84018360408301823780515f1a8060281460618203601a111790506028858301525b6001156114545781515f1a8060280361143b5750611454565b65120100000001811c8217915050600182019150611422565b7f20636f6e74656e74732c627974657331206669656c64732c737472696e67206e82527f616d652c737472696e672076657273696f6e2c75696e7432353620636861696e60208301527f49642c6164647265737320766572696679696e67436f6e74726163742c62797460408301527f657333322073616c742c75696e743235365b5d20657874656e73696f6e73290060608301528460408401607f84013760408388378585607f8401010386208752610120872060405280600116604201601e209a50600197508389039850505050505b8160405250508161153d5761153a85611834565b94505b6115506115486117a6565b868686611663565b9150509392505050565b5f803a036115d4573a3a526d378edcd5b5b0a24f5342d8c1048560203a3a388461fffffa503a516115bd57604051631626ba7e3a528160205260408052454561ffff0117805a1083881417156115ac57fe5b3a3a6064601c3085fa508160405250505b506115d16115c96117a6565b858585611663565b90505b9392505050565b638b78c6d8600c52825f526020600c208054838117836115fd57848216821890505b80835580600c5160601c7f715ad5ce61fc9595c7b415289d59cf203f23a94fa06f04af7e489a0a76e1fe265f80a3505050505050565b5f816020527b19457468657265756d205369676e6564204d6573736167653a0a33325f52603c6004209050919050565b5f8460601b60601c9450841561175357604051845f52604083036116cc576020840135601b8160ff1c0160205284356040528060011b60011c6060526020600160805f60015afa805188183d15176116c957600193505f60605282604052505050611753565b50505b6041830361170f5760408401355f1a6020526040846040376020600160805f60015afa805187183d151761170d57600192505f606052816040525050611753565b505b5f60605280604052631626ba7e60e01b80825285600483015260248201604081528460448401528486606485013760208160648701858b5afa828251141693505050505b949350505050565b5f6001905090565b5f6dd9ecebf3c23529de49815dac1c4c73ffffffffffffffffffffffffffffffffffffffff163373ffffffffffffffffffffffffffffffffffffffff1614905090565b5f6117af610c68565b905090565b5f805f805f805f806117c4610c1d565b965096509650965096509650965060405197506101208801604052865f1a60f81b60408901528551602087012060608901528451602086012060808901528360a08901528260601b60601c60c08901528160e0890152805160051b60208201206101008901525050505050505090565b5f61183d6118b0565b156118515761184a6118b4565b905061188d565b7f0000000000000000000000000000000000000000000000000000000000000000905061187c61197c565b1561188c576118896118b4565b90505b5b6719010000000000005f5280601a5281603a52604260182090505f603a52919050565b5f90565b5f806118be6118b0565b156118ec575f806118cd6111be565b9150915081805190602001209350808051906020012092505050611933565b7f000000000000000000000000000000000000000000000000000000000000000091507f000000000000000000000000000000000000000000000000000000000000000090505b6040517f8b73c3c69bb8fe3d512ecc4cf759cc79239f7b179b0ffacaa9a75d522b39400f815282602082015281604082015246606082015230608082015260a081209250505090565b5f807f000000000000000000000000000000000000000000000000000000000000000090505f7f0000000000000000000000000000000000000000000000000000000000000000905080301482461416159250505090565b5f80fd5b5f80fd5b5f819050919050565b6119ee816119dc565b81146119f8575f80fd5b50565b5f81359050611a09816119e5565b92915050565b5f8060408385031215611a2557611a246119d4565b5b5f611a32858286016119fb565b9250506020611a43858286016119fb565b9150509250929050565b5f80fd5b5f80fd5b5f80fd5b5f8083601f840112611a6e57611a6d611a4d565b5b8235905067ffffffffffffffff811115611a8b57611a8a611a51565b5b602083019150836001820283011115611aa757611aa6611a55565b5b9250929050565b5f805f60408486031215611ac557611ac46119d4565b5b5f611ad2868287016119fb565b935050602084013567ffffffffffffffff811115611af357611af26119d8565b5b611aff86828701611a59565b92509250509250925092565b5f7fffffffff0000000000000000000000000000000000000000000000000000000082169050919050565b611b3f81611b0b565b82525050565b5f602082019050611b585f830184611b36565b92915050565b5f819050919050565b611b7081611b5e565b8114611b7a575f80fd5b50565b5f81359050611b8b81611b67565b92915050565b5f60208284031215611ba657611ba56119d4565b5b5f611bb384828501611b7d565b91505092915050565b5f80fd5b5f6101208284031215611bd657611bd5611bbc565b5b81905092915050565b5f805f60608486031215611bf657611bf56119d4565b5b5f84013567ffffffffffffffff811115611c1357611c126119d8565b5b611c1f86828701611bc0565b9350506020611c30868287016119fb565b9250506040611c4186828701611b7d565b9150509250925092565b611c5481611b5e565b82525050565b5f602082019050611c6d5f830184611c4b565b92915050565b5f73ffffffffffffffffffffffffffffffffffffffff82169050919050565b5f611c9c82611c73565b9050919050565b611cac81611c92565b8114611cb6575f80fd5b50565b5f81359050611cc781611ca3565b92915050565b5f8060408385031215611ce357611ce26119d4565b5b5f611cf085828601611cb9565b9250506020611d0185828601611b7d565b9150509250929050565b5f8115159050919050565b611d1f81611d0b565b82525050565b5f602082019050611d385f830184611d16565b92915050565b5f60208284031215611d5357611d526119d4565b5b5f611d6084828501611cb9565b91505092915050565b5f8083601f840112611d7e57611d7d611a4d565b5b8235905067ffffffffffffffff811115611d9b57611d9a611a51565b5b602083019150836020820283011115611db757611db6611a55565b5b9250929050565b5f8060208385031215611dd457611dd36119d4565b5b5f83013567ffffffffffffffff811115611df157611df06119d8565b5b611dfd85828601611d69565b92509250509250929050565b5f81519050919050565b5f82825260208201905092915050565b5f819050602082019050919050565b5f81519050919050565b5f82825260208201905092915050565b8281835e5f83830152505050565b5f601f19601f8301169050919050565b5f611e7482611e32565b611e7e8185611e3c565b9350611e8e818560208601611e4c565b611e9781611e5a565b840191505092915050565b5f611ead8383611e6a565b905092915050565b5f602082019050919050565b5f611ecb82611e09565b611ed58185611e13565b935083602082028501611ee785611e23565b805f5b85811015611f225784840389528151611f038582611ea2565b9450611f0e83611eb5565b925060208a01995050600181019050611eea565b50829750879550505050505092915050565b5f6020820190508181035f830152611f4c8184611ec1565b905092915050565b5f805f60408486031215611f6b57611f6a6119d4565b5b5f611f7886828701611cb9565b935050602084013567ffffffffffffffff811115611f9957611f986119d8565b5b611fa586828701611a59565b92509250509250925092565b611fba816119dc565b82525050565b5f602082019050611fd35f830184611fb1565b92915050565b5f7fff0000000000000000000000000000000000000000000000000000000000000082169050919050565b61200d81611fd9565b82525050565b5f81519050919050565b5f82825260208201905092915050565b5f61203782612013565b612041818561201d565b9350612051818560208601611e4c565b61205a81611e5a565b840191505092915050565b61206e81611c92565b82525050565b5f81519050919050565b5f82825260208201905092915050565b5f819050602082019050919050565b6120a681611b5e565b82525050565b5f6120b7838361209d565b60208301905092915050565b5f602082019050919050565b5f6120d982612074565b6120e3818561207e565b93506120ee8361208e565b805f5b8381101561211e57815161210588826120ac565b9750612110836120c3565b9250506001810190506120f1565b5085935050505092915050565b5f60e08201905061213e5f83018a612004565b8181036020830152612150818961202d565b90508181036040830152612164818861202d565b90506121736060830187611c4b565b6121806080830186612065565b61218d60a0830185611fb1565b81810360c083015261219f81846120cf565b905098975050505050505050565b5f6020820190506121c05f830184612065565b92915050565b5f82825260208201905092915050565b5f6121e082611e32565b6121ea81856121c6565b93506121fa818560208601611e4c565b61220381611e5a565b840191505092915050565b5f6020820190508181035f83015261222681846121d6565b905092915050565b5f805f8060608587031215612246576122456119d4565b5b5f61225387828801611cb9565b945050602061226487828801611b7d565b935050604085013567ffffffffffffffff811115612285576122846119d8565b5b61229187828801611a59565b925092505092959194509250565b5f602082840312156122b4576122b36119d4565b5b5f6122c1848285016119fb565b91505092915050565b5f80fd5b5f80fd5b5f80fd5b5f80833560016020038436030381126122f2576122f16122ca565b5b80840192508235915067ffffffffffffffff821115612314576123136122ce565b5b6020830192506001820236038313156123305761232f6122d2565b5b50925092905056fea26469706673582212203aa12cc7d65e3acf874f75b10f898a8f4af28bf37ac90ea7aaf9f888d23cffbd64736f6c63430008190033",
  "linkReferences": {},
  "deployedLinkReferences": {}
}