{
  "_format": "hh-sol-artifact-1",
  "contractName": "ERC20Incentive",
  "sourceName": "contracts/incentives/ERC20Incentive.sol",
  "abi": [
    {
      "inputs": [],
      "stateMutability": "nonpayable",
      "type": "constructor"
    },
    {
      "inputs": [],
      "name": "AlreadyInitialized",
      "type": "error"
    },
    {
      "inputs": [],
      "name": "ClaimFailed",
      "type": "error"
    },
    {
      "inputs": [
        {
          "internalType": "address",
          "name": "caller",
          "type": "address"
        },
        {
          "internalType": "bytes",
          "name": "data",
          "type": "bytes"
        }
      ],
      "name": "ClaimFailed",
      "type": "error"
    },
    {
      "inputs": [],
      "name": "CloneAlreadyInitialized",
      "type": "error"
    },
    {
      "inputs": [],
      "name": "InitializerNotImplemented",
      "type": "error"
    },
    {
      "inputs": [
        {
          "internalType": "address",
          "name": "asset",
          "type": "address"
        },
        {
          "internalType": "uint256",
          "name": "available",
          "type": "uint256"
        },
        {
          "internalType": "uint256",
          "name": "required",
          "type": "uint256"
        }
      ],
      "name": "InsufficientFunds",
      "type": "error"
    },
    {
      "inputs": [],
      "name": "InvalidInitialization",
      "type": "error"
    },
    {
      "inputs": [],
      "name": "InvalidInitialization",
      "type": "error"
    },
    {
      "inputs": [],
      "name": "InvalidInitializationData",
      "type": "error"
    },
    {
      "inputs": [],
      "name": "NewOwnerIsZeroAddress",
      "type": "error"
    },
    {
      "inputs": [],
      "name": "NoHandoverRequest",
      "type": "error"
    },
    {
      "inputs": [],
      "name": "NotClaimable",
      "type": "error"
    },
    {
      "inputs": [],
      "name": "NotImplemented",
      "type": "error"
    },
    {
      "inputs": [],
      "name": "NotInitializing",
      "type": "error"
    },
    {
      "inputs": [],
      "name": "Reentrancy",
      "type": "error"
    },
    {
      "inputs": [],
      "name": "Unauthorized",
      "type": "error"
    },
    {
      "inputs": [],
      "name": "Unauthorized",
      "type": "error"
    },
    {
      "anonymous": false,
      "inputs": [
        {
          "indexed": true,
          "internalType": "address",
          "name": "recipient",
          "type": "address"
        },
        {
          "indexed": false,
          "internalType": "bytes",
          "name": "data",
          "type": "bytes"
        }
      ],
      "name": "Claimed",
      "type": "event"
    },
    {
      "anonymous": false,
      "inputs": [
        {
          "indexed": true,
          "internalType": "address",
          "name": "entry",
          "type": "address"
        }
      ],
      "name": "Entry",
      "type": "event"
    },
    {
      "anonymous": false,
      "inputs": [
        {
          "indexed": false,
          "internalType": "uint64",
          "name": "version",
          "type": "uint64"
        }
      ],
      "name": "Initialized",
      "type": "event"
    },
    {
      "anonymous": false,
      "inputs": [
        {
          "indexed": true,
          "internalType": "address",
          "name": "pendingOwner",
          "type": "address"
        }
      ],
      "name": "OwnershipHandoverCanceled",
      "type": "event"
    },
    {
      "anonymous": false,
      "inputs": [
        {
          "indexed": true,
          "internalType": "address",
          "name": "pendingOwner",
          "type": "address"
        }
      ],
      "name": "OwnershipHandoverRequested",
      "type": "event"
    },
    {
      "anonymous": false,
      "inputs": [
        {
          "indexed": true,
          "internalType": "address",
          "name": "oldOwner",
          "type": "address"
        },
        {
          "indexed": true,
          "internalType": "address",
          "name": "newOwner",
          "type": "address"
        }
      ],
      "name": "OwnershipTransferred",
      "type": "event"
    },
    {
      "inputs": [],
      "name": "asset",
      "outputs": [
        {
          "internalType": "address",
          "name": "",
          "type": "address"
        }
      ],
      "stateMutability": "view",
      "type": "function"
    },
    {
      "inputs": [],
      "name": "cancelOwnershipHandover",
      "outputs": [],
      "stateMutability": "payable",
      "type": "function"
    },
    {
      "inputs": [
        {
          "internalType": "bytes",
          "name": "data_",
          "type": "bytes"
        }
      ],
      "name": "claim",
      "outputs": [
        {
          "internalType": "bool",
          "name": "",
          "type": "bool"
        }
      ],
      "stateMutability": "nonpayable",
      "type": "function"
    },
    {
      "inputs": [
        {
          "internalType": "address",
          "name": "",
          "type": "address"
        }
      ],
      "name": "claimed",
      "outputs": [
        {
          "internalType": "bool",
          "name": "",
          "type": "bool"
        }
      ],
      "stateMutability": "view",
      "type": "function"
    },
    {
      "inputs": [],
      "name": "claims",
      "outputs": [
        {
          "internalType": "uint256",
          "name": "",
          "type": "uint256"
        }
      ],
      "stateMutability": "view",
      "type": "function"
    },
    {
      "inputs": [
        {
          "internalType": "address",
          "name": "pendingOwner",
          "type": "address"
        }
      ],
      "name": "completeOwnershipHandover",
      "outputs": [],
      "stateMutability": "payable",
      "type": "function"
    },
    {
      "inputs": [],
      "name": "drawRaffle",
      "outputs": [],
      "stateMutability": "nonpayable",
      "type": "function"
    },
    {
      "inputs": [
        {
          "internalType": "uint256",
          "name": "",
          "type": "uint256"
        }
      ],
      "name": "entries",
      "outputs": [
        {
          "internalType": "address",
          "name": "",
          "type": "address"
        }
      ],
      "stateMutability": "view",
      "type": "function"
    },
    {
      "inputs": [
        {
          "internalType": "bytes",
          "name": "data_",
          "type": "bytes"
        }
      ],
      "name": "initialize",
      "outputs": [],
      "stateMutability": "nonpayable",
      "type": "function"
    },
    {
      "inputs": [],
      "name": "interfaceName",
      "outputs": [
        {
          "internalType": "string",
          "name": "",
          "type": "string"
        }
      ],
      "stateMutability": "pure",
      "type": "function"
    },
    {
      "inputs": [
        {
          "internalType": "bytes",
          "name": "data_",
          "type": "bytes"
        }
      ],
      "name": "isClaimable",
      "outputs": [
        {
          "internalType": "bool",
          "name": "",
          "type": "bool"
        }
      ],
      "stateMutability": "view",
      "type": "function"
    },
    {
      "inputs": [],
      "name": "limit",
      "outputs": [
        {
          "internalType": "uint256",
          "name": "",
          "type": "uint256"
        }
      ],
      "stateMutability": "view",
      "type": "function"
    },
    {
      "inputs": [],
      "name": "owner",
      "outputs": [
        {
          "internalType": "address",
          "name": "result",
          "type": "address"
        }
      ],
      "stateMutability": "view",
      "type": "function"
    },
    {
      "inputs": [
        {
          "internalType": "address",
          "name": "pendingOwner",
          "type": "address"
        }
      ],
      "name": "ownershipHandoverExpiresAt",
      "outputs": [
        {
          "internalType": "uint256",
          "name": "result",
          "type": "uint256"
        }
      ],
      "stateMutability": "view",
      "type": "function"
    },
    {
      "inputs": [
        {
          "internalType": "bytes",
          "name": "data_",
          "type": "bytes"
        }
      ],
      "name": "preflight",
      "outputs": [
        {
          "internalType": "bytes",
          "name": "budgetData",
          "type": "bytes"
        }
      ],
      "stateMutability": "view",
      "type": "function"
    },
    {
      "inputs": [
        {
          "internalType": "bytes",
          "name": "data_",
          "type": "bytes"
        }
      ],
      "name": "reclaim",
      "outputs": [
        {
          "internalType": "bool",
          "name": "",
          "type": "bool"
        }
      ],
      "stateMutability": "nonpayable",
      "type": "function"
    },
    {
      "inputs": [],
      "name": "renounceOwnership",
      "outputs": [],
      "stateMutability": "payable",
      "type": "function"
    },
    {
      "inputs": [],
      "name": "requestOwnershipHandover",
      "outputs": [],
      "stateMutability": "payable",
      "type": "function"
    },
    {
      "inputs": [],
      "name": "reward",
      "outputs": [
        {
          "internalType": "uint256",
          "name": "",
          "type": "uint256"
        }
      ],
      "stateMutability": "view",
      "type": "function"
    },
    {
      "inputs": [],
      "name": "strategy",
      "outputs": [
        {
          "internalType": "enum ERC20Incentive.Strategy",
          "name": "",
          "type": "uint8"
        }
      ],
      "stateMutability": "view",
      "type": "function"
    },
    {
      "inputs": [
        {
          "internalType": "bytes4",
          "name": "interfaceId",
          "type": "bytes4"
        }
      ],
      "name": "supportsInterface",
      "outputs": [
        {
          "internalType": "bool",
          "name": "",
          "type": "bool"
        }
      ],
      "stateMutability": "view",
      "type": "function"
    },
    {
      "inputs": [
        {
          "internalType": "address",
          "name": "newOwner",
          "type": "address"
        }
      ],
      "name": "transferOwnership",
      "outputs": [],
      "stateMutability": "payable",
      "type": "function"
    }
  ],
  "bytecode": "0x608060405234801561000f575f80fd5b5061001f3361003260201b60201c565b61002d61010e60201b60201c565b6101a7565b61004061017a60201b60201c565b156100b8577fffffffffffffffffffffffffffffffffffffffffffffffffffffffff7487392780541561007a57630dc149f05f526004601cfd5b8160601b60601c9150811560ff1b82178155815f7f8be0079c531659141344cd1fd0a4f28419497f9722a3daafe3b4186f6b6457e05f80a35061010b565b8060601b60601c9050807fffffffffffffffffffffffffffffffffffffffffffffffffffffffff7487392755805f7f8be0079c531659141344cd1fd0a4f28419497f9722a3daafe3b4186f6b6457e05f80a35b50565b5f61011d61017e60201b60201c565b9050805460018116156101375763f92ee8a95f526004601cfd5b8160c01c808260011c14610175578060011b8355806020527fc7f505b2f371ae2175ee4913f4499e1f2633a7b5936321eed1cdaeb6115181d2602080a15b505050565b5f90565b5f7fffffffffffffffffffffffffffffffffffffffffffffffffffffffffbf6011325f1b905090565b6122a2806101b45f395ff3fe608060405260043610610134575f3560e01c8063a4d66daf116100aa578063dcc59b6f1161006e578063dcc59b6f146103bc578063e18e6508146103e6578063f04e283e14610422578063f1c30ec01461043e578063f2fde38b1461047a578063fee81cf41461049657610134565b8063a4d66daf146102b4578063a8c62e76146102de578063b30906d414610308578063c63ff8dd14610344578063c884ef831461038057610134565b8063439fab91116100fc578063439fab91146101e85780634e7165a21461021057806354d1f13d1461024c5780636e441e4c14610256578063715018a6146102805780638da5cb5b1461028a57610134565b806301ffc9a7146101385780632275aea914610174578063228cb7331461018a57806325692962146101b457806338d52e0f146101be575b5f80fd5b348015610143575f80fd5b5061015e6004803603810190610159919061172d565b6104d2565b60405161016b9190611772565b60405180910390f35b34801561017f575f80fd5b5061018861054b565b005b348015610195575f80fd5b5061019e610718565b6040516101ab91906117a3565b60405180910390f35b6101bc61071e565b005b3480156101c9575f80fd5b506101d261076f565b6040516101df91906117fb565b60405180910390f35b3480156101f3575f80fd5b5061020e60048036038101906102099190611875565b610794565b005b34801561021b575f80fd5b5061023660048036038101906102319190611875565b610a29565b6040516102439190611930565b60405180910390f35b610254610b47565b005b348015610261575f80fd5b5061026a610b80565b60405161027791906119a2565b60405180910390f35b610288610bbd565b005b348015610295575f80fd5b5061029e610bd0565b6040516102ab91906117fb565b60405180910390f35b3480156102bf575f80fd5b506102c8610bf8565b6040516102d591906117a3565b60405180910390f35b3480156102e9575f80fd5b506102f2610bfe565b6040516102ff9190611a35565b60405180910390f35b348015610313575f80fd5b5061032e60048036038101906103299190611a78565b610c11565b60405161033b91906117fb565b60405180910390f35b34801561034f575f80fd5b5061036a60048036038101906103659190611875565b610c4c565b6040516103779190611772565b60405180910390f35b34801561038b575f80fd5b506103a660048036038101906103a19190611acd565b610faa565b6040516103b39190611772565b60405180910390f35b3480156103c7575f80fd5b506103d0610fc7565b6040516103dd91906117a3565b60405180910390f35b3480156103f1575f80fd5b5061040c60048036038101906104079190611875565b610fcc565b6040516104199190611772565b60405180910390f35b61043c60048036038101906104379190611acd565b610ff4565b005b348015610449575f80fd5b50610464600480360381019061045f9190611875565b611032565b6040516104719190611772565b60405180910390f35b610494600480360381019061048f9190611acd565b6112ad565b005b3480156104a1575f80fd5b506104bc60048036038101906104b79190611acd565b6112d6565b6040516104c991906117a3565b60405180910390f35b5f7f8dbd4bfc000000000000000000000000000000000000000000000000000000007bffffffffffffffffffffffffffffffffffffffffffffffffffffffff1916827bffffffffffffffffffffffffffffffffffffffffffffffffffffffff191614806105445750610543826112ef565b5b9050919050565b610553611368565b600280811115610566576105656119c2565b5b600260149054906101000a900460ff166002811115610588576105876119c2565b5b146105bf576040517f82b4290000000000000000000000000000000000000000000000000000000000815260040160405180910390fd5b5f604051806020016040528042446105d79190611b25565b81525090505f600580805490506105ed8461139f565b6105f79190611b85565b8154811061060857610607611bb5565b5b905f5260205f20015f9054906101000a900473ffffffffffffffffffffffffffffffffffffffff1690506106808160035460025f9054906101000a900473ffffffffffffffffffffffffffffffffffffffff1673ffffffffffffffffffffffffffffffffffffffff166113ae9092919063ffffffff16565b8073ffffffffffffffffffffffffffffffffffffffff167f9ad2e7a4af16dceda9cce4274b2f59c328d8c012eb0e15eb5e1e73b7d8f264d360025f9054906101000a900473ffffffffffffffffffffffffffffffffffffffff16836003546040516020016106f093929190611c47565b60405160208183030381529060405260405161070c9190611930565b60405180910390a25050565b60035481565b5f6107276113f7565b67ffffffffffffffff164201905063389a75e1600c52335f52806020600c2055337fdbf36a107da19e49527a7176a1babf963b4b0ff8cde35ee35d6cd8f1f9ac7e1d5f80a250565b60025f9054906101000a900473ffffffffffffffffffffffffffffffffffffffff1681565b5f61079d611401565b905080546003825580156107cf5760018160011c14303b106107c65763f92ee8a95f526004601cfd5b818160ff1b1b91505b505f83838101906107e09190611d9b565b9050600160028111156107f6576107f56119c2565b5b8160200151600281111561080d5761080c6119c2565b5b03610844576040517fd623472500000000000000000000000000000000000000000000000000000000815260040160405180910390fd5b5f8160400151148061085957505f8160600151145b15610890576040517ff92ee8a900000000000000000000000000000000000000000000000000000000815260040160405180910390fd5b5f6002808111156108a4576108a36119c2565b5b826020015160028111156108bb576108ba6119c2565b5b036108ca5781604001516108df565b816060015182604001516108de9190611dc6565b5b90505f61090e30845f015173ffffffffffffffffffffffffffffffffffffffff1661142a90919063ffffffff16565b90508181101561095c57825f015181836040517f5c54305e00000000000000000000000000000000000000000000000000000000815260040161095393929190611e07565b60405180910390fd5b825f015160025f6101000a81548173ffffffffffffffffffffffffffffffffffffffff021916908373ffffffffffffffffffffffffffffffffffffffff1602179055508260200151600260146101000a81548160ff021916908360028111156109c8576109c76119c2565b5b0217905550826040015160038190555082606001516004819055506109ec3361145d565b5050508015610a24576002815560016020527fc7f505b2f371ae2175ee4913f4499e1f2633a7b5936321eed1cdaeb6115181d2602080a15b505050565b60605f8383810190610a3b9190611d9b565b90505f600280811115610a5157610a506119c2565b5b82602001516002811115610a6857610a676119c2565b5b03610a77578160400151610a8c565b81606001518260400151610a8b9190611dc6565b5b9050604051806080016040528060016002811115610aad57610aac6119c2565b5b8152602001835f015173ffffffffffffffffffffffffffffffffffffffff1681526020013073ffffffffffffffffffffffffffffffffffffffff168152602001604051806020016040528084815250604051602001610b0c9190611e65565b604051602081830303815290604052815250604051602001610b2e9190611f7b565b6040516020818303038152906040529250505092915050565b63389a75e1600c52335f525f6020600c2055337ffa7b8eab7da67f412cc9575ed43464468f9bfbae89d1675917346ca6d8fe3c925f80a2565b60606040518060400160405280600e81526020017f4552433230496e63656e74697665000000000000000000000000000000000000815250905090565b610bc5611368565b610bce5f611533565b565b5f7fffffffffffffffffffffffffffffffffffffffffffffffffffffffff7487392754905090565b60045481565b600260149054906101000a900460ff1681565b60058181548110610c20575f80fd5b905f5260205f20015f915054906101000a900473ffffffffffffffffffffffffffffffffffffffff1681565b5f610c55611368565b5f8383810190610c6591906120b4565b9050610c73815f01516115f9565b610ca9576040517f6247a84e00000000000000000000000000000000000000000000000000000000815260040160405180910390fd5b5f6002811115610cbc57610cbb6119c2565b5b600260149054906101000a900460ff166002811115610cde57610cdd6119c2565b5b03610e45575f80815480929190610cf4906120fb565b91905055506001805f835f015173ffffffffffffffffffffffffffffffffffffffff1673ffffffffffffffffffffffffffffffffffffffff1681526020019081526020015f205f6101000a81548160ff021916908315150217905550610da1815f015160035460025f9054906101000a900473ffffffffffffffffffffffffffffffffffffffff1673ffffffffffffffffffffffffffffffffffffffff166113ae9092919063ffffffff16565b805f015173ffffffffffffffffffffffffffffffffffffffff167f9ad2e7a4af16dceda9cce4274b2f59c328d8c012eb0e15eb5e1e73b7d8f264d360025f9054906101000a900473ffffffffffffffffffffffffffffffffffffffff16835f0151600354604051602001610e1793929190611c47565b604051602081830303815290604052604051610e339190611930565b60405180910390a26001915050610fa4565b600280811115610e5857610e576119c2565b5b600260149054906101000a900460ff166002811115610e7a57610e796119c2565b5b03610f9f575f80815480929190610e90906120fb565b91905055506001805f835f015173ffffffffffffffffffffffffffffffffffffffff1673ffffffffffffffffffffffffffffffffffffffff1681526020019081526020015f205f6101000a81548160ff0219169083151502179055506005815f0151908060018154018082558091505060019003905f5260205f20015f9091909190916101000a81548173ffffffffffffffffffffffffffffffffffffffff021916908373ffffffffffffffffffffffffffffffffffffffff160217905550805f015173ffffffffffffffffffffffffffffffffffffffff167ff0abe0f5c6f02112a9a4332e7b091bf49040ffddeedb73785a9b9a0a3ca7f15360405160405180910390a26001915050610fa4565b5f9150505b92915050565b6001602052805f5260405f205f915054906101000a900460ff1681565b5f5481565b5f808383810190610fdd91906120b4565b9050610feb815f01516115f9565b91505092915050565b610ffc611368565b63389a75e1600c52805f526020600c20805442111561102257636f5e88185f526004601cfd5b5f81555061102f81611533565b50565b5f61103b611368565b5f838381019061104b91906120b4565b90505f81602001518060200190518101906110669190612156565b905060028081111561107b5761107a6119c2565b5b600260149054906101000a900460ff16600281111561109d5761109c6119c2565b5b0361112257600354811415806110b357505f8054115b156111165733826040516020016110ca91906121bb565b6040516020818303038152906040526040517f4139d81d00000000000000000000000000000000000000000000000000000000815260040161110d9291906121db565b60405180910390fd5b5f6004819055506111ba565b5f600354826111319190611b85565b1461119457338260405160200161114891906121bb565b6040516020818303038152906040526040517f4139d81d00000000000000000000000000000000000000000000000000000000815260040161118b9291906121db565b60405180910390fd5b600354816111a29190612209565b60045f8282546111b29190612239565b925050819055505b611209825f01518260025f9054906101000a900473ffffffffffffffffffffffffffffffffffffffff1673ffffffffffffffffffffffffffffffffffffffff166113ae9092919063ffffffff16565b815f015173ffffffffffffffffffffffffffffffffffffffff167f9ad2e7a4af16dceda9cce4274b2f59c328d8c012eb0e15eb5e1e73b7d8f264d360025f9054906101000a900473ffffffffffffffffffffffffffffffffffffffff16845f01518460405160200161127d93929190611c47565b6040516020818303038152906040526040516112999190611930565b60405180910390a260019250505092915050565b6112b5611368565b8060601b6112ca57637448fbae5f526004601cfd5b6112d381611533565b50565b5f63389a75e1600c52815f526020600c20549050919050565b5f7f2c247c7a000000000000000000000000000000000000000000000000000000007bffffffffffffffffffffffffffffffffffffffffffffffffffffffff1916827bffffffffffffffffffffffffffffffffffffffffffffffffffffffff1916148061136157506113608261165a565b5b9050919050565b7fffffffffffffffffffffffffffffffffffffffffffffffffffffffff7487392754331461139d576382b429005f526004601cfd5b565b5f602082209050808252919050565b81601452806034526fa9059cbb0000000000000000000000005f5260205f604460105f875af13d1560015f511417166113ee576390b8ec185f526004601cfd5b5f603452505050565b5f6202a300905090565b5f7fffffffffffffffffffffffffffffffffffffffffffffffffffffffffbf6011325f1b905090565b5f816014526f70a082310000000000000000000000005f5260208060246010865afa601f3d111660205102905092915050565b6114656116c3565b156114dd577fffffffffffffffffffffffffffffffffffffffffffffffffffffffff7487392780541561149f57630dc149f05f526004601cfd5b8160601b60601c9150811560ff1b82178155815f7f8be0079c531659141344cd1fd0a4f28419497f9722a3daafe3b4186f6b6457e05f80a350611530565b8060601b60601c9050807fffffffffffffffffffffffffffffffffffffffffffffffffffffffff7487392755805f7f8be0079c531659141344cd1fd0a4f28419497f9722a3daafe3b4186f6b6457e05f80a35b50565b61153b6116c3565b156115a0577fffffffffffffffffffffffffffffffffffffffffffffffffffffffff748739278160601b60601c91508181547f8be0079c531659141344cd1fd0a4f28419497f9722a3daafe3b4186f6b6457e05f80a3811560ff1b82178155506115f6565b7fffffffffffffffffffffffffffffffffffffffffffffffffffffffff748739278160601b60601c91508181547f8be0079c531659141344cd1fd0a4f28419497f9722a3daafe3b4186f6b6457e05f80a3818155505b50565b5f60015f8373ffffffffffffffffffffffffffffffffffffffff1673ffffffffffffffffffffffffffffffffffffffff1681526020019081526020015f205f9054906101000a900460ff1615801561165357506004545f54105b9050919050565b5f7f01ffc9a7000000000000000000000000000000000000000000000000000000007bffffffffffffffffffffffffffffffffffffffffffffffffffffffff1916827bffffffffffffffffffffffffffffffffffffffffffffffffffffffff1916149050919050565b5f90565b5f604051905090565b5f80fd5b5f80fd5b5f7fffffffff0000000000000000000000000000000000000000000000000000000082169050919050565b61170c816116d8565b8114611716575f80fd5b50565b5f8135905061172781611703565b92915050565b5f60208284031215611742576117416116d0565b5b5f61174f84828501611719565b91505092915050565b5f8115159050919050565b61176c81611758565b82525050565b5f6020820190506117855f830184611763565b92915050565b5f819050919050565b61179d8161178b565b82525050565b5f6020820190506117b65f830184611794565b92915050565b5f73ffffffffffffffffffffffffffffffffffffffff82169050919050565b5f6117e5826117bc565b9050919050565b6117f5816117db565b82525050565b5f60208201905061180e5f8301846117ec565b92915050565b5f80fd5b5f80fd5b5f80fd5b5f8083601f84011261183557611834611814565b5b8235905067ffffffffffffffff81111561185257611851611818565b5b60208301915083600182028301111561186e5761186d61181c565b5b9250929050565b5f806020838503121561188b5761188a6116d0565b5b5f83013567ffffffffffffffff8111156118a8576118a76116d4565b5b6118b485828601611820565b92509250509250929050565b5f81519050919050565b5f82825260208201905092915050565b8281835e5f83830152505050565b5f601f19601f8301169050919050565b5f611902826118c0565b61190c81856118ca565b935061191c8185602086016118da565b611925816118e8565b840191505092915050565b5f6020820190508181035f83015261194881846118f8565b905092915050565b5f81519050919050565b5f82825260208201905092915050565b5f61197482611950565b61197e818561195a565b935061198e8185602086016118da565b611997816118e8565b840191505092915050565b5f6020820190508181035f8301526119ba818461196a565b905092915050565b7f4e487b71000000000000000000000000000000000000000000000000000000005f52602160045260245ffd5b60038110611a00576119ff6119c2565b5b50565b5f819050611a10826119ef565b919050565b5f611a1f82611a03565b9050919050565b611a2f81611a15565b82525050565b5f602082019050611a485f830184611a26565b92915050565b611a578161178b565b8114611a61575f80fd5b50565b5f81359050611a7281611a4e565b92915050565b5f60208284031215611a8d57611a8c6116d0565b5b5f611a9a84828501611a64565b91505092915050565b611aac816117db565b8114611ab6575f80fd5b50565b5f81359050611ac781611aa3565b92915050565b5f60208284031215611ae257611ae16116d0565b5b5f611aef84828501611ab9565b91505092915050565b7f4e487b71000000000000000000000000000000000000000000000000000000005f52601160045260245ffd5b5f611b2f8261178b565b9150611b3a8361178b565b9250828201905080821115611b5257611b51611af8565b5b92915050565b7f4e487b71000000000000000000000000000000000000000000000000000000005f52601260045260245ffd5b5f611b8f8261178b565b9150611b9a8361178b565b925082611baa57611ba9611b58565b5b828206905092915050565b7f4e487b71000000000000000000000000000000000000000000000000000000005f52603260045260245ffd5b5f8160601b9050919050565b5f611bf882611be2565b9050919050565b5f611c0982611bee565b9050919050565b611c21611c1c826117db565b611bff565b82525050565b5f819050919050565b611c41611c3c8261178b565b611c27565b82525050565b5f611c528286611c10565b601482019150611c628285611c10565b601482019150611c728284611c30565b602082019150819050949350505050565b5f80fd5b7f4e487b71000000000000000000000000000000000000000000000000000000005f52604160045260245ffd5b611cbd826118e8565b810181811067ffffffffffffffff82111715611cdc57611cdb611c87565b5b80604052505050565b5f611cee6116c7565b9050611cfa8282611cb4565b919050565b5f80fd5b60038110611d0f575f80fd5b50565b5f81359050611d2081611d03565b92915050565b5f60808284031215611d3b57611d3a611c83565b5b611d456080611ce5565b90505f611d5484828501611ab9565b5f830152506020611d6784828501611d12565b6020830152506040611d7b84828501611a64565b6040830152506060611d8f84828501611a64565b60608301525092915050565b5f60808284031215611db057611daf6116d0565b5b5f611dbd84828501611d26565b91505092915050565b5f611dd08261178b565b9150611ddb8361178b565b9250828202611de98161178b565b91508282048414831517611e0057611dff611af8565b5b5092915050565b5f606082019050611e1a5f8301866117ec565b611e276020830185611794565b611e346040830184611794565b949350505050565b611e458161178b565b82525050565b602082015f820151611e5f5f850182611e3c565b50505050565b5f602082019050611e785f830184611e4b565b92915050565b60038110611e8f57611e8e6119c2565b5b50565b5f819050611e9f82611e7e565b919050565b5f611eae82611e92565b9050919050565b611ebe81611ea4565b82525050565b611ecd816117db565b82525050565b5f82825260208201905092915050565b5f611eed826118c0565b611ef78185611ed3565b9350611f078185602086016118da565b611f10816118e8565b840191505092915050565b5f608083015f830151611f305f860182611eb5565b506020830151611f436020860182611ec4565b506040830151611f566040860182611ec4565b5060608301518482036060860152611f6e8282611ee3565b9150508091505092915050565b5f6020820190508181035f830152611f938184611f1b565b905092915050565b5f80fd5b5f67ffffffffffffffff821115611fb957611fb8611c87565b5b611fc2826118e8565b9050602081019050919050565b828183375f83830152505050565b5f611fef611fea84611f9f565b611ce5565b90508281526020810184848401111561200b5761200a611f9b565b5b612016848285611fcf565b509392505050565b5f82601f83011261203257612031611814565b5b8135612042848260208601611fdd565b91505092915050565b5f604082840312156120605761205f611c83565b5b61206a6040611ce5565b90505f61207984828501611ab9565b5f83015250602082013567ffffffffffffffff81111561209c5761209b611cff565b5b6120a88482850161201e565b60208301525092915050565b5f602082840312156120c9576120c86116d0565b5b5f82013567ffffffffffffffff8111156120e6576120e56116d4565b5b6120f28482850161204b565b91505092915050565b5f6121058261178b565b91507fffffffffffffffffffffffffffffffffffffffffffffffffffffffffffffffff820361213757612136611af8565b5b600182019050919050565b5f8151905061215081611a4e565b92915050565b5f6020828403121561216b5761216a6116d0565b5b5f61217884828501612142565b91505092915050565b5f604083015f8301516121965f860182611ec4565b50602083015184820360208601526121ae8282611ee3565b9150508091505092915050565b5f6020820190508181035f8301526121d38184612181565b905092915050565b5f6040820190506121ee5f8301856117ec565b818103602083015261220081846118f8565b90509392505050565b5f6122138261178b565b915061221e8361178b565b92508261222e5761222d611b58565b5b828204905092915050565b5f6122438261178b565b915061224e8361178b565b925082820390508181111561226657612265611af8565b5b9291505056fea2646970667358221220463144a9805b6871463bdb1ca56b20d1774de71a37a5081c5325c38337dfebc564736f6c63430008190033",
  "linkReferences": {},
  "deployedLinkReferences": {}
}