{
  "_format": "hh-sol-artifact-1",
  "contractName": "ERC20Incentive",
  "sourceName": "contracts/incentives/ERC20Incentive.sol",
  "abi": [
    {
      "inputs": [],
      "stateMutability": "nonpayable",
      "type": "constructor"
    },
    {
      "inputs": [],
      "name": "AlreadyInitialized",
      "type": "error"
    },
    {
      "inputs": [],
      "name": "ClaimFailed",
      "type": "error"
    },
    {
      "inputs": [
        {
          "internalType": "address",
          "name": "caller",
          "type": "address"
        },
        {
          "internalType": "bytes",
          "name": "data",
          "type": "bytes"
        }
      ],
      "name": "ClaimFailed",
      "type": "error"
    },
    {
      "inputs": [],
      "name": "CloneAlreadyInitialized",
      "type": "error"
    },
    {
      "inputs": [],
      "name": "InitializerNotImplemented",
      "type": "error"
    },
    {
      "inputs": [
        {
          "internalType": "address",
          "name": "asset",
          "type": "address"
        },
        {
          "internalType": "uint256",
          "name": "available",
          "type": "uint256"
        },
        {
          "internalType": "uint256",
          "name": "required",
          "type": "uint256"
        }
      ],
      "name": "InsufficientFunds",
      "type": "error"
    },
    {
      "inputs": [],
      "name": "InvalidInitialization",
      "type": "error"
    },
    {
      "inputs": [],
      "name": "InvalidInitialization",
      "type": "error"
    },
    {
      "inputs": [],
      "name": "InvalidInitializationData",
      "type": "error"
    },
    {
      "inputs": [],
      "name": "NewOwnerIsZeroAddress",
      "type": "error"
    },
    {
      "inputs": [],
      "name": "NoHandoverRequest",
      "type": "error"
    },
    {
      "inputs": [],
      "name": "NotClaimable",
      "type": "error"
    },
    {
      "inputs": [],
      "name": "NotImplemented",
      "type": "error"
    },
    {
      "inputs": [],
      "name": "NotInitializing",
      "type": "error"
    },
    {
      "inputs": [],
      "name": "Reentrancy",
      "type": "error"
    },
    {
      "inputs": [],
      "name": "Unauthorized",
      "type": "error"
    },
    {
      "inputs": [],
      "name": "Unauthorized",
      "type": "error"
    },
    {
      "anonymous": false,
      "inputs": [
        {
          "indexed": true,
          "internalType": "address",
          "name": "recipient",
          "type": "address"
        },
        {
          "indexed": false,
          "internalType": "bytes",
          "name": "data",
          "type": "bytes"
        }
      ],
      "name": "Claimed",
      "type": "event"
    },
    {
      "anonymous": false,
      "inputs": [
        {
          "indexed": true,
          "internalType": "address",
          "name": "entry",
          "type": "address"
        }
      ],
      "name": "Entry",
      "type": "event"
    },
    {
      "anonymous": false,
      "inputs": [
        {
          "indexed": false,
          "internalType": "uint64",
          "name": "version",
          "type": "uint64"
        }
      ],
      "name": "Initialized",
      "type": "event"
    },
    {
      "anonymous": false,
      "inputs": [
        {
          "indexed": true,
          "internalType": "address",
          "name": "pendingOwner",
          "type": "address"
        }
      ],
      "name": "OwnershipHandoverCanceled",
      "type": "event"
    },
    {
      "anonymous": false,
      "inputs": [
        {
          "indexed": true,
          "internalType": "address",
          "name": "pendingOwner",
          "type": "address"
        }
      ],
      "name": "OwnershipHandoverRequested",
      "type": "event"
    },
    {
      "anonymous": false,
      "inputs": [
        {
          "indexed": true,
          "internalType": "address",
          "name": "oldOwner",
          "type": "address"
        },
        {
          "indexed": true,
          "internalType": "address",
          "name": "newOwner",
          "type": "address"
        }
      ],
      "name": "OwnershipTransferred",
      "type": "event"
    },
    {
      "inputs": [],
      "name": "asset",
      "outputs": [
        {
          "internalType": "address",
          "name": "",
          "type": "address"
        }
      ],
      "stateMutability": "view",
      "type": "function"
    },
    {
      "inputs": [],
      "name": "cancelOwnershipHandover",
      "outputs": [],
      "stateMutability": "payable",
      "type": "function"
    },
    {
      "inputs": [
        {
          "internalType": "bytes",
          "name": "data_",
          "type": "bytes"
        }
      ],
      "name": "claim",
      "outputs": [
        {
          "internalType": "bool",
          "name": "",
          "type": "bool"
        }
      ],
      "stateMutability": "nonpayable",
      "type": "function"
    },
    {
      "inputs": [
        {
          "internalType": "address",
          "name": "",
          "type": "address"
        }
      ],
      "name": "claimed",
      "outputs": [
        {
          "internalType": "bool",
          "name": "",
          "type": "bool"
        }
      ],
      "stateMutability": "view",
      "type": "function"
    },
    {
      "inputs": [],
      "name": "claims",
      "outputs": [
        {
          "internalType": "uint256",
          "name": "",
          "type": "uint256"
        }
      ],
      "stateMutability": "view",
      "type": "function"
    },
    {
      "inputs": [
        {
          "internalType": "address",
          "name": "pendingOwner",
          "type": "address"
        }
      ],
      "name": "completeOwnershipHandover",
      "outputs": [],
      "stateMutability": "payable",
      "type": "function"
    },
    {
      "inputs": [],
      "name": "drawRaffle",
      "outputs": [],
      "stateMutability": "nonpayable",
      "type": "function"
    },
    {
      "inputs": [
        {
          "internalType": "uint256",
          "name": "",
          "type": "uint256"
        }
      ],
      "name": "entries",
      "outputs": [
        {
          "internalType": "address",
          "name": "",
          "type": "address"
        }
      ],
      "stateMutability": "view",
      "type": "function"
    },
    {
      "inputs": [
        {
          "internalType": "bytes",
          "name": "data_",
          "type": "bytes"
        }
      ],
      "name": "initialize",
      "outputs": [],
      "stateMutability": "nonpayable",
      "type": "function"
    },
    {
      "inputs": [
        {
          "internalType": "bytes",
          "name": "data_",
          "type": "bytes"
        }
      ],
      "name": "isClaimable",
      "outputs": [
        {
          "internalType": "bool",
          "name": "",
          "type": "bool"
        }
      ],
      "stateMutability": "view",
      "type": "function"
    },
    {
      "inputs": [],
      "name": "limit",
      "outputs": [
        {
          "internalType": "uint256",
          "name": "",
          "type": "uint256"
        }
      ],
      "stateMutability": "view",
      "type": "function"
    },
    {
      "inputs": [],
      "name": "owner",
      "outputs": [
        {
          "internalType": "address",
          "name": "result",
          "type": "address"
        }
      ],
      "stateMutability": "view",
      "type": "function"
    },
    {
      "inputs": [
        {
          "internalType": "address",
          "name": "pendingOwner",
          "type": "address"
        }
      ],
      "name": "ownershipHandoverExpiresAt",
      "outputs": [
        {
          "internalType": "uint256",
          "name": "result",
          "type": "uint256"
        }
      ],
      "stateMutability": "view",
      "type": "function"
    },
    {
      "inputs": [
        {
          "internalType": "bytes",
          "name": "data_",
          "type": "bytes"
        }
      ],
      "name": "preflight",
      "outputs": [
        {
          "internalType": "bytes",
          "name": "budgetData",
          "type": "bytes"
        }
      ],
      "stateMutability": "view",
      "type": "function"
    },
    {
      "inputs": [
        {
          "internalType": "bytes",
          "name": "data_",
          "type": "bytes"
        }
      ],
      "name": "reclaim",
      "outputs": [
        {
          "internalType": "bool",
          "name": "",
          "type": "bool"
        }
      ],
      "stateMutability": "nonpayable",
      "type": "function"
    },
    {
      "inputs": [],
      "name": "renounceOwnership",
      "outputs": [],
      "stateMutability": "payable",
      "type": "function"
    },
    {
      "inputs": [],
      "name": "requestOwnershipHandover",
      "outputs": [],
      "stateMutability": "payable",
      "type": "function"
    },
    {
      "inputs": [],
      "name": "reward",
      "outputs": [
        {
          "internalType": "uint256",
          "name": "",
          "type": "uint256"
        }
      ],
      "stateMutability": "view",
      "type": "function"
    },
    {
      "inputs": [],
      "name": "strategy",
      "outputs": [
        {
          "internalType": "enum ERC20Incentive.Strategy",
          "name": "",
          "type": "uint8"
        }
      ],
      "stateMutability": "view",
      "type": "function"
    },
    {
      "inputs": [
        {
          "internalType": "bytes4",
          "name": "interfaceId",
          "type": "bytes4"
        }
      ],
      "name": "supportsInterface",
      "outputs": [
        {
          "internalType": "bool",
          "name": "",
          "type": "bool"
        }
      ],
      "stateMutability": "view",
      "type": "function"
    },
    {
      "inputs": [
        {
          "internalType": "address",
          "name": "newOwner",
          "type": "address"
        }
      ],
      "name": "transferOwnership",
      "outputs": [],
      "stateMutability": "payable",
      "type": "function"
    }
  ],
  "bytecode": "0x60806040523480156200001157600080fd5b5062000023336200003960201b60201c565b620000336200011f60201b60201c565b620001c1565b620000496200019160201b60201c565b15620000c7577fffffffffffffffffffffffffffffffffffffffffffffffffffffffff748739278054156200008657630dc149f06000526004601cfd5b8160601b60601c9150811560ff1b821781558160007f8be0079c531659141344cd1fd0a4f28419497f9722a3daafe3b4186f6b6457e0600080a3506200011c565b8060601b60601c9050807fffffffffffffffffffffffffffffffffffffffffffffffffffffffff74873927558060007f8be0079c531659141344cd1fd0a4f28419497f9722a3daafe3b4186f6b6457e0600080a35b50565b6000620001316200019660201b60201c565b9050805460018116156200014d5763f92ee8a96000526004601cfd5b8160c01c808260011c146200018c578060011b8355806020527fc7f505b2f371ae2175ee4913f4499e1f2633a7b5936321eed1cdaeb6115181d2602080a15b505050565b600090565b60007fffffffffffffffffffffffffffffffffffffffffffffffffffffffffbf60113260001b905090565b6122c880620001d16000396000f3fe60806040526004361061012a5760003560e01c8063a4d66daf116100ab578063dcc59b6f1161006f578063dcc59b6f14610395578063e18e6508146103c0578063f04e283e146103fd578063f1c30ec014610419578063f2fde38b14610456578063fee81cf4146104725761012a565b8063a4d66daf14610288578063a8c62e76146102b3578063b30906d4146102de578063c63ff8dd1461031b578063c884ef83146103585761012a565b8063439fab91116100f2578063439fab91146101e35780634e7165a21461020c57806354d1f13d14610249578063715018a6146102535780638da5cb5b1461025d5761012a565b806301ffc9a71461012f5780632275aea91461016c578063228cb7331461018357806325692962146101ae57806338d52e0f146101b8575b600080fd5b34801561013b57600080fd5b5061015660048036038101906101519190611743565b6104af565b604051610163919061178b565b60405180910390f35b34801561017857600080fd5b50610181610529565b005b34801561018f57600080fd5b506101986106fd565b6040516101a591906117bf565b60405180910390f35b6101b6610703565b005b3480156101c457600080fd5b506101cd610757565b6040516101da919061181b565b60405180910390f35b3480156101ef57600080fd5b5061020a6004803603810190610205919061189b565b61077d565b005b34801561021857600080fd5b50610233600480360381019061022e919061189b565b610a1d565b6040516102409190611978565b60405180910390f35b610251610b3e565b005b61025b610b7a565b005b34801561026957600080fd5b50610272610b8e565b60405161027f919061181b565b60405180910390f35b34801561029457600080fd5b5061029d610bb7565b6040516102aa91906117bf565b60405180910390f35b3480156102bf57600080fd5b506102c8610bbd565b6040516102d59190611a11565b60405180910390f35b3480156102ea57600080fd5b5061030560048036038101906103009190611a58565b610bd0565b604051610312919061181b565b60405180910390f35b34801561032757600080fd5b50610342600480360381019061033d919061189b565b610c0f565b60405161034f919061178b565b60405180910390f35b34801561036457600080fd5b5061037f600480360381019061037a9190611ab1565b610f86565b60405161038c919061178b565b60405180910390f35b3480156103a157600080fd5b506103aa610fa6565b6040516103b791906117bf565b60405180910390f35b3480156103cc57600080fd5b506103e760048036038101906103e2919061189b565b610fac565b6040516103f4919061178b565b60405180910390f35b61041760048036038101906104129190611ab1565b610fd6565b005b34801561042557600080fd5b50610440600480360381019061043b919061189b565b611017565b60405161044d919061178b565b60405180910390f35b610470600480360381019061046b9190611ab1565b61129e565b005b34801561047e57600080fd5b5061049960048036038101906104949190611ab1565b6112c8565b6040516104a691906117bf565b60405180910390f35b60007f8dbd4bfc000000000000000000000000000000000000000000000000000000007bffffffffffffffffffffffffffffffffffffffffffffffffffffffff1916827bffffffffffffffffffffffffffffffffffffffffffffffffffffffff191614806105225750610521826112e3565b5b9050919050565b61053161135d565b6002808111156105445761054361199a565b5b600260149054906101000a900460ff1660028111156105665761056561199a565b5b1461059d576040517f82b4290000000000000000000000000000000000000000000000000000000000815260040160405180910390fd5b6000604051806020016040528042446105b69190611b0d565b81525090506000600580805490506105cd84611395565b6105d79190611b70565b815481106105e8576105e7611ba1565b5b9060005260206000200160009054906101000a900473ffffffffffffffffffffffffffffffffffffffff16905061066481600354600260009054906101000a900473ffffffffffffffffffffffffffffffffffffffff1673ffffffffffffffffffffffffffffffffffffffff166113a59092919063ffffffff16565b8073ffffffffffffffffffffffffffffffffffffffff167f9ad2e7a4af16dceda9cce4274b2f59c328d8c012eb0e15eb5e1e73b7d8f264d3600260009054906101000a900473ffffffffffffffffffffffffffffffffffffffff16836003546040516020016106d593929190611c39565b6040516020818303038152906040526040516106f19190611978565b60405180910390a25050565b60035481565b600061070d6113f4565b67ffffffffffffffff164201905063389a75e1600c5233600052806020600c2055337fdbf36a107da19e49527a7176a1babf963b4b0ff8cde35ee35d6cd8f1f9ac7e1d600080a250565b600260009054906101000a900473ffffffffffffffffffffffffffffffffffffffff1681565b60006107876113ff565b905080546003825580156107ba5760018160011c14303b106107b15763f92ee8a96000526004601cfd5b818160ff1b1b91505b50600083838101906107cc9190611d98565b9050600160028111156107e2576107e161199a565b5b816020015160028111156107f9576107f861199a565b5b03610830576040517fd623472500000000000000000000000000000000000000000000000000000000815260040160405180910390fd5b600081604001511480610847575060008160600151145b1561087e576040517ff92ee8a900000000000000000000000000000000000000000000000000000000815260040160405180910390fd5b60006002808111156108935761089261199a565b5b826020015160028111156108aa576108a961199a565b5b036108b95781604001516108ce565b816060015182604001516108cd9190611dc5565b5b905060006108ff30846000015173ffffffffffffffffffffffffffffffffffffffff1661142a90919063ffffffff16565b90508181101561094e57826000015181836040517f5c54305e00000000000000000000000000000000000000000000000000000000815260040161094593929190611e07565b60405180910390fd5b8260000151600260006101000a81548173ffffffffffffffffffffffffffffffffffffffff021916908373ffffffffffffffffffffffffffffffffffffffff1602179055508260200151600260146101000a81548160ff021916908360028111156109bc576109bb61199a565b5b0217905550826040015160038190555082606001516004819055506109e03361145f565b5050508015610a18576002815560016020527fc7f505b2f371ae2175ee4913f4499e1f2633a7b5936321eed1cdaeb6115181d2602080a15b505050565b606060008383810190610a309190611d98565b90506000600280811115610a4757610a4661199a565b5b82602001516002811115610a5e57610a5d61199a565b5b03610a6d578160400151610a82565b81606001518260400151610a819190611dc5565b5b9050604051806080016040528060016002811115610aa357610aa261199a565b5b8152602001836000015173ffffffffffffffffffffffffffffffffffffffff1681526020013073ffffffffffffffffffffffffffffffffffffffff168152602001604051806020016040528084815250604051602001610b039190611e69565b604051602081830303815290604052815250604051602001610b259190611f88565b6040516020818303038152906040529250505092915050565b63389a75e1600c523360005260006020600c2055337ffa7b8eab7da67f412cc9575ed43464468f9bfbae89d1675917346ca6d8fe3c92600080a2565b610b8261135d565b610b8c600061153a565b565b60007fffffffffffffffffffffffffffffffffffffffffffffffffffffffff7487392754905090565b60045481565b600260149054906101000a900460ff1681565b60058181548110610be057600080fd5b906000526020600020016000915054906101000a900473ffffffffffffffffffffffffffffffffffffffff1681565b6000610c1961135d565b60008383810190610c2a91906120cb565b9050610c398160000151611602565b610c6f576040517f6247a84e00000000000000000000000000000000000000000000000000000000815260040160405180910390fd5b60006002811115610c8357610c8261199a565b5b600260149054906101000a900460ff166002811115610ca557610ca461199a565b5b03610e1657600080815480929190610cbc90612114565b91905055506001806000836000015173ffffffffffffffffffffffffffffffffffffffff1673ffffffffffffffffffffffffffffffffffffffff16815260200190815260200160002060006101000a81548160ff021916908315150217905550610d6f8160000151600354600260009054906101000a900473ffffffffffffffffffffffffffffffffffffffff1673ffffffffffffffffffffffffffffffffffffffff166113a59092919063ffffffff16565b806000015173ffffffffffffffffffffffffffffffffffffffff167f9ad2e7a4af16dceda9cce4274b2f59c328d8c012eb0e15eb5e1e73b7d8f264d3600260009054906101000a900473ffffffffffffffffffffffffffffffffffffffff168360000151600354604051602001610de893929190611c39565b604051602081830303815290604052604051610e049190611978565b60405180910390a26001915050610f80565b600280811115610e2957610e2861199a565b5b600260149054906101000a900460ff166002811115610e4b57610e4a61199a565b5b03610f7a57600080815480929190610e6290612114565b91905055506001806000836000015173ffffffffffffffffffffffffffffffffffffffff1673ffffffffffffffffffffffffffffffffffffffff16815260200190815260200160002060006101000a81548160ff021916908315150217905550600581600001519080600181540180825580915050600190039060005260206000200160009091909190916101000a81548173ffffffffffffffffffffffffffffffffffffffff021916908373ffffffffffffffffffffffffffffffffffffffff160217905550806000015173ffffffffffffffffffffffffffffffffffffffff167ff0abe0f5c6f02112a9a4332e7b091bf49040ffddeedb73785a9b9a0a3ca7f15360405160405180910390a26001915050610f80565b60009150505b92915050565b60016020528060005260406000206000915054906101000a900460ff1681565b60005481565b6000808383810190610fbe91906120cb565b9050610fcd8160000151611602565b91505092915050565b610fde61135d565b63389a75e1600c52806000526020600c20805442111561100657636f5e88186000526004601cfd5b60008155506110148161153a565b50565b600061102161135d565b6000838381019061103291906120cb565b90506000816020015180602001905181019061104e9190612171565b90506002808111156110635761106261199a565b5b600260149054906101000a900460ff1660028111156110855761108461199a565b5b0361110c576003548114158061109c575060008054115b156110ff5733826040516020016110b391906121db565b6040516020818303038152906040526040517f4139d81d0000000000000000000000000000000000000000000000000000000081526004016110f69291906121fd565b60405180910390fd5b60006004819055506111a6565b60006003548261111c9190611b70565b1461117f57338260405160200161113391906121db565b6040516020818303038152906040526040517f4139d81d0000000000000000000000000000000000000000000000000000000081526004016111769291906121fd565b60405180910390fd5b6003548161118d919061222d565b6004600082825461119e919061225e565b925050819055505b6111f7826000015182600260009054906101000a900473ffffffffffffffffffffffffffffffffffffffff1673ffffffffffffffffffffffffffffffffffffffff166113a59092919063ffffffff16565b816000015173ffffffffffffffffffffffffffffffffffffffff167f9ad2e7a4af16dceda9cce4274b2f59c328d8c012eb0e15eb5e1e73b7d8f264d3600260009054906101000a900473ffffffffffffffffffffffffffffffffffffffff1684600001518460405160200161126e93929190611c39565b60405160208183030381529060405260405161128a9190611978565b60405180910390a260019250505092915050565b6112a661135d565b8060601b6112bc57637448fbae6000526004601cfd5b6112c58161153a565b50565b600063389a75e1600c52816000526020600c20549050919050565b60007f42606236000000000000000000000000000000000000000000000000000000007bffffffffffffffffffffffffffffffffffffffffffffffffffffffff1916827bffffffffffffffffffffffffffffffffffffffffffffffffffffffff19161480611356575061135582611668565b5b9050919050565b7fffffffffffffffffffffffffffffffffffffffffffffffffffffffff74873927543314611393576382b429006000526004601cfd5b565b6000602082209050808252919050565b81601452806034526fa9059cbb00000000000000000000000060005260206000604460106000875af13d1560016000511417166113ea576390b8ec186000526004601cfd5b6000603452505050565b60006202a300905090565b60007fffffffffffffffffffffffffffffffffffffffffffffffffffffffffbf60113260001b905090565b6000816014526f70a0823100000000000000000000000060005260208060246010865afa601f3d111660205102905092915050565b6114676116d2565b156114e2577fffffffffffffffffffffffffffffffffffffffffffffffffffffffff748739278054156114a257630dc149f06000526004601cfd5b8160601b60601c9150811560ff1b821781558160007f8be0079c531659141344cd1fd0a4f28419497f9722a3daafe3b4186f6b6457e0600080a350611537565b8060601b60601c9050807fffffffffffffffffffffffffffffffffffffffffffffffffffffffff74873927558060007f8be0079c531659141344cd1fd0a4f28419497f9722a3daafe3b4186f6b6457e0600080a35b50565b6115426116d2565b156115a8577fffffffffffffffffffffffffffffffffffffffffffffffffffffffff748739278160601b60601c91508181547f8be0079c531659141344cd1fd0a4f28419497f9722a3daafe3b4186f6b6457e0600080a3811560ff1b82178155506115ff565b7fffffffffffffffffffffffffffffffffffffffffffffffffffffffff748739278160601b60601c91508181547f8be0079c531659141344cd1fd0a4f28419497f9722a3daafe3b4186f6b6457e0600080a3818155505b50565b6000600160008373ffffffffffffffffffffffffffffffffffffffff1673ffffffffffffffffffffffffffffffffffffffff16815260200190815260200160002060009054906101000a900460ff161580156116615750600454600054105b9050919050565b60007f01ffc9a7000000000000000000000000000000000000000000000000000000007bffffffffffffffffffffffffffffffffffffffffffffffffffffffff1916827bffffffffffffffffffffffffffffffffffffffffffffffffffffffff1916149050919050565b600090565b6000604051905090565b600080fd5b600080fd5b60007fffffffff0000000000000000000000000000000000000000000000000000000082169050919050565b611720816116eb565b811461172b57600080fd5b50565b60008135905061173d81611717565b92915050565b600060208284031215611759576117586116e1565b5b60006117678482850161172e565b91505092915050565b60008115159050919050565b61178581611770565b82525050565b60006020820190506117a0600083018461177c565b92915050565b6000819050919050565b6117b9816117a6565b82525050565b60006020820190506117d460008301846117b0565b92915050565b600073ffffffffffffffffffffffffffffffffffffffff82169050919050565b6000611805826117da565b9050919050565b611815816117fa565b82525050565b6000602082019050611830600083018461180c565b92915050565b600080fd5b600080fd5b600080fd5b60008083601f84011261185b5761185a611836565b5b8235905067ffffffffffffffff8111156118785761187761183b565b5b60208301915083600182028301111561189457611893611840565b5b9250929050565b600080602083850312156118b2576118b16116e1565b5b600083013567ffffffffffffffff8111156118d0576118cf6116e6565b5b6118dc85828601611845565b92509250509250929050565b600081519050919050565b600082825260208201905092915050565b60005b83811015611922578082015181840152602081019050611907565b60008484015250505050565b6000601f19601f8301169050919050565b600061194a826118e8565b61195481856118f3565b9350611964818560208601611904565b61196d8161192e565b840191505092915050565b60006020820190508181036000830152611992818461193f565b905092915050565b7f4e487b7100000000000000000000000000000000000000000000000000000000600052602160045260246000fd5b600381106119da576119d961199a565b5b50565b60008190506119eb826119c9565b919050565b60006119fb826119dd565b9050919050565b611a0b816119f0565b82525050565b6000602082019050611a266000830184611a02565b92915050565b611a35816117a6565b8114611a4057600080fd5b50565b600081359050611a5281611a2c565b92915050565b600060208284031215611a6e57611a6d6116e1565b5b6000611a7c84828501611a43565b91505092915050565b611a8e816117fa565b8114611a9957600080fd5b50565b600081359050611aab81611a85565b92915050565b600060208284031215611ac757611ac66116e1565b5b6000611ad584828501611a9c565b91505092915050565b7f4e487b7100000000000000000000000000000000000000000000000000000000600052601160045260246000fd5b6000611b18826117a6565b9150611b23836117a6565b9250828201905080821115611b3b57611b3a611ade565b5b92915050565b7f4e487b7100000000000000000000000000000000000000000000000000000000600052601260045260246000fd5b6000611b7b826117a6565b9150611b86836117a6565b925082611b9657611b95611b41565b5b828206905092915050565b7f4e487b7100000000000000000000000000000000000000000000000000000000600052603260045260246000fd5b60008160601b9050919050565b6000611be882611bd0565b9050919050565b6000611bfa82611bdd565b9050919050565b611c12611c0d826117fa565b611bef565b82525050565b6000819050919050565b611c33611c2e826117a6565b611c18565b82525050565b6000611c458286611c01565b601482019150611c558285611c01565b601482019150611c658284611c22565b602082019150819050949350505050565b600080fd5b7f4e487b7100000000000000000000000000000000000000000000000000000000600052604160045260246000fd5b611cb38261192e565b810181811067ffffffffffffffff82111715611cd257611cd1611c7b565b5b80604052505050565b6000611ce56116d7565b9050611cf18282611caa565b919050565b600080fd5b60038110611d0857600080fd5b50565b600081359050611d1a81611cfb565b92915050565b600060808284031215611d3657611d35611c76565b5b611d406080611cdb565b90506000611d5084828501611a9c565b6000830152506020611d6484828501611d0b565b6020830152506040611d7884828501611a43565b6040830152506060611d8c84828501611a43565b60608301525092915050565b600060808284031215611dae57611dad6116e1565b5b6000611dbc84828501611d20565b91505092915050565b6000611dd0826117a6565b9150611ddb836117a6565b9250828202611de9816117a6565b91508282048414831517611e0057611dff611ade565b5b5092915050565b6000606082019050611e1c600083018661180c565b611e2960208301856117b0565b611e3660408301846117b0565b949350505050565b611e47816117a6565b82525050565b602082016000820151611e636000850182611e3e565b50505050565b6000602082019050611e7e6000830184611e4d565b92915050565b60038110611e9557611e9461199a565b5b50565b6000819050611ea682611e84565b919050565b6000611eb682611e98565b9050919050565b611ec681611eab565b82525050565b611ed5816117fa565b82525050565b600082825260208201905092915050565b6000611ef7826118e8565b611f018185611edb565b9350611f11818560208601611904565b611f1a8161192e565b840191505092915050565b6000608083016000830151611f3d6000860182611ebd565b506020830151611f506020860182611ecc565b506040830151611f636040860182611ecc565b5060608301518482036060860152611f7b8282611eec565b9150508091505092915050565b60006020820190508181036000830152611fa28184611f25565b905092915050565b600080fd5b600067ffffffffffffffff821115611fca57611fc9611c7b565b5b611fd38261192e565b9050602081019050919050565b82818337600083830152505050565b6000612002611ffd84611faf565b611cdb565b90508281526020810184848401111561201e5761201d611faa565b5b612029848285611fe0565b509392505050565b600082601f83011261204657612045611836565b5b8135612056848260208601611fef565b91505092915050565b60006040828403121561207557612074611c76565b5b61207f6040611cdb565b9050600061208f84828501611a9c565b600083015250602082013567ffffffffffffffff8111156120b3576120b2611cf6565b5b6120bf84828501612031565b60208301525092915050565b6000602082840312156120e1576120e06116e1565b5b600082013567ffffffffffffffff8111156120ff576120fe6116e6565b5b61210b8482850161205f565b91505092915050565b600061211f826117a6565b91507fffffffffffffffffffffffffffffffffffffffffffffffffffffffffffffffff820361215157612150611ade565b5b600182019050919050565b60008151905061216b81611a2c565b92915050565b600060208284031215612187576121866116e1565b5b60006121958482850161215c565b91505092915050565b60006040830160008301516121b66000860182611ecc565b50602083015184820360208601526121ce8282611eec565b9150508091505092915050565b600060208201905081810360008301526121f5818461219e565b905092915050565b6000604082019050612212600083018561180c565b8181036020830152612224818461193f565b90509392505050565b6000612238826117a6565b9150612243836117a6565b92508261225357612252611b41565b5b828204905092915050565b6000612269826117a6565b9150612274836117a6565b925082820390508181111561228c5761228b611ade565b5b9291505056fea2646970667358221220e7e2d054c1e326f91728ba83a4204d19a7c24894f5615ab57e77653bd5fe2b4964736f6c63430008180033",
  "linkReferences": {},
  "deployedLinkReferences": {}
}