{
  "_format": "hh-sol-artifact-1",
  "contractName": "ERC20Incentive",
  "sourceName": "contracts/incentives/ERC20Incentive.sol",
  "abi": [
    {
      "inputs": [],
      "stateMutability": "nonpayable",
      "type": "constructor"
    },
    {
      "inputs": [],
      "name": "AlreadyInitialized",
      "type": "error"
    },
    {
      "inputs": [],
      "name": "ClaimFailed",
      "type": "error"
    },
    {
      "inputs": [
        {
          "internalType": "address",
          "name": "caller",
          "type": "address"
        },
        {
          "internalType": "bytes",
          "name": "data",
          "type": "bytes"
        }
      ],
      "name": "ClaimFailed",
      "type": "error"
    },
    {
      "inputs": [],
      "name": "CloneAlreadyInitialized",
      "type": "error"
    },
    {
      "inputs": [],
      "name": "InitializerNotImplemented",
      "type": "error"
    },
    {
      "inputs": [
        {
          "internalType": "address",
          "name": "asset",
          "type": "address"
        },
        {
          "internalType": "uint256",
          "name": "available",
          "type": "uint256"
        },
        {
          "internalType": "uint256",
          "name": "required",
          "type": "uint256"
        }
      ],
      "name": "InsufficientFunds",
      "type": "error"
    },
    {
      "inputs": [],
      "name": "InvalidInitialization",
      "type": "error"
    },
    {
      "inputs": [],
      "name": "InvalidInitialization",
      "type": "error"
    },
    {
      "inputs": [],
      "name": "InvalidInitializationData",
      "type": "error"
    },
    {
      "inputs": [],
      "name": "NewOwnerIsZeroAddress",
      "type": "error"
    },
    {
      "inputs": [],
      "name": "NoHandoverRequest",
      "type": "error"
    },
    {
      "inputs": [],
      "name": "NotClaimable",
      "type": "error"
    },
    {
      "inputs": [],
      "name": "NotImplemented",
      "type": "error"
    },
    {
      "inputs": [],
      "name": "NotInitializing",
      "type": "error"
    },
    {
      "inputs": [],
      "name": "Reentrancy",
      "type": "error"
    },
    {
      "inputs": [],
      "name": "Unauthorized",
      "type": "error"
    },
    {
      "inputs": [],
      "name": "Unauthorized",
      "type": "error"
    },
    {
      "anonymous": false,
      "inputs": [
        {
          "indexed": true,
          "internalType": "address",
          "name": "recipient",
          "type": "address"
        },
        {
          "indexed": false,
          "internalType": "bytes",
          "name": "data",
          "type": "bytes"
        }
      ],
      "name": "Claimed",
      "type": "event"
    },
    {
      "anonymous": false,
      "inputs": [
        {
          "indexed": true,
          "internalType": "address",
          "name": "entry",
          "type": "address"
        }
      ],
      "name": "Entry",
      "type": "event"
    },
    {
      "anonymous": false,
      "inputs": [
        {
          "indexed": false,
          "internalType": "uint64",
          "name": "version",
          "type": "uint64"
        }
      ],
      "name": "Initialized",
      "type": "event"
    },
    {
      "anonymous": false,
      "inputs": [
        {
          "indexed": true,
          "internalType": "address",
          "name": "pendingOwner",
          "type": "address"
        }
      ],
      "name": "OwnershipHandoverCanceled",
      "type": "event"
    },
    {
      "anonymous": false,
      "inputs": [
        {
          "indexed": true,
          "internalType": "address",
          "name": "pendingOwner",
          "type": "address"
        }
      ],
      "name": "OwnershipHandoverRequested",
      "type": "event"
    },
    {
      "anonymous": false,
      "inputs": [
        {
          "indexed": true,
          "internalType": "address",
          "name": "oldOwner",
          "type": "address"
        },
        {
          "indexed": true,
          "internalType": "address",
          "name": "newOwner",
          "type": "address"
        }
      ],
      "name": "OwnershipTransferred",
      "type": "event"
    },
    {
      "inputs": [],
      "name": "asset",
      "outputs": [
        {
          "internalType": "address",
          "name": "",
          "type": "address"
        }
      ],
      "stateMutability": "view",
      "type": "function"
    },
    {
      "inputs": [],
      "name": "cancelOwnershipHandover",
      "outputs": [],
      "stateMutability": "payable",
      "type": "function"
    },
    {
      "inputs": [
        {
          "internalType": "bytes",
          "name": "data_",
          "type": "bytes"
        }
      ],
      "name": "claim",
      "outputs": [
        {
          "internalType": "bool",
          "name": "",
          "type": "bool"
        }
      ],
      "stateMutability": "nonpayable",
      "type": "function"
    },
    {
      "inputs": [
        {
          "internalType": "address",
          "name": "",
          "type": "address"
        }
      ],
      "name": "claimed",
      "outputs": [
        {
          "internalType": "bool",
          "name": "",
          "type": "bool"
        }
      ],
      "stateMutability": "view",
      "type": "function"
    },
    {
      "inputs": [],
      "name": "claims",
      "outputs": [
        {
          "internalType": "uint256",
          "name": "",
          "type": "uint256"
        }
      ],
      "stateMutability": "view",
      "type": "function"
    },
    {
      "inputs": [
        {
          "internalType": "address",
          "name": "pendingOwner",
          "type": "address"
        }
      ],
      "name": "completeOwnershipHandover",
      "outputs": [],
      "stateMutability": "payable",
      "type": "function"
    },
    {
      "inputs": [],
      "name": "drawRaffle",
      "outputs": [],
      "stateMutability": "nonpayable",
      "type": "function"
    },
    {
      "inputs": [
        {
          "internalType": "uint256",
          "name": "",
          "type": "uint256"
        }
      ],
      "name": "entries",
      "outputs": [
        {
          "internalType": "address",
          "name": "",
          "type": "address"
        }
      ],
      "stateMutability": "view",
      "type": "function"
    },
    {
      "inputs": [
        {
          "internalType": "bytes",
          "name": "data_",
          "type": "bytes"
        }
      ],
      "name": "initialize",
      "outputs": [],
      "stateMutability": "nonpayable",
      "type": "function"
    },
    {
      "inputs": [
        {
          "internalType": "bytes",
          "name": "data_",
          "type": "bytes"
        }
      ],
      "name": "isClaimable",
      "outputs": [
        {
          "internalType": "bool",
          "name": "",
          "type": "bool"
        }
      ],
      "stateMutability": "view",
      "type": "function"
    },
    {
      "inputs": [],
      "name": "limit",
      "outputs": [
        {
          "internalType": "uint256",
          "name": "",
          "type": "uint256"
        }
      ],
      "stateMutability": "view",
      "type": "function"
    },
    {
      "inputs": [],
      "name": "owner",
      "outputs": [
        {
          "internalType": "address",
          "name": "result",
          "type": "address"
        }
      ],
      "stateMutability": "view",
      "type": "function"
    },
    {
      "inputs": [
        {
          "internalType": "address",
          "name": "pendingOwner",
          "type": "address"
        }
      ],
      "name": "ownershipHandoverExpiresAt",
      "outputs": [
        {
          "internalType": "uint256",
          "name": "result",
          "type": "uint256"
        }
      ],
      "stateMutability": "view",
      "type": "function"
    },
    {
      "inputs": [
        {
          "internalType": "bytes",
          "name": "data_",
          "type": "bytes"
        }
      ],
      "name": "preflight",
      "outputs": [
        {
          "internalType": "bytes",
          "name": "budgetData",
          "type": "bytes"
        }
      ],
      "stateMutability": "view",
      "type": "function"
    },
    {
      "inputs": [
        {
          "internalType": "bytes",
          "name": "data_",
          "type": "bytes"
        }
      ],
      "name": "reclaim",
      "outputs": [
        {
          "internalType": "bool",
          "name": "",
          "type": "bool"
        }
      ],
      "stateMutability": "nonpayable",
      "type": "function"
    },
    {
      "inputs": [],
      "name": "renounceOwnership",
      "outputs": [],
      "stateMutability": "payable",
      "type": "function"
    },
    {
      "inputs": [],
      "name": "requestOwnershipHandover",
      "outputs": [],
      "stateMutability": "payable",
      "type": "function"
    },
    {
      "inputs": [],
      "name": "reward",
      "outputs": [
        {
          "internalType": "uint256",
          "name": "",
          "type": "uint256"
        }
      ],
      "stateMutability": "view",
      "type": "function"
    },
    {
      "inputs": [],
      "name": "strategy",
      "outputs": [
        {
          "internalType": "enum ERC20Incentive.Strategy",
          "name": "",
          "type": "uint8"
        }
      ],
      "stateMutability": "view",
      "type": "function"
    },
    {
      "inputs": [
        {
          "internalType": "bytes4",
          "name": "interfaceId",
          "type": "bytes4"
        }
      ],
      "name": "supportsInterface",
      "outputs": [
        {
          "internalType": "bool",
          "name": "",
          "type": "bool"
        }
      ],
      "stateMutability": "view",
      "type": "function"
    },
    {
      "inputs": [
        {
          "internalType": "address",
          "name": "newOwner",
          "type": "address"
        }
      ],
      "name": "transferOwnership",
      "outputs": [],
      "stateMutability": "payable",
      "type": "function"
    }
  ],
  "bytecode": "0x608060405234801561000f575f80fd5b5061001f3361003260201b60201c565b61002d61010e60201b60201c565b6101a7565b61004061017a60201b60201c565b156100b8577fffffffffffffffffffffffffffffffffffffffffffffffffffffffff7487392780541561007a57630dc149f05f526004601cfd5b8160601b60601c9150811560ff1b82178155815f7f8be0079c531659141344cd1fd0a4f28419497f9722a3daafe3b4186f6b6457e05f80a35061010b565b8060601b60601c9050807fffffffffffffffffffffffffffffffffffffffffffffffffffffffff7487392755805f7f8be0079c531659141344cd1fd0a4f28419497f9722a3daafe3b4186f6b6457e05f80a35b50565b5f61011d61017e60201b60201c565b9050805460018116156101375763f92ee8a95f526004601cfd5b8160c01c808260011c14610175578060011b8355806020527fc7f505b2f371ae2175ee4913f4499e1f2633a7b5936321eed1cdaeb6115181d2602080a15b505050565b5f90565b5f7fffffffffffffffffffffffffffffffffffffffffffffffffffffffffbf6011325f1b905090565b6121be806101b45f395ff3fe608060405260043610610129575f3560e01c8063a4d66daf116100aa578063dcc59b6f1161006e578063dcc59b6f14610387578063e18e6508146103b1578063f04e283e146103ed578063f1c30ec014610409578063f2fde38b14610445578063fee81cf41461046157610129565b8063a4d66daf1461027f578063a8c62e76146102a9578063b30906d4146102d3578063c63ff8dd1461030f578063c884ef831461034b57610129565b8063439fab91116100f1578063439fab91146101dd5780634e7165a21461020557806354d1f13d14610241578063715018a61461024b5780638da5cb5b1461025557610129565b806301ffc9a71461012d5780632275aea914610169578063228cb7331461017f57806325692962146101a957806338d52e0f146101b3575b5f80fd5b348015610138575f80fd5b50610153600480360381019061014e91906116bb565b61049d565b6040516101609190611700565b60405180910390f35b348015610174575f80fd5b5061017d610516565b005b34801561018a575f80fd5b506101936106e3565b6040516101a09190611731565b60405180910390f35b6101b16106e9565b005b3480156101be575f80fd5b506101c761073a565b6040516101d49190611789565b60405180910390f35b3480156101e8575f80fd5b5061020360048036038101906101fe9190611803565b61075f565b005b348015610210575f80fd5b5061022b60048036038101906102269190611803565b6109f4565b60405161023891906118be565b60405180910390f35b610249610b12565b005b610253610b4b565b005b348015610260575f80fd5b50610269610b5e565b6040516102769190611789565b60405180910390f35b34801561028a575f80fd5b50610293610b86565b6040516102a09190611731565b60405180910390f35b3480156102b4575f80fd5b506102bd610b8c565b6040516102ca9190611951565b60405180910390f35b3480156102de575f80fd5b506102f960048036038101906102f49190611994565b610b9f565b6040516103069190611789565b60405180910390f35b34801561031a575f80fd5b5061033560048036038101906103309190611803565b610bda565b6040516103429190611700565b60405180910390f35b348015610356575f80fd5b50610371600480360381019061036c91906119e9565b610f38565b60405161037e9190611700565b60405180910390f35b348015610392575f80fd5b5061039b610f55565b6040516103a89190611731565b60405180910390f35b3480156103bc575f80fd5b506103d760048036038101906103d29190611803565b610f5a565b6040516103e49190611700565b60405180910390f35b610407600480360381019061040291906119e9565b610f82565b005b348015610414575f80fd5b5061042f600480360381019061042a9190611803565b610fc0565b60405161043c9190611700565b60405180910390f35b61045f600480360381019061045a91906119e9565b61123b565b005b34801561046c575f80fd5b50610487600480360381019061048291906119e9565b611264565b6040516104949190611731565b60405180910390f35b5f7f8dbd4bfc000000000000000000000000000000000000000000000000000000007bffffffffffffffffffffffffffffffffffffffffffffffffffffffff1916827bffffffffffffffffffffffffffffffffffffffffffffffffffffffff1916148061050f575061050e8261127d565b5b9050919050565b61051e6112f6565b600280811115610531576105306118de565b5b600260149054906101000a900460ff166002811115610553576105526118de565b5b1461058a576040517f82b4290000000000000000000000000000000000000000000000000000000000815260040160405180910390fd5b5f604051806020016040528042446105a29190611a41565b81525090505f600580805490506105b88461132d565b6105c29190611aa1565b815481106105d3576105d2611ad1565b5b905f5260205f20015f9054906101000a900473ffffffffffffffffffffffffffffffffffffffff16905061064b8160035460025f9054906101000a900473ffffffffffffffffffffffffffffffffffffffff1673ffffffffffffffffffffffffffffffffffffffff1661133c9092919063ffffffff16565b8073ffffffffffffffffffffffffffffffffffffffff167f9ad2e7a4af16dceda9cce4274b2f59c328d8c012eb0e15eb5e1e73b7d8f264d360025f9054906101000a900473ffffffffffffffffffffffffffffffffffffffff16836003546040516020016106bb93929190611b63565b6040516020818303038152906040526040516106d791906118be565b60405180910390a25050565b60035481565b5f6106f2611385565b67ffffffffffffffff164201905063389a75e1600c52335f52806020600c2055337fdbf36a107da19e49527a7176a1babf963b4b0ff8cde35ee35d6cd8f1f9ac7e1d5f80a250565b60025f9054906101000a900473ffffffffffffffffffffffffffffffffffffffff1681565b5f61076861138f565b9050805460038255801561079a5760018160011c14303b106107915763f92ee8a95f526004601cfd5b818160ff1b1b91505b505f83838101906107ab9190611cb7565b9050600160028111156107c1576107c06118de565b5b816020015160028111156107d8576107d76118de565b5b0361080f576040517fd623472500000000000000000000000000000000000000000000000000000000815260040160405180910390fd5b5f8160400151148061082457505f8160600151145b1561085b576040517ff92ee8a900000000000000000000000000000000000000000000000000000000815260040160405180910390fd5b5f60028081111561086f5761086e6118de565b5b82602001516002811115610886576108856118de565b5b036108955781604001516108aa565b816060015182604001516108a99190611ce2565b5b90505f6108d930845f015173ffffffffffffffffffffffffffffffffffffffff166113b890919063ffffffff16565b90508181101561092757825f015181836040517f5c54305e00000000000000000000000000000000000000000000000000000000815260040161091e93929190611d23565b60405180910390fd5b825f015160025f6101000a81548173ffffffffffffffffffffffffffffffffffffffff021916908373ffffffffffffffffffffffffffffffffffffffff1602179055508260200151600260146101000a81548160ff02191690836002811115610993576109926118de565b5b0217905550826040015160038190555082606001516004819055506109b7336113eb565b50505080156109ef576002815560016020527fc7f505b2f371ae2175ee4913f4499e1f2633a7b5936321eed1cdaeb6115181d2602080a15b505050565b60605f8383810190610a069190611cb7565b90505f600280811115610a1c57610a1b6118de565b5b82602001516002811115610a3357610a326118de565b5b03610a42578160400151610a57565b81606001518260400151610a569190611ce2565b5b9050604051806080016040528060016002811115610a7857610a776118de565b5b8152602001835f015173ffffffffffffffffffffffffffffffffffffffff1681526020013073ffffffffffffffffffffffffffffffffffffffff168152602001604051806020016040528084815250604051602001610ad79190611d81565b604051602081830303815290604052815250604051602001610af99190611e97565b6040516020818303038152906040529250505092915050565b63389a75e1600c52335f525f6020600c2055337ffa7b8eab7da67f412cc9575ed43464468f9bfbae89d1675917346ca6d8fe3c925f80a2565b610b536112f6565b610b5c5f6114c1565b565b5f7fffffffffffffffffffffffffffffffffffffffffffffffffffffffff7487392754905090565b60045481565b600260149054906101000a900460ff1681565b60058181548110610bae575f80fd5b905f5260205f20015f915054906101000a900473ffffffffffffffffffffffffffffffffffffffff1681565b5f610be36112f6565b5f8383810190610bf39190611fd0565b9050610c01815f0151611587565b610c37576040517f6247a84e00000000000000000000000000000000000000000000000000000000815260040160405180910390fd5b5f6002811115610c4a57610c496118de565b5b600260149054906101000a900460ff166002811115610c6c57610c6b6118de565b5b03610dd3575f80815480929190610c8290612017565b91905055506001805f835f015173ffffffffffffffffffffffffffffffffffffffff1673ffffffffffffffffffffffffffffffffffffffff1681526020019081526020015f205f6101000a81548160ff021916908315150217905550610d2f815f015160035460025f9054906101000a900473ffffffffffffffffffffffffffffffffffffffff1673ffffffffffffffffffffffffffffffffffffffff1661133c9092919063ffffffff16565b805f015173ffffffffffffffffffffffffffffffffffffffff167f9ad2e7a4af16dceda9cce4274b2f59c328d8c012eb0e15eb5e1e73b7d8f264d360025f9054906101000a900473ffffffffffffffffffffffffffffffffffffffff16835f0151600354604051602001610da593929190611b63565b604051602081830303815290604052604051610dc191906118be565b60405180910390a26001915050610f32565b600280811115610de657610de56118de565b5b600260149054906101000a900460ff166002811115610e0857610e076118de565b5b03610f2d575f80815480929190610e1e90612017565b91905055506001805f835f015173ffffffffffffffffffffffffffffffffffffffff1673ffffffffffffffffffffffffffffffffffffffff1681526020019081526020015f205f6101000a81548160ff0219169083151502179055506005815f0151908060018154018082558091505060019003905f5260205f20015f9091909190916101000a81548173ffffffffffffffffffffffffffffffffffffffff021916908373ffffffffffffffffffffffffffffffffffffffff160217905550805f015173ffffffffffffffffffffffffffffffffffffffff167ff0abe0f5c6f02112a9a4332e7b091bf49040ffddeedb73785a9b9a0a3ca7f15360405160405180910390a26001915050610f32565b5f9150505b92915050565b6001602052805f5260405f205f915054906101000a900460ff1681565b5f5481565b5f808383810190610f6b9190611fd0565b9050610f79815f0151611587565b91505092915050565b610f8a6112f6565b63389a75e1600c52805f526020600c208054421115610fb057636f5e88185f526004601cfd5b5f815550610fbd816114c1565b50565b5f610fc96112f6565b5f8383810190610fd99190611fd0565b90505f8160200151806020019051810190610ff49190612072565b9050600280811115611009576110086118de565b5b600260149054906101000a900460ff16600281111561102b5761102a6118de565b5b036110b0576003548114158061104157505f8054115b156110a457338260405160200161105891906120d7565b6040516020818303038152906040526040517f4139d81d00000000000000000000000000000000000000000000000000000000815260040161109b9291906120f7565b60405180910390fd5b5f600481905550611148565b5f600354826110bf9190611aa1565b146111225733826040516020016110d691906120d7565b6040516020818303038152906040526040517f4139d81d0000000000000000000000000000000000000000000000000000000081526004016111199291906120f7565b60405180910390fd5b600354816111309190612125565b60045f8282546111409190612155565b925050819055505b611197825f01518260025f9054906101000a900473ffffffffffffffffffffffffffffffffffffffff1673ffffffffffffffffffffffffffffffffffffffff1661133c9092919063ffffffff16565b815f015173ffffffffffffffffffffffffffffffffffffffff167f9ad2e7a4af16dceda9cce4274b2f59c328d8c012eb0e15eb5e1e73b7d8f264d360025f9054906101000a900473ffffffffffffffffffffffffffffffffffffffff16845f01518460405160200161120b93929190611b63565b60405160208183030381529060405260405161122791906118be565b60405180910390a260019250505092915050565b6112436112f6565b8060601b61125857637448fbae5f526004601cfd5b611261816114c1565b50565b5f63389a75e1600c52815f526020600c20549050919050565b5f7f42606236000000000000000000000000000000000000000000000000000000007bffffffffffffffffffffffffffffffffffffffffffffffffffffffff1916827bffffffffffffffffffffffffffffffffffffffffffffffffffffffff191614806112ef57506112ee826115e8565b5b9050919050565b7fffffffffffffffffffffffffffffffffffffffffffffffffffffffff7487392754331461132b576382b429005f526004601cfd5b565b5f602082209050808252919050565b81601452806034526fa9059cbb0000000000000000000000005f5260205f604460105f875af13d1560015f5114171661137c576390b8ec185f526004601cfd5b5f603452505050565b5f6202a300905090565b5f7fffffffffffffffffffffffffffffffffffffffffffffffffffffffffbf6011325f1b905090565b5f816014526f70a082310000000000000000000000005f5260208060246010865afa601f3d111660205102905092915050565b6113f3611651565b1561146b577fffffffffffffffffffffffffffffffffffffffffffffffffffffffff7487392780541561142d57630dc149f05f526004601cfd5b8160601b60601c9150811560ff1b82178155815f7f8be0079c531659141344cd1fd0a4f28419497f9722a3daafe3b4186f6b6457e05f80a3506114be565b8060601b60601c9050807fffffffffffffffffffffffffffffffffffffffffffffffffffffffff7487392755805f7f8be0079c531659141344cd1fd0a4f28419497f9722a3daafe3b4186f6b6457e05f80a35b50565b6114c9611651565b1561152e577fffffffffffffffffffffffffffffffffffffffffffffffffffffffff748739278160601b60601c91508181547f8be0079c531659141344cd1fd0a4f28419497f9722a3daafe3b4186f6b6457e05f80a3811560ff1b8217815550611584565b7fffffffffffffffffffffffffffffffffffffffffffffffffffffffff748739278160601b60601c91508181547f8be0079c531659141344cd1fd0a4f28419497f9722a3daafe3b4186f6b6457e05f80a3818155505b50565b5f60015f8373ffffffffffffffffffffffffffffffffffffffff1673ffffffffffffffffffffffffffffffffffffffff1681526020019081526020015f205f9054906101000a900460ff161580156115e157506004545f54105b9050919050565b5f7f01ffc9a7000000000000000000000000000000000000000000000000000000007bffffffffffffffffffffffffffffffffffffffffffffffffffffffff1916827bffffffffffffffffffffffffffffffffffffffffffffffffffffffff1916149050919050565b5f90565b5f604051905090565b5f80fd5b5f80fd5b5f7fffffffff0000000000000000000000000000000000000000000000000000000082169050919050565b61169a81611666565b81146116a4575f80fd5b50565b5f813590506116b581611691565b92915050565b5f602082840312156116d0576116cf61165e565b5b5f6116dd848285016116a7565b91505092915050565b5f8115159050919050565b6116fa816116e6565b82525050565b5f6020820190506117135f8301846116f1565b92915050565b5f819050919050565b61172b81611719565b82525050565b5f6020820190506117445f830184611722565b92915050565b5f73ffffffffffffffffffffffffffffffffffffffff82169050919050565b5f6117738261174a565b9050919050565b61178381611769565b82525050565b5f60208201905061179c5f83018461177a565b92915050565b5f80fd5b5f80fd5b5f80fd5b5f8083601f8401126117c3576117c26117a2565b5b8235905067ffffffffffffffff8111156117e0576117df6117a6565b5b6020830191508360018202830111156117fc576117fb6117aa565b5b9250929050565b5f80602083850312156118195761181861165e565b5b5f83013567ffffffffffffffff81111561183657611835611662565b5b611842858286016117ae565b92509250509250929050565b5f81519050919050565b5f82825260208201905092915050565b8281835e5f83830152505050565b5f601f19601f8301169050919050565b5f6118908261184e565b61189a8185611858565b93506118aa818560208601611868565b6118b381611876565b840191505092915050565b5f6020820190508181035f8301526118d68184611886565b905092915050565b7f4e487b71000000000000000000000000000000000000000000000000000000005f52602160045260245ffd5b6003811061191c5761191b6118de565b5b50565b5f81905061192c8261190b565b919050565b5f61193b8261191f565b9050919050565b61194b81611931565b82525050565b5f6020820190506119645f830184611942565b92915050565b61197381611719565b811461197d575f80fd5b50565b5f8135905061198e8161196a565b92915050565b5f602082840312156119a9576119a861165e565b5b5f6119b684828501611980565b91505092915050565b6119c881611769565b81146119d2575f80fd5b50565b5f813590506119e3816119bf565b92915050565b5f602082840312156119fe576119fd61165e565b5b5f611a0b848285016119d5565b91505092915050565b7f4e487b71000000000000000000000000000000000000000000000000000000005f52601160045260245ffd5b5f611a4b82611719565b9150611a5683611719565b9250828201905080821115611a6e57611a6d611a14565b5b92915050565b7f4e487b71000000000000000000000000000000000000000000000000000000005f52601260045260245ffd5b5f611aab82611719565b9150611ab683611719565b925082611ac657611ac5611a74565b5b828206905092915050565b7f4e487b71000000000000000000000000000000000000000000000000000000005f52603260045260245ffd5b5f8160601b9050919050565b5f611b1482611afe565b9050919050565b5f611b2582611b0a565b9050919050565b611b3d611b3882611769565b611b1b565b82525050565b5f819050919050565b611b5d611b5882611719565b611b43565b82525050565b5f611b6e8286611b2c565b601482019150611b7e8285611b2c565b601482019150611b8e8284611b4c565b602082019150819050949350505050565b5f80fd5b7f4e487b71000000000000000000000000000000000000000000000000000000005f52604160045260245ffd5b611bd982611876565b810181811067ffffffffffffffff82111715611bf857611bf7611ba3565b5b80604052505050565b5f611c0a611655565b9050611c168282611bd0565b919050565b5f80fd5b60038110611c2b575f80fd5b50565b5f81359050611c3c81611c1f565b92915050565b5f60808284031215611c5757611c56611b9f565b5b611c616080611c01565b90505f611c70848285016119d5565b5f830152506020611c8384828501611c2e565b6020830152506040611c9784828501611980565b6040830152506060611cab84828501611980565b60608301525092915050565b5f60808284031215611ccc57611ccb61165e565b5b5f611cd984828501611c42565b91505092915050565b5f611cec82611719565b9150611cf783611719565b9250828202611d0581611719565b91508282048414831517611d1c57611d1b611a14565b5b5092915050565b5f606082019050611d365f83018661177a565b611d436020830185611722565b611d506040830184611722565b949350505050565b611d6181611719565b82525050565b602082015f820151611d7b5f850182611d58565b50505050565b5f602082019050611d945f830184611d67565b92915050565b60038110611dab57611daa6118de565b5b50565b5f819050611dbb82611d9a565b919050565b5f611dca82611dae565b9050919050565b611dda81611dc0565b82525050565b611de981611769565b82525050565b5f82825260208201905092915050565b5f611e098261184e565b611e138185611def565b9350611e23818560208601611868565b611e2c81611876565b840191505092915050565b5f608083015f830151611e4c5f860182611dd1565b506020830151611e5f6020860182611de0565b506040830151611e726040860182611de0565b5060608301518482036060860152611e8a8282611dff565b9150508091505092915050565b5f6020820190508181035f830152611eaf8184611e37565b905092915050565b5f80fd5b5f67ffffffffffffffff821115611ed557611ed4611ba3565b5b611ede82611876565b9050602081019050919050565b828183375f83830152505050565b5f611f0b611f0684611ebb565b611c01565b905082815260208101848484011115611f2757611f26611eb7565b5b611f32848285611eeb565b509392505050565b5f82601f830112611f4e57611f4d6117a2565b5b8135611f5e848260208601611ef9565b91505092915050565b5f60408284031215611f7c57611f7b611b9f565b5b611f866040611c01565b90505f611f95848285016119d5565b5f83015250602082013567ffffffffffffffff811115611fb857611fb7611c1b565b5b611fc484828501611f3a565b60208301525092915050565b5f60208284031215611fe557611fe461165e565b5b5f82013567ffffffffffffffff81111561200257612001611662565b5b61200e84828501611f67565b91505092915050565b5f61202182611719565b91507fffffffffffffffffffffffffffffffffffffffffffffffffffffffffffffffff820361205357612052611a14565b5b600182019050919050565b5f8151905061206c8161196a565b92915050565b5f602082840312156120875761208661165e565b5b5f6120948482850161205e565b91505092915050565b5f604083015f8301516120b25f860182611de0565b50602083015184820360208601526120ca8282611dff565b9150508091505092915050565b5f6020820190508181035f8301526120ef818461209d565b905092915050565b5f60408201905061210a5f83018561177a565b818103602083015261211c8184611886565b90509392505050565b5f61212f82611719565b915061213a83611719565b92508261214a57612149611a74565b5b828204905092915050565b5f61215f82611719565b915061216a83611719565b925082820390508181111561218257612181611a14565b5b9291505056fea264697066735822122062d8848c89c46de867e2b86343ad1e79a49ba78e3f0d1ad38eaff39352f91f4164736f6c63430008190033",
  "linkReferences": {},
  "deployedLinkReferences": {}
}