{"contracts/budgets/VestingBudget.sol":{"VestingBudget":{"abi":[{"inputs":[],"stateMutability":"nonpayable","type":"constructor"},{"inputs":[],"name":"AlreadyInitialized","type":"error"},{"inputs":[],"name":"CloneAlreadyInitialized","type":"error"},{"inputs":[],"name":"InitializerNotImplemented","type":"error"},{"inputs":[{"internalType":"address","name":"asset","type":"address"},{"internalType":"uint256","name":"available","type":"uint256"},{"internalType":"uint256","name":"required","type":"uint256"}],"name":"InsufficientFunds","type":"error"},{"inputs":[{"internalType":"address","name":"asset","type":"address"},{"internalType":"uint256","name":"amount","type":"uint256"}],"name":"InvalidAllocation","type":"error"},{"inputs":[],"name":"InvalidInitialization","type":"error"},{"inputs":[],"name":"InvalidInitializationData","type":"error"},{"inputs":[],"name":"LengthMismatch","type":"error"},{"inputs":[],"name":"NewOwnerIsZeroAddress","type":"error"},{"inputs":[],"name":"NoHandoverRequest","type":"error"},{"inputs":[],"name":"NotInitializing","type":"error"},{"inputs":[],"name":"Reentrancy","type":"error"},{"inputs":[{"internalType":"address","name":"asset","type":"address"},{"internalType":"address","name":"to","type":"address"},{"internalType":"uint256","name":"amount","type":"uint256"}],"name":"TransferFailed","type":"error"},{"inputs":[],"name":"Unauthorized","type":"error"},{"anonymous":false,"inputs":[{"indexed":true,"internalType":"address","name":"account","type":"address"},{"indexed":false,"internalType":"bool","name":"isAuthorized","type":"bool"}],"name":"Authorized","type":"event"},{"anonymous":false,"inputs":[{"indexed":true,"internalType":"address","name":"asset","type":"address"},{"indexed":false,"internalType":"address","name":"to","type":"address"},{"indexed":false,"internalType":"uint256","name":"amount","type":"uint256"}],"name":"Distributed","type":"event"},{"anonymous":false,"inputs":[{"indexed":false,"internalType":"uint64","name":"version","type":"uint64"}],"name":"Initialized","type":"event"},{"anonymous":false,"inputs":[{"indexed":true,"internalType":"address","name":"pendingOwner","type":"address"}],"name":"OwnershipHandoverCanceled","type":"event"},{"anonymous":false,"inputs":[{"indexed":true,"internalType":"address","name":"pendingOwner","type":"address"}],"name":"OwnershipHandoverRequested","type":"event"},{"anonymous":false,"inputs":[{"indexed":true,"internalType":"address","name":"oldOwner","type":"address"},{"indexed":true,"internalType":"address","name":"newOwner","type":"address"}],"name":"OwnershipTransferred","type":"event"},{"stateMutability":"payable","type":"fallback"},{"inputs":[{"internalType":"bytes","name":"data_","type":"bytes"}],"name":"allocate","outputs":[{"internalType":"bool","name":"","type":"bool"}],"stateMutability":"payable","type":"function"},{"inputs":[{"internalType":"address","name":"asset_","type":"address"}],"name":"available","outputs":[{"internalType":"uint256","name":"","type":"uint256"}],"stateMutability":"view","type":"function"},{"inputs":[],"name":"cancelOwnershipHandover","outputs":[],"stateMutability":"payable","type":"function"},{"inputs":[],"name":"cliff","outputs":[{"internalType":"uint64","name":"","type":"uint64"}],"stateMutability":"view","type":"function"},{"inputs":[{"internalType":"address","name":"pendingOwner","type":"address"}],"name":"completeOwnershipHandover","outputs":[],"stateMutability":"payable","type":"function"},{"inputs":[{"internalType":"bytes","name":"data_","type":"bytes"}],"name":"disburse","outputs":[{"internalType":"bool","name":"","type":"bool"}],"stateMutability":"nonpayable","type":"function"},{"inputs":[{"internalType":"bytes[]","name":"data_","type":"bytes[]"}],"name":"disburseBatch","outputs":[{"internalType":"bool","name":"","type":"bool"}],"stateMutability":"nonpayable","type":"function"},{"inputs":[{"internalType":"address","name":"asset_","type":"address"}],"name":"distributed","outputs":[{"internalType":"uint256","name":"","type":"uint256"}],"stateMutability":"view","type":"function"},{"inputs":[],"name":"duration","outputs":[{"internalType":"uint64","name":"","type":"uint64"}],"stateMutability":"view","type":"function"},{"inputs":[],"name":"end","outputs":[{"internalType":"uint256","name":"","type":"uint256"}],"stateMutability":"view","type":"function"},{"inputs":[],"name":"getComponentInterface","outputs":[{"internalType":"bytes4","name":"","type":"bytes4"}],"stateMutability":"pure","type":"function"},{"inputs":[{"internalType":"bytes","name":"i","type":"bytes"}],"name":"getGarbageB","outputs":[{"internalType":"bool","name":"","type":"bool"}],"stateMutability":"pure","type":"function"},{"inputs":[{"internalType":"bytes","name":"data_","type":"bytes"}],"name":"initialize","outputs":[],"stateMutability":"nonpayable","type":"function"},{"inputs":[{"internalType":"address","name":"account_","type":"address"}],"name":"isAuthorized","outputs":[{"internalType":"bool","name":"","type":"bool"}],"stateMutability":"view","type":"function"},{"inputs":[],"name":"owner","outputs":[{"internalType":"address","name":"result","type":"address"}],"stateMutability":"view","type":"function"},{"inputs":[{"internalType":"address","name":"pendingOwner","type":"address"}],"name":"ownershipHandoverExpiresAt","outputs":[{"internalType":"uint256","name":"result","type":"uint256"}],"stateMutability":"view","type":"function"},{"inputs":[{"internalType":"bytes","name":"data_","type":"bytes"}],"name":"reclaim","outputs":[{"internalType":"bool","name":"","type":"bool"}],"stateMutability":"nonpayable","type":"function"},{"inputs":[{"internalType":"bytes","name":"","type":"bytes"}],"name":"reconcile","outputs":[{"internalType":"uint256","name":"","type":"uint256"}],"stateMutability":"nonpayable","type":"function"},{"inputs":[],"name":"renounceOwnership","outputs":[],"stateMutability":"payable","type":"function"},{"inputs":[],"name":"requestOwnershipHandover","outputs":[],"stateMutability":"payable","type":"function"},{"inputs":[{"internalType":"address[]","name":"account_","type":"address[]"},{"internalType":"bool[]","name":"authorized_","type":"bool[]"}],"name":"setAuthorized","outputs":[],"stateMutability":"nonpayable","type":"function"},{"inputs":[],"name":"start","outputs":[{"internalType":"uint64","name":"","type":"uint64"}],"stateMutability":"view","type":"function"},{"inputs":[{"internalType":"bytes4","name":"interfaceId","type":"bytes4"}],"name":"supportsInterface","outputs":[{"internalType":"bool","name":"","type":"bool"}],"stateMutability":"view","type":"function"},{"inputs":[{"internalType":"address","name":"asset_","type":"address"}],"name":"total","outputs":[{"internalType":"uint256","name":"","type":"uint256"}],"stateMutability":"view","type":"function"},{"inputs":[{"internalType":"address","name":"newOwner","type":"address"}],"name":"transferOwnership","outputs":[],"stateMutability":"payable","type":"function"},{"stateMutability":"payable","type":"receive"}],"evm":{"bytecode":{"linkReferences":{},"object":"608060405234801561000f575f80fd5b5061001f3361003260201b60201c565b61002d61010e60201b60201c565b6101a7565b61004061017a60201b60201c565b156100b8577fffffffffffffffffffffffffffffffffffffffffffffffffffffffff7487392780541561007a57630dc149f05f526004601cfd5b8160601b60601c9150811560ff1b82178155815f7f8be0079c531659141344cd1fd0a4f28419497f9722a3daafe3b4186f6b6457e05f80a35061010b565b8060601b60601c9050807fffffffffffffffffffffffffffffffffffffffffffffffffffffffff7487392755805f7f8be0079c531659141344cd1fd0a4f28419497f9722a3daafe3b4186f6b6457e05f80a35b50565b5f61011d61017e60201b60201c565b9050805460018116156101375763f92ee8a95f526004601cfd5b8160c01c808260011c14610175578060011b8355806020527fc7f505b2f371ae2175ee4913f4499e1f2633a7b5936321eed1cdaeb6115181d2602080a15b505050565b5f90565b5f7fffffffffffffffffffffffffffffffffffffffffffffffffffffffffbf6011325f1b905090565b612602806101b45f395ff3fe608060405260043610610169575f3560e01c80635aef467a116100d0578063efbe1c1c11610089578063f2fde38b11610063578063f2fde38b14610508578063fa4ca9b114610524578063fe9fbb8014610560578063fee81cf41461059c57610170565b8063efbe1c1c14610486578063f04e283e146104b0578063f1c30ec0146104cc57610170565b80635aef467a1461038057806361400c99146103b0578063715018a6146103ec5780638da5cb5b146103f6578063be9a655514610420578063d2514e841461044a57610170565b80633b6548a2116101225780633b6548a2146102725780634359d28a146102ae578063439fab91146102d6578063451cc191146102fe57806354d1f13d1461033a578063578bcf351461034457610170565b806301ffc9a7146101725780630fb5a6b4146101ae57806310098ad5146101d857806313d033c014610214578063256929621461023e57806328d6183b1461024857610170565b3661017057005b005b34801561017d575f80fd5b50610198600480360381019061019391906119c5565b6105d8565b6040516101a59190611a0a565b60405180910390f35b3480156101b9575f80fd5b506101c2610651565b6040516101cf9190611a45565b60405180910390f35b3480156101e3575f80fd5b506101fe60048036038101906101f99190611ab8565b61066b565b60405161020b9190611afb565b60405180910390f35b34801561021f575f80fd5b506102286106c4565b6040516102359190611a45565b60405180910390f35b6102466106de565b005b348015610253575f80fd5b5061025c61072f565b6040516102699190611b23565b60405180910390f35b34801561027d575f80fd5b5061029860048036038101906102939190611b9d565b610756565b6040516102a59190611a0a565b60405180910390f35b3480156102b9575f80fd5b506102d460048036038101906102cf9190611c92565b610761565b005b3480156102e1575f80fd5b506102fc60048036038101906102f79190611b9d565b61086b565b005b348015610309575f80fd5b50610324600480360381019061031f9190611b9d565b610a15565b6040516103319190611afb565b60405180910390f35b610342610a1c565b005b34801561034f575f80fd5b5061036a60048036038101906103659190611ab8565b610a55565b6040516103779190611afb565b60405180910390f35b61039a60048036038101906103959190611b9d565b610a9a565b6040516103a79190611a0a565b60405180910390f35b3480156103bb575f80fd5b506103d660048036038101906103d19190611d65565b610c67565b6040516103e39190611a0a565b60405180910390f35b6103f4610ccb565b005b348015610401575f80fd5b5061040a610cde565b6040516104179190611dbf565b60405180910390f35b34801561042b575f80fd5b50610434610d06565b6040516104419190611a45565b60405180910390f35b348015610455575f80fd5b50610470600480360381019061046b9190611ab8565b610d1f565b60405161047d9190611afb565b60405180910390f35b348015610491575f80fd5b5061049a610dd6565b6040516104a79190611afb565b60405180910390f35b6104ca60048036038101906104c59190611ab8565b610e1d565b005b3480156104d7575f80fd5b506104f260048036038101906104ed9190611b9d565b610e5b565b6040516104ff9190611a0a565b60405180910390f35b610522600480360381019061051d9190611ab8565b610f40565b005b34801561052f575f80fd5b5061054a60048036038101906105459190611b9d565b610f69565b6040516105579190611a0a565b60405180910390f35b34801561056b575f80fd5b5061058660048036038101906105819190611ab8565b611068565b6040516105939190611a0a565b60405180910390f35b3480156105a7575f80fd5b506105c260048036038101906105bd9190611ab8565b6110f7565b6040516105cf9190611afb565b60405180910390f35b5f7f124c993e000000000000000000000000000000000000000000000000000000007bffffffffffffffffffffffffffffffffffffffffffffffffffffffff1916827bffffffffffffffffffffffffffffffffffffffffffffffffffffffff1916148061064a575061064982611110565b5b9050919050565b600260089054906101000a900467ffffffffffffffff1681565b5f805f8373ffffffffffffffffffffffffffffffffffffffff1673ffffffffffffffffffffffffffffffffffffffff1681526020019081526020015f20546106b38342611189565b6106bd9190611e05565b9050919050565b600260109054906101000a900467ffffffffffffffff1681565b5f6106e761124a565b67ffffffffffffffff164201905063389a75e1600c52335f52806020600c2055337fdbf36a107da19e49527a7176a1babf963b4b0ff8cde35ee35d6cd8f1f9ac7e1d5f80a250565b5f7f124c993e00000000000000000000000000000000000000000000000000000000905090565b5f6001905092915050565b610769611254565b8181905084849050146107a8576040517fff633a3800000000000000000000000000000000000000000000000000000000815260040160405180910390fd5b5f5b84849050811015610864578282828181106107c8576107c7611e38565b5b90506020020160208101906107dd9190611e8f565b60015f8787858181106107f3576107f2611e38565b5b90506020020160208101906108089190611ab8565b73ffffffffffffffffffffffffffffffffffffffff1673ffffffffffffffffffffffffffffffffffffffff1681526020019081526020015f205f6101000a81548160ff02191690831515021790555080806001019150506107aa565b5050505050565b5f61087461128b565b905080546003825580156108a65760018160011c14303b1061089d5763f92ee8a95f526004601cfd5b818160ff1b1b91505b505f83838101906108b791906120d9565b9050806040015160025f6101000a81548167ffffffffffffffff021916908367ffffffffffffffff1602179055508060600151600260086101000a81548167ffffffffffffffff021916908367ffffffffffffffff1602179055508060800151600260106101000a81548167ffffffffffffffff021916908367ffffffffffffffff16021790555061094b815f01516112b4565b5f5b8160200151518110156109d9576001805f8460200151848151811061097557610974611e38565b5b602002602001015173ffffffffffffffffffffffffffffffffffffffff1673ffffffffffffffffffffffffffffffffffffffff1681526020019081526020015f205f6101000a81548160ff021916908315150217905550808060010191505061094d565b50508015610a10576002815560016020527fc7f505b2f371ae2175ee4913f4499e1f2633a7b5936321eed1cdaeb6115181d2602080a15b505050565b5f92915050565b63389a75e1600c52335f525f6020600c2055337ffa7b8eab7da67f412cc9575ed43464468f9bfbae89d1675917346ca6d8fe3c925f80a2565b5f805f8373ffffffffffffffffffffffffffffffffffffffff1673ffffffffffffffffffffffffffffffffffffffff1681526020019081526020015f20549050919050565b5f808383810190610aab9190612284565b90505f6002811115610ac057610abf6122cb565b5b815f01516002811115610ad657610ad56122cb565b5b03610b4c575f8160600151806020019051810190610af4919061235b565b9050805f01513414610b46578160200151815f01516040517fcece04c5000000000000000000000000000000000000000000000000000000008152600401610b3d929190612386565b60405180910390fd5b50610c5b565b60016002811115610b6057610b5f6122cb565b5b815f01516002811115610b7657610b756122cb565b5b03610c51575f8160600151806020019051810190610b94919061235b565b9050610bce826040015130835f0151856020015173ffffffffffffffffffffffffffffffffffffffff1661138a909392919063ffffffff16565b805f0151610bff30846020015173ffffffffffffffffffffffffffffffffffffffff166113e490919063ffffffff16565b1015610c4b578160200151815f01516040517fcece04c5000000000000000000000000000000000000000000000000000000008152600401610c42929190612386565b60405180910390fd5b50610c5a565b5f915050610c61565b5b60019150505b92915050565b5f805f90505b83839050811015610cbf57610ca5848483818110610c8e57610c8d611e38565b5b9050602002810190610ca091906123b9565b610f69565b610cb2575f915050610cc5565b8080600101915050610c6d565b50600190505b92915050565b610cd3611254565b610cdc5f611417565b565b5f7fffffffffffffffffffffffffffffffffffffffffffffffffffffffff7487392754905090565b60025f9054906101000a900467ffffffffffffffff1681565b5f805f73ffffffffffffffffffffffffffffffffffffffff168373ffffffffffffffffffffffffffffffffffffffff1614610d8257610d7d308473ffffffffffffffffffffffffffffffffffffffff166113e490919063ffffffff16565b610d84565b475b9050805f808573ffffffffffffffffffffffffffffffffffffffff1673ffffffffffffffffffffffffffffffffffffffff1681526020019081526020015f2054610dce919061241b565b915050919050565b5f600260089054906101000a900467ffffffffffffffff1660025f9054906101000a900467ffffffffffffffff16610e0e919061244e565b67ffffffffffffffff16905090565b610e25611254565b63389a75e1600c52805f526020600c208054421115610e4b57636f5e88185f526004601cfd5b5f815550610e5881611417565b50565b5f610e64611254565b5f8383810190610e749190612284565b90505f6002811115610e8957610e886122cb565b5b815f01516002811115610e9f57610e9e6122cb565b5b1480610ed2575060016002811115610eba57610eb96122cb565b5b815f01516002811115610ed057610ecf6122cb565b5b145b15610f2b575f8160600151806020019051810190610ef0919061235b565b9050610f25826020015183604001515f845f015114610f1257835f0151610f20565b610f1f856020015161066b565b5b6114dd565b50610f34565b5f915050610f3a565b60019150505b92915050565b610f48611254565b8060601b610f5d57637448fbae5f526004601cfd5b610f6681611417565b50565b5f610f7333611068565b610fa9576040517f82b4290000000000000000000000000000000000000000000000000000000000815260040160405180910390fd5b5f8383810190610fb99190612284565b905060016002811115610fcf57610fce6122cb565b5b815f01516002811115610fe557610fe46122cb565b5b148061101757505f6002811115610fff57610ffe6122cb565b5b815f01516002811115611015576110146122cb565b5b145b15611053575f8160600151806020019051810190611035919061235b565b905061104d82602001518360400151835f01516114dd565b5061105c565b5f915050611062565b60019150505b92915050565b5f60015f8373ffffffffffffffffffffffffffffffffffffffff1673ffffffffffffffffffffffffffffffffffffffff1681526020019081526020015f205f9054906101000a900460ff16806110f057506110c1610cde565b73ffffffffffffffffffffffffffffffffffffffff168273ffffffffffffffffffffffffffffffffffffffff16145b9050919050565b5f63389a75e1600c52815f526020600c20549050919050565b5f7f74009ff1000000000000000000000000000000000000000000000000000000007bffffffffffffffffffffffffffffffffffffffffffffffffffffffff1916827bffffffffffffffffffffffffffffffffffffffffffffffffffffffff191614806111825750611181826116f5565b5b9050919050565b5f805f73ffffffffffffffffffffffffffffffffffffffff168473ffffffffffffffffffffffffffffffffffffffff16146111ec576111e7308573ffffffffffffffffffffffffffffffffffffffff166113e490919063ffffffff16565b6111ee565b475b90506112415f808673ffffffffffffffffffffffffffffffffffffffff1673ffffffffffffffffffffffffffffffffffffffff1681526020019081526020015f20548261123b919061241b565b8461176e565b91505092915050565b5f6202a300905090565b7fffffffffffffffffffffffffffffffffffffffffffffffffffffffff74873927543314611289576382b429005f526004601cfd5b565b5f7fffffffffffffffffffffffffffffffffffffffffffffffffffffffffbf6011325f1b905090565b6112bc61188c565b15611334577fffffffffffffffffffffffffffffffffffffffffffffffffffffffff748739278054156112f657630dc149f05f526004601cfd5b8160601b60601c9150811560ff1b82178155815f7f8be0079c531659141344cd1fd0a4f28419497f9722a3daafe3b4186f6b6457e05f80a350611387565b8060601b60601c9050807fffffffffffffffffffffffffffffffffffffffffffffffffffffffff7487392755805f7f8be0079c531659141344cd1fd0a4f28419497f9722a3daafe3b4186f6b6457e05f80a35b50565b60405181606052826040528360601b602c526f23b872dd000000000000000000000000600c5260205f6064601c5f895af13d1560015f511417166113d557637939f4245f526004601cfd5b5f606052806040525050505050565b5f816014526f70a082310000000000000000000000005f5260208060246010865afa601f3d111660205102905092915050565b61141f61188c565b15611484577fffffffffffffffffffffffffffffffffffffffffffffffffffffffff748739278160601b60601c91508181547f8be0079c531659141344cd1fd0a4f28419497f9722a3daafe3b4186f6b6457e05f80a3811560ff1b82178155506114da565b7fffffffffffffffffffffffffffffffffffffffffffffffffffffffff748739278160601b60601c91508181547f8be0079c531659141344cd1fd0a4f28419497f9722a3daafe3b4186f6b6457e05f80a3818155505b50565b3068929eee149b4bd2126854036114fb5763ab143c065f526004601cfd5b3068929eee149b4bd21268555f73ffffffffffffffffffffffffffffffffffffffff168273ffffffffffffffffffffffffffffffffffffffff160361157b578282826040517fbf182be800000000000000000000000000000000000000000000000000000000815260040161157293929190612489565b60405180910390fd5b6115848361066b565b8111156115d457826115958461066b565b826040517f5c54305e0000000000000000000000000000000000000000000000000000000081526004016115cb939291906124be565b60405180910390fd5b805f808573ffffffffffffffffffffffffffffffffffffffff1673ffffffffffffffffffffffffffffffffffffffff1681526020019081526020015f205f82825461161f919061241b565b925050819055505f73ffffffffffffffffffffffffffffffffffffffff168373ffffffffffffffffffffffffffffffffffffffff1603611668576116638282611890565b611694565b61169382828573ffffffffffffffffffffffffffffffffffffffff166118ad9092919063ffffffff16565b5b8273ffffffffffffffffffffffffffffffffffffffff167fad4a9acf26d8bba7a8cf1a41160d59be042ee554578e256c98d2ab74cdd4354283836040516116dc929190612386565b60405180910390a23868929eee149b4bd2126855505050565b5f7f6ab67a0d000000000000000000000000000000000000000000000000000000007bffffffffffffffffffffffffffffffffffffffffffffffffffffffff1916827bffffffffffffffffffffffffffffffffffffffffffffffffffffffff191614806117675750611766826118f6565b5b9050919050565b5f600260109054906101000a900467ffffffffffffffff1660025f9054906101000a900467ffffffffffffffff166117a6919061244e565b67ffffffffffffffff168267ffffffffffffffff1610156117c9575f9050611886565b600260089054906101000a900467ffffffffffffffff1660025f9054906101000a900467ffffffffffffffff16611800919061244e565b67ffffffffffffffff168267ffffffffffffffff161061182257829050611886565b600260089054906101000a900467ffffffffffffffff1667ffffffffffffffff1660025f9054906101000a900467ffffffffffffffff168361186491906124f3565b67ffffffffffffffff1684611879919061252e565b611883919061259c565b90505b92915050565b5f90565b5f385f3884865af16118a95763b12d13eb5f526004601cfd5b5050565b81601452806034526fa9059cbb0000000000000000000000005f5260205f604460105f875af13d1560015f511417166118ed576390b8ec185f526004601cfd5b5f603452505050565b5f7f01ffc9a7000000000000000000000000000000000000000000000000000000007bffffffffffffffffffffffffffffffffffffffffffffffffffffffff1916827bffffffffffffffffffffffffffffffffffffffffffffffffffffffff1916149050919050565b5f604051905090565b5f80fd5b5f80fd5b5f7fffffffff0000000000000000000000000000000000000000000000000000000082169050919050565b6119a481611970565b81146119ae575f80fd5b50565b5f813590506119bf8161199b565b92915050565b5f602082840312156119da576119d9611968565b5b5f6119e7848285016119b1565b91505092915050565b5f8115159050919050565b611a04816119f0565b82525050565b5f602082019050611a1d5f8301846119fb565b92915050565b5f67ffffffffffffffff82169050919050565b611a3f81611a23565b82525050565b5f602082019050611a585f830184611a36565b92915050565b5f73ffffffffffffffffffffffffffffffffffffffff82169050919050565b5f611a8782611a5e565b9050919050565b611a9781611a7d565b8114611aa1575f80fd5b50565b5f81359050611ab281611a8e565b92915050565b5f60208284031215611acd57611acc611968565b5b5f611ada84828501611aa4565b91505092915050565b5f819050919050565b611af581611ae3565b82525050565b5f602082019050611b0e5f830184611aec565b92915050565b611b1d81611970565b82525050565b5f602082019050611b365f830184611b14565b92915050565b5f80fd5b5f80fd5b5f80fd5b5f8083601f840112611b5d57611b5c611b3c565b5b8235905067ffffffffffffffff811115611b7a57611b79611b40565b5b602083019150836001820283011115611b9657611b95611b44565b5b9250929050565b5f8060208385031215611bb357611bb2611968565b5b5f83013567ffffffffffffffff811115611bd057611bcf61196c565b5b611bdc85828601611b48565b92509250509250929050565b5f8083601f840112611bfd57611bfc611b3c565b5b8235905067ffffffffffffffff811115611c1a57611c19611b40565b5b602083019150836020820283011115611c3657611c35611b44565b5b9250929050565b5f8083601f840112611c5257611c51611b3c565b5b8235905067ffffffffffffffff811115611c6f57611c6e611b40565b5b602083019150836020820283011115611c8b57611c8a611b44565b5b9250929050565b5f805f8060408587031215611caa57611ca9611968565b5b5f85013567ffffffffffffffff811115611cc757611cc661196c565b5b611cd387828801611be8565b9450945050602085013567ffffffffffffffff811115611cf657611cf561196c565b5b611d0287828801611c3d565b925092505092959194509250565b5f8083601f840112611d2557611d24611b3c565b5b8235905067ffffffffffffffff811115611d4257611d41611b40565b5b602083019150836020820283011115611d5e57611d5d611b44565b5b9250929050565b5f8060208385031215611d7b57611d7a611968565b5b5f83013567ffffffffffffffff811115611d9857611d9761196c565b5b611da485828601611d10565b92509250509250929050565b611db981611a7d565b82525050565b5f602082019050611dd25f830184611db0565b92915050565b7f4e487b71000000000000000000000000000000000000000000000000000000005f52601160045260245ffd5b5f611e0f82611ae3565b9150611e1a83611ae3565b9250828203905081811115611e3257611e31611dd8565b5b92915050565b7f4e487b71000000000000000000000000000000000000000000000000000000005f52603260045260245ffd5b611e6e816119f0565b8114611e78575f80fd5b50565b5f81359050611e8981611e65565b92915050565b5f60208284031215611ea457611ea3611968565b5b5f611eb184828501611e7b565b91505092915050565b5f80fd5b5f601f19601f8301169050919050565b7f4e487b71000000000000000000000000000000000000000000000000000000005f52604160045260245ffd5b611f0482611ebe565b810181811067ffffffffffffffff82111715611f2357611f22611ece565b5b80604052505050565b5f611f3561195f565b9050611f418282611efb565b919050565b5f80fd5b5f67ffffffffffffffff821115611f6457611f63611ece565b5b602082029050602081019050919050565b5f611f87611f8284611f4a565b611f2c565b90508083825260208201905060208402830185811115611faa57611fa9611b44565b5b835b81811015611fd35780611fbf8882611aa4565b845260208401935050602081019050611fac565b5050509392505050565b5f82601f830112611ff157611ff0611b3c565b5b8135612001848260208601611f75565b91505092915050565b61201381611a23565b811461201d575f80fd5b50565b5f8135905061202e8161200a565b92915050565b5f60a0828403121561204957612048611eba565b5b61205360a0611f2c565b90505f61206284828501611aa4565b5f83015250602082013567ffffffffffffffff81111561208557612084611f46565b5b61209184828501611fdd565b60208301525060406120a584828501612020565b60408301525060606120b984828501612020565b60608301525060806120cd84828501612020565b60808301525092915050565b5f602082840312156120ee576120ed611968565b5b5f82013567ffffffffffffffff81111561210b5761210a61196c565b5b61211784828501612034565b91505092915050565b6003811061212c575f80fd5b50565b5f8135905061213d81612120565b92915050565b5f80fd5b5f67ffffffffffffffff82111561216157612160611ece565b5b61216a82611ebe565b9050602081019050919050565b828183375f83830152505050565b5f61219761219284612147565b611f2c565b9050828152602081018484840111156121b3576121b2612143565b5b6121be848285612177565b509392505050565b5f82601f8301126121da576121d9611b3c565b5b81356121ea848260208601612185565b91505092915050565b5f6080828403121561220857612207611eba565b5b6122126080611f2c565b90505f6122218482850161212f565b5f83015250602061223484828501611aa4565b602083015250604061224884828501611aa4565b604083015250606082013567ffffffffffffffff81111561226c5761226b611f46565b5b612278848285016121c6565b60608301525092915050565b5f6020828403121561229957612298611968565b5b5f82013567ffffffffffffffff8111156122b6576122b561196c565b5b6122c2848285016121f3565b91505092915050565b7f4e487b71000000000000000000000000000000000000000000000000000000005f52602160045260245ffd5b61230181611ae3565b811461230b575f80fd5b50565b5f8151905061231c816122f8565b92915050565b5f6020828403121561233757612336611eba565b5b6123416020611f2c565b90505f6123508482850161230e565b5f8301525092915050565b5f602082840312156123705761236f611968565b5b5f61237d84828501612322565b91505092915050565b5f6040820190506123995f830185611db0565b6123a66020830184611aec565b9392505050565b5f80fd5b5f80fd5b5f80fd5b5f80833560016020038436030381126123d5576123d46123ad565b5b80840192508235915067ffffffffffffffff8211156123f7576123f66123b1565b5b602083019250600182023603831315612413576124126123b5565b5b509250929050565b5f61242582611ae3565b915061243083611ae3565b925082820190508082111561244857612447611dd8565b5b92915050565b5f61245882611a23565b915061246383611a23565b9250828201905067ffffffffffffffff81111561248357612482611dd8565b5b92915050565b5f60608201905061249c5f830186611db0565b6124a96020830185611db0565b6124b66040830184611aec565b949350505050565b5f6060820190506124d15f830186611db0565b6124de6020830185611aec565b6124eb6040830184611aec565b949350505050565b5f6124fd82611a23565b915061250883611a23565b9250828203905067ffffffffffffffff81111561252857612527611dd8565b5b92915050565b5f61253882611ae3565b915061254383611ae3565b925082820261255181611ae3565b9150828204841483151761256857612567611dd8565b5b5092915050565b7f4e487b71000000000000000000000000000000000000000000000000000000005f52601260045260245ffd5b5f6125a682611ae3565b91506125b183611ae3565b9250826125c1576125c061256f565b5b82820490509291505056fea2646970667358221220d067dbf0e6b47aa89f055040a33b2711b7d7794a8e4c68e2ebfdf0746d36879a64736f6c63430008190033","opcodes":"PUSH1 0x80 PUSH1 0x40 MSTORE CALLVALUE DUP1 ISZERO PUSH2 0xF JUMPI PUSH0 DUP1 REVERT JUMPDEST POP PUSH2 0x1F CALLER PUSH2 0x32 PUSH1 0x20 SHL PUSH1 0x20 SHR JUMP JUMPDEST PUSH2 0x2D PUSH2 0x10E PUSH1 0x20 SHL PUSH1 0x20 SHR JUMP JUMPDEST PUSH2 0x1A7 JUMP JUMPDEST PUSH2 0x40 PUSH2 0x17A PUSH1 0x20 SHL PUSH1 0x20 SHR JUMP JUMPDEST ISZERO PUSH2 0xB8 JUMPI PUSH32 0xFFFFFFFFFFFFFFFFFFFFFFFFFFFFFFFFFFFFFFFFFFFFFFFFFFFFFFFF74873927 DUP1 SLOAD ISZERO PUSH2 0x7A JUMPI PUSH4 0xDC149F0 PUSH0 MSTORE PUSH1 0x4 PUSH1 0x1C REVERT JUMPDEST DUP2 PUSH1 0x60 SHL PUSH1 0x60 SHR SWAP2 POP DUP2 ISZERO PUSH1 0xFF SHL DUP3 OR DUP2 SSTORE DUP2 PUSH0 PUSH32 0x8BE0079C531659141344CD1FD0A4F28419497F9722A3DAAFE3B4186F6B6457E0 PUSH0 DUP1 LOG3 POP PUSH2 0x10B JUMP JUMPDEST DUP1 PUSH1 0x60 SHL PUSH1 0x60 SHR SWAP1 POP DUP1 PUSH32 0xFFFFFFFFFFFFFFFFFFFFFFFFFFFFFFFFFFFFFFFFFFFFFFFFFFFFFFFF74873927 SSTORE DUP1 PUSH0 PUSH32 0x8BE0079C531659141344CD1FD0A4F28419497F9722A3DAAFE3B4186F6B6457E0 PUSH0 DUP1 LOG3 JUMPDEST POP JUMP JUMPDEST PUSH0 PUSH2 0x11D PUSH2 0x17E PUSH1 0x20 SHL PUSH1 0x20 SHR JUMP JUMPDEST SWAP1 POP DUP1 SLOAD PUSH1 0x1 DUP2 AND ISZERO PUSH2 0x137 JUMPI PUSH4 0xF92EE8A9 PUSH0 MSTORE PUSH1 0x4 PUSH1 0x1C REVERT JUMPDEST DUP2 PUSH1 0xC0 SHR DUP1 DUP3 PUSH1 0x1 SHR EQ PUSH2 0x175 JUMPI DUP1 PUSH1 0x1 SHL DUP4 SSTORE DUP1 PUSH1 0x20 MSTORE PUSH32 0xC7F505B2F371AE2175EE4913F4499E1F2633A7B5936321EED1CDAEB6115181D2 PUSH1 0x20 DUP1 LOG1 JUMPDEST POP POP POP JUMP JUMPDEST PUSH0 SWAP1 JUMP JUMPDEST PUSH0 PUSH32 0xFFFFFFFFFFFFFFFFFFFFFFFFFFFFFFFFFFFFFFFFFFFFFFFFFFFFFFFFBF601132 PUSH0 SHL SWAP1 POP SWAP1 JUMP JUMPDEST PUSH2 0x2602 DUP1 PUSH2 0x1B4 PUSH0 CODECOPY PUSH0 RETURN INVALID PUSH1 0x80 PUSH1 0x40 MSTORE PUSH1 0x4 CALLDATASIZE LT PUSH2 0x169 JUMPI PUSH0 CALLDATALOAD PUSH1 0xE0 SHR DUP1 PUSH4 0x5AEF467A GT PUSH2 0xD0 JUMPI DUP1 PUSH4 0xEFBE1C1C GT PUSH2 0x89 JUMPI DUP1 PUSH4 0xF2FDE38B GT PUSH2 0x63 JUMPI DUP1 PUSH4 0xF2FDE38B EQ PUSH2 0x508 JUMPI DUP1 PUSH4 0xFA4CA9B1 EQ PUSH2 0x524 JUMPI DUP1 PUSH4 0xFE9FBB80 EQ PUSH2 0x560 JUMPI DUP1 PUSH4 0xFEE81CF4 EQ PUSH2 0x59C JUMPI PUSH2 0x170 JUMP JUMPDEST DUP1 PUSH4 0xEFBE1C1C EQ PUSH2 0x486 JUMPI DUP1 PUSH4 0xF04E283E EQ PUSH2 0x4B0 JUMPI DUP1 PUSH4 0xF1C30EC0 EQ PUSH2 0x4CC JUMPI PUSH2 0x170 JUMP JUMPDEST DUP1 PUSH4 0x5AEF467A EQ PUSH2 0x380 JUMPI DUP1 PUSH4 0x61400C99 EQ PUSH2 0x3B0 JUMPI DUP1 PUSH4 0x715018A6 EQ PUSH2 0x3EC JUMPI DUP1 PUSH4 0x8DA5CB5B EQ PUSH2 0x3F6 JUMPI DUP1 PUSH4 0xBE9A6555 EQ PUSH2 0x420 JUMPI DUP1 PUSH4 0xD2514E84 EQ PUSH2 0x44A JUMPI PUSH2 0x170 JUMP JUMPDEST DUP1 PUSH4 0x3B6548A2 GT PUSH2 0x122 JUMPI DUP1 PUSH4 0x3B6548A2 EQ PUSH2 0x272 JUMPI DUP1 PUSH4 0x4359D28A EQ PUSH2 0x2AE JUMPI DUP1 PUSH4 0x439FAB91 EQ PUSH2 0x2D6 JUMPI DUP1 PUSH4 0x451CC191 EQ PUSH2 0x2FE JUMPI DUP1 PUSH4 0x54D1F13D EQ PUSH2 0x33A JUMPI DUP1 PUSH4 0x578BCF35 EQ PUSH2 0x344 JUMPI PUSH2 0x170 JUMP JUMPDEST DUP1 PUSH4 0x1FFC9A7 EQ PUSH2 0x172 JUMPI DUP1 PUSH4 0xFB5A6B4 EQ PUSH2 0x1AE JUMPI DUP1 PUSH4 0x10098AD5 EQ PUSH2 0x1D8 JUMPI DUP1 PUSH4 0x13D033C0 EQ PUSH2 0x214 JUMPI DUP1 PUSH4 0x25692962 EQ PUSH2 0x23E JUMPI DUP1 PUSH4 0x28D6183B EQ PUSH2 0x248 JUMPI PUSH2 0x170 JUMP JUMPDEST CALLDATASIZE PUSH2 0x170 JUMPI STOP JUMPDEST STOP JUMPDEST CALLVALUE DUP1 ISZERO PUSH2 0x17D JUMPI PUSH0 DUP1 REVERT JUMPDEST POP PUSH2 0x198 PUSH1 0x4 DUP1 CALLDATASIZE SUB DUP2 ADD SWAP1 PUSH2 0x193 SWAP2 SWAP1 PUSH2 0x19C5 JUMP JUMPDEST PUSH2 0x5D8 JUMP JUMPDEST PUSH1 0x40 MLOAD PUSH2 0x1A5 SWAP2 SWAP1 PUSH2 0x1A0A JUMP JUMPDEST PUSH1 0x40 MLOAD DUP1 SWAP2 SUB SWAP1 RETURN JUMPDEST CALLVALUE DUP1 ISZERO PUSH2 0x1B9 JUMPI PUSH0 DUP1 REVERT JUMPDEST POP PUSH2 0x1C2 PUSH2 0x651 JUMP JUMPDEST PUSH1 0x40 MLOAD PUSH2 0x1CF SWAP2 SWAP1 PUSH2 0x1A45 JUMP JUMPDEST PUSH1 0x40 MLOAD DUP1 SWAP2 SUB SWAP1 RETURN JUMPDEST CALLVALUE DUP1 ISZERO PUSH2 0x1E3 JUMPI PUSH0 DUP1 REVERT JUMPDEST POP PUSH2 0x1FE PUSH1 0x4 DUP1 CALLDATASIZE SUB DUP2 ADD SWAP1 PUSH2 0x1F9 SWAP2 SWAP1 PUSH2 0x1AB8 JUMP JUMPDEST PUSH2 0x66B JUMP JUMPDEST PUSH1 0x40 MLOAD PUSH2 0x20B SWAP2 SWAP1 PUSH2 0x1AFB JUMP JUMPDEST PUSH1 0x40 MLOAD DUP1 SWAP2 SUB SWAP1 RETURN JUMPDEST CALLVALUE DUP1 ISZERO PUSH2 0x21F JUMPI PUSH0 DUP1 REVERT JUMPDEST POP PUSH2 0x228 PUSH2 0x6C4 JUMP JUMPDEST PUSH1 0x40 MLOAD PUSH2 0x235 SWAP2 SWAP1 PUSH2 0x1A45 JUMP JUMPDEST PUSH1 0x40 MLOAD DUP1 SWAP2 SUB SWAP1 RETURN JUMPDEST PUSH2 0x246 PUSH2 0x6DE JUMP JUMPDEST STOP JUMPDEST CALLVALUE DUP1 ISZERO PUSH2 0x253 JUMPI PUSH0 DUP1 REVERT JUMPDEST POP PUSH2 0x25C PUSH2 0x72F JUMP JUMPDEST PUSH1 0x40 MLOAD PUSH2 0x269 SWAP2 SWAP1 PUSH2 0x1B23 JUMP JUMPDEST PUSH1 0x40 MLOAD DUP1 SWAP2 SUB SWAP1 RETURN JUMPDEST CALLVALUE DUP1 ISZERO PUSH2 0x27D JUMPI PUSH0 DUP1 REVERT JUMPDEST POP PUSH2 0x298 PUSH1 0x4 DUP1 CALLDATASIZE SUB DUP2 ADD SWAP1 PUSH2 0x293 SWAP2 SWAP1 PUSH2 0x1B9D JUMP JUMPDEST PUSH2 0x756 JUMP JUMPDEST PUSH1 0x40 MLOAD PUSH2 0x2A5 SWAP2 SWAP1 PUSH2 0x1A0A JUMP JUMPDEST PUSH1 0x40 MLOAD DUP1 SWAP2 SUB SWAP1 RETURN JUMPDEST CALLVALUE DUP1 ISZERO PUSH2 0x2B9 JUMPI PUSH0 DUP1 REVERT JUMPDEST POP PUSH2 0x2D4 PUSH1 0x4 DUP1 CALLDATASIZE SUB DUP2 ADD SWAP1 PUSH2 0x2CF SWAP2 SWAP1 PUSH2 0x1C92 JUMP JUMPDEST PUSH2 0x761 JUMP JUMPDEST STOP JUMPDEST CALLVALUE DUP1 ISZERO PUSH2 0x2E1 JUMPI PUSH0 DUP1 REVERT JUMPDEST POP PUSH2 0x2FC PUSH1 0x4 DUP1 CALLDATASIZE SUB DUP2 ADD SWAP1 PUSH2 0x2F7 SWAP2 SWAP1 PUSH2 0x1B9D JUMP JUMPDEST PUSH2 0x86B JUMP JUMPDEST STOP JUMPDEST CALLVALUE DUP1 ISZERO PUSH2 0x309 JUMPI PUSH0 DUP1 REVERT JUMPDEST POP PUSH2 0x324 PUSH1 0x4 DUP1 CALLDATASIZE SUB DUP2 ADD SWAP1 PUSH2 0x31F SWAP2 SWAP1 PUSH2 0x1B9D JUMP JUMPDEST PUSH2 0xA15 JUMP JUMPDEST PUSH1 0x40 MLOAD PUSH2 0x331 SWAP2 SWAP1 PUSH2 0x1AFB JUMP JUMPDEST PUSH1 0x40 MLOAD DUP1 SWAP2 SUB SWAP1 RETURN JUMPDEST PUSH2 0x342 PUSH2 0xA1C JUMP JUMPDEST STOP JUMPDEST CALLVALUE DUP1 ISZERO PUSH2 0x34F JUMPI PUSH0 DUP1 REVERT JUMPDEST POP PUSH2 0x36A PUSH1 0x4 DUP1 CALLDATASIZE SUB DUP2 ADD SWAP1 PUSH2 0x365 SWAP2 SWAP1 PUSH2 0x1AB8 JUMP JUMPDEST PUSH2 0xA55 JUMP JUMPDEST PUSH1 0x40 MLOAD PUSH2 0x377 SWAP2 SWAP1 PUSH2 0x1AFB JUMP JUMPDEST PUSH1 0x40 MLOAD DUP1 SWAP2 SUB SWAP1 RETURN JUMPDEST PUSH2 0x39A PUSH1 0x4 DUP1 CALLDATASIZE SUB DUP2 ADD SWAP1 PUSH2 0x395 SWAP2 SWAP1 PUSH2 0x1B9D JUMP JUMPDEST PUSH2 0xA9A JUMP JUMPDEST PUSH1 0x40 MLOAD PUSH2 0x3A7 SWAP2 SWAP1 PUSH2 0x1A0A JUMP JUMPDEST PUSH1 0x40 MLOAD DUP1 SWAP2 SUB SWAP1 RETURN JUMPDEST CALLVALUE DUP1 ISZERO PUSH2 0x3BB JUMPI PUSH0 DUP1 REVERT JUMPDEST POP PUSH2 0x3D6 PUSH1 0x4 DUP1 CALLDATASIZE SUB DUP2 ADD SWAP1 PUSH2 0x3D1 SWAP2 SWAP1 PUSH2 0x1D65 JUMP JUMPDEST PUSH2 0xC67 JUMP JUMPDEST PUSH1 0x40 MLOAD PUSH2 0x3E3 SWAP2 SWAP1 PUSH2 0x1A0A JUMP JUMPDEST PUSH1 0x40 MLOAD DUP1 SWAP2 SUB SWAP1 RETURN JUMPDEST PUSH2 0x3F4 PUSH2 0xCCB JUMP JUMPDEST STOP JUMPDEST CALLVALUE DUP1 ISZERO PUSH2 0x401 JUMPI PUSH0 DUP1 REVERT JUMPDEST POP PUSH2 0x40A PUSH2 0xCDE JUMP JUMPDEST PUSH1 0x40 MLOAD PUSH2 0x417 SWAP2 SWAP1 PUSH2 0x1DBF JUMP JUMPDEST PUSH1 0x40 MLOAD DUP1 SWAP2 SUB SWAP1 RETURN JUMPDEST CALLVALUE DUP1 ISZERO PUSH2 0x42B JUMPI PUSH0 DUP1 REVERT JUMPDEST POP PUSH2 0x434 PUSH2 0xD06 JUMP JUMPDEST PUSH1 0x40 MLOAD PUSH2 0x441 SWAP2 SWAP1 PUSH2 0x1A45 JUMP JUMPDEST PUSH1 0x40 MLOAD DUP1 SWAP2 SUB SWAP1 RETURN JUMPDEST CALLVALUE DUP1 ISZERO PUSH2 0x455 JUMPI PUSH0 DUP1 REVERT JUMPDEST POP PUSH2 0x470 PUSH1 0x4 DUP1 CALLDATASIZE SUB DUP2 ADD SWAP1 PUSH2 0x46B SWAP2 SWAP1 PUSH2 0x1AB8 JUMP JUMPDEST PUSH2 0xD1F JUMP JUMPDEST PUSH1 0x40 MLOAD PUSH2 0x47D SWAP2 SWAP1 PUSH2 0x1AFB JUMP JUMPDEST PUSH1 0x40 MLOAD DUP1 SWAP2 SUB SWAP1 RETURN JUMPDEST CALLVALUE DUP1 ISZERO PUSH2 0x491 JUMPI PUSH0 DUP1 REVERT JUMPDEST POP PUSH2 0x49A PUSH2 0xDD6 JUMP JUMPDEST PUSH1 0x40 MLOAD PUSH2 0x4A7 SWAP2 SWAP1 PUSH2 0x1AFB JUMP JUMPDEST PUSH1 0x40 MLOAD DUP1 SWAP2 SUB SWAP1 RETURN JUMPDEST PUSH2 0x4CA PUSH1 0x4 DUP1 CALLDATASIZE SUB DUP2 ADD SWAP1 PUSH2 0x4C5 SWAP2 SWAP1 PUSH2 0x1AB8 JUMP JUMPDEST PUSH2 0xE1D JUMP JUMPDEST STOP JUMPDEST CALLVALUE DUP1 ISZERO PUSH2 0x4D7 JUMPI PUSH0 DUP1 REVERT JUMPDEST POP PUSH2 0x4F2 PUSH1 0x4 DUP1 CALLDATASIZE SUB DUP2 ADD SWAP1 PUSH2 0x4ED SWAP2 SWAP1 PUSH2 0x1B9D JUMP JUMPDEST PUSH2 0xE5B JUMP JUMPDEST PUSH1 0x40 MLOAD PUSH2 0x4FF SWAP2 SWAP1 PUSH2 0x1A0A JUMP JUMPDEST PUSH1 0x40 MLOAD DUP1 SWAP2 SUB SWAP1 RETURN JUMPDEST PUSH2 0x522 PUSH1 0x4 DUP1 CALLDATASIZE SUB DUP2 ADD SWAP1 PUSH2 0x51D SWAP2 SWAP1 PUSH2 0x1AB8 JUMP JUMPDEST PUSH2 0xF40 JUMP JUMPDEST STOP JUMPDEST CALLVALUE DUP1 ISZERO PUSH2 0x52F JUMPI PUSH0 DUP1 REVERT JUMPDEST POP PUSH2 0x54A PUSH1 0x4 DUP1 CALLDATASIZE SUB DUP2 ADD SWAP1 PUSH2 0x545 SWAP2 SWAP1 PUSH2 0x1B9D JUMP JUMPDEST PUSH2 0xF69 JUMP JUMPDEST PUSH1 0x40 MLOAD PUSH2 0x557 SWAP2 SWAP1 PUSH2 0x1A0A JUMP JUMPDEST PUSH1 0x40 MLOAD DUP1 SWAP2 SUB SWAP1 RETURN JUMPDEST CALLVALUE DUP1 ISZERO PUSH2 0x56B JUMPI PUSH0 DUP1 REVERT JUMPDEST POP PUSH2 0x586 PUSH1 0x4 DUP1 CALLDATASIZE SUB DUP2 ADD SWAP1 PUSH2 0x581 SWAP2 SWAP1 PUSH2 0x1AB8 JUMP JUMPDEST PUSH2 0x1068 JUMP JUMPDEST PUSH1 0x40 MLOAD PUSH2 0x593 SWAP2 SWAP1 PUSH2 0x1A0A JUMP JUMPDEST PUSH1 0x40 MLOAD DUP1 SWAP2 SUB SWAP1 RETURN JUMPDEST CALLVALUE DUP1 ISZERO PUSH2 0x5A7 JUMPI PUSH0 DUP1 REVERT JUMPDEST POP PUSH2 0x5C2 PUSH1 0x4 DUP1 CALLDATASIZE SUB DUP2 ADD SWAP1 PUSH2 0x5BD SWAP2 SWAP1 PUSH2 0x1AB8 JUMP JUMPDEST PUSH2 0x10F7 JUMP JUMPDEST PUSH1 0x40 MLOAD PUSH2 0x5CF SWAP2 SWAP1 PUSH2 0x1AFB JUMP JUMPDEST PUSH1 0x40 MLOAD DUP1 SWAP2 SUB SWAP1 RETURN JUMPDEST PUSH0 PUSH32 0x124C993E00000000000000000000000000000000000000000000000000000000 PUSH28 0xFFFFFFFFFFFFFFFFFFFFFFFFFFFFFFFFFFFFFFFFFFFFFFFFFFFFFFFF NOT AND DUP3 PUSH28 0xFFFFFFFFFFFFFFFFFFFFFFFFFFFFFFFFFFFFFFFFFFFFFFFFFFFFFFFF NOT AND EQ DUP1 PUSH2 0x64A JUMPI POP PUSH2 0x649 DUP3 PUSH2 0x1110 JUMP JUMPDEST JUMPDEST SWAP1 POP SWAP2 SWAP1 POP JUMP JUMPDEST PUSH1 0x2 PUSH1 0x8 SWAP1 SLOAD SWAP1 PUSH2 0x100 EXP SWAP1 DIV PUSH8 0xFFFFFFFFFFFFFFFF AND DUP2 JUMP JUMPDEST PUSH0 DUP1 PUSH0 DUP4 PUSH20 0xFFFFFFFFFFFFFFFFFFFFFFFFFFFFFFFFFFFFFFFF AND PUSH20 0xFFFFFFFFFFFFFFFFFFFFFFFFFFFFFFFFFFFFFFFF AND DUP2 MSTORE PUSH1 0x20 ADD SWAP1 DUP2 MSTORE PUSH1 0x20 ADD PUSH0 KECCAK256 SLOAD PUSH2 0x6B3 DUP4 TIMESTAMP PUSH2 0x1189 JUMP JUMPDEST PUSH2 0x6BD SWAP2 SWAP1 PUSH2 0x1E05 JUMP JUMPDEST SWAP1 POP SWAP2 SWAP1 POP JUMP JUMPDEST PUSH1 0x2 PUSH1 0x10 SWAP1 SLOAD SWAP1 PUSH2 0x100 EXP SWAP1 DIV PUSH8 0xFFFFFFFFFFFFFFFF AND DUP2 JUMP JUMPDEST PUSH0 PUSH2 0x6E7 PUSH2 0x124A JUMP JUMPDEST PUSH8 0xFFFFFFFFFFFFFFFF AND TIMESTAMP ADD SWAP1 POP PUSH4 0x389A75E1 PUSH1 0xC MSTORE CALLER PUSH0 MSTORE DUP1 PUSH1 0x20 PUSH1 0xC KECCAK256 SSTORE CALLER PUSH32 0xDBF36A107DA19E49527A7176A1BABF963B4B0FF8CDE35EE35D6CD8F1F9AC7E1D PUSH0 DUP1 LOG2 POP JUMP JUMPDEST PUSH0 PUSH32 0x124C993E00000000000000000000000000000000000000000000000000000000 SWAP1 POP SWAP1 JUMP JUMPDEST PUSH0 PUSH1 0x1 SWAP1 POP SWAP3 SWAP2 POP POP JUMP JUMPDEST PUSH2 0x769 PUSH2 0x1254 JUMP JUMPDEST DUP2 DUP2 SWAP1 POP DUP5 DUP5 SWAP1 POP EQ PUSH2 0x7A8 JUMPI PUSH1 0x40 MLOAD PUSH32 0xFF633A3800000000000000000000000000000000000000000000000000000000 DUP2 MSTORE PUSH1 0x4 ADD PUSH1 0x40 MLOAD DUP1 SWAP2 SUB SWAP1 REVERT JUMPDEST PUSH0 JUMPDEST DUP5 DUP5 SWAP1 POP DUP2 LT ISZERO PUSH2 0x864 JUMPI DUP3 DUP3 DUP3 DUP2 DUP2 LT PUSH2 0x7C8 JUMPI PUSH2 0x7C7 PUSH2 0x1E38 JUMP JUMPDEST JUMPDEST SWAP1 POP PUSH1 0x20 MUL ADD PUSH1 0x20 DUP2 ADD SWAP1 PUSH2 0x7DD SWAP2 SWAP1 PUSH2 0x1E8F JUMP JUMPDEST PUSH1 0x1 PUSH0 DUP8 DUP8 DUP6 DUP2 DUP2 LT PUSH2 0x7F3 JUMPI PUSH2 0x7F2 PUSH2 0x1E38 JUMP JUMPDEST JUMPDEST SWAP1 POP PUSH1 0x20 MUL ADD PUSH1 0x20 DUP2 ADD SWAP1 PUSH2 0x808 SWAP2 SWAP1 PUSH2 0x1AB8 JUMP JUMPDEST PUSH20 0xFFFFFFFFFFFFFFFFFFFFFFFFFFFFFFFFFFFFFFFF AND PUSH20 0xFFFFFFFFFFFFFFFFFFFFFFFFFFFFFFFFFFFFFFFF AND DUP2 MSTORE PUSH1 0x20 ADD SWAP1 DUP2 MSTORE PUSH1 0x20 ADD PUSH0 KECCAK256 PUSH0 PUSH2 0x100 EXP DUP2 SLOAD DUP2 PUSH1 0xFF MUL NOT AND SWAP1 DUP4 ISZERO ISZERO MUL OR SWAP1 SSTORE POP DUP1 DUP1 PUSH1 0x1 ADD SWAP2 POP POP PUSH2 0x7AA JUMP JUMPDEST POP POP POP POP POP JUMP JUMPDEST PUSH0 PUSH2 0x874 PUSH2 0x128B JUMP JUMPDEST SWAP1 POP DUP1 SLOAD PUSH1 0x3 DUP3 SSTORE DUP1 ISZERO PUSH2 0x8A6 JUMPI PUSH1 0x1 DUP2 PUSH1 0x1 SHR EQ ADDRESS EXTCODESIZE LT PUSH2 0x89D JUMPI PUSH4 0xF92EE8A9 PUSH0 MSTORE PUSH1 0x4 PUSH1 0x1C REVERT JUMPDEST DUP2 DUP2 PUSH1 0xFF SHL SHL SWAP2 POP JUMPDEST POP PUSH0 DUP4 DUP4 DUP2 ADD SWAP1 PUSH2 0x8B7 SWAP2 SWAP1 PUSH2 0x20D9 JUMP JUMPDEST SWAP1 POP DUP1 PUSH1 0x40 ADD MLOAD PUSH1 0x2 PUSH0 PUSH2 0x100 EXP DUP2 SLOAD DUP2 PUSH8 0xFFFFFFFFFFFFFFFF MUL NOT AND SWAP1 DUP4 PUSH8 0xFFFFFFFFFFFFFFFF AND MUL OR SWAP1 SSTORE POP DUP1 PUSH1 0x60 ADD MLOAD PUSH1 0x2 PUSH1 0x8 PUSH2 0x100 EXP DUP2 SLOAD DUP2 PUSH8 0xFFFFFFFFFFFFFFFF MUL NOT AND SWAP1 DUP4 PUSH8 0xFFFFFFFFFFFFFFFF AND MUL OR SWAP1 SSTORE POP DUP1 PUSH1 0x80 ADD MLOAD PUSH1 0x2 PUSH1 0x10 PUSH2 0x100 EXP DUP2 SLOAD DUP2 PUSH8 0xFFFFFFFFFFFFFFFF MUL NOT AND SWAP1 DUP4 PUSH8 0xFFFFFFFFFFFFFFFF AND MUL OR SWAP1 SSTORE POP PUSH2 0x94B DUP2 PUSH0 ADD MLOAD PUSH2 0x12B4 JUMP JUMPDEST PUSH0 JUMPDEST DUP2 PUSH1 0x20 ADD MLOAD MLOAD DUP2 LT ISZERO PUSH2 0x9D9 JUMPI PUSH1 0x1 DUP1 PUSH0 DUP5 PUSH1 0x20 ADD MLOAD DUP5 DUP2 MLOAD DUP2 LT PUSH2 0x975 JUMPI PUSH2 0x974 PUSH2 0x1E38 JUMP JUMPDEST JUMPDEST PUSH1 0x20 MUL PUSH1 0x20 ADD ADD MLOAD PUSH20 0xFFFFFFFFFFFFFFFFFFFFFFFFFFFFFFFFFFFFFFFF AND PUSH20 0xFFFFFFFFFFFFFFFFFFFFFFFFFFFFFFFFFFFFFFFF AND DUP2 MSTORE PUSH1 0x20 ADD SWAP1 DUP2 MSTORE PUSH1 0x20 ADD PUSH0 KECCAK256 PUSH0 PUSH2 0x100 EXP DUP2 SLOAD DUP2 PUSH1 0xFF MUL NOT AND SWAP1 DUP4 ISZERO ISZERO MUL OR SWAP1 SSTORE POP DUP1 DUP1 PUSH1 0x1 ADD SWAP2 POP POP PUSH2 0x94D JUMP JUMPDEST POP POP DUP1 ISZERO PUSH2 0xA10 JUMPI PUSH1 0x2 DUP2 SSTORE PUSH1 0x1 PUSH1 0x20 MSTORE PUSH32 0xC7F505B2F371AE2175EE4913F4499E1F2633A7B5936321EED1CDAEB6115181D2 PUSH1 0x20 DUP1 LOG1 JUMPDEST POP POP POP JUMP JUMPDEST PUSH0 SWAP3 SWAP2 POP POP JUMP JUMPDEST PUSH4 0x389A75E1 PUSH1 0xC MSTORE CALLER PUSH0 MSTORE PUSH0 PUSH1 0x20 PUSH1 0xC KECCAK256 SSTORE CALLER PUSH32 0xFA7B8EAB7DA67F412CC9575ED43464468F9BFBAE89D1675917346CA6D8FE3C92 PUSH0 DUP1 LOG2 JUMP JUMPDEST PUSH0 DUP1 PUSH0 DUP4 PUSH20 0xFFFFFFFFFFFFFFFFFFFFFFFFFFFFFFFFFFFFFFFF AND PUSH20 0xFFFFFFFFFFFFFFFFFFFFFFFFFFFFFFFFFFFFFFFF AND DUP2 MSTORE PUSH1 0x20 ADD SWAP1 DUP2 MSTORE PUSH1 0x20 ADD PUSH0 KECCAK256 SLOAD SWAP1 POP SWAP2 SWAP1 POP JUMP JUMPDEST PUSH0 DUP1 DUP4 DUP4 DUP2 ADD SWAP1 PUSH2 0xAAB SWAP2 SWAP1 PUSH2 0x2284 JUMP JUMPDEST SWAP1 POP PUSH0 PUSH1 0x2 DUP2 GT ISZERO PUSH2 0xAC0 JUMPI PUSH2 0xABF PUSH2 0x22CB JUMP JUMPDEST JUMPDEST DUP2 PUSH0 ADD MLOAD PUSH1 0x2 DUP2 GT ISZERO PUSH2 0xAD6 JUMPI PUSH2 0xAD5 PUSH2 0x22CB JUMP JUMPDEST JUMPDEST SUB PUSH2 0xB4C JUMPI PUSH0 DUP2 PUSH1 0x60 ADD MLOAD DUP1 PUSH1 0x20 ADD SWAP1 MLOAD DUP2 ADD SWAP1 PUSH2 0xAF4 SWAP2 SWAP1 PUSH2 0x235B JUMP JUMPDEST SWAP1 POP DUP1 PUSH0 ADD MLOAD CALLVALUE EQ PUSH2 0xB46 JUMPI DUP2 PUSH1 0x20 ADD MLOAD DUP2 PUSH0 ADD MLOAD PUSH1 0x40 MLOAD PUSH32 0xCECE04C500000000000000000000000000000000000000000000000000000000 DUP2 MSTORE PUSH1 0x4 ADD PUSH2 0xB3D SWAP3 SWAP2 SWAP1 PUSH2 0x2386 JUMP JUMPDEST PUSH1 0x40 MLOAD DUP1 SWAP2 SUB SWAP1 REVERT JUMPDEST POP PUSH2 0xC5B JUMP JUMPDEST PUSH1 0x1 PUSH1 0x2 DUP2 GT ISZERO PUSH2 0xB60 JUMPI PUSH2 0xB5F PUSH2 0x22CB JUMP JUMPDEST JUMPDEST DUP2 PUSH0 ADD MLOAD PUSH1 0x2 DUP2 GT ISZERO PUSH2 0xB76 JUMPI PUSH2 0xB75 PUSH2 0x22CB JUMP JUMPDEST JUMPDEST SUB PUSH2 0xC51 JUMPI PUSH0 DUP2 PUSH1 0x60 ADD MLOAD DUP1 PUSH1 0x20 ADD SWAP1 MLOAD DUP2 ADD SWAP1 PUSH2 0xB94 SWAP2 SWAP1 PUSH2 0x235B JUMP JUMPDEST SWAP1 POP PUSH2 0xBCE DUP3 PUSH1 0x40 ADD MLOAD ADDRESS DUP4 PUSH0 ADD MLOAD DUP6 PUSH1 0x20 ADD MLOAD PUSH20 0xFFFFFFFFFFFFFFFFFFFFFFFFFFFFFFFFFFFFFFFF AND PUSH2 0x138A SWAP1 SWAP4 SWAP3 SWAP2 SWAP1 PUSH4 0xFFFFFFFF AND JUMP JUMPDEST DUP1 PUSH0 ADD MLOAD PUSH2 0xBFF ADDRESS DUP5 PUSH1 0x20 ADD MLOAD PUSH20 0xFFFFFFFFFFFFFFFFFFFFFFFFFFFFFFFFFFFFFFFF AND PUSH2 0x13E4 SWAP1 SWAP2 SWAP1 PUSH4 0xFFFFFFFF AND JUMP JUMPDEST LT ISZERO PUSH2 0xC4B JUMPI DUP2 PUSH1 0x20 ADD MLOAD DUP2 PUSH0 ADD MLOAD PUSH1 0x40 MLOAD PUSH32 0xCECE04C500000000000000000000000000000000000000000000000000000000 DUP2 MSTORE PUSH1 0x4 ADD PUSH2 0xC42 SWAP3 SWAP2 SWAP1 PUSH2 0x2386 JUMP JUMPDEST PUSH1 0x40 MLOAD DUP1 SWAP2 SUB SWAP1 REVERT JUMPDEST POP PUSH2 0xC5A JUMP JUMPDEST PUSH0 SWAP2 POP POP PUSH2 0xC61 JUMP JUMPDEST JUMPDEST PUSH1 0x1 SWAP2 POP POP JUMPDEST SWAP3 SWAP2 POP POP JUMP JUMPDEST PUSH0 DUP1 PUSH0 SWAP1 POP JUMPDEST DUP4 DUP4 SWAP1 POP DUP2 LT ISZERO PUSH2 0xCBF JUMPI PUSH2 0xCA5 DUP5 DUP5 DUP4 DUP2 DUP2 LT PUSH2 0xC8E JUMPI PUSH2 0xC8D PUSH2 0x1E38 JUMP JUMPDEST JUMPDEST SWAP1 POP PUSH1 0x20 MUL DUP2 ADD SWAP1 PUSH2 0xCA0 SWAP2 SWAP1 PUSH2 0x23B9 JUMP JUMPDEST PUSH2 0xF69 JUMP JUMPDEST PUSH2 0xCB2 JUMPI PUSH0 SWAP2 POP POP PUSH2 0xCC5 JUMP JUMPDEST DUP1 DUP1 PUSH1 0x1 ADD SWAP2 POP POP PUSH2 0xC6D JUMP JUMPDEST POP PUSH1 0x1 SWAP1 POP JUMPDEST SWAP3 SWAP2 POP POP JUMP JUMPDEST PUSH2 0xCD3 PUSH2 0x1254 JUMP JUMPDEST PUSH2 0xCDC PUSH0 PUSH2 0x1417 JUMP JUMPDEST JUMP JUMPDEST PUSH0 PUSH32 0xFFFFFFFFFFFFFFFFFFFFFFFFFFFFFFFFFFFFFFFFFFFFFFFFFFFFFFFF74873927 SLOAD SWAP1 POP SWAP1 JUMP JUMPDEST PUSH1 0x2 PUSH0 SWAP1 SLOAD SWAP1 PUSH2 0x100 EXP SWAP1 DIV PUSH8 0xFFFFFFFFFFFFFFFF AND DUP2 JUMP JUMPDEST PUSH0 DUP1 PUSH0 PUSH20 0xFFFFFFFFFFFFFFFFFFFFFFFFFFFFFFFFFFFFFFFF AND DUP4 PUSH20 0xFFFFFFFFFFFFFFFFFFFFFFFFFFFFFFFFFFFFFFFF AND EQ PUSH2 0xD82 JUMPI PUSH2 0xD7D ADDRESS DUP5 PUSH20 0xFFFFFFFFFFFFFFFFFFFFFFFFFFFFFFFFFFFFFFFF AND PUSH2 0x13E4 SWAP1 SWAP2 SWAP1 PUSH4 0xFFFFFFFF AND JUMP JUMPDEST PUSH2 0xD84 JUMP JUMPDEST SELFBALANCE JUMPDEST SWAP1 POP DUP1 PUSH0 DUP1 DUP6 PUSH20 0xFFFFFFFFFFFFFFFFFFFFFFFFFFFFFFFFFFFFFFFF AND PUSH20 0xFFFFFFFFFFFFFFFFFFFFFFFFFFFFFFFFFFFFFFFF AND DUP2 MSTORE PUSH1 0x20 ADD SWAP1 DUP2 MSTORE PUSH1 0x20 ADD PUSH0 KECCAK256 SLOAD PUSH2 0xDCE SWAP2 SWAP1 PUSH2 0x241B JUMP JUMPDEST SWAP2 POP POP SWAP2 SWAP1 POP JUMP JUMPDEST PUSH0 PUSH1 0x2 PUSH1 0x8 SWAP1 SLOAD SWAP1 PUSH2 0x100 EXP SWAP1 DIV PUSH8 0xFFFFFFFFFFFFFFFF AND PUSH1 0x2 PUSH0 SWAP1 SLOAD SWAP1 PUSH2 0x100 EXP SWAP1 DIV PUSH8 0xFFFFFFFFFFFFFFFF AND PUSH2 0xE0E SWAP2 SWAP1 PUSH2 0x244E JUMP JUMPDEST PUSH8 0xFFFFFFFFFFFFFFFF AND SWAP1 POP SWAP1 JUMP JUMPDEST PUSH2 0xE25 PUSH2 0x1254 JUMP JUMPDEST PUSH4 0x389A75E1 PUSH1 0xC MSTORE DUP1 PUSH0 MSTORE PUSH1 0x20 PUSH1 0xC KECCAK256 DUP1 SLOAD TIMESTAMP GT ISZERO PUSH2 0xE4B JUMPI PUSH4 0x6F5E8818 PUSH0 MSTORE PUSH1 0x4 PUSH1 0x1C REVERT JUMPDEST PUSH0 DUP2 SSTORE POP PUSH2 0xE58 DUP2 PUSH2 0x1417 JUMP JUMPDEST POP JUMP JUMPDEST PUSH0 PUSH2 0xE64 PUSH2 0x1254 JUMP JUMPDEST PUSH0 DUP4 DUP4 DUP2 ADD SWAP1 PUSH2 0xE74 SWAP2 SWAP1 PUSH2 0x2284 JUMP JUMPDEST SWAP1 POP PUSH0 PUSH1 0x2 DUP2 GT ISZERO PUSH2 0xE89 JUMPI PUSH2 0xE88 PUSH2 0x22CB JUMP JUMPDEST JUMPDEST DUP2 PUSH0 ADD MLOAD PUSH1 0x2 DUP2 GT ISZERO PUSH2 0xE9F JUMPI PUSH2 0xE9E PUSH2 0x22CB JUMP JUMPDEST JUMPDEST EQ DUP1 PUSH2 0xED2 JUMPI POP PUSH1 0x1 PUSH1 0x2 DUP2 GT ISZERO PUSH2 0xEBA JUMPI PUSH2 0xEB9 PUSH2 0x22CB JUMP JUMPDEST JUMPDEST DUP2 PUSH0 ADD MLOAD PUSH1 0x2 DUP2 GT ISZERO PUSH2 0xED0 JUMPI PUSH2 0xECF PUSH2 0x22CB JUMP JUMPDEST JUMPDEST EQ JUMPDEST ISZERO PUSH2 0xF2B JUMPI PUSH0 DUP2 PUSH1 0x60 ADD MLOAD DUP1 PUSH1 0x20 ADD SWAP1 MLOAD DUP2 ADD SWAP1 PUSH2 0xEF0 SWAP2 SWAP1 PUSH2 0x235B JUMP JUMPDEST SWAP1 POP PUSH2 0xF25 DUP3 PUSH1 0x20 ADD MLOAD DUP4 PUSH1 0x40 ADD MLOAD PUSH0 DUP5 PUSH0 ADD MLOAD EQ PUSH2 0xF12 JUMPI DUP4 PUSH0 ADD MLOAD PUSH2 0xF20 JUMP JUMPDEST PUSH2 0xF1F DUP6 PUSH1 0x20 ADD MLOAD PUSH2 0x66B JUMP JUMPDEST JUMPDEST PUSH2 0x14DD JUMP JUMPDEST POP PUSH2 0xF34 JUMP JUMPDEST PUSH0 SWAP2 POP POP PUSH2 0xF3A JUMP JUMPDEST PUSH1 0x1 SWAP2 POP POP JUMPDEST SWAP3 SWAP2 POP POP JUMP JUMPDEST PUSH2 0xF48 PUSH2 0x1254 JUMP JUMPDEST DUP1 PUSH1 0x60 SHL PUSH2 0xF5D JUMPI PUSH4 0x7448FBAE PUSH0 MSTORE PUSH1 0x4 PUSH1 0x1C REVERT JUMPDEST PUSH2 0xF66 DUP2 PUSH2 0x1417 JUMP JUMPDEST POP JUMP JUMPDEST PUSH0 PUSH2 0xF73 CALLER PUSH2 0x1068 JUMP JUMPDEST PUSH2 0xFA9 JUMPI PUSH1 0x40 MLOAD PUSH32 0x82B4290000000000000000000000000000000000000000000000000000000000 DUP2 MSTORE PUSH1 0x4 ADD PUSH1 0x40 MLOAD DUP1 SWAP2 SUB SWAP1 REVERT JUMPDEST PUSH0 DUP4 DUP4 DUP2 ADD SWAP1 PUSH2 0xFB9 SWAP2 SWAP1 PUSH2 0x2284 JUMP JUMPDEST SWAP1 POP PUSH1 0x1 PUSH1 0x2 DUP2 GT ISZERO PUSH2 0xFCF JUMPI PUSH2 0xFCE PUSH2 0x22CB JUMP JUMPDEST JUMPDEST DUP2 PUSH0 ADD MLOAD PUSH1 0x2 DUP2 GT ISZERO PUSH2 0xFE5 JUMPI PUSH2 0xFE4 PUSH2 0x22CB JUMP JUMPDEST JUMPDEST EQ DUP1 PUSH2 0x1017 JUMPI POP PUSH0 PUSH1 0x2 DUP2 GT ISZERO PUSH2 0xFFF JUMPI PUSH2 0xFFE PUSH2 0x22CB JUMP JUMPDEST JUMPDEST DUP2 PUSH0 ADD MLOAD PUSH1 0x2 DUP2 GT ISZERO PUSH2 0x1015 JUMPI PUSH2 0x1014 PUSH2 0x22CB JUMP JUMPDEST JUMPDEST EQ JUMPDEST ISZERO PUSH2 0x1053 JUMPI PUSH0 DUP2 PUSH1 0x60 ADD MLOAD DUP1 PUSH1 0x20 ADD SWAP1 MLOAD DUP2 ADD SWAP1 PUSH2 0x1035 SWAP2 SWAP1 PUSH2 0x235B JUMP JUMPDEST SWAP1 POP PUSH2 0x104D DUP3 PUSH1 0x20 ADD MLOAD DUP4 PUSH1 0x40 ADD MLOAD DUP4 PUSH0 ADD MLOAD PUSH2 0x14DD JUMP JUMPDEST POP PUSH2 0x105C JUMP JUMPDEST PUSH0 SWAP2 POP POP PUSH2 0x1062 JUMP JUMPDEST PUSH1 0x1 SWAP2 POP POP JUMPDEST SWAP3 SWAP2 POP POP JUMP JUMPDEST PUSH0 PUSH1 0x1 PUSH0 DUP4 PUSH20 0xFFFFFFFFFFFFFFFFFFFFFFFFFFFFFFFFFFFFFFFF AND PUSH20 0xFFFFFFFFFFFFFFFFFFFFFFFFFFFFFFFFFFFFFFFF AND DUP2 MSTORE PUSH1 0x20 ADD SWAP1 DUP2 MSTORE PUSH1 0x20 ADD PUSH0 KECCAK256 PUSH0 SWAP1 SLOAD SWAP1 PUSH2 0x100 EXP SWAP1 DIV PUSH1 0xFF AND DUP1 PUSH2 0x10F0 JUMPI POP PUSH2 0x10C1 PUSH2 0xCDE JUMP JUMPDEST PUSH20 0xFFFFFFFFFFFFFFFFFFFFFFFFFFFFFFFFFFFFFFFF AND DUP3 PUSH20 0xFFFFFFFFFFFFFFFFFFFFFFFFFFFFFFFFFFFFFFFF AND EQ JUMPDEST SWAP1 POP SWAP2 SWAP1 POP JUMP JUMPDEST PUSH0 PUSH4 0x389A75E1 PUSH1 0xC MSTORE DUP2 PUSH0 MSTORE PUSH1 0x20 PUSH1 0xC KECCAK256 SLOAD SWAP1 POP SWAP2 SWAP1 POP JUMP JUMPDEST PUSH0 PUSH32 0x74009FF100000000000000000000000000000000000000000000000000000000 PUSH28 0xFFFFFFFFFFFFFFFFFFFFFFFFFFFFFFFFFFFFFFFFFFFFFFFFFFFFFFFF NOT AND DUP3 PUSH28 0xFFFFFFFFFFFFFFFFFFFFFFFFFFFFFFFFFFFFFFFFFFFFFFFFFFFFFFFF NOT AND EQ DUP1 PUSH2 0x1182 JUMPI POP PUSH2 0x1181 DUP3 PUSH2 0x16F5 JUMP JUMPDEST JUMPDEST SWAP1 POP SWAP2 SWAP1 POP JUMP JUMPDEST PUSH0 DUP1 PUSH0 PUSH20 0xFFFFFFFFFFFFFFFFFFFFFFFFFFFFFFFFFFFFFFFF AND DUP5 PUSH20 0xFFFFFFFFFFFFFFFFFFFFFFFFFFFFFFFFFFFFFFFF AND EQ PUSH2 0x11EC JUMPI PUSH2 0x11E7 ADDRESS DUP6 PUSH20 0xFFFFFFFFFFFFFFFFFFFFFFFFFFFFFFFFFFFFFFFF AND PUSH2 0x13E4 SWAP1 SWAP2 SWAP1 PUSH4 0xFFFFFFFF AND JUMP JUMPDEST PUSH2 0x11EE JUMP JUMPDEST SELFBALANCE JUMPDEST SWAP1 POP PUSH2 0x1241 PUSH0 DUP1 DUP7 PUSH20 0xFFFFFFFFFFFFFFFFFFFFFFFFFFFFFFFFFFFFFFFF AND PUSH20 0xFFFFFFFFFFFFFFFFFFFFFFFFFFFFFFFFFFFFFFFF AND DUP2 MSTORE PUSH1 0x20 ADD SWAP1 DUP2 MSTORE PUSH1 0x20 ADD PUSH0 KECCAK256 SLOAD DUP3 PUSH2 0x123B SWAP2 SWAP1 PUSH2 0x241B JUMP JUMPDEST DUP5 PUSH2 0x176E JUMP JUMPDEST SWAP2 POP POP SWAP3 SWAP2 POP POP JUMP JUMPDEST PUSH0 PUSH3 0x2A300 SWAP1 POP SWAP1 JUMP JUMPDEST PUSH32 0xFFFFFFFFFFFFFFFFFFFFFFFFFFFFFFFFFFFFFFFFFFFFFFFFFFFFFFFF74873927 SLOAD CALLER EQ PUSH2 0x1289 JUMPI PUSH4 0x82B42900 PUSH0 MSTORE PUSH1 0x4 PUSH1 0x1C REVERT JUMPDEST JUMP JUMPDEST PUSH0 PUSH32 0xFFFFFFFFFFFFFFFFFFFFFFFFFFFFFFFFFFFFFFFFFFFFFFFFFFFFFFFFBF601132 PUSH0 SHL SWAP1 POP SWAP1 JUMP JUMPDEST PUSH2 0x12BC PUSH2 0x188C JUMP JUMPDEST ISZERO PUSH2 0x1334 JUMPI PUSH32 0xFFFFFFFFFFFFFFFFFFFFFFFFFFFFFFFFFFFFFFFFFFFFFFFFFFFFFFFF74873927 DUP1 SLOAD ISZERO PUSH2 0x12F6 JUMPI PUSH4 0xDC149F0 PUSH0 MSTORE PUSH1 0x4 PUSH1 0x1C REVERT JUMPDEST DUP2 PUSH1 0x60 SHL PUSH1 0x60 SHR SWAP2 POP DUP2 ISZERO PUSH1 0xFF SHL DUP3 OR DUP2 SSTORE DUP2 PUSH0 PUSH32 0x8BE0079C531659141344CD1FD0A4F28419497F9722A3DAAFE3B4186F6B6457E0 PUSH0 DUP1 LOG3 POP PUSH2 0x1387 JUMP JUMPDEST DUP1 PUSH1 0x60 SHL PUSH1 0x60 SHR SWAP1 POP DUP1 PUSH32 0xFFFFFFFFFFFFFFFFFFFFFFFFFFFFFFFFFFFFFFFFFFFFFFFFFFFFFFFF74873927 SSTORE DUP1 PUSH0 PUSH32 0x8BE0079C531659141344CD1FD0A4F28419497F9722A3DAAFE3B4186F6B6457E0 PUSH0 DUP1 LOG3 JUMPDEST POP JUMP JUMPDEST PUSH1 0x40 MLOAD DUP2 PUSH1 0x60 MSTORE DUP3 PUSH1 0x40 MSTORE DUP4 PUSH1 0x60 SHL PUSH1 0x2C MSTORE PUSH16 0x23B872DD000000000000000000000000 PUSH1 0xC MSTORE PUSH1 0x20 PUSH0 PUSH1 0x64 PUSH1 0x1C PUSH0 DUP10 GAS CALL RETURNDATASIZE ISZERO PUSH1 0x1 PUSH0 MLOAD EQ OR AND PUSH2 0x13D5 JUMPI PUSH4 0x7939F424 PUSH0 MSTORE PUSH1 0x4 PUSH1 0x1C REVERT JUMPDEST PUSH0 PUSH1 0x60 MSTORE DUP1 PUSH1 0x40 MSTORE POP POP POP POP POP JUMP JUMPDEST PUSH0 DUP2 PUSH1 0x14 MSTORE PUSH16 0x70A08231000000000000000000000000 PUSH0 MSTORE PUSH1 0x20 DUP1 PUSH1 0x24 PUSH1 0x10 DUP7 GAS STATICCALL PUSH1 0x1F RETURNDATASIZE GT AND PUSH1 0x20 MLOAD MUL SWAP1 POP SWAP3 SWAP2 POP POP JUMP JUMPDEST PUSH2 0x141F PUSH2 0x188C JUMP JUMPDEST ISZERO PUSH2 0x1484 JUMPI PUSH32 0xFFFFFFFFFFFFFFFFFFFFFFFFFFFFFFFFFFFFFFFFFFFFFFFFFFFFFFFF74873927 DUP2 PUSH1 0x60 SHL PUSH1 0x60 SHR SWAP2 POP DUP2 DUP2 SLOAD PUSH32 0x8BE0079C531659141344CD1FD0A4F28419497F9722A3DAAFE3B4186F6B6457E0 PUSH0 DUP1 LOG3 DUP2 ISZERO PUSH1 0xFF SHL DUP3 OR DUP2 SSTORE POP PUSH2 0x14DA JUMP JUMPDEST PUSH32 0xFFFFFFFFFFFFFFFFFFFFFFFFFFFFFFFFFFFFFFFFFFFFFFFFFFFFFFFF74873927 DUP2 PUSH1 0x60 SHL PUSH1 0x60 SHR SWAP2 POP DUP2 DUP2 SLOAD PUSH32 0x8BE0079C531659141344CD1FD0A4F28419497F9722A3DAAFE3B4186F6B6457E0 PUSH0 DUP1 LOG3 DUP2 DUP2 SSTORE POP JUMPDEST POP JUMP JUMPDEST ADDRESS PUSH9 0x929EEE149B4BD21268 SLOAD SUB PUSH2 0x14FB JUMPI PUSH4 0xAB143C06 PUSH0 MSTORE PUSH1 0x4 PUSH1 0x1C REVERT JUMPDEST ADDRESS PUSH9 0x929EEE149B4BD21268 SSTORE PUSH0 PUSH20 0xFFFFFFFFFFFFFFFFFFFFFFFFFFFFFFFFFFFFFFFF AND DUP3 PUSH20 0xFFFFFFFFFFFFFFFFFFFFFFFFFFFFFFFFFFFFFFFF AND SUB PUSH2 0x157B JUMPI DUP3 DUP3 DUP3 PUSH1 0x40 MLOAD PUSH32 0xBF182BE800000000000000000000000000000000000000000000000000000000 DUP2 MSTORE PUSH1 0x4 ADD PUSH2 0x1572 SWAP4 SWAP3 SWAP2 SWAP1 PUSH2 0x2489 JUMP JUMPDEST PUSH1 0x40 MLOAD DUP1 SWAP2 SUB SWAP1 REVERT JUMPDEST PUSH2 0x1584 DUP4 PUSH2 0x66B JUMP JUMPDEST DUP2 GT ISZERO PUSH2 0x15D4 JUMPI DUP3 PUSH2 0x1595 DUP5 PUSH2 0x66B JUMP JUMPDEST DUP3 PUSH1 0x40 MLOAD PUSH32 0x5C54305E00000000000000000000000000000000000000000000000000000000 DUP2 MSTORE PUSH1 0x4 ADD PUSH2 0x15CB SWAP4 SWAP3 SWAP2 SWAP1 PUSH2 0x24BE JUMP JUMPDEST PUSH1 0x40 MLOAD DUP1 SWAP2 SUB SWAP1 REVERT JUMPDEST DUP1 PUSH0 DUP1 DUP6 PUSH20 0xFFFFFFFFFFFFFFFFFFFFFFFFFFFFFFFFFFFFFFFF AND PUSH20 0xFFFFFFFFFFFFFFFFFFFFFFFFFFFFFFFFFFFFFFFF AND DUP2 MSTORE PUSH1 0x20 ADD SWAP1 DUP2 MSTORE PUSH1 0x20 ADD PUSH0 KECCAK256 PUSH0 DUP3 DUP3 SLOAD PUSH2 0x161F SWAP2 SWAP1 PUSH2 0x241B JUMP JUMPDEST SWAP3 POP POP DUP2 SWAP1 SSTORE POP PUSH0 PUSH20 0xFFFFFFFFFFFFFFFFFFFFFFFFFFFFFFFFFFFFFFFF AND DUP4 PUSH20 0xFFFFFFFFFFFFFFFFFFFFFFFFFFFFFFFFFFFFFFFF AND SUB PUSH2 0x1668 JUMPI PUSH2 0x1663 DUP3 DUP3 PUSH2 0x1890 JUMP JUMPDEST PUSH2 0x1694 JUMP JUMPDEST PUSH2 0x1693 DUP3 DUP3 DUP6 PUSH20 0xFFFFFFFFFFFFFFFFFFFFFFFFFFFFFFFFFFFFFFFF AND PUSH2 0x18AD SWAP1 SWAP3 SWAP2 SWAP1 PUSH4 0xFFFFFFFF AND JUMP JUMPDEST JUMPDEST DUP3 PUSH20 0xFFFFFFFFFFFFFFFFFFFFFFFFFFFFFFFFFFFFFFFF AND PUSH32 0xAD4A9ACF26D8BBA7A8CF1A41160D59BE042EE554578E256C98D2AB74CDD43542 DUP4 DUP4 PUSH1 0x40 MLOAD PUSH2 0x16DC SWAP3 SWAP2 SWAP1 PUSH2 0x2386 JUMP JUMPDEST PUSH1 0x40 MLOAD DUP1 SWAP2 SUB SWAP1 LOG2 CODESIZE PUSH9 0x929EEE149B4BD21268 SSTORE POP POP POP JUMP JUMPDEST PUSH0 PUSH32 0x6AB67A0D00000000000000000000000000000000000000000000000000000000 PUSH28 0xFFFFFFFFFFFFFFFFFFFFFFFFFFFFFFFFFFFFFFFFFFFFFFFFFFFFFFFF NOT AND DUP3 PUSH28 0xFFFFFFFFFFFFFFFFFFFFFFFFFFFFFFFFFFFFFFFFFFFFFFFFFFFFFFFF NOT AND EQ DUP1 PUSH2 0x1767 JUMPI POP PUSH2 0x1766 DUP3 PUSH2 0x18F6 JUMP JUMPDEST JUMPDEST SWAP1 POP SWAP2 SWAP1 POP JUMP JUMPDEST PUSH0 PUSH1 0x2 PUSH1 0x10 SWAP1 SLOAD SWAP1 PUSH2 0x100 EXP SWAP1 DIV PUSH8 0xFFFFFFFFFFFFFFFF AND PUSH1 0x2 PUSH0 SWAP1 SLOAD SWAP1 PUSH2 0x100 EXP SWAP1 DIV PUSH8 0xFFFFFFFFFFFFFFFF AND PUSH2 0x17A6 SWAP2 SWAP1 PUSH2 0x244E JUMP JUMPDEST PUSH8 0xFFFFFFFFFFFFFFFF AND DUP3 PUSH8 0xFFFFFFFFFFFFFFFF AND LT ISZERO PUSH2 0x17C9 JUMPI PUSH0 SWAP1 POP PUSH2 0x1886 JUMP JUMPDEST PUSH1 0x2 PUSH1 0x8 SWAP1 SLOAD SWAP1 PUSH2 0x100 EXP SWAP1 DIV PUSH8 0xFFFFFFFFFFFFFFFF AND PUSH1 0x2 PUSH0 SWAP1 SLOAD SWAP1 PUSH2 0x100 EXP SWAP1 DIV PUSH8 0xFFFFFFFFFFFFFFFF AND PUSH2 0x1800 SWAP2 SWAP1 PUSH2 0x244E JUMP JUMPDEST PUSH8 0xFFFFFFFFFFFFFFFF AND DUP3 PUSH8 0xFFFFFFFFFFFFFFFF AND LT PUSH2 0x1822 JUMPI DUP3 SWAP1 POP PUSH2 0x1886 JUMP JUMPDEST PUSH1 0x2 PUSH1 0x8 SWAP1 SLOAD SWAP1 PUSH2 0x100 EXP SWAP1 DIV PUSH8 0xFFFFFFFFFFFFFFFF AND PUSH8 0xFFFFFFFFFFFFFFFF AND PUSH1 0x2 PUSH0 SWAP1 SLOAD SWAP1 PUSH2 0x100 EXP SWAP1 DIV PUSH8 0xFFFFFFFFFFFFFFFF AND DUP4 PUSH2 0x1864 SWAP2 SWAP1 PUSH2 0x24F3 JUMP JUMPDEST PUSH8 0xFFFFFFFFFFFFFFFF AND DUP5 PUSH2 0x1879 SWAP2 SWAP1 PUSH2 0x252E JUMP JUMPDEST PUSH2 0x1883 SWAP2 SWAP1 PUSH2 0x259C JUMP JUMPDEST SWAP1 POP JUMPDEST SWAP3 SWAP2 POP POP JUMP JUMPDEST PUSH0 SWAP1 JUMP JUMPDEST PUSH0 CODESIZE PUSH0 CODESIZE DUP5 DUP7 GAS CALL PUSH2 0x18A9 JUMPI PUSH4 0xB12D13EB PUSH0 MSTORE PUSH1 0x4 PUSH1 0x1C REVERT JUMPDEST POP POP JUMP JUMPDEST DUP2 PUSH1 0x14 MSTORE DUP1 PUSH1 0x34 MSTORE PUSH16 0xA9059CBB000000000000000000000000 PUSH0 MSTORE PUSH1 0x20 PUSH0 PUSH1 0x44 PUSH1 0x10 PUSH0 DUP8 GAS CALL RETURNDATASIZE ISZERO PUSH1 0x1 PUSH0 MLOAD EQ OR AND PUSH2 0x18ED JUMPI PUSH4 0x90B8EC18 PUSH0 MSTORE PUSH1 0x4 PUSH1 0x1C REVERT JUMPDEST PUSH0 PUSH1 0x34 MSTORE POP POP POP JUMP JUMPDEST PUSH0 PUSH32 0x1FFC9A700000000000000000000000000000000000000000000000000000000 PUSH28 0xFFFFFFFFFFFFFFFFFFFFFFFFFFFFFFFFFFFFFFFFFFFFFFFFFFFFFFFF NOT AND DUP3 PUSH28 0xFFFFFFFFFFFFFFFFFFFFFFFFFFFFFFFFFFFFFFFFFFFFFFFFFFFFFFFF NOT AND EQ SWAP1 POP SWAP2 SWAP1 POP JUMP JUMPDEST PUSH0 PUSH1 0x40 MLOAD SWAP1 POP SWAP1 JUMP JUMPDEST PUSH0 DUP1 REVERT JUMPDEST PUSH0 DUP1 REVERT JUMPDEST PUSH0 PUSH32 0xFFFFFFFF00000000000000000000000000000000000000000000000000000000 DUP3 AND SWAP1 POP SWAP2 SWAP1 POP JUMP JUMPDEST PUSH2 0x19A4 DUP2 PUSH2 0x1970 JUMP JUMPDEST DUP2 EQ PUSH2 0x19AE JUMPI PUSH0 DUP1 REVERT JUMPDEST POP JUMP JUMPDEST PUSH0 DUP2 CALLDATALOAD SWAP1 POP PUSH2 0x19BF DUP2 PUSH2 0x199B JUMP JUMPDEST SWAP3 SWAP2 POP POP JUMP JUMPDEST PUSH0 PUSH1 0x20 DUP3 DUP5 SUB SLT ISZERO PUSH2 0x19DA JUMPI PUSH2 0x19D9 PUSH2 0x1968 JUMP JUMPDEST JUMPDEST PUSH0 PUSH2 0x19E7 DUP5 DUP3 DUP6 ADD PUSH2 0x19B1 JUMP JUMPDEST SWAP2 POP POP SWAP3 SWAP2 POP POP JUMP JUMPDEST PUSH0 DUP2 ISZERO ISZERO SWAP1 POP SWAP2 SWAP1 POP JUMP JUMPDEST PUSH2 0x1A04 DUP2 PUSH2 0x19F0 JUMP JUMPDEST DUP3 MSTORE POP POP JUMP JUMPDEST PUSH0 PUSH1 0x20 DUP3 ADD SWAP1 POP PUSH2 0x1A1D PUSH0 DUP4 ADD DUP5 PUSH2 0x19FB JUMP JUMPDEST SWAP3 SWAP2 POP POP JUMP JUMPDEST PUSH0 PUSH8 0xFFFFFFFFFFFFFFFF DUP3 AND SWAP1 POP SWAP2 SWAP1 POP JUMP JUMPDEST PUSH2 0x1A3F DUP2 PUSH2 0x1A23 JUMP JUMPDEST DUP3 MSTORE POP POP JUMP JUMPDEST PUSH0 PUSH1 0x20 DUP3 ADD SWAP1 POP PUSH2 0x1A58 PUSH0 DUP4 ADD DUP5 PUSH2 0x1A36 JUMP JUMPDEST SWAP3 SWAP2 POP POP JUMP JUMPDEST PUSH0 PUSH20 0xFFFFFFFFFFFFFFFFFFFFFFFFFFFFFFFFFFFFFFFF DUP3 AND SWAP1 POP SWAP2 SWAP1 POP JUMP JUMPDEST PUSH0 PUSH2 0x1A87 DUP3 PUSH2 0x1A5E JUMP JUMPDEST SWAP1 POP SWAP2 SWAP1 POP JUMP JUMPDEST PUSH2 0x1A97 DUP2 PUSH2 0x1A7D JUMP JUMPDEST DUP2 EQ PUSH2 0x1AA1 JUMPI PUSH0 DUP1 REVERT JUMPDEST POP JUMP JUMPDEST PUSH0 DUP2 CALLDATALOAD SWAP1 POP PUSH2 0x1AB2 DUP2 PUSH2 0x1A8E JUMP JUMPDEST SWAP3 SWAP2 POP POP JUMP JUMPDEST PUSH0 PUSH1 0x20 DUP3 DUP5 SUB SLT ISZERO PUSH2 0x1ACD JUMPI PUSH2 0x1ACC PUSH2 0x1968 JUMP JUMPDEST JUMPDEST PUSH0 PUSH2 0x1ADA DUP5 DUP3 DUP6 ADD PUSH2 0x1AA4 JUMP JUMPDEST SWAP2 POP POP SWAP3 SWAP2 POP POP JUMP JUMPDEST PUSH0 DUP2 SWAP1 POP SWAP2 SWAP1 POP JUMP JUMPDEST PUSH2 0x1AF5 DUP2 PUSH2 0x1AE3 JUMP JUMPDEST DUP3 MSTORE POP POP JUMP JUMPDEST PUSH0 PUSH1 0x20 DUP3 ADD SWAP1 POP PUSH2 0x1B0E PUSH0 DUP4 ADD DUP5 PUSH2 0x1AEC JUMP JUMPDEST SWAP3 SWAP2 POP POP JUMP JUMPDEST PUSH2 0x1B1D DUP2 PUSH2 0x1970 JUMP JUMPDEST DUP3 MSTORE POP POP JUMP JUMPDEST PUSH0 PUSH1 0x20 DUP3 ADD SWAP1 POP PUSH2 0x1B36 PUSH0 DUP4 ADD DUP5 PUSH2 0x1B14 JUMP JUMPDEST SWAP3 SWAP2 POP POP JUMP JUMPDEST PUSH0 DUP1 REVERT JUMPDEST PUSH0 DUP1 REVERT JUMPDEST PUSH0 DUP1 REVERT JUMPDEST PUSH0 DUP1 DUP4 PUSH1 0x1F DUP5 ADD SLT PUSH2 0x1B5D JUMPI PUSH2 0x1B5C PUSH2 0x1B3C JUMP JUMPDEST JUMPDEST DUP3 CALLDATALOAD SWAP1 POP PUSH8 0xFFFFFFFFFFFFFFFF DUP2 GT ISZERO PUSH2 0x1B7A JUMPI PUSH2 0x1B79 PUSH2 0x1B40 JUMP JUMPDEST JUMPDEST PUSH1 0x20 DUP4 ADD SWAP2 POP DUP4 PUSH1 0x1 DUP3 MUL DUP4 ADD GT ISZERO PUSH2 0x1B96 JUMPI PUSH2 0x1B95 PUSH2 0x1B44 JUMP JUMPDEST JUMPDEST SWAP3 POP SWAP3 SWAP1 POP JUMP JUMPDEST PUSH0 DUP1 PUSH1 0x20 DUP4 DUP6 SUB SLT ISZERO PUSH2 0x1BB3 JUMPI PUSH2 0x1BB2 PUSH2 0x1968 JUMP JUMPDEST JUMPDEST PUSH0 DUP4 ADD CALLDATALOAD PUSH8 0xFFFFFFFFFFFFFFFF DUP2 GT ISZERO PUSH2 0x1BD0 JUMPI PUSH2 0x1BCF PUSH2 0x196C JUMP JUMPDEST JUMPDEST PUSH2 0x1BDC DUP6 DUP3 DUP7 ADD PUSH2 0x1B48 JUMP JUMPDEST SWAP3 POP SWAP3 POP POP SWAP3 POP SWAP3 SWAP1 POP JUMP JUMPDEST PUSH0 DUP1 DUP4 PUSH1 0x1F DUP5 ADD SLT PUSH2 0x1BFD JUMPI PUSH2 0x1BFC PUSH2 0x1B3C JUMP JUMPDEST JUMPDEST DUP3 CALLDATALOAD SWAP1 POP PUSH8 0xFFFFFFFFFFFFFFFF DUP2 GT ISZERO PUSH2 0x1C1A JUMPI PUSH2 0x1C19 PUSH2 0x1B40 JUMP JUMPDEST JUMPDEST PUSH1 0x20 DUP4 ADD SWAP2 POP DUP4 PUSH1 0x20 DUP3 MUL DUP4 ADD GT ISZERO PUSH2 0x1C36 JUMPI PUSH2 0x1C35 PUSH2 0x1B44 JUMP JUMPDEST JUMPDEST SWAP3 POP SWAP3 SWAP1 POP JUMP JUMPDEST PUSH0 DUP1 DUP4 PUSH1 0x1F DUP5 ADD SLT PUSH2 0x1C52 JUMPI PUSH2 0x1C51 PUSH2 0x1B3C JUMP JUMPDEST JUMPDEST DUP3 CALLDATALOAD SWAP1 POP PUSH8 0xFFFFFFFFFFFFFFFF DUP2 GT ISZERO PUSH2 0x1C6F JUMPI PUSH2 0x1C6E PUSH2 0x1B40 JUMP JUMPDEST JUMPDEST PUSH1 0x20 DUP4 ADD SWAP2 POP DUP4 PUSH1 0x20 DUP3 MUL DUP4 ADD GT ISZERO PUSH2 0x1C8B JUMPI PUSH2 0x1C8A PUSH2 0x1B44 JUMP JUMPDEST JUMPDEST SWAP3 POP SWAP3 SWAP1 POP JUMP JUMPDEST PUSH0 DUP1 PUSH0 DUP1 PUSH1 0x40 DUP6 DUP8 SUB SLT ISZERO PUSH2 0x1CAA JUMPI PUSH2 0x1CA9 PUSH2 0x1968 JUMP JUMPDEST JUMPDEST PUSH0 DUP6 ADD CALLDATALOAD PUSH8 0xFFFFFFFFFFFFFFFF DUP2 GT ISZERO PUSH2 0x1CC7 JUMPI PUSH2 0x1CC6 PUSH2 0x196C JUMP JUMPDEST JUMPDEST PUSH2 0x1CD3 DUP8 DUP3 DUP9 ADD PUSH2 0x1BE8 JUMP JUMPDEST SWAP5 POP SWAP5 POP POP PUSH1 0x20 DUP6 ADD CALLDATALOAD PUSH8 0xFFFFFFFFFFFFFFFF DUP2 GT ISZERO PUSH2 0x1CF6 JUMPI PUSH2 0x1CF5 PUSH2 0x196C JUMP JUMPDEST JUMPDEST PUSH2 0x1D02 DUP8 DUP3 DUP9 ADD PUSH2 0x1C3D JUMP JUMPDEST SWAP3 POP SWAP3 POP POP SWAP3 SWAP6 SWAP2 SWAP5 POP SWAP3 POP JUMP JUMPDEST PUSH0 DUP1 DUP4 PUSH1 0x1F DUP5 ADD SLT PUSH2 0x1D25 JUMPI PUSH2 0x1D24 PUSH2 0x1B3C JUMP JUMPDEST JUMPDEST DUP3 CALLDATALOAD SWAP1 POP PUSH8 0xFFFFFFFFFFFFFFFF DUP2 GT ISZERO PUSH2 0x1D42 JUMPI PUSH2 0x1D41 PUSH2 0x1B40 JUMP JUMPDEST JUMPDEST PUSH1 0x20 DUP4 ADD SWAP2 POP DUP4 PUSH1 0x20 DUP3 MUL DUP4 ADD GT ISZERO PUSH2 0x1D5E JUMPI PUSH2 0x1D5D PUSH2 0x1B44 JUMP JUMPDEST JUMPDEST SWAP3 POP SWAP3 SWAP1 POP JUMP JUMPDEST PUSH0 DUP1 PUSH1 0x20 DUP4 DUP6 SUB SLT ISZERO PUSH2 0x1D7B JUMPI PUSH2 0x1D7A PUSH2 0x1968 JUMP JUMPDEST JUMPDEST PUSH0 DUP4 ADD CALLDATALOAD PUSH8 0xFFFFFFFFFFFFFFFF DUP2 GT ISZERO PUSH2 0x1D98 JUMPI PUSH2 0x1D97 PUSH2 0x196C JUMP JUMPDEST JUMPDEST PUSH2 0x1DA4 DUP6 DUP3 DUP7 ADD PUSH2 0x1D10 JUMP JUMPDEST SWAP3 POP SWAP3 POP POP SWAP3 POP SWAP3 SWAP1 POP JUMP JUMPDEST PUSH2 0x1DB9 DUP2 PUSH2 0x1A7D JUMP JUMPDEST DUP3 MSTORE POP POP JUMP JUMPDEST PUSH0 PUSH1 0x20 DUP3 ADD SWAP1 POP PUSH2 0x1DD2 PUSH0 DUP4 ADD DUP5 PUSH2 0x1DB0 JUMP JUMPDEST SWAP3 SWAP2 POP POP JUMP JUMPDEST PUSH32 0x4E487B7100000000000000000000000000000000000000000000000000000000 PUSH0 MSTORE PUSH1 0x11 PUSH1 0x4 MSTORE PUSH1 0x24 PUSH0 REVERT JUMPDEST PUSH0 PUSH2 0x1E0F DUP3 PUSH2 0x1AE3 JUMP JUMPDEST SWAP2 POP PUSH2 0x1E1A DUP4 PUSH2 0x1AE3 JUMP JUMPDEST SWAP3 POP DUP3 DUP3 SUB SWAP1 POP DUP2 DUP2 GT ISZERO PUSH2 0x1E32 JUMPI PUSH2 0x1E31 PUSH2 0x1DD8 JUMP JUMPDEST JUMPDEST SWAP3 SWAP2 POP POP JUMP JUMPDEST PUSH32 0x4E487B7100000000000000000000000000000000000000000000000000000000 PUSH0 MSTORE PUSH1 0x32 PUSH1 0x4 MSTORE PUSH1 0x24 PUSH0 REVERT JUMPDEST PUSH2 0x1E6E DUP2 PUSH2 0x19F0 JUMP JUMPDEST DUP2 EQ PUSH2 0x1E78 JUMPI PUSH0 DUP1 REVERT JUMPDEST POP JUMP JUMPDEST PUSH0 DUP2 CALLDATALOAD SWAP1 POP PUSH2 0x1E89 DUP2 PUSH2 0x1E65 JUMP JUMPDEST SWAP3 SWAP2 POP POP JUMP JUMPDEST PUSH0 PUSH1 0x20 DUP3 DUP5 SUB SLT ISZERO PUSH2 0x1EA4 JUMPI PUSH2 0x1EA3 PUSH2 0x1968 JUMP JUMPDEST JUMPDEST PUSH0 PUSH2 0x1EB1 DUP5 DUP3 DUP6 ADD PUSH2 0x1E7B JUMP JUMPDEST SWAP2 POP POP SWAP3 SWAP2 POP POP JUMP JUMPDEST PUSH0 DUP1 REVERT JUMPDEST PUSH0 PUSH1 0x1F NOT PUSH1 0x1F DUP4 ADD AND SWAP1 POP SWAP2 SWAP1 POP JUMP JUMPDEST PUSH32 0x4E487B7100000000000000000000000000000000000000000000000000000000 PUSH0 MSTORE PUSH1 0x41 PUSH1 0x4 MSTORE PUSH1 0x24 PUSH0 REVERT JUMPDEST PUSH2 0x1F04 DUP3 PUSH2 0x1EBE JUMP JUMPDEST DUP2 ADD DUP2 DUP2 LT PUSH8 0xFFFFFFFFFFFFFFFF DUP3 GT OR ISZERO PUSH2 0x1F23 JUMPI PUSH2 0x1F22 PUSH2 0x1ECE JUMP JUMPDEST JUMPDEST DUP1 PUSH1 0x40 MSTORE POP POP POP JUMP JUMPDEST PUSH0 PUSH2 0x1F35 PUSH2 0x195F JUMP JUMPDEST SWAP1 POP PUSH2 0x1F41 DUP3 DUP3 PUSH2 0x1EFB JUMP JUMPDEST SWAP2 SWAP1 POP JUMP JUMPDEST PUSH0 DUP1 REVERT JUMPDEST PUSH0 PUSH8 0xFFFFFFFFFFFFFFFF DUP3 GT ISZERO PUSH2 0x1F64 JUMPI PUSH2 0x1F63 PUSH2 0x1ECE JUMP JUMPDEST JUMPDEST PUSH1 0x20 DUP3 MUL SWAP1 POP PUSH1 0x20 DUP2 ADD SWAP1 POP SWAP2 SWAP1 POP JUMP JUMPDEST PUSH0 PUSH2 0x1F87 PUSH2 0x1F82 DUP5 PUSH2 0x1F4A JUMP JUMPDEST PUSH2 0x1F2C JUMP JUMPDEST SWAP1 POP DUP1 DUP4 DUP3 MSTORE PUSH1 0x20 DUP3 ADD SWAP1 POP PUSH1 0x20 DUP5 MUL DUP4 ADD DUP6 DUP2 GT ISZERO PUSH2 0x1FAA JUMPI PUSH2 0x1FA9 PUSH2 0x1B44 JUMP JUMPDEST JUMPDEST DUP4 JUMPDEST DUP2 DUP2 LT ISZERO PUSH2 0x1FD3 JUMPI DUP1 PUSH2 0x1FBF DUP9 DUP3 PUSH2 0x1AA4 JUMP JUMPDEST DUP5 MSTORE PUSH1 0x20 DUP5 ADD SWAP4 POP POP PUSH1 0x20 DUP2 ADD SWAP1 POP PUSH2 0x1FAC JUMP JUMPDEST POP POP POP SWAP4 SWAP3 POP POP POP JUMP JUMPDEST PUSH0 DUP3 PUSH1 0x1F DUP4 ADD SLT PUSH2 0x1FF1 JUMPI PUSH2 0x1FF0 PUSH2 0x1B3C JUMP JUMPDEST JUMPDEST DUP2 CALLDATALOAD PUSH2 0x2001 DUP5 DUP3 PUSH1 0x20 DUP7 ADD PUSH2 0x1F75 JUMP JUMPDEST SWAP2 POP POP SWAP3 SWAP2 POP POP JUMP JUMPDEST PUSH2 0x2013 DUP2 PUSH2 0x1A23 JUMP JUMPDEST DUP2 EQ PUSH2 0x201D JUMPI PUSH0 DUP1 REVERT JUMPDEST POP JUMP JUMPDEST PUSH0 DUP2 CALLDATALOAD SWAP1 POP PUSH2 0x202E DUP2 PUSH2 0x200A JUMP JUMPDEST SWAP3 SWAP2 POP POP JUMP JUMPDEST PUSH0 PUSH1 0xA0 DUP3 DUP5 SUB SLT ISZERO PUSH2 0x2049 JUMPI PUSH2 0x2048 PUSH2 0x1EBA JUMP JUMPDEST JUMPDEST PUSH2 0x2053 PUSH1 0xA0 PUSH2 0x1F2C JUMP JUMPDEST SWAP1 POP PUSH0 PUSH2 0x2062 DUP5 DUP3 DUP6 ADD PUSH2 0x1AA4 JUMP JUMPDEST PUSH0 DUP4 ADD MSTORE POP PUSH1 0x20 DUP3 ADD CALLDATALOAD PUSH8 0xFFFFFFFFFFFFFFFF DUP2 GT ISZERO PUSH2 0x2085 JUMPI PUSH2 0x2084 PUSH2 0x1F46 JUMP JUMPDEST JUMPDEST PUSH2 0x2091 DUP5 DUP3 DUP6 ADD PUSH2 0x1FDD JUMP JUMPDEST PUSH1 0x20 DUP4 ADD MSTORE POP PUSH1 0x40 PUSH2 0x20A5 DUP5 DUP3 DUP6 ADD PUSH2 0x2020 JUMP JUMPDEST PUSH1 0x40 DUP4 ADD MSTORE POP PUSH1 0x60 PUSH2 0x20B9 DUP5 DUP3 DUP6 ADD PUSH2 0x2020 JUMP JUMPDEST PUSH1 0x60 DUP4 ADD MSTORE POP PUSH1 0x80 PUSH2 0x20CD DUP5 DUP3 DUP6 ADD PUSH2 0x2020 JUMP JUMPDEST PUSH1 0x80 DUP4 ADD MSTORE POP SWAP3 SWAP2 POP POP JUMP JUMPDEST PUSH0 PUSH1 0x20 DUP3 DUP5 SUB SLT ISZERO PUSH2 0x20EE JUMPI PUSH2 0x20ED PUSH2 0x1968 JUMP JUMPDEST JUMPDEST PUSH0 DUP3 ADD CALLDATALOAD PUSH8 0xFFFFFFFFFFFFFFFF DUP2 GT ISZERO PUSH2 0x210B JUMPI PUSH2 0x210A PUSH2 0x196C JUMP JUMPDEST JUMPDEST PUSH2 0x2117 DUP5 DUP3 DUP6 ADD PUSH2 0x2034 JUMP JUMPDEST SWAP2 POP POP SWAP3 SWAP2 POP POP JUMP JUMPDEST PUSH1 0x3 DUP2 LT PUSH2 0x212C JUMPI PUSH0 DUP1 REVERT JUMPDEST POP JUMP JUMPDEST PUSH0 DUP2 CALLDATALOAD SWAP1 POP PUSH2 0x213D DUP2 PUSH2 0x2120 JUMP JUMPDEST SWAP3 SWAP2 POP POP JUMP JUMPDEST PUSH0 DUP1 REVERT JUMPDEST PUSH0 PUSH8 0xFFFFFFFFFFFFFFFF DUP3 GT ISZERO PUSH2 0x2161 JUMPI PUSH2 0x2160 PUSH2 0x1ECE JUMP JUMPDEST JUMPDEST PUSH2 0x216A DUP3 PUSH2 0x1EBE JUMP JUMPDEST SWAP1 POP PUSH1 0x20 DUP2 ADD SWAP1 POP SWAP2 SWAP1 POP JUMP JUMPDEST DUP3 DUP2 DUP4 CALLDATACOPY PUSH0 DUP4 DUP4 ADD MSTORE POP POP POP JUMP JUMPDEST PUSH0 PUSH2 0x2197 PUSH2 0x2192 DUP5 PUSH2 0x2147 JUMP JUMPDEST PUSH2 0x1F2C JUMP JUMPDEST SWAP1 POP DUP3 DUP2 MSTORE PUSH1 0x20 DUP2 ADD DUP5 DUP5 DUP5 ADD GT ISZERO PUSH2 0x21B3 JUMPI PUSH2 0x21B2 PUSH2 0x2143 JUMP JUMPDEST JUMPDEST PUSH2 0x21BE DUP5 DUP3 DUP6 PUSH2 0x2177 JUMP JUMPDEST POP SWAP4 SWAP3 POP POP POP JUMP JUMPDEST PUSH0 DUP3 PUSH1 0x1F DUP4 ADD SLT PUSH2 0x21DA JUMPI PUSH2 0x21D9 PUSH2 0x1B3C JUMP JUMPDEST JUMPDEST DUP2 CALLDATALOAD PUSH2 0x21EA DUP5 DUP3 PUSH1 0x20 DUP7 ADD PUSH2 0x2185 JUMP JUMPDEST SWAP2 POP POP SWAP3 SWAP2 POP POP JUMP JUMPDEST PUSH0 PUSH1 0x80 DUP3 DUP5 SUB SLT ISZERO PUSH2 0x2208 JUMPI PUSH2 0x2207 PUSH2 0x1EBA JUMP JUMPDEST JUMPDEST PUSH2 0x2212 PUSH1 0x80 PUSH2 0x1F2C JUMP JUMPDEST SWAP1 POP PUSH0 PUSH2 0x2221 DUP5 DUP3 DUP6 ADD PUSH2 0x212F JUMP JUMPDEST PUSH0 DUP4 ADD MSTORE POP PUSH1 0x20 PUSH2 0x2234 DUP5 DUP3 DUP6 ADD PUSH2 0x1AA4 JUMP JUMPDEST PUSH1 0x20 DUP4 ADD MSTORE POP PUSH1 0x40 PUSH2 0x2248 DUP5 DUP3 DUP6 ADD PUSH2 0x1AA4 JUMP JUMPDEST PUSH1 0x40 DUP4 ADD MSTORE POP PUSH1 0x60 DUP3 ADD CALLDATALOAD PUSH8 0xFFFFFFFFFFFFFFFF DUP2 GT ISZERO PUSH2 0x226C JUMPI PUSH2 0x226B PUSH2 0x1F46 JUMP JUMPDEST JUMPDEST PUSH2 0x2278 DUP5 DUP3 DUP6 ADD PUSH2 0x21C6 JUMP JUMPDEST PUSH1 0x60 DUP4 ADD MSTORE POP SWAP3 SWAP2 POP POP JUMP JUMPDEST PUSH0 PUSH1 0x20 DUP3 DUP5 SUB SLT ISZERO PUSH2 0x2299 JUMPI PUSH2 0x2298 PUSH2 0x1968 JUMP JUMPDEST JUMPDEST PUSH0 DUP3 ADD CALLDATALOAD PUSH8 0xFFFFFFFFFFFFFFFF DUP2 GT ISZERO PUSH2 0x22B6 JUMPI PUSH2 0x22B5 PUSH2 0x196C JUMP JUMPDEST JUMPDEST PUSH2 0x22C2 DUP5 DUP3 DUP6 ADD PUSH2 0x21F3 JUMP JUMPDEST SWAP2 POP POP SWAP3 SWAP2 POP POP JUMP JUMPDEST PUSH32 0x4E487B7100000000000000000000000000000000000000000000000000000000 PUSH0 MSTORE PUSH1 0x21 PUSH1 0x4 MSTORE PUSH1 0x24 PUSH0 REVERT JUMPDEST PUSH2 0x2301 DUP2 PUSH2 0x1AE3 JUMP JUMPDEST DUP2 EQ PUSH2 0x230B JUMPI PUSH0 DUP1 REVERT JUMPDEST POP JUMP JUMPDEST PUSH0 DUP2 MLOAD SWAP1 POP PUSH2 0x231C DUP2 PUSH2 0x22F8 JUMP JUMPDEST SWAP3 SWAP2 POP POP JUMP JUMPDEST PUSH0 PUSH1 0x20 DUP3 DUP5 SUB SLT ISZERO PUSH2 0x2337 JUMPI PUSH2 0x2336 PUSH2 0x1EBA JUMP JUMPDEST JUMPDEST PUSH2 0x2341 PUSH1 0x20 PUSH2 0x1F2C JUMP JUMPDEST SWAP1 POP PUSH0 PUSH2 0x2350 DUP5 DUP3 DUP6 ADD PUSH2 0x230E JUMP JUMPDEST PUSH0 DUP4 ADD MSTORE POP SWAP3 SWAP2 POP POP JUMP JUMPDEST PUSH0 PUSH1 0x20 DUP3 DUP5 SUB SLT ISZERO PUSH2 0x2370 JUMPI PUSH2 0x236F PUSH2 0x1968 JUMP JUMPDEST JUMPDEST PUSH0 PUSH2 0x237D DUP5 DUP3 DUP6 ADD PUSH2 0x2322 JUMP JUMPDEST SWAP2 POP POP SWAP3 SWAP2 POP POP JUMP JUMPDEST PUSH0 PUSH1 0x40 DUP3 ADD SWAP1 POP PUSH2 0x2399 PUSH0 DUP4 ADD DUP6 PUSH2 0x1DB0 JUMP JUMPDEST PUSH2 0x23A6 PUSH1 0x20 DUP4 ADD DUP5 PUSH2 0x1AEC JUMP JUMPDEST SWAP4 SWAP3 POP POP POP JUMP JUMPDEST PUSH0 DUP1 REVERT JUMPDEST PUSH0 DUP1 REVERT JUMPDEST PUSH0 DUP1 REVERT JUMPDEST PUSH0 DUP1 DUP4 CALLDATALOAD PUSH1 0x1 PUSH1 0x20 SUB DUP5 CALLDATASIZE SUB SUB DUP2 SLT PUSH2 0x23D5 JUMPI PUSH2 0x23D4 PUSH2 0x23AD JUMP JUMPDEST JUMPDEST DUP1 DUP5 ADD SWAP3 POP DUP3 CALLDATALOAD SWAP2 POP PUSH8 0xFFFFFFFFFFFFFFFF DUP3 GT ISZERO PUSH2 0x23F7 JUMPI PUSH2 0x23F6 PUSH2 0x23B1 JUMP JUMPDEST JUMPDEST PUSH1 0x20 DUP4 ADD SWAP3 POP PUSH1 0x1 DUP3 MUL CALLDATASIZE SUB DUP4 SGT ISZERO PUSH2 0x2413 JUMPI PUSH2 0x2412 PUSH2 0x23B5 JUMP JUMPDEST JUMPDEST POP SWAP3 POP SWAP3 SWAP1 POP JUMP JUMPDEST PUSH0 PUSH2 0x2425 DUP3 PUSH2 0x1AE3 JUMP JUMPDEST SWAP2 POP PUSH2 0x2430 DUP4 PUSH2 0x1AE3 JUMP JUMPDEST SWAP3 POP DUP3 DUP3 ADD SWAP1 POP DUP1 DUP3 GT ISZERO PUSH2 0x2448 JUMPI PUSH2 0x2447 PUSH2 0x1DD8 JUMP JUMPDEST JUMPDEST SWAP3 SWAP2 POP POP JUMP JUMPDEST PUSH0 PUSH2 0x2458 DUP3 PUSH2 0x1A23 JUMP JUMPDEST SWAP2 POP PUSH2 0x2463 DUP4 PUSH2 0x1A23 JUMP JUMPDEST SWAP3 POP DUP3 DUP3 ADD SWAP1 POP PUSH8 0xFFFFFFFFFFFFFFFF DUP2 GT ISZERO PUSH2 0x2483 JUMPI PUSH2 0x2482 PUSH2 0x1DD8 JUMP JUMPDEST JUMPDEST SWAP3 SWAP2 POP POP JUMP JUMPDEST PUSH0 PUSH1 0x60 DUP3 ADD SWAP1 POP PUSH2 0x249C PUSH0 DUP4 ADD DUP7 PUSH2 0x1DB0 JUMP JUMPDEST PUSH2 0x24A9 PUSH1 0x20 DUP4 ADD DUP6 PUSH2 0x1DB0 JUMP JUMPDEST PUSH2 0x24B6 PUSH1 0x40 DUP4 ADD DUP5 PUSH2 0x1AEC JUMP JUMPDEST SWAP5 SWAP4 POP POP POP POP JUMP JUMPDEST PUSH0 PUSH1 0x60 DUP3 ADD SWAP1 POP PUSH2 0x24D1 PUSH0 DUP4 ADD DUP7 PUSH2 0x1DB0 JUMP JUMPDEST PUSH2 0x24DE PUSH1 0x20 DUP4 ADD DUP6 PUSH2 0x1AEC JUMP JUMPDEST PUSH2 0x24EB PUSH1 0x40 DUP4 ADD DUP5 PUSH2 0x1AEC JUMP JUMPDEST SWAP5 SWAP4 POP POP POP POP JUMP JUMPDEST PUSH0 PUSH2 0x24FD DUP3 PUSH2 0x1A23 JUMP JUMPDEST SWAP2 POP PUSH2 0x2508 DUP4 PUSH2 0x1A23 JUMP JUMPDEST SWAP3 POP DUP3 DUP3 SUB SWAP1 POP PUSH8 0xFFFFFFFFFFFFFFFF DUP2 GT ISZERO PUSH2 0x2528 JUMPI PUSH2 0x2527 PUSH2 0x1DD8 JUMP JUMPDEST JUMPDEST SWAP3 SWAP2 POP POP JUMP JUMPDEST PUSH0 PUSH2 0x2538 DUP3 PUSH2 0x1AE3 JUMP JUMPDEST SWAP2 POP PUSH2 0x2543 DUP4 PUSH2 0x1AE3 JUMP JUMPDEST SWAP3 POP DUP3 DUP3 MUL PUSH2 0x2551 DUP2 PUSH2 0x1AE3 JUMP JUMPDEST SWAP2 POP DUP3 DUP3 DIV DUP5 EQ DUP4 ISZERO OR PUSH2 0x2568 JUMPI PUSH2 0x2567 PUSH2 0x1DD8 JUMP JUMPDEST JUMPDEST POP SWAP3 SWAP2 POP POP JUMP JUMPDEST PUSH32 0x4E487B7100000000000000000000000000000000000000000000000000000000 PUSH0 MSTORE PUSH1 0x12 PUSH1 0x4 MSTORE PUSH1 0x24 PUSH0 REVERT JUMPDEST PUSH0 PUSH2 0x25A6 DUP3 PUSH2 0x1AE3 JUMP JUMPDEST SWAP2 POP PUSH2 0x25B1 DUP4 PUSH2 0x1AE3 JUMP JUMPDEST SWAP3 POP DUP3 PUSH2 0x25C1 JUMPI PUSH2 0x25C0 PUSH2 0x256F JUMP JUMPDEST JUMPDEST DUP3 DUP3 DIV SWAP1 POP SWAP3 SWAP2 POP POP JUMP INVALID LOG2 PUSH5 0x6970667358 0x22 SLT KECCAK256 0xD0 PUSH8 0xDBF0E6B47AA89F05 POP BLOCKHASH LOG3 EXTCODESIZE 0x27 GT 0xB7 0xD7 PUSH26 0x4A8E4C68E2EBFDF0746D36879A64736F6C634300081900330000 "},"methodIdentifiers":{"allocate(bytes)":"5aef467a","available(address)":"10098ad5","cancelOwnershipHandover()":"54d1f13d","cliff()":"13d033c0","completeOwnershipHandover(address)":"f04e283e","disburse(bytes)":"fa4ca9b1","disburseBatch(bytes[])":"61400c99","distributed(address)":"578bcf35","duration()":"0fb5a6b4","end()":"efbe1c1c","getComponentInterface()":"28d6183b","getGarbageB(bytes)":"3b6548a2","initialize(bytes)":"439fab91","isAuthorized(address)":"fe9fbb80","owner()":"8da5cb5b","ownershipHandoverExpiresAt(address)":"fee81cf4","reclaim(bytes)":"f1c30ec0","reconcile(bytes)":"451cc191","renounceOwnership()":"715018a6","requestOwnershipHandover()":"25692962","setAuthorized(address[],bool[])":"4359d28a","start()":"be9a6555","supportsInterface(bytes4)":"01ffc9a7","total(address)":"d2514e84","transferOwnership(address)":"f2fde38b"}}}}}