{"contracts/budgets/SimpleBudget.sol":{"SimpleBudget":{"abi":[{"inputs":[],"stateMutability":"nonpayable","type":"constructor"},{"inputs":[],"name":"AlreadyInitialized","type":"error"},{"inputs":[],"name":"CloneAlreadyInitialized","type":"error"},{"inputs":[],"name":"InitializerNotImplemented","type":"error"},{"inputs":[{"internalType":"address","name":"asset","type":"address"},{"internalType":"uint256","name":"available","type":"uint256"},{"internalType":"uint256","name":"required","type":"uint256"}],"name":"InsufficientFunds","type":"error"},{"inputs":[{"internalType":"address","name":"asset","type":"address"},{"internalType":"uint256","name":"amount","type":"uint256"}],"name":"InvalidAllocation","type":"error"},{"inputs":[],"name":"InvalidInitialization","type":"error"},{"inputs":[],"name":"InvalidInitializationData","type":"error"},{"inputs":[],"name":"LengthMismatch","type":"error"},{"inputs":[],"name":"NewOwnerIsZeroAddress","type":"error"},{"inputs":[],"name":"NoHandoverRequest","type":"error"},{"inputs":[],"name":"NotInitializing","type":"error"},{"inputs":[],"name":"Reentrancy","type":"error"},{"inputs":[{"internalType":"address","name":"asset","type":"address"},{"internalType":"address","name":"to","type":"address"},{"internalType":"uint256","name":"amount","type":"uint256"}],"name":"TransferFailed","type":"error"},{"inputs":[],"name":"Unauthorized","type":"error"},{"anonymous":false,"inputs":[{"indexed":true,"internalType":"address","name":"account","type":"address"},{"indexed":false,"internalType":"bool","name":"isAuthorized","type":"bool"}],"name":"Authorized","type":"event"},{"anonymous":false,"inputs":[{"indexed":true,"internalType":"address","name":"asset","type":"address"},{"indexed":false,"internalType":"address","name":"to","type":"address"},{"indexed":false,"internalType":"uint256","name":"amount","type":"uint256"}],"name":"Distributed","type":"event"},{"anonymous":false,"inputs":[{"indexed":false,"internalType":"uint64","name":"version","type":"uint64"}],"name":"Initialized","type":"event"},{"anonymous":false,"inputs":[{"indexed":true,"internalType":"address","name":"pendingOwner","type":"address"}],"name":"OwnershipHandoverCanceled","type":"event"},{"anonymous":false,"inputs":[{"indexed":true,"internalType":"address","name":"pendingOwner","type":"address"}],"name":"OwnershipHandoverRequested","type":"event"},{"anonymous":false,"inputs":[{"indexed":true,"internalType":"address","name":"oldOwner","type":"address"},{"indexed":true,"internalType":"address","name":"newOwner","type":"address"}],"name":"OwnershipTransferred","type":"event"},{"stateMutability":"payable","type":"fallback"},{"inputs":[{"internalType":"bytes","name":"data_","type":"bytes"}],"name":"allocate","outputs":[{"internalType":"bool","name":"","type":"bool"}],"stateMutability":"payable","type":"function"},{"inputs":[{"internalType":"address","name":"asset_","type":"address"}],"name":"available","outputs":[{"internalType":"uint256","name":"","type":"uint256"}],"stateMutability":"view","type":"function"},{"inputs":[{"internalType":"address","name":"asset_","type":"address"},{"internalType":"uint256","name":"tokenId_","type":"uint256"}],"name":"available","outputs":[{"internalType":"uint256","name":"","type":"uint256"}],"stateMutability":"view","type":"function"},{"inputs":[],"name":"cancelOwnershipHandover","outputs":[],"stateMutability":"payable","type":"function"},{"inputs":[{"internalType":"address","name":"pendingOwner","type":"address"}],"name":"completeOwnershipHandover","outputs":[],"stateMutability":"payable","type":"function"},{"inputs":[{"internalType":"bytes","name":"data_","type":"bytes"}],"name":"disburse","outputs":[{"internalType":"bool","name":"","type":"bool"}],"stateMutability":"nonpayable","type":"function"},{"inputs":[{"internalType":"bytes[]","name":"data_","type":"bytes[]"}],"name":"disburseBatch","outputs":[{"internalType":"bool","name":"","type":"bool"}],"stateMutability":"nonpayable","type":"function"},{"inputs":[{"internalType":"address","name":"asset_","type":"address"}],"name":"distributed","outputs":[{"internalType":"uint256","name":"","type":"uint256"}],"stateMutability":"view","type":"function"},{"inputs":[{"internalType":"address","name":"asset_","type":"address"},{"internalType":"uint256","name":"tokenId_","type":"uint256"}],"name":"distributed","outputs":[{"internalType":"uint256","name":"","type":"uint256"}],"stateMutability":"view","type":"function"},{"inputs":[],"name":"getComponentInterface","outputs":[{"internalType":"bytes4","name":"","type":"bytes4"}],"stateMutability":"pure","type":"function"},{"inputs":[{"internalType":"bytes","name":"i","type":"bytes"}],"name":"getGarbageA","outputs":[{"internalType":"bool","name":"","type":"bool"}],"stateMutability":"pure","type":"function"},{"inputs":[{"internalType":"bytes","name":"data_","type":"bytes"}],"name":"initialize","outputs":[],"stateMutability":"nonpayable","type":"function"},{"inputs":[{"internalType":"address","name":"account_","type":"address"}],"name":"isAuthorized","outputs":[{"internalType":"bool","name":"","type":"bool"}],"stateMutability":"view","type":"function"},{"inputs":[{"internalType":"address","name":"","type":"address"},{"internalType":"address","name":"","type":"address"},{"internalType":"uint256[]","name":"","type":"uint256[]"},{"internalType":"uint256[]","name":"","type":"uint256[]"},{"internalType":"bytes","name":"","type":"bytes"}],"name":"onERC1155BatchReceived","outputs":[{"internalType":"bytes4","name":"","type":"bytes4"}],"stateMutability":"pure","type":"function"},{"inputs":[{"internalType":"address","name":"","type":"address"},{"internalType":"address","name":"","type":"address"},{"internalType":"uint256","name":"","type":"uint256"},{"internalType":"uint256","name":"","type":"uint256"},{"internalType":"bytes","name":"","type":"bytes"}],"name":"onERC1155Received","outputs":[{"internalType":"bytes4","name":"","type":"bytes4"}],"stateMutability":"pure","type":"function"},{"inputs":[],"name":"owner","outputs":[{"internalType":"address","name":"result","type":"address"}],"stateMutability":"view","type":"function"},{"inputs":[{"internalType":"address","name":"pendingOwner","type":"address"}],"name":"ownershipHandoverExpiresAt","outputs":[{"internalType":"uint256","name":"result","type":"uint256"}],"stateMutability":"view","type":"function"},{"inputs":[{"internalType":"bytes","name":"data_","type":"bytes"}],"name":"reclaim","outputs":[{"internalType":"bool","name":"","type":"bool"}],"stateMutability":"nonpayable","type":"function"},{"inputs":[{"internalType":"bytes","name":"","type":"bytes"}],"name":"reconcile","outputs":[{"internalType":"uint256","name":"","type":"uint256"}],"stateMutability":"nonpayable","type":"function"},{"inputs":[],"name":"renounceOwnership","outputs":[],"stateMutability":"payable","type":"function"},{"inputs":[],"name":"requestOwnershipHandover","outputs":[],"stateMutability":"payable","type":"function"},{"inputs":[{"internalType":"address[]","name":"account_","type":"address[]"},{"internalType":"bool[]","name":"authorized_","type":"bool[]"}],"name":"setAuthorized","outputs":[],"stateMutability":"nonpayable","type":"function"},{"inputs":[{"internalType":"bytes4","name":"interfaceId","type":"bytes4"}],"name":"supportsInterface","outputs":[{"internalType":"bool","name":"","type":"bool"}],"stateMutability":"view","type":"function"},{"inputs":[{"internalType":"address","name":"asset_","type":"address"}],"name":"total","outputs":[{"internalType":"uint256","name":"","type":"uint256"}],"stateMutability":"view","type":"function"},{"inputs":[{"internalType":"address","name":"asset_","type":"address"},{"internalType":"uint256","name":"tokenId_","type":"uint256"}],"name":"total","outputs":[{"internalType":"uint256","name":"","type":"uint256"}],"stateMutability":"view","type":"function"},{"inputs":[{"internalType":"address","name":"newOwner","type":"address"}],"name":"transferOwnership","outputs":[],"stateMutability":"payable","type":"function"},{"stateMutability":"payable","type":"receive"}],"evm":{"bytecode":{"linkReferences":{},"object":"608060405234801561000f575f80fd5b5061001f3361003260201b60201c565b61002d61010e60201b60201c565b6101a7565b61004061017a60201b60201c565b156100b8577fffffffffffffffffffffffffffffffffffffffffffffffffffffffff7487392780541561007a57630dc149f05f526004601cfd5b8160601b60601c9150811560ff1b82178155815f7f8be0079c531659141344cd1fd0a4f28419497f9722a3daafe3b4186f6b6457e05f80a35061010b565b8060601b60601c9050807fffffffffffffffffffffffffffffffffffffffffffffffffffffffff7487392755805f7f8be0079c531659141344cd1fd0a4f28419497f9722a3daafe3b4186f6b6457e05f80a35b50565b5f61011d61017e60201b60201c565b9050805460018116156101375763f92ee8a95f526004601cfd5b8160c01c808260011c14610175578060011b8355806020527fc7f505b2f371ae2175ee4913f4499e1f2633a7b5936321eed1cdaeb6115181d2602080a15b505050565b5f90565b5f7fffffffffffffffffffffffffffffffffffffffffffffffffffffffffbf6011325f1b905090565b612ec7806101b45f395ff3fe608060405260043610610184575f3560e01c80638da5cb5b116100d0578063f23a6e6111610089578063f9a802c311610063578063f9a802c314610587578063fa4ca9b1146105c3578063fe9fbb80146105ff578063fee81cf41461063b5761018b565b8063f23a6e61146104f3578063f2fde38b1461052f578063f8724aba1461054b5761018b565b80638da5cb5b146103bd578063bc197c81146103e7578063c2c59fcf14610423578063d2514e841461045f578063f04e283e1461049b578063f1c30ec0146104b75761018b565b8063451cc1911161013d5780635aef467a116101175780635aef467a1461030b57806361400c991461033b578063715018a614610377578063774c33ab146103815761018b565b8063451cc1911461028957806354d1f13d146102c5578063578bcf35146102cf5761018b565b806301ffc9a71461018d57806310098ad5146101c9578063256929621461020557806328d6183b1461020f5780634359d28a14610239578063439fab91146102615761018b565b3661018b57005b005b348015610198575f80fd5b506101b360048036038101906101ae9190612049565b610677565b6040516101c0919061208e565b60405180910390f35b3480156101d4575f80fd5b506101ef60048036038101906101ea9190612101565b6107c0565b6040516101fc9190612144565b60405180910390f35b61020d61082b565b005b34801561021a575f80fd5b5061022361087c565b604051610230919061216c565b60405180910390f35b348015610244575f80fd5b5061025f600480360381019061025a919061223b565b6108a3565b005b34801561026c575f80fd5b506102876004803603810190610282919061230e565b6109ad565b005b348015610294575f80fd5b506102af60048036038101906102aa919061230e565b610ad2565b6040516102bc9190612144565b60405180910390f35b6102cd610ad9565b005b3480156102da575f80fd5b506102f560048036038101906102f09190612101565b610b12565b6040516103029190612144565b60405180910390f35b6103256004803603810190610320919061230e565b610b57565b604051610332919061208e565b60405180910390f35b348015610346575f80fd5b50610361600480360381019061035c91906123ae565b610ec7565b60405161036e919061208e565b60405180910390f35b61037f610f2b565b005b34801561038c575f80fd5b506103a760048036038101906103a29190612423565b610f3e565b6040516103b49190612144565b60405180910390f35b3480156103c8575f80fd5b506103d1610f94565b6040516103de9190612470565b60405180910390f35b3480156103f2575f80fd5b5061040d600480360381019061040891906124de565b610fbc565b60405161041a919061216c565b60405180910390f35b34801561042e575f80fd5b506104496004803603810190610444919061230e565b610fd3565b604051610456919061208e565b60405180910390f35b34801561046a575f80fd5b5061048560048036038101906104809190612101565b610fde565b6040516104929190612144565b60405180910390f35b6104b560048036038101906104b09190612101565b611036565b005b3480156104c2575f80fd5b506104dd60048036038101906104d8919061230e565b611074565b6040516104ea919061208e565b60405180910390f35b3480156104fe575f80fd5b50610519600480360381019061051491906125b5565b61125a565b604051610526919061216c565b60405180910390f35b61054960048036038101906105449190612101565b61126f565b005b348015610556575f80fd5b50610571600480360381019061056c9190612423565b611298565b60405161057e9190612144565b60405180910390f35b348015610592575f80fd5b506105ad60048036038101906105a89190612423565b61131a565b6040516105ba9190612144565b60405180910390f35b3480156105ce575f80fd5b506105e960048036038101906105e4919061230e565b6113f3565b6040516105f6919061208e565b60405180910390f35b34801561060a575f80fd5b5061062560048036038101906106209190612101565b61169f565b604051610632919061208e565b60405180910390f35b348015610646575f80fd5b50610661600480360381019061065c9190612101565b61172e565b60405161066e9190612144565b60405180910390f35b5f7febec4e53000000000000000000000000000000000000000000000000000000007bffffffffffffffffffffffffffffffffffffffffffffffffffffffff1916827bffffffffffffffffffffffffffffffffffffffffffffffffffffffff1916148061074157507f4e2312e0000000000000000000000000000000000000000000000000000000007bffffffffffffffffffffffffffffffffffffffffffffffffffffffff1916827bffffffffffffffffffffffffffffffffffffffffffffffffffffffff1916145b806107a957507f01ffc9a7000000000000000000000000000000000000000000000000000000007bffffffffffffffffffffffffffffffffffffffffffffffffffffffff1916827bffffffffffffffffffffffffffffffffffffffffffffffffffffffff1916145b806107b957506107b882611747565b5b9050919050565b5f8073ffffffffffffffffffffffffffffffffffffffff168273ffffffffffffffffffffffffffffffffffffffff16146108225761081d308373ffffffffffffffffffffffffffffffffffffffff166117c090919063ffffffff16565b610824565b475b9050919050565b5f6108346117f3565b67ffffffffffffffff164201905063389a75e1600c52335f52806020600c2055337fdbf36a107da19e49527a7176a1babf963b4b0ff8cde35ee35d6cd8f1f9ac7e1d5f80a250565b5f7febec4e5300000000000000000000000000000000000000000000000000000000905090565b6108ab6117fd565b8181905084849050146108ea576040517fff633a3800000000000000000000000000000000000000000000000000000000815260040160405180910390fd5b5f5b848490508110156109a65782828281811061090a5761090961264b565b5b905060200201602081019061091f91906126a2565b60025f8787858181106109355761093461264b565b5b905060200201602081019061094a9190612101565b73ffffffffffffffffffffffffffffffffffffffff1673ffffffffffffffffffffffffffffffffffffffff1681526020019081526020015f205f6101000a81548160ff02191690831515021790555080806001019150506108ec565b5050505050565b5f6109b6611834565b905080546003825580156109e85760018160011c14303b106109df5763f92ee8a95f526004601cfd5b818160ff1b1b91505b505f83838101906109f99190612886565b9050610a07815f015161185d565b5f5b816020015151811015610a9657600160025f84602001518481518110610a3257610a3161264b565b5b602002602001015173ffffffffffffffffffffffffffffffffffffffff1673ffffffffffffffffffffffffffffffffffffffff1681526020019081526020015f205f6101000a81548160ff0219169083151502179055508080600101915050610a09565b50508015610acd576002815560016020527fc7f505b2f371ae2175ee4913f4499e1f2633a7b5936321eed1cdaeb6115181d2602080a15b505050565b5f92915050565b63389a75e1600c52335f525f6020600c2055337ffa7b8eab7da67f412cc9575ed43464468f9bfbae89d1675917346ca6d8fe3c925f80a2565b5f805f8373ffffffffffffffffffffffffffffffffffffffff1673ffffffffffffffffffffffffffffffffffffffff1681526020019081526020015f20549050919050565b5f808383810190610b689190612a31565b90505f6002811115610b7d57610b7c612a78565b5b815f01516002811115610b9357610b92612a78565b5b03610c09575f8160600151806020019051810190610bb19190612af2565b9050805f01513414610c03578160200151815f01516040517fcece04c5000000000000000000000000000000000000000000000000000000008152600401610bfa929190612b1d565b60405180910390fd5b50610ebb565b60016002811115610c1d57610c1c612a78565b5b815f01516002811115610c3357610c32612a78565b5b03610d0e575f8160600151806020019051810190610c519190612af2565b9050610c8b826040015130835f0151856020015173ffffffffffffffffffffffffffffffffffffffff16611933909392919063ffffffff16565b805f0151610cbc30846020015173ffffffffffffffffffffffffffffffffffffffff166117c090919063ffffffff16565b1015610d08578160200151815f01516040517fcece04c5000000000000000000000000000000000000000000000000000000008152600401610cff929190612b1d565b60405180910390fd5b50610eba565b600280811115610d2157610d20612a78565b5b815f01516002811115610d3757610d36612a78565b5b03610eb0575f8160600151806020019051810190610d559190612c3d565b9050816020015173ffffffffffffffffffffffffffffffffffffffff1663f242432a836040015130845f0151856020015186604001516040518663ffffffff1660e01b8152600401610dab959493929190612cd6565b5f604051808303815f87803b158015610dc2575f80fd5b505af1158015610dd4573d5f803e3d5ffd5b505050508060200151826020015173ffffffffffffffffffffffffffffffffffffffff1662fdd58e30845f01516040518363ffffffff1660e01b8152600401610e1e929190612b1d565b602060405180830381865afa158015610e39573d5f803e3d5ffd5b505050506040513d601f19601f82011682018060405250810190610e5d9190612d2e565b1015610eaa57816020015181602001516040517fcece04c5000000000000000000000000000000000000000000000000000000008152600401610ea1929190612b1d565b60405180910390fd5b50610eb9565b5f915050610ec1565b5b5b60019150505b92915050565b5f805f90505b83839050811015610f1f57610f05848483818110610eee57610eed61264b565b5b9050602002810190610f009190612d65565b6113f3565b610f12575f915050610f25565b8080600101915050610ecd565b50600190505b92915050565b610f336117fd565b610f3c5f61198d565b565b5f60015f8473ffffffffffffffffffffffffffffffffffffffff1673ffffffffffffffffffffffffffffffffffffffff1681526020019081526020015f205f8381526020019081526020015f2054905092915050565b5f7fffffffffffffffffffffffffffffffffffffffffffffffffffffffff7487392754905090565b5f63bc197c8160e01b905098975050505050505050565b5f6001905092915050565b5f805f8373ffffffffffffffffffffffffffffffffffffffff1673ffffffffffffffffffffffffffffffffffffffff1681526020019081526020015f2054611025836107c0565b61102f9190612df4565b9050919050565b61103e6117fd565b63389a75e1600c52805f526020600c20805442111561106457636f5e88185f526004601cfd5b5f8155506110718161198d565b50565b5f61107d6117fd565b5f838381019061108d9190612a31565b90505f60028111156110a2576110a1612a78565b5b815f015160028111156110b8576110b7612a78565b5b14806110eb5750600160028111156110d3576110d2612a78565b5b815f015160028111156110e9576110e8612a78565b5b145b15611144575f81606001518060200190518101906111099190612af2565b905061113e826020015183604001515f845f01511461112b57835f0151611139565b61113885602001516107c0565b5b611a53565b5061124e565b60028081111561115757611156612a78565b5b815f0151600281111561116d5761116c612a78565b5b03611244575f816060015180602001905181019061118b9190612c3d565b905061123e82602001518360400151835f01515f8560200151146111b3578460200151611234565b856020015173ffffffffffffffffffffffffffffffffffffffff1662fdd58e30875f01516040518363ffffffff1660e01b81526004016111f4929190612b1d565b602060405180830381865afa15801561120f573d5f803e3d5ffd5b505050506040513d601f19601f820116820180604052508101906112339190612d2e565b5b8560400151611c6b565b5061124d565b5f915050611254565b5b60019150505b92915050565b5f63f23a6e6160e01b90509695505050505050565b6112776117fd565b8060601b61128c57637448fbae5f526004601cfd5b6112958161198d565b50565b5f8273ffffffffffffffffffffffffffffffffffffffff1662fdd58e30846040518363ffffffff1660e01b81526004016112d3929190612b1d565b602060405180830381865afa1580156112ee573d5f803e3d5ffd5b505050506040513d601f19601f820116820180604052508101906113129190612d2e565b905092915050565b5f60015f8473ffffffffffffffffffffffffffffffffffffffff1673ffffffffffffffffffffffffffffffffffffffff1681526020019081526020015f205f8381526020019081526020015f20548373ffffffffffffffffffffffffffffffffffffffff1662fdd58e30856040518363ffffffff1660e01b81526004016113a2929190612b1d565b602060405180830381865afa1580156113bd573d5f803e3d5ffd5b505050506040513d601f19601f820116820180604052508101906113e19190612d2e565b6113eb9190612df4565b905092915050565b5f6113fd3361169f565b611433576040517f82b4290000000000000000000000000000000000000000000000000000000000815260040160405180910390fd5b5f83838101906114439190612a31565b90506001600281111561145957611458612a78565b5b815f0151600281111561146f5761146e612a78565b5b14806114a157505f600281111561148957611488612a78565b5b815f0151600281111561149f5761149e612a78565b5b145b15611541575f81606001518060200190518101906114bf9190612af2565b90505f6114cf83602001516107c0565b905080825f0151111561152457826020015181835f01516040517f5c54305e00000000000000000000000000000000000000000000000000000000815260040161151b93929190612e27565b60405180910390fd5b61153a83602001518460400151845f0151611a53565b5050611693565b60028081111561155457611553612a78565b5b815f0151600281111561156a57611569612a78565b5b03611689575f81606001518060200190518101906115889190612c3d565b90505f826020015173ffffffffffffffffffffffffffffffffffffffff1662fdd58e30845f01516040518363ffffffff1660e01b81526004016115cc929190612b1d565b602060405180830381865afa1580156115e7573d5f803e3d5ffd5b505050506040513d601f19601f8201168201806040525081019061160b9190612d2e565b905080826020015111156116625782602001518183602001516040517f5c54305e00000000000000000000000000000000000000000000000000000000815260040161165993929190612e27565b60405180910390fd5b61168283602001518460400151845f015185602001518660400151611c6b565b5050611692565b5f915050611699565b5b60019150505b92915050565b5f60025f8373ffffffffffffffffffffffffffffffffffffffff1673ffffffffffffffffffffffffffffffffffffffff1681526020019081526020015f205f9054906101000a900460ff168061172757506116f8610f94565b73ffffffffffffffffffffffffffffffffffffffff168273ffffffffffffffffffffffffffffffffffffffff16145b9050919050565b5f63389a75e1600c52815f526020600c20549050919050565b5f7f74009ff1000000000000000000000000000000000000000000000000000000007bffffffffffffffffffffffffffffffffffffffffffffffffffffffff1916827bffffffffffffffffffffffffffffffffffffffffffffffffffffffff191614806117b957506117b882611e97565b5b9050919050565b5f816014526f70a082310000000000000000000000005f5260208060246010865afa601f3d111660205102905092915050565b5f6202a300905090565b7fffffffffffffffffffffffffffffffffffffffffffffffffffffffff74873927543314611832576382b429005f526004601cfd5b565b5f7fffffffffffffffffffffffffffffffffffffffffffffffffffffffffbf6011325f1b905090565b611865611f10565b156118dd577fffffffffffffffffffffffffffffffffffffffffffffffffffffffff7487392780541561189f57630dc149f05f526004601cfd5b8160601b60601c9150811560ff1b82178155815f7f8be0079c531659141344cd1fd0a4f28419497f9722a3daafe3b4186f6b6457e05f80a350611930565b8060601b60601c9050807fffffffffffffffffffffffffffffffffffffffffffffffffffffffff7487392755805f7f8be0079c531659141344cd1fd0a4f28419497f9722a3daafe3b4186f6b6457e05f80a35b50565b60405181606052826040528360601b602c526f23b872dd000000000000000000000000600c5260205f6064601c5f895af13d1560015f5114171661197e57637939f4245f526004601cfd5b5f606052806040525050505050565b611995611f10565b156119fa577fffffffffffffffffffffffffffffffffffffffffffffffffffffffff748739278160601b60601c91508181547f8be0079c531659141344cd1fd0a4f28419497f9722a3daafe3b4186f6b6457e05f80a3811560ff1b8217815550611a50565b7fffffffffffffffffffffffffffffffffffffffffffffffffffffffff748739278160601b60601c91508181547f8be0079c531659141344cd1fd0a4f28419497f9722a3daafe3b4186f6b6457e05f80a3818155505b50565b3068929eee149b4bd212685403611a715763ab143c065f526004601cfd5b3068929eee149b4bd21268555f73ffffffffffffffffffffffffffffffffffffffff168273ffffffffffffffffffffffffffffffffffffffff1603611af1578282826040517fbf182be8000000000000000000000000000000000000000000000000000000008152600401611ae893929190612e5c565b60405180910390fd5b611afa836107c0565b811115611b4a5782611b0b846107c0565b826040517f5c54305e000000000000000000000000000000000000000000000000000000008152600401611b4193929190612e27565b60405180910390fd5b805f808573ffffffffffffffffffffffffffffffffffffffff1673ffffffffffffffffffffffffffffffffffffffff1681526020019081526020015f205f828254611b959190612df4565b925050819055505f73ffffffffffffffffffffffffffffffffffffffff168373ffffffffffffffffffffffffffffffffffffffff1603611bde57611bd98282611f14565b611c0a565b611c0982828573ffffffffffffffffffffffffffffffffffffffff16611f319092919063ffffffff16565b5b8273ffffffffffffffffffffffffffffffffffffffff167fad4a9acf26d8bba7a8cf1a41160d59be042ee554578e256c98d2ab74cdd435428383604051611c52929190612b1d565b60405180910390a23868929eee149b4bd2126855505050565b3068929eee149b4bd212685403611c895763ab143c065f526004601cfd5b3068929eee149b4bd21268555f73ffffffffffffffffffffffffffffffffffffffff168473ffffffffffffffffffffffffffffffffffffffff1603611d09578484836040517fbf182be8000000000000000000000000000000000000000000000000000000008152600401611d0093929190612e5c565b60405180910390fd5b611d138584611298565b821115611d645784611d258685611298565b836040517f5c54305e000000000000000000000000000000000000000000000000000000008152600401611d5b93929190612e27565b60405180910390fd5b8160015f8773ffffffffffffffffffffffffffffffffffffffff1673ffffffffffffffffffffffffffffffffffffffff1681526020019081526020015f205f8581526020019081526020015f205f828254611dbf9190612df4565b925050819055508473ffffffffffffffffffffffffffffffffffffffff1663f242432a30868686866040518663ffffffff1660e01b8152600401611e07959493929190612cd6565b5f604051808303815f87803b158015611e1e575f80fd5b505af1158015611e30573d5f803e3d5ffd5b505050508473ffffffffffffffffffffffffffffffffffffffff167fad4a9acf26d8bba7a8cf1a41160d59be042ee554578e256c98d2ab74cdd435428584604051611e7c929190612b1d565b60405180910390a23868929eee149b4bd21268555050505050565b5f7f6ab67a0d000000000000000000000000000000000000000000000000000000007bffffffffffffffffffffffffffffffffffffffffffffffffffffffff1916827bffffffffffffffffffffffffffffffffffffffffffffffffffffffff19161480611f095750611f0882611f7a565b5b9050919050565b5f90565b5f385f3884865af1611f2d5763b12d13eb5f526004601cfd5b5050565b81601452806034526fa9059cbb0000000000000000000000005f5260205f604460105f875af13d1560015f51141716611f71576390b8ec185f526004601cfd5b5f603452505050565b5f7f01ffc9a7000000000000000000000000000000000000000000000000000000007bffffffffffffffffffffffffffffffffffffffffffffffffffffffff1916827bffffffffffffffffffffffffffffffffffffffffffffffffffffffff1916149050919050565b5f604051905090565b5f80fd5b5f80fd5b5f7fffffffff0000000000000000000000000000000000000000000000000000000082169050919050565b61202881611ff4565b8114612032575f80fd5b50565b5f813590506120438161201f565b92915050565b5f6020828403121561205e5761205d611fec565b5b5f61206b84828501612035565b91505092915050565b5f8115159050919050565b61208881612074565b82525050565b5f6020820190506120a15f83018461207f565b92915050565b5f73ffffffffffffffffffffffffffffffffffffffff82169050919050565b5f6120d0826120a7565b9050919050565b6120e0816120c6565b81146120ea575f80fd5b50565b5f813590506120fb816120d7565b92915050565b5f6020828403121561211657612115611fec565b5b5f612123848285016120ed565b91505092915050565b5f819050919050565b61213e8161212c565b82525050565b5f6020820190506121575f830184612135565b92915050565b61216681611ff4565b82525050565b5f60208201905061217f5f83018461215d565b92915050565b5f80fd5b5f80fd5b5f80fd5b5f8083601f8401126121a6576121a5612185565b5b8235905067ffffffffffffffff8111156121c3576121c2612189565b5b6020830191508360208202830111156121df576121de61218d565b5b9250929050565b5f8083601f8401126121fb576121fa612185565b5b8235905067ffffffffffffffff81111561221857612217612189565b5b6020830191508360208202830111156122345761223361218d565b5b9250929050565b5f805f806040858703121561225357612252611fec565b5b5f85013567ffffffffffffffff8111156122705761226f611ff0565b5b61227c87828801612191565b9450945050602085013567ffffffffffffffff81111561229f5761229e611ff0565b5b6122ab878288016121e6565b925092505092959194509250565b5f8083601f8401126122ce576122cd612185565b5b8235905067ffffffffffffffff8111156122eb576122ea612189565b5b6020830191508360018202830111156123075761230661218d565b5b9250929050565b5f806020838503121561232457612323611fec565b5b5f83013567ffffffffffffffff81111561234157612340611ff0565b5b61234d858286016122b9565b92509250509250929050565b5f8083601f84011261236e5761236d612185565b5b8235905067ffffffffffffffff81111561238b5761238a612189565b5b6020830191508360208202830111156123a7576123a661218d565b5b9250929050565b5f80602083850312156123c4576123c3611fec565b5b5f83013567ffffffffffffffff8111156123e1576123e0611ff0565b5b6123ed85828601612359565b92509250509250929050565b6124028161212c565b811461240c575f80fd5b50565b5f8135905061241d816123f9565b92915050565b5f806040838503121561243957612438611fec565b5b5f612446858286016120ed565b92505060206124578582860161240f565b9150509250929050565b61246a816120c6565b82525050565b5f6020820190506124835f830184612461565b92915050565b5f8083601f84011261249e5761249d612185565b5b8235905067ffffffffffffffff8111156124bb576124ba612189565b5b6020830191508360208202830111156124d7576124d661218d565b5b9250929050565b5f805f805f805f8060a0898b0312156124fa576124f9611fec565b5b5f6125078b828c016120ed565b98505060206125188b828c016120ed565b975050604089013567ffffffffffffffff81111561253957612538611ff0565b5b6125458b828c01612489565b9650965050606089013567ffffffffffffffff81111561256857612567611ff0565b5b6125748b828c01612489565b9450945050608089013567ffffffffffffffff81111561259757612596611ff0565b5b6125a38b828c016122b9565b92509250509295985092959890939650565b5f805f805f8060a087890312156125cf576125ce611fec565b5b5f6125dc89828a016120ed565b96505060206125ed89828a016120ed565b95505060406125fe89828a0161240f565b945050606061260f89828a0161240f565b935050608087013567ffffffffffffffff8111156126305761262f611ff0565b5b61263c89828a016122b9565b92509250509295509295509295565b7f4e487b71000000000000000000000000000000000000000000000000000000005f52603260045260245ffd5b61268181612074565b811461268b575f80fd5b50565b5f8135905061269c81612678565b92915050565b5f602082840312156126b7576126b6611fec565b5b5f6126c48482850161268e565b91505092915050565b5f80fd5b5f601f19601f8301169050919050565b7f4e487b71000000000000000000000000000000000000000000000000000000005f52604160045260245ffd5b612717826126d1565b810181811067ffffffffffffffff82111715612736576127356126e1565b5b80604052505050565b5f612748611fe3565b9050612754828261270e565b919050565b5f80fd5b5f67ffffffffffffffff821115612777576127766126e1565b5b602082029050602081019050919050565b5f61279a6127958461275d565b61273f565b905080838252602082019050602084028301858111156127bd576127bc61218d565b5b835b818110156127e657806127d288826120ed565b8452602084019350506020810190506127bf565b5050509392505050565b5f82601f83011261280457612803612185565b5b8135612814848260208601612788565b91505092915050565b5f60408284031215612832576128316126cd565b5b61283c604061273f565b90505f61284b848285016120ed565b5f83015250602082013567ffffffffffffffff81111561286e5761286d612759565b5b61287a848285016127f0565b60208301525092915050565b5f6020828403121561289b5761289a611fec565b5b5f82013567ffffffffffffffff8111156128b8576128b7611ff0565b5b6128c48482850161281d565b91505092915050565b600381106128d9575f80fd5b50565b5f813590506128ea816128cd565b92915050565b5f80fd5b5f67ffffffffffffffff82111561290e5761290d6126e1565b5b612917826126d1565b9050602081019050919050565b828183375f83830152505050565b5f61294461293f846128f4565b61273f565b9050828152602081018484840111156129605761295f6128f0565b5b61296b848285612924565b509392505050565b5f82601f83011261298757612986612185565b5b8135612997848260208601612932565b91505092915050565b5f608082840312156129b5576129b46126cd565b5b6129bf608061273f565b90505f6129ce848285016128dc565b5f8301525060206129e1848285016120ed565b60208301525060406129f5848285016120ed565b604083015250606082013567ffffffffffffffff811115612a1957612a18612759565b5b612a2584828501612973565b60608301525092915050565b5f60208284031215612a4657612a45611fec565b5b5f82013567ffffffffffffffff811115612a6357612a62611ff0565b5b612a6f848285016129a0565b91505092915050565b7f4e487b71000000000000000000000000000000000000000000000000000000005f52602160045260245ffd5b5f81519050612ab3816123f9565b92915050565b5f60208284031215612ace57612acd6126cd565b5b612ad8602061273f565b90505f612ae784828501612aa5565b5f8301525092915050565b5f60208284031215612b0757612b06611fec565b5b5f612b1484828501612ab9565b91505092915050565b5f604082019050612b305f830185612461565b612b3d6020830184612135565b9392505050565b8281835e5f83830152505050565b5f612b64612b5f846128f4565b61273f565b905082815260208101848484011115612b8057612b7f6128f0565b5b612b8b848285612b44565b509392505050565b5f82601f830112612ba757612ba6612185565b5b8151612bb7848260208601612b52565b91505092915050565b5f60608284031215612bd557612bd46126cd565b5b612bdf606061273f565b90505f612bee84828501612aa5565b5f830152506020612c0184828501612aa5565b602083015250604082015167ffffffffffffffff811115612c2557612c24612759565b5b612c3184828501612b93565b60408301525092915050565b5f60208284031215612c5257612c51611fec565b5b5f82015167ffffffffffffffff811115612c6f57612c6e611ff0565b5b612c7b84828501612bc0565b91505092915050565b5f81519050919050565b5f82825260208201905092915050565b5f612ca882612c84565b612cb28185612c8e565b9350612cc2818560208601612b44565b612ccb816126d1565b840191505092915050565b5f60a082019050612ce95f830188612461565b612cf66020830187612461565b612d036040830186612135565b612d106060830185612135565b8181036080830152612d228184612c9e565b90509695505050505050565b5f60208284031215612d4357612d42611fec565b5b5f612d5084828501612aa5565b91505092915050565b5f80fd5b5f80fd5b5f80fd5b5f8083356001602003843603038112612d8157612d80612d59565b5b80840192508235915067ffffffffffffffff821115612da357612da2612d5d565b5b602083019250600182023603831315612dbf57612dbe612d61565b5b509250929050565b7f4e487b71000000000000000000000000000000000000000000000000000000005f52601160045260245ffd5b5f612dfe8261212c565b9150612e098361212c565b9250828201905080821115612e2157612e20612dc7565b5b92915050565b5f606082019050612e3a5f830186612461565b612e476020830185612135565b612e546040830184612135565b949350505050565b5f606082019050612e6f5f830186612461565b612e7c6020830185612461565b612e896040830184612135565b94935050505056fea264697066735822122028ee3cd0c1781706a1b1046304375eeea289a94de241a97520e4044206666d8764736f6c63430008190033","opcodes":"PUSH1 0x80 PUSH1 0x40 MSTORE CALLVALUE DUP1 ISZERO PUSH2 0xF JUMPI PUSH0 DUP1 REVERT JUMPDEST POP PUSH2 0x1F CALLER PUSH2 0x32 PUSH1 0x20 SHL PUSH1 0x20 SHR JUMP JUMPDEST PUSH2 0x2D PUSH2 0x10E PUSH1 0x20 SHL PUSH1 0x20 SHR JUMP JUMPDEST PUSH2 0x1A7 JUMP JUMPDEST PUSH2 0x40 PUSH2 0x17A PUSH1 0x20 SHL PUSH1 0x20 SHR JUMP JUMPDEST ISZERO PUSH2 0xB8 JUMPI PUSH32 0xFFFFFFFFFFFFFFFFFFFFFFFFFFFFFFFFFFFFFFFFFFFFFFFFFFFFFFFF74873927 DUP1 SLOAD ISZERO PUSH2 0x7A JUMPI PUSH4 0xDC149F0 PUSH0 MSTORE PUSH1 0x4 PUSH1 0x1C REVERT JUMPDEST DUP2 PUSH1 0x60 SHL PUSH1 0x60 SHR SWAP2 POP DUP2 ISZERO PUSH1 0xFF SHL DUP3 OR DUP2 SSTORE DUP2 PUSH0 PUSH32 0x8BE0079C531659141344CD1FD0A4F28419497F9722A3DAAFE3B4186F6B6457E0 PUSH0 DUP1 LOG3 POP PUSH2 0x10B JUMP JUMPDEST DUP1 PUSH1 0x60 SHL PUSH1 0x60 SHR SWAP1 POP DUP1 PUSH32 0xFFFFFFFFFFFFFFFFFFFFFFFFFFFFFFFFFFFFFFFFFFFFFFFFFFFFFFFF74873927 SSTORE DUP1 PUSH0 PUSH32 0x8BE0079C531659141344CD1FD0A4F28419497F9722A3DAAFE3B4186F6B6457E0 PUSH0 DUP1 LOG3 JUMPDEST POP JUMP JUMPDEST PUSH0 PUSH2 0x11D PUSH2 0x17E PUSH1 0x20 SHL PUSH1 0x20 SHR JUMP JUMPDEST SWAP1 POP DUP1 SLOAD PUSH1 0x1 DUP2 AND ISZERO PUSH2 0x137 JUMPI PUSH4 0xF92EE8A9 PUSH0 MSTORE PUSH1 0x4 PUSH1 0x1C REVERT JUMPDEST DUP2 PUSH1 0xC0 SHR DUP1 DUP3 PUSH1 0x1 SHR EQ PUSH2 0x175 JUMPI DUP1 PUSH1 0x1 SHL DUP4 SSTORE DUP1 PUSH1 0x20 MSTORE PUSH32 0xC7F505B2F371AE2175EE4913F4499E1F2633A7B5936321EED1CDAEB6115181D2 PUSH1 0x20 DUP1 LOG1 JUMPDEST POP POP POP JUMP JUMPDEST PUSH0 SWAP1 JUMP JUMPDEST PUSH0 PUSH32 0xFFFFFFFFFFFFFFFFFFFFFFFFFFFFFFFFFFFFFFFFFFFFFFFFFFFFFFFFBF601132 PUSH0 SHL SWAP1 POP SWAP1 JUMP JUMPDEST PUSH2 0x2EC7 DUP1 PUSH2 0x1B4 PUSH0 CODECOPY PUSH0 RETURN INVALID PUSH1 0x80 PUSH1 0x40 MSTORE PUSH1 0x4 CALLDATASIZE LT PUSH2 0x184 JUMPI PUSH0 CALLDATALOAD PUSH1 0xE0 SHR DUP1 PUSH4 0x8DA5CB5B GT PUSH2 0xD0 JUMPI DUP1 PUSH4 0xF23A6E61 GT PUSH2 0x89 JUMPI DUP1 PUSH4 0xF9A802C3 GT PUSH2 0x63 JUMPI DUP1 PUSH4 0xF9A802C3 EQ PUSH2 0x587 JUMPI DUP1 PUSH4 0xFA4CA9B1 EQ PUSH2 0x5C3 JUMPI DUP1 PUSH4 0xFE9FBB80 EQ PUSH2 0x5FF JUMPI DUP1 PUSH4 0xFEE81CF4 EQ PUSH2 0x63B JUMPI PUSH2 0x18B JUMP JUMPDEST DUP1 PUSH4 0xF23A6E61 EQ PUSH2 0x4F3 JUMPI DUP1 PUSH4 0xF2FDE38B EQ PUSH2 0x52F JUMPI DUP1 PUSH4 0xF8724ABA EQ PUSH2 0x54B JUMPI PUSH2 0x18B JUMP JUMPDEST DUP1 PUSH4 0x8DA5CB5B EQ PUSH2 0x3BD JUMPI DUP1 PUSH4 0xBC197C81 EQ PUSH2 0x3E7 JUMPI DUP1 PUSH4 0xC2C59FCF EQ PUSH2 0x423 JUMPI DUP1 PUSH4 0xD2514E84 EQ PUSH2 0x45F JUMPI DUP1 PUSH4 0xF04E283E EQ PUSH2 0x49B JUMPI DUP1 PUSH4 0xF1C30EC0 EQ PUSH2 0x4B7 JUMPI PUSH2 0x18B JUMP JUMPDEST DUP1 PUSH4 0x451CC191 GT PUSH2 0x13D JUMPI DUP1 PUSH4 0x5AEF467A GT PUSH2 0x117 JUMPI DUP1 PUSH4 0x5AEF467A EQ PUSH2 0x30B JUMPI DUP1 PUSH4 0x61400C99 EQ PUSH2 0x33B JUMPI DUP1 PUSH4 0x715018A6 EQ PUSH2 0x377 JUMPI DUP1 PUSH4 0x774C33AB EQ PUSH2 0x381 JUMPI PUSH2 0x18B JUMP JUMPDEST DUP1 PUSH4 0x451CC191 EQ PUSH2 0x289 JUMPI DUP1 PUSH4 0x54D1F13D EQ PUSH2 0x2C5 JUMPI DUP1 PUSH4 0x578BCF35 EQ PUSH2 0x2CF JUMPI PUSH2 0x18B JUMP JUMPDEST DUP1 PUSH4 0x1FFC9A7 EQ PUSH2 0x18D JUMPI DUP1 PUSH4 0x10098AD5 EQ PUSH2 0x1C9 JUMPI DUP1 PUSH4 0x25692962 EQ PUSH2 0x205 JUMPI DUP1 PUSH4 0x28D6183B EQ PUSH2 0x20F JUMPI DUP1 PUSH4 0x4359D28A EQ PUSH2 0x239 JUMPI DUP1 PUSH4 0x439FAB91 EQ PUSH2 0x261 JUMPI PUSH2 0x18B JUMP JUMPDEST CALLDATASIZE PUSH2 0x18B JUMPI STOP JUMPDEST STOP JUMPDEST CALLVALUE DUP1 ISZERO PUSH2 0x198 JUMPI PUSH0 DUP1 REVERT JUMPDEST POP PUSH2 0x1B3 PUSH1 0x4 DUP1 CALLDATASIZE SUB DUP2 ADD SWAP1 PUSH2 0x1AE SWAP2 SWAP1 PUSH2 0x2049 JUMP JUMPDEST PUSH2 0x677 JUMP JUMPDEST PUSH1 0x40 MLOAD PUSH2 0x1C0 SWAP2 SWAP1 PUSH2 0x208E JUMP JUMPDEST PUSH1 0x40 MLOAD DUP1 SWAP2 SUB SWAP1 RETURN JUMPDEST CALLVALUE DUP1 ISZERO PUSH2 0x1D4 JUMPI PUSH0 DUP1 REVERT JUMPDEST POP PUSH2 0x1EF PUSH1 0x4 DUP1 CALLDATASIZE SUB DUP2 ADD SWAP1 PUSH2 0x1EA SWAP2 SWAP1 PUSH2 0x2101 JUMP JUMPDEST PUSH2 0x7C0 JUMP JUMPDEST PUSH1 0x40 MLOAD PUSH2 0x1FC SWAP2 SWAP1 PUSH2 0x2144 JUMP JUMPDEST PUSH1 0x40 MLOAD DUP1 SWAP2 SUB SWAP1 RETURN JUMPDEST PUSH2 0x20D PUSH2 0x82B JUMP JUMPDEST STOP JUMPDEST CALLVALUE DUP1 ISZERO PUSH2 0x21A JUMPI PUSH0 DUP1 REVERT JUMPDEST POP PUSH2 0x223 PUSH2 0x87C JUMP JUMPDEST PUSH1 0x40 MLOAD PUSH2 0x230 SWAP2 SWAP1 PUSH2 0x216C JUMP JUMPDEST PUSH1 0x40 MLOAD DUP1 SWAP2 SUB SWAP1 RETURN JUMPDEST CALLVALUE DUP1 ISZERO PUSH2 0x244 JUMPI PUSH0 DUP1 REVERT JUMPDEST POP PUSH2 0x25F PUSH1 0x4 DUP1 CALLDATASIZE SUB DUP2 ADD SWAP1 PUSH2 0x25A SWAP2 SWAP1 PUSH2 0x223B JUMP JUMPDEST PUSH2 0x8A3 JUMP JUMPDEST STOP JUMPDEST CALLVALUE DUP1 ISZERO PUSH2 0x26C JUMPI PUSH0 DUP1 REVERT JUMPDEST POP PUSH2 0x287 PUSH1 0x4 DUP1 CALLDATASIZE SUB DUP2 ADD SWAP1 PUSH2 0x282 SWAP2 SWAP1 PUSH2 0x230E JUMP JUMPDEST PUSH2 0x9AD JUMP JUMPDEST STOP JUMPDEST CALLVALUE DUP1 ISZERO PUSH2 0x294 JUMPI PUSH0 DUP1 REVERT JUMPDEST POP PUSH2 0x2AF PUSH1 0x4 DUP1 CALLDATASIZE SUB DUP2 ADD SWAP1 PUSH2 0x2AA SWAP2 SWAP1 PUSH2 0x230E JUMP JUMPDEST PUSH2 0xAD2 JUMP JUMPDEST PUSH1 0x40 MLOAD PUSH2 0x2BC SWAP2 SWAP1 PUSH2 0x2144 JUMP JUMPDEST PUSH1 0x40 MLOAD DUP1 SWAP2 SUB SWAP1 RETURN JUMPDEST PUSH2 0x2CD PUSH2 0xAD9 JUMP JUMPDEST STOP JUMPDEST CALLVALUE DUP1 ISZERO PUSH2 0x2DA JUMPI PUSH0 DUP1 REVERT JUMPDEST POP PUSH2 0x2F5 PUSH1 0x4 DUP1 CALLDATASIZE SUB DUP2 ADD SWAP1 PUSH2 0x2F0 SWAP2 SWAP1 PUSH2 0x2101 JUMP JUMPDEST PUSH2 0xB12 JUMP JUMPDEST PUSH1 0x40 MLOAD PUSH2 0x302 SWAP2 SWAP1 PUSH2 0x2144 JUMP JUMPDEST PUSH1 0x40 MLOAD DUP1 SWAP2 SUB SWAP1 RETURN JUMPDEST PUSH2 0x325 PUSH1 0x4 DUP1 CALLDATASIZE SUB DUP2 ADD SWAP1 PUSH2 0x320 SWAP2 SWAP1 PUSH2 0x230E JUMP JUMPDEST PUSH2 0xB57 JUMP JUMPDEST PUSH1 0x40 MLOAD PUSH2 0x332 SWAP2 SWAP1 PUSH2 0x208E JUMP JUMPDEST PUSH1 0x40 MLOAD DUP1 SWAP2 SUB SWAP1 RETURN JUMPDEST CALLVALUE DUP1 ISZERO PUSH2 0x346 JUMPI PUSH0 DUP1 REVERT JUMPDEST POP PUSH2 0x361 PUSH1 0x4 DUP1 CALLDATASIZE SUB DUP2 ADD SWAP1 PUSH2 0x35C SWAP2 SWAP1 PUSH2 0x23AE JUMP JUMPDEST PUSH2 0xEC7 JUMP JUMPDEST PUSH1 0x40 MLOAD PUSH2 0x36E SWAP2 SWAP1 PUSH2 0x208E JUMP JUMPDEST PUSH1 0x40 MLOAD DUP1 SWAP2 SUB SWAP1 RETURN JUMPDEST PUSH2 0x37F PUSH2 0xF2B JUMP JUMPDEST STOP JUMPDEST CALLVALUE DUP1 ISZERO PUSH2 0x38C JUMPI PUSH0 DUP1 REVERT JUMPDEST POP PUSH2 0x3A7 PUSH1 0x4 DUP1 CALLDATASIZE SUB DUP2 ADD SWAP1 PUSH2 0x3A2 SWAP2 SWAP1 PUSH2 0x2423 JUMP JUMPDEST PUSH2 0xF3E JUMP JUMPDEST PUSH1 0x40 MLOAD PUSH2 0x3B4 SWAP2 SWAP1 PUSH2 0x2144 JUMP JUMPDEST PUSH1 0x40 MLOAD DUP1 SWAP2 SUB SWAP1 RETURN JUMPDEST CALLVALUE DUP1 ISZERO PUSH2 0x3C8 JUMPI PUSH0 DUP1 REVERT JUMPDEST POP PUSH2 0x3D1 PUSH2 0xF94 JUMP JUMPDEST PUSH1 0x40 MLOAD PUSH2 0x3DE SWAP2 SWAP1 PUSH2 0x2470 JUMP JUMPDEST PUSH1 0x40 MLOAD DUP1 SWAP2 SUB SWAP1 RETURN JUMPDEST CALLVALUE DUP1 ISZERO PUSH2 0x3F2 JUMPI PUSH0 DUP1 REVERT JUMPDEST POP PUSH2 0x40D PUSH1 0x4 DUP1 CALLDATASIZE SUB DUP2 ADD SWAP1 PUSH2 0x408 SWAP2 SWAP1 PUSH2 0x24DE JUMP JUMPDEST PUSH2 0xFBC JUMP JUMPDEST PUSH1 0x40 MLOAD PUSH2 0x41A SWAP2 SWAP1 PUSH2 0x216C JUMP JUMPDEST PUSH1 0x40 MLOAD DUP1 SWAP2 SUB SWAP1 RETURN JUMPDEST CALLVALUE DUP1 ISZERO PUSH2 0x42E JUMPI PUSH0 DUP1 REVERT JUMPDEST POP PUSH2 0x449 PUSH1 0x4 DUP1 CALLDATASIZE SUB DUP2 ADD SWAP1 PUSH2 0x444 SWAP2 SWAP1 PUSH2 0x230E JUMP JUMPDEST PUSH2 0xFD3 JUMP JUMPDEST PUSH1 0x40 MLOAD PUSH2 0x456 SWAP2 SWAP1 PUSH2 0x208E JUMP JUMPDEST PUSH1 0x40 MLOAD DUP1 SWAP2 SUB SWAP1 RETURN JUMPDEST CALLVALUE DUP1 ISZERO PUSH2 0x46A JUMPI PUSH0 DUP1 REVERT JUMPDEST POP PUSH2 0x485 PUSH1 0x4 DUP1 CALLDATASIZE SUB DUP2 ADD SWAP1 PUSH2 0x480 SWAP2 SWAP1 PUSH2 0x2101 JUMP JUMPDEST PUSH2 0xFDE JUMP JUMPDEST PUSH1 0x40 MLOAD PUSH2 0x492 SWAP2 SWAP1 PUSH2 0x2144 JUMP JUMPDEST PUSH1 0x40 MLOAD DUP1 SWAP2 SUB SWAP1 RETURN JUMPDEST PUSH2 0x4B5 PUSH1 0x4 DUP1 CALLDATASIZE SUB DUP2 ADD SWAP1 PUSH2 0x4B0 SWAP2 SWAP1 PUSH2 0x2101 JUMP JUMPDEST PUSH2 0x1036 JUMP JUMPDEST STOP JUMPDEST CALLVALUE DUP1 ISZERO PUSH2 0x4C2 JUMPI PUSH0 DUP1 REVERT JUMPDEST POP PUSH2 0x4DD PUSH1 0x4 DUP1 CALLDATASIZE SUB DUP2 ADD SWAP1 PUSH2 0x4D8 SWAP2 SWAP1 PUSH2 0x230E JUMP JUMPDEST PUSH2 0x1074 JUMP JUMPDEST PUSH1 0x40 MLOAD PUSH2 0x4EA SWAP2 SWAP1 PUSH2 0x208E JUMP JUMPDEST PUSH1 0x40 MLOAD DUP1 SWAP2 SUB SWAP1 RETURN JUMPDEST CALLVALUE DUP1 ISZERO PUSH2 0x4FE JUMPI PUSH0 DUP1 REVERT JUMPDEST POP PUSH2 0x519 PUSH1 0x4 DUP1 CALLDATASIZE SUB DUP2 ADD SWAP1 PUSH2 0x514 SWAP2 SWAP1 PUSH2 0x25B5 JUMP JUMPDEST PUSH2 0x125A JUMP JUMPDEST PUSH1 0x40 MLOAD PUSH2 0x526 SWAP2 SWAP1 PUSH2 0x216C JUMP JUMPDEST PUSH1 0x40 MLOAD DUP1 SWAP2 SUB SWAP1 RETURN JUMPDEST PUSH2 0x549 PUSH1 0x4 DUP1 CALLDATASIZE SUB DUP2 ADD SWAP1 PUSH2 0x544 SWAP2 SWAP1 PUSH2 0x2101 JUMP JUMPDEST PUSH2 0x126F JUMP JUMPDEST STOP JUMPDEST CALLVALUE DUP1 ISZERO PUSH2 0x556 JUMPI PUSH0 DUP1 REVERT JUMPDEST POP PUSH2 0x571 PUSH1 0x4 DUP1 CALLDATASIZE SUB DUP2 ADD SWAP1 PUSH2 0x56C SWAP2 SWAP1 PUSH2 0x2423 JUMP JUMPDEST PUSH2 0x1298 JUMP JUMPDEST PUSH1 0x40 MLOAD PUSH2 0x57E SWAP2 SWAP1 PUSH2 0x2144 JUMP JUMPDEST PUSH1 0x40 MLOAD DUP1 SWAP2 SUB SWAP1 RETURN JUMPDEST CALLVALUE DUP1 ISZERO PUSH2 0x592 JUMPI PUSH0 DUP1 REVERT JUMPDEST POP PUSH2 0x5AD PUSH1 0x4 DUP1 CALLDATASIZE SUB DUP2 ADD SWAP1 PUSH2 0x5A8 SWAP2 SWAP1 PUSH2 0x2423 JUMP JUMPDEST PUSH2 0x131A JUMP JUMPDEST PUSH1 0x40 MLOAD PUSH2 0x5BA SWAP2 SWAP1 PUSH2 0x2144 JUMP JUMPDEST PUSH1 0x40 MLOAD DUP1 SWAP2 SUB SWAP1 RETURN JUMPDEST CALLVALUE DUP1 ISZERO PUSH2 0x5CE JUMPI PUSH0 DUP1 REVERT JUMPDEST POP PUSH2 0x5E9 PUSH1 0x4 DUP1 CALLDATASIZE SUB DUP2 ADD SWAP1 PUSH2 0x5E4 SWAP2 SWAP1 PUSH2 0x230E JUMP JUMPDEST PUSH2 0x13F3 JUMP JUMPDEST PUSH1 0x40 MLOAD PUSH2 0x5F6 SWAP2 SWAP1 PUSH2 0x208E JUMP JUMPDEST PUSH1 0x40 MLOAD DUP1 SWAP2 SUB SWAP1 RETURN JUMPDEST CALLVALUE DUP1 ISZERO PUSH2 0x60A JUMPI PUSH0 DUP1 REVERT JUMPDEST POP PUSH2 0x625 PUSH1 0x4 DUP1 CALLDATASIZE SUB DUP2 ADD SWAP1 PUSH2 0x620 SWAP2 SWAP1 PUSH2 0x2101 JUMP JUMPDEST PUSH2 0x169F JUMP JUMPDEST PUSH1 0x40 MLOAD PUSH2 0x632 SWAP2 SWAP1 PUSH2 0x208E JUMP JUMPDEST PUSH1 0x40 MLOAD DUP1 SWAP2 SUB SWAP1 RETURN JUMPDEST CALLVALUE DUP1 ISZERO PUSH2 0x646 JUMPI PUSH0 DUP1 REVERT JUMPDEST POP PUSH2 0x661 PUSH1 0x4 DUP1 CALLDATASIZE SUB DUP2 ADD SWAP1 PUSH2 0x65C SWAP2 SWAP1 PUSH2 0x2101 JUMP JUMPDEST PUSH2 0x172E JUMP JUMPDEST PUSH1 0x40 MLOAD PUSH2 0x66E SWAP2 SWAP1 PUSH2 0x2144 JUMP JUMPDEST PUSH1 0x40 MLOAD DUP1 SWAP2 SUB SWAP1 RETURN JUMPDEST PUSH0 PUSH32 0xEBEC4E5300000000000000000000000000000000000000000000000000000000 PUSH28 0xFFFFFFFFFFFFFFFFFFFFFFFFFFFFFFFFFFFFFFFFFFFFFFFFFFFFFFFF NOT AND DUP3 PUSH28 0xFFFFFFFFFFFFFFFFFFFFFFFFFFFFFFFFFFFFFFFFFFFFFFFFFFFFFFFF NOT AND EQ DUP1 PUSH2 0x741 JUMPI POP PUSH32 0x4E2312E000000000000000000000000000000000000000000000000000000000 PUSH28 0xFFFFFFFFFFFFFFFFFFFFFFFFFFFFFFFFFFFFFFFFFFFFFFFFFFFFFFFF NOT AND DUP3 PUSH28 0xFFFFFFFFFFFFFFFFFFFFFFFFFFFFFFFFFFFFFFFFFFFFFFFFFFFFFFFF NOT AND EQ JUMPDEST DUP1 PUSH2 0x7A9 JUMPI POP PUSH32 0x1FFC9A700000000000000000000000000000000000000000000000000000000 PUSH28 0xFFFFFFFFFFFFFFFFFFFFFFFFFFFFFFFFFFFFFFFFFFFFFFFFFFFFFFFF NOT AND DUP3 PUSH28 0xFFFFFFFFFFFFFFFFFFFFFFFFFFFFFFFFFFFFFFFFFFFFFFFFFFFFFFFF NOT AND EQ JUMPDEST DUP1 PUSH2 0x7B9 JUMPI POP PUSH2 0x7B8 DUP3 PUSH2 0x1747 JUMP JUMPDEST JUMPDEST SWAP1 POP SWAP2 SWAP1 POP JUMP JUMPDEST PUSH0 DUP1 PUSH20 0xFFFFFFFFFFFFFFFFFFFFFFFFFFFFFFFFFFFFFFFF AND DUP3 PUSH20 0xFFFFFFFFFFFFFFFFFFFFFFFFFFFFFFFFFFFFFFFF AND EQ PUSH2 0x822 JUMPI PUSH2 0x81D ADDRESS DUP4 PUSH20 0xFFFFFFFFFFFFFFFFFFFFFFFFFFFFFFFFFFFFFFFF AND PUSH2 0x17C0 SWAP1 SWAP2 SWAP1 PUSH4 0xFFFFFFFF AND JUMP JUMPDEST PUSH2 0x824 JUMP JUMPDEST SELFBALANCE JUMPDEST SWAP1 POP SWAP2 SWAP1 POP JUMP JUMPDEST PUSH0 PUSH2 0x834 PUSH2 0x17F3 JUMP JUMPDEST PUSH8 0xFFFFFFFFFFFFFFFF AND TIMESTAMP ADD SWAP1 POP PUSH4 0x389A75E1 PUSH1 0xC MSTORE CALLER PUSH0 MSTORE DUP1 PUSH1 0x20 PUSH1 0xC KECCAK256 SSTORE CALLER PUSH32 0xDBF36A107DA19E49527A7176A1BABF963B4B0FF8CDE35EE35D6CD8F1F9AC7E1D PUSH0 DUP1 LOG2 POP JUMP JUMPDEST PUSH0 PUSH32 0xEBEC4E5300000000000000000000000000000000000000000000000000000000 SWAP1 POP SWAP1 JUMP JUMPDEST PUSH2 0x8AB PUSH2 0x17FD JUMP JUMPDEST DUP2 DUP2 SWAP1 POP DUP5 DUP5 SWAP1 POP EQ PUSH2 0x8EA JUMPI PUSH1 0x40 MLOAD PUSH32 0xFF633A3800000000000000000000000000000000000000000000000000000000 DUP2 MSTORE PUSH1 0x4 ADD PUSH1 0x40 MLOAD DUP1 SWAP2 SUB SWAP1 REVERT JUMPDEST PUSH0 JUMPDEST DUP5 DUP5 SWAP1 POP DUP2 LT ISZERO PUSH2 0x9A6 JUMPI DUP3 DUP3 DUP3 DUP2 DUP2 LT PUSH2 0x90A JUMPI PUSH2 0x909 PUSH2 0x264B JUMP JUMPDEST JUMPDEST SWAP1 POP PUSH1 0x20 MUL ADD PUSH1 0x20 DUP2 ADD SWAP1 PUSH2 0x91F SWAP2 SWAP1 PUSH2 0x26A2 JUMP JUMPDEST PUSH1 0x2 PUSH0 DUP8 DUP8 DUP6 DUP2 DUP2 LT PUSH2 0x935 JUMPI PUSH2 0x934 PUSH2 0x264B JUMP JUMPDEST JUMPDEST SWAP1 POP PUSH1 0x20 MUL ADD PUSH1 0x20 DUP2 ADD SWAP1 PUSH2 0x94A SWAP2 SWAP1 PUSH2 0x2101 JUMP JUMPDEST PUSH20 0xFFFFFFFFFFFFFFFFFFFFFFFFFFFFFFFFFFFFFFFF AND PUSH20 0xFFFFFFFFFFFFFFFFFFFFFFFFFFFFFFFFFFFFFFFF AND DUP2 MSTORE PUSH1 0x20 ADD SWAP1 DUP2 MSTORE PUSH1 0x20 ADD PUSH0 KECCAK256 PUSH0 PUSH2 0x100 EXP DUP2 SLOAD DUP2 PUSH1 0xFF MUL NOT AND SWAP1 DUP4 ISZERO ISZERO MUL OR SWAP1 SSTORE POP DUP1 DUP1 PUSH1 0x1 ADD SWAP2 POP POP PUSH2 0x8EC JUMP JUMPDEST POP POP POP POP POP JUMP JUMPDEST PUSH0 PUSH2 0x9B6 PUSH2 0x1834 JUMP JUMPDEST SWAP1 POP DUP1 SLOAD PUSH1 0x3 DUP3 SSTORE DUP1 ISZERO PUSH2 0x9E8 JUMPI PUSH1 0x1 DUP2 PUSH1 0x1 SHR EQ ADDRESS EXTCODESIZE LT PUSH2 0x9DF JUMPI PUSH4 0xF92EE8A9 PUSH0 MSTORE PUSH1 0x4 PUSH1 0x1C REVERT JUMPDEST DUP2 DUP2 PUSH1 0xFF SHL SHL SWAP2 POP JUMPDEST POP PUSH0 DUP4 DUP4 DUP2 ADD SWAP1 PUSH2 0x9F9 SWAP2 SWAP1 PUSH2 0x2886 JUMP JUMPDEST SWAP1 POP PUSH2 0xA07 DUP2 PUSH0 ADD MLOAD PUSH2 0x185D JUMP JUMPDEST PUSH0 JUMPDEST DUP2 PUSH1 0x20 ADD MLOAD MLOAD DUP2 LT ISZERO PUSH2 0xA96 JUMPI PUSH1 0x1 PUSH1 0x2 PUSH0 DUP5 PUSH1 0x20 ADD MLOAD DUP5 DUP2 MLOAD DUP2 LT PUSH2 0xA32 JUMPI PUSH2 0xA31 PUSH2 0x264B JUMP JUMPDEST JUMPDEST PUSH1 0x20 MUL PUSH1 0x20 ADD ADD MLOAD PUSH20 0xFFFFFFFFFFFFFFFFFFFFFFFFFFFFFFFFFFFFFFFF AND PUSH20 0xFFFFFFFFFFFFFFFFFFFFFFFFFFFFFFFFFFFFFFFF AND DUP2 MSTORE PUSH1 0x20 ADD SWAP1 DUP2 MSTORE PUSH1 0x20 ADD PUSH0 KECCAK256 PUSH0 PUSH2 0x100 EXP DUP2 SLOAD DUP2 PUSH1 0xFF MUL NOT AND SWAP1 DUP4 ISZERO ISZERO MUL OR SWAP1 SSTORE POP DUP1 DUP1 PUSH1 0x1 ADD SWAP2 POP POP PUSH2 0xA09 JUMP JUMPDEST POP POP DUP1 ISZERO PUSH2 0xACD JUMPI PUSH1 0x2 DUP2 SSTORE PUSH1 0x1 PUSH1 0x20 MSTORE PUSH32 0xC7F505B2F371AE2175EE4913F4499E1F2633A7B5936321EED1CDAEB6115181D2 PUSH1 0x20 DUP1 LOG1 JUMPDEST POP POP POP JUMP JUMPDEST PUSH0 SWAP3 SWAP2 POP POP JUMP JUMPDEST PUSH4 0x389A75E1 PUSH1 0xC MSTORE CALLER PUSH0 MSTORE PUSH0 PUSH1 0x20 PUSH1 0xC KECCAK256 SSTORE CALLER PUSH32 0xFA7B8EAB7DA67F412CC9575ED43464468F9BFBAE89D1675917346CA6D8FE3C92 PUSH0 DUP1 LOG2 JUMP JUMPDEST PUSH0 DUP1 PUSH0 DUP4 PUSH20 0xFFFFFFFFFFFFFFFFFFFFFFFFFFFFFFFFFFFFFFFF AND PUSH20 0xFFFFFFFFFFFFFFFFFFFFFFFFFFFFFFFFFFFFFFFF AND DUP2 MSTORE PUSH1 0x20 ADD SWAP1 DUP2 MSTORE PUSH1 0x20 ADD PUSH0 KECCAK256 SLOAD SWAP1 POP SWAP2 SWAP1 POP JUMP JUMPDEST PUSH0 DUP1 DUP4 DUP4 DUP2 ADD SWAP1 PUSH2 0xB68 SWAP2 SWAP1 PUSH2 0x2A31 JUMP JUMPDEST SWAP1 POP PUSH0 PUSH1 0x2 DUP2 GT ISZERO PUSH2 0xB7D JUMPI PUSH2 0xB7C PUSH2 0x2A78 JUMP JUMPDEST JUMPDEST DUP2 PUSH0 ADD MLOAD PUSH1 0x2 DUP2 GT ISZERO PUSH2 0xB93 JUMPI PUSH2 0xB92 PUSH2 0x2A78 JUMP JUMPDEST JUMPDEST SUB PUSH2 0xC09 JUMPI PUSH0 DUP2 PUSH1 0x60 ADD MLOAD DUP1 PUSH1 0x20 ADD SWAP1 MLOAD DUP2 ADD SWAP1 PUSH2 0xBB1 SWAP2 SWAP1 PUSH2 0x2AF2 JUMP JUMPDEST SWAP1 POP DUP1 PUSH0 ADD MLOAD CALLVALUE EQ PUSH2 0xC03 JUMPI DUP2 PUSH1 0x20 ADD MLOAD DUP2 PUSH0 ADD MLOAD PUSH1 0x40 MLOAD PUSH32 0xCECE04C500000000000000000000000000000000000000000000000000000000 DUP2 MSTORE PUSH1 0x4 ADD PUSH2 0xBFA SWAP3 SWAP2 SWAP1 PUSH2 0x2B1D JUMP JUMPDEST PUSH1 0x40 MLOAD DUP1 SWAP2 SUB SWAP1 REVERT JUMPDEST POP PUSH2 0xEBB JUMP JUMPDEST PUSH1 0x1 PUSH1 0x2 DUP2 GT ISZERO PUSH2 0xC1D JUMPI PUSH2 0xC1C PUSH2 0x2A78 JUMP JUMPDEST JUMPDEST DUP2 PUSH0 ADD MLOAD PUSH1 0x2 DUP2 GT ISZERO PUSH2 0xC33 JUMPI PUSH2 0xC32 PUSH2 0x2A78 JUMP JUMPDEST JUMPDEST SUB PUSH2 0xD0E JUMPI PUSH0 DUP2 PUSH1 0x60 ADD MLOAD DUP1 PUSH1 0x20 ADD SWAP1 MLOAD DUP2 ADD SWAP1 PUSH2 0xC51 SWAP2 SWAP1 PUSH2 0x2AF2 JUMP JUMPDEST SWAP1 POP PUSH2 0xC8B DUP3 PUSH1 0x40 ADD MLOAD ADDRESS DUP4 PUSH0 ADD MLOAD DUP6 PUSH1 0x20 ADD MLOAD PUSH20 0xFFFFFFFFFFFFFFFFFFFFFFFFFFFFFFFFFFFFFFFF AND PUSH2 0x1933 SWAP1 SWAP4 SWAP3 SWAP2 SWAP1 PUSH4 0xFFFFFFFF AND JUMP JUMPDEST DUP1 PUSH0 ADD MLOAD PUSH2 0xCBC ADDRESS DUP5 PUSH1 0x20 ADD MLOAD PUSH20 0xFFFFFFFFFFFFFFFFFFFFFFFFFFFFFFFFFFFFFFFF AND PUSH2 0x17C0 SWAP1 SWAP2 SWAP1 PUSH4 0xFFFFFFFF AND JUMP JUMPDEST LT ISZERO PUSH2 0xD08 JUMPI DUP2 PUSH1 0x20 ADD MLOAD DUP2 PUSH0 ADD MLOAD PUSH1 0x40 MLOAD PUSH32 0xCECE04C500000000000000000000000000000000000000000000000000000000 DUP2 MSTORE PUSH1 0x4 ADD PUSH2 0xCFF SWAP3 SWAP2 SWAP1 PUSH2 0x2B1D JUMP JUMPDEST PUSH1 0x40 MLOAD DUP1 SWAP2 SUB SWAP1 REVERT JUMPDEST POP PUSH2 0xEBA JUMP JUMPDEST PUSH1 0x2 DUP1 DUP2 GT ISZERO PUSH2 0xD21 JUMPI PUSH2 0xD20 PUSH2 0x2A78 JUMP JUMPDEST JUMPDEST DUP2 PUSH0 ADD MLOAD PUSH1 0x2 DUP2 GT ISZERO PUSH2 0xD37 JUMPI PUSH2 0xD36 PUSH2 0x2A78 JUMP JUMPDEST JUMPDEST SUB PUSH2 0xEB0 JUMPI PUSH0 DUP2 PUSH1 0x60 ADD MLOAD DUP1 PUSH1 0x20 ADD SWAP1 MLOAD DUP2 ADD SWAP1 PUSH2 0xD55 SWAP2 SWAP1 PUSH2 0x2C3D JUMP JUMPDEST SWAP1 POP DUP2 PUSH1 0x20 ADD MLOAD PUSH20 0xFFFFFFFFFFFFFFFFFFFFFFFFFFFFFFFFFFFFFFFF AND PUSH4 0xF242432A DUP4 PUSH1 0x40 ADD MLOAD ADDRESS DUP5 PUSH0 ADD MLOAD DUP6 PUSH1 0x20 ADD MLOAD DUP7 PUSH1 0x40 ADD MLOAD PUSH1 0x40 MLOAD DUP7 PUSH4 0xFFFFFFFF AND PUSH1 0xE0 SHL DUP2 MSTORE PUSH1 0x4 ADD PUSH2 0xDAB SWAP6 SWAP5 SWAP4 SWAP3 SWAP2 SWAP1 PUSH2 0x2CD6 JUMP JUMPDEST PUSH0 PUSH1 0x40 MLOAD DUP1 DUP4 SUB DUP2 PUSH0 DUP8 DUP1 EXTCODESIZE ISZERO DUP1 ISZERO PUSH2 0xDC2 JUMPI PUSH0 DUP1 REVERT JUMPDEST POP GAS CALL ISZERO DUP1 ISZERO PUSH2 0xDD4 JUMPI RETURNDATASIZE PUSH0 DUP1 RETURNDATACOPY RETURNDATASIZE PUSH0 REVERT JUMPDEST POP POP POP POP DUP1 PUSH1 0x20 ADD MLOAD DUP3 PUSH1 0x20 ADD MLOAD PUSH20 0xFFFFFFFFFFFFFFFFFFFFFFFFFFFFFFFFFFFFFFFF AND PUSH3 0xFDD58E ADDRESS DUP5 PUSH0 ADD MLOAD PUSH1 0x40 MLOAD DUP4 PUSH4 0xFFFFFFFF AND PUSH1 0xE0 SHL DUP2 MSTORE PUSH1 0x4 ADD PUSH2 0xE1E SWAP3 SWAP2 SWAP1 PUSH2 0x2B1D JUMP JUMPDEST PUSH1 0x20 PUSH1 0x40 MLOAD DUP1 DUP4 SUB DUP2 DUP7 GAS STATICCALL ISZERO DUP1 ISZERO PUSH2 0xE39 JUMPI RETURNDATASIZE PUSH0 DUP1 RETURNDATACOPY RETURNDATASIZE PUSH0 REVERT JUMPDEST POP POP POP POP PUSH1 0x40 MLOAD RETURNDATASIZE PUSH1 0x1F NOT PUSH1 0x1F DUP3 ADD AND DUP3 ADD DUP1 PUSH1 0x40 MSTORE POP DUP2 ADD SWAP1 PUSH2 0xE5D SWAP2 SWAP1 PUSH2 0x2D2E JUMP JUMPDEST LT ISZERO PUSH2 0xEAA JUMPI DUP2 PUSH1 0x20 ADD MLOAD DUP2 PUSH1 0x20 ADD MLOAD PUSH1 0x40 MLOAD PUSH32 0xCECE04C500000000000000000000000000000000000000000000000000000000 DUP2 MSTORE PUSH1 0x4 ADD PUSH2 0xEA1 SWAP3 SWAP2 SWAP1 PUSH2 0x2B1D JUMP JUMPDEST PUSH1 0x40 MLOAD DUP1 SWAP2 SUB SWAP1 REVERT JUMPDEST POP PUSH2 0xEB9 JUMP JUMPDEST PUSH0 SWAP2 POP POP PUSH2 0xEC1 JUMP JUMPDEST JUMPDEST JUMPDEST PUSH1 0x1 SWAP2 POP POP JUMPDEST SWAP3 SWAP2 POP POP JUMP JUMPDEST PUSH0 DUP1 PUSH0 SWAP1 POP JUMPDEST DUP4 DUP4 SWAP1 POP DUP2 LT ISZERO PUSH2 0xF1F JUMPI PUSH2 0xF05 DUP5 DUP5 DUP4 DUP2 DUP2 LT PUSH2 0xEEE JUMPI PUSH2 0xEED PUSH2 0x264B JUMP JUMPDEST JUMPDEST SWAP1 POP PUSH1 0x20 MUL DUP2 ADD SWAP1 PUSH2 0xF00 SWAP2 SWAP1 PUSH2 0x2D65 JUMP JUMPDEST PUSH2 0x13F3 JUMP JUMPDEST PUSH2 0xF12 JUMPI PUSH0 SWAP2 POP POP PUSH2 0xF25 JUMP JUMPDEST DUP1 DUP1 PUSH1 0x1 ADD SWAP2 POP POP PUSH2 0xECD JUMP JUMPDEST POP PUSH1 0x1 SWAP1 POP JUMPDEST SWAP3 SWAP2 POP POP JUMP JUMPDEST PUSH2 0xF33 PUSH2 0x17FD JUMP JUMPDEST PUSH2 0xF3C PUSH0 PUSH2 0x198D JUMP JUMPDEST JUMP JUMPDEST PUSH0 PUSH1 0x1 PUSH0 DUP5 PUSH20 0xFFFFFFFFFFFFFFFFFFFFFFFFFFFFFFFFFFFFFFFF AND PUSH20 0xFFFFFFFFFFFFFFFFFFFFFFFFFFFFFFFFFFFFFFFF AND DUP2 MSTORE PUSH1 0x20 ADD SWAP1 DUP2 MSTORE PUSH1 0x20 ADD PUSH0 KECCAK256 PUSH0 DUP4 DUP2 MSTORE PUSH1 0x20 ADD SWAP1 DUP2 MSTORE PUSH1 0x20 ADD PUSH0 KECCAK256 SLOAD SWAP1 POP SWAP3 SWAP2 POP POP JUMP JUMPDEST PUSH0 PUSH32 0xFFFFFFFFFFFFFFFFFFFFFFFFFFFFFFFFFFFFFFFFFFFFFFFFFFFFFFFF74873927 SLOAD SWAP1 POP SWAP1 JUMP JUMPDEST PUSH0 PUSH4 0xBC197C81 PUSH1 0xE0 SHL SWAP1 POP SWAP9 SWAP8 POP POP POP POP POP POP POP POP JUMP JUMPDEST PUSH0 PUSH1 0x1 SWAP1 POP SWAP3 SWAP2 POP POP JUMP JUMPDEST PUSH0 DUP1 PUSH0 DUP4 PUSH20 0xFFFFFFFFFFFFFFFFFFFFFFFFFFFFFFFFFFFFFFFF AND PUSH20 0xFFFFFFFFFFFFFFFFFFFFFFFFFFFFFFFFFFFFFFFF AND DUP2 MSTORE PUSH1 0x20 ADD SWAP1 DUP2 MSTORE PUSH1 0x20 ADD PUSH0 KECCAK256 SLOAD PUSH2 0x1025 DUP4 PUSH2 0x7C0 JUMP JUMPDEST PUSH2 0x102F SWAP2 SWAP1 PUSH2 0x2DF4 JUMP JUMPDEST SWAP1 POP SWAP2 SWAP1 POP JUMP JUMPDEST PUSH2 0x103E PUSH2 0x17FD JUMP JUMPDEST PUSH4 0x389A75E1 PUSH1 0xC MSTORE DUP1 PUSH0 MSTORE PUSH1 0x20 PUSH1 0xC KECCAK256 DUP1 SLOAD TIMESTAMP GT ISZERO PUSH2 0x1064 JUMPI PUSH4 0x6F5E8818 PUSH0 MSTORE PUSH1 0x4 PUSH1 0x1C REVERT JUMPDEST PUSH0 DUP2 SSTORE POP PUSH2 0x1071 DUP2 PUSH2 0x198D JUMP JUMPDEST POP JUMP JUMPDEST PUSH0 PUSH2 0x107D PUSH2 0x17FD JUMP JUMPDEST PUSH0 DUP4 DUP4 DUP2 ADD SWAP1 PUSH2 0x108D SWAP2 SWAP1 PUSH2 0x2A31 JUMP JUMPDEST SWAP1 POP PUSH0 PUSH1 0x2 DUP2 GT ISZERO PUSH2 0x10A2 JUMPI PUSH2 0x10A1 PUSH2 0x2A78 JUMP JUMPDEST JUMPDEST DUP2 PUSH0 ADD MLOAD PUSH1 0x2 DUP2 GT ISZERO PUSH2 0x10B8 JUMPI PUSH2 0x10B7 PUSH2 0x2A78 JUMP JUMPDEST JUMPDEST EQ DUP1 PUSH2 0x10EB JUMPI POP PUSH1 0x1 PUSH1 0x2 DUP2 GT ISZERO PUSH2 0x10D3 JUMPI PUSH2 0x10D2 PUSH2 0x2A78 JUMP JUMPDEST JUMPDEST DUP2 PUSH0 ADD MLOAD PUSH1 0x2 DUP2 GT ISZERO PUSH2 0x10E9 JUMPI PUSH2 0x10E8 PUSH2 0x2A78 JUMP JUMPDEST JUMPDEST EQ JUMPDEST ISZERO PUSH2 0x1144 JUMPI PUSH0 DUP2 PUSH1 0x60 ADD MLOAD DUP1 PUSH1 0x20 ADD SWAP1 MLOAD DUP2 ADD SWAP1 PUSH2 0x1109 SWAP2 SWAP1 PUSH2 0x2AF2 JUMP JUMPDEST SWAP1 POP PUSH2 0x113E DUP3 PUSH1 0x20 ADD MLOAD DUP4 PUSH1 0x40 ADD MLOAD PUSH0 DUP5 PUSH0 ADD MLOAD EQ PUSH2 0x112B JUMPI DUP4 PUSH0 ADD MLOAD PUSH2 0x1139 JUMP JUMPDEST PUSH2 0x1138 DUP6 PUSH1 0x20 ADD MLOAD PUSH2 0x7C0 JUMP JUMPDEST JUMPDEST PUSH2 0x1A53 JUMP JUMPDEST POP PUSH2 0x124E JUMP JUMPDEST PUSH1 0x2 DUP1 DUP2 GT ISZERO PUSH2 0x1157 JUMPI PUSH2 0x1156 PUSH2 0x2A78 JUMP JUMPDEST JUMPDEST DUP2 PUSH0 ADD MLOAD PUSH1 0x2 DUP2 GT ISZERO PUSH2 0x116D JUMPI PUSH2 0x116C PUSH2 0x2A78 JUMP JUMPDEST JUMPDEST SUB PUSH2 0x1244 JUMPI PUSH0 DUP2 PUSH1 0x60 ADD MLOAD DUP1 PUSH1 0x20 ADD SWAP1 MLOAD DUP2 ADD SWAP1 PUSH2 0x118B SWAP2 SWAP1 PUSH2 0x2C3D JUMP JUMPDEST SWAP1 POP PUSH2 0x123E DUP3 PUSH1 0x20 ADD MLOAD DUP4 PUSH1 0x40 ADD MLOAD DUP4 PUSH0 ADD MLOAD PUSH0 DUP6 PUSH1 0x20 ADD MLOAD EQ PUSH2 0x11B3 JUMPI DUP5 PUSH1 0x20 ADD MLOAD PUSH2 0x1234 JUMP JUMPDEST DUP6 PUSH1 0x20 ADD MLOAD PUSH20 0xFFFFFFFFFFFFFFFFFFFFFFFFFFFFFFFFFFFFFFFF AND PUSH3 0xFDD58E ADDRESS DUP8 PUSH0 ADD MLOAD PUSH1 0x40 MLOAD DUP4 PUSH4 0xFFFFFFFF AND PUSH1 0xE0 SHL DUP2 MSTORE PUSH1 0x4 ADD PUSH2 0x11F4 SWAP3 SWAP2 SWAP1 PUSH2 0x2B1D JUMP JUMPDEST PUSH1 0x20 PUSH1 0x40 MLOAD DUP1 DUP4 SUB DUP2 DUP7 GAS STATICCALL ISZERO DUP1 ISZERO PUSH2 0x120F JUMPI RETURNDATASIZE PUSH0 DUP1 RETURNDATACOPY RETURNDATASIZE PUSH0 REVERT JUMPDEST POP POP POP POP PUSH1 0x40 MLOAD RETURNDATASIZE PUSH1 0x1F NOT PUSH1 0x1F DUP3 ADD AND DUP3 ADD DUP1 PUSH1 0x40 MSTORE POP DUP2 ADD SWAP1 PUSH2 0x1233 SWAP2 SWAP1 PUSH2 0x2D2E JUMP JUMPDEST JUMPDEST DUP6 PUSH1 0x40 ADD MLOAD PUSH2 0x1C6B JUMP JUMPDEST POP PUSH2 0x124D JUMP JUMPDEST PUSH0 SWAP2 POP POP PUSH2 0x1254 JUMP JUMPDEST JUMPDEST PUSH1 0x1 SWAP2 POP POP JUMPDEST SWAP3 SWAP2 POP POP JUMP JUMPDEST PUSH0 PUSH4 0xF23A6E61 PUSH1 0xE0 SHL SWAP1 POP SWAP7 SWAP6 POP POP POP POP POP POP JUMP JUMPDEST PUSH2 0x1277 PUSH2 0x17FD JUMP JUMPDEST DUP1 PUSH1 0x60 SHL PUSH2 0x128C JUMPI PUSH4 0x7448FBAE PUSH0 MSTORE PUSH1 0x4 PUSH1 0x1C REVERT JUMPDEST PUSH2 0x1295 DUP2 PUSH2 0x198D JUMP JUMPDEST POP JUMP JUMPDEST PUSH0 DUP3 PUSH20 0xFFFFFFFFFFFFFFFFFFFFFFFFFFFFFFFFFFFFFFFF AND PUSH3 0xFDD58E ADDRESS DUP5 PUSH1 0x40 MLOAD DUP4 PUSH4 0xFFFFFFFF AND PUSH1 0xE0 SHL DUP2 MSTORE PUSH1 0x4 ADD PUSH2 0x12D3 SWAP3 SWAP2 SWAP1 PUSH2 0x2B1D JUMP JUMPDEST PUSH1 0x20 PUSH1 0x40 MLOAD DUP1 DUP4 SUB DUP2 DUP7 GAS STATICCALL ISZERO DUP1 ISZERO PUSH2 0x12EE JUMPI RETURNDATASIZE PUSH0 DUP1 RETURNDATACOPY RETURNDATASIZE PUSH0 REVERT JUMPDEST POP POP POP POP PUSH1 0x40 MLOAD RETURNDATASIZE PUSH1 0x1F NOT PUSH1 0x1F DUP3 ADD AND DUP3 ADD DUP1 PUSH1 0x40 MSTORE POP DUP2 ADD SWAP1 PUSH2 0x1312 SWAP2 SWAP1 PUSH2 0x2D2E JUMP JUMPDEST SWAP1 POP SWAP3 SWAP2 POP POP JUMP JUMPDEST PUSH0 PUSH1 0x1 PUSH0 DUP5 PUSH20 0xFFFFFFFFFFFFFFFFFFFFFFFFFFFFFFFFFFFFFFFF AND PUSH20 0xFFFFFFFFFFFFFFFFFFFFFFFFFFFFFFFFFFFFFFFF AND DUP2 MSTORE PUSH1 0x20 ADD SWAP1 DUP2 MSTORE PUSH1 0x20 ADD PUSH0 KECCAK256 PUSH0 DUP4 DUP2 MSTORE PUSH1 0x20 ADD SWAP1 DUP2 MSTORE PUSH1 0x20 ADD PUSH0 KECCAK256 SLOAD DUP4 PUSH20 0xFFFFFFFFFFFFFFFFFFFFFFFFFFFFFFFFFFFFFFFF AND PUSH3 0xFDD58E ADDRESS DUP6 PUSH1 0x40 MLOAD DUP4 PUSH4 0xFFFFFFFF AND PUSH1 0xE0 SHL DUP2 MSTORE PUSH1 0x4 ADD PUSH2 0x13A2 SWAP3 SWAP2 SWAP1 PUSH2 0x2B1D JUMP JUMPDEST PUSH1 0x20 PUSH1 0x40 MLOAD DUP1 DUP4 SUB DUP2 DUP7 GAS STATICCALL ISZERO DUP1 ISZERO PUSH2 0x13BD JUMPI RETURNDATASIZE PUSH0 DUP1 RETURNDATACOPY RETURNDATASIZE PUSH0 REVERT JUMPDEST POP POP POP POP PUSH1 0x40 MLOAD RETURNDATASIZE PUSH1 0x1F NOT PUSH1 0x1F DUP3 ADD AND DUP3 ADD DUP1 PUSH1 0x40 MSTORE POP DUP2 ADD SWAP1 PUSH2 0x13E1 SWAP2 SWAP1 PUSH2 0x2D2E JUMP JUMPDEST PUSH2 0x13EB SWAP2 SWAP1 PUSH2 0x2DF4 JUMP JUMPDEST SWAP1 POP SWAP3 SWAP2 POP POP JUMP JUMPDEST PUSH0 PUSH2 0x13FD CALLER PUSH2 0x169F JUMP JUMPDEST PUSH2 0x1433 JUMPI PUSH1 0x40 MLOAD PUSH32 0x82B4290000000000000000000000000000000000000000000000000000000000 DUP2 MSTORE PUSH1 0x4 ADD PUSH1 0x40 MLOAD DUP1 SWAP2 SUB SWAP1 REVERT JUMPDEST PUSH0 DUP4 DUP4 DUP2 ADD SWAP1 PUSH2 0x1443 SWAP2 SWAP1 PUSH2 0x2A31 JUMP JUMPDEST SWAP1 POP PUSH1 0x1 PUSH1 0x2 DUP2 GT ISZERO PUSH2 0x1459 JUMPI PUSH2 0x1458 PUSH2 0x2A78 JUMP JUMPDEST JUMPDEST DUP2 PUSH0 ADD MLOAD PUSH1 0x2 DUP2 GT ISZERO PUSH2 0x146F JUMPI PUSH2 0x146E PUSH2 0x2A78 JUMP JUMPDEST JUMPDEST EQ DUP1 PUSH2 0x14A1 JUMPI POP PUSH0 PUSH1 0x2 DUP2 GT ISZERO PUSH2 0x1489 JUMPI PUSH2 0x1488 PUSH2 0x2A78 JUMP JUMPDEST JUMPDEST DUP2 PUSH0 ADD MLOAD PUSH1 0x2 DUP2 GT ISZERO PUSH2 0x149F JUMPI PUSH2 0x149E PUSH2 0x2A78 JUMP JUMPDEST JUMPDEST EQ JUMPDEST ISZERO PUSH2 0x1541 JUMPI PUSH0 DUP2 PUSH1 0x60 ADD MLOAD DUP1 PUSH1 0x20 ADD SWAP1 MLOAD DUP2 ADD SWAP1 PUSH2 0x14BF SWAP2 SWAP1 PUSH2 0x2AF2 JUMP JUMPDEST SWAP1 POP PUSH0 PUSH2 0x14CF DUP4 PUSH1 0x20 ADD MLOAD PUSH2 0x7C0 JUMP JUMPDEST SWAP1 POP DUP1 DUP3 PUSH0 ADD MLOAD GT ISZERO PUSH2 0x1524 JUMPI DUP3 PUSH1 0x20 ADD MLOAD DUP2 DUP4 PUSH0 ADD MLOAD PUSH1 0x40 MLOAD PUSH32 0x5C54305E00000000000000000000000000000000000000000000000000000000 DUP2 MSTORE PUSH1 0x4 ADD PUSH2 0x151B SWAP4 SWAP3 SWAP2 SWAP1 PUSH2 0x2E27 JUMP JUMPDEST PUSH1 0x40 MLOAD DUP1 SWAP2 SUB SWAP1 REVERT JUMPDEST PUSH2 0x153A DUP4 PUSH1 0x20 ADD MLOAD DUP5 PUSH1 0x40 ADD MLOAD DUP5 PUSH0 ADD MLOAD PUSH2 0x1A53 JUMP JUMPDEST POP POP PUSH2 0x1693 JUMP JUMPDEST PUSH1 0x2 DUP1 DUP2 GT ISZERO PUSH2 0x1554 JUMPI PUSH2 0x1553 PUSH2 0x2A78 JUMP JUMPDEST JUMPDEST DUP2 PUSH0 ADD MLOAD PUSH1 0x2 DUP2 GT ISZERO PUSH2 0x156A JUMPI PUSH2 0x1569 PUSH2 0x2A78 JUMP JUMPDEST JUMPDEST SUB PUSH2 0x1689 JUMPI PUSH0 DUP2 PUSH1 0x60 ADD MLOAD DUP1 PUSH1 0x20 ADD SWAP1 MLOAD DUP2 ADD SWAP1 PUSH2 0x1588 SWAP2 SWAP1 PUSH2 0x2C3D JUMP JUMPDEST SWAP1 POP PUSH0 DUP3 PUSH1 0x20 ADD MLOAD PUSH20 0xFFFFFFFFFFFFFFFFFFFFFFFFFFFFFFFFFFFFFFFF AND PUSH3 0xFDD58E ADDRESS DUP5 PUSH0 ADD MLOAD PUSH1 0x40 MLOAD DUP4 PUSH4 0xFFFFFFFF AND PUSH1 0xE0 SHL DUP2 MSTORE PUSH1 0x4 ADD PUSH2 0x15CC SWAP3 SWAP2 SWAP1 PUSH2 0x2B1D JUMP JUMPDEST PUSH1 0x20 PUSH1 0x40 MLOAD DUP1 DUP4 SUB DUP2 DUP7 GAS STATICCALL ISZERO DUP1 ISZERO PUSH2 0x15E7 JUMPI RETURNDATASIZE PUSH0 DUP1 RETURNDATACOPY RETURNDATASIZE PUSH0 REVERT JUMPDEST POP POP POP POP PUSH1 0x40 MLOAD RETURNDATASIZE PUSH1 0x1F NOT PUSH1 0x1F DUP3 ADD AND DUP3 ADD DUP1 PUSH1 0x40 MSTORE POP DUP2 ADD SWAP1 PUSH2 0x160B SWAP2 SWAP1 PUSH2 0x2D2E JUMP JUMPDEST SWAP1 POP DUP1 DUP3 PUSH1 0x20 ADD MLOAD GT ISZERO PUSH2 0x1662 JUMPI DUP3 PUSH1 0x20 ADD MLOAD DUP2 DUP4 PUSH1 0x20 ADD MLOAD PUSH1 0x40 MLOAD PUSH32 0x5C54305E00000000000000000000000000000000000000000000000000000000 DUP2 MSTORE PUSH1 0x4 ADD PUSH2 0x1659 SWAP4 SWAP3 SWAP2 SWAP1 PUSH2 0x2E27 JUMP JUMPDEST PUSH1 0x40 MLOAD DUP1 SWAP2 SUB SWAP1 REVERT JUMPDEST PUSH2 0x1682 DUP4 PUSH1 0x20 ADD MLOAD DUP5 PUSH1 0x40 ADD MLOAD DUP5 PUSH0 ADD MLOAD DUP6 PUSH1 0x20 ADD MLOAD DUP7 PUSH1 0x40 ADD MLOAD PUSH2 0x1C6B JUMP JUMPDEST POP POP PUSH2 0x1692 JUMP JUMPDEST PUSH0 SWAP2 POP POP PUSH2 0x1699 JUMP JUMPDEST JUMPDEST PUSH1 0x1 SWAP2 POP POP JUMPDEST SWAP3 SWAP2 POP POP JUMP JUMPDEST PUSH0 PUSH1 0x2 PUSH0 DUP4 PUSH20 0xFFFFFFFFFFFFFFFFFFFFFFFFFFFFFFFFFFFFFFFF AND PUSH20 0xFFFFFFFFFFFFFFFFFFFFFFFFFFFFFFFFFFFFFFFF AND DUP2 MSTORE PUSH1 0x20 ADD SWAP1 DUP2 MSTORE PUSH1 0x20 ADD PUSH0 KECCAK256 PUSH0 SWAP1 SLOAD SWAP1 PUSH2 0x100 EXP SWAP1 DIV PUSH1 0xFF AND DUP1 PUSH2 0x1727 JUMPI POP PUSH2 0x16F8 PUSH2 0xF94 JUMP JUMPDEST PUSH20 0xFFFFFFFFFFFFFFFFFFFFFFFFFFFFFFFFFFFFFFFF AND DUP3 PUSH20 0xFFFFFFFFFFFFFFFFFFFFFFFFFFFFFFFFFFFFFFFF AND EQ JUMPDEST SWAP1 POP SWAP2 SWAP1 POP JUMP JUMPDEST PUSH0 PUSH4 0x389A75E1 PUSH1 0xC MSTORE DUP2 PUSH0 MSTORE PUSH1 0x20 PUSH1 0xC KECCAK256 SLOAD SWAP1 POP SWAP2 SWAP1 POP JUMP JUMPDEST PUSH0 PUSH32 0x74009FF100000000000000000000000000000000000000000000000000000000 PUSH28 0xFFFFFFFFFFFFFFFFFFFFFFFFFFFFFFFFFFFFFFFFFFFFFFFFFFFFFFFF NOT AND DUP3 PUSH28 0xFFFFFFFFFFFFFFFFFFFFFFFFFFFFFFFFFFFFFFFFFFFFFFFFFFFFFFFF NOT AND EQ DUP1 PUSH2 0x17B9 JUMPI POP PUSH2 0x17B8 DUP3 PUSH2 0x1E97 JUMP JUMPDEST JUMPDEST SWAP1 POP SWAP2 SWAP1 POP JUMP JUMPDEST PUSH0 DUP2 PUSH1 0x14 MSTORE PUSH16 0x70A08231000000000000000000000000 PUSH0 MSTORE PUSH1 0x20 DUP1 PUSH1 0x24 PUSH1 0x10 DUP7 GAS STATICCALL PUSH1 0x1F RETURNDATASIZE GT AND PUSH1 0x20 MLOAD MUL SWAP1 POP SWAP3 SWAP2 POP POP JUMP JUMPDEST PUSH0 PUSH3 0x2A300 SWAP1 POP SWAP1 JUMP JUMPDEST PUSH32 0xFFFFFFFFFFFFFFFFFFFFFFFFFFFFFFFFFFFFFFFFFFFFFFFFFFFFFFFF74873927 SLOAD CALLER EQ PUSH2 0x1832 JUMPI PUSH4 0x82B42900 PUSH0 MSTORE PUSH1 0x4 PUSH1 0x1C REVERT JUMPDEST JUMP JUMPDEST PUSH0 PUSH32 0xFFFFFFFFFFFFFFFFFFFFFFFFFFFFFFFFFFFFFFFFFFFFFFFFFFFFFFFFBF601132 PUSH0 SHL SWAP1 POP SWAP1 JUMP JUMPDEST PUSH2 0x1865 PUSH2 0x1F10 JUMP JUMPDEST ISZERO PUSH2 0x18DD JUMPI PUSH32 0xFFFFFFFFFFFFFFFFFFFFFFFFFFFFFFFFFFFFFFFFFFFFFFFFFFFFFFFF74873927 DUP1 SLOAD ISZERO PUSH2 0x189F JUMPI PUSH4 0xDC149F0 PUSH0 MSTORE PUSH1 0x4 PUSH1 0x1C REVERT JUMPDEST DUP2 PUSH1 0x60 SHL PUSH1 0x60 SHR SWAP2 POP DUP2 ISZERO PUSH1 0xFF SHL DUP3 OR DUP2 SSTORE DUP2 PUSH0 PUSH32 0x8BE0079C531659141344CD1FD0A4F28419497F9722A3DAAFE3B4186F6B6457E0 PUSH0 DUP1 LOG3 POP PUSH2 0x1930 JUMP JUMPDEST DUP1 PUSH1 0x60 SHL PUSH1 0x60 SHR SWAP1 POP DUP1 PUSH32 0xFFFFFFFFFFFFFFFFFFFFFFFFFFFFFFFFFFFFFFFFFFFFFFFFFFFFFFFF74873927 SSTORE DUP1 PUSH0 PUSH32 0x8BE0079C531659141344CD1FD0A4F28419497F9722A3DAAFE3B4186F6B6457E0 PUSH0 DUP1 LOG3 JUMPDEST POP JUMP JUMPDEST PUSH1 0x40 MLOAD DUP2 PUSH1 0x60 MSTORE DUP3 PUSH1 0x40 MSTORE DUP4 PUSH1 0x60 SHL PUSH1 0x2C MSTORE PUSH16 0x23B872DD000000000000000000000000 PUSH1 0xC MSTORE PUSH1 0x20 PUSH0 PUSH1 0x64 PUSH1 0x1C PUSH0 DUP10 GAS CALL RETURNDATASIZE ISZERO PUSH1 0x1 PUSH0 MLOAD EQ OR AND PUSH2 0x197E JUMPI PUSH4 0x7939F424 PUSH0 MSTORE PUSH1 0x4 PUSH1 0x1C REVERT JUMPDEST PUSH0 PUSH1 0x60 MSTORE DUP1 PUSH1 0x40 MSTORE POP POP POP POP POP JUMP JUMPDEST PUSH2 0x1995 PUSH2 0x1F10 JUMP JUMPDEST ISZERO PUSH2 0x19FA JUMPI PUSH32 0xFFFFFFFFFFFFFFFFFFFFFFFFFFFFFFFFFFFFFFFFFFFFFFFFFFFFFFFF74873927 DUP2 PUSH1 0x60 SHL PUSH1 0x60 SHR SWAP2 POP DUP2 DUP2 SLOAD PUSH32 0x8BE0079C531659141344CD1FD0A4F28419497F9722A3DAAFE3B4186F6B6457E0 PUSH0 DUP1 LOG3 DUP2 ISZERO PUSH1 0xFF SHL DUP3 OR DUP2 SSTORE POP PUSH2 0x1A50 JUMP JUMPDEST PUSH32 0xFFFFFFFFFFFFFFFFFFFFFFFFFFFFFFFFFFFFFFFFFFFFFFFFFFFFFFFF74873927 DUP2 PUSH1 0x60 SHL PUSH1 0x60 SHR SWAP2 POP DUP2 DUP2 SLOAD PUSH32 0x8BE0079C531659141344CD1FD0A4F28419497F9722A3DAAFE3B4186F6B6457E0 PUSH0 DUP1 LOG3 DUP2 DUP2 SSTORE POP JUMPDEST POP JUMP JUMPDEST ADDRESS PUSH9 0x929EEE149B4BD21268 SLOAD SUB PUSH2 0x1A71 JUMPI PUSH4 0xAB143C06 PUSH0 MSTORE PUSH1 0x4 PUSH1 0x1C REVERT JUMPDEST ADDRESS PUSH9 0x929EEE149B4BD21268 SSTORE PUSH0 PUSH20 0xFFFFFFFFFFFFFFFFFFFFFFFFFFFFFFFFFFFFFFFF AND DUP3 PUSH20 0xFFFFFFFFFFFFFFFFFFFFFFFFFFFFFFFFFFFFFFFF AND SUB PUSH2 0x1AF1 JUMPI DUP3 DUP3 DUP3 PUSH1 0x40 MLOAD PUSH32 0xBF182BE800000000000000000000000000000000000000000000000000000000 DUP2 MSTORE PUSH1 0x4 ADD PUSH2 0x1AE8 SWAP4 SWAP3 SWAP2 SWAP1 PUSH2 0x2E5C JUMP JUMPDEST PUSH1 0x40 MLOAD DUP1 SWAP2 SUB SWAP1 REVERT JUMPDEST PUSH2 0x1AFA DUP4 PUSH2 0x7C0 JUMP JUMPDEST DUP2 GT ISZERO PUSH2 0x1B4A JUMPI DUP3 PUSH2 0x1B0B DUP5 PUSH2 0x7C0 JUMP JUMPDEST DUP3 PUSH1 0x40 MLOAD PUSH32 0x5C54305E00000000000000000000000000000000000000000000000000000000 DUP2 MSTORE PUSH1 0x4 ADD PUSH2 0x1B41 SWAP4 SWAP3 SWAP2 SWAP1 PUSH2 0x2E27 JUMP JUMPDEST PUSH1 0x40 MLOAD DUP1 SWAP2 SUB SWAP1 REVERT JUMPDEST DUP1 PUSH0 DUP1 DUP6 PUSH20 0xFFFFFFFFFFFFFFFFFFFFFFFFFFFFFFFFFFFFFFFF AND PUSH20 0xFFFFFFFFFFFFFFFFFFFFFFFFFFFFFFFFFFFFFFFF AND DUP2 MSTORE PUSH1 0x20 ADD SWAP1 DUP2 MSTORE PUSH1 0x20 ADD PUSH0 KECCAK256 PUSH0 DUP3 DUP3 SLOAD PUSH2 0x1B95 SWAP2 SWAP1 PUSH2 0x2DF4 JUMP JUMPDEST SWAP3 POP POP DUP2 SWAP1 SSTORE POP PUSH0 PUSH20 0xFFFFFFFFFFFFFFFFFFFFFFFFFFFFFFFFFFFFFFFF AND DUP4 PUSH20 0xFFFFFFFFFFFFFFFFFFFFFFFFFFFFFFFFFFFFFFFF AND SUB PUSH2 0x1BDE JUMPI PUSH2 0x1BD9 DUP3 DUP3 PUSH2 0x1F14 JUMP JUMPDEST PUSH2 0x1C0A JUMP JUMPDEST PUSH2 0x1C09 DUP3 DUP3 DUP6 PUSH20 0xFFFFFFFFFFFFFFFFFFFFFFFFFFFFFFFFFFFFFFFF AND PUSH2 0x1F31 SWAP1 SWAP3 SWAP2 SWAP1 PUSH4 0xFFFFFFFF AND JUMP JUMPDEST JUMPDEST DUP3 PUSH20 0xFFFFFFFFFFFFFFFFFFFFFFFFFFFFFFFFFFFFFFFF AND PUSH32 0xAD4A9ACF26D8BBA7A8CF1A41160D59BE042EE554578E256C98D2AB74CDD43542 DUP4 DUP4 PUSH1 0x40 MLOAD PUSH2 0x1C52 SWAP3 SWAP2 SWAP1 PUSH2 0x2B1D JUMP JUMPDEST PUSH1 0x40 MLOAD DUP1 SWAP2 SUB SWAP1 LOG2 CODESIZE PUSH9 0x929EEE149B4BD21268 SSTORE POP POP POP JUMP JUMPDEST ADDRESS PUSH9 0x929EEE149B4BD21268 SLOAD SUB PUSH2 0x1C89 JUMPI PUSH4 0xAB143C06 PUSH0 MSTORE PUSH1 0x4 PUSH1 0x1C REVERT JUMPDEST ADDRESS PUSH9 0x929EEE149B4BD21268 SSTORE PUSH0 PUSH20 0xFFFFFFFFFFFFFFFFFFFFFFFFFFFFFFFFFFFFFFFF AND DUP5 PUSH20 0xFFFFFFFFFFFFFFFFFFFFFFFFFFFFFFFFFFFFFFFF AND SUB PUSH2 0x1D09 JUMPI DUP5 DUP5 DUP4 PUSH1 0x40 MLOAD PUSH32 0xBF182BE800000000000000000000000000000000000000000000000000000000 DUP2 MSTORE PUSH1 0x4 ADD PUSH2 0x1D00 SWAP4 SWAP3 SWAP2 SWAP1 PUSH2 0x2E5C JUMP JUMPDEST PUSH1 0x40 MLOAD DUP1 SWAP2 SUB SWAP1 REVERT JUMPDEST PUSH2 0x1D13 DUP6 DUP5 PUSH2 0x1298 JUMP JUMPDEST DUP3 GT ISZERO PUSH2 0x1D64 JUMPI DUP5 PUSH2 0x1D25 DUP7 DUP6 PUSH2 0x1298 JUMP JUMPDEST DUP4 PUSH1 0x40 MLOAD PUSH32 0x5C54305E00000000000000000000000000000000000000000000000000000000 DUP2 MSTORE PUSH1 0x4 ADD PUSH2 0x1D5B SWAP4 SWAP3 SWAP2 SWAP1 PUSH2 0x2E27 JUMP JUMPDEST PUSH1 0x40 MLOAD DUP1 SWAP2 SUB SWAP1 REVERT JUMPDEST DUP2 PUSH1 0x1 PUSH0 DUP8 PUSH20 0xFFFFFFFFFFFFFFFFFFFFFFFFFFFFFFFFFFFFFFFF AND PUSH20 0xFFFFFFFFFFFFFFFFFFFFFFFFFFFFFFFFFFFFFFFF AND DUP2 MSTORE PUSH1 0x20 ADD SWAP1 DUP2 MSTORE PUSH1 0x20 ADD PUSH0 KECCAK256 PUSH0 DUP6 DUP2 MSTORE PUSH1 0x20 ADD SWAP1 DUP2 MSTORE PUSH1 0x20 ADD PUSH0 KECCAK256 PUSH0 DUP3 DUP3 SLOAD PUSH2 0x1DBF SWAP2 SWAP1 PUSH2 0x2DF4 JUMP JUMPDEST SWAP3 POP POP DUP2 SWAP1 SSTORE POP DUP5 PUSH20 0xFFFFFFFFFFFFFFFFFFFFFFFFFFFFFFFFFFFFFFFF AND PUSH4 0xF242432A ADDRESS DUP7 DUP7 DUP7 DUP7 PUSH1 0x40 MLOAD DUP7 PUSH4 0xFFFFFFFF AND PUSH1 0xE0 SHL DUP2 MSTORE PUSH1 0x4 ADD PUSH2 0x1E07 SWAP6 SWAP5 SWAP4 SWAP3 SWAP2 SWAP1 PUSH2 0x2CD6 JUMP JUMPDEST PUSH0 PUSH1 0x40 MLOAD DUP1 DUP4 SUB DUP2 PUSH0 DUP8 DUP1 EXTCODESIZE ISZERO DUP1 ISZERO PUSH2 0x1E1E JUMPI PUSH0 DUP1 REVERT JUMPDEST POP GAS CALL ISZERO DUP1 ISZERO PUSH2 0x1E30 JUMPI RETURNDATASIZE PUSH0 DUP1 RETURNDATACOPY RETURNDATASIZE PUSH0 REVERT JUMPDEST POP POP POP POP DUP5 PUSH20 0xFFFFFFFFFFFFFFFFFFFFFFFFFFFFFFFFFFFFFFFF AND PUSH32 0xAD4A9ACF26D8BBA7A8CF1A41160D59BE042EE554578E256C98D2AB74CDD43542 DUP6 DUP5 PUSH1 0x40 MLOAD PUSH2 0x1E7C SWAP3 SWAP2 SWAP1 PUSH2 0x2B1D JUMP JUMPDEST PUSH1 0x40 MLOAD DUP1 SWAP2 SUB SWAP1 LOG2 CODESIZE PUSH9 0x929EEE149B4BD21268 SSTORE POP POP POP POP POP JUMP JUMPDEST PUSH0 PUSH32 0x6AB67A0D00000000000000000000000000000000000000000000000000000000 PUSH28 0xFFFFFFFFFFFFFFFFFFFFFFFFFFFFFFFFFFFFFFFFFFFFFFFFFFFFFFFF NOT AND DUP3 PUSH28 0xFFFFFFFFFFFFFFFFFFFFFFFFFFFFFFFFFFFFFFFFFFFFFFFFFFFFFFFF NOT AND EQ DUP1 PUSH2 0x1F09 JUMPI POP PUSH2 0x1F08 DUP3 PUSH2 0x1F7A JUMP JUMPDEST JUMPDEST SWAP1 POP SWAP2 SWAP1 POP JUMP JUMPDEST PUSH0 SWAP1 JUMP JUMPDEST PUSH0 CODESIZE PUSH0 CODESIZE DUP5 DUP7 GAS CALL PUSH2 0x1F2D JUMPI PUSH4 0xB12D13EB PUSH0 MSTORE PUSH1 0x4 PUSH1 0x1C REVERT JUMPDEST POP POP JUMP JUMPDEST DUP2 PUSH1 0x14 MSTORE DUP1 PUSH1 0x34 MSTORE PUSH16 0xA9059CBB000000000000000000000000 PUSH0 MSTORE PUSH1 0x20 PUSH0 PUSH1 0x44 PUSH1 0x10 PUSH0 DUP8 GAS CALL RETURNDATASIZE ISZERO PUSH1 0x1 PUSH0 MLOAD EQ OR AND PUSH2 0x1F71 JUMPI PUSH4 0x90B8EC18 PUSH0 MSTORE PUSH1 0x4 PUSH1 0x1C REVERT JUMPDEST PUSH0 PUSH1 0x34 MSTORE POP POP POP JUMP JUMPDEST PUSH0 PUSH32 0x1FFC9A700000000000000000000000000000000000000000000000000000000 PUSH28 0xFFFFFFFFFFFFFFFFFFFFFFFFFFFFFFFFFFFFFFFFFFFFFFFFFFFFFFFF NOT AND DUP3 PUSH28 0xFFFFFFFFFFFFFFFFFFFFFFFFFFFFFFFFFFFFFFFFFFFFFFFFFFFFFFFF NOT AND EQ SWAP1 POP SWAP2 SWAP1 POP JUMP JUMPDEST PUSH0 PUSH1 0x40 MLOAD SWAP1 POP SWAP1 JUMP JUMPDEST PUSH0 DUP1 REVERT JUMPDEST PUSH0 DUP1 REVERT JUMPDEST PUSH0 PUSH32 0xFFFFFFFF00000000000000000000000000000000000000000000000000000000 DUP3 AND SWAP1 POP SWAP2 SWAP1 POP JUMP JUMPDEST PUSH2 0x2028 DUP2 PUSH2 0x1FF4 JUMP JUMPDEST DUP2 EQ PUSH2 0x2032 JUMPI PUSH0 DUP1 REVERT JUMPDEST POP JUMP JUMPDEST PUSH0 DUP2 CALLDATALOAD SWAP1 POP PUSH2 0x2043 DUP2 PUSH2 0x201F JUMP JUMPDEST SWAP3 SWAP2 POP POP JUMP JUMPDEST PUSH0 PUSH1 0x20 DUP3 DUP5 SUB SLT ISZERO PUSH2 0x205E JUMPI PUSH2 0x205D PUSH2 0x1FEC JUMP JUMPDEST JUMPDEST PUSH0 PUSH2 0x206B DUP5 DUP3 DUP6 ADD PUSH2 0x2035 JUMP JUMPDEST SWAP2 POP POP SWAP3 SWAP2 POP POP JUMP JUMPDEST PUSH0 DUP2 ISZERO ISZERO SWAP1 POP SWAP2 SWAP1 POP JUMP JUMPDEST PUSH2 0x2088 DUP2 PUSH2 0x2074 JUMP JUMPDEST DUP3 MSTORE POP POP JUMP JUMPDEST PUSH0 PUSH1 0x20 DUP3 ADD SWAP1 POP PUSH2 0x20A1 PUSH0 DUP4 ADD DUP5 PUSH2 0x207F JUMP JUMPDEST SWAP3 SWAP2 POP POP JUMP JUMPDEST PUSH0 PUSH20 0xFFFFFFFFFFFFFFFFFFFFFFFFFFFFFFFFFFFFFFFF DUP3 AND SWAP1 POP SWAP2 SWAP1 POP JUMP JUMPDEST PUSH0 PUSH2 0x20D0 DUP3 PUSH2 0x20A7 JUMP JUMPDEST SWAP1 POP SWAP2 SWAP1 POP JUMP JUMPDEST PUSH2 0x20E0 DUP2 PUSH2 0x20C6 JUMP JUMPDEST DUP2 EQ PUSH2 0x20EA JUMPI PUSH0 DUP1 REVERT JUMPDEST POP JUMP JUMPDEST PUSH0 DUP2 CALLDATALOAD SWAP1 POP PUSH2 0x20FB DUP2 PUSH2 0x20D7 JUMP JUMPDEST SWAP3 SWAP2 POP POP JUMP JUMPDEST PUSH0 PUSH1 0x20 DUP3 DUP5 SUB SLT ISZERO PUSH2 0x2116 JUMPI PUSH2 0x2115 PUSH2 0x1FEC JUMP JUMPDEST JUMPDEST PUSH0 PUSH2 0x2123 DUP5 DUP3 DUP6 ADD PUSH2 0x20ED JUMP JUMPDEST SWAP2 POP POP SWAP3 SWAP2 POP POP JUMP JUMPDEST PUSH0 DUP2 SWAP1 POP SWAP2 SWAP1 POP JUMP JUMPDEST PUSH2 0x213E DUP2 PUSH2 0x212C JUMP JUMPDEST DUP3 MSTORE POP POP JUMP JUMPDEST PUSH0 PUSH1 0x20 DUP3 ADD SWAP1 POP PUSH2 0x2157 PUSH0 DUP4 ADD DUP5 PUSH2 0x2135 JUMP JUMPDEST SWAP3 SWAP2 POP POP JUMP JUMPDEST PUSH2 0x2166 DUP2 PUSH2 0x1FF4 JUMP JUMPDEST DUP3 MSTORE POP POP JUMP JUMPDEST PUSH0 PUSH1 0x20 DUP3 ADD SWAP1 POP PUSH2 0x217F PUSH0 DUP4 ADD DUP5 PUSH2 0x215D JUMP JUMPDEST SWAP3 SWAP2 POP POP JUMP JUMPDEST PUSH0 DUP1 REVERT JUMPDEST PUSH0 DUP1 REVERT JUMPDEST PUSH0 DUP1 REVERT JUMPDEST PUSH0 DUP1 DUP4 PUSH1 0x1F DUP5 ADD SLT PUSH2 0x21A6 JUMPI PUSH2 0x21A5 PUSH2 0x2185 JUMP JUMPDEST JUMPDEST DUP3 CALLDATALOAD SWAP1 POP PUSH8 0xFFFFFFFFFFFFFFFF DUP2 GT ISZERO PUSH2 0x21C3 JUMPI PUSH2 0x21C2 PUSH2 0x2189 JUMP JUMPDEST JUMPDEST PUSH1 0x20 DUP4 ADD SWAP2 POP DUP4 PUSH1 0x20 DUP3 MUL DUP4 ADD GT ISZERO PUSH2 0x21DF JUMPI PUSH2 0x21DE PUSH2 0x218D JUMP JUMPDEST JUMPDEST SWAP3 POP SWAP3 SWAP1 POP JUMP JUMPDEST PUSH0 DUP1 DUP4 PUSH1 0x1F DUP5 ADD SLT PUSH2 0x21FB JUMPI PUSH2 0x21FA PUSH2 0x2185 JUMP JUMPDEST JUMPDEST DUP3 CALLDATALOAD SWAP1 POP PUSH8 0xFFFFFFFFFFFFFFFF DUP2 GT ISZERO PUSH2 0x2218 JUMPI PUSH2 0x2217 PUSH2 0x2189 JUMP JUMPDEST JUMPDEST PUSH1 0x20 DUP4 ADD SWAP2 POP DUP4 PUSH1 0x20 DUP3 MUL DUP4 ADD GT ISZERO PUSH2 0x2234 JUMPI PUSH2 0x2233 PUSH2 0x218D JUMP JUMPDEST JUMPDEST SWAP3 POP SWAP3 SWAP1 POP JUMP JUMPDEST PUSH0 DUP1 PUSH0 DUP1 PUSH1 0x40 DUP6 DUP8 SUB SLT ISZERO PUSH2 0x2253 JUMPI PUSH2 0x2252 PUSH2 0x1FEC JUMP JUMPDEST JUMPDEST PUSH0 DUP6 ADD CALLDATALOAD PUSH8 0xFFFFFFFFFFFFFFFF DUP2 GT ISZERO PUSH2 0x2270 JUMPI PUSH2 0x226F PUSH2 0x1FF0 JUMP JUMPDEST JUMPDEST PUSH2 0x227C DUP8 DUP3 DUP9 ADD PUSH2 0x2191 JUMP JUMPDEST SWAP5 POP SWAP5 POP POP PUSH1 0x20 DUP6 ADD CALLDATALOAD PUSH8 0xFFFFFFFFFFFFFFFF DUP2 GT ISZERO PUSH2 0x229F JUMPI PUSH2 0x229E PUSH2 0x1FF0 JUMP JUMPDEST JUMPDEST PUSH2 0x22AB DUP8 DUP3 DUP9 ADD PUSH2 0x21E6 JUMP JUMPDEST SWAP3 POP SWAP3 POP POP SWAP3 SWAP6 SWAP2 SWAP5 POP SWAP3 POP JUMP JUMPDEST PUSH0 DUP1 DUP4 PUSH1 0x1F DUP5 ADD SLT PUSH2 0x22CE JUMPI PUSH2 0x22CD PUSH2 0x2185 JUMP JUMPDEST JUMPDEST DUP3 CALLDATALOAD SWAP1 POP PUSH8 0xFFFFFFFFFFFFFFFF DUP2 GT ISZERO PUSH2 0x22EB JUMPI PUSH2 0x22EA PUSH2 0x2189 JUMP JUMPDEST JUMPDEST PUSH1 0x20 DUP4 ADD SWAP2 POP DUP4 PUSH1 0x1 DUP3 MUL DUP4 ADD GT ISZERO PUSH2 0x2307 JUMPI PUSH2 0x2306 PUSH2 0x218D JUMP JUMPDEST JUMPDEST SWAP3 POP SWAP3 SWAP1 POP JUMP JUMPDEST PUSH0 DUP1 PUSH1 0x20 DUP4 DUP6 SUB SLT ISZERO PUSH2 0x2324 JUMPI PUSH2 0x2323 PUSH2 0x1FEC JUMP JUMPDEST JUMPDEST PUSH0 DUP4 ADD CALLDATALOAD PUSH8 0xFFFFFFFFFFFFFFFF DUP2 GT ISZERO PUSH2 0x2341 JUMPI PUSH2 0x2340 PUSH2 0x1FF0 JUMP JUMPDEST JUMPDEST PUSH2 0x234D DUP6 DUP3 DUP7 ADD PUSH2 0x22B9 JUMP JUMPDEST SWAP3 POP SWAP3 POP POP SWAP3 POP SWAP3 SWAP1 POP JUMP JUMPDEST PUSH0 DUP1 DUP4 PUSH1 0x1F DUP5 ADD SLT PUSH2 0x236E JUMPI PUSH2 0x236D PUSH2 0x2185 JUMP JUMPDEST JUMPDEST DUP3 CALLDATALOAD SWAP1 POP PUSH8 0xFFFFFFFFFFFFFFFF DUP2 GT ISZERO PUSH2 0x238B JUMPI PUSH2 0x238A PUSH2 0x2189 JUMP JUMPDEST JUMPDEST PUSH1 0x20 DUP4 ADD SWAP2 POP DUP4 PUSH1 0x20 DUP3 MUL DUP4 ADD GT ISZERO PUSH2 0x23A7 JUMPI PUSH2 0x23A6 PUSH2 0x218D JUMP JUMPDEST JUMPDEST SWAP3 POP SWAP3 SWAP1 POP JUMP JUMPDEST PUSH0 DUP1 PUSH1 0x20 DUP4 DUP6 SUB SLT ISZERO PUSH2 0x23C4 JUMPI PUSH2 0x23C3 PUSH2 0x1FEC JUMP JUMPDEST JUMPDEST PUSH0 DUP4 ADD CALLDATALOAD PUSH8 0xFFFFFFFFFFFFFFFF DUP2 GT ISZERO PUSH2 0x23E1 JUMPI PUSH2 0x23E0 PUSH2 0x1FF0 JUMP JUMPDEST JUMPDEST PUSH2 0x23ED DUP6 DUP3 DUP7 ADD PUSH2 0x2359 JUMP JUMPDEST SWAP3 POP SWAP3 POP POP SWAP3 POP SWAP3 SWAP1 POP JUMP JUMPDEST PUSH2 0x2402 DUP2 PUSH2 0x212C JUMP JUMPDEST DUP2 EQ PUSH2 0x240C JUMPI PUSH0 DUP1 REVERT JUMPDEST POP JUMP JUMPDEST PUSH0 DUP2 CALLDATALOAD SWAP1 POP PUSH2 0x241D DUP2 PUSH2 0x23F9 JUMP JUMPDEST SWAP3 SWAP2 POP POP JUMP JUMPDEST PUSH0 DUP1 PUSH1 0x40 DUP4 DUP6 SUB SLT ISZERO PUSH2 0x2439 JUMPI PUSH2 0x2438 PUSH2 0x1FEC JUMP JUMPDEST JUMPDEST PUSH0 PUSH2 0x2446 DUP6 DUP3 DUP7 ADD PUSH2 0x20ED JUMP JUMPDEST SWAP3 POP POP PUSH1 0x20 PUSH2 0x2457 DUP6 DUP3 DUP7 ADD PUSH2 0x240F JUMP JUMPDEST SWAP2 POP POP SWAP3 POP SWAP3 SWAP1 POP JUMP JUMPDEST PUSH2 0x246A DUP2 PUSH2 0x20C6 JUMP JUMPDEST DUP3 MSTORE POP POP JUMP JUMPDEST PUSH0 PUSH1 0x20 DUP3 ADD SWAP1 POP PUSH2 0x2483 PUSH0 DUP4 ADD DUP5 PUSH2 0x2461 JUMP JUMPDEST SWAP3 SWAP2 POP POP JUMP JUMPDEST PUSH0 DUP1 DUP4 PUSH1 0x1F DUP5 ADD SLT PUSH2 0x249E JUMPI PUSH2 0x249D PUSH2 0x2185 JUMP JUMPDEST JUMPDEST DUP3 CALLDATALOAD SWAP1 POP PUSH8 0xFFFFFFFFFFFFFFFF DUP2 GT ISZERO PUSH2 0x24BB JUMPI PUSH2 0x24BA PUSH2 0x2189 JUMP JUMPDEST JUMPDEST PUSH1 0x20 DUP4 ADD SWAP2 POP DUP4 PUSH1 0x20 DUP3 MUL DUP4 ADD GT ISZERO PUSH2 0x24D7 JUMPI PUSH2 0x24D6 PUSH2 0x218D JUMP JUMPDEST JUMPDEST SWAP3 POP SWAP3 SWAP1 POP JUMP JUMPDEST PUSH0 DUP1 PUSH0 DUP1 PUSH0 DUP1 PUSH0 DUP1 PUSH1 0xA0 DUP10 DUP12 SUB SLT ISZERO PUSH2 0x24FA JUMPI PUSH2 0x24F9 PUSH2 0x1FEC JUMP JUMPDEST JUMPDEST PUSH0 PUSH2 0x2507 DUP12 DUP3 DUP13 ADD PUSH2 0x20ED JUMP JUMPDEST SWAP9 POP POP PUSH1 0x20 PUSH2 0x2518 DUP12 DUP3 DUP13 ADD PUSH2 0x20ED JUMP JUMPDEST SWAP8 POP POP PUSH1 0x40 DUP10 ADD CALLDATALOAD PUSH8 0xFFFFFFFFFFFFFFFF DUP2 GT ISZERO PUSH2 0x2539 JUMPI PUSH2 0x2538 PUSH2 0x1FF0 JUMP JUMPDEST JUMPDEST PUSH2 0x2545 DUP12 DUP3 DUP13 ADD PUSH2 0x2489 JUMP JUMPDEST SWAP7 POP SWAP7 POP POP PUSH1 0x60 DUP10 ADD CALLDATALOAD PUSH8 0xFFFFFFFFFFFFFFFF DUP2 GT ISZERO PUSH2 0x2568 JUMPI PUSH2 0x2567 PUSH2 0x1FF0 JUMP JUMPDEST JUMPDEST PUSH2 0x2574 DUP12 DUP3 DUP13 ADD PUSH2 0x2489 JUMP JUMPDEST SWAP5 POP SWAP5 POP POP PUSH1 0x80 DUP10 ADD CALLDATALOAD PUSH8 0xFFFFFFFFFFFFFFFF DUP2 GT ISZERO PUSH2 0x2597 JUMPI PUSH2 0x2596 PUSH2 0x1FF0 JUMP JUMPDEST JUMPDEST PUSH2 0x25A3 DUP12 DUP3 DUP13 ADD PUSH2 0x22B9 JUMP JUMPDEST SWAP3 POP SWAP3 POP POP SWAP3 SWAP6 SWAP9 POP SWAP3 SWAP6 SWAP9 SWAP1 SWAP4 SWAP7 POP JUMP JUMPDEST PUSH0 DUP1 PUSH0 DUP1 PUSH0 DUP1 PUSH1 0xA0 DUP8 DUP10 SUB SLT ISZERO PUSH2 0x25CF JUMPI PUSH2 0x25CE PUSH2 0x1FEC JUMP JUMPDEST JUMPDEST PUSH0 PUSH2 0x25DC DUP10 DUP3 DUP11 ADD PUSH2 0x20ED JUMP JUMPDEST SWAP7 POP POP PUSH1 0x20 PUSH2 0x25ED DUP10 DUP3 DUP11 ADD PUSH2 0x20ED JUMP JUMPDEST SWAP6 POP POP PUSH1 0x40 PUSH2 0x25FE DUP10 DUP3 DUP11 ADD PUSH2 0x240F JUMP JUMPDEST SWAP5 POP POP PUSH1 0x60 PUSH2 0x260F DUP10 DUP3 DUP11 ADD PUSH2 0x240F JUMP JUMPDEST SWAP4 POP POP PUSH1 0x80 DUP8 ADD CALLDATALOAD PUSH8 0xFFFFFFFFFFFFFFFF DUP2 GT ISZERO PUSH2 0x2630 JUMPI PUSH2 0x262F PUSH2 0x1FF0 JUMP JUMPDEST JUMPDEST PUSH2 0x263C DUP10 DUP3 DUP11 ADD PUSH2 0x22B9 JUMP JUMPDEST SWAP3 POP SWAP3 POP POP SWAP3 SWAP6 POP SWAP3 SWAP6 POP SWAP3 SWAP6 JUMP JUMPDEST PUSH32 0x4E487B7100000000000000000000000000000000000000000000000000000000 PUSH0 MSTORE PUSH1 0x32 PUSH1 0x4 MSTORE PUSH1 0x24 PUSH0 REVERT JUMPDEST PUSH2 0x2681 DUP2 PUSH2 0x2074 JUMP JUMPDEST DUP2 EQ PUSH2 0x268B JUMPI PUSH0 DUP1 REVERT JUMPDEST POP JUMP JUMPDEST PUSH0 DUP2 CALLDATALOAD SWAP1 POP PUSH2 0x269C DUP2 PUSH2 0x2678 JUMP JUMPDEST SWAP3 SWAP2 POP POP JUMP JUMPDEST PUSH0 PUSH1 0x20 DUP3 DUP5 SUB SLT ISZERO PUSH2 0x26B7 JUMPI PUSH2 0x26B6 PUSH2 0x1FEC JUMP JUMPDEST JUMPDEST PUSH0 PUSH2 0x26C4 DUP5 DUP3 DUP6 ADD PUSH2 0x268E JUMP JUMPDEST SWAP2 POP POP SWAP3 SWAP2 POP POP JUMP JUMPDEST PUSH0 DUP1 REVERT JUMPDEST PUSH0 PUSH1 0x1F NOT PUSH1 0x1F DUP4 ADD AND SWAP1 POP SWAP2 SWAP1 POP JUMP JUMPDEST PUSH32 0x4E487B7100000000000000000000000000000000000000000000000000000000 PUSH0 MSTORE PUSH1 0x41 PUSH1 0x4 MSTORE PUSH1 0x24 PUSH0 REVERT JUMPDEST PUSH2 0x2717 DUP3 PUSH2 0x26D1 JUMP JUMPDEST DUP2 ADD DUP2 DUP2 LT PUSH8 0xFFFFFFFFFFFFFFFF DUP3 GT OR ISZERO PUSH2 0x2736 JUMPI PUSH2 0x2735 PUSH2 0x26E1 JUMP JUMPDEST JUMPDEST DUP1 PUSH1 0x40 MSTORE POP POP POP JUMP JUMPDEST PUSH0 PUSH2 0x2748 PUSH2 0x1FE3 JUMP JUMPDEST SWAP1 POP PUSH2 0x2754 DUP3 DUP3 PUSH2 0x270E JUMP JUMPDEST SWAP2 SWAP1 POP JUMP JUMPDEST PUSH0 DUP1 REVERT JUMPDEST PUSH0 PUSH8 0xFFFFFFFFFFFFFFFF DUP3 GT ISZERO PUSH2 0x2777 JUMPI PUSH2 0x2776 PUSH2 0x26E1 JUMP JUMPDEST JUMPDEST PUSH1 0x20 DUP3 MUL SWAP1 POP PUSH1 0x20 DUP2 ADD SWAP1 POP SWAP2 SWAP1 POP JUMP JUMPDEST PUSH0 PUSH2 0x279A PUSH2 0x2795 DUP5 PUSH2 0x275D JUMP JUMPDEST PUSH2 0x273F JUMP JUMPDEST SWAP1 POP DUP1 DUP4 DUP3 MSTORE PUSH1 0x20 DUP3 ADD SWAP1 POP PUSH1 0x20 DUP5 MUL DUP4 ADD DUP6 DUP2 GT ISZERO PUSH2 0x27BD JUMPI PUSH2 0x27BC PUSH2 0x218D JUMP JUMPDEST JUMPDEST DUP4 JUMPDEST DUP2 DUP2 LT ISZERO PUSH2 0x27E6 JUMPI DUP1 PUSH2 0x27D2 DUP9 DUP3 PUSH2 0x20ED JUMP JUMPDEST DUP5 MSTORE PUSH1 0x20 DUP5 ADD SWAP4 POP POP PUSH1 0x20 DUP2 ADD SWAP1 POP PUSH2 0x27BF JUMP JUMPDEST POP POP POP SWAP4 SWAP3 POP POP POP JUMP JUMPDEST PUSH0 DUP3 PUSH1 0x1F DUP4 ADD SLT PUSH2 0x2804 JUMPI PUSH2 0x2803 PUSH2 0x2185 JUMP JUMPDEST JUMPDEST DUP2 CALLDATALOAD PUSH2 0x2814 DUP5 DUP3 PUSH1 0x20 DUP7 ADD PUSH2 0x2788 JUMP JUMPDEST SWAP2 POP POP SWAP3 SWAP2 POP POP JUMP JUMPDEST PUSH0 PUSH1 0x40 DUP3 DUP5 SUB SLT ISZERO PUSH2 0x2832 JUMPI PUSH2 0x2831 PUSH2 0x26CD JUMP JUMPDEST JUMPDEST PUSH2 0x283C PUSH1 0x40 PUSH2 0x273F JUMP JUMPDEST SWAP1 POP PUSH0 PUSH2 0x284B DUP5 DUP3 DUP6 ADD PUSH2 0x20ED JUMP JUMPDEST PUSH0 DUP4 ADD MSTORE POP PUSH1 0x20 DUP3 ADD CALLDATALOAD PUSH8 0xFFFFFFFFFFFFFFFF DUP2 GT ISZERO PUSH2 0x286E JUMPI PUSH2 0x286D PUSH2 0x2759 JUMP JUMPDEST JUMPDEST PUSH2 0x287A DUP5 DUP3 DUP6 ADD PUSH2 0x27F0 JUMP JUMPDEST PUSH1 0x20 DUP4 ADD MSTORE POP SWAP3 SWAP2 POP POP JUMP JUMPDEST PUSH0 PUSH1 0x20 DUP3 DUP5 SUB SLT ISZERO PUSH2 0x289B JUMPI PUSH2 0x289A PUSH2 0x1FEC JUMP JUMPDEST JUMPDEST PUSH0 DUP3 ADD CALLDATALOAD PUSH8 0xFFFFFFFFFFFFFFFF DUP2 GT ISZERO PUSH2 0x28B8 JUMPI PUSH2 0x28B7 PUSH2 0x1FF0 JUMP JUMPDEST JUMPDEST PUSH2 0x28C4 DUP5 DUP3 DUP6 ADD PUSH2 0x281D JUMP JUMPDEST SWAP2 POP POP SWAP3 SWAP2 POP POP JUMP JUMPDEST PUSH1 0x3 DUP2 LT PUSH2 0x28D9 JUMPI PUSH0 DUP1 REVERT JUMPDEST POP JUMP JUMPDEST PUSH0 DUP2 CALLDATALOAD SWAP1 POP PUSH2 0x28EA DUP2 PUSH2 0x28CD JUMP JUMPDEST SWAP3 SWAP2 POP POP JUMP JUMPDEST PUSH0 DUP1 REVERT JUMPDEST PUSH0 PUSH8 0xFFFFFFFFFFFFFFFF DUP3 GT ISZERO PUSH2 0x290E JUMPI PUSH2 0x290D PUSH2 0x26E1 JUMP JUMPDEST JUMPDEST PUSH2 0x2917 DUP3 PUSH2 0x26D1 JUMP JUMPDEST SWAP1 POP PUSH1 0x20 DUP2 ADD SWAP1 POP SWAP2 SWAP1 POP JUMP JUMPDEST DUP3 DUP2 DUP4 CALLDATACOPY PUSH0 DUP4 DUP4 ADD MSTORE POP POP POP JUMP JUMPDEST PUSH0 PUSH2 0x2944 PUSH2 0x293F DUP5 PUSH2 0x28F4 JUMP JUMPDEST PUSH2 0x273F JUMP JUMPDEST SWAP1 POP DUP3 DUP2 MSTORE PUSH1 0x20 DUP2 ADD DUP5 DUP5 DUP5 ADD GT ISZERO PUSH2 0x2960 JUMPI PUSH2 0x295F PUSH2 0x28F0 JUMP JUMPDEST JUMPDEST PUSH2 0x296B DUP5 DUP3 DUP6 PUSH2 0x2924 JUMP JUMPDEST POP SWAP4 SWAP3 POP POP POP JUMP JUMPDEST PUSH0 DUP3 PUSH1 0x1F DUP4 ADD SLT PUSH2 0x2987 JUMPI PUSH2 0x2986 PUSH2 0x2185 JUMP JUMPDEST JUMPDEST DUP2 CALLDATALOAD PUSH2 0x2997 DUP5 DUP3 PUSH1 0x20 DUP7 ADD PUSH2 0x2932 JUMP JUMPDEST SWAP2 POP POP SWAP3 SWAP2 POP POP JUMP JUMPDEST PUSH0 PUSH1 0x80 DUP3 DUP5 SUB SLT ISZERO PUSH2 0x29B5 JUMPI PUSH2 0x29B4 PUSH2 0x26CD JUMP JUMPDEST JUMPDEST PUSH2 0x29BF PUSH1 0x80 PUSH2 0x273F JUMP JUMPDEST SWAP1 POP PUSH0 PUSH2 0x29CE DUP5 DUP3 DUP6 ADD PUSH2 0x28DC JUMP JUMPDEST PUSH0 DUP4 ADD MSTORE POP PUSH1 0x20 PUSH2 0x29E1 DUP5 DUP3 DUP6 ADD PUSH2 0x20ED JUMP JUMPDEST PUSH1 0x20 DUP4 ADD MSTORE POP PUSH1 0x40 PUSH2 0x29F5 DUP5 DUP3 DUP6 ADD PUSH2 0x20ED JUMP JUMPDEST PUSH1 0x40 DUP4 ADD MSTORE POP PUSH1 0x60 DUP3 ADD CALLDATALOAD PUSH8 0xFFFFFFFFFFFFFFFF DUP2 GT ISZERO PUSH2 0x2A19 JUMPI PUSH2 0x2A18 PUSH2 0x2759 JUMP JUMPDEST JUMPDEST PUSH2 0x2A25 DUP5 DUP3 DUP6 ADD PUSH2 0x2973 JUMP JUMPDEST PUSH1 0x60 DUP4 ADD MSTORE POP SWAP3 SWAP2 POP POP JUMP JUMPDEST PUSH0 PUSH1 0x20 DUP3 DUP5 SUB SLT ISZERO PUSH2 0x2A46 JUMPI PUSH2 0x2A45 PUSH2 0x1FEC JUMP JUMPDEST JUMPDEST PUSH0 DUP3 ADD CALLDATALOAD PUSH8 0xFFFFFFFFFFFFFFFF DUP2 GT ISZERO PUSH2 0x2A63 JUMPI PUSH2 0x2A62 PUSH2 0x1FF0 JUMP JUMPDEST JUMPDEST PUSH2 0x2A6F DUP5 DUP3 DUP6 ADD PUSH2 0x29A0 JUMP JUMPDEST SWAP2 POP POP SWAP3 SWAP2 POP POP JUMP JUMPDEST PUSH32 0x4E487B7100000000000000000000000000000000000000000000000000000000 PUSH0 MSTORE PUSH1 0x21 PUSH1 0x4 MSTORE PUSH1 0x24 PUSH0 REVERT JUMPDEST PUSH0 DUP2 MLOAD SWAP1 POP PUSH2 0x2AB3 DUP2 PUSH2 0x23F9 JUMP JUMPDEST SWAP3 SWAP2 POP POP JUMP JUMPDEST PUSH0 PUSH1 0x20 DUP3 DUP5 SUB SLT ISZERO PUSH2 0x2ACE JUMPI PUSH2 0x2ACD PUSH2 0x26CD JUMP JUMPDEST JUMPDEST PUSH2 0x2AD8 PUSH1 0x20 PUSH2 0x273F JUMP JUMPDEST SWAP1 POP PUSH0 PUSH2 0x2AE7 DUP5 DUP3 DUP6 ADD PUSH2 0x2AA5 JUMP JUMPDEST PUSH0 DUP4 ADD MSTORE POP SWAP3 SWAP2 POP POP JUMP JUMPDEST PUSH0 PUSH1 0x20 DUP3 DUP5 SUB SLT ISZERO PUSH2 0x2B07 JUMPI PUSH2 0x2B06 PUSH2 0x1FEC JUMP JUMPDEST JUMPDEST PUSH0 PUSH2 0x2B14 DUP5 DUP3 DUP6 ADD PUSH2 0x2AB9 JUMP JUMPDEST SWAP2 POP POP SWAP3 SWAP2 POP POP JUMP JUMPDEST PUSH0 PUSH1 0x40 DUP3 ADD SWAP1 POP PUSH2 0x2B30 PUSH0 DUP4 ADD DUP6 PUSH2 0x2461 JUMP JUMPDEST PUSH2 0x2B3D PUSH1 0x20 DUP4 ADD DUP5 PUSH2 0x2135 JUMP JUMPDEST SWAP4 SWAP3 POP POP POP JUMP JUMPDEST DUP3 DUP2 DUP4 MCOPY PUSH0 DUP4 DUP4 ADD MSTORE POP POP POP JUMP JUMPDEST PUSH0 PUSH2 0x2B64 PUSH2 0x2B5F DUP5 PUSH2 0x28F4 JUMP JUMPDEST PUSH2 0x273F JUMP JUMPDEST SWAP1 POP DUP3 DUP2 MSTORE PUSH1 0x20 DUP2 ADD DUP5 DUP5 DUP5 ADD GT ISZERO PUSH2 0x2B80 JUMPI PUSH2 0x2B7F PUSH2 0x28F0 JUMP JUMPDEST JUMPDEST PUSH2 0x2B8B DUP5 DUP3 DUP6 PUSH2 0x2B44 JUMP JUMPDEST POP SWAP4 SWAP3 POP POP POP JUMP JUMPDEST PUSH0 DUP3 PUSH1 0x1F DUP4 ADD SLT PUSH2 0x2BA7 JUMPI PUSH2 0x2BA6 PUSH2 0x2185 JUMP JUMPDEST JUMPDEST DUP2 MLOAD PUSH2 0x2BB7 DUP5 DUP3 PUSH1 0x20 DUP7 ADD PUSH2 0x2B52 JUMP JUMPDEST SWAP2 POP POP SWAP3 SWAP2 POP POP JUMP JUMPDEST PUSH0 PUSH1 0x60 DUP3 DUP5 SUB SLT ISZERO PUSH2 0x2BD5 JUMPI PUSH2 0x2BD4 PUSH2 0x26CD JUMP JUMPDEST JUMPDEST PUSH2 0x2BDF PUSH1 0x60 PUSH2 0x273F JUMP JUMPDEST SWAP1 POP PUSH0 PUSH2 0x2BEE DUP5 DUP3 DUP6 ADD PUSH2 0x2AA5 JUMP JUMPDEST PUSH0 DUP4 ADD MSTORE POP PUSH1 0x20 PUSH2 0x2C01 DUP5 DUP3 DUP6 ADD PUSH2 0x2AA5 JUMP JUMPDEST PUSH1 0x20 DUP4 ADD MSTORE POP PUSH1 0x40 DUP3 ADD MLOAD PUSH8 0xFFFFFFFFFFFFFFFF DUP2 GT ISZERO PUSH2 0x2C25 JUMPI PUSH2 0x2C24 PUSH2 0x2759 JUMP JUMPDEST JUMPDEST PUSH2 0x2C31 DUP5 DUP3 DUP6 ADD PUSH2 0x2B93 JUMP JUMPDEST PUSH1 0x40 DUP4 ADD MSTORE POP SWAP3 SWAP2 POP POP JUMP JUMPDEST PUSH0 PUSH1 0x20 DUP3 DUP5 SUB SLT ISZERO PUSH2 0x2C52 JUMPI PUSH2 0x2C51 PUSH2 0x1FEC JUMP JUMPDEST JUMPDEST PUSH0 DUP3 ADD MLOAD PUSH8 0xFFFFFFFFFFFFFFFF DUP2 GT ISZERO PUSH2 0x2C6F JUMPI PUSH2 0x2C6E PUSH2 0x1FF0 JUMP JUMPDEST JUMPDEST PUSH2 0x2C7B DUP5 DUP3 DUP6 ADD PUSH2 0x2BC0 JUMP JUMPDEST SWAP2 POP POP SWAP3 SWAP2 POP POP JUMP JUMPDEST PUSH0 DUP2 MLOAD SWAP1 POP SWAP2 SWAP1 POP JUMP JUMPDEST PUSH0 DUP3 DUP3 MSTORE PUSH1 0x20 DUP3 ADD SWAP1 POP SWAP3 SWAP2 POP POP JUMP JUMPDEST PUSH0 PUSH2 0x2CA8 DUP3 PUSH2 0x2C84 JUMP JUMPDEST PUSH2 0x2CB2 DUP2 DUP6 PUSH2 0x2C8E JUMP JUMPDEST SWAP4 POP PUSH2 0x2CC2 DUP2 DUP6 PUSH1 0x20 DUP7 ADD PUSH2 0x2B44 JUMP JUMPDEST PUSH2 0x2CCB DUP2 PUSH2 0x26D1 JUMP JUMPDEST DUP5 ADD SWAP2 POP POP SWAP3 SWAP2 POP POP JUMP JUMPDEST PUSH0 PUSH1 0xA0 DUP3 ADD SWAP1 POP PUSH2 0x2CE9 PUSH0 DUP4 ADD DUP9 PUSH2 0x2461 JUMP JUMPDEST PUSH2 0x2CF6 PUSH1 0x20 DUP4 ADD DUP8 PUSH2 0x2461 JUMP JUMPDEST PUSH2 0x2D03 PUSH1 0x40 DUP4 ADD DUP7 PUSH2 0x2135 JUMP JUMPDEST PUSH2 0x2D10 PUSH1 0x60 DUP4 ADD DUP6 PUSH2 0x2135 JUMP JUMPDEST DUP2 DUP2 SUB PUSH1 0x80 DUP4 ADD MSTORE PUSH2 0x2D22 DUP2 DUP5 PUSH2 0x2C9E JUMP JUMPDEST SWAP1 POP SWAP7 SWAP6 POP POP POP POP POP POP JUMP JUMPDEST PUSH0 PUSH1 0x20 DUP3 DUP5 SUB SLT ISZERO PUSH2 0x2D43 JUMPI PUSH2 0x2D42 PUSH2 0x1FEC JUMP JUMPDEST JUMPDEST PUSH0 PUSH2 0x2D50 DUP5 DUP3 DUP6 ADD PUSH2 0x2AA5 JUMP JUMPDEST SWAP2 POP POP SWAP3 SWAP2 POP POP JUMP JUMPDEST PUSH0 DUP1 REVERT JUMPDEST PUSH0 DUP1 REVERT JUMPDEST PUSH0 DUP1 REVERT JUMPDEST PUSH0 DUP1 DUP4 CALLDATALOAD PUSH1 0x1 PUSH1 0x20 SUB DUP5 CALLDATASIZE SUB SUB DUP2 SLT PUSH2 0x2D81 JUMPI PUSH2 0x2D80 PUSH2 0x2D59 JUMP JUMPDEST JUMPDEST DUP1 DUP5 ADD SWAP3 POP DUP3 CALLDATALOAD SWAP2 POP PUSH8 0xFFFFFFFFFFFFFFFF DUP3 GT ISZERO PUSH2 0x2DA3 JUMPI PUSH2 0x2DA2 PUSH2 0x2D5D JUMP JUMPDEST JUMPDEST PUSH1 0x20 DUP4 ADD SWAP3 POP PUSH1 0x1 DUP3 MUL CALLDATASIZE SUB DUP4 SGT ISZERO PUSH2 0x2DBF JUMPI PUSH2 0x2DBE PUSH2 0x2D61 JUMP JUMPDEST JUMPDEST POP SWAP3 POP SWAP3 SWAP1 POP JUMP JUMPDEST PUSH32 0x4E487B7100000000000000000000000000000000000000000000000000000000 PUSH0 MSTORE PUSH1 0x11 PUSH1 0x4 MSTORE PUSH1 0x24 PUSH0 REVERT JUMPDEST PUSH0 PUSH2 0x2DFE DUP3 PUSH2 0x212C JUMP JUMPDEST SWAP2 POP PUSH2 0x2E09 DUP4 PUSH2 0x212C JUMP JUMPDEST SWAP3 POP DUP3 DUP3 ADD SWAP1 POP DUP1 DUP3 GT ISZERO PUSH2 0x2E21 JUMPI PUSH2 0x2E20 PUSH2 0x2DC7 JUMP JUMPDEST JUMPDEST SWAP3 SWAP2 POP POP JUMP JUMPDEST PUSH0 PUSH1 0x60 DUP3 ADD SWAP1 POP PUSH2 0x2E3A PUSH0 DUP4 ADD DUP7 PUSH2 0x2461 JUMP JUMPDEST PUSH2 0x2E47 PUSH1 0x20 DUP4 ADD DUP6 PUSH2 0x2135 JUMP JUMPDEST PUSH2 0x2E54 PUSH1 0x40 DUP4 ADD DUP5 PUSH2 0x2135 JUMP JUMPDEST SWAP5 SWAP4 POP POP POP POP JUMP JUMPDEST PUSH0 PUSH1 0x60 DUP3 ADD SWAP1 POP PUSH2 0x2E6F PUSH0 DUP4 ADD DUP7 PUSH2 0x2461 JUMP JUMPDEST PUSH2 0x2E7C PUSH1 0x20 DUP4 ADD DUP6 PUSH2 0x2461 JUMP JUMPDEST PUSH2 0x2E89 PUSH1 0x40 DUP4 ADD DUP5 PUSH2 0x2135 JUMP JUMPDEST SWAP5 SWAP4 POP POP POP POP JUMP INVALID LOG2 PUSH5 0x6970667358 0x22 SLT KECCAK256 0x28 0xEE EXTCODECOPY 0xD0 0xC1 PUSH25 0x1706A1B1046304375EEEA289A94DE241A97520E4044206666D DUP8 PUSH5 0x736F6C6343 STOP ADDMOD NOT STOP CALLER "},"methodIdentifiers":{"allocate(bytes)":"5aef467a","available(address)":"10098ad5","available(address,uint256)":"f8724aba","cancelOwnershipHandover()":"54d1f13d","completeOwnershipHandover(address)":"f04e283e","disburse(bytes)":"fa4ca9b1","disburseBatch(bytes[])":"61400c99","distributed(address)":"578bcf35","distributed(address,uint256)":"774c33ab","getComponentInterface()":"28d6183b","getGarbageA(bytes)":"c2c59fcf","initialize(bytes)":"439fab91","isAuthorized(address)":"fe9fbb80","onERC1155BatchReceived(address,address,uint256[],uint256[],bytes)":"bc197c81","onERC1155Received(address,address,uint256,uint256,bytes)":"f23a6e61","owner()":"8da5cb5b","ownershipHandoverExpiresAt(address)":"fee81cf4","reclaim(bytes)":"f1c30ec0","reconcile(bytes)":"451cc191","renounceOwnership()":"715018a6","requestOwnershipHandover()":"25692962","setAuthorized(address[],bool[])":"4359d28a","supportsInterface(bytes4)":"01ffc9a7","total(address)":"d2514e84","total(address,uint256)":"f9a802c3","transferOwnership(address)":"f2fde38b"}}}}}