{"contracts/shared/Mocks.sol":{"MockERC721":{"abi":[{"inputs":[],"name":"AccountBalanceOverflow","type":"error"},{"inputs":[],"name":"BalanceQueryForZeroAddress","type":"error"},{"inputs":[],"name":"NotOwnerNorApproved","type":"error"},{"inputs":[],"name":"TokenAlreadyExists","type":"error"},{"inputs":[],"name":"TokenDoesNotExist","type":"error"},{"inputs":[],"name":"TransferFromIncorrectOwner","type":"error"},{"inputs":[],"name":"TransferToNonERC721ReceiverImplementer","type":"error"},{"inputs":[],"name":"TransferToZeroAddress","type":"error"},{"anonymous":false,"inputs":[{"indexed":true,"internalType":"address","name":"owner","type":"address"},{"indexed":true,"internalType":"address","name":"account","type":"address"},{"indexed":true,"internalType":"uint256","name":"id","type":"uint256"}],"name":"Approval","type":"event"},{"anonymous":false,"inputs":[{"indexed":true,"internalType":"address","name":"owner","type":"address"},{"indexed":true,"internalType":"address","name":"operator","type":"address"},{"indexed":false,"internalType":"bool","name":"isApproved","type":"bool"}],"name":"ApprovalForAll","type":"event"},{"anonymous":false,"inputs":[{"indexed":true,"internalType":"address","name":"from","type":"address"},{"indexed":true,"internalType":"address","name":"to","type":"address"},{"indexed":true,"internalType":"uint256","name":"id","type":"uint256"}],"name":"Transfer","type":"event"},{"inputs":[{"internalType":"address","name":"account","type":"address"},{"internalType":"uint256","name":"id","type":"uint256"}],"name":"approve","outputs":[],"stateMutability":"payable","type":"function"},{"inputs":[{"internalType":"address","name":"owner","type":"address"}],"name":"balanceOf","outputs":[{"internalType":"uint256","name":"result","type":"uint256"}],"stateMutability":"view","type":"function"},{"inputs":[{"internalType":"uint256","name":"id","type":"uint256"}],"name":"getApproved","outputs":[{"internalType":"address","name":"result","type":"address"}],"stateMutability":"view","type":"function"},{"inputs":[{"internalType":"address","name":"owner","type":"address"},{"internalType":"address","name":"operator","type":"address"}],"name":"isApprovedForAll","outputs":[{"internalType":"bool","name":"result","type":"bool"}],"stateMutability":"view","type":"function"},{"inputs":[{"internalType":"address","name":"to","type":"address"}],"name":"mint","outputs":[],"stateMutability":"payable","type":"function"},{"inputs":[],"name":"mintPrice","outputs":[{"internalType":"uint256","name":"","type":"uint256"}],"stateMutability":"view","type":"function"},{"inputs":[],"name":"name","outputs":[{"internalType":"string","name":"","type":"string"}],"stateMutability":"pure","type":"function"},{"inputs":[{"internalType":"uint256","name":"id","type":"uint256"}],"name":"ownerOf","outputs":[{"internalType":"address","name":"result","type":"address"}],"stateMutability":"view","type":"function"},{"inputs":[{"internalType":"address","name":"from","type":"address"},{"internalType":"address","name":"to","type":"address"},{"internalType":"uint256","name":"id","type":"uint256"}],"name":"safeTransferFrom","outputs":[],"stateMutability":"payable","type":"function"},{"inputs":[{"internalType":"address","name":"from","type":"address"},{"internalType":"address","name":"to","type":"address"},{"internalType":"uint256","name":"id","type":"uint256"},{"internalType":"bytes","name":"data","type":"bytes"}],"name":"safeTransferFrom","outputs":[],"stateMutability":"payable","type":"function"},{"inputs":[{"internalType":"address","name":"operator","type":"address"},{"internalType":"bool","name":"isApproved","type":"bool"}],"name":"setApprovalForAll","outputs":[],"stateMutability":"nonpayable","type":"function"},{"inputs":[{"internalType":"bytes4","name":"interfaceId","type":"bytes4"}],"name":"supportsInterface","outputs":[{"internalType":"bool","name":"result","type":"bool"}],"stateMutability":"view","type":"function"},{"inputs":[],"name":"symbol","outputs":[{"internalType":"string","name":"","type":"string"}],"stateMutability":"pure","type":"function"},{"inputs":[{"internalType":"uint256","name":"id","type":"uint256"}],"name":"tokenURI","outputs":[{"internalType":"string","name":"","type":"string"}],"stateMutability":"view","type":"function"},{"inputs":[],"name":"totalSupply","outputs":[{"internalType":"uint256","name":"","type":"uint256"}],"stateMutability":"view","type":"function"},{"inputs":[{"internalType":"address","name":"from","type":"address"},{"internalType":"address","name":"to","type":"address"},{"internalType":"uint256","name":"id","type":"uint256"}],"name":"transferFrom","outputs":[],"stateMutability":"payable","type":"function"}],"evm":{"bytecode":{"linkReferences":{},"object":"608060405267016345785d8a000060015534801561001c57600080fd5b506111a18061002c6000396000f3fe6080604052600436106100f35760003560e01c80636817c76c1161008a578063a22cb46511610059578063a22cb46514610308578063b88d4fde14610331578063c87b56dd1461034d578063e985e9c51461038a576100f3565b80636817c76c146102595780636a6278421461028457806370a08231146102a057806395d89b41146102dd576100f3565b806318160ddd116100c657806318160ddd146101b957806323b872dd146101e457806342842e0e146102005780636352211e1461021c576100f3565b806301ffc9a7146100f857806306fdde0314610135578063081812fc14610160578063095ea7b31461019d575b600080fd5b34801561010457600080fd5b5061011f600480360381019061011a9190610b5b565b6103c7565b60405161012c9190610ba3565b60405180910390f35b34801561014157600080fd5b5061014a6103ec565b6040516101579190610c4e565b60405180910390f35b34801561016c57600080fd5b5061018760048036038101906101829190610ca6565b610429565b6040516101949190610d14565b60405180910390f35b6101b760048036038101906101b29190610d5b565b610480565b005b3480156101c557600080fd5b506101ce61048f565b6040516101db9190610daa565b60405180910390f35b6101fe60048036038101906101f99190610dc5565b610495565b005b61021a60048036038101906102159190610dc5565b6105c7565b005b34801561022857600080fd5b50610243600480360381019061023e9190610ca6565b610601565b6040516102509190610d14565b60405180910390f35b34801561026557600080fd5b5061026e610626565b60405161027b9190610daa565b60405180910390f35b61029e60048036038101906102999190610e18565b61062c565b005b3480156102ac57600080fd5b506102c760048036038101906102c29190610e18565b610691565b6040516102d49190610daa565b60405180910390f35b3480156102e957600080fd5b506102f26106e1565b6040516102ff9190610c4e565b60405180910390f35b34801561031457600080fd5b5061032f600480360381019061032a9190610e71565b61071e565b005b61034b60048036038101906103469190610f16565b610774565b005b34801561035957600080fd5b50610374600480360381019061036f9190610ca6565b6107e5565b6040516103819190610c4e565b60405180910390f35b34801561039657600080fd5b506103b160048036038101906103ac9190610f9e565b610816565b6040516103be9190610ba3565b60405180910390f35b60008160e01c635b5e139f81146380ac58cd82146301ffc9a783141717915050919050565b60606040518060400160405280600b81526020017f4d6f636b20455243373231000000000000000000000000000000000000000000815250905090565b6000816000527f7d8825530a5a2e7a000000000000000000000000000000000000000000000000601c52602060002082018201805460601b6104735763ceea21b66000526004601cfd5b8060010154915050919050565b61048b33838361083a565b5050565b60005481565b6104a08383836108f1565b60001960601c8381169350828116925081600052337f7d8825530a5a2e7a00000000000000000000000000000000000000000000000017601c52602060002082018201805480831686811481026105065767ceea21b6a1148100811560021b526004601cfd5b86600052826001015480331488331417610533576030600c205461053257634b6e7f186000526004601cfd5b5b801561054157600084600101555b5085871882188355601c600c20600181540381555085600052601c600c20600181540163ffffffff811688026105865767ea553b3401336cea881560021b526004601cfd5b80825550508486887fddf252ad1be2c89b69c2b068fc378daa952ba7f163c4a11628f55a4df523b3ef600038a4505050506105c28383836108f6565b505050565b6105d2838383610495565b6105db826108fb565b156105fc576105fb83838360405180602001604052806000815250610906565b5b505050565b600061060c82610993565b9050806106215763ceea21b66000526004601cfd5b919050565b60015481565b600154341015610671576040517f08c379a00000000000000000000000000000000000000000000000000000000081526004016106689061102a565b60405180910390fd5b61068e81600080815461068390611079565b9190508190556109d4565b50565b6000816106a657638f4eb6046000526004601cfd5b7f7d8825530a5a2e7a000000000000000000000000000000000000000000000000601c528160005263ffffffff601c600c2054169050919050565b60606040518060400160405280600481526020017f4d4f434b00000000000000000000000000000000000000000000000000000000815250905090565b801515905081601c52670a5a2e7a0000000060085233600052806030600c2055806000528160601b60601c337f17307eab39ab6107e8899845ad3d59bd9653f200f220920489ca2b5937696c3160206000a35050565b61077f858585610495565b610788846108fb565b156107de576107dd85858585858080601f016020809104026020016040519081016040528093929190818152602001838380828437600081840152601f19601f82011690508083019250505050505050610906565b5b5050505050565b60606107f082610aa8565b6040516020016108009190611149565b6040516020818303038152906040529050919050565b600081601c52670a5a2e7a00000000600852826000526030600c2054905092915050565b60001960601c8281169250838116935081600052837f7d8825530a5a2e7a00000000000000000000000000000000000000000000000017601c5260206000208201820180548216806108945763ceea21b66000526004601cfd5b8086148615176108bb57806000526030600c20546108ba57634b6e7f186000526004601cfd5b5b8482600101558385827f8c5be1e5ebec7d5bd14f71427d1e84f3dd0314c0f7b2291e5b200ac8c7c3b925600038a4505050505050565b505050565b505050565b6000813b9050919050565b60405163150b7a028082523360208301528560601b60601c604083015283606083015260808083015282518060a0840152801561094d578060c08401826020870160045afa505b60208360a48301601c860160008a5af1610971573d15610970573d6000843e3d83fd5b5b8160e01b83511461098a5763d1a57ed66000526004601cfd5b50505050505050565b6000816000527f7d8825530a5a2e7a000000000000000000000000000000000000000000000000601c526020600020820182015460601b60601c9050919050565b6109e0600083836108f1565b8160601b60601c9150806000527f7d8825530a5a2e7a000000000000000000000000000000000000000000000000601c5260206000208101810180548060601b15610a335763c991cbb16000526004601cfd5b838117825583600052601c600c20600181540163ffffffff81168602610a685767ea553b3401336cea861560021b526004601cfd5b8082555050828460007fddf252ad1be2c89b69c2b068fc378daa952ba7f163c4a11628f55a4df523b3ef600038a45050610aa4600083836108f6565b5050565b60606080604051019050602081016040526000815280600019835b600115610ae4578184019350600a81066030018453600a8104905080610ac3575b50828203602084039350808452505050919050565b600080fd5b600080fd5b60007fffffffff0000000000000000000000000000000000000000000000000000000082169050919050565b610b3881610b03565b8114610b4357600080fd5b50565b600081359050610b5581610b2f565b92915050565b600060208284031215610b7157610b70610af9565b5b6000610b7f84828501610b46565b91505092915050565b60008115159050919050565b610b9d81610b88565b82525050565b6000602082019050610bb86000830184610b94565b92915050565b600081519050919050565b600082825260208201905092915050565b60005b83811015610bf8578082015181840152602081019050610bdd565b60008484015250505050565b6000601f19601f8301169050919050565b6000610c2082610bbe565b610c2a8185610bc9565b9350610c3a818560208601610bda565b610c4381610c04565b840191505092915050565b60006020820190508181036000830152610c688184610c15565b905092915050565b6000819050919050565b610c8381610c70565b8114610c8e57600080fd5b50565b600081359050610ca081610c7a565b92915050565b600060208284031215610cbc57610cbb610af9565b5b6000610cca84828501610c91565b91505092915050565b600073ffffffffffffffffffffffffffffffffffffffff82169050919050565b6000610cfe82610cd3565b9050919050565b610d0e81610cf3565b82525050565b6000602082019050610d296000830184610d05565b92915050565b610d3881610cf3565b8114610d4357600080fd5b50565b600081359050610d5581610d2f565b92915050565b60008060408385031215610d7257610d71610af9565b5b6000610d8085828601610d46565b9250506020610d9185828601610c91565b9150509250929050565b610da481610c70565b82525050565b6000602082019050610dbf6000830184610d9b565b92915050565b600080600060608486031215610dde57610ddd610af9565b5b6000610dec86828701610d46565b9350506020610dfd86828701610d46565b9250506040610e0e86828701610c91565b9150509250925092565b600060208284031215610e2e57610e2d610af9565b5b6000610e3c84828501610d46565b91505092915050565b610e4e81610b88565b8114610e5957600080fd5b50565b600081359050610e6b81610e45565b92915050565b60008060408385031215610e8857610e87610af9565b5b6000610e9685828601610d46565b9250506020610ea785828601610e5c565b9150509250929050565b600080fd5b600080fd5b600080fd5b60008083601f840112610ed657610ed5610eb1565b5b8235905067ffffffffffffffff811115610ef357610ef2610eb6565b5b602083019150836001820283011115610f0f57610f0e610ebb565b5b9250929050565b600080600080600060808688031215610f3257610f31610af9565b5b6000610f4088828901610d46565b9550506020610f5188828901610d46565b9450506040610f6288828901610c91565b935050606086013567ffffffffffffffff811115610f8357610f82610afe565b5b610f8f88828901610ec0565b92509250509295509295909350565b60008060408385031215610fb557610fb4610af9565b5b6000610fc385828601610d46565b9250506020610fd485828601610d46565b9150509250929050565b7f4d6f636b4552433732313a2067696d6d65206d6f7265206d6f6e657921000000600082015250565b6000611014601d83610bc9565b915061101f82610fde565b602082019050919050565b6000602082019050818103600083015261104381611007565b9050919050565b7f4e487b7100000000000000000000000000000000000000000000000000000000600052601160045260246000fd5b600061108482610c70565b91507fffffffffffffffffffffffffffffffffffffffffffffffffffffffffffffffff82036110b6576110b561104a565b5b600182019050919050565b600081905092915050565b7f68747470733a2f2f6578616d706c652e636f6d2f746f6b656e2f000000000000600082015250565b6000611102601a836110c1565b915061110d826110cc565b601a82019050919050565b600061112382610bbe565b61112d81856110c1565b935061113d818560208601610bda565b80840191505092915050565b6000611154826110f5565b91506111608284611118565b91508190509291505056fea264697066735822122081f5a42aa79eb0f4181971d38068d86acb6020e1efa9d335ce797fe0c757f9cd64736f6c63430008180033","opcodes":"PUSH1 0x80 PUSH1 0x40 MSTORE PUSH8 0x16345785D8A0000 PUSH1 0x1 SSTORE CALLVALUE DUP1 ISZERO PUSH2 0x1C JUMPI PUSH1 0x0 DUP1 REVERT JUMPDEST POP PUSH2 0x11A1 DUP1 PUSH2 0x2C PUSH1 0x0 CODECOPY PUSH1 0x0 RETURN INVALID PUSH1 0x80 PUSH1 0x40 MSTORE PUSH1 0x4 CALLDATASIZE LT PUSH2 0xF3 JUMPI PUSH1 0x0 CALLDATALOAD PUSH1 0xE0 SHR DUP1 PUSH4 0x6817C76C GT PUSH2 0x8A JUMPI DUP1 PUSH4 0xA22CB465 GT PUSH2 0x59 JUMPI DUP1 PUSH4 0xA22CB465 EQ PUSH2 0x308 JUMPI DUP1 PUSH4 0xB88D4FDE EQ PUSH2 0x331 JUMPI DUP1 PUSH4 0xC87B56DD EQ PUSH2 0x34D JUMPI DUP1 PUSH4 0xE985E9C5 EQ PUSH2 0x38A JUMPI PUSH2 0xF3 JUMP JUMPDEST DUP1 PUSH4 0x6817C76C EQ PUSH2 0x259 JUMPI DUP1 PUSH4 0x6A627842 EQ PUSH2 0x284 JUMPI DUP1 PUSH4 0x70A08231 EQ PUSH2 0x2A0 JUMPI DUP1 PUSH4 0x95D89B41 EQ PUSH2 0x2DD JUMPI PUSH2 0xF3 JUMP JUMPDEST DUP1 PUSH4 0x18160DDD GT PUSH2 0xC6 JUMPI DUP1 PUSH4 0x18160DDD EQ PUSH2 0x1B9 JUMPI DUP1 PUSH4 0x23B872DD EQ PUSH2 0x1E4 JUMPI DUP1 PUSH4 0x42842E0E EQ PUSH2 0x200 JUMPI DUP1 PUSH4 0x6352211E EQ PUSH2 0x21C JUMPI PUSH2 0xF3 JUMP JUMPDEST DUP1 PUSH4 0x1FFC9A7 EQ PUSH2 0xF8 JUMPI DUP1 PUSH4 0x6FDDE03 EQ PUSH2 0x135 JUMPI DUP1 PUSH4 0x81812FC EQ PUSH2 0x160 JUMPI DUP1 PUSH4 0x95EA7B3 EQ PUSH2 0x19D JUMPI JUMPDEST PUSH1 0x0 DUP1 REVERT JUMPDEST CALLVALUE DUP1 ISZERO PUSH2 0x104 JUMPI PUSH1 0x0 DUP1 REVERT JUMPDEST POP PUSH2 0x11F PUSH1 0x4 DUP1 CALLDATASIZE SUB DUP2 ADD SWAP1 PUSH2 0x11A SWAP2 SWAP1 PUSH2 0xB5B JUMP JUMPDEST PUSH2 0x3C7 JUMP JUMPDEST PUSH1 0x40 MLOAD PUSH2 0x12C SWAP2 SWAP1 PUSH2 0xBA3 JUMP JUMPDEST PUSH1 0x40 MLOAD DUP1 SWAP2 SUB SWAP1 RETURN JUMPDEST CALLVALUE DUP1 ISZERO PUSH2 0x141 JUMPI PUSH1 0x0 DUP1 REVERT JUMPDEST POP PUSH2 0x14A PUSH2 0x3EC JUMP JUMPDEST PUSH1 0x40 MLOAD PUSH2 0x157 SWAP2 SWAP1 PUSH2 0xC4E JUMP JUMPDEST PUSH1 0x40 MLOAD DUP1 SWAP2 SUB SWAP1 RETURN JUMPDEST CALLVALUE DUP1 ISZERO PUSH2 0x16C JUMPI PUSH1 0x0 DUP1 REVERT JUMPDEST POP PUSH2 0x187 PUSH1 0x4 DUP1 CALLDATASIZE SUB DUP2 ADD SWAP1 PUSH2 0x182 SWAP2 SWAP1 PUSH2 0xCA6 JUMP JUMPDEST PUSH2 0x429 JUMP JUMPDEST PUSH1 0x40 MLOAD PUSH2 0x194 SWAP2 SWAP1 PUSH2 0xD14 JUMP JUMPDEST PUSH1 0x40 MLOAD DUP1 SWAP2 SUB SWAP1 RETURN JUMPDEST PUSH2 0x1B7 PUSH1 0x4 DUP1 CALLDATASIZE SUB DUP2 ADD SWAP1 PUSH2 0x1B2 SWAP2 SWAP1 PUSH2 0xD5B JUMP JUMPDEST PUSH2 0x480 JUMP JUMPDEST STOP JUMPDEST CALLVALUE DUP1 ISZERO PUSH2 0x1C5 JUMPI PUSH1 0x0 DUP1 REVERT JUMPDEST POP PUSH2 0x1CE PUSH2 0x48F JUMP JUMPDEST PUSH1 0x40 MLOAD PUSH2 0x1DB SWAP2 SWAP1 PUSH2 0xDAA JUMP JUMPDEST PUSH1 0x40 MLOAD DUP1 SWAP2 SUB SWAP1 RETURN JUMPDEST PUSH2 0x1FE PUSH1 0x4 DUP1 CALLDATASIZE SUB DUP2 ADD SWAP1 PUSH2 0x1F9 SWAP2 SWAP1 PUSH2 0xDC5 JUMP JUMPDEST PUSH2 0x495 JUMP JUMPDEST STOP JUMPDEST PUSH2 0x21A PUSH1 0x4 DUP1 CALLDATASIZE SUB DUP2 ADD SWAP1 PUSH2 0x215 SWAP2 SWAP1 PUSH2 0xDC5 JUMP JUMPDEST PUSH2 0x5C7 JUMP JUMPDEST STOP JUMPDEST CALLVALUE DUP1 ISZERO PUSH2 0x228 JUMPI PUSH1 0x0 DUP1 REVERT JUMPDEST POP PUSH2 0x243 PUSH1 0x4 DUP1 CALLDATASIZE SUB DUP2 ADD SWAP1 PUSH2 0x23E SWAP2 SWAP1 PUSH2 0xCA6 JUMP JUMPDEST PUSH2 0x601 JUMP JUMPDEST PUSH1 0x40 MLOAD PUSH2 0x250 SWAP2 SWAP1 PUSH2 0xD14 JUMP JUMPDEST PUSH1 0x40 MLOAD DUP1 SWAP2 SUB SWAP1 RETURN JUMPDEST CALLVALUE DUP1 ISZERO PUSH2 0x265 JUMPI PUSH1 0x0 DUP1 REVERT JUMPDEST POP PUSH2 0x26E PUSH2 0x626 JUMP JUMPDEST PUSH1 0x40 MLOAD PUSH2 0x27B SWAP2 SWAP1 PUSH2 0xDAA JUMP JUMPDEST PUSH1 0x40 MLOAD DUP1 SWAP2 SUB SWAP1 RETURN JUMPDEST PUSH2 0x29E PUSH1 0x4 DUP1 CALLDATASIZE SUB DUP2 ADD SWAP1 PUSH2 0x299 SWAP2 SWAP1 PUSH2 0xE18 JUMP JUMPDEST PUSH2 0x62C JUMP JUMPDEST STOP JUMPDEST CALLVALUE DUP1 ISZERO PUSH2 0x2AC JUMPI PUSH1 0x0 DUP1 REVERT JUMPDEST POP PUSH2 0x2C7 PUSH1 0x4 DUP1 CALLDATASIZE SUB DUP2 ADD SWAP1 PUSH2 0x2C2 SWAP2 SWAP1 PUSH2 0xE18 JUMP JUMPDEST PUSH2 0x691 JUMP JUMPDEST PUSH1 0x40 MLOAD PUSH2 0x2D4 SWAP2 SWAP1 PUSH2 0xDAA JUMP JUMPDEST PUSH1 0x40 MLOAD DUP1 SWAP2 SUB SWAP1 RETURN JUMPDEST CALLVALUE DUP1 ISZERO PUSH2 0x2E9 JUMPI PUSH1 0x0 DUP1 REVERT JUMPDEST POP PUSH2 0x2F2 PUSH2 0x6E1 JUMP JUMPDEST PUSH1 0x40 MLOAD PUSH2 0x2FF SWAP2 SWAP1 PUSH2 0xC4E JUMP JUMPDEST PUSH1 0x40 MLOAD DUP1 SWAP2 SUB SWAP1 RETURN JUMPDEST CALLVALUE DUP1 ISZERO PUSH2 0x314 JUMPI PUSH1 0x0 DUP1 REVERT JUMPDEST POP PUSH2 0x32F PUSH1 0x4 DUP1 CALLDATASIZE SUB DUP2 ADD SWAP1 PUSH2 0x32A SWAP2 SWAP1 PUSH2 0xE71 JUMP JUMPDEST PUSH2 0x71E JUMP JUMPDEST STOP JUMPDEST PUSH2 0x34B PUSH1 0x4 DUP1 CALLDATASIZE SUB DUP2 ADD SWAP1 PUSH2 0x346 SWAP2 SWAP1 PUSH2 0xF16 JUMP JUMPDEST PUSH2 0x774 JUMP JUMPDEST STOP JUMPDEST CALLVALUE DUP1 ISZERO PUSH2 0x359 JUMPI PUSH1 0x0 DUP1 REVERT JUMPDEST POP PUSH2 0x374 PUSH1 0x4 DUP1 CALLDATASIZE SUB DUP2 ADD SWAP1 PUSH2 0x36F SWAP2 SWAP1 PUSH2 0xCA6 JUMP JUMPDEST PUSH2 0x7E5 JUMP JUMPDEST PUSH1 0x40 MLOAD PUSH2 0x381 SWAP2 SWAP1 PUSH2 0xC4E JUMP JUMPDEST PUSH1 0x40 MLOAD DUP1 SWAP2 SUB SWAP1 RETURN JUMPDEST CALLVALUE DUP1 ISZERO PUSH2 0x396 JUMPI PUSH1 0x0 DUP1 REVERT JUMPDEST POP PUSH2 0x3B1 PUSH1 0x4 DUP1 CALLDATASIZE SUB DUP2 ADD SWAP1 PUSH2 0x3AC SWAP2 SWAP1 PUSH2 0xF9E JUMP JUMPDEST PUSH2 0x816 JUMP JUMPDEST PUSH1 0x40 MLOAD PUSH2 0x3BE SWAP2 SWAP1 PUSH2 0xBA3 JUMP JUMPDEST PUSH1 0x40 MLOAD DUP1 SWAP2 SUB SWAP1 RETURN JUMPDEST PUSH1 0x0 DUP2 PUSH1 0xE0 SHR PUSH4 0x5B5E139F DUP2 EQ PUSH4 0x80AC58CD DUP3 EQ PUSH4 0x1FFC9A7 DUP4 EQ OR OR SWAP2 POP POP SWAP2 SWAP1 POP JUMP JUMPDEST PUSH1 0x60 PUSH1 0x40 MLOAD DUP1 PUSH1 0x40 ADD PUSH1 0x40 MSTORE DUP1 PUSH1 0xB DUP2 MSTORE PUSH1 0x20 ADD PUSH32 0x4D6F636B20455243373231000000000000000000000000000000000000000000 DUP2 MSTORE POP SWAP1 POP SWAP1 JUMP JUMPDEST PUSH1 0x0 DUP2 PUSH1 0x0 MSTORE PUSH32 0x7D8825530A5A2E7A000000000000000000000000000000000000000000000000 PUSH1 0x1C MSTORE PUSH1 0x20 PUSH1 0x0 KECCAK256 DUP3 ADD DUP3 ADD DUP1 SLOAD PUSH1 0x60 SHL PUSH2 0x473 JUMPI PUSH4 0xCEEA21B6 PUSH1 0x0 MSTORE PUSH1 0x4 PUSH1 0x1C REVERT JUMPDEST DUP1 PUSH1 0x1 ADD SLOAD SWAP2 POP POP SWAP2 SWAP1 POP JUMP JUMPDEST PUSH2 0x48B CALLER DUP4 DUP4 PUSH2 0x83A JUMP JUMPDEST POP POP JUMP JUMPDEST PUSH1 0x0 SLOAD DUP2 JUMP JUMPDEST PUSH2 0x4A0 DUP4 DUP4 DUP4 PUSH2 0x8F1 JUMP JUMPDEST PUSH1 0x0 NOT PUSH1 0x60 SHR DUP4 DUP2 AND SWAP4 POP DUP3 DUP2 AND SWAP3 POP DUP2 PUSH1 0x0 MSTORE CALLER PUSH32 0x7D8825530A5A2E7A000000000000000000000000000000000000000000000000 OR PUSH1 0x1C MSTORE PUSH1 0x20 PUSH1 0x0 KECCAK256 DUP3 ADD DUP3 ADD DUP1 SLOAD DUP1 DUP4 AND DUP7 DUP2 EQ DUP2 MUL PUSH2 0x506 JUMPI PUSH8 0xCEEA21B6A1148100 DUP2 ISZERO PUSH1 0x2 SHL MSTORE PUSH1 0x4 PUSH1 0x1C REVERT JUMPDEST DUP7 PUSH1 0x0 MSTORE DUP3 PUSH1 0x1 ADD SLOAD DUP1 CALLER EQ DUP9 CALLER EQ OR PUSH2 0x533 JUMPI PUSH1 0x30 PUSH1 0xC KECCAK256 SLOAD PUSH2 0x532 JUMPI PUSH4 0x4B6E7F18 PUSH1 0x0 MSTORE PUSH1 0x4 PUSH1 0x1C REVERT JUMPDEST JUMPDEST DUP1 ISZERO PUSH2 0x541 JUMPI PUSH1 0x0 DUP5 PUSH1 0x1 ADD SSTORE JUMPDEST POP DUP6 DUP8 XOR DUP3 XOR DUP4 SSTORE PUSH1 0x1C PUSH1 0xC KECCAK256 PUSH1 0x1 DUP2 SLOAD SUB DUP2 SSTORE POP DUP6 PUSH1 0x0 MSTORE PUSH1 0x1C PUSH1 0xC KECCAK256 PUSH1 0x1 DUP2 SLOAD ADD PUSH4 0xFFFFFFFF DUP2 AND DUP9 MUL PUSH2 0x586 JUMPI PUSH8 0xEA553B3401336CEA DUP9 ISZERO PUSH1 0x2 SHL MSTORE PUSH1 0x4 PUSH1 0x1C REVERT JUMPDEST DUP1 DUP3 SSTORE POP POP DUP5 DUP7 DUP9 PUSH32 0xDDF252AD1BE2C89B69C2B068FC378DAA952BA7F163C4A11628F55A4DF523B3EF PUSH1 0x0 CODESIZE LOG4 POP POP POP POP PUSH2 0x5C2 DUP4 DUP4 DUP4 PUSH2 0x8F6 JUMP JUMPDEST POP POP POP JUMP JUMPDEST PUSH2 0x5D2 DUP4 DUP4 DUP4 PUSH2 0x495 JUMP JUMPDEST PUSH2 0x5DB DUP3 PUSH2 0x8FB JUMP JUMPDEST ISZERO PUSH2 0x5FC JUMPI PUSH2 0x5FB DUP4 DUP4 DUP4 PUSH1 0x40 MLOAD DUP1 PUSH1 0x20 ADD PUSH1 0x40 MSTORE DUP1 PUSH1 0x0 DUP2 MSTORE POP PUSH2 0x906 JUMP JUMPDEST JUMPDEST POP POP POP JUMP JUMPDEST PUSH1 0x0 PUSH2 0x60C DUP3 PUSH2 0x993 JUMP JUMPDEST SWAP1 POP DUP1 PUSH2 0x621 JUMPI PUSH4 0xCEEA21B6 PUSH1 0x0 MSTORE PUSH1 0x4 PUSH1 0x1C REVERT JUMPDEST SWAP2 SWAP1 POP JUMP JUMPDEST PUSH1 0x1 SLOAD DUP2 JUMP JUMPDEST PUSH1 0x1 SLOAD CALLVALUE LT ISZERO PUSH2 0x671 JUMPI PUSH1 0x40 MLOAD PUSH32 0x8C379A000000000000000000000000000000000000000000000000000000000 DUP2 MSTORE PUSH1 0x4 ADD PUSH2 0x668 SWAP1 PUSH2 0x102A JUMP JUMPDEST PUSH1 0x40 MLOAD DUP1 SWAP2 SUB SWAP1 REVERT JUMPDEST PUSH2 0x68E DUP2 PUSH1 0x0 DUP1 DUP2 SLOAD PUSH2 0x683 SWAP1 PUSH2 0x1079 JUMP JUMPDEST SWAP2 SWAP1 POP DUP2 SWAP1 SSTORE PUSH2 0x9D4 JUMP JUMPDEST POP JUMP JUMPDEST PUSH1 0x0 DUP2 PUSH2 0x6A6 JUMPI PUSH4 0x8F4EB604 PUSH1 0x0 MSTORE PUSH1 0x4 PUSH1 0x1C REVERT JUMPDEST PUSH32 0x7D8825530A5A2E7A000000000000000000000000000000000000000000000000 PUSH1 0x1C MSTORE DUP2 PUSH1 0x0 MSTORE PUSH4 0xFFFFFFFF PUSH1 0x1C PUSH1 0xC KECCAK256 SLOAD AND SWAP1 POP SWAP2 SWAP1 POP JUMP JUMPDEST PUSH1 0x60 PUSH1 0x40 MLOAD DUP1 PUSH1 0x40 ADD PUSH1 0x40 MSTORE DUP1 PUSH1 0x4 DUP2 MSTORE PUSH1 0x20 ADD PUSH32 0x4D4F434B00000000000000000000000000000000000000000000000000000000 DUP2 MSTORE POP SWAP1 POP SWAP1 JUMP JUMPDEST DUP1 ISZERO ISZERO SWAP1 POP DUP2 PUSH1 0x1C MSTORE PUSH8 0xA5A2E7A00000000 PUSH1 0x8 MSTORE CALLER PUSH1 0x0 MSTORE DUP1 PUSH1 0x30 PUSH1 0xC KECCAK256 SSTORE DUP1 PUSH1 0x0 MSTORE DUP2 PUSH1 0x60 SHL PUSH1 0x60 SHR CALLER PUSH32 0x17307EAB39AB6107E8899845AD3D59BD9653F200F220920489CA2B5937696C31 PUSH1 0x20 PUSH1 0x0 LOG3 POP POP JUMP JUMPDEST PUSH2 0x77F DUP6 DUP6 DUP6 PUSH2 0x495 JUMP JUMPDEST PUSH2 0x788 DUP5 PUSH2 0x8FB JUMP JUMPDEST ISZERO PUSH2 0x7DE JUMPI PUSH2 0x7DD DUP6 DUP6 DUP6 DUP6 DUP6 DUP1 DUP1 PUSH1 0x1F ADD PUSH1 0x20 DUP1 SWAP2 DIV MUL PUSH1 0x20 ADD PUSH1 0x40 MLOAD SWAP1 DUP2 ADD PUSH1 0x40 MSTORE DUP1 SWAP4 SWAP3 SWAP2 SWAP1 DUP2 DUP2 MSTORE PUSH1 0x20 ADD DUP4 DUP4 DUP1 DUP3 DUP5 CALLDATACOPY PUSH1 0x0 DUP2 DUP5 ADD MSTORE PUSH1 0x1F NOT PUSH1 0x1F DUP3 ADD AND SWAP1 POP DUP1 DUP4 ADD SWAP3 POP POP POP POP POP POP POP PUSH2 0x906 JUMP JUMPDEST JUMPDEST POP POP POP POP POP JUMP JUMPDEST PUSH1 0x60 PUSH2 0x7F0 DUP3 PUSH2 0xAA8 JUMP JUMPDEST PUSH1 0x40 MLOAD PUSH1 0x20 ADD PUSH2 0x800 SWAP2 SWAP1 PUSH2 0x1149 JUMP JUMPDEST PUSH1 0x40 MLOAD PUSH1 0x20 DUP2 DUP4 SUB SUB DUP2 MSTORE SWAP1 PUSH1 0x40 MSTORE SWAP1 POP SWAP2 SWAP1 POP JUMP JUMPDEST PUSH1 0x0 DUP2 PUSH1 0x1C MSTORE PUSH8 0xA5A2E7A00000000 PUSH1 0x8 MSTORE DUP3 PUSH1 0x0 MSTORE PUSH1 0x30 PUSH1 0xC KECCAK256 SLOAD SWAP1 POP SWAP3 SWAP2 POP POP JUMP JUMPDEST PUSH1 0x0 NOT PUSH1 0x60 SHR DUP3 DUP2 AND SWAP3 POP DUP4 DUP2 AND SWAP4 POP DUP2 PUSH1 0x0 MSTORE DUP4 PUSH32 0x7D8825530A5A2E7A000000000000000000000000000000000000000000000000 OR PUSH1 0x1C MSTORE PUSH1 0x20 PUSH1 0x0 KECCAK256 DUP3 ADD DUP3 ADD DUP1 SLOAD DUP3 AND DUP1 PUSH2 0x894 JUMPI PUSH4 0xCEEA21B6 PUSH1 0x0 MSTORE PUSH1 0x4 PUSH1 0x1C REVERT JUMPDEST DUP1 DUP7 EQ DUP7 ISZERO OR PUSH2 0x8BB JUMPI DUP1 PUSH1 0x0 MSTORE PUSH1 0x30 PUSH1 0xC KECCAK256 SLOAD PUSH2 0x8BA JUMPI PUSH4 0x4B6E7F18 PUSH1 0x0 MSTORE PUSH1 0x4 PUSH1 0x1C REVERT JUMPDEST JUMPDEST DUP5 DUP3 PUSH1 0x1 ADD SSTORE DUP4 DUP6 DUP3 PUSH32 0x8C5BE1E5EBEC7D5BD14F71427D1E84F3DD0314C0F7B2291E5B200AC8C7C3B925 PUSH1 0x0 CODESIZE LOG4 POP POP POP POP POP POP JUMP JUMPDEST POP POP POP JUMP JUMPDEST POP POP POP JUMP JUMPDEST PUSH1 0x0 DUP2 EXTCODESIZE SWAP1 POP SWAP2 SWAP1 POP JUMP JUMPDEST PUSH1 0x40 MLOAD PUSH4 0x150B7A02 DUP1 DUP3 MSTORE CALLER PUSH1 0x20 DUP4 ADD MSTORE DUP6 PUSH1 0x60 SHL PUSH1 0x60 SHR PUSH1 0x40 DUP4 ADD MSTORE DUP4 PUSH1 0x60 DUP4 ADD MSTORE PUSH1 0x80 DUP1 DUP4 ADD MSTORE DUP3 MLOAD DUP1 PUSH1 0xA0 DUP5 ADD MSTORE DUP1 ISZERO PUSH2 0x94D JUMPI DUP1 PUSH1 0xC0 DUP5 ADD DUP3 PUSH1 0x20 DUP8 ADD PUSH1 0x4 GAS STATICCALL POP JUMPDEST PUSH1 0x20 DUP4 PUSH1 0xA4 DUP4 ADD PUSH1 0x1C DUP7 ADD PUSH1 0x0 DUP11 GAS CALL PUSH2 0x971 JUMPI RETURNDATASIZE ISZERO PUSH2 0x970 JUMPI RETURNDATASIZE PUSH1 0x0 DUP5 RETURNDATACOPY RETURNDATASIZE DUP4 REVERT JUMPDEST JUMPDEST DUP2 PUSH1 0xE0 SHL DUP4 MLOAD EQ PUSH2 0x98A JUMPI PUSH4 0xD1A57ED6 PUSH1 0x0 MSTORE PUSH1 0x4 PUSH1 0x1C REVERT JUMPDEST POP POP POP POP POP POP POP JUMP JUMPDEST PUSH1 0x0 DUP2 PUSH1 0x0 MSTORE PUSH32 0x7D8825530A5A2E7A000000000000000000000000000000000000000000000000 PUSH1 0x1C MSTORE PUSH1 0x20 PUSH1 0x0 KECCAK256 DUP3 ADD DUP3 ADD SLOAD PUSH1 0x60 SHL PUSH1 0x60 SHR SWAP1 POP SWAP2 SWAP1 POP JUMP JUMPDEST PUSH2 0x9E0 PUSH1 0x0 DUP4 DUP4 PUSH2 0x8F1 JUMP JUMPDEST DUP2 PUSH1 0x60 SHL PUSH1 0x60 SHR SWAP2 POP DUP1 PUSH1 0x0 MSTORE PUSH32 0x7D8825530A5A2E7A000000000000000000000000000000000000000000000000 PUSH1 0x1C MSTORE PUSH1 0x20 PUSH1 0x0 KECCAK256 DUP2 ADD DUP2 ADD DUP1 SLOAD DUP1 PUSH1 0x60 SHL ISZERO PUSH2 0xA33 JUMPI PUSH4 0xC991CBB1 PUSH1 0x0 MSTORE PUSH1 0x4 PUSH1 0x1C REVERT JUMPDEST DUP4 DUP2 OR DUP3 SSTORE DUP4 PUSH1 0x0 MSTORE PUSH1 0x1C PUSH1 0xC KECCAK256 PUSH1 0x1 DUP2 SLOAD ADD PUSH4 0xFFFFFFFF DUP2 AND DUP7 MUL PUSH2 0xA68 JUMPI PUSH8 0xEA553B3401336CEA DUP7 ISZERO PUSH1 0x2 SHL MSTORE PUSH1 0x4 PUSH1 0x1C REVERT JUMPDEST DUP1 DUP3 SSTORE POP POP DUP3 DUP5 PUSH1 0x0 PUSH32 0xDDF252AD1BE2C89B69C2B068FC378DAA952BA7F163C4A11628F55A4DF523B3EF PUSH1 0x0 CODESIZE LOG4 POP POP PUSH2 0xAA4 PUSH1 0x0 DUP4 DUP4 PUSH2 0x8F6 JUMP JUMPDEST POP POP JUMP JUMPDEST PUSH1 0x60 PUSH1 0x80 PUSH1 0x40 MLOAD ADD SWAP1 POP PUSH1 0x20 DUP2 ADD PUSH1 0x40 MSTORE PUSH1 0x0 DUP2 MSTORE DUP1 PUSH1 0x0 NOT DUP4 JUMPDEST PUSH1 0x1 ISZERO PUSH2 0xAE4 JUMPI DUP2 DUP5 ADD SWAP4 POP PUSH1 0xA DUP2 MOD PUSH1 0x30 ADD DUP5 MSTORE8 PUSH1 0xA DUP2 DIV SWAP1 POP DUP1 PUSH2 0xAC3 JUMPI JUMPDEST POP DUP3 DUP3 SUB PUSH1 0x20 DUP5 SUB SWAP4 POP DUP1 DUP5 MSTORE POP POP POP SWAP2 SWAP1 POP JUMP JUMPDEST PUSH1 0x0 DUP1 REVERT JUMPDEST PUSH1 0x0 DUP1 REVERT JUMPDEST PUSH1 0x0 PUSH32 0xFFFFFFFF00000000000000000000000000000000000000000000000000000000 DUP3 AND SWAP1 POP SWAP2 SWAP1 POP JUMP JUMPDEST PUSH2 0xB38 DUP2 PUSH2 0xB03 JUMP JUMPDEST DUP2 EQ PUSH2 0xB43 JUMPI PUSH1 0x0 DUP1 REVERT JUMPDEST POP JUMP JUMPDEST PUSH1 0x0 DUP2 CALLDATALOAD SWAP1 POP PUSH2 0xB55 DUP2 PUSH2 0xB2F JUMP JUMPDEST SWAP3 SWAP2 POP POP JUMP JUMPDEST PUSH1 0x0 PUSH1 0x20 DUP3 DUP5 SUB SLT ISZERO PUSH2 0xB71 JUMPI PUSH2 0xB70 PUSH2 0xAF9 JUMP JUMPDEST JUMPDEST PUSH1 0x0 PUSH2 0xB7F DUP5 DUP3 DUP6 ADD PUSH2 0xB46 JUMP JUMPDEST SWAP2 POP POP SWAP3 SWAP2 POP POP JUMP JUMPDEST PUSH1 0x0 DUP2 ISZERO ISZERO SWAP1 POP SWAP2 SWAP1 POP JUMP JUMPDEST PUSH2 0xB9D DUP2 PUSH2 0xB88 JUMP JUMPDEST DUP3 MSTORE POP POP JUMP JUMPDEST PUSH1 0x0 PUSH1 0x20 DUP3 ADD SWAP1 POP PUSH2 0xBB8 PUSH1 0x0 DUP4 ADD DUP5 PUSH2 0xB94 JUMP JUMPDEST SWAP3 SWAP2 POP POP JUMP JUMPDEST PUSH1 0x0 DUP2 MLOAD SWAP1 POP SWAP2 SWAP1 POP JUMP JUMPDEST PUSH1 0x0 DUP3 DUP3 MSTORE PUSH1 0x20 DUP3 ADD SWAP1 POP SWAP3 SWAP2 POP POP JUMP JUMPDEST PUSH1 0x0 JUMPDEST DUP4 DUP2 LT ISZERO PUSH2 0xBF8 JUMPI DUP1 DUP3 ADD MLOAD DUP2 DUP5 ADD MSTORE PUSH1 0x20 DUP2 ADD SWAP1 POP PUSH2 0xBDD JUMP JUMPDEST PUSH1 0x0 DUP5 DUP5 ADD MSTORE POP POP POP POP JUMP JUMPDEST PUSH1 0x0 PUSH1 0x1F NOT PUSH1 0x1F DUP4 ADD AND SWAP1 POP SWAP2 SWAP1 POP JUMP JUMPDEST PUSH1 0x0 PUSH2 0xC20 DUP3 PUSH2 0xBBE JUMP JUMPDEST PUSH2 0xC2A DUP2 DUP6 PUSH2 0xBC9 JUMP JUMPDEST SWAP4 POP PUSH2 0xC3A DUP2 DUP6 PUSH1 0x20 DUP7 ADD PUSH2 0xBDA JUMP JUMPDEST PUSH2 0xC43 DUP2 PUSH2 0xC04 JUMP JUMPDEST DUP5 ADD SWAP2 POP POP SWAP3 SWAP2 POP POP JUMP JUMPDEST PUSH1 0x0 PUSH1 0x20 DUP3 ADD SWAP1 POP DUP2 DUP2 SUB PUSH1 0x0 DUP4 ADD MSTORE PUSH2 0xC68 DUP2 DUP5 PUSH2 0xC15 JUMP JUMPDEST SWAP1 POP SWAP3 SWAP2 POP POP JUMP JUMPDEST PUSH1 0x0 DUP2 SWAP1 POP SWAP2 SWAP1 POP JUMP JUMPDEST PUSH2 0xC83 DUP2 PUSH2 0xC70 JUMP JUMPDEST DUP2 EQ PUSH2 0xC8E JUMPI PUSH1 0x0 DUP1 REVERT JUMPDEST POP JUMP JUMPDEST PUSH1 0x0 DUP2 CALLDATALOAD SWAP1 POP PUSH2 0xCA0 DUP2 PUSH2 0xC7A JUMP JUMPDEST SWAP3 SWAP2 POP POP JUMP JUMPDEST PUSH1 0x0 PUSH1 0x20 DUP3 DUP5 SUB SLT ISZERO PUSH2 0xCBC JUMPI PUSH2 0xCBB PUSH2 0xAF9 JUMP JUMPDEST JUMPDEST PUSH1 0x0 PUSH2 0xCCA DUP5 DUP3 DUP6 ADD PUSH2 0xC91 JUMP JUMPDEST SWAP2 POP POP SWAP3 SWAP2 POP POP JUMP JUMPDEST PUSH1 0x0 PUSH20 0xFFFFFFFFFFFFFFFFFFFFFFFFFFFFFFFFFFFFFFFF DUP3 AND SWAP1 POP SWAP2 SWAP1 POP JUMP JUMPDEST PUSH1 0x0 PUSH2 0xCFE DUP3 PUSH2 0xCD3 JUMP JUMPDEST SWAP1 POP SWAP2 SWAP1 POP JUMP JUMPDEST PUSH2 0xD0E DUP2 PUSH2 0xCF3 JUMP JUMPDEST DUP3 MSTORE POP POP JUMP JUMPDEST PUSH1 0x0 PUSH1 0x20 DUP3 ADD SWAP1 POP PUSH2 0xD29 PUSH1 0x0 DUP4 ADD DUP5 PUSH2 0xD05 JUMP JUMPDEST SWAP3 SWAP2 POP POP JUMP JUMPDEST PUSH2 0xD38 DUP2 PUSH2 0xCF3 JUMP JUMPDEST DUP2 EQ PUSH2 0xD43 JUMPI PUSH1 0x0 DUP1 REVERT JUMPDEST POP JUMP JUMPDEST PUSH1 0x0 DUP2 CALLDATALOAD SWAP1 POP PUSH2 0xD55 DUP2 PUSH2 0xD2F JUMP JUMPDEST SWAP3 SWAP2 POP POP JUMP JUMPDEST PUSH1 0x0 DUP1 PUSH1 0x40 DUP4 DUP6 SUB SLT ISZERO PUSH2 0xD72 JUMPI PUSH2 0xD71 PUSH2 0xAF9 JUMP JUMPDEST JUMPDEST PUSH1 0x0 PUSH2 0xD80 DUP6 DUP3 DUP7 ADD PUSH2 0xD46 JUMP JUMPDEST SWAP3 POP POP PUSH1 0x20 PUSH2 0xD91 DUP6 DUP3 DUP7 ADD PUSH2 0xC91 JUMP JUMPDEST SWAP2 POP POP SWAP3 POP SWAP3 SWAP1 POP JUMP JUMPDEST PUSH2 0xDA4 DUP2 PUSH2 0xC70 JUMP JUMPDEST DUP3 MSTORE POP POP JUMP JUMPDEST PUSH1 0x0 PUSH1 0x20 DUP3 ADD SWAP1 POP PUSH2 0xDBF PUSH1 0x0 DUP4 ADD DUP5 PUSH2 0xD9B JUMP JUMPDEST SWAP3 SWAP2 POP POP JUMP JUMPDEST PUSH1 0x0 DUP1 PUSH1 0x0 PUSH1 0x60 DUP5 DUP7 SUB SLT ISZERO PUSH2 0xDDE JUMPI PUSH2 0xDDD PUSH2 0xAF9 JUMP JUMPDEST JUMPDEST PUSH1 0x0 PUSH2 0xDEC DUP7 DUP3 DUP8 ADD PUSH2 0xD46 JUMP JUMPDEST SWAP4 POP POP PUSH1 0x20 PUSH2 0xDFD DUP7 DUP3 DUP8 ADD PUSH2 0xD46 JUMP JUMPDEST SWAP3 POP POP PUSH1 0x40 PUSH2 0xE0E DUP7 DUP3 DUP8 ADD PUSH2 0xC91 JUMP JUMPDEST SWAP2 POP POP SWAP3 POP SWAP3 POP SWAP3 JUMP JUMPDEST PUSH1 0x0 PUSH1 0x20 DUP3 DUP5 SUB SLT ISZERO PUSH2 0xE2E JUMPI PUSH2 0xE2D PUSH2 0xAF9 JUMP JUMPDEST JUMPDEST PUSH1 0x0 PUSH2 0xE3C DUP5 DUP3 DUP6 ADD PUSH2 0xD46 JUMP JUMPDEST SWAP2 POP POP SWAP3 SWAP2 POP POP JUMP JUMPDEST PUSH2 0xE4E DUP2 PUSH2 0xB88 JUMP JUMPDEST DUP2 EQ PUSH2 0xE59 JUMPI PUSH1 0x0 DUP1 REVERT JUMPDEST POP JUMP JUMPDEST PUSH1 0x0 DUP2 CALLDATALOAD SWAP1 POP PUSH2 0xE6B DUP2 PUSH2 0xE45 JUMP JUMPDEST SWAP3 SWAP2 POP POP JUMP JUMPDEST PUSH1 0x0 DUP1 PUSH1 0x40 DUP4 DUP6 SUB SLT ISZERO PUSH2 0xE88 JUMPI PUSH2 0xE87 PUSH2 0xAF9 JUMP JUMPDEST JUMPDEST PUSH1 0x0 PUSH2 0xE96 DUP6 DUP3 DUP7 ADD PUSH2 0xD46 JUMP JUMPDEST SWAP3 POP POP PUSH1 0x20 PUSH2 0xEA7 DUP6 DUP3 DUP7 ADD PUSH2 0xE5C JUMP JUMPDEST SWAP2 POP POP SWAP3 POP SWAP3 SWAP1 POP JUMP JUMPDEST PUSH1 0x0 DUP1 REVERT JUMPDEST PUSH1 0x0 DUP1 REVERT JUMPDEST PUSH1 0x0 DUP1 REVERT JUMPDEST PUSH1 0x0 DUP1 DUP4 PUSH1 0x1F DUP5 ADD SLT PUSH2 0xED6 JUMPI PUSH2 0xED5 PUSH2 0xEB1 JUMP JUMPDEST JUMPDEST DUP3 CALLDATALOAD SWAP1 POP PUSH8 0xFFFFFFFFFFFFFFFF DUP2 GT ISZERO PUSH2 0xEF3 JUMPI PUSH2 0xEF2 PUSH2 0xEB6 JUMP JUMPDEST JUMPDEST PUSH1 0x20 DUP4 ADD SWAP2 POP DUP4 PUSH1 0x1 DUP3 MUL DUP4 ADD GT ISZERO PUSH2 0xF0F JUMPI PUSH2 0xF0E PUSH2 0xEBB JUMP JUMPDEST JUMPDEST SWAP3 POP SWAP3 SWAP1 POP JUMP JUMPDEST PUSH1 0x0 DUP1 PUSH1 0x0 DUP1 PUSH1 0x0 PUSH1 0x80 DUP7 DUP9 SUB SLT ISZERO PUSH2 0xF32 JUMPI PUSH2 0xF31 PUSH2 0xAF9 JUMP JUMPDEST JUMPDEST PUSH1 0x0 PUSH2 0xF40 DUP9 DUP3 DUP10 ADD PUSH2 0xD46 JUMP JUMPDEST SWAP6 POP POP PUSH1 0x20 PUSH2 0xF51 DUP9 DUP3 DUP10 ADD PUSH2 0xD46 JUMP JUMPDEST SWAP5 POP POP PUSH1 0x40 PUSH2 0xF62 DUP9 DUP3 DUP10 ADD PUSH2 0xC91 JUMP JUMPDEST SWAP4 POP POP PUSH1 0x60 DUP7 ADD CALLDATALOAD PUSH8 0xFFFFFFFFFFFFFFFF DUP2 GT ISZERO PUSH2 0xF83 JUMPI PUSH2 0xF82 PUSH2 0xAFE JUMP JUMPDEST JUMPDEST PUSH2 0xF8F DUP9 DUP3 DUP10 ADD PUSH2 0xEC0 JUMP JUMPDEST SWAP3 POP SWAP3 POP POP SWAP3 SWAP6 POP SWAP3 SWAP6 SWAP1 SWAP4 POP JUMP JUMPDEST PUSH1 0x0 DUP1 PUSH1 0x40 DUP4 DUP6 SUB SLT ISZERO PUSH2 0xFB5 JUMPI PUSH2 0xFB4 PUSH2 0xAF9 JUMP JUMPDEST JUMPDEST PUSH1 0x0 PUSH2 0xFC3 DUP6 DUP3 DUP7 ADD PUSH2 0xD46 JUMP JUMPDEST SWAP3 POP POP PUSH1 0x20 PUSH2 0xFD4 DUP6 DUP3 DUP7 ADD PUSH2 0xD46 JUMP JUMPDEST SWAP2 POP POP SWAP3 POP SWAP3 SWAP1 POP JUMP JUMPDEST PUSH32 0x4D6F636B4552433732313A2067696D6D65206D6F7265206D6F6E657921000000 PUSH1 0x0 DUP3 ADD MSTORE POP JUMP JUMPDEST PUSH1 0x0 PUSH2 0x1014 PUSH1 0x1D DUP4 PUSH2 0xBC9 JUMP JUMPDEST SWAP2 POP PUSH2 0x101F DUP3 PUSH2 0xFDE JUMP JUMPDEST PUSH1 0x20 DUP3 ADD SWAP1 POP SWAP2 SWAP1 POP JUMP JUMPDEST PUSH1 0x0 PUSH1 0x20 DUP3 ADD SWAP1 POP DUP2 DUP2 SUB PUSH1 0x0 DUP4 ADD MSTORE PUSH2 0x1043 DUP2 PUSH2 0x1007 JUMP JUMPDEST SWAP1 POP SWAP2 SWAP1 POP JUMP JUMPDEST PUSH32 0x4E487B7100000000000000000000000000000000000000000000000000000000 PUSH1 0x0 MSTORE PUSH1 0x11 PUSH1 0x4 MSTORE PUSH1 0x24 PUSH1 0x0 REVERT JUMPDEST PUSH1 0x0 PUSH2 0x1084 DUP3 PUSH2 0xC70 JUMP JUMPDEST SWAP2 POP PUSH32 0xFFFFFFFFFFFFFFFFFFFFFFFFFFFFFFFFFFFFFFFFFFFFFFFFFFFFFFFFFFFFFFFF DUP3 SUB PUSH2 0x10B6 JUMPI PUSH2 0x10B5 PUSH2 0x104A JUMP JUMPDEST JUMPDEST PUSH1 0x1 DUP3 ADD SWAP1 POP SWAP2 SWAP1 POP JUMP JUMPDEST PUSH1 0x0 DUP2 SWAP1 POP SWAP3 SWAP2 POP POP JUMP JUMPDEST PUSH32 0x68747470733A2F2F6578616D706C652E636F6D2F746F6B656E2F000000000000 PUSH1 0x0 DUP3 ADD MSTORE POP JUMP JUMPDEST PUSH1 0x0 PUSH2 0x1102 PUSH1 0x1A DUP4 PUSH2 0x10C1 JUMP JUMPDEST SWAP2 POP PUSH2 0x110D DUP3 PUSH2 0x10CC JUMP JUMPDEST PUSH1 0x1A DUP3 ADD SWAP1 POP SWAP2 SWAP1 POP JUMP JUMPDEST PUSH1 0x0 PUSH2 0x1123 DUP3 PUSH2 0xBBE JUMP JUMPDEST PUSH2 0x112D DUP2 DUP6 PUSH2 0x10C1 JUMP JUMPDEST SWAP4 POP PUSH2 0x113D DUP2 DUP6 PUSH1 0x20 DUP7 ADD PUSH2 0xBDA JUMP JUMPDEST DUP1 DUP5 ADD SWAP2 POP POP SWAP3 SWAP2 POP POP JUMP JUMPDEST PUSH1 0x0 PUSH2 0x1154 DUP3 PUSH2 0x10F5 JUMP JUMPDEST SWAP2 POP PUSH2 0x1160 DUP3 DUP5 PUSH2 0x1118 JUMP JUMPDEST SWAP2 POP DUP2 SWAP1 POP SWAP3 SWAP2 POP POP JUMP INVALID LOG2 PUSH5 0x6970667358 0x22 SLT KECCAK256 DUP2 CREATE2 LOG4 0x2A 0xA7 SWAP15 0xB0 DELEGATECALL XOR NOT PUSH18 0xD38068D86ACB6020E1EFA9D335CE797FE0C7 JUMPI 0xF9 0xCD PUSH5 0x736F6C6343 STOP ADDMOD XOR STOP CALLER "},"methodIdentifiers":{"approve(address,uint256)":"095ea7b3","balanceOf(address)":"70a08231","getApproved(uint256)":"081812fc","isApprovedForAll(address,address)":"e985e9c5","mint(address)":"6a627842","mintPrice()":"6817c76c","name()":"06fdde03","ownerOf(uint256)":"6352211e","safeTransferFrom(address,address,uint256)":"42842e0e","safeTransferFrom(address,address,uint256,bytes)":"b88d4fde","setApprovalForAll(address,bool)":"a22cb465","supportsInterface(bytes4)":"01ffc9a7","symbol()":"95d89b41","tokenURI(uint256)":"c87b56dd","totalSupply()":"18160ddd","transferFrom(address,address,uint256)":"23b872dd"}}}}}