{"contracts/BoostRegistry.sol":{"BoostRegistry":{"abi":[{"inputs":[{"internalType":"enum BoostRegistry.RegistryType","name":"registryType","type":"uint8"},{"internalType":"bytes32","name":"identifier","type":"bytes32"}],"name":"AlreadyRegistered","type":"error"},{"inputs":[{"internalType":"address","name":"implementation","type":"address"}],"name":"NotCloneable","type":"error"},{"inputs":[{"internalType":"bytes32","name":"identifier","type":"bytes32"}],"name":"NotRegistered","type":"error"},{"inputs":[],"name":"Reentrancy","type":"error"},{"anonymous":false,"inputs":[{"indexed":true,"internalType":"enum BoostRegistry.RegistryType","name":"registryType","type":"uint8"},{"indexed":true,"internalType":"bytes32","name":"identifier","type":"bytes32"},{"indexed":false,"internalType":"address","name":"baseImplementation","type":"address"},{"indexed":false,"internalType":"contract Cloneable","name":"deployedInstance","type":"address"}],"name":"Deployed","type":"event"},{"anonymous":false,"inputs":[{"indexed":true,"internalType":"enum BoostRegistry.RegistryType","name":"registryType","type":"uint8"},{"indexed":true,"internalType":"bytes32","name":"identifier","type":"bytes32"},{"indexed":false,"internalType":"address","name":"implementation","type":"address"}],"name":"Registered","type":"event"},{"inputs":[{"internalType":"enum BoostRegistry.RegistryType","name":"type_","type":"uint8"},{"internalType":"address","name":"base_","type":"address"},{"internalType":"string","name":"name_","type":"string"},{"internalType":"bytes","name":"data_","type":"bytes"}],"name":"deployClone","outputs":[{"internalType":"contract Cloneable","name":"instance","type":"address"}],"stateMutability":"nonpayable","type":"function"},{"inputs":[{"internalType":"bytes32","name":"identifier_","type":"bytes32"}],"name":"getBaseImplementation","outputs":[{"internalType":"contract Cloneable","name":"implementation","type":"address"}],"stateMutability":"view","type":"function"},{"inputs":[{"internalType":"bytes32","name":"identifier_","type":"bytes32"}],"name":"getClone","outputs":[{"components":[{"internalType":"enum BoostRegistry.RegistryType","name":"baseType","type":"uint8"},{"internalType":"contract Cloneable","name":"instance","type":"address"},{"internalType":"address","name":"deployer","type":"address"},{"internalType":"string","name":"name","type":"string"}],"internalType":"struct BoostRegistry.Clone","name":"clone","type":"tuple"}],"stateMutability":"view","type":"function"},{"inputs":[{"internalType":"enum BoostRegistry.RegistryType","name":"type_","type":"uint8"},{"internalType":"address","name":"base_","type":"address"},{"internalType":"address","name":"deployer_","type":"address"},{"internalType":"string","name":"name_","type":"string"}],"name":"getCloneIdentifier","outputs":[{"internalType":"bytes32","name":"identifier","type":"bytes32"}],"stateMutability":"pure","type":"function"},{"inputs":[{"internalType":"address","name":"deployer_","type":"address"}],"name":"getClones","outputs":[{"internalType":"bytes32[]","name":"","type":"bytes32[]"}],"stateMutability":"view","type":"function"},{"inputs":[{"internalType":"enum BoostRegistry.RegistryType","name":"type_","type":"uint8"},{"internalType":"string","name":"name_","type":"string"}],"name":"getIdentifier","outputs":[{"internalType":"bytes32","name":"identifier","type":"bytes32"}],"stateMutability":"pure","type":"function"},{"inputs":[{"internalType":"enum BoostRegistry.RegistryType","name":"type_","type":"uint8"},{"internalType":"string","name":"name_","type":"string"},{"internalType":"address","name":"implementation_","type":"address"}],"name":"register","outputs":[],"stateMutability":"nonpayable","type":"function"},{"inputs":[{"internalType":"bytes4","name":"interfaceId","type":"bytes4"}],"name":"supportsInterface","outputs":[{"internalType":"bool","name":"","type":"bool"}],"stateMutability":"view","type":"function"}],"evm":{"bytecode":{"linkReferences":{},"object":"6080604052348015600e575f80fd5b50611b4e8061001c5f395ff3fe608060405234801561000f575f80fd5b5060043610610086575f3560e01c8063acc83fc811610059578063acc83fc81461014a578063d12dd4811461017a578063f166879214610196578063fd97064b146101c657610086565b806301ffc9a71461008a5780633aaf1626146100ba578063792aa01c146100ea57806383f388591461011a575b5f80fd5b6100a4600480360381019061009f9190610e0e565b6101f6565b6040516100b19190610e53565b60405180910390f35b6100d460048036038101906100cf9190610e9f565b61025f565b6040516100e191906110a7565b60405180910390f35b61010460048036038101906100ff91906110f1565b610471565b60405161011191906111d3565b60405180910390f35b610134600480360381019061012f9190610e9f565b610504565b6040516101419190611202565b60405180910390f35b610164600480360381019061015f919061129f565b6105ac565b6040516101719190611332565b60405180910390f35b610194600480360381019061018f919061134b565b6105ee565b005b6101b060048036038101906101ab91906113bc565b610818565b6040516101bd9190611332565b60405180910390f35b6101e060048036038101906101db919061146e565b610854565b6040516101ed9190611202565b60405180910390f35b5f7f01ffc9a7000000000000000000000000000000000000000000000000000000007bffffffffffffffffffffffffffffffffffffffffffffffffffffffff1916827bffffffffffffffffffffffffffffffffffffffffffffffffffffffff1916149050919050565b610267610d4e565b60015f8381526020019081526020015f206040518060800160405290815f82015f9054906101000a900460ff1660048111156102a6576102a5610eca565b5b60048111156102b8576102b7610eca565b5b81526020015f820160019054906101000a900473ffffffffffffffffffffffffffffffffffffffff1673ffffffffffffffffffffffffffffffffffffffff1673ffffffffffffffffffffffffffffffffffffffff168152602001600182015f9054906101000a900473ffffffffffffffffffffffffffffffffffffffff1673ffffffffffffffffffffffffffffffffffffffff1673ffffffffffffffffffffffffffffffffffffffff1681526020016002820180546103769061153e565b80601f01602080910402602001604051908101604052809291908181526020018280546103a29061153e565b80156103ed5780601f106103c4576101008083540402835291602001916103ed565b820191905f5260205f20905b8154815290600101906020018083116103d057829003601f168201915b50505050508152505090505f73ffffffffffffffffffffffffffffffffffffffff16816020015173ffffffffffffffffffffffffffffffffffffffff160361046c57816040517f8cc00d160000000000000000000000000000000000000000000000000000000081526004016104639190611332565b60405180910390fd5b919050565b606060025f8373ffffffffffffffffffffffffffffffffffffffff1673ffffffffffffffffffffffffffffffffffffffff1681526020019081526020015f208054806020026020016040519081016040528092919081815260200182805480156104f857602002820191905f5260205f20905b8154815260200190600101908083116104e4575b50505050509050919050565b5f805f8381526020019081526020015f205f9054906101000a900473ffffffffffffffffffffffffffffffffffffffff1690505f73ffffffffffffffffffffffffffffffffffffffff168173ffffffffffffffffffffffffffffffffffffffff16036105a757816040517f8cc00d1600000000000000000000000000000000000000000000000000000000815260040161059e9190611332565b60405180910390fd5b919050565b5f6105e386868686866040516020016105c894939291906115ef565b60405160208183030381529060405280519060200120610c1c565b905095945050505050565b808073ffffffffffffffffffffffffffffffffffffffff166301ffc9a77f42606236000000000000000000000000000000000000000000000000000000006040518263ffffffff1660e01b81526004016106489190611638565b602060405180830381865afa158015610663573d5f803e3d5ffd5b505050506040513d601f19601f82011682018060405250810190610687919061167b565b6106c857806040517fd3dd30120000000000000000000000000000000000000000000000000000000081526004016106bf91906116b5565b60405180910390fd5b5f6106d4868686610818565b90505f73ffffffffffffffffffffffffffffffffffffffff165f808381526020019081526020015f205f9054906101000a900473ffffffffffffffffffffffffffffffffffffffff1673ffffffffffffffffffffffffffffffffffffffff16146107775785816040517f96b5684c00000000000000000000000000000000000000000000000000000000815260040161076e9291906116dd565b60405180910390fd5b825f808381526020019081526020015f205f6101000a81548173ffffffffffffffffffffffffffffffffffffffff021916908373ffffffffffffffffffffffffffffffffffffffff160217905550808660048111156107d9576107d8610eca565b5b7f660d31df25c96b8a337fcf12a56b7363e5a997639db853d5dbaec7c01f31bd808560405161080891906116b5565b60405180910390a3505050505050565b5f61084b848484604051602001610830929190611704565b60405160208183030381529060405280519060200120610c1c565b90509392505050565b5f3068929eee149b4bd2126854036108735763ab143c065f526004601cfd5b3068929eee149b4bd212685561091b878787873360405160200161089b959493929190611750565b6040516020818303038152906040528051906020012084848080601f0160208091040260200160405190810160405280939291908181526020018383808284375f81840152601f19601f820116905080830192505050505050508873ffffffffffffffffffffffffffffffffffffffff16610c4e9092919063ffffffff16565b90505f61092b88883389896105ac565b90505f73ffffffffffffffffffffffffffffffffffffffff1660015f8381526020019081526020015f205f0160019054906101000a900473ffffffffffffffffffffffffffffffffffffffff1673ffffffffffffffffffffffffffffffffffffffff16146109d25787816040517f96b5684c0000000000000000000000000000000000000000000000000000000081526004016109c99291906116dd565b60405180910390fd5b60025f3373ffffffffffffffffffffffffffffffffffffffff1673ffffffffffffffffffffffffffffffffffffffff1681526020019081526020015f2081908060018154018082558091505060019003905f5260205f20015f90919091909150556040518060800160405280896004811115610a5157610a50610eca565b5b81526020018373ffffffffffffffffffffffffffffffffffffffff1681526020013373ffffffffffffffffffffffffffffffffffffffff16815260200187878080601f0160208091040260200160405190810160405280939291908181526020018383808284375f81840152601f19601f8201169050808301925050505050505081525060015f8381526020019081526020015f205f820151815f015f6101000a81548160ff02191690836004811115610b0e57610b0d610eca565b5b02179055506020820151815f0160016101000a81548173ffffffffffffffffffffffffffffffffffffffff021916908373ffffffffffffffffffffffffffffffffffffffff1602179055506040820151816001015f6101000a81548173ffffffffffffffffffffffffffffffffffffffff021916908373ffffffffffffffffffffffffffffffffffffffff1602179055506060820151816002019081610bb49190611965565b5090505080886004811115610bcc57610bcb610eca565b5b7f2348fcdb9847b17a183e53aa32c0c5c76afdef8fcb14bb51f216c6611701ab1a8985604051610bfd929190611a34565b60405180910390a3503868929eee149b4bd21268559695505050505050565b5f8282604051602001610c30929190611a7b565b60405160208183030381529060405280519060200120905092915050565b5f610c78838573ffffffffffffffffffffffffffffffffffffffff16610ce790919063ffffffff16565b90508073ffffffffffffffffffffffffffffffffffffffff1663439fab91836040518263ffffffff1660e01b8152600401610cb39190611af8565b5f604051808303815f87803b158015610cca575f80fd5b505af1158015610cdc573d5f803e3d5ffd5b505050509392505050565b5f610cf35f8484610cfb565b905092915050565b5f6c5af43d3d93803e602a57fd5bf36021528260145273602c3d8160093d39f33d3d3d3d363d3d37363d735f52816035600c86f5905080610d435763301164255f526004601cfd5b5f6021529392505050565b60405180608001604052805f6004811115610d6c57610d6b610eca565b5b81526020015f73ffffffffffffffffffffffffffffffffffffffff1681526020015f73ffffffffffffffffffffffffffffffffffffffff168152602001606081525090565b5f80fd5b5f80fd5b5f7fffffffff0000000000000000000000000000000000000000000000000000000082169050919050565b610ded81610db9565b8114610df7575f80fd5b50565b5f81359050610e0881610de4565b92915050565b5f60208284031215610e2357610e22610db1565b5b5f610e3084828501610dfa565b91505092915050565b5f8115159050919050565b610e4d81610e39565b82525050565b5f602082019050610e665f830184610e44565b92915050565b5f819050919050565b610e7e81610e6c565b8114610e88575f80fd5b50565b5f81359050610e9981610e75565b92915050565b5f60208284031215610eb457610eb3610db1565b5b5f610ec184828501610e8b565b91505092915050565b7f4e487b71000000000000000000000000000000000000000000000000000000005f52602160045260245ffd5b60058110610f0857610f07610eca565b5b50565b5f819050610f1882610ef7565b919050565b5f610f2782610f0b565b9050919050565b610f3781610f1d565b82525050565b5f73ffffffffffffffffffffffffffffffffffffffff82169050919050565b5f819050919050565b5f610f7f610f7a610f7584610f3d565b610f5c565b610f3d565b9050919050565b5f610f9082610f65565b9050919050565b5f610fa182610f86565b9050919050565b610fb181610f97565b82525050565b5f610fc182610f3d565b9050919050565b610fd181610fb7565b82525050565b5f81519050919050565b5f82825260208201905092915050565b8281835e5f83830152505050565b5f601f19601f8301169050919050565b5f61101982610fd7565b6110238185610fe1565b9350611033818560208601610ff1565b61103c81610fff565b840191505092915050565b5f608083015f83015161105c5f860182610f2e565b50602083015161106f6020860182610fa8565b5060408301516110826040860182610fc8565b506060830151848203606086015261109a828261100f565b9150508091505092915050565b5f6020820190508181035f8301526110bf8184611047565b905092915050565b6110d081610fb7565b81146110da575f80fd5b50565b5f813590506110eb816110c7565b92915050565b5f6020828403121561110657611105610db1565b5b5f611113848285016110dd565b91505092915050565b5f81519050919050565b5f82825260208201905092915050565b5f819050602082019050919050565b61114e81610e6c565b82525050565b5f61115f8383611145565b60208301905092915050565b5f602082019050919050565b5f6111818261111c565b61118b8185611126565b935061119683611136565b805f5b838110156111c65781516111ad8882611154565b97506111b88361116b565b925050600181019050611199565b5085935050505092915050565b5f6020820190508181035f8301526111eb8184611177565b905092915050565b6111fc81610f97565b82525050565b5f6020820190506112155f8301846111f3565b92915050565b60058110611227575f80fd5b50565b5f813590506112388161121b565b92915050565b5f80fd5b5f80fd5b5f80fd5b5f8083601f84011261125f5761125e61123e565b5b8235905067ffffffffffffffff81111561127c5761127b611242565b5b60208301915083600182028301111561129857611297611246565b5b9250929050565b5f805f805f608086880312156112b8576112b7610db1565b5b5f6112c58882890161122a565b95505060206112d6888289016110dd565b94505060406112e7888289016110dd565b935050606086013567ffffffffffffffff81111561130857611307610db5565b5b6113148882890161124a565b92509250509295509295909350565b61132c81610e6c565b82525050565b5f6020820190506113455f830184611323565b92915050565b5f805f806060858703121561136357611362610db1565b5b5f6113708782880161122a565b945050602085013567ffffffffffffffff81111561139157611390610db5565b5b61139d8782880161124a565b935093505060406113b0878288016110dd565b91505092959194509250565b5f805f604084860312156113d3576113d2610db1565b5b5f6113e08682870161122a565b935050602084013567ffffffffffffffff81111561140157611400610db5565b5b61140d8682870161124a565b92509250509250925092565b5f8083601f84011261142e5761142d61123e565b5b8235905067ffffffffffffffff81111561144b5761144a611242565b5b60208301915083600182028301111561146757611466611246565b5b9250929050565b5f805f805f806080878903121561148857611487610db1565b5b5f61149589828a0161122a565b96505060206114a689828a016110dd565b955050604087013567ffffffffffffffff8111156114c7576114c6610db5565b5b6114d389828a0161124a565b9450945050606087013567ffffffffffffffff8111156114f6576114f5610db5565b5b61150289828a01611419565b92509250509295509295509295565b7f4e487b71000000000000000000000000000000000000000000000000000000005f52602260045260245ffd5b5f600282049050600182168061155557607f821691505b60208210810361156857611567611511565b5b50919050565b5f8160601b9050919050565b5f6115848261156e565b9050919050565b5f6115958261157a565b9050919050565b6115ad6115a882610fb7565b61158b565b82525050565b5f81905092915050565b828183375f83830152505050565b5f6115d683856115b3565b93506115e38385846115bd565b82840190509392505050565b5f6115fa828761159c565b60148201915061160a828661159c565b60148201915061161b8284866115cb565b915081905095945050505050565b61163281610db9565b82525050565b5f60208201905061164b5f830184611629565b92915050565b61165a81610e39565b8114611664575f80fd5b50565b5f8151905061167581611651565b92915050565b5f602082840312156116905761168f610db1565b5b5f61169d84828501611667565b91505092915050565b6116af81610fb7565b82525050565b5f6020820190506116c85f8301846116a6565b92915050565b6116d781610f1d565b82525050565b5f6040820190506116f05f8301856116ce565b6116fd6020830184611323565b9392505050565b5f6117108284866115cb565b91508190509392505050565b5f8160f81b9050919050565b5f6117328261171c565b9050919050565b61174a61174582610f1d565b611728565b82525050565b5f61175b8288611739565b60018201915061176b828761159c565b60148201915061177c8285876115cb565b9150611788828461159c565b6014820191508190509695505050505050565b7f4e487b71000000000000000000000000000000000000000000000000000000005f52604160045260245ffd5b5f819050815f5260205f209050919050565b5f6020601f8301049050919050565b5f82821b905092915050565b5f600883026118247fffffffffffffffffffffffffffffffffffffffffffffffffffffffffffffffff826117e9565b61182e86836117e9565b95508019841693508086168417925050509392505050565b5f819050919050565b5f61186961186461185f84611846565b610f5c565b611846565b9050919050565b5f819050919050565b6118828361184f565b61189661188e82611870565b8484546117f5565b825550505050565b5f90565b6118aa61189e565b6118b5818484611879565b505050565b5b818110156118d8576118cd5f826118a2565b6001810190506118bb565b5050565b601f82111561191d576118ee816117c8565b6118f7846117da565b81016020851015611906578190505b61191a611912856117da565b8301826118ba565b50505b505050565b5f82821c905092915050565b5f61193d5f1984600802611922565b1980831691505092915050565b5f611955838361192e565b9150826002028217905092915050565b61196e82610fd7565b67ffffffffffffffff8111156119875761198661179b565b5b611991825461153e565b61199c8282856118dc565b5f60209050601f8311600181146119cd575f84156119bb578287015190505b6119c5858261194a565b865550611a2c565b601f1984166119db866117c8565b5f5b82811015611a02578489015182556001820191506020850194506020810190506119dd565b86831015611a1f5784890151611a1b601f89168261192e565b8355505b6001600288020188555050505b505050505050565b5f604082019050611a475f8301856116a6565b611a5460208301846111f3565b9392505050565b5f819050919050565b611a75611a7082610e6c565b611a5b565b82525050565b5f611a868285611739565b600182019150611a968284611a64565b6020820191508190509392505050565b5f81519050919050565b5f82825260208201905092915050565b5f611aca82611aa6565b611ad48185611ab0565b9350611ae4818560208601610ff1565b611aed81610fff565b840191505092915050565b5f6020820190508181035f830152611b108184611ac0565b90509291505056fea26469706673582212208ffa7b9cf9194d97bca58fa4c9ff70d497d0e2b79a41da5f81847f8223ecf05b64736f6c63430008190033","opcodes":"PUSH1 0x80 PUSH1 0x40 MSTORE CALLVALUE DUP1 ISZERO PUSH1 0xE JUMPI PUSH0 DUP1 REVERT JUMPDEST POP PUSH2 0x1B4E DUP1 PUSH2 0x1C PUSH0 CODECOPY PUSH0 RETURN INVALID PUSH1 0x80 PUSH1 0x40 MSTORE CALLVALUE DUP1 ISZERO PUSH2 0xF JUMPI PUSH0 DUP1 REVERT JUMPDEST POP PUSH1 0x4 CALLDATASIZE LT PUSH2 0x86 JUMPI PUSH0 CALLDATALOAD PUSH1 0xE0 SHR DUP1 PUSH4 0xACC83FC8 GT PUSH2 0x59 JUMPI DUP1 PUSH4 0xACC83FC8 EQ PUSH2 0x14A JUMPI DUP1 PUSH4 0xD12DD481 EQ PUSH2 0x17A JUMPI DUP1 PUSH4 0xF1668792 EQ PUSH2 0x196 JUMPI DUP1 PUSH4 0xFD97064B EQ PUSH2 0x1C6 JUMPI PUSH2 0x86 JUMP JUMPDEST DUP1 PUSH4 0x1FFC9A7 EQ PUSH2 0x8A JUMPI DUP1 PUSH4 0x3AAF1626 EQ PUSH2 0xBA JUMPI DUP1 PUSH4 0x792AA01C EQ PUSH2 0xEA JUMPI DUP1 PUSH4 0x83F38859 EQ PUSH2 0x11A JUMPI JUMPDEST PUSH0 DUP1 REVERT JUMPDEST PUSH2 0xA4 PUSH1 0x4 DUP1 CALLDATASIZE SUB DUP2 ADD SWAP1 PUSH2 0x9F SWAP2 SWAP1 PUSH2 0xE0E JUMP JUMPDEST PUSH2 0x1F6 JUMP JUMPDEST PUSH1 0x40 MLOAD PUSH2 0xB1 SWAP2 SWAP1 PUSH2 0xE53 JUMP JUMPDEST PUSH1 0x40 MLOAD DUP1 SWAP2 SUB SWAP1 RETURN JUMPDEST PUSH2 0xD4 PUSH1 0x4 DUP1 CALLDATASIZE SUB DUP2 ADD SWAP1 PUSH2 0xCF SWAP2 SWAP1 PUSH2 0xE9F JUMP JUMPDEST PUSH2 0x25F JUMP JUMPDEST PUSH1 0x40 MLOAD PUSH2 0xE1 SWAP2 SWAP1 PUSH2 0x10A7 JUMP JUMPDEST PUSH1 0x40 MLOAD DUP1 SWAP2 SUB SWAP1 RETURN JUMPDEST PUSH2 0x104 PUSH1 0x4 DUP1 CALLDATASIZE SUB DUP2 ADD SWAP1 PUSH2 0xFF SWAP2 SWAP1 PUSH2 0x10F1 JUMP JUMPDEST PUSH2 0x471 JUMP JUMPDEST PUSH1 0x40 MLOAD PUSH2 0x111 SWAP2 SWAP1 PUSH2 0x11D3 JUMP JUMPDEST PUSH1 0x40 MLOAD DUP1 SWAP2 SUB SWAP1 RETURN JUMPDEST PUSH2 0x134 PUSH1 0x4 DUP1 CALLDATASIZE SUB DUP2 ADD SWAP1 PUSH2 0x12F SWAP2 SWAP1 PUSH2 0xE9F JUMP JUMPDEST PUSH2 0x504 JUMP JUMPDEST PUSH1 0x40 MLOAD PUSH2 0x141 SWAP2 SWAP1 PUSH2 0x1202 JUMP JUMPDEST PUSH1 0x40 MLOAD DUP1 SWAP2 SUB SWAP1 RETURN JUMPDEST PUSH2 0x164 PUSH1 0x4 DUP1 CALLDATASIZE SUB DUP2 ADD SWAP1 PUSH2 0x15F SWAP2 SWAP1 PUSH2 0x129F JUMP JUMPDEST PUSH2 0x5AC JUMP JUMPDEST PUSH1 0x40 MLOAD PUSH2 0x171 SWAP2 SWAP1 PUSH2 0x1332 JUMP JUMPDEST PUSH1 0x40 MLOAD DUP1 SWAP2 SUB SWAP1 RETURN JUMPDEST PUSH2 0x194 PUSH1 0x4 DUP1 CALLDATASIZE SUB DUP2 ADD SWAP1 PUSH2 0x18F SWAP2 SWAP1 PUSH2 0x134B JUMP JUMPDEST PUSH2 0x5EE JUMP JUMPDEST STOP JUMPDEST PUSH2 0x1B0 PUSH1 0x4 DUP1 CALLDATASIZE SUB DUP2 ADD SWAP1 PUSH2 0x1AB SWAP2 SWAP1 PUSH2 0x13BC JUMP JUMPDEST PUSH2 0x818 JUMP JUMPDEST PUSH1 0x40 MLOAD PUSH2 0x1BD SWAP2 SWAP1 PUSH2 0x1332 JUMP JUMPDEST PUSH1 0x40 MLOAD DUP1 SWAP2 SUB SWAP1 RETURN JUMPDEST PUSH2 0x1E0 PUSH1 0x4 DUP1 CALLDATASIZE SUB DUP2 ADD SWAP1 PUSH2 0x1DB SWAP2 SWAP1 PUSH2 0x146E JUMP JUMPDEST PUSH2 0x854 JUMP JUMPDEST PUSH1 0x40 MLOAD PUSH2 0x1ED SWAP2 SWAP1 PUSH2 0x1202 JUMP JUMPDEST PUSH1 0x40 MLOAD DUP1 SWAP2 SUB SWAP1 RETURN JUMPDEST PUSH0 PUSH32 0x1FFC9A700000000000000000000000000000000000000000000000000000000 PUSH28 0xFFFFFFFFFFFFFFFFFFFFFFFFFFFFFFFFFFFFFFFFFFFFFFFFFFFFFFFF NOT AND DUP3 PUSH28 0xFFFFFFFFFFFFFFFFFFFFFFFFFFFFFFFFFFFFFFFFFFFFFFFFFFFFFFFF NOT AND EQ SWAP1 POP SWAP2 SWAP1 POP JUMP JUMPDEST PUSH2 0x267 PUSH2 0xD4E JUMP JUMPDEST PUSH1 0x1 PUSH0 DUP4 DUP2 MSTORE PUSH1 0x20 ADD SWAP1 DUP2 MSTORE PUSH1 0x20 ADD PUSH0 KECCAK256 PUSH1 0x40 MLOAD DUP1 PUSH1 0x80 ADD PUSH1 0x40 MSTORE SWAP1 DUP2 PUSH0 DUP3 ADD PUSH0 SWAP1 SLOAD SWAP1 PUSH2 0x100 EXP SWAP1 DIV PUSH1 0xFF AND PUSH1 0x4 DUP2 GT ISZERO PUSH2 0x2A6 JUMPI PUSH2 0x2A5 PUSH2 0xECA JUMP JUMPDEST JUMPDEST PUSH1 0x4 DUP2 GT ISZERO PUSH2 0x2B8 JUMPI PUSH2 0x2B7 PUSH2 0xECA JUMP JUMPDEST JUMPDEST DUP2 MSTORE PUSH1 0x20 ADD PUSH0 DUP3 ADD PUSH1 0x1 SWAP1 SLOAD SWAP1 PUSH2 0x100 EXP SWAP1 DIV PUSH20 0xFFFFFFFFFFFFFFFFFFFFFFFFFFFFFFFFFFFFFFFF AND PUSH20 0xFFFFFFFFFFFFFFFFFFFFFFFFFFFFFFFFFFFFFFFF AND PUSH20 0xFFFFFFFFFFFFFFFFFFFFFFFFFFFFFFFFFFFFFFFF AND DUP2 MSTORE PUSH1 0x20 ADD PUSH1 0x1 DUP3 ADD PUSH0 SWAP1 SLOAD SWAP1 PUSH2 0x100 EXP SWAP1 DIV PUSH20 0xFFFFFFFFFFFFFFFFFFFFFFFFFFFFFFFFFFFFFFFF AND PUSH20 0xFFFFFFFFFFFFFFFFFFFFFFFFFFFFFFFFFFFFFFFF AND PUSH20 0xFFFFFFFFFFFFFFFFFFFFFFFFFFFFFFFFFFFFFFFF AND DUP2 MSTORE PUSH1 0x20 ADD PUSH1 0x2 DUP3 ADD DUP1 SLOAD PUSH2 0x376 SWAP1 PUSH2 0x153E JUMP JUMPDEST DUP1 PUSH1 0x1F ADD PUSH1 0x20 DUP1 SWAP2 DIV MUL PUSH1 0x20 ADD PUSH1 0x40 MLOAD SWAP1 DUP2 ADD PUSH1 0x40 MSTORE DUP1 SWAP3 SWAP2 SWAP1 DUP2 DUP2 MSTORE PUSH1 0x20 ADD DUP3 DUP1 SLOAD PUSH2 0x3A2 SWAP1 PUSH2 0x153E JUMP JUMPDEST DUP1 ISZERO PUSH2 0x3ED JUMPI DUP1 PUSH1 0x1F LT PUSH2 0x3C4 JUMPI PUSH2 0x100 DUP1 DUP4 SLOAD DIV MUL DUP4 MSTORE SWAP2 PUSH1 0x20 ADD SWAP2 PUSH2 0x3ED JUMP JUMPDEST DUP3 ADD SWAP2 SWAP1 PUSH0 MSTORE PUSH1 0x20 PUSH0 KECCAK256 SWAP1 JUMPDEST DUP2 SLOAD DUP2 MSTORE SWAP1 PUSH1 0x1 ADD SWAP1 PUSH1 0x20 ADD DUP1 DUP4 GT PUSH2 0x3D0 JUMPI DUP3 SWAP1 SUB PUSH1 0x1F AND DUP3 ADD SWAP2 JUMPDEST POP POP POP POP POP DUP2 MSTORE POP POP SWAP1 POP PUSH0 PUSH20 0xFFFFFFFFFFFFFFFFFFFFFFFFFFFFFFFFFFFFFFFF AND DUP2 PUSH1 0x20 ADD MLOAD PUSH20 0xFFFFFFFFFFFFFFFFFFFFFFFFFFFFFFFFFFFFFFFF AND SUB PUSH2 0x46C JUMPI DUP2 PUSH1 0x40 MLOAD PUSH32 0x8CC00D1600000000000000000000000000000000000000000000000000000000 DUP2 MSTORE PUSH1 0x4 ADD PUSH2 0x463 SWAP2 SWAP1 PUSH2 0x1332 JUMP JUMPDEST PUSH1 0x40 MLOAD DUP1 SWAP2 SUB SWAP1 REVERT JUMPDEST SWAP2 SWAP1 POP JUMP JUMPDEST PUSH1 0x60 PUSH1 0x2 PUSH0 DUP4 PUSH20 0xFFFFFFFFFFFFFFFFFFFFFFFFFFFFFFFFFFFFFFFF AND PUSH20 0xFFFFFFFFFFFFFFFFFFFFFFFFFFFFFFFFFFFFFFFF AND DUP2 MSTORE PUSH1 0x20 ADD SWAP1 DUP2 MSTORE PUSH1 0x20 ADD PUSH0 KECCAK256 DUP1 SLOAD DUP1 PUSH1 0x20 MUL PUSH1 0x20 ADD PUSH1 0x40 MLOAD SWAP1 DUP2 ADD PUSH1 0x40 MSTORE DUP1 SWAP3 SWAP2 SWAP1 DUP2 DUP2 MSTORE PUSH1 0x20 ADD DUP3 DUP1 SLOAD DUP1 ISZERO PUSH2 0x4F8 JUMPI PUSH1 0x20 MUL DUP3 ADD SWAP2 SWAP1 PUSH0 MSTORE PUSH1 0x20 PUSH0 KECCAK256 SWAP1 JUMPDEST DUP2 SLOAD DUP2 MSTORE PUSH1 0x20 ADD SWAP1 PUSH1 0x1 ADD SWAP1 DUP1 DUP4 GT PUSH2 0x4E4 JUMPI JUMPDEST POP POP POP POP POP SWAP1 POP SWAP2 SWAP1 POP JUMP JUMPDEST PUSH0 DUP1 PUSH0 DUP4 DUP2 MSTORE PUSH1 0x20 ADD SWAP1 DUP2 MSTORE PUSH1 0x20 ADD PUSH0 KECCAK256 PUSH0 SWAP1 SLOAD SWAP1 PUSH2 0x100 EXP SWAP1 DIV PUSH20 0xFFFFFFFFFFFFFFFFFFFFFFFFFFFFFFFFFFFFFFFF AND SWAP1 POP PUSH0 PUSH20 0xFFFFFFFFFFFFFFFFFFFFFFFFFFFFFFFFFFFFFFFF AND DUP2 PUSH20 0xFFFFFFFFFFFFFFFFFFFFFFFFFFFFFFFFFFFFFFFF AND SUB PUSH2 0x5A7 JUMPI DUP2 PUSH1 0x40 MLOAD PUSH32 0x8CC00D1600000000000000000000000000000000000000000000000000000000 DUP2 MSTORE PUSH1 0x4 ADD PUSH2 0x59E SWAP2 SWAP1 PUSH2 0x1332 JUMP JUMPDEST PUSH1 0x40 MLOAD DUP1 SWAP2 SUB SWAP1 REVERT JUMPDEST SWAP2 SWAP1 POP JUMP JUMPDEST PUSH0 PUSH2 0x5E3 DUP7 DUP7 DUP7 DUP7 DUP7 PUSH1 0x40 MLOAD PUSH1 0x20 ADD PUSH2 0x5C8 SWAP5 SWAP4 SWAP3 SWAP2 SWAP1 PUSH2 0x15EF JUMP JUMPDEST PUSH1 0x40 MLOAD PUSH1 0x20 DUP2 DUP4 SUB SUB DUP2 MSTORE SWAP1 PUSH1 0x40 MSTORE DUP1 MLOAD SWAP1 PUSH1 0x20 ADD KECCAK256 PUSH2 0xC1C JUMP JUMPDEST SWAP1 POP SWAP6 SWAP5 POP POP POP POP POP JUMP JUMPDEST DUP1 DUP1 PUSH20 0xFFFFFFFFFFFFFFFFFFFFFFFFFFFFFFFFFFFFFFFF AND PUSH4 0x1FFC9A7 PUSH32 0x4260623600000000000000000000000000000000000000000000000000000000 PUSH1 0x40 MLOAD DUP3 PUSH4 0xFFFFFFFF AND PUSH1 0xE0 SHL DUP2 MSTORE PUSH1 0x4 ADD PUSH2 0x648 SWAP2 SWAP1 PUSH2 0x1638 JUMP JUMPDEST PUSH1 0x20 PUSH1 0x40 MLOAD DUP1 DUP4 SUB DUP2 DUP7 GAS STATICCALL ISZERO DUP1 ISZERO PUSH2 0x663 JUMPI RETURNDATASIZE PUSH0 DUP1 RETURNDATACOPY RETURNDATASIZE PUSH0 REVERT JUMPDEST POP POP POP POP PUSH1 0x40 MLOAD RETURNDATASIZE PUSH1 0x1F NOT PUSH1 0x1F DUP3 ADD AND DUP3 ADD DUP1 PUSH1 0x40 MSTORE POP DUP2 ADD SWAP1 PUSH2 0x687 SWAP2 SWAP1 PUSH2 0x167B JUMP JUMPDEST PUSH2 0x6C8 JUMPI DUP1 PUSH1 0x40 MLOAD PUSH32 0xD3DD301200000000000000000000000000000000000000000000000000000000 DUP2 MSTORE PUSH1 0x4 ADD PUSH2 0x6BF SWAP2 SWAP1 PUSH2 0x16B5 JUMP JUMPDEST PUSH1 0x40 MLOAD DUP1 SWAP2 SUB SWAP1 REVERT JUMPDEST PUSH0 PUSH2 0x6D4 DUP7 DUP7 DUP7 PUSH2 0x818 JUMP JUMPDEST SWAP1 POP PUSH0 PUSH20 0xFFFFFFFFFFFFFFFFFFFFFFFFFFFFFFFFFFFFFFFF AND PUSH0 DUP1 DUP4 DUP2 MSTORE PUSH1 0x20 ADD SWAP1 DUP2 MSTORE PUSH1 0x20 ADD PUSH0 KECCAK256 PUSH0 SWAP1 SLOAD SWAP1 PUSH2 0x100 EXP SWAP1 DIV PUSH20 0xFFFFFFFFFFFFFFFFFFFFFFFFFFFFFFFFFFFFFFFF AND PUSH20 0xFFFFFFFFFFFFFFFFFFFFFFFFFFFFFFFFFFFFFFFF AND EQ PUSH2 0x777 JUMPI DUP6 DUP2 PUSH1 0x40 MLOAD PUSH32 0x96B5684C00000000000000000000000000000000000000000000000000000000 DUP2 MSTORE PUSH1 0x4 ADD PUSH2 0x76E SWAP3 SWAP2 SWAP1 PUSH2 0x16DD JUMP JUMPDEST PUSH1 0x40 MLOAD DUP1 SWAP2 SUB SWAP1 REVERT JUMPDEST DUP3 PUSH0 DUP1 DUP4 DUP2 MSTORE PUSH1 0x20 ADD SWAP1 DUP2 MSTORE PUSH1 0x20 ADD PUSH0 KECCAK256 PUSH0 PUSH2 0x100 EXP DUP2 SLOAD DUP2 PUSH20 0xFFFFFFFFFFFFFFFFFFFFFFFFFFFFFFFFFFFFFFFF MUL NOT AND SWAP1 DUP4 PUSH20 0xFFFFFFFFFFFFFFFFFFFFFFFFFFFFFFFFFFFFFFFF AND MUL OR SWAP1 SSTORE POP DUP1 DUP7 PUSH1 0x4 DUP2 GT ISZERO PUSH2 0x7D9 JUMPI PUSH2 0x7D8 PUSH2 0xECA JUMP JUMPDEST JUMPDEST PUSH32 0x660D31DF25C96B8A337FCF12A56B7363E5A997639DB853D5DBAEC7C01F31BD80 DUP6 PUSH1 0x40 MLOAD PUSH2 0x808 SWAP2 SWAP1 PUSH2 0x16B5 JUMP JUMPDEST PUSH1 0x40 MLOAD DUP1 SWAP2 SUB SWAP1 LOG3 POP POP POP POP POP POP JUMP JUMPDEST PUSH0 PUSH2 0x84B DUP5 DUP5 DUP5 PUSH1 0x40 MLOAD PUSH1 0x20 ADD PUSH2 0x830 SWAP3 SWAP2 SWAP1 PUSH2 0x1704 JUMP JUMPDEST PUSH1 0x40 MLOAD PUSH1 0x20 DUP2 DUP4 SUB SUB DUP2 MSTORE SWAP1 PUSH1 0x40 MSTORE DUP1 MLOAD SWAP1 PUSH1 0x20 ADD KECCAK256 PUSH2 0xC1C JUMP JUMPDEST SWAP1 POP SWAP4 SWAP3 POP POP POP JUMP JUMPDEST PUSH0 ADDRESS PUSH9 0x929EEE149B4BD21268 SLOAD SUB PUSH2 0x873 JUMPI PUSH4 0xAB143C06 PUSH0 MSTORE PUSH1 0x4 PUSH1 0x1C REVERT JUMPDEST ADDRESS PUSH9 0x929EEE149B4BD21268 SSTORE PUSH2 0x91B DUP8 DUP8 DUP8 DUP8 CALLER PUSH1 0x40 MLOAD PUSH1 0x20 ADD PUSH2 0x89B SWAP6 SWAP5 SWAP4 SWAP3 SWAP2 SWAP1 PUSH2 0x1750 JUMP JUMPDEST PUSH1 0x40 MLOAD PUSH1 0x20 DUP2 DUP4 SUB SUB DUP2 MSTORE SWAP1 PUSH1 0x40 MSTORE DUP1 MLOAD SWAP1 PUSH1 0x20 ADD KECCAK256 DUP5 DUP5 DUP1 DUP1 PUSH1 0x1F ADD PUSH1 0x20 DUP1 SWAP2 DIV MUL PUSH1 0x20 ADD PUSH1 0x40 MLOAD SWAP1 DUP2 ADD PUSH1 0x40 MSTORE DUP1 SWAP4 SWAP3 SWAP2 SWAP1 DUP2 DUP2 MSTORE PUSH1 0x20 ADD DUP4 DUP4 DUP1 DUP3 DUP5 CALLDATACOPY PUSH0 DUP2 DUP5 ADD MSTORE PUSH1 0x1F NOT PUSH1 0x1F DUP3 ADD AND SWAP1 POP DUP1 DUP4 ADD SWAP3 POP POP POP POP POP POP POP DUP9 PUSH20 0xFFFFFFFFFFFFFFFFFFFFFFFFFFFFFFFFFFFFFFFF AND PUSH2 0xC4E SWAP1 SWAP3 SWAP2 SWAP1 PUSH4 0xFFFFFFFF AND JUMP JUMPDEST SWAP1 POP PUSH0 PUSH2 0x92B DUP9 DUP9 CALLER DUP10 DUP10 PUSH2 0x5AC JUMP JUMPDEST SWAP1 POP PUSH0 PUSH20 0xFFFFFFFFFFFFFFFFFFFFFFFFFFFFFFFFFFFFFFFF AND PUSH1 0x1 PUSH0 DUP4 DUP2 MSTORE PUSH1 0x20 ADD SWAP1 DUP2 MSTORE PUSH1 0x20 ADD PUSH0 KECCAK256 PUSH0 ADD PUSH1 0x1 SWAP1 SLOAD SWAP1 PUSH2 0x100 EXP SWAP1 DIV PUSH20 0xFFFFFFFFFFFFFFFFFFFFFFFFFFFFFFFFFFFFFFFF AND PUSH20 0xFFFFFFFFFFFFFFFFFFFFFFFFFFFFFFFFFFFFFFFF AND EQ PUSH2 0x9D2 JUMPI DUP8 DUP2 PUSH1 0x40 MLOAD PUSH32 0x96B5684C00000000000000000000000000000000000000000000000000000000 DUP2 MSTORE PUSH1 0x4 ADD PUSH2 0x9C9 SWAP3 SWAP2 SWAP1 PUSH2 0x16DD JUMP JUMPDEST PUSH1 0x40 MLOAD DUP1 SWAP2 SUB SWAP1 REVERT JUMPDEST PUSH1 0x2 PUSH0 CALLER PUSH20 0xFFFFFFFFFFFFFFFFFFFFFFFFFFFFFFFFFFFFFFFF AND PUSH20 0xFFFFFFFFFFFFFFFFFFFFFFFFFFFFFFFFFFFFFFFF AND DUP2 MSTORE PUSH1 0x20 ADD SWAP1 DUP2 MSTORE PUSH1 0x20 ADD PUSH0 KECCAK256 DUP2 SWAP1 DUP1 PUSH1 0x1 DUP2 SLOAD ADD DUP1 DUP3 SSTORE DUP1 SWAP2 POP POP PUSH1 0x1 SWAP1 SUB SWAP1 PUSH0 MSTORE PUSH1 0x20 PUSH0 KECCAK256 ADD PUSH0 SWAP1 SWAP2 SWAP1 SWAP2 SWAP1 SWAP2 POP SSTORE PUSH1 0x40 MLOAD DUP1 PUSH1 0x80 ADD PUSH1 0x40 MSTORE DUP1 DUP10 PUSH1 0x4 DUP2 GT ISZERO PUSH2 0xA51 JUMPI PUSH2 0xA50 PUSH2 0xECA JUMP JUMPDEST JUMPDEST DUP2 MSTORE PUSH1 0x20 ADD DUP4 PUSH20 0xFFFFFFFFFFFFFFFFFFFFFFFFFFFFFFFFFFFFFFFF AND DUP2 MSTORE PUSH1 0x20 ADD CALLER PUSH20 0xFFFFFFFFFFFFFFFFFFFFFFFFFFFFFFFFFFFFFFFF AND DUP2 MSTORE PUSH1 0x20 ADD DUP8 DUP8 DUP1 DUP1 PUSH1 0x1F ADD PUSH1 0x20 DUP1 SWAP2 DIV MUL PUSH1 0x20 ADD PUSH1 0x40 MLOAD SWAP1 DUP2 ADD PUSH1 0x40 MSTORE DUP1 SWAP4 SWAP3 SWAP2 SWAP1 DUP2 DUP2 MSTORE PUSH1 0x20 ADD DUP4 DUP4 DUP1 DUP3 DUP5 CALLDATACOPY PUSH0 DUP2 DUP5 ADD MSTORE PUSH1 0x1F NOT PUSH1 0x1F DUP3 ADD AND SWAP1 POP DUP1 DUP4 ADD SWAP3 POP POP POP POP POP POP POP DUP2 MSTORE POP PUSH1 0x1 PUSH0 DUP4 DUP2 MSTORE PUSH1 0x20 ADD SWAP1 DUP2 MSTORE PUSH1 0x20 ADD PUSH0 KECCAK256 PUSH0 DUP3 ADD MLOAD DUP2 PUSH0 ADD PUSH0 PUSH2 0x100 EXP DUP2 SLOAD DUP2 PUSH1 0xFF MUL NOT AND SWAP1 DUP4 PUSH1 0x4 DUP2 GT ISZERO PUSH2 0xB0E JUMPI PUSH2 0xB0D PUSH2 0xECA JUMP JUMPDEST JUMPDEST MUL OR SWAP1 SSTORE POP PUSH1 0x20 DUP3 ADD MLOAD DUP2 PUSH0 ADD PUSH1 0x1 PUSH2 0x100 EXP DUP2 SLOAD DUP2 PUSH20 0xFFFFFFFFFFFFFFFFFFFFFFFFFFFFFFFFFFFFFFFF MUL NOT AND SWAP1 DUP4 PUSH20 0xFFFFFFFFFFFFFFFFFFFFFFFFFFFFFFFFFFFFFFFF AND MUL OR SWAP1 SSTORE POP PUSH1 0x40 DUP3 ADD MLOAD DUP2 PUSH1 0x1 ADD PUSH0 PUSH2 0x100 EXP DUP2 SLOAD DUP2 PUSH20 0xFFFFFFFFFFFFFFFFFFFFFFFFFFFFFFFFFFFFFFFF MUL NOT AND SWAP1 DUP4 PUSH20 0xFFFFFFFFFFFFFFFFFFFFFFFFFFFFFFFFFFFFFFFF AND MUL OR SWAP1 SSTORE POP PUSH1 0x60 DUP3 ADD MLOAD DUP2 PUSH1 0x2 ADD SWAP1 DUP2 PUSH2 0xBB4 SWAP2 SWAP1 PUSH2 0x1965 JUMP JUMPDEST POP SWAP1 POP POP DUP1 DUP9 PUSH1 0x4 DUP2 GT ISZERO PUSH2 0xBCC JUMPI PUSH2 0xBCB PUSH2 0xECA JUMP JUMPDEST JUMPDEST PUSH32 0x2348FCDB9847B17A183E53AA32C0C5C76AFDEF8FCB14BB51F216C6611701AB1A DUP10 DUP6 PUSH1 0x40 MLOAD PUSH2 0xBFD SWAP3 SWAP2 SWAP1 PUSH2 0x1A34 JUMP JUMPDEST PUSH1 0x40 MLOAD DUP1 SWAP2 SUB SWAP1 LOG3 POP CODESIZE PUSH9 0x929EEE149B4BD21268 SSTORE SWAP7 SWAP6 POP POP POP POP POP POP JUMP JUMPDEST PUSH0 DUP3 DUP3 PUSH1 0x40 MLOAD PUSH1 0x20 ADD PUSH2 0xC30 SWAP3 SWAP2 SWAP1 PUSH2 0x1A7B JUMP JUMPDEST PUSH1 0x40 MLOAD PUSH1 0x20 DUP2 DUP4 SUB SUB DUP2 MSTORE SWAP1 PUSH1 0x40 MSTORE DUP1 MLOAD SWAP1 PUSH1 0x20 ADD KECCAK256 SWAP1 POP SWAP3 SWAP2 POP POP JUMP JUMPDEST PUSH0 PUSH2 0xC78 DUP4 DUP6 PUSH20 0xFFFFFFFFFFFFFFFFFFFFFFFFFFFFFFFFFFFFFFFF AND PUSH2 0xCE7 SWAP1 SWAP2 SWAP1 PUSH4 0xFFFFFFFF AND JUMP JUMPDEST SWAP1 POP DUP1 PUSH20 0xFFFFFFFFFFFFFFFFFFFFFFFFFFFFFFFFFFFFFFFF AND PUSH4 0x439FAB91 DUP4 PUSH1 0x40 MLOAD DUP3 PUSH4 0xFFFFFFFF AND PUSH1 0xE0 SHL DUP2 MSTORE PUSH1 0x4 ADD PUSH2 0xCB3 SWAP2 SWAP1 PUSH2 0x1AF8 JUMP JUMPDEST PUSH0 PUSH1 0x40 MLOAD DUP1 DUP4 SUB DUP2 PUSH0 DUP8 DUP1 EXTCODESIZE ISZERO DUP1 ISZERO PUSH2 0xCCA JUMPI PUSH0 DUP1 REVERT JUMPDEST POP GAS CALL ISZERO DUP1 ISZERO PUSH2 0xCDC JUMPI RETURNDATASIZE PUSH0 DUP1 RETURNDATACOPY RETURNDATASIZE PUSH0 REVERT JUMPDEST POP POP POP POP SWAP4 SWAP3 POP POP POP JUMP JUMPDEST PUSH0 PUSH2 0xCF3 PUSH0 DUP5 DUP5 PUSH2 0xCFB JUMP JUMPDEST SWAP1 POP SWAP3 SWAP2 POP POP JUMP JUMPDEST PUSH0 PUSH13 0x5AF43D3D93803E602A57FD5BF3 PUSH1 0x21 MSTORE DUP3 PUSH1 0x14 MSTORE PUSH20 0x602C3D8160093D39F33D3D3D3D363D3D37363D73 PUSH0 MSTORE DUP2 PUSH1 0x35 PUSH1 0xC DUP7 CREATE2 SWAP1 POP DUP1 PUSH2 0xD43 JUMPI PUSH4 0x30116425 PUSH0 MSTORE PUSH1 0x4 PUSH1 0x1C REVERT JUMPDEST PUSH0 PUSH1 0x21 MSTORE SWAP4 SWAP3 POP POP POP JUMP JUMPDEST PUSH1 0x40 MLOAD DUP1 PUSH1 0x80 ADD PUSH1 0x40 MSTORE DUP1 PUSH0 PUSH1 0x4 DUP2 GT ISZERO PUSH2 0xD6C JUMPI PUSH2 0xD6B PUSH2 0xECA JUMP JUMPDEST JUMPDEST DUP2 MSTORE PUSH1 0x20 ADD PUSH0 PUSH20 0xFFFFFFFFFFFFFFFFFFFFFFFFFFFFFFFFFFFFFFFF AND DUP2 MSTORE PUSH1 0x20 ADD PUSH0 PUSH20 0xFFFFFFFFFFFFFFFFFFFFFFFFFFFFFFFFFFFFFFFF AND DUP2 MSTORE PUSH1 0x20 ADD PUSH1 0x60 DUP2 MSTORE POP SWAP1 JUMP JUMPDEST PUSH0 DUP1 REVERT JUMPDEST PUSH0 DUP1 REVERT JUMPDEST PUSH0 PUSH32 0xFFFFFFFF00000000000000000000000000000000000000000000000000000000 DUP3 AND SWAP1 POP SWAP2 SWAP1 POP JUMP JUMPDEST PUSH2 0xDED DUP2 PUSH2 0xDB9 JUMP JUMPDEST DUP2 EQ PUSH2 0xDF7 JUMPI PUSH0 DUP1 REVERT JUMPDEST POP JUMP JUMPDEST PUSH0 DUP2 CALLDATALOAD SWAP1 POP PUSH2 0xE08 DUP2 PUSH2 0xDE4 JUMP JUMPDEST SWAP3 SWAP2 POP POP JUMP JUMPDEST PUSH0 PUSH1 0x20 DUP3 DUP5 SUB SLT ISZERO PUSH2 0xE23 JUMPI PUSH2 0xE22 PUSH2 0xDB1 JUMP JUMPDEST JUMPDEST PUSH0 PUSH2 0xE30 DUP5 DUP3 DUP6 ADD PUSH2 0xDFA JUMP JUMPDEST SWAP2 POP POP SWAP3 SWAP2 POP POP JUMP JUMPDEST PUSH0 DUP2 ISZERO ISZERO SWAP1 POP SWAP2 SWAP1 POP JUMP JUMPDEST PUSH2 0xE4D DUP2 PUSH2 0xE39 JUMP JUMPDEST DUP3 MSTORE POP POP JUMP JUMPDEST PUSH0 PUSH1 0x20 DUP3 ADD SWAP1 POP PUSH2 0xE66 PUSH0 DUP4 ADD DUP5 PUSH2 0xE44 JUMP JUMPDEST SWAP3 SWAP2 POP POP JUMP JUMPDEST PUSH0 DUP2 SWAP1 POP SWAP2 SWAP1 POP JUMP JUMPDEST PUSH2 0xE7E DUP2 PUSH2 0xE6C JUMP JUMPDEST DUP2 EQ PUSH2 0xE88 JUMPI PUSH0 DUP1 REVERT JUMPDEST POP JUMP JUMPDEST PUSH0 DUP2 CALLDATALOAD SWAP1 POP PUSH2 0xE99 DUP2 PUSH2 0xE75 JUMP JUMPDEST SWAP3 SWAP2 POP POP JUMP JUMPDEST PUSH0 PUSH1 0x20 DUP3 DUP5 SUB SLT ISZERO PUSH2 0xEB4 JUMPI PUSH2 0xEB3 PUSH2 0xDB1 JUMP JUMPDEST JUMPDEST PUSH0 PUSH2 0xEC1 DUP5 DUP3 DUP6 ADD PUSH2 0xE8B JUMP JUMPDEST SWAP2 POP POP SWAP3 SWAP2 POP POP JUMP JUMPDEST PUSH32 0x4E487B7100000000000000000000000000000000000000000000000000000000 PUSH0 MSTORE PUSH1 0x21 PUSH1 0x4 MSTORE PUSH1 0x24 PUSH0 REVERT JUMPDEST PUSH1 0x5 DUP2 LT PUSH2 0xF08 JUMPI PUSH2 0xF07 PUSH2 0xECA JUMP JUMPDEST JUMPDEST POP JUMP JUMPDEST PUSH0 DUP2 SWAP1 POP PUSH2 0xF18 DUP3 PUSH2 0xEF7 JUMP JUMPDEST SWAP2 SWAP1 POP JUMP JUMPDEST PUSH0 PUSH2 0xF27 DUP3 PUSH2 0xF0B JUMP JUMPDEST SWAP1 POP SWAP2 SWAP1 POP JUMP JUMPDEST PUSH2 0xF37 DUP2 PUSH2 0xF1D JUMP JUMPDEST DUP3 MSTORE POP POP JUMP JUMPDEST PUSH0 PUSH20 0xFFFFFFFFFFFFFFFFFFFFFFFFFFFFFFFFFFFFFFFF DUP3 AND SWAP1 POP SWAP2 SWAP1 POP JUMP JUMPDEST PUSH0 DUP2 SWAP1 POP SWAP2 SWAP1 POP JUMP JUMPDEST PUSH0 PUSH2 0xF7F PUSH2 0xF7A PUSH2 0xF75 DUP5 PUSH2 0xF3D JUMP JUMPDEST PUSH2 0xF5C JUMP JUMPDEST PUSH2 0xF3D JUMP JUMPDEST SWAP1 POP SWAP2 SWAP1 POP JUMP JUMPDEST PUSH0 PUSH2 0xF90 DUP3 PUSH2 0xF65 JUMP JUMPDEST SWAP1 POP SWAP2 SWAP1 POP JUMP JUMPDEST PUSH0 PUSH2 0xFA1 DUP3 PUSH2 0xF86 JUMP JUMPDEST SWAP1 POP SWAP2 SWAP1 POP JUMP JUMPDEST PUSH2 0xFB1 DUP2 PUSH2 0xF97 JUMP JUMPDEST DUP3 MSTORE POP POP JUMP JUMPDEST PUSH0 PUSH2 0xFC1 DUP3 PUSH2 0xF3D JUMP JUMPDEST SWAP1 POP SWAP2 SWAP1 POP JUMP JUMPDEST PUSH2 0xFD1 DUP2 PUSH2 0xFB7 JUMP JUMPDEST DUP3 MSTORE POP POP JUMP JUMPDEST PUSH0 DUP2 MLOAD SWAP1 POP SWAP2 SWAP1 POP JUMP JUMPDEST PUSH0 DUP3 DUP3 MSTORE PUSH1 0x20 DUP3 ADD SWAP1 POP SWAP3 SWAP2 POP POP JUMP JUMPDEST DUP3 DUP2 DUP4 MCOPY PUSH0 DUP4 DUP4 ADD MSTORE POP POP POP JUMP JUMPDEST PUSH0 PUSH1 0x1F NOT PUSH1 0x1F DUP4 ADD AND SWAP1 POP SWAP2 SWAP1 POP JUMP JUMPDEST PUSH0 PUSH2 0x1019 DUP3 PUSH2 0xFD7 JUMP JUMPDEST PUSH2 0x1023 DUP2 DUP6 PUSH2 0xFE1 JUMP JUMPDEST SWAP4 POP PUSH2 0x1033 DUP2 DUP6 PUSH1 0x20 DUP7 ADD PUSH2 0xFF1 JUMP JUMPDEST PUSH2 0x103C DUP2 PUSH2 0xFFF JUMP JUMPDEST DUP5 ADD SWAP2 POP POP SWAP3 SWAP2 POP POP JUMP JUMPDEST PUSH0 PUSH1 0x80 DUP4 ADD PUSH0 DUP4 ADD MLOAD PUSH2 0x105C PUSH0 DUP7 ADD DUP3 PUSH2 0xF2E JUMP JUMPDEST POP PUSH1 0x20 DUP4 ADD MLOAD PUSH2 0x106F PUSH1 0x20 DUP7 ADD DUP3 PUSH2 0xFA8 JUMP JUMPDEST POP PUSH1 0x40 DUP4 ADD MLOAD PUSH2 0x1082 PUSH1 0x40 DUP7 ADD DUP3 PUSH2 0xFC8 JUMP JUMPDEST POP PUSH1 0x60 DUP4 ADD MLOAD DUP5 DUP3 SUB PUSH1 0x60 DUP7 ADD MSTORE PUSH2 0x109A DUP3 DUP3 PUSH2 0x100F JUMP JUMPDEST SWAP2 POP POP DUP1 SWAP2 POP POP SWAP3 SWAP2 POP POP JUMP JUMPDEST PUSH0 PUSH1 0x20 DUP3 ADD SWAP1 POP DUP2 DUP2 SUB PUSH0 DUP4 ADD MSTORE PUSH2 0x10BF DUP2 DUP5 PUSH2 0x1047 JUMP JUMPDEST SWAP1 POP SWAP3 SWAP2 POP POP JUMP JUMPDEST PUSH2 0x10D0 DUP2 PUSH2 0xFB7 JUMP JUMPDEST DUP2 EQ PUSH2 0x10DA JUMPI PUSH0 DUP1 REVERT JUMPDEST POP JUMP JUMPDEST PUSH0 DUP2 CALLDATALOAD SWAP1 POP PUSH2 0x10EB DUP2 PUSH2 0x10C7 JUMP JUMPDEST SWAP3 SWAP2 POP POP JUMP JUMPDEST PUSH0 PUSH1 0x20 DUP3 DUP5 SUB SLT ISZERO PUSH2 0x1106 JUMPI PUSH2 0x1105 PUSH2 0xDB1 JUMP JUMPDEST JUMPDEST PUSH0 PUSH2 0x1113 DUP5 DUP3 DUP6 ADD PUSH2 0x10DD JUMP JUMPDEST SWAP2 POP POP SWAP3 SWAP2 POP POP JUMP JUMPDEST PUSH0 DUP2 MLOAD SWAP1 POP SWAP2 SWAP1 POP JUMP JUMPDEST PUSH0 DUP3 DUP3 MSTORE PUSH1 0x20 DUP3 ADD SWAP1 POP SWAP3 SWAP2 POP POP JUMP JUMPDEST PUSH0 DUP2 SWAP1 POP PUSH1 0x20 DUP3 ADD SWAP1 POP SWAP2 SWAP1 POP JUMP JUMPDEST PUSH2 0x114E DUP2 PUSH2 0xE6C JUMP JUMPDEST DUP3 MSTORE POP POP JUMP JUMPDEST PUSH0 PUSH2 0x115F DUP4 DUP4 PUSH2 0x1145 JUMP JUMPDEST PUSH1 0x20 DUP4 ADD SWAP1 POP SWAP3 SWAP2 POP POP JUMP JUMPDEST PUSH0 PUSH1 0x20 DUP3 ADD SWAP1 POP SWAP2 SWAP1 POP JUMP JUMPDEST PUSH0 PUSH2 0x1181 DUP3 PUSH2 0x111C JUMP JUMPDEST PUSH2 0x118B DUP2 DUP6 PUSH2 0x1126 JUMP JUMPDEST SWAP4 POP PUSH2 0x1196 DUP4 PUSH2 0x1136 JUMP JUMPDEST DUP1 PUSH0 JUMPDEST DUP4 DUP2 LT ISZERO PUSH2 0x11C6 JUMPI DUP2 MLOAD PUSH2 0x11AD DUP9 DUP3 PUSH2 0x1154 JUMP JUMPDEST SWAP8 POP PUSH2 0x11B8 DUP4 PUSH2 0x116B JUMP JUMPDEST SWAP3 POP POP PUSH1 0x1 DUP2 ADD SWAP1 POP PUSH2 0x1199 JUMP JUMPDEST POP DUP6 SWAP4 POP POP POP POP SWAP3 SWAP2 POP POP JUMP JUMPDEST PUSH0 PUSH1 0x20 DUP3 ADD SWAP1 POP DUP2 DUP2 SUB PUSH0 DUP4 ADD MSTORE PUSH2 0x11EB DUP2 DUP5 PUSH2 0x1177 JUMP JUMPDEST SWAP1 POP SWAP3 SWAP2 POP POP JUMP JUMPDEST PUSH2 0x11FC DUP2 PUSH2 0xF97 JUMP JUMPDEST DUP3 MSTORE POP POP JUMP JUMPDEST PUSH0 PUSH1 0x20 DUP3 ADD SWAP1 POP PUSH2 0x1215 PUSH0 DUP4 ADD DUP5 PUSH2 0x11F3 JUMP JUMPDEST SWAP3 SWAP2 POP POP JUMP JUMPDEST PUSH1 0x5 DUP2 LT PUSH2 0x1227 JUMPI PUSH0 DUP1 REVERT JUMPDEST POP JUMP JUMPDEST PUSH0 DUP2 CALLDATALOAD SWAP1 POP PUSH2 0x1238 DUP2 PUSH2 0x121B JUMP JUMPDEST SWAP3 SWAP2 POP POP JUMP JUMPDEST PUSH0 DUP1 REVERT JUMPDEST PUSH0 DUP1 REVERT JUMPDEST PUSH0 DUP1 REVERT JUMPDEST PUSH0 DUP1 DUP4 PUSH1 0x1F DUP5 ADD SLT PUSH2 0x125F JUMPI PUSH2 0x125E PUSH2 0x123E JUMP JUMPDEST JUMPDEST DUP3 CALLDATALOAD SWAP1 POP PUSH8 0xFFFFFFFFFFFFFFFF DUP2 GT ISZERO PUSH2 0x127C JUMPI PUSH2 0x127B PUSH2 0x1242 JUMP JUMPDEST JUMPDEST PUSH1 0x20 DUP4 ADD SWAP2 POP DUP4 PUSH1 0x1 DUP3 MUL DUP4 ADD GT ISZERO PUSH2 0x1298 JUMPI PUSH2 0x1297 PUSH2 0x1246 JUMP JUMPDEST JUMPDEST SWAP3 POP SWAP3 SWAP1 POP JUMP JUMPDEST PUSH0 DUP1 PUSH0 DUP1 PUSH0 PUSH1 0x80 DUP7 DUP9 SUB SLT ISZERO PUSH2 0x12B8 JUMPI PUSH2 0x12B7 PUSH2 0xDB1 JUMP JUMPDEST JUMPDEST PUSH0 PUSH2 0x12C5 DUP9 DUP3 DUP10 ADD PUSH2 0x122A JUMP JUMPDEST SWAP6 POP POP PUSH1 0x20 PUSH2 0x12D6 DUP9 DUP3 DUP10 ADD PUSH2 0x10DD JUMP JUMPDEST SWAP5 POP POP PUSH1 0x40 PUSH2 0x12E7 DUP9 DUP3 DUP10 ADD PUSH2 0x10DD JUMP JUMPDEST SWAP4 POP POP PUSH1 0x60 DUP7 ADD CALLDATALOAD PUSH8 0xFFFFFFFFFFFFFFFF DUP2 GT ISZERO PUSH2 0x1308 JUMPI PUSH2 0x1307 PUSH2 0xDB5 JUMP JUMPDEST JUMPDEST PUSH2 0x1314 DUP9 DUP3 DUP10 ADD PUSH2 0x124A JUMP JUMPDEST SWAP3 POP SWAP3 POP POP SWAP3 SWAP6 POP SWAP3 SWAP6 SWAP1 SWAP4 POP JUMP JUMPDEST PUSH2 0x132C DUP2 PUSH2 0xE6C JUMP JUMPDEST DUP3 MSTORE POP POP JUMP JUMPDEST PUSH0 PUSH1 0x20 DUP3 ADD SWAP1 POP PUSH2 0x1345 PUSH0 DUP4 ADD DUP5 PUSH2 0x1323 JUMP JUMPDEST SWAP3 SWAP2 POP POP JUMP JUMPDEST PUSH0 DUP1 PUSH0 DUP1 PUSH1 0x60 DUP6 DUP8 SUB SLT ISZERO PUSH2 0x1363 JUMPI PUSH2 0x1362 PUSH2 0xDB1 JUMP JUMPDEST JUMPDEST PUSH0 PUSH2 0x1370 DUP8 DUP3 DUP9 ADD PUSH2 0x122A JUMP JUMPDEST SWAP5 POP POP PUSH1 0x20 DUP6 ADD CALLDATALOAD PUSH8 0xFFFFFFFFFFFFFFFF DUP2 GT ISZERO PUSH2 0x1391 JUMPI PUSH2 0x1390 PUSH2 0xDB5 JUMP JUMPDEST JUMPDEST PUSH2 0x139D DUP8 DUP3 DUP9 ADD PUSH2 0x124A JUMP JUMPDEST SWAP4 POP SWAP4 POP POP PUSH1 0x40 PUSH2 0x13B0 DUP8 DUP3 DUP9 ADD PUSH2 0x10DD JUMP JUMPDEST SWAP2 POP POP SWAP3 SWAP6 SWAP2 SWAP5 POP SWAP3 POP JUMP JUMPDEST PUSH0 DUP1 PUSH0 PUSH1 0x40 DUP5 DUP7 SUB SLT ISZERO PUSH2 0x13D3 JUMPI PUSH2 0x13D2 PUSH2 0xDB1 JUMP JUMPDEST JUMPDEST PUSH0 PUSH2 0x13E0 DUP7 DUP3 DUP8 ADD PUSH2 0x122A JUMP JUMPDEST SWAP4 POP POP PUSH1 0x20 DUP5 ADD CALLDATALOAD PUSH8 0xFFFFFFFFFFFFFFFF DUP2 GT ISZERO PUSH2 0x1401 JUMPI PUSH2 0x1400 PUSH2 0xDB5 JUMP JUMPDEST JUMPDEST PUSH2 0x140D DUP7 DUP3 DUP8 ADD PUSH2 0x124A JUMP JUMPDEST SWAP3 POP SWAP3 POP POP SWAP3 POP SWAP3 POP SWAP3 JUMP JUMPDEST PUSH0 DUP1 DUP4 PUSH1 0x1F DUP5 ADD SLT PUSH2 0x142E JUMPI PUSH2 0x142D PUSH2 0x123E JUMP JUMPDEST JUMPDEST DUP3 CALLDATALOAD SWAP1 POP PUSH8 0xFFFFFFFFFFFFFFFF DUP2 GT ISZERO PUSH2 0x144B JUMPI PUSH2 0x144A PUSH2 0x1242 JUMP JUMPDEST JUMPDEST PUSH1 0x20 DUP4 ADD SWAP2 POP DUP4 PUSH1 0x1 DUP3 MUL DUP4 ADD GT ISZERO PUSH2 0x1467 JUMPI PUSH2 0x1466 PUSH2 0x1246 JUMP JUMPDEST JUMPDEST SWAP3 POP SWAP3 SWAP1 POP JUMP JUMPDEST PUSH0 DUP1 PUSH0 DUP1 PUSH0 DUP1 PUSH1 0x80 DUP8 DUP10 SUB SLT ISZERO PUSH2 0x1488 JUMPI PUSH2 0x1487 PUSH2 0xDB1 JUMP JUMPDEST JUMPDEST PUSH0 PUSH2 0x1495 DUP10 DUP3 DUP11 ADD PUSH2 0x122A JUMP JUMPDEST SWAP7 POP POP PUSH1 0x20 PUSH2 0x14A6 DUP10 DUP3 DUP11 ADD PUSH2 0x10DD JUMP JUMPDEST SWAP6 POP POP PUSH1 0x40 DUP8 ADD CALLDATALOAD PUSH8 0xFFFFFFFFFFFFFFFF DUP2 GT ISZERO PUSH2 0x14C7 JUMPI PUSH2 0x14C6 PUSH2 0xDB5 JUMP JUMPDEST JUMPDEST PUSH2 0x14D3 DUP10 DUP3 DUP11 ADD PUSH2 0x124A JUMP JUMPDEST SWAP5 POP SWAP5 POP POP PUSH1 0x60 DUP8 ADD CALLDATALOAD PUSH8 0xFFFFFFFFFFFFFFFF DUP2 GT ISZERO PUSH2 0x14F6 JUMPI PUSH2 0x14F5 PUSH2 0xDB5 JUMP JUMPDEST JUMPDEST PUSH2 0x1502 DUP10 DUP3 DUP11 ADD PUSH2 0x1419 JUMP JUMPDEST SWAP3 POP SWAP3 POP POP SWAP3 SWAP6 POP SWAP3 SWAP6 POP SWAP3 SWAP6 JUMP JUMPDEST PUSH32 0x4E487B7100000000000000000000000000000000000000000000000000000000 PUSH0 MSTORE PUSH1 0x22 PUSH1 0x4 MSTORE PUSH1 0x24 PUSH0 REVERT JUMPDEST PUSH0 PUSH1 0x2 DUP3 DIV SWAP1 POP PUSH1 0x1 DUP3 AND DUP1 PUSH2 0x1555 JUMPI PUSH1 0x7F DUP3 AND SWAP2 POP JUMPDEST PUSH1 0x20 DUP3 LT DUP2 SUB PUSH2 0x1568 JUMPI PUSH2 0x1567 PUSH2 0x1511 JUMP JUMPDEST JUMPDEST POP SWAP2 SWAP1 POP JUMP JUMPDEST PUSH0 DUP2 PUSH1 0x60 SHL SWAP1 POP SWAP2 SWAP1 POP JUMP JUMPDEST PUSH0 PUSH2 0x1584 DUP3 PUSH2 0x156E JUMP JUMPDEST SWAP1 POP SWAP2 SWAP1 POP JUMP JUMPDEST PUSH0 PUSH2 0x1595 DUP3 PUSH2 0x157A JUMP JUMPDEST SWAP1 POP SWAP2 SWAP1 POP JUMP JUMPDEST PUSH2 0x15AD PUSH2 0x15A8 DUP3 PUSH2 0xFB7 JUMP JUMPDEST PUSH2 0x158B JUMP JUMPDEST DUP3 MSTORE POP POP JUMP JUMPDEST PUSH0 DUP2 SWAP1 POP SWAP3 SWAP2 POP POP JUMP JUMPDEST DUP3 DUP2 DUP4 CALLDATACOPY PUSH0 DUP4 DUP4 ADD MSTORE POP POP POP JUMP JUMPDEST PUSH0 PUSH2 0x15D6 DUP4 DUP6 PUSH2 0x15B3 JUMP JUMPDEST SWAP4 POP PUSH2 0x15E3 DUP4 DUP6 DUP5 PUSH2 0x15BD JUMP JUMPDEST DUP3 DUP5 ADD SWAP1 POP SWAP4 SWAP3 POP POP POP JUMP JUMPDEST PUSH0 PUSH2 0x15FA DUP3 DUP8 PUSH2 0x159C JUMP JUMPDEST PUSH1 0x14 DUP3 ADD SWAP2 POP PUSH2 0x160A DUP3 DUP7 PUSH2 0x159C JUMP JUMPDEST PUSH1 0x14 DUP3 ADD SWAP2 POP PUSH2 0x161B DUP3 DUP5 DUP7 PUSH2 0x15CB JUMP JUMPDEST SWAP2 POP DUP2 SWAP1 POP SWAP6 SWAP5 POP POP POP POP POP JUMP JUMPDEST PUSH2 0x1632 DUP2 PUSH2 0xDB9 JUMP JUMPDEST DUP3 MSTORE POP POP JUMP JUMPDEST PUSH0 PUSH1 0x20 DUP3 ADD SWAP1 POP PUSH2 0x164B PUSH0 DUP4 ADD DUP5 PUSH2 0x1629 JUMP JUMPDEST SWAP3 SWAP2 POP POP JUMP JUMPDEST PUSH2 0x165A DUP2 PUSH2 0xE39 JUMP JUMPDEST DUP2 EQ PUSH2 0x1664 JUMPI PUSH0 DUP1 REVERT JUMPDEST POP JUMP JUMPDEST PUSH0 DUP2 MLOAD SWAP1 POP PUSH2 0x1675 DUP2 PUSH2 0x1651 JUMP JUMPDEST SWAP3 SWAP2 POP POP JUMP JUMPDEST PUSH0 PUSH1 0x20 DUP3 DUP5 SUB SLT ISZERO PUSH2 0x1690 JUMPI PUSH2 0x168F PUSH2 0xDB1 JUMP JUMPDEST JUMPDEST PUSH0 PUSH2 0x169D DUP5 DUP3 DUP6 ADD PUSH2 0x1667 JUMP JUMPDEST SWAP2 POP POP SWAP3 SWAP2 POP POP JUMP JUMPDEST PUSH2 0x16AF DUP2 PUSH2 0xFB7 JUMP JUMPDEST DUP3 MSTORE POP POP JUMP JUMPDEST PUSH0 PUSH1 0x20 DUP3 ADD SWAP1 POP PUSH2 0x16C8 PUSH0 DUP4 ADD DUP5 PUSH2 0x16A6 JUMP JUMPDEST SWAP3 SWAP2 POP POP JUMP JUMPDEST PUSH2 0x16D7 DUP2 PUSH2 0xF1D JUMP JUMPDEST DUP3 MSTORE POP POP JUMP JUMPDEST PUSH0 PUSH1 0x40 DUP3 ADD SWAP1 POP PUSH2 0x16F0 PUSH0 DUP4 ADD DUP6 PUSH2 0x16CE JUMP JUMPDEST PUSH2 0x16FD PUSH1 0x20 DUP4 ADD DUP5 PUSH2 0x1323 JUMP JUMPDEST SWAP4 SWAP3 POP POP POP JUMP JUMPDEST PUSH0 PUSH2 0x1710 DUP3 DUP5 DUP7 PUSH2 0x15CB JUMP JUMPDEST SWAP2 POP DUP2 SWAP1 POP SWAP4 SWAP3 POP POP POP JUMP JUMPDEST PUSH0 DUP2 PUSH1 0xF8 SHL SWAP1 POP SWAP2 SWAP1 POP JUMP JUMPDEST PUSH0 PUSH2 0x1732 DUP3 PUSH2 0x171C JUMP JUMPDEST SWAP1 POP SWAP2 SWAP1 POP JUMP JUMPDEST PUSH2 0x174A PUSH2 0x1745 DUP3 PUSH2 0xF1D JUMP JUMPDEST PUSH2 0x1728 JUMP JUMPDEST DUP3 MSTORE POP POP JUMP JUMPDEST PUSH0 PUSH2 0x175B DUP3 DUP9 PUSH2 0x1739 JUMP JUMPDEST PUSH1 0x1 DUP3 ADD SWAP2 POP PUSH2 0x176B DUP3 DUP8 PUSH2 0x159C JUMP JUMPDEST PUSH1 0x14 DUP3 ADD SWAP2 POP PUSH2 0x177C DUP3 DUP6 DUP8 PUSH2 0x15CB JUMP JUMPDEST SWAP2 POP PUSH2 0x1788 DUP3 DUP5 PUSH2 0x159C JUMP JUMPDEST PUSH1 0x14 DUP3 ADD SWAP2 POP DUP2 SWAP1 POP SWAP7 SWAP6 POP POP POP POP POP POP JUMP JUMPDEST PUSH32 0x4E487B7100000000000000000000000000000000000000000000000000000000 PUSH0 MSTORE PUSH1 0x41 PUSH1 0x4 MSTORE PUSH1 0x24 PUSH0 REVERT JUMPDEST PUSH0 DUP2 SWAP1 POP DUP2 PUSH0 MSTORE PUSH1 0x20 PUSH0 KECCAK256 SWAP1 POP SWAP2 SWAP1 POP JUMP JUMPDEST PUSH0 PUSH1 0x20 PUSH1 0x1F DUP4 ADD DIV SWAP1 POP SWAP2 SWAP1 POP JUMP JUMPDEST PUSH0 DUP3 DUP3 SHL SWAP1 POP SWAP3 SWAP2 POP POP JUMP JUMPDEST PUSH0 PUSH1 0x8 DUP4 MUL PUSH2 0x1824 PUSH32 0xFFFFFFFFFFFFFFFFFFFFFFFFFFFFFFFFFFFFFFFFFFFFFFFFFFFFFFFFFFFFFFFF DUP3 PUSH2 0x17E9 JUMP JUMPDEST PUSH2 0x182E DUP7 DUP4 PUSH2 0x17E9 JUMP JUMPDEST SWAP6 POP DUP1 NOT DUP5 AND SWAP4 POP DUP1 DUP7 AND DUP5 OR SWAP3 POP POP POP SWAP4 SWAP3 POP POP POP JUMP JUMPDEST PUSH0 DUP2 SWAP1 POP SWAP2 SWAP1 POP JUMP JUMPDEST PUSH0 PUSH2 0x1869 PUSH2 0x1864 PUSH2 0x185F DUP5 PUSH2 0x1846 JUMP JUMPDEST PUSH2 0xF5C JUMP JUMPDEST PUSH2 0x1846 JUMP JUMPDEST SWAP1 POP SWAP2 SWAP1 POP JUMP JUMPDEST PUSH0 DUP2 SWAP1 POP SWAP2 SWAP1 POP JUMP JUMPDEST PUSH2 0x1882 DUP4 PUSH2 0x184F JUMP JUMPDEST PUSH2 0x1896 PUSH2 0x188E DUP3 PUSH2 0x1870 JUMP JUMPDEST DUP5 DUP5 SLOAD PUSH2 0x17F5 JUMP JUMPDEST DUP3 SSTORE POP POP POP POP JUMP JUMPDEST PUSH0 SWAP1 JUMP JUMPDEST PUSH2 0x18AA PUSH2 0x189E JUMP JUMPDEST PUSH2 0x18B5 DUP2 DUP5 DUP5 PUSH2 0x1879 JUMP JUMPDEST POP POP POP JUMP JUMPDEST JUMPDEST DUP2 DUP2 LT ISZERO PUSH2 0x18D8 JUMPI PUSH2 0x18CD PUSH0 DUP3 PUSH2 0x18A2 JUMP JUMPDEST PUSH1 0x1 DUP2 ADD SWAP1 POP PUSH2 0x18BB JUMP JUMPDEST POP POP JUMP JUMPDEST PUSH1 0x1F DUP3 GT ISZERO PUSH2 0x191D JUMPI PUSH2 0x18EE DUP2 PUSH2 0x17C8 JUMP JUMPDEST PUSH2 0x18F7 DUP5 PUSH2 0x17DA JUMP JUMPDEST DUP2 ADD PUSH1 0x20 DUP6 LT ISZERO PUSH2 0x1906 JUMPI DUP2 SWAP1 POP JUMPDEST PUSH2 0x191A PUSH2 0x1912 DUP6 PUSH2 0x17DA JUMP JUMPDEST DUP4 ADD DUP3 PUSH2 0x18BA JUMP JUMPDEST POP POP JUMPDEST POP POP POP JUMP JUMPDEST PUSH0 DUP3 DUP3 SHR SWAP1 POP SWAP3 SWAP2 POP POP JUMP JUMPDEST PUSH0 PUSH2 0x193D PUSH0 NOT DUP5 PUSH1 0x8 MUL PUSH2 0x1922 JUMP JUMPDEST NOT DUP1 DUP4 AND SWAP2 POP POP SWAP3 SWAP2 POP POP JUMP JUMPDEST PUSH0 PUSH2 0x1955 DUP4 DUP4 PUSH2 0x192E JUMP JUMPDEST SWAP2 POP DUP3 PUSH1 0x2 MUL DUP3 OR SWAP1 POP SWAP3 SWAP2 POP POP JUMP JUMPDEST PUSH2 0x196E DUP3 PUSH2 0xFD7 JUMP JUMPDEST PUSH8 0xFFFFFFFFFFFFFFFF DUP2 GT ISZERO PUSH2 0x1987 JUMPI PUSH2 0x1986 PUSH2 0x179B JUMP JUMPDEST JUMPDEST PUSH2 0x1991 DUP3 SLOAD PUSH2 0x153E JUMP JUMPDEST PUSH2 0x199C DUP3 DUP3 DUP6 PUSH2 0x18DC JUMP JUMPDEST PUSH0 PUSH1 0x20 SWAP1 POP PUSH1 0x1F DUP4 GT PUSH1 0x1 DUP2 EQ PUSH2 0x19CD JUMPI PUSH0 DUP5 ISZERO PUSH2 0x19BB JUMPI DUP3 DUP8 ADD MLOAD SWAP1 POP JUMPDEST PUSH2 0x19C5 DUP6 DUP3 PUSH2 0x194A JUMP JUMPDEST DUP7 SSTORE POP PUSH2 0x1A2C JUMP JUMPDEST PUSH1 0x1F NOT DUP5 AND PUSH2 0x19DB DUP7 PUSH2 0x17C8 JUMP JUMPDEST PUSH0 JUMPDEST DUP3 DUP2 LT ISZERO PUSH2 0x1A02 JUMPI DUP5 DUP10 ADD MLOAD DUP3 SSTORE PUSH1 0x1 DUP3 ADD SWAP2 POP PUSH1 0x20 DUP6 ADD SWAP5 POP PUSH1 0x20 DUP2 ADD SWAP1 POP PUSH2 0x19DD JUMP JUMPDEST DUP7 DUP4 LT ISZERO PUSH2 0x1A1F JUMPI DUP5 DUP10 ADD MLOAD PUSH2 0x1A1B PUSH1 0x1F DUP10 AND DUP3 PUSH2 0x192E JUMP JUMPDEST DUP4 SSTORE POP JUMPDEST PUSH1 0x1 PUSH1 0x2 DUP9 MUL ADD DUP9 SSTORE POP POP POP JUMPDEST POP POP POP POP POP POP JUMP JUMPDEST PUSH0 PUSH1 0x40 DUP3 ADD SWAP1 POP PUSH2 0x1A47 PUSH0 DUP4 ADD DUP6 PUSH2 0x16A6 JUMP JUMPDEST PUSH2 0x1A54 PUSH1 0x20 DUP4 ADD DUP5 PUSH2 0x11F3 JUMP JUMPDEST SWAP4 SWAP3 POP POP POP JUMP JUMPDEST PUSH0 DUP2 SWAP1 POP SWAP2 SWAP1 POP JUMP JUMPDEST PUSH2 0x1A75 PUSH2 0x1A70 DUP3 PUSH2 0xE6C JUMP JUMPDEST PUSH2 0x1A5B JUMP JUMPDEST DUP3 MSTORE POP POP JUMP JUMPDEST PUSH0 PUSH2 0x1A86 DUP3 DUP6 PUSH2 0x1739 JUMP JUMPDEST PUSH1 0x1 DUP3 ADD SWAP2 POP PUSH2 0x1A96 DUP3 DUP5 PUSH2 0x1A64 JUMP JUMPDEST PUSH1 0x20 DUP3 ADD SWAP2 POP DUP2 SWAP1 POP SWAP4 SWAP3 POP POP POP JUMP JUMPDEST PUSH0 DUP2 MLOAD SWAP1 POP SWAP2 SWAP1 POP JUMP JUMPDEST PUSH0 DUP3 DUP3 MSTORE PUSH1 0x20 DUP3 ADD SWAP1 POP SWAP3 SWAP2 POP POP JUMP JUMPDEST PUSH0 PUSH2 0x1ACA DUP3 PUSH2 0x1AA6 JUMP JUMPDEST PUSH2 0x1AD4 DUP2 DUP6 PUSH2 0x1AB0 JUMP JUMPDEST SWAP4 POP PUSH2 0x1AE4 DUP2 DUP6 PUSH1 0x20 DUP7 ADD PUSH2 0xFF1 JUMP JUMPDEST PUSH2 0x1AED DUP2 PUSH2 0xFFF JUMP JUMPDEST DUP5 ADD SWAP2 POP POP SWAP3 SWAP2 POP POP JUMP JUMPDEST PUSH0 PUSH1 0x20 DUP3 ADD SWAP1 POP DUP2 DUP2 SUB PUSH0 DUP4 ADD MSTORE PUSH2 0x1B10 DUP2 DUP5 PUSH2 0x1AC0 JUMP JUMPDEST SWAP1 POP SWAP3 SWAP2 POP POP JUMP INVALID LOG2 PUSH5 0x6970667358 0x22 SLT KECCAK256 DUP16 STATICCALL PUSH28 0x9CF9194D97BCA58FA4C9FF70D497D0E2B79A41DA5F81847F8223ECF0 JUMPDEST PUSH5 0x736F6C6343 STOP ADDMOD NOT STOP CALLER "},"methodIdentifiers":{"deployClone(uint8,address,string,bytes)":"fd97064b","getBaseImplementation(bytes32)":"83f38859","getClone(bytes32)":"3aaf1626","getCloneIdentifier(uint8,address,address,string)":"acc83fc8","getClones(address)":"792aa01c","getIdentifier(uint8,string)":"f1668792","register(uint8,string,address)":"d12dd481","supportsInterface(bytes4)":"01ffc9a7"}}}}}