{
  "_format": "hh-sol-artifact-1",
  "contractName": "SimpleBudget",
  "sourceName": "contracts/budgets/SimpleBudget.sol",
  "abi": [
    {
      "inputs": [],
      "stateMutability": "nonpayable",
      "type": "constructor"
    },
    {
      "inputs": [],
      "name": "AlreadyInitialized",
      "type": "error"
    },
    {
      "inputs": [],
      "name": "CloneAlreadyInitialized",
      "type": "error"
    },
    {
      "inputs": [],
      "name": "InitializerNotImplemented",
      "type": "error"
    },
    {
      "inputs": [
        {
          "internalType": "address",
          "name": "asset",
          "type": "address"
        },
        {
          "internalType": "uint256",
          "name": "available",
          "type": "uint256"
        },
        {
          "internalType": "uint256",
          "name": "required",
          "type": "uint256"
        }
      ],
      "name": "InsufficientFunds",
      "type": "error"
    },
    {
      "inputs": [
        {
          "internalType": "address",
          "name": "asset",
          "type": "address"
        },
        {
          "internalType": "uint256",
          "name": "amount",
          "type": "uint256"
        }
      ],
      "name": "InvalidAllocation",
      "type": "error"
    },
    {
      "inputs": [],
      "name": "InvalidInitialization",
      "type": "error"
    },
    {
      "inputs": [],
      "name": "InvalidInitializationData",
      "type": "error"
    },
    {
      "inputs": [],
      "name": "LengthMismatch",
      "type": "error"
    },
    {
      "inputs": [],
      "name": "NewOwnerIsZeroAddress",
      "type": "error"
    },
    {
      "inputs": [],
      "name": "NoHandoverRequest",
      "type": "error"
    },
    {
      "inputs": [],
      "name": "NotInitializing",
      "type": "error"
    },
    {
      "inputs": [],
      "name": "Reentrancy",
      "type": "error"
    },
    {
      "inputs": [
        {
          "internalType": "address",
          "name": "asset",
          "type": "address"
        },
        {
          "internalType": "address",
          "name": "to",
          "type": "address"
        },
        {
          "internalType": "uint256",
          "name": "amount",
          "type": "uint256"
        }
      ],
      "name": "TransferFailed",
      "type": "error"
    },
    {
      "inputs": [],
      "name": "Unauthorized",
      "type": "error"
    },
    {
      "anonymous": false,
      "inputs": [
        {
          "indexed": true,
          "internalType": "address",
          "name": "account",
          "type": "address"
        },
        {
          "indexed": false,
          "internalType": "bool",
          "name": "isAuthorized",
          "type": "bool"
        }
      ],
      "name": "Authorized",
      "type": "event"
    },
    {
      "anonymous": false,
      "inputs": [
        {
          "indexed": true,
          "internalType": "address",
          "name": "asset",
          "type": "address"
        },
        {
          "indexed": false,
          "internalType": "address",
          "name": "to",
          "type": "address"
        },
        {
          "indexed": false,
          "internalType": "uint256",
          "name": "amount",
          "type": "uint256"
        }
      ],
      "name": "Distributed",
      "type": "event"
    },
    {
      "anonymous": false,
      "inputs": [
        {
          "indexed": false,
          "internalType": "uint64",
          "name": "version",
          "type": "uint64"
        }
      ],
      "name": "Initialized",
      "type": "event"
    },
    {
      "anonymous": false,
      "inputs": [
        {
          "indexed": true,
          "internalType": "address",
          "name": "pendingOwner",
          "type": "address"
        }
      ],
      "name": "OwnershipHandoverCanceled",
      "type": "event"
    },
    {
      "anonymous": false,
      "inputs": [
        {
          "indexed": true,
          "internalType": "address",
          "name": "pendingOwner",
          "type": "address"
        }
      ],
      "name": "OwnershipHandoverRequested",
      "type": "event"
    },
    {
      "anonymous": false,
      "inputs": [
        {
          "indexed": true,
          "internalType": "address",
          "name": "oldOwner",
          "type": "address"
        },
        {
          "indexed": true,
          "internalType": "address",
          "name": "newOwner",
          "type": "address"
        }
      ],
      "name": "OwnershipTransferred",
      "type": "event"
    },
    {
      "stateMutability": "payable",
      "type": "fallback"
    },
    {
      "inputs": [
        {
          "internalType": "bytes",
          "name": "data_",
          "type": "bytes"
        }
      ],
      "name": "allocate",
      "outputs": [
        {
          "internalType": "bool",
          "name": "",
          "type": "bool"
        }
      ],
      "stateMutability": "payable",
      "type": "function"
    },
    {
      "inputs": [
        {
          "internalType": "address",
          "name": "asset_",
          "type": "address"
        }
      ],
      "name": "available",
      "outputs": [
        {
          "internalType": "uint256",
          "name": "",
          "type": "uint256"
        }
      ],
      "stateMutability": "view",
      "type": "function"
    },
    {
      "inputs": [
        {
          "internalType": "address",
          "name": "asset_",
          "type": "address"
        },
        {
          "internalType": "uint256",
          "name": "tokenId_",
          "type": "uint256"
        }
      ],
      "name": "available",
      "outputs": [
        {
          "internalType": "uint256",
          "name": "",
          "type": "uint256"
        }
      ],
      "stateMutability": "view",
      "type": "function"
    },
    {
      "inputs": [],
      "name": "cancelOwnershipHandover",
      "outputs": [],
      "stateMutability": "payable",
      "type": "function"
    },
    {
      "inputs": [
        {
          "internalType": "address",
          "name": "pendingOwner",
          "type": "address"
        }
      ],
      "name": "completeOwnershipHandover",
      "outputs": [],
      "stateMutability": "payable",
      "type": "function"
    },
    {
      "inputs": [
        {
          "internalType": "bytes",
          "name": "data_",
          "type": "bytes"
        }
      ],
      "name": "disburse",
      "outputs": [
        {
          "internalType": "bool",
          "name": "",
          "type": "bool"
        }
      ],
      "stateMutability": "nonpayable",
      "type": "function"
    },
    {
      "inputs": [
        {
          "internalType": "bytes[]",
          "name": "data_",
          "type": "bytes[]"
        }
      ],
      "name": "disburseBatch",
      "outputs": [
        {
          "internalType": "bool",
          "name": "",
          "type": "bool"
        }
      ],
      "stateMutability": "nonpayable",
      "type": "function"
    },
    {
      "inputs": [
        {
          "internalType": "address",
          "name": "asset_",
          "type": "address"
        }
      ],
      "name": "distributed",
      "outputs": [
        {
          "internalType": "uint256",
          "name": "",
          "type": "uint256"
        }
      ],
      "stateMutability": "view",
      "type": "function"
    },
    {
      "inputs": [
        {
          "internalType": "address",
          "name": "asset_",
          "type": "address"
        },
        {
          "internalType": "uint256",
          "name": "tokenId_",
          "type": "uint256"
        }
      ],
      "name": "distributed",
      "outputs": [
        {
          "internalType": "uint256",
          "name": "",
          "type": "uint256"
        }
      ],
      "stateMutability": "view",
      "type": "function"
    },
    {
      "inputs": [],
      "name": "getComponentInterface",
      "outputs": [
        {
          "internalType": "bytes4",
          "name": "",
          "type": "bytes4"
        }
      ],
      "stateMutability": "pure",
      "type": "function"
    },
    {
      "inputs": [
        {
          "internalType": "bytes",
          "name": "data_",
          "type": "bytes"
        }
      ],
      "name": "initialize",
      "outputs": [],
      "stateMutability": "nonpayable",
      "type": "function"
    },
    {
      "inputs": [
        {
          "internalType": "address",
          "name": "account_",
          "type": "address"
        }
      ],
      "name": "isAuthorized",
      "outputs": [
        {
          "internalType": "bool",
          "name": "",
          "type": "bool"
        }
      ],
      "stateMutability": "view",
      "type": "function"
    },
    {
      "inputs": [
        {
          "internalType": "address",
          "name": "",
          "type": "address"
        },
        {
          "internalType": "address",
          "name": "",
          "type": "address"
        },
        {
          "internalType": "uint256[]",
          "name": "",
          "type": "uint256[]"
        },
        {
          "internalType": "uint256[]",
          "name": "",
          "type": "uint256[]"
        },
        {
          "internalType": "bytes",
          "name": "",
          "type": "bytes"
        }
      ],
      "name": "onERC1155BatchReceived",
      "outputs": [
        {
          "internalType": "bytes4",
          "name": "",
          "type": "bytes4"
        }
      ],
      "stateMutability": "pure",
      "type": "function"
    },
    {
      "inputs": [
        {
          "internalType": "address",
          "name": "",
          "type": "address"
        },
        {
          "internalType": "address",
          "name": "",
          "type": "address"
        },
        {
          "internalType": "uint256",
          "name": "",
          "type": "uint256"
        },
        {
          "internalType": "uint256",
          "name": "",
          "type": "uint256"
        },
        {
          "internalType": "bytes",
          "name": "",
          "type": "bytes"
        }
      ],
      "name": "onERC1155Received",
      "outputs": [
        {
          "internalType": "bytes4",
          "name": "",
          "type": "bytes4"
        }
      ],
      "stateMutability": "pure",
      "type": "function"
    },
    {
      "inputs": [],
      "name": "owner",
      "outputs": [
        {
          "internalType": "address",
          "name": "result",
          "type": "address"
        }
      ],
      "stateMutability": "view",
      "type": "function"
    },
    {
      "inputs": [
        {
          "internalType": "address",
          "name": "pendingOwner",
          "type": "address"
        }
      ],
      "name": "ownershipHandoverExpiresAt",
      "outputs": [
        {
          "internalType": "uint256",
          "name": "result",
          "type": "uint256"
        }
      ],
      "stateMutability": "view",
      "type": "function"
    },
    {
      "inputs": [
        {
          "internalType": "bytes",
          "name": "data_",
          "type": "bytes"
        }
      ],
      "name": "reclaim",
      "outputs": [
        {
          "internalType": "bool",
          "name": "",
          "type": "bool"
        }
      ],
      "stateMutability": "nonpayable",
      "type": "function"
    },
    {
      "inputs": [
        {
          "internalType": "bytes",
          "name": "",
          "type": "bytes"
        }
      ],
      "name": "reconcile",
      "outputs": [
        {
          "internalType": "uint256",
          "name": "",
          "type": "uint256"
        }
      ],
      "stateMutability": "nonpayable",
      "type": "function"
    },
    {
      "inputs": [],
      "name": "renounceOwnership",
      "outputs": [],
      "stateMutability": "payable",
      "type": "function"
    },
    {
      "inputs": [],
      "name": "requestOwnershipHandover",
      "outputs": [],
      "stateMutability": "payable",
      "type": "function"
    },
    {
      "inputs": [
        {
          "internalType": "address[]",
          "name": "account_",
          "type": "address[]"
        },
        {
          "internalType": "bool[]",
          "name": "authorized_",
          "type": "bool[]"
        }
      ],
      "name": "setAuthorized",
      "outputs": [],
      "stateMutability": "nonpayable",
      "type": "function"
    },
    {
      "inputs": [
        {
          "internalType": "bytes4",
          "name": "interfaceId",
          "type": "bytes4"
        }
      ],
      "name": "supportsInterface",
      "outputs": [
        {
          "internalType": "bool",
          "name": "",
          "type": "bool"
        }
      ],
      "stateMutability": "view",
      "type": "function"
    },
    {
      "inputs": [
        {
          "internalType": "address",
          "name": "asset_",
          "type": "address"
        }
      ],
      "name": "total",
      "outputs": [
        {
          "internalType": "uint256",
          "name": "",
          "type": "uint256"
        }
      ],
      "stateMutability": "view",
      "type": "function"
    },
    {
      "inputs": [
        {
          "internalType": "address",
          "name": "asset_",
          "type": "address"
        },
        {
          "internalType": "uint256",
          "name": "tokenId_",
          "type": "uint256"
        }
      ],
      "name": "total",
      "outputs": [
        {
          "internalType": "uint256",
          "name": "",
          "type": "uint256"
        }
      ],
      "stateMutability": "view",
      "type": "function"
    },
    {
      "inputs": [
        {
          "internalType": "address",
          "name": "newOwner",
          "type": "address"
        }
      ],
      "name": "transferOwnership",
      "outputs": [],
      "stateMutability": "payable",
      "type": "function"
    },
    {
      "stateMutability": "payable",
      "type": "receive"
    }
  ],
  "bytecode": "0x608060405234801561000f575f80fd5b5061001f3361003260201b60201c565b61002d61010e60201b60201c565b6101a7565b61004061017a60201b60201c565b156100b8577fffffffffffffffffffffffffffffffffffffffffffffffffffffffff7487392780541561007a57630dc149f05f526004601cfd5b8160601b60601c9150811560ff1b82178155815f7f8be0079c531659141344cd1fd0a4f28419497f9722a3daafe3b4186f6b6457e05f80a35061010b565b8060601b60601c9050807fffffffffffffffffffffffffffffffffffffffffffffffffffffffff7487392755805f7f8be0079c531659141344cd1fd0a4f28419497f9722a3daafe3b4186f6b6457e05f80a35b50565b5f61011d61017e60201b60201c565b9050805460018116156101375763f92ee8a95f526004601cfd5b8160c01c808260011c14610175578060011b8355806020527fc7f505b2f371ae2175ee4913f4499e1f2633a7b5936321eed1cdaeb6115181d2602080a15b505050565b5f90565b5f7fffffffffffffffffffffffffffffffffffffffffffffffffffffffffbf6011325f1b905090565b612e65806101b45f395ff3fe608060405260043610610169575f3560e01c8063774c33ab116100d0578063f23a6e6111610089578063f9a802c311610063578063f9a802c314610530578063fa4ca9b11461056c578063fe9fbb80146105a8578063fee81cf4146105e457610170565b8063f23a6e611461049c578063f2fde38b146104d8578063f8724aba146104f457610170565b8063774c33ab146103665780638da5cb5b146103a2578063bc197c81146103cc578063d2514e8414610408578063f04e283e14610444578063f1c30ec01461046057610170565b8063451cc19111610122578063451cc1911461026e57806354d1f13d146102aa578063578bcf35146102b45780635aef467a146102f057806361400c9914610320578063715018a61461035c57610170565b806301ffc9a71461017257806310098ad5146101ae57806325692962146101ea57806328d6183b146101f45780634359d28a1461021e578063439fab911461024657610170565b3661017057005b005b34801561017d575f80fd5b5061019860048036038101906101939190611fe7565b610620565b6040516101a5919061202c565b60405180910390f35b3480156101b9575f80fd5b506101d460048036038101906101cf919061209f565b610769565b6040516101e191906120e2565b60405180910390f35b6101f26107d4565b005b3480156101ff575f80fd5b50610208610825565b604051610215919061210a565b60405180910390f35b348015610229575f80fd5b50610244600480360381019061023f91906121d9565b61084c565b005b348015610251575f80fd5b5061026c600480360381019061026791906122ac565b610956565b005b348015610279575f80fd5b50610294600480360381019061028f91906122ac565b610a7b565b6040516102a191906120e2565b60405180910390f35b6102b2610a82565b005b3480156102bf575f80fd5b506102da60048036038101906102d5919061209f565b610abb565b6040516102e791906120e2565b60405180910390f35b61030a600480360381019061030591906122ac565b610b00565b604051610317919061202c565b60405180910390f35b34801561032b575f80fd5b506103466004803603810190610341919061234c565b610e70565b604051610353919061202c565b60405180910390f35b610364610ed4565b005b348015610371575f80fd5b5061038c600480360381019061038791906123c1565b610ee7565b60405161039991906120e2565b60405180910390f35b3480156103ad575f80fd5b506103b6610f3d565b6040516103c3919061240e565b60405180910390f35b3480156103d7575f80fd5b506103f260048036038101906103ed919061247c565b610f65565b6040516103ff919061210a565b60405180910390f35b348015610413575f80fd5b5061042e6004803603810190610429919061209f565b610f7c565b60405161043b91906120e2565b60405180910390f35b61045e6004803603810190610459919061209f565b610fd4565b005b34801561046b575f80fd5b50610486600480360381019061048191906122ac565b611012565b604051610493919061202c565b60405180910390f35b3480156104a7575f80fd5b506104c260048036038101906104bd9190612553565b6111f8565b6040516104cf919061210a565b60405180910390f35b6104f260048036038101906104ed919061209f565b61120d565b005b3480156104ff575f80fd5b5061051a600480360381019061051591906123c1565b611236565b60405161052791906120e2565b60405180910390f35b34801561053b575f80fd5b50610556600480360381019061055191906123c1565b6112b8565b60405161056391906120e2565b60405180910390f35b348015610577575f80fd5b50610592600480360381019061058d91906122ac565b611391565b60405161059f919061202c565b60405180910390f35b3480156105b3575f80fd5b506105ce60048036038101906105c9919061209f565b61163d565b6040516105db919061202c565b60405180910390f35b3480156105ef575f80fd5b5061060a6004803603810190610605919061209f565b6116cc565b60405161061791906120e2565b60405180910390f35b5f7f0f2a5d52000000000000000000000000000000000000000000000000000000007bffffffffffffffffffffffffffffffffffffffffffffffffffffffff1916827bffffffffffffffffffffffffffffffffffffffffffffffffffffffff191614806106ea57507f4e2312e0000000000000000000000000000000000000000000000000000000007bffffffffffffffffffffffffffffffffffffffffffffffffffffffff1916827bffffffffffffffffffffffffffffffffffffffffffffffffffffffff1916145b8061075257507f01ffc9a7000000000000000000000000000000000000000000000000000000007bffffffffffffffffffffffffffffffffffffffffffffffffffffffff1916827bffffffffffffffffffffffffffffffffffffffffffffffffffffffff1916145b806107625750610761826116e5565b5b9050919050565b5f8073ffffffffffffffffffffffffffffffffffffffff168273ffffffffffffffffffffffffffffffffffffffff16146107cb576107c6308373ffffffffffffffffffffffffffffffffffffffff1661175e90919063ffffffff16565b6107cd565b475b9050919050565b5f6107dd611791565b67ffffffffffffffff164201905063389a75e1600c52335f52806020600c2055337fdbf36a107da19e49527a7176a1babf963b4b0ff8cde35ee35d6cd8f1f9ac7e1d5f80a250565b5f7f0f2a5d5200000000000000000000000000000000000000000000000000000000905090565b61085461179b565b818190508484905014610893576040517fff633a3800000000000000000000000000000000000000000000000000000000815260040160405180910390fd5b5f5b8484905081101561094f578282828181106108b3576108b26125e9565b5b90506020020160208101906108c89190612640565b60025f8787858181106108de576108dd6125e9565b5b90506020020160208101906108f3919061209f565b73ffffffffffffffffffffffffffffffffffffffff1673ffffffffffffffffffffffffffffffffffffffff1681526020019081526020015f205f6101000a81548160ff0219169083151502179055508080600101915050610895565b5050505050565b5f61095f6117d2565b905080546003825580156109915760018160011c14303b106109885763f92ee8a95f526004601cfd5b818160ff1b1b91505b505f83838101906109a29190612824565b90506109b0815f01516117fb565b5f5b816020015151811015610a3f57600160025f846020015184815181106109db576109da6125e9565b5b602002602001015173ffffffffffffffffffffffffffffffffffffffff1673ffffffffffffffffffffffffffffffffffffffff1681526020019081526020015f205f6101000a81548160ff02191690831515021790555080806001019150506109b2565b50508015610a76576002815560016020527fc7f505b2f371ae2175ee4913f4499e1f2633a7b5936321eed1cdaeb6115181d2602080a15b505050565b5f92915050565b63389a75e1600c52335f525f6020600c2055337ffa7b8eab7da67f412cc9575ed43464468f9bfbae89d1675917346ca6d8fe3c925f80a2565b5f805f8373ffffffffffffffffffffffffffffffffffffffff1673ffffffffffffffffffffffffffffffffffffffff1681526020019081526020015f20549050919050565b5f808383810190610b1191906129cf565b90505f6002811115610b2657610b25612a16565b5b815f01516002811115610b3c57610b3b612a16565b5b03610bb2575f8160600151806020019051810190610b5a9190612a90565b9050805f01513414610bac578160200151815f01516040517fcece04c5000000000000000000000000000000000000000000000000000000008152600401610ba3929190612abb565b60405180910390fd5b50610e64565b60016002811115610bc657610bc5612a16565b5b815f01516002811115610bdc57610bdb612a16565b5b03610cb7575f8160600151806020019051810190610bfa9190612a90565b9050610c34826040015130835f0151856020015173ffffffffffffffffffffffffffffffffffffffff166118d1909392919063ffffffff16565b805f0151610c6530846020015173ffffffffffffffffffffffffffffffffffffffff1661175e90919063ffffffff16565b1015610cb1578160200151815f01516040517fcece04c5000000000000000000000000000000000000000000000000000000008152600401610ca8929190612abb565b60405180910390fd5b50610e63565b600280811115610cca57610cc9612a16565b5b815f01516002811115610ce057610cdf612a16565b5b03610e59575f8160600151806020019051810190610cfe9190612bdb565b9050816020015173ffffffffffffffffffffffffffffffffffffffff1663f242432a836040015130845f0151856020015186604001516040518663ffffffff1660e01b8152600401610d54959493929190612c74565b5f604051808303815f87803b158015610d6b575f80fd5b505af1158015610d7d573d5f803e3d5ffd5b505050508060200151826020015173ffffffffffffffffffffffffffffffffffffffff1662fdd58e30845f01516040518363ffffffff1660e01b8152600401610dc7929190612abb565b602060405180830381865afa158015610de2573d5f803e3d5ffd5b505050506040513d601f19601f82011682018060405250810190610e069190612ccc565b1015610e5357816020015181602001516040517fcece04c5000000000000000000000000000000000000000000000000000000008152600401610e4a929190612abb565b60405180910390fd5b50610e62565b5f915050610e6a565b5b5b60019150505b92915050565b5f805f90505b83839050811015610ec857610eae848483818110610e9757610e966125e9565b5b9050602002810190610ea99190612d03565b611391565b610ebb575f915050610ece565b8080600101915050610e76565b50600190505b92915050565b610edc61179b565b610ee55f61192b565b565b5f60015f8473ffffffffffffffffffffffffffffffffffffffff1673ffffffffffffffffffffffffffffffffffffffff1681526020019081526020015f205f8381526020019081526020015f2054905092915050565b5f7fffffffffffffffffffffffffffffffffffffffffffffffffffffffff7487392754905090565b5f63bc197c8160e01b905098975050505050505050565b5f805f8373ffffffffffffffffffffffffffffffffffffffff1673ffffffffffffffffffffffffffffffffffffffff1681526020019081526020015f2054610fc383610769565b610fcd9190612d92565b9050919050565b610fdc61179b565b63389a75e1600c52805f526020600c20805442111561100257636f5e88185f526004601cfd5b5f81555061100f8161192b565b50565b5f61101b61179b565b5f838381019061102b91906129cf565b90505f60028111156110405761103f612a16565b5b815f0151600281111561105657611055612a16565b5b148061108957506001600281111561107157611070612a16565b5b815f0151600281111561108757611086612a16565b5b145b156110e2575f81606001518060200190518101906110a79190612a90565b90506110dc826020015183604001515f845f0151146110c957835f01516110d7565b6110d68560200151610769565b5b6119f1565b506111ec565b6002808111156110f5576110f4612a16565b5b815f0151600281111561110b5761110a612a16565b5b036111e2575f81606001518060200190518101906111299190612bdb565b90506111dc82602001518360400151835f01515f8560200151146111515784602001516111d2565b856020015173ffffffffffffffffffffffffffffffffffffffff1662fdd58e30875f01516040518363ffffffff1660e01b8152600401611192929190612abb565b602060405180830381865afa1580156111ad573d5f803e3d5ffd5b505050506040513d601f19601f820116820180604052508101906111d19190612ccc565b5b8560400151611c09565b506111eb565b5f9150506111f2565b5b60019150505b92915050565b5f63f23a6e6160e01b90509695505050505050565b61121561179b565b8060601b61122a57637448fbae5f526004601cfd5b6112338161192b565b50565b5f8273ffffffffffffffffffffffffffffffffffffffff1662fdd58e30846040518363ffffffff1660e01b8152600401611271929190612abb565b602060405180830381865afa15801561128c573d5f803e3d5ffd5b505050506040513d601f19601f820116820180604052508101906112b09190612ccc565b905092915050565b5f60015f8473ffffffffffffffffffffffffffffffffffffffff1673ffffffffffffffffffffffffffffffffffffffff1681526020019081526020015f205f8381526020019081526020015f20548373ffffffffffffffffffffffffffffffffffffffff1662fdd58e30856040518363ffffffff1660e01b8152600401611340929190612abb565b602060405180830381865afa15801561135b573d5f803e3d5ffd5b505050506040513d601f19601f8201168201806040525081019061137f9190612ccc565b6113899190612d92565b905092915050565b5f61139b3361163d565b6113d1576040517f82b4290000000000000000000000000000000000000000000000000000000000815260040160405180910390fd5b5f83838101906113e191906129cf565b9050600160028111156113f7576113f6612a16565b5b815f0151600281111561140d5761140c612a16565b5b148061143f57505f600281111561142757611426612a16565b5b815f0151600281111561143d5761143c612a16565b5b145b156114df575f816060015180602001905181019061145d9190612a90565b90505f61146d8360200151610769565b905080825f015111156114c257826020015181835f01516040517f5c54305e0000000000000000000000000000000000000000000000000000000081526004016114b993929190612dc5565b60405180910390fd5b6114d883602001518460400151845f01516119f1565b5050611631565b6002808111156114f2576114f1612a16565b5b815f0151600281111561150857611507612a16565b5b03611627575f81606001518060200190518101906115269190612bdb565b90505f826020015173ffffffffffffffffffffffffffffffffffffffff1662fdd58e30845f01516040518363ffffffff1660e01b815260040161156a929190612abb565b602060405180830381865afa158015611585573d5f803e3d5ffd5b505050506040513d601f19601f820116820180604052508101906115a99190612ccc565b905080826020015111156116005782602001518183602001516040517f5c54305e0000000000000000000000000000000000000000000000000000000081526004016115f793929190612dc5565b60405180910390fd5b61162083602001518460400151845f015185602001518660400151611c09565b5050611630565b5f915050611637565b5b60019150505b92915050565b5f60025f8373ffffffffffffffffffffffffffffffffffffffff1673ffffffffffffffffffffffffffffffffffffffff1681526020019081526020015f205f9054906101000a900460ff16806116c55750611696610f3d565b73ffffffffffffffffffffffffffffffffffffffff168273ffffffffffffffffffffffffffffffffffffffff16145b9050919050565b5f63389a75e1600c52815f526020600c20549050919050565b5f7f74009ff1000000000000000000000000000000000000000000000000000000007bffffffffffffffffffffffffffffffffffffffffffffffffffffffff1916827bffffffffffffffffffffffffffffffffffffffffffffffffffffffff19161480611757575061175682611e35565b5b9050919050565b5f816014526f70a082310000000000000000000000005f5260208060246010865afa601f3d111660205102905092915050565b5f6202a300905090565b7fffffffffffffffffffffffffffffffffffffffffffffffffffffffff748739275433146117d0576382b429005f526004601cfd5b565b5f7fffffffffffffffffffffffffffffffffffffffffffffffffffffffffbf6011325f1b905090565b611803611eae565b1561187b577fffffffffffffffffffffffffffffffffffffffffffffffffffffffff7487392780541561183d57630dc149f05f526004601cfd5b8160601b60601c9150811560ff1b82178155815f7f8be0079c531659141344cd1fd0a4f28419497f9722a3daafe3b4186f6b6457e05f80a3506118ce565b8060601b60601c9050807fffffffffffffffffffffffffffffffffffffffffffffffffffffffff7487392755805f7f8be0079c531659141344cd1fd0a4f28419497f9722a3daafe3b4186f6b6457e05f80a35b50565b60405181606052826040528360601b602c526f23b872dd000000000000000000000000600c5260205f6064601c5f895af13d1560015f5114171661191c57637939f4245f526004601cfd5b5f606052806040525050505050565b611933611eae565b15611998577fffffffffffffffffffffffffffffffffffffffffffffffffffffffff748739278160601b60601c91508181547f8be0079c531659141344cd1fd0a4f28419497f9722a3daafe3b4186f6b6457e05f80a3811560ff1b82178155506119ee565b7fffffffffffffffffffffffffffffffffffffffffffffffffffffffff748739278160601b60601c91508181547f8be0079c531659141344cd1fd0a4f28419497f9722a3daafe3b4186f6b6457e05f80a3818155505b50565b3068929eee149b4bd212685403611a0f5763ab143c065f526004601cfd5b3068929eee149b4bd21268555f73ffffffffffffffffffffffffffffffffffffffff168273ffffffffffffffffffffffffffffffffffffffff1603611a8f578282826040517fbf182be8000000000000000000000000000000000000000000000000000000008152600401611a8693929190612dfa565b60405180910390fd5b611a9883610769565b811115611ae85782611aa984610769565b826040517f5c54305e000000000000000000000000000000000000000000000000000000008152600401611adf93929190612dc5565b60405180910390fd5b805f808573ffffffffffffffffffffffffffffffffffffffff1673ffffffffffffffffffffffffffffffffffffffff1681526020019081526020015f205f828254611b339190612d92565b925050819055505f73ffffffffffffffffffffffffffffffffffffffff168373ffffffffffffffffffffffffffffffffffffffff1603611b7c57611b778282611eb2565b611ba8565b611ba782828573ffffffffffffffffffffffffffffffffffffffff16611ecf9092919063ffffffff16565b5b8273ffffffffffffffffffffffffffffffffffffffff167fad4a9acf26d8bba7a8cf1a41160d59be042ee554578e256c98d2ab74cdd435428383604051611bf0929190612abb565b60405180910390a23868929eee149b4bd2126855505050565b3068929eee149b4bd212685403611c275763ab143c065f526004601cfd5b3068929eee149b4bd21268555f73ffffffffffffffffffffffffffffffffffffffff168473ffffffffffffffffffffffffffffffffffffffff1603611ca7578484836040517fbf182be8000000000000000000000000000000000000000000000000000000008152600401611c9e93929190612dfa565b60405180910390fd5b611cb18584611236565b821115611d025784611cc38685611236565b836040517f5c54305e000000000000000000000000000000000000000000000000000000008152600401611cf993929190612dc5565b60405180910390fd5b8160015f8773ffffffffffffffffffffffffffffffffffffffff1673ffffffffffffffffffffffffffffffffffffffff1681526020019081526020015f205f8581526020019081526020015f205f828254611d5d9190612d92565b925050819055508473ffffffffffffffffffffffffffffffffffffffff1663f242432a30868686866040518663ffffffff1660e01b8152600401611da5959493929190612c74565b5f604051808303815f87803b158015611dbc575f80fd5b505af1158015611dce573d5f803e3d5ffd5b505050508473ffffffffffffffffffffffffffffffffffffffff167fad4a9acf26d8bba7a8cf1a41160d59be042ee554578e256c98d2ab74cdd435428584604051611e1a929190612abb565b60405180910390a23868929eee149b4bd21268555050505050565b5f7f6ab67a0d000000000000000000000000000000000000000000000000000000007bffffffffffffffffffffffffffffffffffffffffffffffffffffffff1916827bffffffffffffffffffffffffffffffffffffffffffffffffffffffff19161480611ea75750611ea682611f18565b5b9050919050565b5f90565b5f385f3884865af1611ecb5763b12d13eb5f526004601cfd5b5050565b81601452806034526fa9059cbb0000000000000000000000005f5260205f604460105f875af13d1560015f51141716611f0f576390b8ec185f526004601cfd5b5f603452505050565b5f7f01ffc9a7000000000000000000000000000000000000000000000000000000007bffffffffffffffffffffffffffffffffffffffffffffffffffffffff1916827bffffffffffffffffffffffffffffffffffffffffffffffffffffffff1916149050919050565b5f604051905090565b5f80fd5b5f80fd5b5f7fffffffff0000000000000000000000000000000000000000000000000000000082169050919050565b611fc681611f92565b8114611fd0575f80fd5b50565b5f81359050611fe181611fbd565b92915050565b5f60208284031215611ffc57611ffb611f8a565b5b5f61200984828501611fd3565b91505092915050565b5f8115159050919050565b61202681612012565b82525050565b5f60208201905061203f5f83018461201d565b92915050565b5f73ffffffffffffffffffffffffffffffffffffffff82169050919050565b5f61206e82612045565b9050919050565b61207e81612064565b8114612088575f80fd5b50565b5f8135905061209981612075565b92915050565b5f602082840312156120b4576120b3611f8a565b5b5f6120c18482850161208b565b91505092915050565b5f819050919050565b6120dc816120ca565b82525050565b5f6020820190506120f55f8301846120d3565b92915050565b61210481611f92565b82525050565b5f60208201905061211d5f8301846120fb565b92915050565b5f80fd5b5f80fd5b5f80fd5b5f8083601f84011261214457612143612123565b5b8235905067ffffffffffffffff81111561216157612160612127565b5b60208301915083602082028301111561217d5761217c61212b565b5b9250929050565b5f8083601f84011261219957612198612123565b5b8235905067ffffffffffffffff8111156121b6576121b5612127565b5b6020830191508360208202830111156121d2576121d161212b565b5b9250929050565b5f805f80604085870312156121f1576121f0611f8a565b5b5f85013567ffffffffffffffff81111561220e5761220d611f8e565b5b61221a8782880161212f565b9450945050602085013567ffffffffffffffff81111561223d5761223c611f8e565b5b61224987828801612184565b925092505092959194509250565b5f8083601f84011261226c5761226b612123565b5b8235905067ffffffffffffffff81111561228957612288612127565b5b6020830191508360018202830111156122a5576122a461212b565b5b9250929050565b5f80602083850312156122c2576122c1611f8a565b5b5f83013567ffffffffffffffff8111156122df576122de611f8e565b5b6122eb85828601612257565b92509250509250929050565b5f8083601f84011261230c5761230b612123565b5b8235905067ffffffffffffffff81111561232957612328612127565b5b6020830191508360208202830111156123455761234461212b565b5b9250929050565b5f806020838503121561236257612361611f8a565b5b5f83013567ffffffffffffffff81111561237f5761237e611f8e565b5b61238b858286016122f7565b92509250509250929050565b6123a0816120ca565b81146123aa575f80fd5b50565b5f813590506123bb81612397565b92915050565b5f80604083850312156123d7576123d6611f8a565b5b5f6123e48582860161208b565b92505060206123f5858286016123ad565b9150509250929050565b61240881612064565b82525050565b5f6020820190506124215f8301846123ff565b92915050565b5f8083601f84011261243c5761243b612123565b5b8235905067ffffffffffffffff81111561245957612458612127565b5b6020830191508360208202830111156124755761247461212b565b5b9250929050565b5f805f805f805f8060a0898b03121561249857612497611f8a565b5b5f6124a58b828c0161208b565b98505060206124b68b828c0161208b565b975050604089013567ffffffffffffffff8111156124d7576124d6611f8e565b5b6124e38b828c01612427565b9650965050606089013567ffffffffffffffff81111561250657612505611f8e565b5b6125128b828c01612427565b9450945050608089013567ffffffffffffffff81111561253557612534611f8e565b5b6125418b828c01612257565b92509250509295985092959890939650565b5f805f805f8060a0878903121561256d5761256c611f8a565b5b5f61257a89828a0161208b565b965050602061258b89828a0161208b565b955050604061259c89828a016123ad565b94505060606125ad89828a016123ad565b935050608087013567ffffffffffffffff8111156125ce576125cd611f8e565b5b6125da89828a01612257565b92509250509295509295509295565b7f4e487b71000000000000000000000000000000000000000000000000000000005f52603260045260245ffd5b61261f81612012565b8114612629575f80fd5b50565b5f8135905061263a81612616565b92915050565b5f6020828403121561265557612654611f8a565b5b5f6126628482850161262c565b91505092915050565b5f80fd5b5f601f19601f8301169050919050565b7f4e487b71000000000000000000000000000000000000000000000000000000005f52604160045260245ffd5b6126b58261266f565b810181811067ffffffffffffffff821117156126d4576126d361267f565b5b80604052505050565b5f6126e6611f81565b90506126f282826126ac565b919050565b5f80fd5b5f67ffffffffffffffff8211156127155761271461267f565b5b602082029050602081019050919050565b5f612738612733846126fb565b6126dd565b9050808382526020820190506020840283018581111561275b5761275a61212b565b5b835b818110156127845780612770888261208b565b84526020840193505060208101905061275d565b5050509392505050565b5f82601f8301126127a2576127a1612123565b5b81356127b2848260208601612726565b91505092915050565b5f604082840312156127d0576127cf61266b565b5b6127da60406126dd565b90505f6127e98482850161208b565b5f83015250602082013567ffffffffffffffff81111561280c5761280b6126f7565b5b6128188482850161278e565b60208301525092915050565b5f6020828403121561283957612838611f8a565b5b5f82013567ffffffffffffffff81111561285657612855611f8e565b5b612862848285016127bb565b91505092915050565b60038110612877575f80fd5b50565b5f813590506128888161286b565b92915050565b5f80fd5b5f67ffffffffffffffff8211156128ac576128ab61267f565b5b6128b58261266f565b9050602081019050919050565b828183375f83830152505050565b5f6128e26128dd84612892565b6126dd565b9050828152602081018484840111156128fe576128fd61288e565b5b6129098482856128c2565b509392505050565b5f82601f83011261292557612924612123565b5b81356129358482602086016128d0565b91505092915050565b5f608082840312156129535761295261266b565b5b61295d60806126dd565b90505f61296c8482850161287a565b5f83015250602061297f8482850161208b565b60208301525060406129938482850161208b565b604083015250606082013567ffffffffffffffff8111156129b7576129b66126f7565b5b6129c384828501612911565b60608301525092915050565b5f602082840312156129e4576129e3611f8a565b5b5f82013567ffffffffffffffff811115612a0157612a00611f8e565b5b612a0d8482850161293e565b91505092915050565b7f4e487b71000000000000000000000000000000000000000000000000000000005f52602160045260245ffd5b5f81519050612a5181612397565b92915050565b5f60208284031215612a6c57612a6b61266b565b5b612a7660206126dd565b90505f612a8584828501612a43565b5f8301525092915050565b5f60208284031215612aa557612aa4611f8a565b5b5f612ab284828501612a57565b91505092915050565b5f604082019050612ace5f8301856123ff565b612adb60208301846120d3565b9392505050565b8281835e5f83830152505050565b5f612b02612afd84612892565b6126dd565b905082815260208101848484011115612b1e57612b1d61288e565b5b612b29848285612ae2565b509392505050565b5f82601f830112612b4557612b44612123565b5b8151612b55848260208601612af0565b91505092915050565b5f60608284031215612b7357612b7261266b565b5b612b7d60606126dd565b90505f612b8c84828501612a43565b5f830152506020612b9f84828501612a43565b602083015250604082015167ffffffffffffffff811115612bc357612bc26126f7565b5b612bcf84828501612b31565b60408301525092915050565b5f60208284031215612bf057612bef611f8a565b5b5f82015167ffffffffffffffff811115612c0d57612c0c611f8e565b5b612c1984828501612b5e565b91505092915050565b5f81519050919050565b5f82825260208201905092915050565b5f612c4682612c22565b612c508185612c2c565b9350612c60818560208601612ae2565b612c698161266f565b840191505092915050565b5f60a082019050612c875f8301886123ff565b612c9460208301876123ff565b612ca160408301866120d3565b612cae60608301856120d3565b8181036080830152612cc08184612c3c565b90509695505050505050565b5f60208284031215612ce157612ce0611f8a565b5b5f612cee84828501612a43565b91505092915050565b5f80fd5b5f80fd5b5f80fd5b5f8083356001602003843603038112612d1f57612d1e612cf7565b5b80840192508235915067ffffffffffffffff821115612d4157612d40612cfb565b5b602083019250600182023603831315612d5d57612d5c612cff565b5b509250929050565b7f4e487b71000000000000000000000000000000000000000000000000000000005f52601160045260245ffd5b5f612d9c826120ca565b9150612da7836120ca565b9250828201905080821115612dbf57612dbe612d65565b5b92915050565b5f606082019050612dd85f8301866123ff565b612de560208301856120d3565b612df260408301846120d3565b949350505050565b5f606082019050612e0d5f8301866123ff565b612e1a60208301856123ff565b612e2760408301846120d3565b94935050505056fea2646970667358221220055486174163d546a586ea104a85f7592ff11e5d5de54a6f54b719de0e310fb064736f6c63430008190033",
  "linkReferences": {},
  "deployedLinkReferences": {}
}