{
  "_format": "hh-sol-artifact-1",
  "contractName": "SimpleBudget",
  "sourceName": "contracts/budgets/SimpleBudget.sol",
  "abi": [
    {
      "inputs": [],
      "stateMutability": "nonpayable",
      "type": "constructor"
    },
    {
      "inputs": [],
      "name": "AlreadyInitialized",
      "type": "error"
    },
    {
      "inputs": [],
      "name": "CloneAlreadyInitialized",
      "type": "error"
    },
    {
      "inputs": [],
      "name": "InitializerNotImplemented",
      "type": "error"
    },
    {
      "inputs": [
        {
          "internalType": "address",
          "name": "asset",
          "type": "address"
        },
        {
          "internalType": "uint256",
          "name": "available",
          "type": "uint256"
        },
        {
          "internalType": "uint256",
          "name": "required",
          "type": "uint256"
        }
      ],
      "name": "InsufficientFunds",
      "type": "error"
    },
    {
      "inputs": [
        {
          "internalType": "address",
          "name": "asset",
          "type": "address"
        },
        {
          "internalType": "uint256",
          "name": "amount",
          "type": "uint256"
        }
      ],
      "name": "InvalidAllocation",
      "type": "error"
    },
    {
      "inputs": [],
      "name": "InvalidInitialization",
      "type": "error"
    },
    {
      "inputs": [],
      "name": "InvalidInitializationData",
      "type": "error"
    },
    {
      "inputs": [],
      "name": "LengthMismatch",
      "type": "error"
    },
    {
      "inputs": [],
      "name": "NewOwnerIsZeroAddress",
      "type": "error"
    },
    {
      "inputs": [],
      "name": "NoHandoverRequest",
      "type": "error"
    },
    {
      "inputs": [],
      "name": "NotInitializing",
      "type": "error"
    },
    {
      "inputs": [],
      "name": "Reentrancy",
      "type": "error"
    },
    {
      "inputs": [
        {
          "internalType": "address",
          "name": "asset",
          "type": "address"
        },
        {
          "internalType": "address",
          "name": "to",
          "type": "address"
        },
        {
          "internalType": "uint256",
          "name": "amount",
          "type": "uint256"
        }
      ],
      "name": "TransferFailed",
      "type": "error"
    },
    {
      "inputs": [],
      "name": "Unauthorized",
      "type": "error"
    },
    {
      "anonymous": false,
      "inputs": [
        {
          "indexed": true,
          "internalType": "address",
          "name": "account",
          "type": "address"
        },
        {
          "indexed": false,
          "internalType": "bool",
          "name": "isAuthorized",
          "type": "bool"
        }
      ],
      "name": "Authorized",
      "type": "event"
    },
    {
      "anonymous": false,
      "inputs": [
        {
          "indexed": true,
          "internalType": "address",
          "name": "asset",
          "type": "address"
        },
        {
          "indexed": false,
          "internalType": "address",
          "name": "to",
          "type": "address"
        },
        {
          "indexed": false,
          "internalType": "uint256",
          "name": "amount",
          "type": "uint256"
        }
      ],
      "name": "Distributed",
      "type": "event"
    },
    {
      "anonymous": false,
      "inputs": [
        {
          "indexed": false,
          "internalType": "uint64",
          "name": "version",
          "type": "uint64"
        }
      ],
      "name": "Initialized",
      "type": "event"
    },
    {
      "anonymous": false,
      "inputs": [
        {
          "indexed": true,
          "internalType": "address",
          "name": "pendingOwner",
          "type": "address"
        }
      ],
      "name": "OwnershipHandoverCanceled",
      "type": "event"
    },
    {
      "anonymous": false,
      "inputs": [
        {
          "indexed": true,
          "internalType": "address",
          "name": "pendingOwner",
          "type": "address"
        }
      ],
      "name": "OwnershipHandoverRequested",
      "type": "event"
    },
    {
      "anonymous": false,
      "inputs": [
        {
          "indexed": true,
          "internalType": "address",
          "name": "oldOwner",
          "type": "address"
        },
        {
          "indexed": true,
          "internalType": "address",
          "name": "newOwner",
          "type": "address"
        }
      ],
      "name": "OwnershipTransferred",
      "type": "event"
    },
    {
      "stateMutability": "payable",
      "type": "fallback"
    },
    {
      "inputs": [
        {
          "internalType": "bytes",
          "name": "data_",
          "type": "bytes"
        }
      ],
      "name": "allocate",
      "outputs": [
        {
          "internalType": "bool",
          "name": "",
          "type": "bool"
        }
      ],
      "stateMutability": "payable",
      "type": "function"
    },
    {
      "inputs": [
        {
          "internalType": "address",
          "name": "asset_",
          "type": "address"
        }
      ],
      "name": "available",
      "outputs": [
        {
          "internalType": "uint256",
          "name": "",
          "type": "uint256"
        }
      ],
      "stateMutability": "view",
      "type": "function"
    },
    {
      "inputs": [
        {
          "internalType": "address",
          "name": "asset_",
          "type": "address"
        },
        {
          "internalType": "uint256",
          "name": "tokenId_",
          "type": "uint256"
        }
      ],
      "name": "available",
      "outputs": [
        {
          "internalType": "uint256",
          "name": "",
          "type": "uint256"
        }
      ],
      "stateMutability": "view",
      "type": "function"
    },
    {
      "inputs": [],
      "name": "cancelOwnershipHandover",
      "outputs": [],
      "stateMutability": "payable",
      "type": "function"
    },
    {
      "inputs": [
        {
          "internalType": "address",
          "name": "pendingOwner",
          "type": "address"
        }
      ],
      "name": "completeOwnershipHandover",
      "outputs": [],
      "stateMutability": "payable",
      "type": "function"
    },
    {
      "inputs": [
        {
          "internalType": "bytes",
          "name": "data_",
          "type": "bytes"
        }
      ],
      "name": "disburse",
      "outputs": [
        {
          "internalType": "bool",
          "name": "",
          "type": "bool"
        }
      ],
      "stateMutability": "nonpayable",
      "type": "function"
    },
    {
      "inputs": [
        {
          "internalType": "bytes[]",
          "name": "data_",
          "type": "bytes[]"
        }
      ],
      "name": "disburseBatch",
      "outputs": [
        {
          "internalType": "bool",
          "name": "",
          "type": "bool"
        }
      ],
      "stateMutability": "nonpayable",
      "type": "function"
    },
    {
      "inputs": [
        {
          "internalType": "address",
          "name": "asset_",
          "type": "address"
        }
      ],
      "name": "distributed",
      "outputs": [
        {
          "internalType": "uint256",
          "name": "",
          "type": "uint256"
        }
      ],
      "stateMutability": "view",
      "type": "function"
    },
    {
      "inputs": [
        {
          "internalType": "address",
          "name": "asset_",
          "type": "address"
        },
        {
          "internalType": "uint256",
          "name": "tokenId_",
          "type": "uint256"
        }
      ],
      "name": "distributed",
      "outputs": [
        {
          "internalType": "uint256",
          "name": "",
          "type": "uint256"
        }
      ],
      "stateMutability": "view",
      "type": "function"
    },
    {
      "inputs": [],
      "name": "getComponentInterface",
      "outputs": [
        {
          "internalType": "bytes4",
          "name": "",
          "type": "bytes4"
        }
      ],
      "stateMutability": "pure",
      "type": "function"
    },
    {
      "inputs": [
        {
          "internalType": "bytes",
          "name": "i",
          "type": "bytes"
        }
      ],
      "name": "getGarbageA",
      "outputs": [
        {
          "internalType": "bool",
          "name": "",
          "type": "bool"
        }
      ],
      "stateMutability": "pure",
      "type": "function"
    },
    {
      "inputs": [
        {
          "internalType": "bytes",
          "name": "data_",
          "type": "bytes"
        }
      ],
      "name": "initialize",
      "outputs": [],
      "stateMutability": "nonpayable",
      "type": "function"
    },
    {
      "inputs": [
        {
          "internalType": "address",
          "name": "account_",
          "type": "address"
        }
      ],
      "name": "isAuthorized",
      "outputs": [
        {
          "internalType": "bool",
          "name": "",
          "type": "bool"
        }
      ],
      "stateMutability": "view",
      "type": "function"
    },
    {
      "inputs": [
        {
          "internalType": "address",
          "name": "",
          "type": "address"
        },
        {
          "internalType": "address",
          "name": "",
          "type": "address"
        },
        {
          "internalType": "uint256[]",
          "name": "",
          "type": "uint256[]"
        },
        {
          "internalType": "uint256[]",
          "name": "",
          "type": "uint256[]"
        },
        {
          "internalType": "bytes",
          "name": "",
          "type": "bytes"
        }
      ],
      "name": "onERC1155BatchReceived",
      "outputs": [
        {
          "internalType": "bytes4",
          "name": "",
          "type": "bytes4"
        }
      ],
      "stateMutability": "pure",
      "type": "function"
    },
    {
      "inputs": [
        {
          "internalType": "address",
          "name": "",
          "type": "address"
        },
        {
          "internalType": "address",
          "name": "",
          "type": "address"
        },
        {
          "internalType": "uint256",
          "name": "",
          "type": "uint256"
        },
        {
          "internalType": "uint256",
          "name": "",
          "type": "uint256"
        },
        {
          "internalType": "bytes",
          "name": "",
          "type": "bytes"
        }
      ],
      "name": "onERC1155Received",
      "outputs": [
        {
          "internalType": "bytes4",
          "name": "",
          "type": "bytes4"
        }
      ],
      "stateMutability": "pure",
      "type": "function"
    },
    {
      "inputs": [],
      "name": "owner",
      "outputs": [
        {
          "internalType": "address",
          "name": "result",
          "type": "address"
        }
      ],
      "stateMutability": "view",
      "type": "function"
    },
    {
      "inputs": [
        {
          "internalType": "address",
          "name": "pendingOwner",
          "type": "address"
        }
      ],
      "name": "ownershipHandoverExpiresAt",
      "outputs": [
        {
          "internalType": "uint256",
          "name": "result",
          "type": "uint256"
        }
      ],
      "stateMutability": "view",
      "type": "function"
    },
    {
      "inputs": [
        {
          "internalType": "bytes",
          "name": "data_",
          "type": "bytes"
        }
      ],
      "name": "reclaim",
      "outputs": [
        {
          "internalType": "bool",
          "name": "",
          "type": "bool"
        }
      ],
      "stateMutability": "nonpayable",
      "type": "function"
    },
    {
      "inputs": [
        {
          "internalType": "bytes",
          "name": "",
          "type": "bytes"
        }
      ],
      "name": "reconcile",
      "outputs": [
        {
          "internalType": "uint256",
          "name": "",
          "type": "uint256"
        }
      ],
      "stateMutability": "nonpayable",
      "type": "function"
    },
    {
      "inputs": [],
      "name": "renounceOwnership",
      "outputs": [],
      "stateMutability": "payable",
      "type": "function"
    },
    {
      "inputs": [],
      "name": "requestOwnershipHandover",
      "outputs": [],
      "stateMutability": "payable",
      "type": "function"
    },
    {
      "inputs": [
        {
          "internalType": "address[]",
          "name": "account_",
          "type": "address[]"
        },
        {
          "internalType": "bool[]",
          "name": "authorized_",
          "type": "bool[]"
        }
      ],
      "name": "setAuthorized",
      "outputs": [],
      "stateMutability": "nonpayable",
      "type": "function"
    },
    {
      "inputs": [
        {
          "internalType": "bytes4",
          "name": "interfaceId",
          "type": "bytes4"
        }
      ],
      "name": "supportsInterface",
      "outputs": [
        {
          "internalType": "bool",
          "name": "",
          "type": "bool"
        }
      ],
      "stateMutability": "view",
      "type": "function"
    },
    {
      "inputs": [
        {
          "internalType": "address",
          "name": "asset_",
          "type": "address"
        }
      ],
      "name": "total",
      "outputs": [
        {
          "internalType": "uint256",
          "name": "",
          "type": "uint256"
        }
      ],
      "stateMutability": "view",
      "type": "function"
    },
    {
      "inputs": [
        {
          "internalType": "address",
          "name": "asset_",
          "type": "address"
        },
        {
          "internalType": "uint256",
          "name": "tokenId_",
          "type": "uint256"
        }
      ],
      "name": "total",
      "outputs": [
        {
          "internalType": "uint256",
          "name": "",
          "type": "uint256"
        }
      ],
      "stateMutability": "view",
      "type": "function"
    },
    {
      "inputs": [
        {
          "internalType": "address",
          "name": "newOwner",
          "type": "address"
        }
      ],
      "name": "transferOwnership",
      "outputs": [],
      "stateMutability": "payable",
      "type": "function"
    },
    {
      "stateMutability": "payable",
      "type": "receive"
    }
  ],
  "bytecode": "0x608060405234801561000f575f80fd5b5061001f3361003260201b60201c565b61002d61010e60201b60201c565b6101a7565b61004061017a60201b60201c565b156100b8577fffffffffffffffffffffffffffffffffffffffffffffffffffffffff7487392780541561007a57630dc149f05f526004601cfd5b8160601b60601c9150811560ff1b82178155815f7f8be0079c531659141344cd1fd0a4f28419497f9722a3daafe3b4186f6b6457e05f80a35061010b565b8060601b60601c9050807fffffffffffffffffffffffffffffffffffffffffffffffffffffffff7487392755805f7f8be0079c531659141344cd1fd0a4f28419497f9722a3daafe3b4186f6b6457e05f80a35b50565b5f61011d61017e60201b60201c565b9050805460018116156101375763f92ee8a95f526004601cfd5b8160c01c808260011c14610175578060011b8355806020527fc7f505b2f371ae2175ee4913f4499e1f2633a7b5936321eed1cdaeb6115181d2602080a15b505050565b5f90565b5f7fffffffffffffffffffffffffffffffffffffffffffffffffffffffffbf6011325f1b905090565b612ec7806101b45f395ff3fe608060405260043610610184575f3560e01c80638da5cb5b116100d0578063f23a6e6111610089578063f9a802c311610063578063f9a802c314610587578063fa4ca9b1146105c3578063fe9fbb80146105ff578063fee81cf41461063b5761018b565b8063f23a6e61146104f3578063f2fde38b1461052f578063f8724aba1461054b5761018b565b80638da5cb5b146103bd578063bc197c81146103e7578063c2c59fcf14610423578063d2514e841461045f578063f04e283e1461049b578063f1c30ec0146104b75761018b565b8063451cc1911161013d5780635aef467a116101175780635aef467a1461030b57806361400c991461033b578063715018a614610377578063774c33ab146103815761018b565b8063451cc1911461028957806354d1f13d146102c5578063578bcf35146102cf5761018b565b806301ffc9a71461018d57806310098ad5146101c9578063256929621461020557806328d6183b1461020f5780634359d28a14610239578063439fab91146102615761018b565b3661018b57005b005b348015610198575f80fd5b506101b360048036038101906101ae9190612049565b610677565b6040516101c0919061208e565b60405180910390f35b3480156101d4575f80fd5b506101ef60048036038101906101ea9190612101565b6107c0565b6040516101fc9190612144565b60405180910390f35b61020d61082b565b005b34801561021a575f80fd5b5061022361087c565b604051610230919061216c565b60405180910390f35b348015610244575f80fd5b5061025f600480360381019061025a919061223b565b6108a3565b005b34801561026c575f80fd5b506102876004803603810190610282919061230e565b6109ad565b005b348015610294575f80fd5b506102af60048036038101906102aa919061230e565b610ad2565b6040516102bc9190612144565b60405180910390f35b6102cd610ad9565b005b3480156102da575f80fd5b506102f560048036038101906102f09190612101565b610b12565b6040516103029190612144565b60405180910390f35b6103256004803603810190610320919061230e565b610b57565b604051610332919061208e565b60405180910390f35b348015610346575f80fd5b50610361600480360381019061035c91906123ae565b610ec7565b60405161036e919061208e565b60405180910390f35b61037f610f2b565b005b34801561038c575f80fd5b506103a760048036038101906103a29190612423565b610f3e565b6040516103b49190612144565b60405180910390f35b3480156103c8575f80fd5b506103d1610f94565b6040516103de9190612470565b60405180910390f35b3480156103f2575f80fd5b5061040d600480360381019061040891906124de565b610fbc565b60405161041a919061216c565b60405180910390f35b34801561042e575f80fd5b506104496004803603810190610444919061230e565b610fd3565b604051610456919061208e565b60405180910390f35b34801561046a575f80fd5b5061048560048036038101906104809190612101565b610fde565b6040516104929190612144565b60405180910390f35b6104b560048036038101906104b09190612101565b611036565b005b3480156104c2575f80fd5b506104dd60048036038101906104d8919061230e565b611074565b6040516104ea919061208e565b60405180910390f35b3480156104fe575f80fd5b50610519600480360381019061051491906125b5565b61125a565b604051610526919061216c565b60405180910390f35b61054960048036038101906105449190612101565b61126f565b005b348015610556575f80fd5b50610571600480360381019061056c9190612423565b611298565b60405161057e9190612144565b60405180910390f35b348015610592575f80fd5b506105ad60048036038101906105a89190612423565b61131a565b6040516105ba9190612144565b60405180910390f35b3480156105ce575f80fd5b506105e960048036038101906105e4919061230e565b6113f3565b6040516105f6919061208e565b60405180910390f35b34801561060a575f80fd5b5061062560048036038101906106209190612101565b61169f565b604051610632919061208e565b60405180910390f35b348015610646575f80fd5b50610661600480360381019061065c9190612101565b61172e565b60405161066e9190612144565b60405180910390f35b5f7febec4e53000000000000000000000000000000000000000000000000000000007bffffffffffffffffffffffffffffffffffffffffffffffffffffffff1916827bffffffffffffffffffffffffffffffffffffffffffffffffffffffff1916148061074157507f4e2312e0000000000000000000000000000000000000000000000000000000007bffffffffffffffffffffffffffffffffffffffffffffffffffffffff1916827bffffffffffffffffffffffffffffffffffffffffffffffffffffffff1916145b806107a957507f01ffc9a7000000000000000000000000000000000000000000000000000000007bffffffffffffffffffffffffffffffffffffffffffffffffffffffff1916827bffffffffffffffffffffffffffffffffffffffffffffffffffffffff1916145b806107b957506107b882611747565b5b9050919050565b5f8073ffffffffffffffffffffffffffffffffffffffff168273ffffffffffffffffffffffffffffffffffffffff16146108225761081d308373ffffffffffffffffffffffffffffffffffffffff166117c090919063ffffffff16565b610824565b475b9050919050565b5f6108346117f3565b67ffffffffffffffff164201905063389a75e1600c52335f52806020600c2055337fdbf36a107da19e49527a7176a1babf963b4b0ff8cde35ee35d6cd8f1f9ac7e1d5f80a250565b5f7febec4e5300000000000000000000000000000000000000000000000000000000905090565b6108ab6117fd565b8181905084849050146108ea576040517fff633a3800000000000000000000000000000000000000000000000000000000815260040160405180910390fd5b5f5b848490508110156109a65782828281811061090a5761090961264b565b5b905060200201602081019061091f91906126a2565b60025f8787858181106109355761093461264b565b5b905060200201602081019061094a9190612101565b73ffffffffffffffffffffffffffffffffffffffff1673ffffffffffffffffffffffffffffffffffffffff1681526020019081526020015f205f6101000a81548160ff02191690831515021790555080806001019150506108ec565b5050505050565b5f6109b6611834565b905080546003825580156109e85760018160011c14303b106109df5763f92ee8a95f526004601cfd5b818160ff1b1b91505b505f83838101906109f99190612886565b9050610a07815f015161185d565b5f5b816020015151811015610a9657600160025f84602001518481518110610a3257610a3161264b565b5b602002602001015173ffffffffffffffffffffffffffffffffffffffff1673ffffffffffffffffffffffffffffffffffffffff1681526020019081526020015f205f6101000a81548160ff0219169083151502179055508080600101915050610a09565b50508015610acd576002815560016020527fc7f505b2f371ae2175ee4913f4499e1f2633a7b5936321eed1cdaeb6115181d2602080a15b505050565b5f92915050565b63389a75e1600c52335f525f6020600c2055337ffa7b8eab7da67f412cc9575ed43464468f9bfbae89d1675917346ca6d8fe3c925f80a2565b5f805f8373ffffffffffffffffffffffffffffffffffffffff1673ffffffffffffffffffffffffffffffffffffffff1681526020019081526020015f20549050919050565b5f808383810190610b689190612a31565b90505f6002811115610b7d57610b7c612a78565b5b815f01516002811115610b9357610b92612a78565b5b03610c09575f8160600151806020019051810190610bb19190612af2565b9050805f01513414610c03578160200151815f01516040517fcece04c5000000000000000000000000000000000000000000000000000000008152600401610bfa929190612b1d565b60405180910390fd5b50610ebb565b60016002811115610c1d57610c1c612a78565b5b815f01516002811115610c3357610c32612a78565b5b03610d0e575f8160600151806020019051810190610c519190612af2565b9050610c8b826040015130835f0151856020015173ffffffffffffffffffffffffffffffffffffffff16611933909392919063ffffffff16565b805f0151610cbc30846020015173ffffffffffffffffffffffffffffffffffffffff166117c090919063ffffffff16565b1015610d08578160200151815f01516040517fcece04c5000000000000000000000000000000000000000000000000000000008152600401610cff929190612b1d565b60405180910390fd5b50610eba565b600280811115610d2157610d20612a78565b5b815f01516002811115610d3757610d36612a78565b5b03610eb0575f8160600151806020019051810190610d559190612c3d565b9050816020015173ffffffffffffffffffffffffffffffffffffffff1663f242432a836040015130845f0151856020015186604001516040518663ffffffff1660e01b8152600401610dab959493929190612cd6565b5f604051808303815f87803b158015610dc2575f80fd5b505af1158015610dd4573d5f803e3d5ffd5b505050508060200151826020015173ffffffffffffffffffffffffffffffffffffffff1662fdd58e30845f01516040518363ffffffff1660e01b8152600401610e1e929190612b1d565b602060405180830381865afa158015610e39573d5f803e3d5ffd5b505050506040513d601f19601f82011682018060405250810190610e5d9190612d2e565b1015610eaa57816020015181602001516040517fcece04c5000000000000000000000000000000000000000000000000000000008152600401610ea1929190612b1d565b60405180910390fd5b50610eb9565b5f915050610ec1565b5b5b60019150505b92915050565b5f805f90505b83839050811015610f1f57610f05848483818110610eee57610eed61264b565b5b9050602002810190610f009190612d65565b6113f3565b610f12575f915050610f25565b8080600101915050610ecd565b50600190505b92915050565b610f336117fd565b610f3c5f61198d565b565b5f60015f8473ffffffffffffffffffffffffffffffffffffffff1673ffffffffffffffffffffffffffffffffffffffff1681526020019081526020015f205f8381526020019081526020015f2054905092915050565b5f7fffffffffffffffffffffffffffffffffffffffffffffffffffffffff7487392754905090565b5f63bc197c8160e01b905098975050505050505050565b5f6001905092915050565b5f805f8373ffffffffffffffffffffffffffffffffffffffff1673ffffffffffffffffffffffffffffffffffffffff1681526020019081526020015f2054611025836107c0565b61102f9190612df4565b9050919050565b61103e6117fd565b63389a75e1600c52805f526020600c20805442111561106457636f5e88185f526004601cfd5b5f8155506110718161198d565b50565b5f61107d6117fd565b5f838381019061108d9190612a31565b90505f60028111156110a2576110a1612a78565b5b815f015160028111156110b8576110b7612a78565b5b14806110eb5750600160028111156110d3576110d2612a78565b5b815f015160028111156110e9576110e8612a78565b5b145b15611144575f81606001518060200190518101906111099190612af2565b905061113e826020015183604001515f845f01511461112b57835f0151611139565b61113885602001516107c0565b5b611a53565b5061124e565b60028081111561115757611156612a78565b5b815f0151600281111561116d5761116c612a78565b5b03611244575f816060015180602001905181019061118b9190612c3d565b905061123e82602001518360400151835f01515f8560200151146111b3578460200151611234565b856020015173ffffffffffffffffffffffffffffffffffffffff1662fdd58e30875f01516040518363ffffffff1660e01b81526004016111f4929190612b1d565b602060405180830381865afa15801561120f573d5f803e3d5ffd5b505050506040513d601f19601f820116820180604052508101906112339190612d2e565b5b8560400151611c6b565b5061124d565b5f915050611254565b5b60019150505b92915050565b5f63f23a6e6160e01b90509695505050505050565b6112776117fd565b8060601b61128c57637448fbae5f526004601cfd5b6112958161198d565b50565b5f8273ffffffffffffffffffffffffffffffffffffffff1662fdd58e30846040518363ffffffff1660e01b81526004016112d3929190612b1d565b602060405180830381865afa1580156112ee573d5f803e3d5ffd5b505050506040513d601f19601f820116820180604052508101906113129190612d2e565b905092915050565b5f60015f8473ffffffffffffffffffffffffffffffffffffffff1673ffffffffffffffffffffffffffffffffffffffff1681526020019081526020015f205f8381526020019081526020015f20548373ffffffffffffffffffffffffffffffffffffffff1662fdd58e30856040518363ffffffff1660e01b81526004016113a2929190612b1d565b602060405180830381865afa1580156113bd573d5f803e3d5ffd5b505050506040513d601f19601f820116820180604052508101906113e19190612d2e565b6113eb9190612df4565b905092915050565b5f6113fd3361169f565b611433576040517f82b4290000000000000000000000000000000000000000000000000000000000815260040160405180910390fd5b5f83838101906114439190612a31565b90506001600281111561145957611458612a78565b5b815f0151600281111561146f5761146e612a78565b5b14806114a157505f600281111561148957611488612a78565b5b815f0151600281111561149f5761149e612a78565b5b145b15611541575f81606001518060200190518101906114bf9190612af2565b90505f6114cf83602001516107c0565b905080825f0151111561152457826020015181835f01516040517f5c54305e00000000000000000000000000000000000000000000000000000000815260040161151b93929190612e27565b60405180910390fd5b61153a83602001518460400151845f0151611a53565b5050611693565b60028081111561155457611553612a78565b5b815f0151600281111561156a57611569612a78565b5b03611689575f81606001518060200190518101906115889190612c3d565b90505f826020015173ffffffffffffffffffffffffffffffffffffffff1662fdd58e30845f01516040518363ffffffff1660e01b81526004016115cc929190612b1d565b602060405180830381865afa1580156115e7573d5f803e3d5ffd5b505050506040513d601f19601f8201168201806040525081019061160b9190612d2e565b905080826020015111156116625782602001518183602001516040517f5c54305e00000000000000000000000000000000000000000000000000000000815260040161165993929190612e27565b60405180910390fd5b61168283602001518460400151845f015185602001518660400151611c6b565b5050611692565b5f915050611699565b5b60019150505b92915050565b5f60025f8373ffffffffffffffffffffffffffffffffffffffff1673ffffffffffffffffffffffffffffffffffffffff1681526020019081526020015f205f9054906101000a900460ff168061172757506116f8610f94565b73ffffffffffffffffffffffffffffffffffffffff168273ffffffffffffffffffffffffffffffffffffffff16145b9050919050565b5f63389a75e1600c52815f526020600c20549050919050565b5f7f74009ff1000000000000000000000000000000000000000000000000000000007bffffffffffffffffffffffffffffffffffffffffffffffffffffffff1916827bffffffffffffffffffffffffffffffffffffffffffffffffffffffff191614806117b957506117b882611e97565b5b9050919050565b5f816014526f70a082310000000000000000000000005f5260208060246010865afa601f3d111660205102905092915050565b5f6202a300905090565b7fffffffffffffffffffffffffffffffffffffffffffffffffffffffff74873927543314611832576382b429005f526004601cfd5b565b5f7fffffffffffffffffffffffffffffffffffffffffffffffffffffffffbf6011325f1b905090565b611865611f10565b156118dd577fffffffffffffffffffffffffffffffffffffffffffffffffffffffff7487392780541561189f57630dc149f05f526004601cfd5b8160601b60601c9150811560ff1b82178155815f7f8be0079c531659141344cd1fd0a4f28419497f9722a3daafe3b4186f6b6457e05f80a350611930565b8060601b60601c9050807fffffffffffffffffffffffffffffffffffffffffffffffffffffffff7487392755805f7f8be0079c531659141344cd1fd0a4f28419497f9722a3daafe3b4186f6b6457e05f80a35b50565b60405181606052826040528360601b602c526f23b872dd000000000000000000000000600c5260205f6064601c5f895af13d1560015f5114171661197e57637939f4245f526004601cfd5b5f606052806040525050505050565b611995611f10565b156119fa577fffffffffffffffffffffffffffffffffffffffffffffffffffffffff748739278160601b60601c91508181547f8be0079c531659141344cd1fd0a4f28419497f9722a3daafe3b4186f6b6457e05f80a3811560ff1b8217815550611a50565b7fffffffffffffffffffffffffffffffffffffffffffffffffffffffff748739278160601b60601c91508181547f8be0079c531659141344cd1fd0a4f28419497f9722a3daafe3b4186f6b6457e05f80a3818155505b50565b3068929eee149b4bd212685403611a715763ab143c065f526004601cfd5b3068929eee149b4bd21268555f73ffffffffffffffffffffffffffffffffffffffff168273ffffffffffffffffffffffffffffffffffffffff1603611af1578282826040517fbf182be8000000000000000000000000000000000000000000000000000000008152600401611ae893929190612e5c565b60405180910390fd5b611afa836107c0565b811115611b4a5782611b0b846107c0565b826040517f5c54305e000000000000000000000000000000000000000000000000000000008152600401611b4193929190612e27565b60405180910390fd5b805f808573ffffffffffffffffffffffffffffffffffffffff1673ffffffffffffffffffffffffffffffffffffffff1681526020019081526020015f205f828254611b959190612df4565b925050819055505f73ffffffffffffffffffffffffffffffffffffffff168373ffffffffffffffffffffffffffffffffffffffff1603611bde57611bd98282611f14565b611c0a565b611c0982828573ffffffffffffffffffffffffffffffffffffffff16611f319092919063ffffffff16565b5b8273ffffffffffffffffffffffffffffffffffffffff167fad4a9acf26d8bba7a8cf1a41160d59be042ee554578e256c98d2ab74cdd435428383604051611c52929190612b1d565b60405180910390a23868929eee149b4bd2126855505050565b3068929eee149b4bd212685403611c895763ab143c065f526004601cfd5b3068929eee149b4bd21268555f73ffffffffffffffffffffffffffffffffffffffff168473ffffffffffffffffffffffffffffffffffffffff1603611d09578484836040517fbf182be8000000000000000000000000000000000000000000000000000000008152600401611d0093929190612e5c565b60405180910390fd5b611d138584611298565b821115611d645784611d258685611298565b836040517f5c54305e000000000000000000000000000000000000000000000000000000008152600401611d5b93929190612e27565b60405180910390fd5b8160015f8773ffffffffffffffffffffffffffffffffffffffff1673ffffffffffffffffffffffffffffffffffffffff1681526020019081526020015f205f8581526020019081526020015f205f828254611dbf9190612df4565b925050819055508473ffffffffffffffffffffffffffffffffffffffff1663f242432a30868686866040518663ffffffff1660e01b8152600401611e07959493929190612cd6565b5f604051808303815f87803b158015611e1e575f80fd5b505af1158015611e30573d5f803e3d5ffd5b505050508473ffffffffffffffffffffffffffffffffffffffff167fad4a9acf26d8bba7a8cf1a41160d59be042ee554578e256c98d2ab74cdd435428584604051611e7c929190612b1d565b60405180910390a23868929eee149b4bd21268555050505050565b5f7f6ab67a0d000000000000000000000000000000000000000000000000000000007bffffffffffffffffffffffffffffffffffffffffffffffffffffffff1916827bffffffffffffffffffffffffffffffffffffffffffffffffffffffff19161480611f095750611f0882611f7a565b5b9050919050565b5f90565b5f385f3884865af1611f2d5763b12d13eb5f526004601cfd5b5050565b81601452806034526fa9059cbb0000000000000000000000005f5260205f604460105f875af13d1560015f51141716611f71576390b8ec185f526004601cfd5b5f603452505050565b5f7f01ffc9a7000000000000000000000000000000000000000000000000000000007bffffffffffffffffffffffffffffffffffffffffffffffffffffffff1916827bffffffffffffffffffffffffffffffffffffffffffffffffffffffff1916149050919050565b5f604051905090565b5f80fd5b5f80fd5b5f7fffffffff0000000000000000000000000000000000000000000000000000000082169050919050565b61202881611ff4565b8114612032575f80fd5b50565b5f813590506120438161201f565b92915050565b5f6020828403121561205e5761205d611fec565b5b5f61206b84828501612035565b91505092915050565b5f8115159050919050565b61208881612074565b82525050565b5f6020820190506120a15f83018461207f565b92915050565b5f73ffffffffffffffffffffffffffffffffffffffff82169050919050565b5f6120d0826120a7565b9050919050565b6120e0816120c6565b81146120ea575f80fd5b50565b5f813590506120fb816120d7565b92915050565b5f6020828403121561211657612115611fec565b5b5f612123848285016120ed565b91505092915050565b5f819050919050565b61213e8161212c565b82525050565b5f6020820190506121575f830184612135565b92915050565b61216681611ff4565b82525050565b5f60208201905061217f5f83018461215d565b92915050565b5f80fd5b5f80fd5b5f80fd5b5f8083601f8401126121a6576121a5612185565b5b8235905067ffffffffffffffff8111156121c3576121c2612189565b5b6020830191508360208202830111156121df576121de61218d565b5b9250929050565b5f8083601f8401126121fb576121fa612185565b5b8235905067ffffffffffffffff81111561221857612217612189565b5b6020830191508360208202830111156122345761223361218d565b5b9250929050565b5f805f806040858703121561225357612252611fec565b5b5f85013567ffffffffffffffff8111156122705761226f611ff0565b5b61227c87828801612191565b9450945050602085013567ffffffffffffffff81111561229f5761229e611ff0565b5b6122ab878288016121e6565b925092505092959194509250565b5f8083601f8401126122ce576122cd612185565b5b8235905067ffffffffffffffff8111156122eb576122ea612189565b5b6020830191508360018202830111156123075761230661218d565b5b9250929050565b5f806020838503121561232457612323611fec565b5b5f83013567ffffffffffffffff81111561234157612340611ff0565b5b61234d858286016122b9565b92509250509250929050565b5f8083601f84011261236e5761236d612185565b5b8235905067ffffffffffffffff81111561238b5761238a612189565b5b6020830191508360208202830111156123a7576123a661218d565b5b9250929050565b5f80602083850312156123c4576123c3611fec565b5b5f83013567ffffffffffffffff8111156123e1576123e0611ff0565b5b6123ed85828601612359565b92509250509250929050565b6124028161212c565b811461240c575f80fd5b50565b5f8135905061241d816123f9565b92915050565b5f806040838503121561243957612438611fec565b5b5f612446858286016120ed565b92505060206124578582860161240f565b9150509250929050565b61246a816120c6565b82525050565b5f6020820190506124835f830184612461565b92915050565b5f8083601f84011261249e5761249d612185565b5b8235905067ffffffffffffffff8111156124bb576124ba612189565b5b6020830191508360208202830111156124d7576124d661218d565b5b9250929050565b5f805f805f805f8060a0898b0312156124fa576124f9611fec565b5b5f6125078b828c016120ed565b98505060206125188b828c016120ed565b975050604089013567ffffffffffffffff81111561253957612538611ff0565b5b6125458b828c01612489565b9650965050606089013567ffffffffffffffff81111561256857612567611ff0565b5b6125748b828c01612489565b9450945050608089013567ffffffffffffffff81111561259757612596611ff0565b5b6125a38b828c016122b9565b92509250509295985092959890939650565b5f805f805f8060a087890312156125cf576125ce611fec565b5b5f6125dc89828a016120ed565b96505060206125ed89828a016120ed565b95505060406125fe89828a0161240f565b945050606061260f89828a0161240f565b935050608087013567ffffffffffffffff8111156126305761262f611ff0565b5b61263c89828a016122b9565b92509250509295509295509295565b7f4e487b71000000000000000000000000000000000000000000000000000000005f52603260045260245ffd5b61268181612074565b811461268b575f80fd5b50565b5f8135905061269c81612678565b92915050565b5f602082840312156126b7576126b6611fec565b5b5f6126c48482850161268e565b91505092915050565b5f80fd5b5f601f19601f8301169050919050565b7f4e487b71000000000000000000000000000000000000000000000000000000005f52604160045260245ffd5b612717826126d1565b810181811067ffffffffffffffff82111715612736576127356126e1565b5b80604052505050565b5f612748611fe3565b9050612754828261270e565b919050565b5f80fd5b5f67ffffffffffffffff821115612777576127766126e1565b5b602082029050602081019050919050565b5f61279a6127958461275d565b61273f565b905080838252602082019050602084028301858111156127bd576127bc61218d565b5b835b818110156127e657806127d288826120ed565b8452602084019350506020810190506127bf565b5050509392505050565b5f82601f83011261280457612803612185565b5b8135612814848260208601612788565b91505092915050565b5f60408284031215612832576128316126cd565b5b61283c604061273f565b90505f61284b848285016120ed565b5f83015250602082013567ffffffffffffffff81111561286e5761286d612759565b5b61287a848285016127f0565b60208301525092915050565b5f6020828403121561289b5761289a611fec565b5b5f82013567ffffffffffffffff8111156128b8576128b7611ff0565b5b6128c48482850161281d565b91505092915050565b600381106128d9575f80fd5b50565b5f813590506128ea816128cd565b92915050565b5f80fd5b5f67ffffffffffffffff82111561290e5761290d6126e1565b5b612917826126d1565b9050602081019050919050565b828183375f83830152505050565b5f61294461293f846128f4565b61273f565b9050828152602081018484840111156129605761295f6128f0565b5b61296b848285612924565b509392505050565b5f82601f83011261298757612986612185565b5b8135612997848260208601612932565b91505092915050565b5f608082840312156129b5576129b46126cd565b5b6129bf608061273f565b90505f6129ce848285016128dc565b5f8301525060206129e1848285016120ed565b60208301525060406129f5848285016120ed565b604083015250606082013567ffffffffffffffff811115612a1957612a18612759565b5b612a2584828501612973565b60608301525092915050565b5f60208284031215612a4657612a45611fec565b5b5f82013567ffffffffffffffff811115612a6357612a62611ff0565b5b612a6f848285016129a0565b91505092915050565b7f4e487b71000000000000000000000000000000000000000000000000000000005f52602160045260245ffd5b5f81519050612ab3816123f9565b92915050565b5f60208284031215612ace57612acd6126cd565b5b612ad8602061273f565b90505f612ae784828501612aa5565b5f8301525092915050565b5f60208284031215612b0757612b06611fec565b5b5f612b1484828501612ab9565b91505092915050565b5f604082019050612b305f830185612461565b612b3d6020830184612135565b9392505050565b8281835e5f83830152505050565b5f612b64612b5f846128f4565b61273f565b905082815260208101848484011115612b8057612b7f6128f0565b5b612b8b848285612b44565b509392505050565b5f82601f830112612ba757612ba6612185565b5b8151612bb7848260208601612b52565b91505092915050565b5f60608284031215612bd557612bd46126cd565b5b612bdf606061273f565b90505f612bee84828501612aa5565b5f830152506020612c0184828501612aa5565b602083015250604082015167ffffffffffffffff811115612c2557612c24612759565b5b612c3184828501612b93565b60408301525092915050565b5f60208284031215612c5257612c51611fec565b5b5f82015167ffffffffffffffff811115612c6f57612c6e611ff0565b5b612c7b84828501612bc0565b91505092915050565b5f81519050919050565b5f82825260208201905092915050565b5f612ca882612c84565b612cb28185612c8e565b9350612cc2818560208601612b44565b612ccb816126d1565b840191505092915050565b5f60a082019050612ce95f830188612461565b612cf66020830187612461565b612d036040830186612135565b612d106060830185612135565b8181036080830152612d228184612c9e565b90509695505050505050565b5f60208284031215612d4357612d42611fec565b5b5f612d5084828501612aa5565b91505092915050565b5f80fd5b5f80fd5b5f80fd5b5f8083356001602003843603038112612d8157612d80612d59565b5b80840192508235915067ffffffffffffffff821115612da357612da2612d5d565b5b602083019250600182023603831315612dbf57612dbe612d61565b5b509250929050565b7f4e487b71000000000000000000000000000000000000000000000000000000005f52601160045260245ffd5b5f612dfe8261212c565b9150612e098361212c565b9250828201905080821115612e2157612e20612dc7565b5b92915050565b5f606082019050612e3a5f830186612461565b612e476020830185612135565b612e546040830184612135565b949350505050565b5f606082019050612e6f5f830186612461565b612e7c6020830185612461565b612e896040830184612135565b94935050505056fea264697066735822122028ee3cd0c1781706a1b1046304375eeea289a94de241a97520e4044206666d8764736f6c63430008190033",
  "linkReferences": {},
  "deployedLinkReferences": {}
}