{
  "_format": "hh-sol-artifact-1",
  "contractName": "SimpleBudget",
  "sourceName": "contracts/budgets/SimpleBudget.sol",
  "abi": [
    {
      "inputs": [],
      "stateMutability": "nonpayable",
      "type": "constructor"
    },
    {
      "inputs": [],
      "name": "AlreadyInitialized",
      "type": "error"
    },
    {
      "inputs": [],
      "name": "CloneAlreadyInitialized",
      "type": "error"
    },
    {
      "inputs": [],
      "name": "InitializerNotImplemented",
      "type": "error"
    },
    {
      "inputs": [
        {
          "internalType": "address",
          "name": "asset",
          "type": "address"
        },
        {
          "internalType": "uint256",
          "name": "available",
          "type": "uint256"
        },
        {
          "internalType": "uint256",
          "name": "required",
          "type": "uint256"
        }
      ],
      "name": "InsufficientFunds",
      "type": "error"
    },
    {
      "inputs": [
        {
          "internalType": "address",
          "name": "asset",
          "type": "address"
        },
        {
          "internalType": "uint256",
          "name": "amount",
          "type": "uint256"
        }
      ],
      "name": "InvalidAllocation",
      "type": "error"
    },
    {
      "inputs": [],
      "name": "InvalidInitialization",
      "type": "error"
    },
    {
      "inputs": [],
      "name": "InvalidInitializationData",
      "type": "error"
    },
    {
      "inputs": [],
      "name": "LengthMismatch",
      "type": "error"
    },
    {
      "inputs": [],
      "name": "NewOwnerIsZeroAddress",
      "type": "error"
    },
    {
      "inputs": [],
      "name": "NoHandoverRequest",
      "type": "error"
    },
    {
      "inputs": [],
      "name": "NotInitializing",
      "type": "error"
    },
    {
      "inputs": [],
      "name": "Reentrancy",
      "type": "error"
    },
    {
      "inputs": [
        {
          "internalType": "address",
          "name": "asset",
          "type": "address"
        },
        {
          "internalType": "address",
          "name": "to",
          "type": "address"
        },
        {
          "internalType": "uint256",
          "name": "amount",
          "type": "uint256"
        }
      ],
      "name": "TransferFailed",
      "type": "error"
    },
    {
      "inputs": [],
      "name": "Unauthorized",
      "type": "error"
    },
    {
      "anonymous": false,
      "inputs": [
        {
          "indexed": true,
          "internalType": "address",
          "name": "account",
          "type": "address"
        },
        {
          "indexed": false,
          "internalType": "bool",
          "name": "isAuthorized",
          "type": "bool"
        }
      ],
      "name": "Authorized",
      "type": "event"
    },
    {
      "anonymous": false,
      "inputs": [
        {
          "indexed": true,
          "internalType": "address",
          "name": "asset",
          "type": "address"
        },
        {
          "indexed": false,
          "internalType": "address",
          "name": "to",
          "type": "address"
        },
        {
          "indexed": false,
          "internalType": "uint256",
          "name": "amount",
          "type": "uint256"
        }
      ],
      "name": "Distributed",
      "type": "event"
    },
    {
      "anonymous": false,
      "inputs": [
        {
          "indexed": false,
          "internalType": "uint64",
          "name": "version",
          "type": "uint64"
        }
      ],
      "name": "Initialized",
      "type": "event"
    },
    {
      "anonymous": false,
      "inputs": [
        {
          "indexed": true,
          "internalType": "address",
          "name": "pendingOwner",
          "type": "address"
        }
      ],
      "name": "OwnershipHandoverCanceled",
      "type": "event"
    },
    {
      "anonymous": false,
      "inputs": [
        {
          "indexed": true,
          "internalType": "address",
          "name": "pendingOwner",
          "type": "address"
        }
      ],
      "name": "OwnershipHandoverRequested",
      "type": "event"
    },
    {
      "anonymous": false,
      "inputs": [
        {
          "indexed": true,
          "internalType": "address",
          "name": "oldOwner",
          "type": "address"
        },
        {
          "indexed": true,
          "internalType": "address",
          "name": "newOwner",
          "type": "address"
        }
      ],
      "name": "OwnershipTransferred",
      "type": "event"
    },
    {
      "stateMutability": "payable",
      "type": "fallback"
    },
    {
      "inputs": [
        {
          "internalType": "bytes",
          "name": "data_",
          "type": "bytes"
        }
      ],
      "name": "allocate",
      "outputs": [
        {
          "internalType": "bool",
          "name": "",
          "type": "bool"
        }
      ],
      "stateMutability": "payable",
      "type": "function"
    },
    {
      "inputs": [
        {
          "internalType": "address",
          "name": "asset_",
          "type": "address"
        }
      ],
      "name": "available",
      "outputs": [
        {
          "internalType": "uint256",
          "name": "",
          "type": "uint256"
        }
      ],
      "stateMutability": "view",
      "type": "function"
    },
    {
      "inputs": [
        {
          "internalType": "address",
          "name": "asset_",
          "type": "address"
        },
        {
          "internalType": "uint256",
          "name": "tokenId_",
          "type": "uint256"
        }
      ],
      "name": "available",
      "outputs": [
        {
          "internalType": "uint256",
          "name": "",
          "type": "uint256"
        }
      ],
      "stateMutability": "view",
      "type": "function"
    },
    {
      "inputs": [],
      "name": "cancelOwnershipHandover",
      "outputs": [],
      "stateMutability": "payable",
      "type": "function"
    },
    {
      "inputs": [
        {
          "internalType": "address",
          "name": "pendingOwner",
          "type": "address"
        }
      ],
      "name": "completeOwnershipHandover",
      "outputs": [],
      "stateMutability": "payable",
      "type": "function"
    },
    {
      "inputs": [
        {
          "internalType": "bytes",
          "name": "data_",
          "type": "bytes"
        }
      ],
      "name": "disburse",
      "outputs": [
        {
          "internalType": "bool",
          "name": "",
          "type": "bool"
        }
      ],
      "stateMutability": "nonpayable",
      "type": "function"
    },
    {
      "inputs": [
        {
          "internalType": "bytes[]",
          "name": "data_",
          "type": "bytes[]"
        }
      ],
      "name": "disburseBatch",
      "outputs": [
        {
          "internalType": "bool",
          "name": "",
          "type": "bool"
        }
      ],
      "stateMutability": "nonpayable",
      "type": "function"
    },
    {
      "inputs": [
        {
          "internalType": "address",
          "name": "asset_",
          "type": "address"
        }
      ],
      "name": "distributed",
      "outputs": [
        {
          "internalType": "uint256",
          "name": "",
          "type": "uint256"
        }
      ],
      "stateMutability": "view",
      "type": "function"
    },
    {
      "inputs": [
        {
          "internalType": "address",
          "name": "asset_",
          "type": "address"
        },
        {
          "internalType": "uint256",
          "name": "tokenId_",
          "type": "uint256"
        }
      ],
      "name": "distributed",
      "outputs": [
        {
          "internalType": "uint256",
          "name": "",
          "type": "uint256"
        }
      ],
      "stateMutability": "view",
      "type": "function"
    },
    {
      "inputs": [
        {
          "internalType": "bytes",
          "name": "data_",
          "type": "bytes"
        }
      ],
      "name": "initialize",
      "outputs": [],
      "stateMutability": "nonpayable",
      "type": "function"
    },
    {
      "inputs": [
        {
          "internalType": "address",
          "name": "account_",
          "type": "address"
        }
      ],
      "name": "isAuthorized",
      "outputs": [
        {
          "internalType": "bool",
          "name": "",
          "type": "bool"
        }
      ],
      "stateMutability": "view",
      "type": "function"
    },
    {
      "inputs": [
        {
          "internalType": "address",
          "name": "",
          "type": "address"
        },
        {
          "internalType": "address",
          "name": "",
          "type": "address"
        },
        {
          "internalType": "uint256[]",
          "name": "",
          "type": "uint256[]"
        },
        {
          "internalType": "uint256[]",
          "name": "",
          "type": "uint256[]"
        },
        {
          "internalType": "bytes",
          "name": "",
          "type": "bytes"
        }
      ],
      "name": "onERC1155BatchReceived",
      "outputs": [
        {
          "internalType": "bytes4",
          "name": "",
          "type": "bytes4"
        }
      ],
      "stateMutability": "pure",
      "type": "function"
    },
    {
      "inputs": [
        {
          "internalType": "address",
          "name": "",
          "type": "address"
        },
        {
          "internalType": "address",
          "name": "",
          "type": "address"
        },
        {
          "internalType": "uint256",
          "name": "",
          "type": "uint256"
        },
        {
          "internalType": "uint256",
          "name": "",
          "type": "uint256"
        },
        {
          "internalType": "bytes",
          "name": "",
          "type": "bytes"
        }
      ],
      "name": "onERC1155Received",
      "outputs": [
        {
          "internalType": "bytes4",
          "name": "",
          "type": "bytes4"
        }
      ],
      "stateMutability": "pure",
      "type": "function"
    },
    {
      "inputs": [],
      "name": "owner",
      "outputs": [
        {
          "internalType": "address",
          "name": "result",
          "type": "address"
        }
      ],
      "stateMutability": "view",
      "type": "function"
    },
    {
      "inputs": [
        {
          "internalType": "address",
          "name": "pendingOwner",
          "type": "address"
        }
      ],
      "name": "ownershipHandoverExpiresAt",
      "outputs": [
        {
          "internalType": "uint256",
          "name": "result",
          "type": "uint256"
        }
      ],
      "stateMutability": "view",
      "type": "function"
    },
    {
      "inputs": [
        {
          "internalType": "bytes",
          "name": "data_",
          "type": "bytes"
        }
      ],
      "name": "reclaim",
      "outputs": [
        {
          "internalType": "bool",
          "name": "",
          "type": "bool"
        }
      ],
      "stateMutability": "nonpayable",
      "type": "function"
    },
    {
      "inputs": [
        {
          "internalType": "bytes",
          "name": "",
          "type": "bytes"
        }
      ],
      "name": "reconcile",
      "outputs": [
        {
          "internalType": "uint256",
          "name": "",
          "type": "uint256"
        }
      ],
      "stateMutability": "nonpayable",
      "type": "function"
    },
    {
      "inputs": [],
      "name": "renounceOwnership",
      "outputs": [],
      "stateMutability": "payable",
      "type": "function"
    },
    {
      "inputs": [],
      "name": "requestOwnershipHandover",
      "outputs": [],
      "stateMutability": "payable",
      "type": "function"
    },
    {
      "inputs": [
        {
          "internalType": "address[]",
          "name": "account_",
          "type": "address[]"
        },
        {
          "internalType": "bool[]",
          "name": "authorized_",
          "type": "bool[]"
        }
      ],
      "name": "setAuthorized",
      "outputs": [],
      "stateMutability": "nonpayable",
      "type": "function"
    },
    {
      "inputs": [
        {
          "internalType": "bytes4",
          "name": "interfaceId",
          "type": "bytes4"
        }
      ],
      "name": "supportsInterface",
      "outputs": [
        {
          "internalType": "bool",
          "name": "",
          "type": "bool"
        }
      ],
      "stateMutability": "view",
      "type": "function"
    },
    {
      "inputs": [
        {
          "internalType": "address",
          "name": "asset_",
          "type": "address"
        }
      ],
      "name": "total",
      "outputs": [
        {
          "internalType": "uint256",
          "name": "",
          "type": "uint256"
        }
      ],
      "stateMutability": "view",
      "type": "function"
    },
    {
      "inputs": [
        {
          "internalType": "address",
          "name": "asset_",
          "type": "address"
        },
        {
          "internalType": "uint256",
          "name": "tokenId_",
          "type": "uint256"
        }
      ],
      "name": "total",
      "outputs": [
        {
          "internalType": "uint256",
          "name": "",
          "type": "uint256"
        }
      ],
      "stateMutability": "view",
      "type": "function"
    },
    {
      "inputs": [
        {
          "internalType": "address",
          "name": "newOwner",
          "type": "address"
        }
      ],
      "name": "transferOwnership",
      "outputs": [],
      "stateMutability": "payable",
      "type": "function"
    },
    {
      "stateMutability": "payable",
      "type": "receive"
    }
  ],
  "bytecode": "0x608060405234801561000f575f80fd5b5061001f3361003260201b60201c565b61002d61010e60201b60201c565b6101a7565b61004061017a60201b60201c565b156100b8577fffffffffffffffffffffffffffffffffffffffffffffffffffffffff7487392780541561007a57630dc149f05f526004601cfd5b8160601b60601c9150811560ff1b82178155815f7f8be0079c531659141344cd1fd0a4f28419497f9722a3daafe3b4186f6b6457e05f80a35061010b565b8060601b60601c9050807fffffffffffffffffffffffffffffffffffffffffffffffffffffffff7487392755805f7f8be0079c531659141344cd1fd0a4f28419497f9722a3daafe3b4186f6b6457e05f80a35b50565b5f61011d61017e60201b60201c565b9050805460018116156101375763f92ee8a95f526004601cfd5b8160c01c808260011c14610175578060011b8355806020527fc7f505b2f371ae2175ee4913f4499e1f2633a7b5936321eed1cdaeb6115181d2602080a15b505050565b5f90565b5f7fffffffffffffffffffffffffffffffffffffffffffffffffffffffffbf6011325f1b905090565b612d29806101b45f395ff3fe60806040526004361061014e575f3560e01c80638da5cb5b116100b5578063f2fde38b1161006e578063f2fde38b14610493578063f8724aba146104af578063f9a802c3146104eb578063fa4ca9b114610527578063fe9fbb8014610563578063fee81cf41461059f57610155565b80638da5cb5b1461035d578063bc197c8114610387578063d2514e84146103c3578063f04e283e146103ff578063f1c30ec01461041b578063f23a6e611461045757610155565b806354d1f13d1161010757806354d1f13d14610265578063578bcf351461026f5780635aef467a146102ab57806361400c99146102db578063715018a614610317578063774c33ab1461032157610155565b806301ffc9a71461015757806310098ad51461019357806325692962146101cf5780634359d28a146101d9578063439fab9114610201578063451cc1911461022957610155565b3661015557005b005b348015610162575f80fd5b5061017d60048036038101906101789190611eab565b6105db565b60405161018a9190611ef0565b60405180910390f35b34801561019e575f80fd5b506101b960048036038101906101b49190611f63565b610654565b6040516101c69190611fa6565b60405180910390f35b6101d76106bf565b005b3480156101e4575f80fd5b506101ff60048036038101906101fa9190612075565b610710565b005b34801561020c575f80fd5b5061022760048036038101906102229190612148565b61081a565b005b348015610234575f80fd5b5061024f600480360381019061024a9190612148565b61093f565b60405161025c9190611fa6565b60405180910390f35b61026d610946565b005b34801561027a575f80fd5b5061029560048036038101906102909190611f63565b61097f565b6040516102a29190611fa6565b60405180910390f35b6102c560048036038101906102c09190612148565b6109c4565b6040516102d29190611ef0565b60405180910390f35b3480156102e6575f80fd5b5061030160048036038101906102fc91906121e8565b610d34565b60405161030e9190611ef0565b60405180910390f35b61031f610d98565b005b34801561032c575f80fd5b506103476004803603810190610342919061225d565b610dab565b6040516103549190611fa6565b60405180910390f35b348015610368575f80fd5b50610371610e01565b60405161037e91906122aa565b60405180910390f35b348015610392575f80fd5b506103ad60048036038101906103a89190612318565b610e29565b6040516103ba91906123fe565b60405180910390f35b3480156103ce575f80fd5b506103e960048036038101906103e49190611f63565b610e40565b6040516103f69190611fa6565b60405180910390f35b61041960048036038101906104149190611f63565b610e98565b005b348015610426575f80fd5b50610441600480360381019061043c9190612148565b610ed6565b60405161044e9190611ef0565b60405180910390f35b348015610462575f80fd5b5061047d60048036038101906104789190612417565b6110bc565b60405161048a91906123fe565b60405180910390f35b6104ad60048036038101906104a89190611f63565b6110d1565b005b3480156104ba575f80fd5b506104d560048036038101906104d0919061225d565b6110fa565b6040516104e29190611fa6565b60405180910390f35b3480156104f6575f80fd5b50610511600480360381019061050c919061225d565b61117c565b60405161051e9190611fa6565b60405180910390f35b348015610532575f80fd5b5061054d60048036038101906105489190612148565b611255565b60405161055a9190611ef0565b60405180910390f35b34801561056e575f80fd5b5061058960048036038101906105849190611f63565b611501565b6040516105969190611ef0565b60405180910390f35b3480156105aa575f80fd5b506105c560048036038101906105c09190611f63565b611590565b6040516105d29190611fa6565b60405180910390f35b5f7f4e2312e0000000000000000000000000000000000000000000000000000000007bffffffffffffffffffffffffffffffffffffffffffffffffffffffff1916827bffffffffffffffffffffffffffffffffffffffffffffffffffffffff1916148061064d575061064c826115a9565b5b9050919050565b5f8073ffffffffffffffffffffffffffffffffffffffff168273ffffffffffffffffffffffffffffffffffffffff16146106b6576106b1308373ffffffffffffffffffffffffffffffffffffffff1661162290919063ffffffff16565b6106b8565b475b9050919050565b5f6106c8611655565b67ffffffffffffffff164201905063389a75e1600c52335f52806020600c2055337fdbf36a107da19e49527a7176a1babf963b4b0ff8cde35ee35d6cd8f1f9ac7e1d5f80a250565b61071861165f565b818190508484905014610757576040517fff633a3800000000000000000000000000000000000000000000000000000000815260040160405180910390fd5b5f5b8484905081101561081357828282818110610777576107766124ad565b5b905060200201602081019061078c9190612504565b60025f8787858181106107a2576107a16124ad565b5b90506020020160208101906107b79190611f63565b73ffffffffffffffffffffffffffffffffffffffff1673ffffffffffffffffffffffffffffffffffffffff1681526020019081526020015f205f6101000a81548160ff0219169083151502179055508080600101915050610759565b5050505050565b5f610823611696565b905080546003825580156108555760018160011c14303b1061084c5763f92ee8a95f526004601cfd5b818160ff1b1b91505b505f838381019061086691906126e8565b9050610874815f01516116bf565b5f5b81602001515181101561090357600160025f8460200151848151811061089f5761089e6124ad565b5b602002602001015173ffffffffffffffffffffffffffffffffffffffff1673ffffffffffffffffffffffffffffffffffffffff1681526020019081526020015f205f6101000a81548160ff0219169083151502179055508080600101915050610876565b5050801561093a576002815560016020527fc7f505b2f371ae2175ee4913f4499e1f2633a7b5936321eed1cdaeb6115181d2602080a15b505050565b5f92915050565b63389a75e1600c52335f525f6020600c2055337ffa7b8eab7da67f412cc9575ed43464468f9bfbae89d1675917346ca6d8fe3c925f80a2565b5f805f8373ffffffffffffffffffffffffffffffffffffffff1673ffffffffffffffffffffffffffffffffffffffff1681526020019081526020015f20549050919050565b5f8083838101906109d59190612893565b90505f60028111156109ea576109e96128da565b5b815f01516002811115610a00576109ff6128da565b5b03610a76575f8160600151806020019051810190610a1e9190612954565b9050805f01513414610a70578160200151815f01516040517fcece04c5000000000000000000000000000000000000000000000000000000008152600401610a6792919061297f565b60405180910390fd5b50610d28565b60016002811115610a8a57610a896128da565b5b815f01516002811115610aa057610a9f6128da565b5b03610b7b575f8160600151806020019051810190610abe9190612954565b9050610af8826040015130835f0151856020015173ffffffffffffffffffffffffffffffffffffffff16611795909392919063ffffffff16565b805f0151610b2930846020015173ffffffffffffffffffffffffffffffffffffffff1661162290919063ffffffff16565b1015610b75578160200151815f01516040517fcece04c5000000000000000000000000000000000000000000000000000000008152600401610b6c92919061297f565b60405180910390fd5b50610d27565b600280811115610b8e57610b8d6128da565b5b815f01516002811115610ba457610ba36128da565b5b03610d1d575f8160600151806020019051810190610bc29190612a9f565b9050816020015173ffffffffffffffffffffffffffffffffffffffff1663f242432a836040015130845f0151856020015186604001516040518663ffffffff1660e01b8152600401610c18959493929190612b38565b5f604051808303815f87803b158015610c2f575f80fd5b505af1158015610c41573d5f803e3d5ffd5b505050508060200151826020015173ffffffffffffffffffffffffffffffffffffffff1662fdd58e30845f01516040518363ffffffff1660e01b8152600401610c8b92919061297f565b602060405180830381865afa158015610ca6573d5f803e3d5ffd5b505050506040513d601f19601f82011682018060405250810190610cca9190612b90565b1015610d1757816020015181602001516040517fcece04c5000000000000000000000000000000000000000000000000000000008152600401610d0e92919061297f565b60405180910390fd5b50610d26565b5f915050610d2e565b5b5b60019150505b92915050565b5f805f90505b83839050811015610d8c57610d72848483818110610d5b57610d5a6124ad565b5b9050602002810190610d6d9190612bc7565b611255565b610d7f575f915050610d92565b8080600101915050610d3a565b50600190505b92915050565b610da061165f565b610da95f6117ef565b565b5f60015f8473ffffffffffffffffffffffffffffffffffffffff1673ffffffffffffffffffffffffffffffffffffffff1681526020019081526020015f205f8381526020019081526020015f2054905092915050565b5f7fffffffffffffffffffffffffffffffffffffffffffffffffffffffff7487392754905090565b5f63bc197c8160e01b905098975050505050505050565b5f805f8373ffffffffffffffffffffffffffffffffffffffff1673ffffffffffffffffffffffffffffffffffffffff1681526020019081526020015f2054610e8783610654565b610e919190612c56565b9050919050565b610ea061165f565b63389a75e1600c52805f526020600c208054421115610ec657636f5e88185f526004601cfd5b5f815550610ed3816117ef565b50565b5f610edf61165f565b5f8383810190610eef9190612893565b90505f6002811115610f0457610f036128da565b5b815f01516002811115610f1a57610f196128da565b5b1480610f4d575060016002811115610f3557610f346128da565b5b815f01516002811115610f4b57610f4a6128da565b5b145b15610fa6575f8160600151806020019051810190610f6b9190612954565b9050610fa0826020015183604001515f845f015114610f8d57835f0151610f9b565b610f9a8560200151610654565b5b6118b5565b506110b0565b600280811115610fb957610fb86128da565b5b815f01516002811115610fcf57610fce6128da565b5b036110a6575f8160600151806020019051810190610fed9190612a9f565b90506110a082602001518360400151835f01515f856020015114611015578460200151611096565b856020015173ffffffffffffffffffffffffffffffffffffffff1662fdd58e30875f01516040518363ffffffff1660e01b815260040161105692919061297f565b602060405180830381865afa158015611071573d5f803e3d5ffd5b505050506040513d601f19601f820116820180604052508101906110959190612b90565b5b8560400151611acd565b506110af565b5f9150506110b6565b5b60019150505b92915050565b5f63f23a6e6160e01b90509695505050505050565b6110d961165f565b8060601b6110ee57637448fbae5f526004601cfd5b6110f7816117ef565b50565b5f8273ffffffffffffffffffffffffffffffffffffffff1662fdd58e30846040518363ffffffff1660e01b815260040161113592919061297f565b602060405180830381865afa158015611150573d5f803e3d5ffd5b505050506040513d601f19601f820116820180604052508101906111749190612b90565b905092915050565b5f60015f8473ffffffffffffffffffffffffffffffffffffffff1673ffffffffffffffffffffffffffffffffffffffff1681526020019081526020015f205f8381526020019081526020015f20548373ffffffffffffffffffffffffffffffffffffffff1662fdd58e30856040518363ffffffff1660e01b815260040161120492919061297f565b602060405180830381865afa15801561121f573d5f803e3d5ffd5b505050506040513d601f19601f820116820180604052508101906112439190612b90565b61124d9190612c56565b905092915050565b5f61125f33611501565b611295576040517f82b4290000000000000000000000000000000000000000000000000000000000815260040160405180910390fd5b5f83838101906112a59190612893565b9050600160028111156112bb576112ba6128da565b5b815f015160028111156112d1576112d06128da565b5b148061130357505f60028111156112eb576112ea6128da565b5b815f01516002811115611301576113006128da565b5b145b156113a3575f81606001518060200190518101906113219190612954565b90505f6113318360200151610654565b905080825f0151111561138657826020015181835f01516040517f5c54305e00000000000000000000000000000000000000000000000000000000815260040161137d93929190612c89565b60405180910390fd5b61139c83602001518460400151845f01516118b5565b50506114f5565b6002808111156113b6576113b56128da565b5b815f015160028111156113cc576113cb6128da565b5b036114eb575f81606001518060200190518101906113ea9190612a9f565b90505f826020015173ffffffffffffffffffffffffffffffffffffffff1662fdd58e30845f01516040518363ffffffff1660e01b815260040161142e92919061297f565b602060405180830381865afa158015611449573d5f803e3d5ffd5b505050506040513d601f19601f8201168201806040525081019061146d9190612b90565b905080826020015111156114c45782602001518183602001516040517f5c54305e0000000000000000000000000000000000000000000000000000000081526004016114bb93929190612c89565b60405180910390fd5b6114e483602001518460400151845f015185602001518660400151611acd565b50506114f4565b5f9150506114fb565b5b60019150505b92915050565b5f60025f8373ffffffffffffffffffffffffffffffffffffffff1673ffffffffffffffffffffffffffffffffffffffff1681526020019081526020015f205f9054906101000a900460ff1680611589575061155a610e01565b73ffffffffffffffffffffffffffffffffffffffff168273ffffffffffffffffffffffffffffffffffffffff16145b9050919050565b5f63389a75e1600c52815f526020600c20549050919050565b5f7f5cd687ca000000000000000000000000000000000000000000000000000000007bffffffffffffffffffffffffffffffffffffffffffffffffffffffff1916827bffffffffffffffffffffffffffffffffffffffffffffffffffffffff1916148061161b575061161a82611cf9565b5b9050919050565b5f816014526f70a082310000000000000000000000005f5260208060246010865afa601f3d111660205102905092915050565b5f6202a300905090565b7fffffffffffffffffffffffffffffffffffffffffffffffffffffffff74873927543314611694576382b429005f526004601cfd5b565b5f7fffffffffffffffffffffffffffffffffffffffffffffffffffffffffbf6011325f1b905090565b6116c7611d72565b1561173f577fffffffffffffffffffffffffffffffffffffffffffffffffffffffff7487392780541561170157630dc149f05f526004601cfd5b8160601b60601c9150811560ff1b82178155815f7f8be0079c531659141344cd1fd0a4f28419497f9722a3daafe3b4186f6b6457e05f80a350611792565b8060601b60601c9050807fffffffffffffffffffffffffffffffffffffffffffffffffffffffff7487392755805f7f8be0079c531659141344cd1fd0a4f28419497f9722a3daafe3b4186f6b6457e05f80a35b50565b60405181606052826040528360601b602c526f23b872dd000000000000000000000000600c5260205f6064601c5f895af13d1560015f511417166117e057637939f4245f526004601cfd5b5f606052806040525050505050565b6117f7611d72565b1561185c577fffffffffffffffffffffffffffffffffffffffffffffffffffffffff748739278160601b60601c91508181547f8be0079c531659141344cd1fd0a4f28419497f9722a3daafe3b4186f6b6457e05f80a3811560ff1b82178155506118b2565b7fffffffffffffffffffffffffffffffffffffffffffffffffffffffff748739278160601b60601c91508181547f8be0079c531659141344cd1fd0a4f28419497f9722a3daafe3b4186f6b6457e05f80a3818155505b50565b3068929eee149b4bd2126854036118d35763ab143c065f526004601cfd5b3068929eee149b4bd21268555f73ffffffffffffffffffffffffffffffffffffffff168273ffffffffffffffffffffffffffffffffffffffff1603611953578282826040517fbf182be800000000000000000000000000000000000000000000000000000000815260040161194a93929190612cbe565b60405180910390fd5b61195c83610654565b8111156119ac578261196d84610654565b826040517f5c54305e0000000000000000000000000000000000000000000000000000000081526004016119a393929190612c89565b60405180910390fd5b805f808573ffffffffffffffffffffffffffffffffffffffff1673ffffffffffffffffffffffffffffffffffffffff1681526020019081526020015f205f8282546119f79190612c56565b925050819055505f73ffffffffffffffffffffffffffffffffffffffff168373ffffffffffffffffffffffffffffffffffffffff1603611a4057611a3b8282611d76565b611a6c565b611a6b82828573ffffffffffffffffffffffffffffffffffffffff16611d939092919063ffffffff16565b5b8273ffffffffffffffffffffffffffffffffffffffff167fad4a9acf26d8bba7a8cf1a41160d59be042ee554578e256c98d2ab74cdd435428383604051611ab492919061297f565b60405180910390a23868929eee149b4bd2126855505050565b3068929eee149b4bd212685403611aeb5763ab143c065f526004601cfd5b3068929eee149b4bd21268555f73ffffffffffffffffffffffffffffffffffffffff168473ffffffffffffffffffffffffffffffffffffffff1603611b6b578484836040517fbf182be8000000000000000000000000000000000000000000000000000000008152600401611b6293929190612cbe565b60405180910390fd5b611b7585846110fa565b821115611bc65784611b8786856110fa565b836040517f5c54305e000000000000000000000000000000000000000000000000000000008152600401611bbd93929190612c89565b60405180910390fd5b8160015f8773ffffffffffffffffffffffffffffffffffffffff1673ffffffffffffffffffffffffffffffffffffffff1681526020019081526020015f205f8581526020019081526020015f205f828254611c219190612c56565b925050819055508473ffffffffffffffffffffffffffffffffffffffff1663f242432a30868686866040518663ffffffff1660e01b8152600401611c69959493929190612b38565b5f604051808303815f87803b158015611c80575f80fd5b505af1158015611c92573d5f803e3d5ffd5b505050508473ffffffffffffffffffffffffffffffffffffffff167fad4a9acf26d8bba7a8cf1a41160d59be042ee554578e256c98d2ab74cdd435428584604051611cde92919061297f565b60405180910390a23868929eee149b4bd21268555050505050565b5f7f42606236000000000000000000000000000000000000000000000000000000007bffffffffffffffffffffffffffffffffffffffffffffffffffffffff1916827bffffffffffffffffffffffffffffffffffffffffffffffffffffffff19161480611d6b5750611d6a82611ddc565b5b9050919050565b5f90565b5f385f3884865af1611d8f5763b12d13eb5f526004601cfd5b5050565b81601452806034526fa9059cbb0000000000000000000000005f5260205f604460105f875af13d1560015f51141716611dd3576390b8ec185f526004601cfd5b5f603452505050565b5f7f01ffc9a7000000000000000000000000000000000000000000000000000000007bffffffffffffffffffffffffffffffffffffffffffffffffffffffff1916827bffffffffffffffffffffffffffffffffffffffffffffffffffffffff1916149050919050565b5f604051905090565b5f80fd5b5f80fd5b5f7fffffffff0000000000000000000000000000000000000000000000000000000082169050919050565b611e8a81611e56565b8114611e94575f80fd5b50565b5f81359050611ea581611e81565b92915050565b5f60208284031215611ec057611ebf611e4e565b5b5f611ecd84828501611e97565b91505092915050565b5f8115159050919050565b611eea81611ed6565b82525050565b5f602082019050611f035f830184611ee1565b92915050565b5f73ffffffffffffffffffffffffffffffffffffffff82169050919050565b5f611f3282611f09565b9050919050565b611f4281611f28565b8114611f4c575f80fd5b50565b5f81359050611f5d81611f39565b92915050565b5f60208284031215611f7857611f77611e4e565b5b5f611f8584828501611f4f565b91505092915050565b5f819050919050565b611fa081611f8e565b82525050565b5f602082019050611fb95f830184611f97565b92915050565b5f80fd5b5f80fd5b5f80fd5b5f8083601f840112611fe057611fdf611fbf565b5b8235905067ffffffffffffffff811115611ffd57611ffc611fc3565b5b60208301915083602082028301111561201957612018611fc7565b5b9250929050565b5f8083601f84011261203557612034611fbf565b5b8235905067ffffffffffffffff81111561205257612051611fc3565b5b60208301915083602082028301111561206e5761206d611fc7565b5b9250929050565b5f805f806040858703121561208d5761208c611e4e565b5b5f85013567ffffffffffffffff8111156120aa576120a9611e52565b5b6120b687828801611fcb565b9450945050602085013567ffffffffffffffff8111156120d9576120d8611e52565b5b6120e587828801612020565b925092505092959194509250565b5f8083601f84011261210857612107611fbf565b5b8235905067ffffffffffffffff81111561212557612124611fc3565b5b60208301915083600182028301111561214157612140611fc7565b5b9250929050565b5f806020838503121561215e5761215d611e4e565b5b5f83013567ffffffffffffffff81111561217b5761217a611e52565b5b612187858286016120f3565b92509250509250929050565b5f8083601f8401126121a8576121a7611fbf565b5b8235905067ffffffffffffffff8111156121c5576121c4611fc3565b5b6020830191508360208202830111156121e1576121e0611fc7565b5b9250929050565b5f80602083850312156121fe576121fd611e4e565b5b5f83013567ffffffffffffffff81111561221b5761221a611e52565b5b61222785828601612193565b92509250509250929050565b61223c81611f8e565b8114612246575f80fd5b50565b5f8135905061225781612233565b92915050565b5f806040838503121561227357612272611e4e565b5b5f61228085828601611f4f565b925050602061229185828601612249565b9150509250929050565b6122a481611f28565b82525050565b5f6020820190506122bd5f83018461229b565b92915050565b5f8083601f8401126122d8576122d7611fbf565b5b8235905067ffffffffffffffff8111156122f5576122f4611fc3565b5b60208301915083602082028301111561231157612310611fc7565b5b9250929050565b5f805f805f805f8060a0898b03121561233457612333611e4e565b5b5f6123418b828c01611f4f565b98505060206123528b828c01611f4f565b975050604089013567ffffffffffffffff81111561237357612372611e52565b5b61237f8b828c016122c3565b9650965050606089013567ffffffffffffffff8111156123a2576123a1611e52565b5b6123ae8b828c016122c3565b9450945050608089013567ffffffffffffffff8111156123d1576123d0611e52565b5b6123dd8b828c016120f3565b92509250509295985092959890939650565b6123f881611e56565b82525050565b5f6020820190506124115f8301846123ef565b92915050565b5f805f805f8060a0878903121561243157612430611e4e565b5b5f61243e89828a01611f4f565b965050602061244f89828a01611f4f565b955050604061246089828a01612249565b945050606061247189828a01612249565b935050608087013567ffffffffffffffff81111561249257612491611e52565b5b61249e89828a016120f3565b92509250509295509295509295565b7f4e487b71000000000000000000000000000000000000000000000000000000005f52603260045260245ffd5b6124e381611ed6565b81146124ed575f80fd5b50565b5f813590506124fe816124da565b92915050565b5f6020828403121561251957612518611e4e565b5b5f612526848285016124f0565b91505092915050565b5f80fd5b5f601f19601f8301169050919050565b7f4e487b71000000000000000000000000000000000000000000000000000000005f52604160045260245ffd5b61257982612533565b810181811067ffffffffffffffff8211171561259857612597612543565b5b80604052505050565b5f6125aa611e45565b90506125b68282612570565b919050565b5f80fd5b5f67ffffffffffffffff8211156125d9576125d8612543565b5b602082029050602081019050919050565b5f6125fc6125f7846125bf565b6125a1565b9050808382526020820190506020840283018581111561261f5761261e611fc7565b5b835b8181101561264857806126348882611f4f565b845260208401935050602081019050612621565b5050509392505050565b5f82601f83011261266657612665611fbf565b5b81356126768482602086016125ea565b91505092915050565b5f604082840312156126945761269361252f565b5b61269e60406125a1565b90505f6126ad84828501611f4f565b5f83015250602082013567ffffffffffffffff8111156126d0576126cf6125bb565b5b6126dc84828501612652565b60208301525092915050565b5f602082840312156126fd576126fc611e4e565b5b5f82013567ffffffffffffffff81111561271a57612719611e52565b5b6127268482850161267f565b91505092915050565b6003811061273b575f80fd5b50565b5f8135905061274c8161272f565b92915050565b5f80fd5b5f67ffffffffffffffff8211156127705761276f612543565b5b61277982612533565b9050602081019050919050565b828183375f83830152505050565b5f6127a66127a184612756565b6125a1565b9050828152602081018484840111156127c2576127c1612752565b5b6127cd848285612786565b509392505050565b5f82601f8301126127e9576127e8611fbf565b5b81356127f9848260208601612794565b91505092915050565b5f608082840312156128175761281661252f565b5b61282160806125a1565b90505f6128308482850161273e565b5f83015250602061284384828501611f4f565b602083015250604061285784828501611f4f565b604083015250606082013567ffffffffffffffff81111561287b5761287a6125bb565b5b612887848285016127d5565b60608301525092915050565b5f602082840312156128a8576128a7611e4e565b5b5f82013567ffffffffffffffff8111156128c5576128c4611e52565b5b6128d184828501612802565b91505092915050565b7f4e487b71000000000000000000000000000000000000000000000000000000005f52602160045260245ffd5b5f8151905061291581612233565b92915050565b5f602082840312156129305761292f61252f565b5b61293a60206125a1565b90505f61294984828501612907565b5f8301525092915050565b5f6020828403121561296957612968611e4e565b5b5f6129768482850161291b565b91505092915050565b5f6040820190506129925f83018561229b565b61299f6020830184611f97565b9392505050565b8281835e5f83830152505050565b5f6129c66129c184612756565b6125a1565b9050828152602081018484840111156129e2576129e1612752565b5b6129ed8482856129a6565b509392505050565b5f82601f830112612a0957612a08611fbf565b5b8151612a198482602086016129b4565b91505092915050565b5f60608284031215612a3757612a3661252f565b5b612a4160606125a1565b90505f612a5084828501612907565b5f830152506020612a6384828501612907565b602083015250604082015167ffffffffffffffff811115612a8757612a866125bb565b5b612a93848285016129f5565b60408301525092915050565b5f60208284031215612ab457612ab3611e4e565b5b5f82015167ffffffffffffffff811115612ad157612ad0611e52565b5b612add84828501612a22565b91505092915050565b5f81519050919050565b5f82825260208201905092915050565b5f612b0a82612ae6565b612b148185612af0565b9350612b248185602086016129a6565b612b2d81612533565b840191505092915050565b5f60a082019050612b4b5f83018861229b565b612b58602083018761229b565b612b656040830186611f97565b612b726060830185611f97565b8181036080830152612b848184612b00565b90509695505050505050565b5f60208284031215612ba557612ba4611e4e565b5b5f612bb284828501612907565b91505092915050565b5f80fd5b5f80fd5b5f80fd5b5f8083356001602003843603038112612be357612be2612bbb565b5b80840192508235915067ffffffffffffffff821115612c0557612c04612bbf565b5b602083019250600182023603831315612c2157612c20612bc3565b5b509250929050565b7f4e487b71000000000000000000000000000000000000000000000000000000005f52601160045260245ffd5b5f612c6082611f8e565b9150612c6b83611f8e565b9250828201905080821115612c8357612c82612c29565b5b92915050565b5f606082019050612c9c5f83018661229b565b612ca96020830185611f97565b612cb66040830184611f97565b949350505050565b5f606082019050612cd15f83018661229b565b612cde602083018561229b565b612ceb6040830184611f97565b94935050505056fea264697066735822122034875de34ade1d4bbe226ba8c1792edd29d6fc598f6fc287a520d6917b14861f64736f6c63430008190033",
  "linkReferences": {},
  "deployedLinkReferences": {}
}