{
  "_format": "hh-sol-artifact-1",
  "contractName": "CGDAIncentive",
  "sourceName": "contracts/incentives/CGDAIncentive.sol",
  "abi": [
    {
      "inputs": [],
      "stateMutability": "nonpayable",
      "type": "constructor"
    },
    {
      "inputs": [],
      "name": "AlreadyInitialized",
      "type": "error"
    },
    {
      "inputs": [],
      "name": "ClaimFailed",
      "type": "error"
    },
    {
      "inputs": [],
      "name": "CloneAlreadyInitialized",
      "type": "error"
    },
    {
      "inputs": [],
      "name": "InitializerNotImplemented",
      "type": "error"
    },
    {
      "inputs": [
        {
          "internalType": "address",
          "name": "asset",
          "type": "address"
        },
        {
          "internalType": "uint256",
          "name": "available",
          "type": "uint256"
        },
        {
          "internalType": "uint256",
          "name": "required",
          "type": "uint256"
        }
      ],
      "name": "InsufficientFunds",
      "type": "error"
    },
    {
      "inputs": [],
      "name": "InvalidInitialization",
      "type": "error"
    },
    {
      "inputs": [],
      "name": "InvalidInitialization",
      "type": "error"
    },
    {
      "inputs": [],
      "name": "InvalidInitializationData",
      "type": "error"
    },
    {
      "inputs": [],
      "name": "NewOwnerIsZeroAddress",
      "type": "error"
    },
    {
      "inputs": [],
      "name": "NoHandoverRequest",
      "type": "error"
    },
    {
      "inputs": [],
      "name": "NotClaimable",
      "type": "error"
    },
    {
      "inputs": [],
      "name": "NotInitializing",
      "type": "error"
    },
    {
      "inputs": [],
      "name": "Reentrancy",
      "type": "error"
    },
    {
      "inputs": [],
      "name": "Unauthorized",
      "type": "error"
    },
    {
      "anonymous": false,
      "inputs": [
        {
          "indexed": true,
          "internalType": "address",
          "name": "recipient",
          "type": "address"
        },
        {
          "indexed": false,
          "internalType": "bytes",
          "name": "data",
          "type": "bytes"
        }
      ],
      "name": "Claimed",
      "type": "event"
    },
    {
      "anonymous": false,
      "inputs": [
        {
          "indexed": false,
          "internalType": "uint64",
          "name": "version",
          "type": "uint64"
        }
      ],
      "name": "Initialized",
      "type": "event"
    },
    {
      "anonymous": false,
      "inputs": [
        {
          "indexed": true,
          "internalType": "address",
          "name": "pendingOwner",
          "type": "address"
        }
      ],
      "name": "OwnershipHandoverCanceled",
      "type": "event"
    },
    {
      "anonymous": false,
      "inputs": [
        {
          "indexed": true,
          "internalType": "address",
          "name": "pendingOwner",
          "type": "address"
        }
      ],
      "name": "OwnershipHandoverRequested",
      "type": "event"
    },
    {
      "anonymous": false,
      "inputs": [
        {
          "indexed": true,
          "internalType": "address",
          "name": "oldOwner",
          "type": "address"
        },
        {
          "indexed": true,
          "internalType": "address",
          "name": "newOwner",
          "type": "address"
        }
      ],
      "name": "OwnershipTransferred",
      "type": "event"
    },
    {
      "inputs": [],
      "name": "asset",
      "outputs": [
        {
          "internalType": "address",
          "name": "",
          "type": "address"
        }
      ],
      "stateMutability": "view",
      "type": "function"
    },
    {
      "inputs": [],
      "name": "cancelOwnershipHandover",
      "outputs": [],
      "stateMutability": "payable",
      "type": "function"
    },
    {
      "inputs": [],
      "name": "cgdaParams",
      "outputs": [
        {
          "internalType": "uint256",
          "name": "rewardDecay",
          "type": "uint256"
        },
        {
          "internalType": "uint256",
          "name": "rewardBoost",
          "type": "uint256"
        },
        {
          "internalType": "uint256",
          "name": "lastClaimTime",
          "type": "uint256"
        },
        {
          "internalType": "uint256",
          "name": "currentReward",
          "type": "uint256"
        }
      ],
      "stateMutability": "view",
      "type": "function"
    },
    {
      "inputs": [
        {
          "internalType": "bytes",
          "name": "data_",
          "type": "bytes"
        }
      ],
      "name": "claim",
      "outputs": [
        {
          "internalType": "bool",
          "name": "",
          "type": "bool"
        }
      ],
      "stateMutability": "nonpayable",
      "type": "function"
    },
    {
      "inputs": [
        {
          "internalType": "address",
          "name": "",
          "type": "address"
        }
      ],
      "name": "claimed",
      "outputs": [
        {
          "internalType": "bool",
          "name": "",
          "type": "bool"
        }
      ],
      "stateMutability": "view",
      "type": "function"
    },
    {
      "inputs": [],
      "name": "claims",
      "outputs": [
        {
          "internalType": "uint256",
          "name": "",
          "type": "uint256"
        }
      ],
      "stateMutability": "view",
      "type": "function"
    },
    {
      "inputs": [
        {
          "internalType": "address",
          "name": "pendingOwner",
          "type": "address"
        }
      ],
      "name": "completeOwnershipHandover",
      "outputs": [],
      "stateMutability": "payable",
      "type": "function"
    },
    {
      "inputs": [],
      "name": "currentReward",
      "outputs": [
        {
          "internalType": "uint256",
          "name": "",
          "type": "uint256"
        }
      ],
      "stateMutability": "view",
      "type": "function"
    },
    {
      "inputs": [],
      "name": "getComponentInterface",
      "outputs": [
        {
          "internalType": "bytes4",
          "name": "",
          "type": "bytes4"
        }
      ],
      "stateMutability": "pure",
      "type": "function"
    },
    {
      "inputs": [
        {
          "internalType": "bytes",
          "name": "data_",
          "type": "bytes"
        }
      ],
      "name": "initialize",
      "outputs": [],
      "stateMutability": "nonpayable",
      "type": "function"
    },
    {
      "inputs": [
        {
          "internalType": "bytes",
          "name": "data_",
          "type": "bytes"
        }
      ],
      "name": "isClaimable",
      "outputs": [
        {
          "internalType": "bool",
          "name": "",
          "type": "bool"
        }
      ],
      "stateMutability": "view",
      "type": "function"
    },
    {
      "inputs": [],
      "name": "owner",
      "outputs": [
        {
          "internalType": "address",
          "name": "result",
          "type": "address"
        }
      ],
      "stateMutability": "view",
      "type": "function"
    },
    {
      "inputs": [
        {
          "internalType": "address",
          "name": "pendingOwner",
          "type": "address"
        }
      ],
      "name": "ownershipHandoverExpiresAt",
      "outputs": [
        {
          "internalType": "uint256",
          "name": "result",
          "type": "uint256"
        }
      ],
      "stateMutability": "view",
      "type": "function"
    },
    {
      "inputs": [
        {
          "internalType": "bytes",
          "name": "data_",
          "type": "bytes"
        }
      ],
      "name": "preflight",
      "outputs": [
        {
          "internalType": "bytes",
          "name": "",
          "type": "bytes"
        }
      ],
      "stateMutability": "view",
      "type": "function"
    },
    {
      "inputs": [
        {
          "internalType": "bytes",
          "name": "data_",
          "type": "bytes"
        }
      ],
      "name": "reclaim",
      "outputs": [
        {
          "internalType": "bool",
          "name": "",
          "type": "bool"
        }
      ],
      "stateMutability": "nonpayable",
      "type": "function"
    },
    {
      "inputs": [],
      "name": "renounceOwnership",
      "outputs": [],
      "stateMutability": "payable",
      "type": "function"
    },
    {
      "inputs": [],
      "name": "requestOwnershipHandover",
      "outputs": [],
      "stateMutability": "payable",
      "type": "function"
    },
    {
      "inputs": [],
      "name": "reward",
      "outputs": [
        {
          "internalType": "uint256",
          "name": "",
          "type": "uint256"
        }
      ],
      "stateMutability": "view",
      "type": "function"
    },
    {
      "inputs": [
        {
          "internalType": "bytes4",
          "name": "interfaceId",
          "type": "bytes4"
        }
      ],
      "name": "supportsInterface",
      "outputs": [
        {
          "internalType": "bool",
          "name": "",
          "type": "bool"
        }
      ],
      "stateMutability": "view",
      "type": "function"
    },
    {
      "inputs": [],
      "name": "totalBudget",
      "outputs": [
        {
          "internalType": "uint256",
          "name": "",
          "type": "uint256"
        }
      ],
      "stateMutability": "view",
      "type": "function"
    },
    {
      "inputs": [
        {
          "internalType": "address",
          "name": "newOwner",
          "type": "address"
        }
      ],
      "name": "transferOwnership",
      "outputs": [],
      "stateMutability": "payable",
      "type": "function"
    }
  ],
  "bytecode": "0x608060405234801561000f575f80fd5b5061001f3361003260201b60201c565b61002d61010e60201b60201c565b6101a7565b61004061017a60201b60201c565b156100b8577fffffffffffffffffffffffffffffffffffffffffffffffffffffffff7487392780541561007a57630dc149f05f526004601cfd5b8160601b60601c9150811560ff1b82178155815f7f8be0079c531659141344cd1fd0a4f28419497f9722a3daafe3b4186f6b6457e05f80a35061010b565b8060601b60601c9050807fffffffffffffffffffffffffffffffffffffffffffffffffffffffff7487392755805f7f8be0079c531659141344cd1fd0a4f28419497f9722a3daafe3b4186f6b6457e05f80a35b50565b5f61011d61017e60201b60201c565b9050805460018116156101375763f92ee8a95f526004601cfd5b8160c01c808260011c14610175578060011b8355806020527fc7f505b2f371ae2175ee4913f4499e1f2633a7b5936321eed1cdaeb6115181d2602080a15b505050565b5f90565b5f7fffffffffffffffffffffffffffffffffffffffffffffffffffffffffbf6011325f1b905090565b611c11806101b45f395ff3fe608060405260043610610129575f3560e01c806375ef18d0116100aa578063dcc59b6f1161006e578063dcc59b6f1461038c578063e18e6508146103b6578063f04e283e146103f2578063f1c30ec01461040e578063f2fde38b1461044a578063fee81cf41461046657610129565b806375ef18d0146102935780638da5cb5b146102c0578063c63ff8dd146102ea578063c78da39a14610326578063c884ef831461035057610129565b806338d52e0f116100f157806338d52e0f146101f1578063439fab911461021b5780634e7165a21461024357806354d1f13d1461027f578063715018a61461028957610129565b806301ffc9a71461012d57806307621eca14610169578063228cb7331461019357806325692962146101bd57806328d6183b146101c7575b5f80fd5b348015610138575f80fd5b50610153600480360381019061014e9190611221565b6104a2565b6040516101609190611266565b60405180910390f35b348015610174575f80fd5b5061017d61051b565b60405161018a9190611297565b60405180910390f35b34801561019e575f80fd5b506101a76105c5565b6040516101b49190611297565b60405180910390f35b6101c56105cb565b005b3480156101d2575f80fd5b506101db61061c565b6040516101e891906112bf565b60405180910390f35b3480156101fc575f80fd5b50610205610643565b6040516102129190611317565b60405180910390f35b348015610226575f80fd5b50610241600480360381019061023c9190611391565b610668565b005b34801561024e575f80fd5b5061026960048036038101906102649190611391565b610890565b604051610276919061144c565b60405180910390f35b610287610960565b005b610291610999565b005b34801561029e575f80fd5b506102a76109ac565b6040516102b7949392919061146c565b60405180910390f35b3480156102cb575f80fd5b506102d46109c9565b6040516102e19190611317565b60405180910390f35b3480156102f5575f80fd5b50610310600480360381019061030b9190611391565b6109f1565b60405161031d9190611266565b60405180910390f35b348015610331575f80fd5b5061033a610b9b565b6040516103479190611297565b60405180910390f35b34801561035b575f80fd5b50610376600480360381019061037191906114d9565b610ba1565b6040516103839190611266565b60405180910390f35b348015610397575f80fd5b506103a0610bbe565b6040516103ad9190611297565b60405180910390f35b3480156103c1575f80fd5b506103dc60048036038101906103d79190611391565b610bc3565b6040516103e99190611266565b60405180910390f35b61040c600480360381019061040791906114d9565b610beb565b005b348015610419575f80fd5b50610434600480360381019061042f9190611391565b610c29565b6040516104419190611266565b60405180910390f35b610464600480360381019061045f91906114d9565b610d52565b005b348015610471575f80fd5b5061048c600480360381019061048791906114d9565b610d7b565b6040516104999190611297565b60405180910390f35b5f7f8085fa3e000000000000000000000000000000000000000000000000000000007bffffffffffffffffffffffffffffffffffffffffffffffffffffffff1916827bffffffffffffffffffffffffffffffffffffffffffffffffffffffff19161480610514575061051382610d94565b5b9050919050565b5f806004600201544261052e9190611531565b90505f61057b3060035f9054906101000a900473ffffffffffffffffffffffffffffffffffffffff1673ffffffffffffffffffffffffffffffffffffffff16610e0d90919063ffffffff16565b90505f610e10600460010154846105929190611564565b61059c91906115d2565b6004600301546105ac9190611602565b90508181116105bb57806105bd565b815b935050505090565b60015481565b5f6105d4610e40565b67ffffffffffffffff164201905063389a75e1600c52335f52806020600c2055337fdbf36a107da19e49527a7176a1babf963b4b0ff8cde35ee35d6cd8f1f9ac7e1d5f80a250565b5f7f8085fa3e00000000000000000000000000000000000000000000000000000000905090565b60035f9054906101000a900473ffffffffffffffffffffffffffffffffffffffff1681565b5f610671610e4a565b905080546003825580156106a35760018160011c14303b1061069a5763f92ee8a95f526004601cfd5b818160ff1b1b91505b505f83838101906106b49190611768565b90505f6106e330835f015173ffffffffffffffffffffffffffffffffffffffff16610e0d90919063ffffffff16565b9050816080015181101561073957815f01518183608001516040517f5c54305e00000000000000000000000000000000000000000000000000000000815260040161073093929190611793565b60405180910390fd5b5f8260200151148061074e57505f8260400151145b8061075c57505f8260600151145b8061076e575081602001518260800151105b156107a5576040517ff92ee8a900000000000000000000000000000000000000000000000000000000815260040160405180910390fd5b815f015160035f6101000a81548173ffffffffffffffffffffffffffffffffffffffff021916908373ffffffffffffffffffffffffffffffffffffffff16021790555060405180608001604052808360400151815260200183606001518152602001428152602001836020015181525060045f820151815f0155602082015181600101556040820151816002015560608201518160030155905050816080015160088190555061085433610e73565b5050801561088b576002815560016020527fc7f505b2f371ae2175ee4913f4499e1f2633a7b5936321eed1cdaeb6115181d2602080a15b505050565b60605f83838101906108a29190611768565b90506040518060800160405280600160028111156108c3576108c26117c8565b5b8152602001825f015173ffffffffffffffffffffffffffffffffffffffff1681526020013073ffffffffffffffffffffffffffffffffffffffff16815260200160405180602001604052808460800151815250604051602001610926919061181e565b6040516020818303038152906040528152506040516020016109489190611934565b60405160208183030381529060405291505092915050565b63389a75e1600c52335f525f6020600c2055337ffa7b8eab7da67f412cc9575ed43464468f9bfbae89d1675917346ca6d8fe3c925f80a2565b6109a1610f49565b6109aa5f610f80565b565b6004805f0154908060010154908060020154908060030154905084565b5f7fffffffffffffffffffffffffffffffffffffffffffffffffffffffff7487392754905090565b5f6109fa610f49565b5f8383810190610a0a9190611a6d565b9050610a18815f0151611046565b610a4e576040517f6247a84e00000000000000000000000000000000000000000000000000000000815260040160405180910390fd5b5f80815480929190610a5f90611ab4565b91905055505f610a6d61051b565b90504260046002018190555060045f01548111610a8e5760045f0154610a9f565b60045f015481610a9e9190611531565b5b600460030181905550610af7825f01518260035f9054906101000a900473ffffffffffffffffffffffffffffffffffffffff1673ffffffffffffffffffffffffffffffffffffffff166111059092919063ffffffff16565b815f015173ffffffffffffffffffffffffffffffffffffffff167f9ad2e7a4af16dceda9cce4274b2f59c328d8c012eb0e15eb5e1e73b7d8f264d360035f9054906101000a900473ffffffffffffffffffffffffffffffffffffffff16845f015184604051602001610b6b93929190611b60565b604051602081830303815290604052604051610b87919061144c565b60405180910390a260019250505092915050565b60085481565b6002602052805f5260405f205f915054906101000a900460ff1681565b5f5481565b5f808383810190610bd49190611a6d565b9050610be2815f0151611046565b91505092915050565b610bf3610f49565b63389a75e1600c52805f526020600c208054421115610c1957636f5e88185f526004601cfd5b5f815550610c2681610f80565b50565b5f610c32610f49565b5f8383810190610c429190611a6d565b90505f8160200151806020019051810190610c5d9190611bb0565b9050610cae825f01518260035f9054906101000a900473ffffffffffffffffffffffffffffffffffffffff1673ffffffffffffffffffffffffffffffffffffffff166111059092919063ffffffff16565b815f015173ffffffffffffffffffffffffffffffffffffffff167f9ad2e7a4af16dceda9cce4274b2f59c328d8c012eb0e15eb5e1e73b7d8f264d360035f9054906101000a900473ffffffffffffffffffffffffffffffffffffffff16845f015184604051602001610d2293929190611b60565b604051602081830303815290604052604051610d3e919061144c565b60405180910390a260019250505092915050565b610d5a610f49565b8060601b610d6f57637448fbae5f526004601cfd5b610d7881610f80565b50565b5f63389a75e1600c52815f526020600c20549050919050565b5f7f42606236000000000000000000000000000000000000000000000000000000007bffffffffffffffffffffffffffffffffffffffffffffffffffffffff1916827bffffffffffffffffffffffffffffffffffffffffffffffffffffffff19161480610e065750610e058261114e565b5b9050919050565b5f816014526f70a082310000000000000000000000005f5260208060246010865afa601f3d111660205102905092915050565b5f6202a300905090565b5f7fffffffffffffffffffffffffffffffffffffffffffffffffffffffffbf6011325f1b905090565b610e7b6111b7565b15610ef3577fffffffffffffffffffffffffffffffffffffffffffffffffffffffff74873927805415610eb557630dc149f05f526004601cfd5b8160601b60601c9150811560ff1b82178155815f7f8be0079c531659141344cd1fd0a4f28419497f9722a3daafe3b4186f6b6457e05f80a350610f46565b8060601b60601c9050807fffffffffffffffffffffffffffffffffffffffffffffffffffffffff7487392755805f7f8be0079c531659141344cd1fd0a4f28419497f9722a3daafe3b4186f6b6457e05f80a35b50565b7fffffffffffffffffffffffffffffffffffffffffffffffffffffffff74873927543314610f7e576382b429005f526004601cfd5b565b610f886111b7565b15610fed577fffffffffffffffffffffffffffffffffffffffffffffffffffffffff748739278160601b60601c91508181547f8be0079c531659141344cd1fd0a4f28419497f9722a3daafe3b4186f6b6457e05f80a3811560ff1b8217815550611043565b7fffffffffffffffffffffffffffffffffffffffffffffffffffffffff748739278160601b60601c91508181547f8be0079c531659141344cd1fd0a4f28419497f9722a3daafe3b4186f6b6457e05f80a3818155505b50565b5f8061105061051b565b90505f811180156110aa5750806110a73060035f9054906101000a900473ffffffffffffffffffffffffffffffffffffffff1673ffffffffffffffffffffffffffffffffffffffff16610e0d90919063ffffffff16565b10155b80156110fd575060025f8473ffffffffffffffffffffffffffffffffffffffff1673ffffffffffffffffffffffffffffffffffffffff1681526020019081526020015f205f9054906101000a900460ff16155b915050919050565b81601452806034526fa9059cbb0000000000000000000000005f5260205f604460105f875af13d1560015f51141716611145576390b8ec185f526004601cfd5b5f603452505050565b5f7f01ffc9a7000000000000000000000000000000000000000000000000000000007bffffffffffffffffffffffffffffffffffffffffffffffffffffffff1916827bffffffffffffffffffffffffffffffffffffffffffffffffffffffff1916149050919050565b5f90565b5f604051905090565b5f80fd5b5f80fd5b5f7fffffffff0000000000000000000000000000000000000000000000000000000082169050919050565b611200816111cc565b811461120a575f80fd5b50565b5f8135905061121b816111f7565b92915050565b5f60208284031215611236576112356111c4565b5b5f6112438482850161120d565b91505092915050565b5f8115159050919050565b6112608161124c565b82525050565b5f6020820190506112795f830184611257565b92915050565b5f819050919050565b6112918161127f565b82525050565b5f6020820190506112aa5f830184611288565b92915050565b6112b9816111cc565b82525050565b5f6020820190506112d25f8301846112b0565b92915050565b5f73ffffffffffffffffffffffffffffffffffffffff82169050919050565b5f611301826112d8565b9050919050565b611311816112f7565b82525050565b5f60208201905061132a5f830184611308565b92915050565b5f80fd5b5f80fd5b5f80fd5b5f8083601f84011261135157611350611330565b5b8235905067ffffffffffffffff81111561136e5761136d611334565b5b60208301915083600182028301111561138a57611389611338565b5b9250929050565b5f80602083850312156113a7576113a66111c4565b5b5f83013567ffffffffffffffff8111156113c4576113c36111c8565b5b6113d08582860161133c565b92509250509250929050565b5f81519050919050565b5f82825260208201905092915050565b8281835e5f83830152505050565b5f601f19601f8301169050919050565b5f61141e826113dc565b61142881856113e6565b93506114388185602086016113f6565b61144181611404565b840191505092915050565b5f6020820190508181035f8301526114648184611414565b905092915050565b5f60808201905061147f5f830187611288565b61148c6020830186611288565b6114996040830185611288565b6114a66060830184611288565b95945050505050565b6114b8816112f7565b81146114c2575f80fd5b50565b5f813590506114d3816114af565b92915050565b5f602082840312156114ee576114ed6111c4565b5b5f6114fb848285016114c5565b91505092915050565b7f4e487b71000000000000000000000000000000000000000000000000000000005f52601160045260245ffd5b5f61153b8261127f565b91506115468361127f565b925082820390508181111561155e5761155d611504565b5b92915050565b5f61156e8261127f565b91506115798361127f565b92508282026115878161127f565b9150828204841483151761159e5761159d611504565b5b5092915050565b7f4e487b71000000000000000000000000000000000000000000000000000000005f52601260045260245ffd5b5f6115dc8261127f565b91506115e78361127f565b9250826115f7576115f66115a5565b5b828204905092915050565b5f61160c8261127f565b91506116178361127f565b925082820190508082111561162f5761162e611504565b5b92915050565b5f80fd5b7f4e487b71000000000000000000000000000000000000000000000000000000005f52604160045260245ffd5b61166f82611404565b810181811067ffffffffffffffff8211171561168e5761168d611639565b5b80604052505050565b5f6116a06111bb565b90506116ac8282611666565b919050565b5f80fd5b6116be8161127f565b81146116c8575f80fd5b50565b5f813590506116d9816116b5565b92915050565b5f60a082840312156116f4576116f3611635565b5b6116fe60a0611697565b90505f61170d848285016114c5565b5f830152506020611720848285016116cb565b6020830152506040611734848285016116cb565b6040830152506060611748848285016116cb565b606083015250608061175c848285016116cb565b60808301525092915050565b5f60a0828403121561177d5761177c6111c4565b5b5f61178a848285016116df565b91505092915050565b5f6060820190506117a65f830186611308565b6117b36020830185611288565b6117c06040830184611288565b949350505050565b7f4e487b71000000000000000000000000000000000000000000000000000000005f52602160045260245ffd5b6117fe8161127f565b82525050565b602082015f8201516118185f8501826117f5565b50505050565b5f6020820190506118315f830184611804565b92915050565b60038110611848576118476117c8565b5b50565b5f81905061185882611837565b919050565b5f6118678261184b565b9050919050565b6118778161185d565b82525050565b611886816112f7565b82525050565b5f82825260208201905092915050565b5f6118a6826113dc565b6118b0818561188c565b93506118c08185602086016113f6565b6118c981611404565b840191505092915050565b5f608083015f8301516118e95f86018261186e565b5060208301516118fc602086018261187d565b50604083015161190f604086018261187d565b5060608301518482036060860152611927828261189c565b9150508091505092915050565b5f6020820190508181035f83015261194c81846118d4565b905092915050565b5f80fd5b5f67ffffffffffffffff82111561197257611971611639565b5b61197b82611404565b9050602081019050919050565b828183375f83830152505050565b5f6119a86119a384611958565b611697565b9050828152602081018484840111156119c4576119c3611954565b5b6119cf848285611988565b509392505050565b5f82601f8301126119eb576119ea611330565b5b81356119fb848260208601611996565b91505092915050565b5f60408284031215611a1957611a18611635565b5b611a236040611697565b90505f611a32848285016114c5565b5f83015250602082013567ffffffffffffffff811115611a5557611a546116b1565b5b611a61848285016119d7565b60208301525092915050565b5f60208284031215611a8257611a816111c4565b5b5f82013567ffffffffffffffff811115611a9f57611a9e6111c8565b5b611aab84828501611a04565b91505092915050565b5f611abe8261127f565b91507fffffffffffffffffffffffffffffffffffffffffffffffffffffffffffffffff8203611af057611aef611504565b5b600182019050919050565b5f8160601b9050919050565b5f611b1182611afb565b9050919050565b5f611b2282611b07565b9050919050565b611b3a611b35826112f7565b611b18565b82525050565b5f819050919050565b611b5a611b558261127f565b611b40565b82525050565b5f611b6b8286611b29565b601482019150611b7b8285611b29565b601482019150611b8b8284611b49565b602082019150819050949350505050565b5f81519050611baa816116b5565b92915050565b5f60208284031215611bc557611bc46111c4565b5b5f611bd284828501611b9c565b9150509291505056fea2646970667358221220973695dd1106177686340364e4bcd9ed68717a892558363be5e89610e508c88264736f6c63430008190033",
  "linkReferences": {},
  "deployedLinkReferences": {}
}